:020000040800F2
:100000006807002045010008F9020008CD05000836
:10001000D1050008D5050008D9050008000000003A
:10002000000000000000000000000000DD050008E6
:10003000DF05000800000000E1050008E3050008F6
:100040005F0100085F0100085F0100085F01000810
:100050005F0100085F0100086D0600088D060008BA
:10006000DB060008670700085F0100085F01000861
:100070005F0100085F0100085F0100085F010008E0
:100080005F0100085F0100085F0100085F010008D0
:100090005F0100085F0100085F0100086B060008AF
:1000A0005F0100085F0100085F0100085F010008B0
:1000B0005F010008E50500085F0100085F01000816
:1000C0005F0100085F0100085F0100085F01000890
:1000D0005F010008FB0200085F0100085F010008E3
:1000E0005F0100085F0100085F0100085F01000870
:1000F0005F0100085F0100085F0100085F01000860
:100100005F0100085F0100085F0100085F0100084F
:100110005F0100085F0100085F0100085F0100083F
:100120005F0100085F0100085F0100085F0100082F
:10013000DFF80CD009F08CFF004800478901000867
:10014000680700200648804706480047FEE7FEE7AC
:10015000FEE7FEE7FEE7FEE7FEE7FEE7FEE7FEE777
:10016000538600083101000870B504460D46E1B21F
:10017000234807F01FFD00BF8021214807F088FDBC
:100180000028F9D0204670BD02201E49087036E0D4
:100190001C4800780A282CD2DFE800F02B2805083C
:1001A0000D121A1D202302F0C9FA27E008F046FFBD
:1001B00002F083FF22E008F041FF03F01DF81DE08C
:1001C00008F03CFF00201049087003F019F815E012
:1001D00003F03CFE12E005F02CF90FE005F036FAD2
:1001E0000CE008F02BFF05F048FF07E005F090FA5F
:1001F00004E008F023FF05F099FA00BF00BFC7E74D
:1002000000380140030000200200002010B506F075
:10021000B5F94FF4803006F0D1F906F00EFA012856
:1002200020D1002006F04FFA002006F05EFA4FF4CD
:10023000806006F051FA4FF4E0114FF4803006F080
:1002400025FA012006F02EFA00BF392006F0D9F970
:100250000028FAD0022006F028FA00BF06F02EFA95
:100260000828FBD110BD00E0401E0028FCD17047DB
:10027000014601EBC1024FF0E0235A6100229A616E
:1002800001221A6100BF4FF0E022106900F0010264
:100290001AB100F48032002AF5D000224FF0E0239A
:1002A0001A619A617047014642F228324A434FF080
:1002B000E0235A6100229A6101221A6100BF4FF0C7
:1002C000E022106900F001021AB100F48032002A25
:1002D000F5D000224FF0E0231A619A617047054A79
:1002E0001154704701460348405C08B9012070472B
:1002F0000020FCE719000020704710B540F225519E
:10030000FE4807F0DBFC00287ED02021FB4807F0E8
:10031000CCFCFB4890F84800002858D1F94890F8E8
:100320002B00002811D10621F64880F84C10F34824
:1003300007F044FCC4B2F34890F82C0098B9AA2CFA
:1003400004D00021EF4880F82C10B5E0ED4890F87B
:100350002C1090F82C00401CC2B2EA4880F82C20E7
:100360002E304454A8E0BB2C1AD1E64890F82C104B
:1003700090F82C00401CC2B2E24880F82C202E30AD
:1003800044540120DF4981F82B00084690F82C10D6
:1003900080F82D10002180F82C1080F84C108BE094
:1003A000D84890F82C001E2804DB0021D54880F89E
:1003B0002C1081E0D34890F82C1090F82C00401CB1
:1003C000C2B2D04880F82C202E30445474E0CC487F
:1003D00090F8480001286FD1CA4890F82B000028F7
:1003E0006AD10621C74880F84C10C44807F0E6FBE4
:1003F000C4B2C44890F82C00A0B9112C05D000213B
:10040000C04880F82C1057E06DE0BE4890F82C10E2
:1004100090F82C00401CC2B2BA4880F82C202E3034
:10042000445449E0B74890F82C00012813D1082C17
:1004300004D00021B34880F82C103DE0B14890F87A
:100440002C1090F82C00401CC2B2AE4880F82C2032
:100450002E30445430E0AB4890F82C001E2804DBCA
:100460000021A84880F82C1026E0A64890F82C100F
:1004700090F82C00401CC2B2A24880F82C202E30EC
:1004800044542E3890F82C00022815DD9D4890F831
:100490002C1090F83000C01C81420DD101209949E8
:1004A00081F82B00084690F82C1080F82D100021C0
:1004B00080F82C1080F84C10934890F82B000028FE
:1004C00075D106218F4880F84C108C4807F076FBD8
:1004D000C4B28D4890F82C0098B9FF2C04D00021AC
:1004E000894880F82C1062E0874890F82C1090F82A
:1004F0002C00401CC2B2844880F82C202E3044547A
:1005000055E0814890F82C00012813D1EE2C04D03E
:1005100000217D4880F82C1049E07B4890F82C1091
:1005200090F82C00401CC2B2774880F82C202E3066
:1005300044543CE0744890F82C00042821D1DD2C70
:1005400004D00021704880F82C1030E06E4890F8FC
:100550002C1090F82C00401CC2B26B4880F82C2064
:100560002E3044540120684981F82B00084690F849
:100570002C1080F82D10002180F82C1080F84C10E1
:1005800015E0614890F82C001E2804DB00215E482D
:1005900080F82C100BE05C4890F82C1090F82C00A0
:1005A000401CC2B2584880F82C202E3044544FF4DE
:1005B0005871524807F082FB38B108214F4807F0C4
:1005C00074FB4E4807F0FAFAC4B210BD00BFFEE754
:1005D00000BFFEE700BFFEE700BFFEE770477047C1
:1005E0007047704710B50121484807F0A3F908F09B
:1005F000F8FB4748007806281DD146480078401C83
:10060000444908700846007809281ADD002008705F
:1006100001204149087041480089401C3F49088138
:100620003F480068401C3E4908603E480068401C46
:100630003C49086005E03748007810B10020354992
:100640000870002409E03848005D20B13648005D9C
:10065000401E35490855601CC4B2022CF3DB3348F8
:10066000007808B908F067FF10BD704710B5012188
:100670002F4805F0C8FE28B92148408A10B105204E
:100680002C490870012006F042FA10BD10B5012077
:10069000FFF709FE0221264805F0B5FEC8B9264835
:1006A0000088022807D125480078012803D10720B7
:1006B000204908700DE020480088032806D11F4813
:1006C000007818B907201B49087002E00820194972
:1006D0000870022006F01BFA10BD10B50520FFF7C8
:1006E000E2FD0421124805F08EFE48BB0848007860
:1006F00003282BD006480078072822E00038014064
:10070000F4000020800200201A03002000040040B2
:10071000030000203C00002001000020D800002041
:10072000A800002010000020190000200000002078
:100730000014014004000020CC0100202F00002004
:100740000DE003D014480078082806D1052012498E
:10075000087000201149087001E00F48007804205B
:1007600006F0D5F910BD10B50120FFF79CFD08215A
:100770000B4805F048FE50B907480078062803D119
:1007800007200549087002E003200349087008208B
:1007900006F0BDF910BD0000030000202F0000206E
:1007A0000014014010B50020FE490870487008F0A0
:1007B000C4FBFD484088E8B1012804D002287DD060
:1007C00003286ED13AE0F94808F04AFC0620F549C2
:1007D000087001204870F6A008F055FC0E20F14981
:1007E000087001204870F3A008F04DFCF42008F0D8
:1007F000E7FBA2E0F0480078012803D1EF4808F0B9
:100800002FFC03E0ED48C01D08F02AFC0620E54956
:10081000087001204870E448808818B1E4A008F00E
:1008200032FC02E0E6A008F02EFC0E20DD49087044
:1008300001204870E3A008F026FC7EE0E248007842
:10084000B0B9DA4808F00CFC0620D649087001203F
:100850004870D7A008F017FC0E20D249087001207C
:100860004870D4A008F00FFCF42008F0A9FB24E0A5
:10087000D1480078012803D1D04808F0F1FB03E00B
:10088000CE48C01D08F0ECFB0620C64908700120C8
:100890004870C548808828B1C5A008F0F4FB04E082
:1008A0000CE049E0C6A008F0EEFB0E20BD49087040
:1008B00001204870C3A008F0E6FB3EE0C248007883
:1008C00018BBBD480078012803D1BC4808F0C8FB1C
:1008D00003E0BA48C01D08F0C3FB0620B149087008
:1008E00001204870B048808818B1B1A008F0CBFB57
:1008F00002E0B3A008F0C7FB0E20AA49087001204F
:100900004870B0A008F0BFFB15E0A84808F0A8FBAD
:100910000620A449087001204870A5A008F0B3FB88
:100920000E20A049087001204870A2A008F0ABFB7F
:10093000F42008F045FB00E000BF00BF0720994904
:100940000870002048709BA008F09DFB964909782C
:100950003131C8B208F076FB0F20924908700020B0
:100960004870732008F074FB04208E490870012041
:10097000487096A008F087FB10BD8B484A2102E022
:1009800000220270401C0A1EA1F1010399B2F7D1A6
:100990008F4B1A707047002010E0834A921C02EBC4
:1009A00040010A888B4B33F820309A4204DD894A93
:1009B00002EB800252880A80421CD0B20D28ECDB88
:1009C0007047F0B504461D46052A00DD052202B930
:1009D0000122042900DD0421914200DD114600209E
:1009E00004E020267C4F3E54461CF0B20828F8D381
:1009F000104611E00A2694FBF6F706FB1746303640
:100A0000F7B2461EDFF8D0C10CF806700A2694FB38
:100A1000F6F6B4B2461EF0B20028EBDC81B1134604
:100A2000084605E05E1E6C4FBE5DFE545E1EF3B2CE
:100A3000061EA0F10107F8B2F4D12E26664FFE542F
:100A4000A5B900200EE0644E365C302E07D1624F0F
:100A5000461CBE5D2E2E02D020263E5400E004E04F
:100A6000461CF0B2561E8642EDDC00BF09B1561C92
:100A7000F2B2104604E00026574F3E54461CF0B236
:100A80000828F8D3F0BD10B5474890F8480018B9C9
:100A9000524808F0E5FA07E0434890F8480001287A
:100AA00002D14F4808F0DCFA10BD10B53E4890F86E
:100AB000480020B94948153008F0D2FA08E03A4811
:100AC00090F84800012803D14548153008F0C8FACD
:100AD00010BD10B543A008F0C3FA10BD10B500203A
:100AE00030490870487008F028FAFFF7CCFF002062
:100AF0002C4908700120487008F01FFAFFF7D5FF55
:100B000010BD10B52C490978C1EBC101384A8818CD
:100B100008F0B9FA10BD10B523484088032802DD5B
:100B200000202149488000201E490870487008F0C4
:100B300004FA1D49498801EB41012E4A02EB4100AC
:100B400008F0A1FA072017490870002048701649DC
:100B50000978481C01231A460021FFF732FF15A02F
:100B600008F091FA1C4808F07BFA0F4840880128E9
:100B700003DD21A008F074FA02E020A008F070FA6A
:100B80000A200849087008484088032803D006480E
:100B90004088012837D10449488B002304220121D1
:100BA0002EE00000B2000020F40000200FA6000894
:100BB000444300004D000000040000201DA6000872
:100BC000414300006D4100002F0000206B560000E3
:100BD00002000020C0AC0008B4000020E0AD000816
:100BE00077AD00084F63742033302032303230004C
:100BF0002AAD000891A600085F0000002000000058
:100C0000FFF7DFFE06E0FB49C8890023042201212B
:100C1000FFF7D7FEF84808F036FAF8A008F020FAF7
:100C20000020F749087001204870F248808840B9D8
:100C3000F048C088B0F5167F03DD4FF41671ED481B
:100C4000C180EC48408801280AD1EA49888A0023FB
:100C500003220221FFF7B5FE0121E648818012E060
:100C6000E4484088032807D1E249888A0023032208
:100C70000221FFF7A6FE06E0DE49C8880023032212
:100C80000221FFF79EFEDC4808F0FDF9AFF2C40038
:100C900008F0E6F91421DB4808F07BFED948DAA118
:100CA00009680160DAA108F07FFED2484088032875
:100CB00012D1D049C888002303220221FFF781FE08
:100CC0001421D44808F065FED248CFA1096801601C
:100CD000CFA108F069FE15E0C6484088022811D16E
:100CE000C449888A002303220221FFF76AFE1421E7
:100CF000C84808F04EFEC748C3A109680160C4A1F6
:100D000008F052FEBB48808840B9BA4840880328A2
:100D100004D0AFF2541008F0A3F903E0AFF2701062
:100D200008F09EF9B3484088032803D0B1484088B2
:100D300001282FD10A20B2490870AE49C88A002381
:100D400004221946FFF73DFEAB4808F09CF9AFF2CC
:100D50009C1008F085F9F42008F032F9AEA1AD48F6
:100D600008F022FEAEA1AB4808F01EFEA148408864
:100D700003283BD19F490889002304220221FFF761
:100D800020FEA1A19F4808F00FFEA6A19D4808F0F3
:100D90000BFE2BE009209A49087096490889002328
:100DA00004220221FFF70DFE934808F06CF9AFF220
:100DB000EC1008F055F994A1924808F0F5FD99A1BE
:100DC000904808F0F1FD8B48408802280ED18949EF
:100DD000C88A002304220221FFF7F3FD8EA18D486B
:100DE00008F0E2FD8EA18B4808F0DEFD10BD70B565
:100DF00005468D48047804F03F0475B1012D09D0F3
:100E0000022D04D0032D09D144F0C00409E044F0C0
:100E1000800406E044F0400403E002E044F0C00433
:100E200000BF00BF804804700020804908607E48F1
:100E30000078C04300067C49097840EA01207C49DB
:100E4000086001207B49C1F890016420FFF72BFA6C
:100E500070BD70B504460020694908704870254689
:100E600004EBD5714910A4EB4101C1EBC10101EBC9
:100E70004101714A881808F006F90020604908709D
:100E8000012048706D4808F0FEF870BDF8B50446C2
:100E900001275B4800788DF80000594840788DF8AC
:100EA0000100206808F08CFDC6B2701CC6B2082E86
:100EB00000DD082652E067B19DF800005049087037
:100EC0009DF801004870A288216806FB021008F016
:100ED000DAF80A2007F073FF0546E12D15D009DC8A
:100EE000A5F16100082837D2DFE800F00E201136A6
:100EF000362E3331A5F1E20007282DD2DFE800F0CD
:100F000017082C2C252A280000BF6120F8BD00BF3F
:100F10000127A0886189884203DDA088401EA08047
:100F200003E06089A08008F057FB16E000BF0127AE
:100F3000A088401CA080A0882189884203DD2089E8
:100F4000A08008F049FB08E000BF6620DEE700BF94
:100F500000BF00BF6720D9E700BF00BFABE710B5F7
:100F60000446002026490870487004EB840101EB18
:100F7000C401334A881808F086F800202049087018
:100F8000012048702F4808F07EF810BD10B50446C7
:100F90000A2094FBF0F100FB1140C4B234B1012CE3
:100FA00011D0022C19D0032C5BD14DE0124808F06F
:100FB0006AF8202008F046F8562008F043F8202070
:100FC00008F040F84EE00C4808F05DF8202008F0EA
:100FD00039F8732008F036F844E0074808F053F871
:100FE000202008F02FF84D2008F02CF8F42008F00D
:100FF00029F837E0F4000020B4000020730000005E
:10100000B200002002020020302E3030000000002C
:101010006B563B00160200202020302E30000000CE
:101020004D3B00006D413B00A50000209081224215
:101030001014014000802242DEAA000832AB0008F2
:10104000B0AB00089BAB0008F64808F01CF8202065
:1010500007F0F8FF4D2007F0F5FFF42007F0F2FF4E
:1010600000E000BF00BF10BD10B504460020EE49EF
:10107000087048700E2C13D2DFE804F007131F63CA
:10108000646566676869AAABACADE8A007F0FBFFD2
:101090000020E549087001204870E9A007F0F3FF3F
:1010A000B9E0EBA007F0EFFF0020DF490870012056
:1010B0004870EB4807F0E7FFADE0EA484088C8B168
:1010C000012804D0022817D0032837D113E0A11E2D
:1010D000E54A02EB011007F0D6FF0020D249087064
:1010E00001204870611E01EB0111DD4A881807F0EC
:1010F000CAFF24E000BF00BF0020CB490870487041
:10110000A11EDA4A02EB011007F0BDFF0020C6491C
:10111000087001204870D348808838B9A11E01EBBF
:101120000111D34A881807F0AEFF06E0A11E01EBBB
:101130000111D04A881807F0A6FF00E000BF00BFE9
:1011400069E000BF00BF00BF00BF00BF00BFC548CF
:101150004088C8B1012804D0022817D0032834D110
:1011600013E0A11EC04A02EB011007F08CFF002023
:10117000AD49087001204870611E01EB0111B84AA9
:10118000881807F080FF21E000BF00BFA11E01EB1F
:101190000111B94A881807F076FF0020A2490870AB
:1011A00001204870AF48808838B9611E01EB0111F9
:1011B000AF4A881807F067FF06E0611E01EB0111D6
:1011C000AC4A881807F05FFF00E000BF00BF22E0D4
:1011D00000BF00BF00BFA11E01EB0111A64A881885
:1011E00007F051FF0C2C01D00B2C07D10E208E499B
:1011F000087000204870F42007F02AFF00208A4978
:10120000087001204870611E01EB01119B4A88188B
:1012100007F039FF00BF00BF10BD2DE9F8430446B9
:101220004FF00109804800788DF800007E48407832
:101230008DF801000027A07908B9032600E00426F4
:10124000A4E1B9F1000F10D09DF8000076490870B4
:101250009DF801004870A389DAB2A179A088002323
:10126000FFF7AFFB6F4807F00EFF0A2007F0A7FD5E
:101270008046B8F1E10F15D009DCA8F1610008281B
:1012800072D2DFE800F00E9C127171CECDCCA8F1C5
:10129000E2000728F4D2DFE800F0FA3F6767F9F8C8
:1012A000F70000BF6120BDE8F8834FF00109002777
:1012B00073488079C0F10300B04202DA701EC5B2F3
:1012C00000E035466F4830F8150061890844A18870
:1012D000884206DCA0886B4931F81510401AA080BE
:1012E00019E06089052802D06089062813D1608939
:1012F000062806D1A08810B10020A08001E008F0E7
:101300006BF96089052806D1A08810B10020A08063
:1013100001E008F061F938E14FF00109781CC7B22B
:1013200057488079C0F10300B04202DA701EC5B29E
:1013300000E035461C2F0CDD002D01DD681EC5B216
:10134000002D01DD681EC5B2002D14DD681EC5B27A
:1013500011E0132F09DD002D01DD681EC5B2002D3F
:1013600009DD681EC5B206E009E10A2F03DD002D84
:1013700001DD681EC5B2434830F815006189084494
:10138000A188884206DCA0883E4931F81510401A31
:10139000A08013E06089062806D1A08810B1002043
:1013A000A08001E008F018F96089052806D1A0881E
:1013B00010B10020A08001E008F00EF9E5E04FF048
:1013C000010900272E488079C0F10300B04202DAFB
:1013D000701EC5B200E035466089062802D06089DB
:1013E000052855D1608906280AD1A08810B90620A1
:1013F000A08005E0A088234931F815100844A0809A
:101400006089052852D1A08810B90520A0804DE040
:10141000A0881C4931F815100844A08046E0A9E0D6
:10142000AAE0A4E0B4000020B20000204D656D6F7A
:1014300072793D2020202020202020200000000064
:1014400052616E67653A312D39202020202020001E
:101450005465737420203D2020202020202020006F
:10146000A9A60008F40000202BA60008FEA600088C
:101470007EA70008C0A9000817A80008E3A8000874
:10148000C8000020ECA5000875E076E070E00EE0F2
:10149000A088F84931F815100844A080A088218957
:1014A000884203DD2089A08008F096F86DE04FF0B7
:1014B0000109781CC7B2F0488079C0F10300B0423E
:1014C00002DA701EC5B200E035461C2F0CDD002D7F
:1014D00001DD681EC5B2002D01DD681EC5B2002DFC
:1014E00013DD681EC5B210E0132F08DD002D01DDED
:1014F000681EC5B2002D08DD681EC5B205E00A2FC2
:1015000003DD002D01DD681EC5B26089062802D00A
:10151000608905281CD1608906280AD1A08810B9E5
:101520000620A08005E0A088D24931F815100844B3
:10153000A0806089052819D1A08810B90520A08055
:1015400014E0A088CB4931F815100844A0800DE0C4
:10155000A088C84931F815100844A080A0882189C6
:10156000884203DD2089A08008F036F80DE000BF36
:10157000662098E600BF08E000BF672093E6BF48FA
:101580008078012800D0002700BF00BF59E62DE970
:10159000F041002500260027B948C08940F6D861EF
:1015A000884211DD012500BF002405E00020B54977
:1015B00041F82400601CC4B20C2CF7DB0020B249B7
:1015C0000870B249088009E0AD48C089B0F5B47F21
:1015D00002DA0126002501E0002500260027AC489C
:1015E0000078002816DD012D14D1A9480078401E8E
:1015F000A74908700127002405E00020A14941F80F
:101600002400601CC4B20C2CF7DB00209E4908703B
:101610009E4908809E480078042816DA012E14D1CD
:101620009B480078401C9A4908700127002405E077
:101630000020944941F82400601CC4B20C2CF7DB54
:1016400000209149087091490880012F06D19048E7
:101650000078FFF7CCFB3220FEF725FEBDE8F081D5
:1016600001B590B00021109808F0ECFB10D2109852
:1016700008F088FB0022874BCDE9060108F06FFADD
:10168000CDE9080108F0C2FB1090012082490870E2
:10169000109808F077FB814A814BCDE9080108F0EA
:1016A00085FB01D211B000BD109808F06BFB7D4A9C
:1016B0007D4BCDE9080108F091FB58D2109808F055
:1016C00061FB784A784BCDE9060108F0BAFACDE91A
:1016D000080108F09BFB0E9074480D9000200B90C1
:1016E00026200A903FE0DDE90D1008F0FAF94FF0EE
:1016F0007E51099008F0A6FB0ED20D9808F042FB2F
:1017000000226B4BCDE9060108F09BFACDE90801F8
:1017100008F07CFB0D9000E028E00D9808F032FB0B
:10172000644A654BCDE9020108F019FACDE90601DA
:10173000109808F027FBCDE90401DDE9062308F045
:1017400080FACDE9080108F004FB0C9052490C988E
:1017500048600A9808720B98401C40B20B900A9897
:10176000401E40B20A900B980428BCDB13E210988C
:1017700008F008FB514A524BCDE9080108F02EFB56
:1017800058D2109808F0FEFA4C4A4D4BCDE90601AC
:1017900008F057FACDE9080108F038FB0E904948E7
:1017A0000D9000200B9023200A903FE0DDE90D1002
:1017B00008F097F94FF07E51099008F043FB0ED2E4
:1017C0000D9808F0DFFA0022394BCDE9060108F048
:1017D00038FACDE9080108F019FB0D9000E028E087
:1017E0000D9808F0CFFA384A384BCDE9020108F0DD
:1017F000B6F9CDE90601109808F0C4FACDE9040164
:10180000DDE9062308F01DFACDE9080108F0A1FA88
:101810000C9021490C9848600A9808720B98401C5B
:1018200040B20B900A98401E40B20A900B980828CC
:10183000BCDB9BE7109808F0A5FA254A254BCDE9BB
:10184000080108F0CBFA7DD2109808F09BFA204AE4
:10185000204BCDE9060108F0F4F9CDE9080108F0C4
:10186000D5FA0E9017480D9000200B901C200A907E
:1018700074E00000ECA50008C8000020AC000020C7
:10188000D80000207C010020070000200800002074
:10189000060000200000F0BFE8000020ECCFC55F8C
:1018A000FFFF0F38824DC7726142334700007A4410
:1018B0000000244021D7E6FAE031F44581121F2FC1
:1018C000E727C0458096184B92D54D06CFF080444F
:1018D00050EFE2D6E41A4B44DDE90D1008F001F9AF
:1018E0004FF07E51099008F0ADFA0ED20D9808F035
:1018F00049FA0022F74BCDE9060108F0A2F9CDE93B
:10190000080108F083FA0D9000E02AE00D9808F035
:1019100039FAF14AF14BCDE9020108F020F9CDE99D
:101920000601109808F02EFACDE90401DDE906233E
:1019300008F087F9CDE9080108F00BFA0C90E849A6
:101940000C9800E00EE048600A9808720B98401C62
:1019500040B20B900A98401E40B20A900B9808289B
:10196000BADBA0E3109808F00DFADE4ADE4BCDE9B1
:10197000080108F033FA58D2109808F003FAD94A4F
:10198000D94BCDE9060108F05CF9CDE9080108F072
:101990003DFA0E90D5480D9000200B9015200A902E
:1019A0003FE0DDE90D1008F09CF84FF07E51099002
:1019B00008F048FA0ED20D9808F0E4F90022C54B61
:1019C000CDE9060108F03DF9CDE9080108F01EFA5D
:1019D0000D9000E028E00D9808F0D4F90022C44BE7
:1019E000CDE9020108F0BBF8CDE90601109808F036
:1019F000C9F9CDE90401DDE9062308F022F9CDE9B2
:101A0000080108F0A6F90C90B5490C9848600A98AE
:101A100008720B98401C40B20B900A98401E40B2CE
:101A20000A900B980828BCDB3DE3109808F0AAF94F
:101A30000022B04BCDE9080108F0D0F958D2109837
:101A400008F0A0F90022AB4BCDE9060108F0F9F847
:101A5000CDE9080108F0DAF90E90A4480D900020B5
:101A60000B900D200A903FE0DDE90D1008F039F8E9
:101A70004FF07E51099008F0E5F90ED20D9808F06C
:101A800081F90022934BCDE9060108F0DAF8CDE99F
:101A9000080108F0BBF90D9000E028E00D9808F06F
:101AA00071F900228B4BCDE9020108F058F8CDE91D
:101AB0000601109808F066F9CDE90401DDE9062376
:101AC00008F0BFF8CDE9080108F043F90C9084490B
:101AD0000C9848600A9808720B98401C40B20B9012
:101AE0000A98401E40B20A900B980828BCDBDAE244
:101AF0004FF07E51109808F0AFF94DD210980E902B
:101B00007A480D9000200B9007200A9021E0DDE933
:101B10000D1007F0E6FF4FF07E51099008F092F9A2
:101B20000ED20D9808F02EF900226A4BCDE906017D
:101B300008F087F8CDE9080108F068F90D9000E099
:101B40000AE00B98401C40B20B900A98401E40B22D
:101B50000A900B980828DADB00BF0D9808F012F9FC
:101B6000654A664BCDE9020107F0F9FFCDE90601B0
:101B7000109808F007F9CDE90401DDE9062308F023
:101B800060F8CDE9080108F0E4F80C9054490C988D
:101B900048600A98087286E2109808F0F3F8584AEC
:101BA000584BCDE9080108F019F959D2109808F0FE
:101BB000E9F800224F4BCDE9060107F0D0FFCDE94F
:101BC000080108F023F90E9048480D9000200B9072
:101BD0000A9041E0DDE90D1007F083FF4FF07E51E0
:101BE000099008F02FF90ED20D9808F0CBF80022DA
:101BF000384BCDE9060108F024F8CDE9080108F0DA
:101C000005F90D9000E02AE00D9808F0BBF80246B7
:101C10000B46CDE902013C483C4908F012F8CDE9F9
:101C20000601109808F0AEF8CDE90401DDE90623BD
:101C300007F095FFCDE9080108F08BF80C902849D2
:101C40000C9848600A9808720B98401C40B20B90A0
:101C50000A98401E40B20A900B980828BADB22E28C
:101C6000109808F08FF82A4A2A4BCDE9080108F0AD
:101C7000B5F87ED2109808F085F81A4A1A4BCDE9CB
:101C8000060107F06CFFCDE9080108F0BFF80E90DF
:101C900016480D9000200B90C01F0A9064E0DDE90B
:101CA0000D1007F01EFF4FF07E51099008F0CAF8A2
:101CB0000ED20D9808F066F80022064BCDE9060119
:101CC00007F0BFFFCDE9080108F0A0F80D9023E070
:101CD0004DE000000000244000003426F56B0C436A
:101CE000E80000200000901EC4BCD6428096184B2D
:101CF00084D79741D01263418DEDB5A0F7C6B03EB1
:101D000048AFBC9AF2D77A3E000040E59C30A24230
:101D10009B2BA1869B84063D0D9808F033F8024664
:101D20000B46CDE90201F748F74907F08AFFCDE9F4
:101D30000601109808F026F8CDE90401DDE9062334
:101D400007F00DFFCDE9080108F003F80C90EF490A
:101D50000C9848600A9808720B98401C40B20B908F
:101D60000A98401E40B20A900B98082897DB9AE127
:101D7000FFE7109808F006F8E54AE64BCDE90801C0
:101D800008F02CF85BD2109807F0FCFFE24AE34B16
:101D9000CDE9060107F0E3FECDE9080108F036F8C9
:101DA0000E90DF480D9000200B906FF00D000A9010
:101DB00041E0DDE90D1007F094FE4FF07E510990EF
:101DC00008F040F80ED20D9807F0DCFF0022D54B4A
:101DD000CDE9060107F035FFCDE9080108F016F856
:101DE0000D9000E02AE00D9807F0CCFF02460B466C
:101DF000CDE90201CC48CD4907F023FFCDE906012A
:101E0000109807F0BFFFCDE90401DDE9062307F0D4
:101E1000A6FECDE9080107F09CFF0C90BB490C9889
:101E200048600A9808720B98401C40B20B900A98C0
:101E3000401E40B20A900B980828BADB33E1109894
:101E400007F0A0FFBA4ABB4BCDE9080107F0C6FF77
:101E50005BD2109807F096FFB74AB84BCDE9060160
:101E600007F07DFECDE9080107F0D0FF0E90AC48E9
:101E70000D9000200B906FF014000A9041E0DDE916
:101E80000D1007F02EFE4FF07E51099007F0DAFF9B
:101E90000ED20D9807F076FF0022A24BCDE9060185
:101EA00007F0CFFECDE9080107F0B0FF0D9000E08C
:101EB0002AE00D9807F066FF02460B46CDE90201C5
:101EC0009F48A04907F0BDFECDE90601109807F034
:101ED00059FFCDE90401DDE9062307F040FECDE915
:101EE000080107F036FF0C9088490C9848600A9862
:101EF00008720B98401C40B20B900A98401E40B2EA
:101F00000A900B980828BADBCDE0109807F03AFF4A
:101F10008D4A8E4BCDE9080107F060FF61D2109821
:101F200007F030FF8A4A8B4BCDE9060107F017FE18
:101F3000CDE9080107F06AFF0E9079480D90002066
:101F40000B906FF01B000A9047E0DDE90D1007F0E1
:101F5000C8FD4FF07E51099007F074FF0ED20D9826
:101F600007F010FF00226F4BCDE9060107F069FE74
:101F7000CDE9080107F04AFF0D9000E030E00D9830
:101F800007F000FF02460B46CDE900017048714999
:101F900007F057FECDE90401109807F0F3FECDE9F4
:101FA0000201DDE9042307F0DAFD00226A4BCDE9E6
:101FB000060107F0D4FDCDE9080107F0CAFE0C9038
:101FC00052490C9848600A9808720B98401C40B21D
:101FD0000B900A98401E40B20A900B980828B4DB78
:101FE00061E0109807F0CEFE5C4A5D4BCDE906013A
:101FF00007F0B5FDCDE9080107F008FF0E9059483C
:102000000D9000200B906FF022000A9047E0DDE970
:102010000D1007F066FD4FF07E51099007F012FF9A
:102020000ED20D9807F0AEFE00223E4BCDE9060120
:1020300007F007FECDE9080107F0E8FE0D9000E08B
:1020400030E00D9807F09EFE02460B46CDE90001F8
:102050004248434907F0F5FDCDE90401109807F027
:1020600091FECDE90201DDE9042307F078FD0022AD
:10207000394BCDE9060107F072FDCDE9080107F003
:1020800068FE0C9021490C9848600A9808720B98D9
:10209000401C40B20B900A98401E40B20A900B9828
:1020A0000428B4DB00BF00BFFFF7FCBA70B5002501
:1020B0002D480078401C2C4908702C48C08949F6EE
:1020C0004041884204DC2948C089B0F5FA6F06DA3D
:1020D00027480078042802D00020234908702549A9
:1020E0008A6825490888411C234B1980234941F8F7
:1020F0002020184600880C2802DB002019460880A2
:10210000002446E0408CB5781DAF1544E80000205F
:102110004F9B0E0AB4E3923B50EFE2D6E41A4B44D5
:102120008096184B000024400284FEE471D9894552
:10213000196050BEF6B01F3A81121F2FE727C04525
:10214000037CD8EA9BD0FE460F7AF8B7A595AA384B
:10215000824DC7726142334780842E41B1A1162A55
:10216000D3CED24700007A4407000020D8000020D8
:10217000060000206C010020080000207C010020E7
:10218000FE4850F82410284607F021FC0546601C44
:10219000C4B20C2CF4DBFA4800780C2808DBF949AF
:1021A000284607F09EFCF84988600C20F449087026
:1021B000F5498868FFF754FAF44840684FF47A719B
:1021C000B0FBF1F0F149486070BD70B5EE49C868E8
:1021D00007F0A6FD0546EC480168284607F04FFCCD
:1021E0000446E9484168204607F07BFCE6498860E0
:1021F00070BD10B5E648C0890A2802DA0A20E44911
:10220000C881E349C88907F08BFDDF494860E14890
:10221000E149097850F82100DB49C860FFF7D5FF94
:1022200010BD2DE9F0410024012717E2012FFCD158
:1022300000270E2C15D2DFE804F0071524494A4B7D
:102240004C4D9F4EBFC0C1C2D44D2888401CD449BC
:1022500088800920088101204881002088710120A0
:102260008881CEE0CD4DAD1CCE48CD490860288890
:10227000888003200881002048818871012088819E
:10228000BFE0C648408838B1012804D0022805D0F4
:10229000032819D101E017E000BF00BFBF488088C4
:1022A000012802DD0021BD488180BC4D2D1DBE48A6
:1022B000BB49086028888880012008810020488167
:1022C00088710120888100BF00BF9AE000BF00BF75
:1022D00000BF00BF00BFB148408838B1012804D01A
:1022E000022805D0032845D101E043E000BF00BF2C
:1022F000AA48801D00EB4400851FA8488088E0B9EB
:10230000AA48A749086028888880601EA84931F833
:102310002000A3490881601EA54901EB8000408888
:102320009F494881E01EA34911F810009C4988711B
:10233000A14830F8140088811BE09C489849086047
:1023400028888880601E9D4931F8200094490881C2
:10235000601E9A4901EB8000408891494881E01E47
:10236000944911F810008E498871934830F8140090
:10237000888100BF00BF44E08848008A012802DD50
:10238000002186480182854D10358D4884490860BA
:1023900028888880601E864931F82000804908819D
:1023A000601E834901EB800040887D494881002000
:1023B00088710120888124E000BF00BF00BF7748FA
:1023C000801D00EB4400851F7E4875490860288801
:1023D0008880601E764931F8200071490881601EAE
:1023E000734901EB800040886D494881E01E7149C6
:1023F00011F810006A4988716F4830F8140088811C
:1024000000BF00BF2046FEF72FFE0E2C76D2DFE87D
:1024100004F007111B252F39434D57616B767778F0
:102420000A2069490870002048705D48FEF7F5FEF3
:10243000804671E0082064490870002048705848C0
:10244000FEF724FD804667E00A205F4908700020FF
:1024500048705348FEF71AFD80465DE00A205A494D
:102460000870002048704E48FEF7D7FE804653E0C3
:10247000072055490870002048704948FEF7CDFEF6
:10248000804649E0072050490870002048704448C1
:10249000FEF7C3FE80463FE007204B49087000204E
:1024A00048703F48FEF7B9FE804635E008204649AF
:1024B0000870002048703A48FEF7AFFE80462BE0D7
:1024C000072041490870002048703548FEF7DEFCBF
:1024D000804621E007203C490870002048703048C1
:1024E000FEF79BFE804617E00A203749087000205F
:1024F00048702B48FEF791FE80460DE00BE000BFD0
:1025000000BF082030490870002048702448FEF7BA
:1025100084FE804600E000BF00BF44B920488088A8
:10252000401E288006F0FBFDFEF735FA02E01C484D
:1025300080882880B8F1680F72D009DCA8F16100AA
:1025400007286ED2DFE800F00E6E70888872830074
:10255000A8F1E10008287FD2DFE800F00565677E7A
:102560007E7E7A7800BF0D484088012802D1012C78
:1025700000D1092409488088012827E07C01002037
:1025800007000020000040416C010020E80000200E
:10259000D8000020F4A5000806000020F400002068
:1025A000C800002079A600086BA60008FEA6000857
:1025B0008CAC0008F4AC00080AAD000858AC000868
:1025C00073A6000817A80008B200002006D1072C47
:1025D00004D1601CC4B2601CC4B201E0601CC4B26F
:1025E000012C1BDD5048408840B1012804D002284E
:1025F00007D0032807D103E00E2606E00A2604E0F0
:1026000000BF0E2601E00E2600BF00BFB44205DB6E
:10261000002403204549087006F070FD01271CE0E6
:1026200013E019E000BF18E000BF16E03E48C08884
:10263000012802D102213C48C18003203B49087097
:1026400006F05CFD06F028FD07E000BF05E000BFD6
:1026500003203649087000E000BF00BF334800780F
:1026600004283FF4E3ADBDE8F081704702460B4615
:1026700088B2704710B54FF480732D4A2D492E480B
:1026800003F082F82C4803F0A9F810BDF0B5044619
:10269000059D27460E4602B9012207FB06FCBCFB3E
:1026A000F5FC0CFB03FCBCFBF2F0F0BD30B50246C0
:1026B000002006E0145C0A2594FBF5F4E3B2441C08
:1026C000E0B28842F6DB30BD70B502460C46002011
:1026D00012E0135CDD1703EB15752911135CDD1790
:1026E00003EB15752D11A3EB051501EB810605EB29
:1026F00046051554431CD8B2A042EADB70BD30B584
:102700000B460146C41700EB1474C4F30712C41738
:1027100000EB14742411A0EB041402EB820504EB0B
:102720004504E0B230BD0000F400002003000020AA
:10273000ECA400080C1001401C00024070B506F02B
:10274000B7FE06F04AFE00214FF0804004F018FE6C
:10275000FEF713F906F0A7FC06F0A5FC06F0DFFC77
:1027600006F0B1FC06F0ECFCFEF715F9F84800782D
:10277000082802DD0020F649087006F01FFF06F069
:1027800027FDFEF7ABF90020F2490870002438E07D
:10279000601CC4B2142C02DD0320EF4908700A202B
:1027A00006F00DFB0546682D25D009DCA5F161007A
:1027B000072824D2DFE800F01517190E1B1D200092
:1027C000A5F1E10007281AD2DFE800F00C0E100591
:1027D0001214170000BF0920DF49087006F0F5FE4B
:1027E0000EE000BF0CE000BF0AE000BF08E000BF41
:1027F00006E000BF04E003E000BF142400E000BFD7
:1028000000BFD54800780228C2D006F0CDFD70BDCB
:102810002DE9F04190B0FF260027D04890F82B001A
:10282000A0B1CE4890F83000C94981F848001E2177
:10283000CA482E3007F0ADF80020C84981F82B00B7
:102840000021C64880F82C1006F034FCC04890F8EF
:102850004800002870D1C24890F82B0000286CD0A6
:102860001C2101A807F095F81C22BD49303101A8B0
:1028700007F076F8BA4890F82F6090F830500020B2
:10288000B74981F82B000021B54880F82C10DE2EC6
:102890007ED006DCCC2E7CD0CE2E09D0DD2E79D198
:1028A000A6E1EE2E77D0F22E76D0F32EF7D1B0E15E
:1028B000AC4800780B2841D2DFE800F00640400D1C
:1028C00014301B2229403700A748A8A10A680260DB
:1028D0000979017139E0A448A4A10A680260097964
:1028E000017132E0A048A3A10A6802600979017170
:1028F0002BE09D48A1A10A6802600979017124E0DA
:102900009948A0A10A680260097901711DE0964802
:102910009EA10A6802600979017116E092489DA1A2
:102920000A680260097901710FE08F4893A10A6873
:1029300002600979017108E0C9E2C7E28A4897A1FB
:102940000A6802600979017100BF00BF80484088B1
:10295000022803D07E48408803287DD19148007822
:1029600000287AD101208F49087028217C48C01C9A
:1029700007F00FF87B48007878B98B497848C01C7D
:1029800007F012F878497648C01C07F00DF85BE0B4
:1029900041E126E199E25FE13CE1844800780128C9
:1029A00018D181496E48C01C06F0FEFF6848408877
:1029B000022805D16C496A48C01C06F0F5FF43E0C7
:1029C0006348408803283FD168A16548C01C06F0D1
:1029D000EBFF39E05E484088022819D17248407BFD
:1029E0003B2805D1704863A10968C0F80E1008E0C3
:1029F0006D48807B3B2804D16B485EA10968C0F814
:102A00000F10122268495648C01C06F0A9FF1BE0AF
:102A10004F484088032817D16348407B3B2805D1A5
:102A2000614851490968C0F80E1008E05E48807B93
:102A30003B2804D15C484C490968C0F80F105A493A
:102A40004748C01C06F0B0FF59A14548C01C06F01D
:102A5000ABFF5849424801E063E04AE0C01C06F081
:102A6000A3FF52480078012813D139484088022832
:102A700005D13EA13A48C01C06F096FF1CE0344840
:102A80004088032818D138493548C01C06F08CFF0F
:102A900012E02F484088022805D133493048C01C35
:102AA00006F082FF08E02A484088032804D131A1BB
:102AB0002B48C01C06F078FF3F492948C01C06F08F
:102AC00073FF00240EE02648C01C015D3B4805F062
:102AD00071F800BF8021394805F0DAF80028F9D0F4
:102AE000601CC4B2272CEEDB00201D4981F82B00AE
:102AF00076E000240EE01A48C01C015D2F4805F066
:102B000059F800BF80212D4805F0C2F80028F9D0FF
:102B1000601CC4B2272CEEDB0020114981F82B0089
:102B20005EE028210E48C01C06F033FF0E221E492D
:102B30000B48C01C06F014FF0B490948C01C06F0E6
:102B400033FF1D490648C01C06F02EFF002445E057
:102B5000F400002005000020030000201A030020DC
:102B60008002002004000020400000202D2D2D2D8B
:102B700000000000504153530000000048494748FE
:102B8000000000004C4F57200000000042524B2034
:102B900000000000415243200000000054455354FF
:102BA000000000004A00002002020020490000202E
:102BB0003B000000160200204B00002000380140BE
:102BC000FE48015DFE4804F0F5FF00BF8021FC488F
:102BD00005F05EF80028F9D0601CC4B2142CEFDBBD
:102BE00074E10020F74908700520F74908706DE18D
:102BF000F5480078062808D10320F449087007201A
:102C0000F149087006F0CBFB02E00320EE490870A2
:102C10005CE15BE15AE135B1012D08D0102D0AD0FD
:102C2000112D10D10BE00020E94948800CE0012073
:102C3000E749488008E00220E549488004E0032095
:102C4000E349488000E000BF00BF06F025FA06F027
:102C500055FAFDF760FF39E19DF80500401EDC499B
:102C60000870AC2D04D0AD2D6FD0DC2D6ED172E08C
:102C70000021D74881809DF807000121FFF73FFD23
:102C800080469DF806000121FFF739FD00EBC001E9
:102C900001EB001008EB8001CD48C1809DF80900D0
:102CA0000121FFF72CFD80469DF808000121FFF768
:102CB00026FD00EBC00101EB001008EB8001C448C9
:102CC00001819DF80B000121FFF719FD80469DF859
:102CD0000A000121FFF713FD00EBC00101EB00101A
:102CE00008EB8001BA4841819DF80D000121FFF7F2
:102CF00006FD80469DF80C000121FFF700FD00EB6A
:102D0000C00101EB001008EB8001B14881819DF802
:102D10000F000121FFF7F3FC80469DF80E00012112
:102D2000FFF7EDFC00EBC00101EB001008EB8001A8
:102D3000A748C1819DF8101041829DF811005028CC
:102D400005D10021A248018204E069E0B5E001213B
:102D50009F480182B1E001219D4881809DF80700D4
:102D6000FFF7CDFC80469DF806000121FFF7C7FC68
:102D700000EBC00101EB001008EB80019448C1801A
:102D80009DF809000121FFF7BAFC80469DF8080074
:102D90000121FFF7B4FC00EBC00101EB001008EBD0
:102DA00080018B4801819DF80B000121FFF7A7FCF2
:102DB00080469DF80A000121FFF7A1FC00EBC0014D
:102DC00001EB001008EB8001814841819DF80D0066
:102DD0000121FFF794FC80469DF80C000121FFF7CC
:102DE0008EFC00EBC00101EB001008EB800178487D
:102DF00081819DF80F000121FFF781FC80469DF83D
:102E00000E000121FFF77BFC00EBC00101EB00107D
:102E100008EB80016E48C1819DF8101041824CE0A2
:102E20009DF807000121FFF76AFC80469DF8060027
:102E30000121FFF764FC00EBC00101EB001008EB7F
:102E40008001634881829DF809000121FFF757FC4A
:102E500080469DF808000121FFF751FC00EBC001FE
:102E600001EB001008EB80015948C1829DF80B006E
:102E70000121FFF744FC80469DF80A000121FFF77D
:102E80003EFC00EBC00101EB001008EB8001504854
:102E900001839DF80D000121FFF731FC80469DF86C
:102EA0000C000121FFF72BFC00EBC00101EB00102F
:102EB00008EB80014648418300BF00BF06F0ECF8F4
:102EC00006F01CF9FDF727FE00E000BFF2E04048E5
:102ED00090F848000128F9D13848C01E90F82B001E
:102EE00098B11E2235492B3108A806F039FD9DF80E
:102EF00022709DF8236000203049C91E81F82B0004
:102F000000212E48C01E80F82C1026B1012E44D07E
:102F1000022E41D160E0022F25D19DF824005428D3
:102F200009D1002027490870052027490870012091
:102F30002849087030E09DF8240052282CD12248FE
:102F4000007806280BD103202049087007201E496D
:102F5000087006F024FA01201E4908701CE00320C6
:102F60001949087018E0032F16D19DF82400742821
:102F700012D10020134908709DF8250014490870EB
:102F800006F08AF803201049087006F0C8F8FDF72B
:102F900002FD05200C4908708BE09DF824000C49C7
:102FA000087006F079F803200749087006F0B7F8B2
:102FB000FDF7F1FCFDF7AFFD7BE000008302002090
:102FC000003801402F0000200300002004000020F2
:102FD000F4000020480000209DF82400F949087002
:102FE000084600788009F8494880F6480078C0F320
:102FF0004011F5488180F3480078C0F30011F24891
:103000000182F048007800F00F01EF4841829DF8FE
:10301000251081829DF827009DF8261000EB0120E5
:1030200081B2E948C1809DF829009DF8281000EB85
:10303000012081B2E44801819DF82B009DF82A10FF
:1030400000EB012081B2E04841819DF82D009DF800
:103050002C1000EB012081B2DB4881819DF82F000C
:103060009DF82E1000EB012081B2D748C1819DF858
:1030700031009DF8301000EB012081B2D248C182AE
:103080009DF833009DF8321000EB012081B2CE484C
:1030900001839DF835009DF8341000EB012081B2CA
:1030A000C948418305F0F8FF06F028F8FDF733FD25
:1030B00000BF00BF10B0BDE8F08170B50020C3496B
:1030C0000870FDF728FD06F09BF806F048F900208F
:1030D000BF4908708AE0BF4890F82B0018B9BE4875
:1030E00090F82B0008B1FFF793FB0A2005F067FE6C
:1030F0000446662C6ED008DCA4F16100052873D26A
:10310000DFE800F010142D475300E62C63D004DCF8
:10311000672C61D0682C67D154E0E72C5DD0E82C97
:1031200062D150E00420AD4908705EE0AC48007800
:10313000A0B9A5480078401CA3490870084600784B
:10314000082801DD0020087005F0E9FFFDF723FCE9
:1031500005F0A2FF05F072FFFDF7DDFC45E0A04899
:103160000078A8B99848007828B197480078401EA0
:103170009549087002E008209349087005F0CFFFD8
:10318000FDF709FC05F088FF05F058FFFDF7C3FCCB
:103190002BE09348007818B191480078401E00E079
:1031A0000320C5B28E4805701FE08D4800780328C3
:1031B00003DA8B480078401C00E00020C5B2884844
:1031C000057012E000BF0520844908700020854981
:1031D00008700AE000BF00BF00BF002080490870EF
:1031E0008049087001E0FFE700BF00BF7B4800781E
:1031F00003283FF470AF70BD10B5FFF712F810BD93
:1032000010B513E0002078490870784908707549B6
:10321000087005F0A9FF00214FF0804004F0B0F8DD
:1032200001206A49087006206C4908706B480078D4
:103230000528E7D010BD10B5002005F095FF00214E
:103240004FF0804004F09CF86420FDF72CF806F065
:1032500021F810BD2DE9FC5F01205C4908705A4837
:10326000B0F802808088C0B20090574880885549E5
:10327000097860F34511534801705348408AC0B241
:103280000190002005F077FFB8F1000F2ED100204B
:10329000574908704C48C08800EB80004FF6FF711A
:1032A00001EA400548488089012801D1022601E051
:1032B000454886892C460327F0204E49088040F671
:1032C000D8604D4908809DF8000038B94B48008807
:1032D00044433D48808BB4FBF0F4E9E04748408824
:1032E00044433948008CB4FBF0F4E1E0B8F1010F3D
:1032F0001DD14FF4B4703F49088040F6D8603E4974
:10330000088001203A49087000262F48808A00EB87
:1033100080004FF6FF7101EA40052C46052737482B
:10332000808844432848808CB4FBF0F4C0E0B8F1B6
:10333000030F6DD12448808A00EB80004FF6FF71A7
:1033400001EA400520488089012801D1022601E0D8
:103350001D4886892C461E480078A0B94FF4B470E9
:103360002449088040F6D86023490880012020497C
:103370000870052700262148808844431248808C25
:10338000B4FBF0F494E0F0201A49088040F6D860CD
:10339000194908800020164908700B48C08800EBC6
:1033A00080004FF6FF7101EA40052C4603279DF887
:1033B000000028BB1148008844430348808BB4FBBD
:1033C000F0F475E054000020F40000200400002018
:1033D0002F000020800200201A030020030000209C
:1033E00005000020000000201B0000201C00002021
:1033F0002E00002030000020320000203400002089
:10340000FE4840884443FE48008CB4FBF0F44FE093
:10341000FC48007870BBF020FB49088040F6D8607B
:10342000FA490880F6488089012801D1022601E086
:10343000F3488689F248C08800EB80004FF6FF71A0
:1034400001EA40052C4603270020F14908709DF849
:10345000000038B9E94800884443E948808BB4FB50
:10346000F0F425E0E54840884443E548008CB4FB8F
:10347000F0F41DE04FF4B470E349088040F6D860E2
:10348000E24908800026DE48808A00EB80004FF683
:10349000FF7101EA40052C4605270120DC49087030
:1034A000D64880884443D648808CB4FBF0F400BFF3
:1034B000DFF84C9309F11C094FF00B0BDFF854A314
:1034C0004FF02C0B002705E019F8010B0AF8010B4F
:1034D000781CC7B25F45F7DB0020CF490860CF49B1
:1034E0000880CF490860CF490880CF490870CF498C
:1034F0000880CF490880CF490870CF490880CF495C
:103500000880CF490870002708E00020CD4921F845
:103510001700CD4921F81700781CC7B2082FF4DB3B
:10352000C6490C80002E45D00120C2490870C3480E
:103530000488B4FBF6F4BE490C800488B4FBF6F0B2
:1035400006FB1044B9490C80B9480088012831DADB
:103550000A20B8490870B948048804EB8400440084
:10356000B4FBF6F4B2490C80B448048804EB840040
:103570004400B4FBF6F006FB1044AC490C80AC48A8
:103580000088012816DA6420AA490870AB4804882C
:1035900004EB84004400B4FBF6F4A5490C80A74872
:1035A000048804EB84004400B4FBF6F006FB1044EE
:1035B0009E490C80B8F1000F12D0B8F1010F06D06F
:1035C000B8F1020F54D0B8F1030F7CD126E005F01A
:1035D0001DFF022005F053FF02209C49087077E090
:1035E0009DF8000048B105F011FF022005F047FFEB
:1035F0009DF8040005F0BFFD0FE005F023FF8048B3
:10360000008A18B1012005F03AFF02E0002005F021
:1036100036FF9DF8040005F0AEFD59E079480078CA
:1036200040B905F0F3FE022005F029FF022087498A
:1036300008701CE09DF8000048B105F0E7FE02208C
:1036400005F01DFF9DF8040005F095FD0FE005F065
:10365000F9FE6B48008A18B1012005F010FF02E066
:10366000002005F00CFF9DF8040005F084FD2FE01C
:1036700064480078F0B99DF8000048B105F0C6FE36
:10368000022005F0FCFE9DF8040005F074FD19E031
:1036900005F0D8FE5A48008A18B1012005F0EFFE67
:1036A00002E0002005F0EBFE9DF8040005F063FD4C
:1036B00008E008E005F0AAFE022005F0E0FE022086
:1036C0006249087004E0072061490870BDE8FC9F6A
:1036D00000BF002005F048FD0121880703F050FEDF
:1036E00005F058FE00205B49087008460078FDF799
:1036F0007EFB05F034FE05F083FD05F0B3FD0820E8
:103700005549087002204870162008700220487041
:10371000002008705148007800EB4000202101EBA8
:10372000C0004D494870002008704C48007800EBFC
:103730004000C00020304870B8F1000F09D0B8F147
:10374000010F07D0B8F1020F05D0B8F1030F04D173
:1037500002E000BF02E001E000E000BF00BF002087
:103760003D490870FDF7CDF900BFAFE738B52A48ED
:103770000068B0F5805F03D340F6FF70264908600B
:1037800026480088B0F5805F03DB40F6FF702349D0
:1037900008803348008800287ED0012804D0022801
:1037A0007BD003287AD1CFE11A4840891A4A009089
:1037B000126893B2274A1278D21D164D05EB820289
:1037C0005188244A1278D21D35F82200134A1288F3
:1037D000FEF75CFF044612490C6008460068B0F52D
:1037E000617F42D9284640890B4A0090126893B203
:1037F0002A46518D108D094A128833E0340000208A
:10380000F40000202F0000203000002032000020B3
:103810002E000020D60100200C0000201E000020F9
:10382000140000202000002022000020240000209E
:1038300026000020280000202A0000202C00002064
:1038400001000020AC010020BC0100200400002089
:103850000300002006000020B20000201C00002011
:10386000CC010020FEF712FF0446FD480460FD482D
:10387000006800EB80004400FB4800894443FA489C
:103880004089B4FBF0F40A20B4FBF0F100FB1140D6
:10389000042800D90A3402E00BE087E033E20A2072
:1038A000B4FBF0F4A0B20A2190FBF1F0ED490860FE
:1038B0002AE2EE48008800EB80004400EC48808853
:1038C000C8BBEC480078C01CE74931F820004443ED
:1038D000E8480078C01C01EB80004088B4FBF0F49D
:1038E0000A20B4FBF0F100FB1140042800D90A348F
:1038F0000A20B4FBF0F4E049CC81DA48006800EB20
:1039000080004400D84800884443D7484088B4FB2E
:10391000F0F40A20B4FBF0F100FB1140042800D9B8
:103920000A340A20B4FBF0F4A0B20A2190FBF1F0B3
:10393000CC49086039E0FFE7CE480078401DCA490D
:1039400031F820004443CB480078401D01EB800053
:103950004088B4FBF0F40A20B4FBF0F100FB114006
:10396000042800D90A340A20B4FBF0F4C249CC81FF
:10397000BC48006800EB80004400BB48808844439A
:10398000B948C088B4FBF0F40A20B4FBF0F100FBA6
:103990001140042800D90A340A20B4FBF0F4A0B284
:1039A0000A2190FBF1F0AF490860ADE1B34800781F
:1039B00000287DD1AD48008800EB80004400AC4871
:1039C0008088C8BBAB480078C01CA74931F82000EC
:1039D0004443A8480078C01C01EB80004088B4FB39
:1039E000F0F40A20B4FBF0F100FB1140042800D9E8
:1039F0000A340A20B4FBF0F49F49CC81994800684E
:103A000000EB800044009848008844439648408872
:103A1000B4FBF0F40A20B4FBF0F100FB11400428E1
:103A200000D90A340A20B4FBF0F4A0B20A2190FBBA
:103A3000F1F08C49086086E0FFE78E480078401D71
:103A4000894931F8200044438A480078401D01EB41
:103A500080004088B4FBF0F40A20B4FBF0F100FBD6
:103A60001140042800D90A340A20B4FBF0F482493A
:103A7000CC817C48006800EB800044007A48808854
:103A800044437948C088B4FBF0F40A20B4FBF0F159
:103A900000FB1140042800D90A340A20B4FBF0F4DA
:103AA000A0B20A2190FBF1F06E4908604BE0FFE7FD
:103AB0006D4840896B4A0090126893B26D4A127843
:103AC000D21D694D05EB820251886A4A1278D21DD7
:103AD00035F82200654A1288FEF7D8FD0446604991
:103AE0000C6008460068B0F5617F0DD92846408912
:103AF0005C4A0090126893B22A46518D108D5B4A41
:103B00001288FEF7C3FD0446554804605548006816
:103B100000EB8000440054480089444352484089E7
:103B2000B4FBF0F40A20B4FBF0F100FB11400428D0
:103B300000D90A340A20B4FBF0F4A0B20A2190FBA9
:103B4000F1F048490860DFE04C480078E8BB46489F
:103B50004089444A0090126893B2464A1278D21DB6
:103B6000414D05EB82025188424A1278D21D35F848
:103B700022003E4A1288FEF789FD044638490C604F
:103B800008460068B0F5617F0DD928464089354A5E
:103B90000090126893B22A46518D108D334A1288D4
:103BA000FEF774FD04462E4804602E48006800EBC2
:103BB000800044002C48008944432B484089B4FBD2
:103BC000F0F40A20B4FBF0F100E00EE000FB11403D
:103BD000042800D90A340A20B4FBF0F4A0B20A2168
:103BE00090FBF1F01F4908608CE02048008800EB52
:103BF000800044001E48808888BB1E480078C01C96
:103C0000194931F8200044431A480078C01C01EBE0
:103C100080004088B4FBF0F40A20B4FBF0F100FB14
:103C20001140042800D90A340A20B4FBF0F41249E8
:103C3000CC810C48006800EB800044000A480088F2
:103C4000444309484088B4FBF0F40A20B4FBF0F187
:103C500000FB1140042800D90A340A2010E018E0C3
:103C6000140000200C000020D60100201E000020BF
:103C7000F400002006000020D80000202F000020C3
:103C8000B4FBF0F4A0B20A2190FBF1F0FE49086009
:103C900038E0FE480078401DFD4931F820004443DB
:103CA000FA480078401D01EB80004088B4FBF0F436
:103CB0000A20B4FBF0F100FB1140042800D90A34BB
:103CC0000A20B4FBF0F4F349CC81EF48006800EB24
:103CD00080004400EE4880884443ED48C088B4FB2F
:103CE000F0F40A20B4FBF0F100FB1140042800D9E5
:103CF0000A340A20B4FBF0F4A0B20A2190FBF1F0E0
:103D0000E149086000E000BF00BF38BD0CB5E248E3
:103D10000078082804DAE0480078401CDE49087082
:103D2000072001900EE09DF80400401EDB4931F8A9
:103D300010009DF8042021F812009DF80400401E98
:103D4000C0B201909DF804000028ECDCCE48006869
:103D5000D249088000200090CF480078019007E009
:103D6000CE489DF8041030F81100009908440090E6
:103D70009DF80400411EC9B201910028F0D1C64946
:103D800009780098B0FBF1F00090009880B2BE492D
:103D90000860072001900EE09DF80400401EC04915
:103DA00031F810009DF8042021F812009DF804005D
:103DB000401EC0B201909DF804000028ECDCB94818
:103DC0000088B749088000200090B348007801902F
:103DD00007E0B3489DF8041030F81100009908443A
:103DE00000909DF80400411EC9B201910028F0D155
:103DF000A94909780098B0FBF1F00090A949009812
:103E000008800CBD0EB500200190009002900EE0DD
:103E100005F0BAF901990844019005F0BBF9009941
:103E2000084400909DF80800401CC0B202909DF824
:103E300008001028ECDB0198C0F30F1092490860CD
:103E40000098C0F30F10974908800EBD2DE9F04F80
:103E500087B00025AB460026A946AA460024924812
:103E60004088924908800846008805287ED2DFE80D
:103E700000F01703673898008D48007820F0C000E4
:103E800040308B4908708848C08A8849C880864875
:103E9000008B08818448408B48800220059087E091
:103EA0008348007820F0C000814908707E4800896E
:103EB0007E49C8807C48408908817B48C089488009
:103EC00079488089012802D10220888003E0764861
:103ED0008089764988807448808800900120059008
:103EE00066E07348007820F0C000C0307049087068
:103EF0007048007860B96C48C08A6C49C8806A48CC
:103F0000008B08816848408B48800220059016E0AD
:103F100001200590644800896449C880624840894E
:103F200008816148C08948805F488089012802D1A2
:103F30000220888003E05C4880895C49888037E003
:103F40005B48007820F0C00080305949087059481B
:103F50000078C8B901200590534800895349C880AA
:103F60005148408908815048C08900E01AE04880E3
:103F70004D488089012802D10220888010E04A48FB
:103F800080894A4988800BE0022005904648C08A13
:103F90004649C8804448008B08814348408B48808C
:103FA00006E005E007204449087007B0BDE8F08F3F
:103FB00000BFFFF74FF900200390049002903F49A3
:103FC0000860344908813E49088030490870097802
:103FD0003C4A12781144C8B2FCF709FF01F017B946
:103FE00000203949087039480078012878D100202C
:103FF000364908700125BDF8100042F20F71884261
:1040000004DABDF81000401C80B2049030480078FB
:10401000012826D19DF80C00401CC0B203909DF8E9
:104020000C002C490978884208DB002003902448C2
:1040300000882949098808442149088015480089D1
:104040001A498988884250DB002012490881234898
:1040500000881B49088002201D4908704FF0010BA1
:1040600043E01E4800881649088010484088002810
:104070003BDD084800890D494988884235DB072027
:104080000D49087004202CE00C00002006000020E0
:10409000D6010020D800002022000020AC01002022
:1040A000BC0100201E000020F4000020CC010020F4
:1040B000540000202F0000200300002010000020EA
:1040C0002A0000202E0000204A00002001000020CD
:1040D0000400002028000020260000202C000020E2
:1040E00020E0F74908704FF0010BF648008805F012
:1040F0003BF89DF80800401CC0B202909DF80800F3
:10410000092190FBF1F201FB1200C0B202909DF870
:104110000800052802DA04F0ECFC01E004F0E5FCFC
:10412000FCF740FBFFF76EFEFFF7F0FDFFF71EFB0D
:10413000E5480088E5490988884204DD4FF0010917
:104140004FF0000A0DE0E0480088E1490988884204
:1041500004DA4FF0010A4FF0000902E04FF00009C5
:10416000CA460024DB4800789DF81410884208DA1B
:10417000BAF1010F05D1D7480078401CD549087025
:104180000124D4480078002808DDB9F1010F05D1D9
:10419000D0480078401ECF4908700124012C1FD15F
:1041A0000020CD49087006900AE00020CB499DF818
:1041B000182021F812009DF81800401CC0B206908B
:1041C0009DF818000828F0DBC2490978C44A127823
:1041D0001144C8B2FCF70BFE3220FCF764F8C4E0CF
:1041E000C048008830B1012825D002287CD003289F
:1041F00079D138E0B7480078012806D1BA48C0899B
:104200000A2190FBF1F0B849C881BDF800000128EF
:1042100003D140F22620019002E04FF49660019015
:10422000B148C089BDF80410884203DD4FF6FF7025
:10423000AD49C88198E0A448008848B1AB480068FF
:10424000AB49884208D94FF6FF70A849086003E0DF
:104250004FF6FF70A549086024B9BDF81000022888
:1042600000DB012680E0A3480078B8B996480088B2
:1042700048B19E4800689E49884208D94FF6FF70B1
:104280009A49086003E04FF6FF709849086044BB04
:10429000BDF81000022824DB012622E08D480078BA
:1042A000012806D19048C0890A2190FBF1F08E497F
:1042B000C8814FF496600190BDF80000012803D139
:1042C00040F22620019002E04FF49660019086486B
:1042D000C089BDF80410884203DD4FF6FF708249A3
:1042E000C88141E000E03EE08248007818BB794890
:1042F0000078012806D17C48C0890A2190FBF1F0A2
:104300007949C8814FF496600190BDF800000128FA
:1043100003D140F22620019002E04FF49660019014
:104320007148C089BDF8041088421BDD4FF6FF704C
:104330006D49C88116E06448008848B16B48006840
:104340006B49884208D94FF6FF706849086003E05E
:104350004FF6FF706549086024B9BDF810000228C7
:1043600000DB012600E000BF00BF554800780228AE
:104370007ED1012EFCD1002CFAD15A48008830B1F0
:1043800001283DD0022874D0032873D17FE056481D
:10439000C08901905348C088BDF80410884222DAD1
:1043A0005548808858B9BDF80400B0F5966F03DD14
:1043B0000A204349087002E00620414908704E482F
:1043C000808801280CD1BDF8040041F28831884270
:1043D00003DD0A203A49087002E0062038490870D7
:1043E0000220464988703F480089BDF80410884281
:1043F00005DD07203249087003204049887077E1C5
:104400003A48006880B201903248007820B1012813
:104410000BD0022819D110E0BDF804004FF47A71D6
:1044200090FBF1F080B2019010E0BDF8040064212F
:1044300090FBF1F080B2019008E0BDF804000A2181
:1044400090FBF1F080B2019000E000BF00BF254872
:10445000C088BDF80410884208DA2248C08828B114
:104460000620174908700820244988701D4802E07A
:104470003FE1B4E03BE10089BDF80410884205DD6E
:1044800007200F49087009201C49887030E119483D
:104490000078A0B91548006880B201900D480078F6
:1044A00020B101282CD002283AD131E0BDF8040017
:1044B0004FF47A7190FBF1F080B2019031E055E059
:1044C000040000202A0000201E00002032000020EE
:1044D000300000200600002022000020BC01002047
:1044E0002E000020CC010020D80000201400002065
:1044F0009F8601002F000020F40000202A020020E7
:10450000BDF80400642190FBF1F080B2019008E056
:10451000BDF804000A2190FBF1F080B2019000E0A8
:1045200000BF00BFF848C088BDF80410884209DA0F
:10453000F548C08830B10620F44908700820F449D5
:10454000887002E00620F2498870EF480089BDF8C3
:104550000410884206DD0720EC4908700920EC4968
:1045600088703BE00620EA49887037E0E948C08956
:104570000190E548C088BDF80410884222DAE64878
:10458000808858B9BDF80400B0F5966F03DD0A20A5
:10459000DE49087002E00620DC490870DE488088A9
:1045A00001280CD1BDF8040041F28831884203DDB6
:1045B0000A20D649087002E00620D449087002207B
:1045C000D6498870D0480089BDF80410884205DDBE
:1045D0000720CE4908700320D049887088E0D04871
:1045E0000078E0BBCB48C0890190C748C088BDF8BF
:1045F0000410884223DAC848808858B9BDF80400FE
:10460000B0F5966F03DD0A20C049087002E006206D
:10461000BE490870C048808801280CD1BDF804004C
:1046200041F28831884203DD0A20B849087002E06F
:104630000620B64908700220B549887002E00020C3
:10464000B3498870B0480089BDF80410884207DD7E
:104650000720AE4908700320AD49887046E003E0AA
:104660000020AB49887041E0AE48006880B20190FC
:10467000AD48007820B101280BD0022819D110E0F4
:10468000BDF804004FF47A7190FBF1F080B2019014
:1046900010E0BDF80400642190FBF1F080B20190BD
:1046A00008E0BDF804000A2190FBF1F080B201900F
:1046B00000E000BF00BF9448C088BDF804108842E5
:1046C00008DA9148C08828B106209049087008206F
:1046D000924988708C480089BDF80410884205DD35
:1046E00007208A49087009208C49887000E000BFC3
:1046F00000BF8648007806280FD084480078072835
:104700000BD082480078052807D080480078082818
:1047100003D07E4800780A2808D101208349087018
:1047200007208349087001254FF0010B012D7DD131
:10473000002500207F4908700120487072480088D9
:1047400030B1012873D0022872D0032871D1C2E0A1
:104750007148C0887849096888420CD96E48C08879
:1047600075490968401A022811D86B48C0887249F7
:10477000086001260BE06848C0886F490968081A7C
:10478000022804D86448C0886B49086001266A4939
:10479000096888B2012303220221FCF712F9674855
:1047A00004F071FC1421664805F0F3F8644863498D
:1047B0000968016063A105F0F7F85F480068000A26
:1047C000534908715C4800684871092059490870CC
:1047D0005049C889002304220221FCF7F2F84D4811
:1047E000C089B0F57A7F0EDA544840785349087092
:1047F0000846807848700846C07888700846007976
:10480000C870002008714D494D4805F0CDF83F486B
:104810000078082831D03D4800780A282DD0474834
:1048200004F031FC454805F04CFE03E0FEE31AE2DB
:10483000FAE2FCE3074605F0E9FA43490860354827
:10484000C089B0F57A7F03DA40A004F009FC02E0E9
:104850003FA004F005FC3C4800782D4988713A4897
:104860004078C8713848807808723748C0784872F4
:1048700038A1334805F098F824E0244800780A2845
:104880000BD12E4834A10A6802600979017104F045
:10489000FAFB33A004F0E4FB0EE01C480078082883
:1048A0000AD126482F490A6802600979017104F08B
:1048B000EAFB2BA004F0D4FBFF2015498871C871D6
:1048C0000872487213480089001211498872114811
:1048D0000089C872A7E21248007800287ED1012022
:1048E000214908700C48808A1349096888423DD9DB
:1048F0000948808A10490968401A022841D80648A8
:10490000808A0D4908603CE0CC01002004000020B2
:104910002A020020D8000020F40000203E020020DF
:104920002F000020140000200600002000000020BE
:1049300003000020B20000200C000020B400002082
:10494000020200206B563B0050000020206D410009
:104950006D4100006D413B004F464C2000000000BF
:10496000202000008C2B000849000020FE48808A8F
:10497000FE490968081A022803D8FB48808AFB49C7
:104980000860FA49096888B2012303220221FCF772
:1049900018F8F74804F077FB1421F64804F0F9FF03
:1049A000F448F34909680160AFF2680104F0FCFFC4
:1049B000EE480068000AF0490871EC480068487148
:1049C0000920EE490870EE48006842F20F718842F3
:1049D00027D9EC480078022812D100E069E0E848C5
:1049E00000680A21B0FBF1F087B2E74AE548007899
:1049F000401C115C012305223846FBF7E2FF1BE057
:104A0000DF4800680A21B0FBF1F087B2DE4ADD48DA
:104A10000078401C115C012304223846FBF7D1FFCB
:104A20000AE0D94AD74B1B78D15CD54A126890B2BC
:104A300001230422FBF7C5FFD14800684FF6FF7140
:104A400088421CD0CA4804F01EFBC949C94804F07A
:104A5000ABFFC74805F035FD074605F0D7F9CB4950
:104A6000086008460078C4498871C8484078C87111
:104A7000C64880780872C548C07848720CE0C4A067
:104A800004F001FBC4A1BB4804F08EFFFF20BA492B
:104A90008871C87108724872C1A1B64804F084FFD9
:104AA000C04800890012B4498872BE480089C872A3
:104AB000D8E00220BC490870AB48C088AB490968FF
:104AC00088420CD9A848C088A8490968401A022819
:104AD00011D8A548C088A549086001260BE0A24866
:104AE000C088A2490968081A022804D89E48C088CC
:104AF0009E49086001269D49096888B20123032266
:104B00000221FBF75EFF9A4804F0BDFA1421A74882
:104B100004F03FFFA548964909680160AFF2DC1137
:104B200004F042FF91480068000AA14908718F48CB
:104B3000006848710920914908709A49C889012381
:104B400004220221FBF73DFF9648C089B0F57A7F29
:104B50000EDA8748407886490870084680784870A1
:104B60000846C078887008460079C870002008712F
:104B70007F498E4804F018FF8E48007808282FD00F
:104B80008C4800780A282BD0794804F07CFA7848C1
:104B900005F097FC074605F039F97C490860814823
:104BA000C089B0F57A7F04DAAFF2602004F058FAD9
:104BB00003E0AFF2642004F053FA744800787C49B3
:104BC000887172484078C8717048807808726F4860
:104BD000C0784872AFF28421744804F0E5FE31E0F9
:104BE000744800780A2812D16148AFF294210A680B
:104BF00002600979017104F046FAAFF29C2004F0DA
:104C00002FFAAFF2B021694804F0CEFE14E06948F3
:104C10000078082810D1564867490A680260097967
:104C2000017104F030FAAFF2C82004F019FAAFF2C3
:104C3000DC215E4804F0B8FEFF205D498871C87130
:104C4000087248724A4805F03CFC074605F0DEF859
:104C50004E490860534800890012554988725148EE
:104C60000089C8726BE24048808A404909688842DE
:104C70000BD93D48808A3D490968401A02280FD85F
:104C80003948808A394908600AE03748808A3749BC
:104C90000968081A022803D83348808A3349086013
:104CA0003249096888B2012303220221FBF789FEF9
:104CB0002F4804F0E8F914213C4804F06AFE3B4810
:104CC0002B4909680160AFF2843104F06DFE27487A
:104CD0000068000A284908712448006848710920C2
:104CE000264908702648006842F20F71884225D98B
:104CF00024480078022810D1214800680A21B0FB1E
:104D0000F1F087B2204A1F480078401C115C002354
:104D100005223846FBF755FE1BE0194800680A21BA
:104D2000B0FBF1F087B2184A16480078401C115CBD
:104D3000002304223846FBF744FE0AE0124A114BD6
:104D40001B78D15C0E4A126890B201230422FBF753
:104D500038FE0B4800684FF6FF71884247D0044880
:104D600004F091F9024929E0F40000200C00002031
:104D7000B4000020160200202A020020B200002009
:104D800014000020060000207DAE00085000002026
:104D90002D2D2D2D2D0000003E3939393900000010
:104DA0004D3B0000D80000204900002002020020F6
:104DB0003E020020040000208C2B0008F84804F07C
:104DC000F3FDF84805F07DFB074605F01FF8F649AE
:104DD000086008460078F5498871F3484078C87142
:104DE000F14880780872F048C07848720EE0AFF25F
:104DF000600004F048F9AFF26001E94804F0D4FD26
:104E0000FF20EA498871C87108724872AFF27001D8
:104E1000E34804F0C9FDE64800890012E3498872BE
:104E2000E3480089C8728AE1E248007800287DD111
:104E30000120E1490870E148C088E14909688842D9
:104E40000CD9DE48C088DE490968401A022811D80A
:104E5000DA48C088DA49086001260BE0D748C088E4
:104E6000D7490968081A022804D8D448C088D44908
:104E700008600126D249096888B201230322022171
:104E8000FBF79FFDC74804F0FEF81421C44804F066
:104E900080FDC348C34909680160AFF2585104F06E
:104EA00083FDC7480068000AC0490871C44800680B
:104EB00048710920C3490870BD49C88901230422EB
:104EC0000221FBF77EFDBA48C089B0F57A7F0EDA81
:104ED000B4484078B349087008468078487008465E
:104EE000C078887008460079C87000200871AD4904
:104EF000AB4804F059FDAFF2A451A94804F054FDA9
:104F0000B148007808282CD0AF4800780A2828D06B
:104F1000A44804F0B8F8A34805F0D3FA074604F013
:104F200075FFA1490860A248C08900E04AE0B0F5D9
:104F30007A7F04DAAFF2EC5004F092F803E0AFF2BB
:104F4000F05004F08DF89848007898498871964898
:104F50004078C8719448807808729348C078487245
:104F600027E0994800780A280DD18E48AFF21861E1
:104F70000A6802600979017104F085F8AFF22060D7
:104F800004F06EF80FE09048007808280BD18548AF
:104F90008E490A6802600979017104F074F8AFF271
:104FA000406004F05DF8FF2080498871C871087284
:104FB00048727F48008900127C4988727C480089C9
:104FC000C872BAE002207C4908707C48808A7C491B
:104FD000096888420BD97948808A79490968401A5A
:104FE00002280FD87548808A754908600AE073481E
:104FF000808A73490968081A022803D86F48808A92
:105000006F4908606E49096888B2012303220221B2
:10501000FBF7D7FC634804F036F814216C4804F021
:10502000B8FC6B485F490968016001E098E085E0E1
:10503000AFF2F06104F0B8FC61480068000A65490D
:1050400008715F480068487109205E49087062482D
:10505000006842F20F71884225D960480078022822
:1050600010D15D4800680A21B0FBF1F087B25C4ABC
:105070005A480078401C115C002305223846FBF793
:10508000A0FC1BE0544800680A21B0FBF1F087B295
:10509000534A52480078401C115C002304223846D1
:1050A000FBF78FFC0AE04E4A4C4B1B78D15C4A4A16
:1050B000126890B201230422FBF783FC4648006883
:1050C0004FF6FF7188421CD0364803F0DCFF3549AB
:1050D0003F4804F069FC334805F0F3F9074604F053
:1050E00095FE31490860084600783A4988712E4893
:1050F0004078C8712C48807808722B48C078487274
:105100000EE0AFF2743003F0BEFFAFF274313048FE
:1051100004F04AFCFF202F498871C8710872487258
:10512000AFF284312A4804F03FFC21480089001284
:10513000284988721E480089C87200E000BF00BF7D
:105140000A20204908700020487019490889002366
:1051500004220121FBF735FC124803F094FF00BF45
:10516000204890F82B00012801D1FDF751FB03F0F6
:105170001BFE06909DF81800662839D008DC6228CE
:1051800032D0632831D0642830D065283DD12EE05C
:1051900067282FD0E6282CD0E72836D12BE0000056
:1051A00002020020B4000020500000202A0200204B
:1051B000D80000202F00002049000020F40000202B
:1051C0000C000020B2000020040000208C2B0008FE
:1051D000160200203E0200201400002006000020DD
:1051E0007DAE00088002002010E00FE00EE00DE030
:1051F00000BF00BF00BF0320F84908700720F8492E
:10520000087004F0CCF8FEF7D0BE00BF00BFF44831
:10521000007806283EF4E4AEF2480078401CF149DC
:10522000087004F0BCF800BFEDE710B55A20EE4955
:105230000870592048705A20EC490870592048706D
:10524000EB48008AEB49097860F30411E9480170E2
:10525000E748408AE749097860F30301E5480170AF
:105260000078E149C870E3480078E049C870E24836
:105270000078002867D1E148008870B9D7480078E5
:10528000032805D0042807D10020D749887003E0FF
:105290000120D549887000BF55E0D8480088012812
:1052A0000ED1CE480078032805D0042807D1062067
:1052B000CD49887003E00720CB49887000BF42E0E9
:1052C000CE48008803281DD1C4480078032808D0A0
:1052D000042816D10620C44988700020C34988706C
:1052E0000FE0C0480078012803D10720BE4988702C
:1052F00006E0BC480078022802D10120BB49887032
:1053000000BF20E0BD48008802281CD1B3480078C7
:10531000032808D0042815D10020B349887006203E
:10532000B24988700EE0AF480078012802D1AE493A
:10533000887006E0AB480078022802D10720AB490C
:10534000887000BF00BFAC48007820B3AB4800882D
:1053500010BBA2480078C01E06281CD2DFE800F06F
:105360000F0313070B1700209F49887013E00220DA
:105370009D4988700FE003209B4988700BE0012055
:105380009949887007E004209749887003E0052058
:105390009549887000BF1FE09848008801281BD1FC
:1053A0008E480078032812D0042804D0062806D09E
:1053B000072810D107E006208B4988700BE00820F1
:1053C0008949887007E009208749887003E0072031
:1053D0008549887000BF00BF00240DE08248015D50
:1053E000874802F0E7FB00BF8021854802F050FCAF
:1053F0000028F9D0601CC4B20C2CEFDB7F48008879
:10540000032803D07D480088022811D100240DE034
:105410007648015D7A4802F0CDFB00BF80217848D4
:1054200002F036FC0028F9D0601CC4B20C2CEFDB73
:1054300010BD2DE9F04100276D484088C5B2FDF749
:10544000FAFE66480078032827D0052D1FD2DFE832
:1054500005F0040309081D0000BF0820604908701A
:105460001AE000BF5F48007801280BD15B48007844
:10547000042803D106205A49087006E0082058493C
:10548000087002E008205649087005E004E0072093
:1054900053490870BDE8F0812CE0052D1CD2DFE8EF
:1054A00005F0040306051A001AE019E018E04D485B
:1054B000007801280BD149480078042803D1062040
:1054C0004749087006E008204549087002E00820B6
:1054D0004349087004E003E0072041490870D9E718
:1054E00000BF48480078012804D1FFF79EFE002045
:1054F000444908700020444908704870FBF701FBDC
:1055000004F063F835480078032807D108203E49A5
:105510000870022048704FF6FF740CE03B4800789A
:10552000401C3A4908703A480078032803DB0820F9
:105530002B490870AEE782E08FB100270E20324978
:105540000870042048700123042219462046FBF706
:1055500038FA304803F084FD732003F073FD012016
:10556000FAF7C0FE70B11D48007803280AD04FF644
:10557000FF70844206D001270A210120FAF7AFFE0E
:10558000601E84B2012C02DA0620154908702248F8
:1055900090F82B00012801D1FDF73AF9052003F01E
:1055A0000EFC0646672E0CD004DC642E07D0652E58
:1055B00043D105E0682E39D0E72E3ED102E03DE030
:1055C0003CE000BF0548007803282BD04FF6FF7061
:1055D000844223D103200249087026E00400002001
:1055E000030000202F0000202A0200203E0200209D
:1055F000F40000205400002000000020CC01002016
:105600000038014048000020B20000201C000020AB
:105610001B000020B400002080020020032053491A
:10562000087002E003205249087007E00020514949
:10563000087006204E49087000E000BF00BF4C48CB
:10564000007807283FF478AF00BF23E770B5012545
:1056500003F020FE48480078012804D1FFF7E5FD5B
:105660000020454908704BE0012D19D10025162076
:1056700042490870022048704148007830B103F078
:105680008FFD03F06CFE03F0D4FD09E003F0A4FFEE
:1056900036480078042803D103F0B2FD03F044FE3D
:1056A000384890F82B00012801D1FDF7B1F802200D
:1056B00003F085FB0446672C19D006DC642C0BD064
:1056C000652C0AD0662C19D10FE0682C06D0E62C88
:1056D0000CD0E72C12D10BE011E010E0002025499E
:1056E000087005202249087009E000BF07E000BFEC
:1056F00003201F49087003F06BFD00E000BF00BFEE
:105700001B4800780828AFD000201D49087070BDE4
:1057100010B506E003F0CCFE03F012FD032014499F
:105720000870134800780128F4D010BD10B518E0B7
:105730000A201249087002204870042008703220A4
:105740004870002406E003F047FF0320FAF7ABFDA2
:10575000601CC4B20A2CF6DB01200549087003F076
:10576000CFFE034800780028E2D010BD04000020DE
:10577000030000202F00002048000020B20000207D
:1057800000000020800200202DE9F04107460D4670
:1057900016461C460121084601F051F8384602F031
:1057A000BFFD124804801248056046601020104971
:1057B00088600846C460002008618020486100209D
:1057C0008861C861202008624FF440504862002080
:1057D0008862384602F046FEBDE8F08110B5044606
:1057E0000121204602F069FE10BD00005600002095
:1057F0005402002070B504460020FD49087048702E
:105800000B20B4FBF0F100FB114000EB0010F94954
:105810004518284603F037FC0920F5490870002098
:10582000487003F08AFB0020F1490870012048709D
:10583000F14803F028FC70BD2DE9FF5F04464FF0EE
:10584000000A03F0FBFBED4830F825000190EB481F
:1058500000EB8500408800900B25E94FDFF8A4831A
:10586000A8000390002505E017F8010B08F8010BCC
:10587000681CC5B29DF80C008542F5DB0020E249AA
:105880000860E2490880E2490860E2490870E2499C
:10589000087003F064FD03F0B3FC03F0E3FC03F0D5
:1058A00094FE00260220DD4908700A210120FAF743
:1058B00016FD0120CE49487002200870D84803F038
:1058C000E2FB0020CA494870087004EB0411D54A75
:1058D000881803F0D8FB002003F046FC0B2C6CD298
:1058E000DFE804F00616263637475758595A5B004A
:1058F00003F0A8FD002003F0C2FD0121880701F09C
:105900003FFD03F047FDC849088803F02DFC58E02F
:1059100003F07CFD022003F0B2FD0121880701F0B5
:105920002FFD03F037FDC049488803F01DFC48E017
:1059300003F06CFD022003F0A2FD0121880701F0B5
:105940001FFD03F027FDB849888803F00DFC38E0FF
:1059500000BF03F077FD002003F091FD01218807CF
:1059600001F00EFD03F016FDAF49888803F0FCFB43
:1059700027E003F04BFD022003F081FD01218807A1
:1059800001F0FEFC03F006FD4FF4B47003F0ECFBF5
:1059900017E000BF00BF00BF00BF03F037FD0220CB
:1059A00003F06DFD0121880701F0EAFC03F0F2FC31
:1059B0009D49888803F0D8FB03E0002003F0D4FB66
:1059C00000BF00BFA0E10120FAF78CFC28B1012044
:1059D000914908700A21FAF782FC8F480078012863
:1059E00017D100208C4908704FF0010A09F101001D
:1059F00000F0FF09092099FBF0F100FB119000F085
:105A0000FF09B9F1050F02DA03F02CFC01E003F005
:105A100041FC03F0BFFB8549C88103F0B5FB834916
:105A200008601CB1012C01D0022C06D17F4800680F
:105A3000744901EB840148804DE0032C0DD0062C05
:105A40000BD0042C01D1012000E00020052C01D155
:105A5000012100E00021084330B17448C089694940
:105A600001EB8401488036E07049096801EB81014F
:105A7000480004F055F96E4908606C48C0890A284E
:105A800002DA0A206949C8816849C88904F048F9DE
:105A900067494860E01F674951F820006449C860C1
:105AA000FCF793FBFCF702FB0A2C0CD16049486819
:105AB000614903F0E4FF834604F037F9514901EBF3
:105AC0008401488007E05A49486804F02EF94D499E
:105AD00001EB84014880BDF80800BDF8041088423D
