:020000040800F2
:100000006807002045010008F9020008CD05000836
:10001000D1050008D5050008D9050008000000003A
:10002000000000000000000000000000DD050008E6
:10003000DF05000800000000E1050008E3050008F6
:100040005F0100085F0100085F0100085F01000810
:100050005F0100085F0100086D0600088D060008BA
:10006000DB060008670700085F0100085F01000861
:100070005F0100085F0100085F0100085F010008E0
:100080005F0100085F0100085F0100085F010008D0
:100090005F0100085F0100085F0100086B060008AF
:1000A0005F0100085F0100085F0100085F010008B0
:1000B0005F010008E50500085F0100085F01000816
:1000C0005F0100085F0100085F0100085F01000890
:1000D0005F010008FB0200085F0100085F010008E3
:1000E0005F0100085F0100085F0100085F01000870
:1000F0005F0100085F0100085F0100085F01000860
:100100005F0100085F0100085F0100085F0100084F
:100110005F0100085F0100085F0100085F0100083F
:100120005F0100085F0100085F0100085F0100082F
:10013000DFF80CD00AF00CF80048004789010008ED
:10014000680700200648804706480047FEE7FEE7AC
:10015000FEE7FEE7FEE7FEE7FEE7FEE7FEE7FEE777
:100160003B8700083101000870B504460D46E1B236
:10017000234807F093FD00BF8021214807F0FCFDD4
:100180000028F9D0204670BD02201E49087036E0D4
:100190001C4800780A282CD2DFE800F02B2805083C
:1001A0000D121A1D202302F0C9FA27E008F0BAFF49
:1001B00002F083FF22E008F0B5FF03F01DF81DE018
:1001C00008F0B0FF00201049087003F019F815E09E
:1001D00003F03CFE12E005F094F90FE005F0A4FAFC
:1001E0000CE008F09FFF05F0BCFF07E005F0FEFA09
:1001F00004E008F097FF05F007FB00BF00BFC7E76A
:1002000000380140030000200200002010B506F075
:1002100029FA4FF4803006F045FA06F082FA0128F8
:1002200020D1002006F0C3FA002006F0D2FA4FF4E5
:10023000806006F0C5FA4FF4E0114FF4803006F00C
:1002400099FA012006F0A2FA00BF392006F04DFA13
:100250000028FAD0022006F09CFA00BF06F0A2FAAD
:100260000828FBD110BD00E0401E0028FCD17047DB
:10027000014601EBC1024FF0E0235A6100229A616E
:1002800001221A6100BF4FF0E022106900F0010264
:100290001AB100F48032002AF5D000224FF0E0239A
:1002A0001A619A617047014642F228324A434FF080
:1002B000E0235A6100229A6101221A6100BF4FF0C7
:1002C000E022106900F001021AB100F48032002A25
:1002D000F5D000224FF0E0231A619A617047054A79
:1002E0001154704701460348405C08B9012070472B
:1002F0000020FCE719000020704710B540F225519E
:10030000FE4807F04FFD00287ED02021FB4807F073
:1003100040FDFB4890F84800002858D1F94890F873
:100320002B00002811D10621F64880F84C10F34824
:1003300007F0B8FCC4B2F34890F82C0098B9AA2C86
:1003400004D00021EF4880F82C10B5E0ED4890F87B
:100350002C1090F82C00401CC2B2EA4880F82C20E7
:100360002E304454A8E0BB2C1AD1E64890F82C104B
:1003700090F82C00401CC2B2E24880F82C202E30AD
:1003800044540120DF4981F82B00084690F82C10D6
:1003900080F82D10002180F82C1080F84C108BE094
:1003A000D84890F82C001E2804DB0021D54880F89E
:1003B0002C1081E0D34890F82C1090F82C00401CB1
:1003C000C2B2D04880F82C202E30445474E0CC487F
:1003D00090F8480001286FD1CA4890F82B000028F7
:1003E0006AD10621C74880F84C10C44807F05AFC6F
:1003F000C4B2C44890F82C00A0B9112C05D000213B
:10040000C04880F82C1057E06DE0BE4890F82C10E2
:1004100090F82C00401CC2B2BA4880F82C202E3034
:10042000445449E0B74890F82C00012813D1082C17
:1004300004D00021B34880F82C103DE0B14890F87A
:100440002C1090F82C00401CC2B2AE4880F82C2032
:100450002E30445430E0AB4890F82C001E2804DBCA
:100460000021A84880F82C1026E0A64890F82C100F
:1004700090F82C00401CC2B2A24880F82C202E30EC
:1004800044542E3890F82C00022815DD9D4890F831
:100490002C1090F83000C01C81420DD101209949E8
:1004A00081F82B00084690F82C1080F82D100021C0
:1004B00080F82C1080F84C10934890F82B000028FE
:1004C00075D106218F4880F84C108C4807F0EAFB64
:1004D000C4B28D4890F82C0098B9FF2C04D00021AC
:1004E000894880F82C1062E0874890F82C1090F82A
:1004F0002C00401CC2B2844880F82C202E3044547A
:1005000055E0814890F82C00012813D1EE2C04D03E
:1005100000217D4880F82C1049E07B4890F82C1091
:1005200090F82C00401CC2B2774880F82C202E3066
:1005300044543CE0744890F82C00042821D1DD2C70
:1005400004D00021704880F82C1030E06E4890F8FC
:100550002C1090F82C00401CC2B26B4880F82C2064
:100560002E3044540120684981F82B00084690F849
:100570002C1080F82D10002180F82C1080F84C10E1
:1005800015E0614890F82C001E2804DB00215E482D
:1005900080F82C100BE05C4890F82C1090F82C00A0
:1005A000401CC2B2584880F82C202E3044544FF4DE
:1005B0005871524807F0F6FB38B108214F4807F050
:1005C000E8FB4E4807F06EFBC4B210BD00BFFEE76B
:1005D00000BFFEE700BFFEE700BFFEE770477047C1
:1005E0007047704710B50121484807F017FA08F026
:1005F0006CFC4748007806281DD146480078401C0E
:10060000444908700846007809281ADD002008705F
:1006100001204149087041480089401C3F49088138
:100620003F480068401C3E4908603E480068401C46
:100630003C49086005E03748007810B10020354992
:100640000870002409E03848005D20B13648005D9C
:10065000401E35490855601CC4B2022CF3DB3348F8
:10066000007808B908F0DBFF10BD704710B5012114
:100670002F4805F03CFF28B92148408A10B10520D9
:100680002C490870012006F0B6FA10BD10B5012003
:10069000FFF709FE0221264805F029FFC8B92648C0
:1006A0000088022807D125480078012803D10720B7
:1006B000204908700DE020480088032806D11F4813
:1006C000007818B907201B49087002E00820194972
:1006D0000870022006F08FFA10BD10B50520FFF754
:1006E000E2FD0421124805F002FF48BB08480078EB
:1006F00003282BD006480078072822E00038014064
:10070000F4000020800200201A03002000040040B2
:10071000030000203C00002001000020D800002041
:10072000A800002010000020190000200000002078
:100730000014014004000020CC0100202F00002004
:100740000DE003D014480078082806D1052012498E
:10075000087000201149087001E00F48007804205B
:1007600006F049FA10BD10B50120FFF79CFD0821E5
:100770000B4805F0BCFE50B907480078062803D1A5
:1007800007200549087002E003200349087008208B
:1007900006F031FA10BD0000030000202F000020F9
:1007A0000014014010B50020FE490870487008F0A0
:1007B00038FCFD484088E8B1012804D002287DD0EB
:1007C00003286ED13AE0F94808F0BEFC0620F5494E
:1007D000087001204870F6A008F0C9FC0E20F1490D
:1007E000087001204870F3A008F0C1FCF42008F064
:1007F0005BFCA2E0F0480078012803D1EF4808F044
:10080000A3FC03E0ED48C01D08F09EFC0620E5496E
:10081000087001204870E448808818B1E4A008F00E
:10082000A6FC02E0E6A008F0A2FC0E20DD4908705C
:1008300001204870E3A008F09AFC7EE0E2480078CE
:10084000B0B9DA4808F080FC0620D64908700120CB
:100850004870D7A008F08BFC0E20D2490870012008
:100860004870D4A008F083FCF42008F01DFC24E0BC
:10087000D1480078012803D1D04808F065FC03E096
:10088000CE48C01D08F060FC0620C6490870012053
:100890004870C548808828B1C5A008F068FC04E00D
:1008A0000CE049E0C6A008F062FC0E20BD490870CB
:1008B00001204870C3A008F05AFC3EE0C24800780E
:1008C00018BBBD480078012803D1BC4808F03CFCA7
:1008D00003E0BA48C01D08F037FC0620B149087093
:1008E00001204870B048808818B1B1A008F03FFCE2
:1008F00002E0B3A008F03BFC0E20AA4908700120DA
:100900004870B0A008F033FC15E0A84808F01CFCC3
:100910000620A449087001204870A5A008F027FC13
:100920000E20A049087001204870A2A008F01FFC0A
:10093000F42008F0B9FB00E000BF00BF0720994990
:100940000870002048709BA008F011FC96490978B7
:100950003131C8B208F0EAFB0F209249087000203C
:100960004870732008F0E8FB04208E4908700120CD
:10097000487096A008F0FBFB10BD8B484A2102E0AE
:1009800000220270401C0A1EA1F1010399B2F7D1A6
:100990008F4B1A707047002010E0834A921C02EBC4
:1009A00040010A888B4B33F820309A4204DD894A93
:1009B00002EB800252880A80421CD0B20D28ECDB88
:1009C0007047F0B504461D46052A00DD052202B930
:1009D0000122042900DD0421914200DD114600209E
:1009E00004E020267C4F3E54461CF0B20828F8D381
:1009F000104611E00A2694FBF6F706FB1746303640
:100A0000F7B2461EDFF8D0C10CF806700A2694FB38
:100A1000F6F6B4B2461EF0B20028EBDC81B1134604
:100A2000084605E05E1E6C4FBE5DFE545E1EF3B2CE
:100A3000061EA0F10107F8B2F4D12E26664FFE542F
:100A4000A5B900200EE0644E365C302E07D1624F0F
:100A5000461CBE5D2E2E02D020263E5400E004E04F
:100A6000461CF0B2561E8642EDDC00BF09B1561C92
:100A7000F2B2104604E00026574F3E54461CF0B236
:100A80000828F8D3F0BD10B5474890F8480018B9C9
:100A9000524808F059FB07E0434890F84800012805
:100AA00002D14F4808F050FB10BD10B53E4890F8F9
:100AB000480020B94948153008F046FB08E03A489C
:100AC00090F84800012803D14548153008F03CFB58
:100AD00010BD10B543A008F037FB10BD10B50020C5
:100AE00030490870487008F09CFAFFF7CCFF0020EE
:100AF0002C4908700120487008F093FAFFF7D5FFE1
:100B000010BD10B52C490978C1EBC101384A8818CD
:100B100008F02DFB10BD10B523484088032802DDE6
:100B200000202149488000201E490870487008F0C4
:100B300078FA1D49498801EB41012E4A02EB410038
:100B400008F015FB07201749087000204870164967
:100B50000978481C01231A460021FFF732FF15A02F
:100B600008F005FB1C4808F0EFFA0F484088012800
:100B700003DD21A008F0E8FA02E020A008F0E4FA82
:100B80000A200849087008484088032803D006480E
:100B90004088012837D10449488B002304220121D1
:100BA0002EE00000B2000020F40000200FA7000893
:100BB000444300004D000000040000201DA7000871
:100BC000414300006D4100002F0000206B560000E3
:100BD00002000020C0AD0008B4000020E0AE000814
:100BE00077AE000844656320313420323032300063
:100BF0002AAE000891A700085F0000002000000056
:100C0000FFF7DFFE06E0FB49C8890023042201212B
:100C1000FFF7D7FEF84808F0AAFAF8A008F094FA0F
:100C20000020F749087001204870F248808840B9D8
:100C3000F048C088B0F5167F03DD4FF41671ED481B
:100C4000C180EC48408801280AD1EA49888A0023FB
:100C500003220221FFF7B5FE0121E648818012E060
:100C6000E4484088032807D1E249888A0023032208
:100C70000221FFF7A6FE06E0DE49C8880023032212
:100C80000221FFF79EFEDC4808F071FAAFF2C400C3
:100C900008F05AFA1421DB4808F0EFFED948DAA12F
:100CA00009680160DAA108F0F3FED2484088032801
:100CB00012D1D049C888002303220221FFF781FE08
:100CC0001421D44808F0D9FED248CFA109680160A8
:100CD000CFA108F0DDFE15E0C6484088022811D1FA
:100CE000C449888A002303220221FFF76AFE1421E7
:100CF000C84808F0C2FEC748C3A109680160C4A182
:100D000008F0C6FEBB48808840B9BA48408803282E
:100D100004D0AFF2541008F017FA03E0AFF27010ED
:100D200008F012FAB3484088032803D0B14840883D
:100D300001282FD10A20B2490870AE49C88A002381
:100D400004221946FFF73DFEAB4808F010FAAFF257
:100D50009C1008F0F9F9F42008F0A6F9AEA1AD480E
:100D600008F096FEAEA1AB4808F092FEA14840887C
:100D700003283BD19F490889002304220221FFF761
:100D800020FEA1A19F4808F083FEA6A19D4808F07F
:100D90007FFE2BE009209A490870964908890023B4
:100DA00004220221FFF70DFE934808F0E0F9AFF2AC
:100DB000EC1008F0C9F994A1924808F069FE99A1D5
:100DC000904808F065FE8B48408802280ED189497A
:100DD000C88A002304220221FFF7F3FD8EA18D486B
:100DE00008F056FE8EA18B4808F052FE10BD70B57B
:100DF00005468D48047804F03F0475B1012D09D0F3
:100E0000022D04D0032D09D144F0C00409E044F0C0
:100E1000800406E044F0400403E002E044F0C00433
:100E200000BF00BF804804700020804908607E48F1
:100E30000078C04300067C49097840EA01207C49DB
:100E4000086001207B49C1F890016420FFF72BFA6C
:100E500070BD70B504460020694908704870254689
:100E600004EBD5714910A4EB4101C1EBC10101EBC9
:100E70004101714A881808F07AF900206049087029
:100E8000012048706D4808F072F970BDF8B504464D
:100E900001275B4800788DF80000594840788DF8AC
:100EA0000100206808F000FEC6B2701CC6B2082E11
:100EB00000DD082652E067B19DF800005049087037
:100EC0009DF801004870A288216806FB021008F016
:100ED0004EF90A2007F0E7FF0546E12D15D009DCA1
:100EE000A5F16100082837D2DFE800F00E201136A6
:100EF000362E3331A5F1E20007282DD2DFE800F0CD
:100F000017082C2C252A280000BF6120F8BD00BF3F
:100F10000127A0886189884203DDA088401EA08047
:100F200003E06089A08008F0CBFB16E000BF01273A
:100F3000A088401CA080A0882189884203DD2089E8
:100F4000A08008F0BDFB08E000BF6620DEE700BF20
:100F500000BF00BF6720D9E700BF00BFABE710B5F7
:100F60000446002026490870487004EB840101EB18
:100F7000C401334A881808F0FAF8002020490870A4
:100F8000012048702F4808F0F2F810BD10B5044653
:100F90000A2094FBF0F100FB1140C4B234B1012CE3
:100FA00011D0022C19D0032C5BD14DE0124808F06F
:100FB000DEF8202008F0BAF8562008F0B7F8202014
:100FC00008F0B4F84EE00C4808F0D1F8202008F002
:100FD000ADF8732008F0AAF844E0074808F0C7F815
:100FE000202008F0A3F84D2008F0A0F8F42008F025
:100FF0009DF837E0F4000020B400002073000000EA
:10100000B200002002020020302E3030000000002C
:101010006B563B00160200202020302E30000000CE
:101020004D3B00006D413B00A50000209081224215
:101030001014014000802242DEAB000832AC0008F0
:10104000B0AC00089BAC0008F64808F090F82020EF
:1010500008F06CF84D2008F069F8F42008F066F804
:1010600000E000BF00BF10BD10B504460020EE49EF
:10107000087048700E2C13D2DFE804F007131F63CA
:10108000646566676869AAABACADE8A008F06FF864
:101090000020E549087001204870E9A008F067F8D1
:1010A000B9E0EBA008F063F80020DF4908700120E8
:1010B0004870EB4808F05BF8ADE0EA484088C8B1FA
:1010C000012804D0022817D0032837D113E0A11E2D
:1010D000E54A02EB011008F04AF80020D2490870F6
:1010E00001204870611E01EB0111DD4A881808F0EB
:1010F0003EF824E000BF00BF0020CB4908704870D4
:10110000A11EDA4A02EB011008F031F80020C649AE
:10111000087001204870D348808838B9A11E01EBBF
:101120000111D34A881808F022F806E0A11E01EB4D
:101130000111D04A881808F01AF800E000BF00BF7B
:1011400069E000BF00BF00BF00BF00BF00BFC548CF
:101150004088C8B1012804D0022817D0032834D110
:1011600013E0A11EC04A02EB011008F000F80020B5
:10117000AD49087001204870611E01EB0111B84AA9
:10118000881807F0F4FF21E000BF00BFA11E01EBAB
:101190000111B94A881807F0EAFF0020A249087037
:1011A00001204870AF48808838B9611E01EB0111F9
:1011B000AF4A881807F0DBFF06E0611E01EB011162
:1011C000AC4A881807F0D3FF00E000BF00BF22E060
:1011D00000BF00BF00BFA11E01EB0111A64A881885
:1011E00007F0C5FF0C2C01D00B2C07D10E208E4927
:1011F000087000204870F42007F09EFF00208A4904
:10120000087001204870611E01EB01119B4A88188B
:1012100007F0ADFF00BF00BF10BD2DE9F843044645
:101220004FF00109804800788DF800007E48407832
:101230008DF801000027A07908B9032600E00426F4
:10124000A4E1B9F1000F10D09DF8000076490870B4
:101250009DF801004870A389DAB2A179A088002323
:10126000FFF7AFFB6F4807F082FF0A2007F01BFE75
:101270008046B8F1E10F15D009DCA8F1610008281B
:1012800072D2DFE800F00E9C127171CECDCCA8F1C5
:10129000E2000728F4D2DFE800F0FA3F6767F9F8C8
:1012A000F70000BF6120BDE8F8834FF00109002777
:1012B00073488079C0F10300B04202DA701EC5B2F3
:1012C00000E035466F4830F8150061890844A18870
:1012D000884206DCA0886B4931F81510401AA080BE
:1012E00019E06089052802D06089062813D1608939
:1012F000062806D1A08810B10020A08001E008F0E7
:10130000DFF96089052806D1A08810B10020A080EF
:1013100001E008F0D5F938E14FF00109781CC7B2B7
:1013200057488079C0F10300B04202DA701EC5B29E
:1013300000E035461C2F0CDD002D01DD681EC5B216
:10134000002D01DD681EC5B2002D14DD681EC5B27A
:1013500011E0132F09DD002D01DD681EC5B2002D3F
:1013600009DD681EC5B206E009E10A2F03DD002D84
:1013700001DD681EC5B2434830F815006189084494
:10138000A188884206DCA0883E4931F81510401A31
:10139000A08013E06089062806D1A08810B1002043
:1013A000A08001E008F08CF96089052806D1A088AA
:1013B00010B10020A08001E008F082F9E5E04FF0D4
:1013C000010900272E488079C0F10300B04202DAFB
:1013D000701EC5B200E035466089062802D06089DB
:1013E000052855D1608906280AD1A08810B90620A1
:1013F000A08005E0A088234931F815100844A0809A
:101400006089052852D1A08810B90520A0804DE040
:10141000A0881C4931F815100844A08046E0A9E0D6
:10142000AAE0A4E0B4000020B20000204D656D6F7A
:1014300072793D2020202020202020200000000064
:1014400052616E67653A312D39202020202020001E
:101450005465737420203D2020202020202020006F
:10146000A9A70008F40000202BA70008FEA7000889
:101470007EA80008C0AA000817A90008E3A9000870
:10148000C8000020ECA6000875E076E070E00EE0F1
:10149000A088F84931F815100844A080A088218957
:1014A000884203DD2089A08008F00AF96DE04FF042
:1014B0000109781CC7B2F0488079C0F10300B0423E
:1014C00002DA701EC5B200E035461C2F0CDD002D7F
:1014D00001DD681EC5B2002D01DD681EC5B2002DFC
:1014E00013DD681EC5B210E0132F08DD002D01DDED
:1014F000681EC5B2002D08DD681EC5B205E00A2FC2
:1015000003DD002D01DD681EC5B26089062802D00A
:10151000608905281CD1608906280AD1A08810B9E5
:101520000620A08005E0A088D24931F815100844B3
:10153000A0806089052819D1A08810B90520A08055
:1015400014E0A088CB4931F815100844A0800DE0C4
:10155000A088C84931F815100844A080A0882189C6
:10156000884203DD2089A08008F0AAF80DE000BFC2
:10157000662098E600BF08E000BF672093E6BF48FA
:101580008078012800D0002700BF00BF59E62DE970
:10159000F041002500260027B948C08940F6D861EF
:1015A000884211DD012500BF002405E00020B54977
:1015B00041F82400601CC4B20C2CF7DB0020B249B7
:1015C0000870B249088009E0AD48C089B0F5B47F21
:1015D00002DA0126002501E0002500260027AC489C
:1015E0000078002816DD012D14D1A9480078401E8E
:1015F000A74908700127002405E00020A14941F80F
:101600002400601CC4B20C2CF7DB00209E4908703B
:101610009E4908809E480078022816DA012E14D1CF
:101620009B480078401C9A4908700127002405E077
:101630000020944941F82400601CC4B20C2CF7DB54
:1016400000209149087091490880012F06D19048E7
:101650000078FFF7CCFB3220FEF725FEBDE8F081D5
:1016600001B590B00021109808F06CFC10D21098D1
:1016700008F009FC0022874BCDE9060108F0E3FAE7
:10168000CDE9080108F042FC109001208249087061
:10169000109808F0F8FB814A814BCDE9080108F069
:1016A00005FC01D211B000BD109808F0ECFB7D4A9A
:1016B0007D4BCDE9080108F011FC58D2109808F0D4
:1016C000E2FB784A784BCDE9060108F02EFBCDE924
:1016D000080108F01BFC0E9074480D9000200B9040
:1016E00026200A903FE0DDE90D1008F06EFA4FF079
:1016F0007E51099008F026FC0ED20D9808F0C3FB2D
:1017000000226B4BCDE9060108F00FFBCDE9080183
:1017100008F0FCFB0D9000E028E00D9808F0B3FB0A
:10172000644A654BCDE9020108F08DFACDE9060166
:10173000109808F0A8FBCDE90401DDE9062308F0C4
:10174000F4FACDE9080108F085FB0C9052490C9899
:1017500048600A9808720B98401C40B20B900A9897
:10176000401E40B20A900B980428BCDB13E210988C
:1017700008F089FB514A524BCDE9080108F0AEFB55
:1017800058D2109808F07FFB4C4A4D4BCDE906012A
:1017900008F0CBFACDE9080108F0B8FB0E904948F3
:1017A0000D9000200B9023200A903FE0DDE90D1002
:1017B00008F00BFA4FF07E51099008F0C3FB0ED2EF
:1017C0000D9808F060FB0022394BCDE9060108F0C6
:1017D000ACFACDE9080108F099FB0D9000E028E093
:1017E0000D9808F050FB384A384BCDE9020108F05B
:1017F0002AFACDE90601109808F045FBCDE904016D
:10180000DDE9062308F091FACDE9080108F022FB92
:101810000C9021490C9848600A9808720B98401C5B
:1018200040B20B900A98401E40B20A900B980828CC
:10183000BCDB9BE7109808F026FB254A254BCDE939
:10184000080108F04BFB7DD2109808F01CFB204AE1
:10185000204BCDE9060108F068FACDE9080108F04F
:1018600055FB0E9017480D9000200B901C200A90FD
:1018700074E00000ECA60008C8000020AC000020C6
:10188000D80000207C010020070000200800002074
:10189000060000200000F0BFE8000020ECCFC55F8C
:1018A000FFFF0F38824DC7726142334700007A4410
:1018B0000000244021D7E6FAE031F44581121F2FC1
:1018C000E727C0458096184B92D54D06CFF080444F
:1018D00050EFE2D6E41A4B44DDE90D1008F075F93B
:1018E0004FF07E51099008F02DFB0ED20D9808F0B4
:1018F000CAFA0022F74BCDE9060108F016FACDE945
:10190000080108F003FB0D9000E02AE00D9808F0B4
:10191000BAFAF14AF14BCDE9020108F094F9CDE9A8
:101920000601109808F0AFFACDE90401DDE90623BD
:1019300008F0FBF9CDE9080108F08CFA0C90E849B1
:101940000C9800E00EE048600A9808720B98401C62
:1019500040B20B900A98401E40B20A900B9808289B
:10196000BADBA0E3109808F08EFADE4ADE4BCDE930
:10197000080108F0B3FA58D2109808F084FAD94A4E
:10198000D94BCDE9060108F0D0F9CDE9080108F0FE
:10199000BDFA0E90D5480D9000200B9015200A90AE
:1019A0003FE0DDE90D1008F010F94FF07E5109908D
:1019B00008F0C8FA0ED20D9808F065FA0022C54B5F
:1019C000CDE9060108F0B1F9CDE9080108F09EFA69
:1019D0000D9000E028E00D9808F055FA0022C44B65
:1019E000CDE9020108F02FF9CDE90601109808F0C1
:1019F0004AFACDE90401DDE9062308F096F9CDE9BC
:101A0000080108F027FA0C90B5490C9848600A982C
:101A100008720B98401C40B20B900A98401E40B2CE
:101A20000A900B980828BCDB3DE3109808F02BFACD
:101A30000022B04BCDE9080108F050FA58D21098B6
:101A400008F021FA0022AB4BCDE9060108F06DF950
:101A5000CDE9080108F05AFA0E90A4480D90002034
:101A60000B900D200A903FE0DDE90D1008F0ADF875
:101A70004FF07E51099008F065FA0ED20D9808F0EB
:101A800002FA0022934BCDE9060108F04EF9CDE9A8
:101A9000080108F03BFA0D9000E028E00D9808F0EE
:101AA000F2F900228B4BCDE9020108F0CCF8CDE928
:101AB0000601109808F0E7F9CDE90401DDE90623F5
:101AC00008F033F9CDE9080108F0C4F90C90844915
:101AD0000C9848600A9808720B98401C40B20B9012
:101AE0000A98401E40B20A900B980828BCDBDAE244
:101AF0004FF07E51109808F02FFA4DD210980E90AA
:101B00007A480D9000200B9007200A9021E0DDE933
:101B10000D1008F05AF84FF07E51099008F012FAB3
:101B20000ED20D9808F0AFF900226A4BCDE90601FC
:101B300008F0FBF8CDE9080108F0E8F90D9000E0A5
:101B40000AE00B98401C40B20B900A98401E40B22D
:101B50000A900B980828DADB00BF0D9808F093F97B
:101B6000654A664BCDE9020108F06DF8CDE9060142
:101B7000109808F088F9CDE90401DDE9062308F0A2
:101B8000D4F8CDE9080108F065F90C9054490C9897
:101B900048600A98087286E2109808F074F9584A6A
:101BA000584BCDE9080108F099F959D2109808F07E
:101BB0006AF900224F4BCDE9060108F044F8CDE95F
:101BC000080108F0A3F90E9048480D9000200B90F2
:101BD0000A9041E0DDE90D1007F0F7FF4FF07E516C
:101BE000099008F0AFF90ED20D9808F04CF90022D8
:101BF000384BCDE9060108F098F8CDE9080108F066
:101C000085F90D9000E02AE00D9808F03CF90246B5
:101C10000B46CDE902013C483C4908F086F8CDE985
:101C20000601109808F02FF9CDE90401DDE906233B
:101C300008F009F8CDE9080108F00CF90C902849E2
:101C40000C9848600A9808720B98401C40B20B90A0
:101C50000A98401E40B20A900B980828BADB22E28C
:101C6000109808F010F92A4A2A4BCDE9080108F02B
:101C700035F97ED2109808F006F91A4A1A4BCDE9C8
:101C8000060107F0E0FFCDE9080108F03FF90E90EA
:101C900016480D9000200B90C01F0A9064E0DDE90B
:101CA0000D1007F092FF4FF07E51099008F04AF9AD
:101CB0000ED20D9808F0E7F80022064BCDE9060198
:101CC00008F033F8CDE9080108F020F90D9023E081
:101CD0004DE000000000244000003426F56B0C436A
:101CE000E80000200000901EC4BCD6428096184B2D
:101CF00084D79741D01263418DEDB5A0F7C6B03EB1
:101D000048AFBC9AF2D77A3E000040E59C30A24230
:101D10009B2BA1869B84063D0D9808F0B4F80246E3
:101D20000B46CDE90201F748F74907F0FEFFCDE980
:101D30000601109808F0A7F8CDE90401DDE90623B3
:101D400007F081FFCDE9080108F084F80C90EF4915
:101D50000C9848600A9808720B98401C40B20B908F
:101D60000A98401E40B20A900B98082897DB9AE127
:101D7000FFE7109808F087F8E54AE64BCDE908013F
:101D800008F0ACF85BD2109808F07DF8E24AE34B1B
:101D9000CDE9060107F057FFCDE9080108F0B6F8D4
:101DA0000E90DF480D9000200B906FF00D000A9010
:101DB00041E0DDE90D1007F008FF4FF07E5109907A
:101DC00008F0C0F80ED20D9808F05DF80022D54B4F
:101DD000CDE9060107F0A9FFCDE9080108F096F862
:101DE0000D9000E02AE00D9808F04DF802460B46F1
:101DF000CDE90201CC48CD4907F097FFCDE90601B6
:101E0000109808F040F8CDE90401DDE9062307F059
:101E10001AFFCDE9080108F01DF80C90BB490C9899
:101E200048600A9808720B98401C40B20B900A98C0
:101E3000401E40B20A900B980828BADB33E1109894
:101E400008F021F8BA4ABB4BCDE9080108F046F882
:101E50005BD2109808F017F8B74AB84BCDE90601E5
:101E600007F0F1FECDE9080108F050F80E90AC48FB
:101E70000D9000200B906FF014000A9041E0DDE916
:101E80000D1007F0A2FE4FF07E51099008F05AF8AD
:101E90000ED20D9807F0F7FF0022A24BCDE9060104
:101EA00007F043FFCDE9080108F030F80D9000E09D
:101EB0002AE00D9807F0E7FF02460B46CDE9020144
:101EC0009F48A04907F031FFCDE90601109807F0BF
:101ED000DAFFCDE90401DDE9062307F0B4FECDE920
:101EE000080107F0B7FF0C9088490C9848600A98E1
:101EF00008720B98401C40B20B900A98401E40B2EA
:101F00000A900B980828BADBCDE0109807F0BBFFC9
:101F10008D4A8E4BCDE9080107F0E0FF61D21098A1
:101F200007F0B1FF8A4A8B4BCDE9060107F08BFE23
:101F3000CDE9080107F0EAFF0E9079480D900020E6
:101F40000B906FF01B000A9047E0DDE90D1007F0E1
:101F50003CFE4FF07E51099007F0F4FF0ED20D9831
:101F600007F091FF00226F4BCDE9060107F0DDFE7F
:101F7000CDE9080107F0CAFF0D9000E030E00D98B0
:101F800007F081FF02460B46CDE900017048714918
:101F900007F0CBFECDE90401109807F074FFCDE9FE
:101FA0000201DDE9042307F04EFE00226A4BCDE971
:101FB000060107F048FECDE9080107F04BFF0C9041
:101FC00052490C9848600A9808720B98401C40B21D
:101FD0000B900A98401E40B20A900B980828B4DB78
:101FE00061E0109807F04FFF5C4A5D4BCDE90601B8
:101FF00007F029FECDE9080107F088FF0E90594847
:102000000D9000200B906FF022000A9047E0DDE970
:102010000D1007F0DAFD4FF07E51099007F092FFA6
:102020000ED20D9807F02FFF00223E4BCDE906019E
:1020300007F07BFECDE9080107F068FF0D9000E096
:1020400030E00D9807F01FFF02460B46CDE9000176
:102050004248434907F069FECDE90401109807F0B2
:1020600012FFCDE90201DDE9042307F0ECFD0022B7
:10207000394BCDE9060107F0E6FDCDE9080107F08F
:10208000E9FE0C9021490C9848600A9808720B9858
:10209000401C40B20B900A98401E40B20A900B9828
:1020A0000428B4DB00BF00BFFFF7FCBA70B5002501
:1020B0002D480078401C2C4908702C48C08949F6EE
:1020C0004041884204DC2948C089B0F5FA6F06DA3D
:1020D00027480078022802D00020234908702549AB
:1020E0008A6825490888411C234B1980234941F8F7
:1020F0002020184600880C2802DB002019460880A2
:10210000002446E0408CB5781DAF1544E80000205F
:102110004F9B0E0AB4E3923B50EFE2D6E41A4B44D5
:102120008096184B000024400284FEE471D9894552
:10213000196050BEF6B01F3A81121F2FE727C04525
:10214000037CD8EA9BD0FE460F7AF8B7A595AA384B
:10215000824DC7726142334780842E41B1A1162A55
:10216000D3CED24700007A4407000020D8000020D8
:10217000060000206C010020080000207C010020E7
:10218000FE4850F82410284607F095FC0546601CD0
:10219000C4B20C2CF4DBFA4800780C2808DBF949AF
:1021A000284607F012FDF84988600C20F4490870B1
:1021B000F5498868FFF754FAF44840684FF47A719B
:1021C000B0FBF1F0F149486070BD70B5EE49C868E8
:1021D00007F01AFE0546EC480168284607F0C3FCE4
:1021E0000446E9484168204607F0EFFCE64988606C
:1021F00070BD10B5E648C0890A2802DA0A20E44911
:10220000C881E349C88907F0FFFDDF494860E1481C
:10221000E149097850F82100DB49C860FFF7D5FF94
:1022200010BD2DE9F0410024012717E2012FFCD158
:1022300000270E2C15D2DFE804F0071524494A4B7D
:102240004C4D9F4EBFC0C1C2D44D2888401CD449BC
:1022500088800920088101204881002088710120A0
:102260008881CEE0CD4DAD1CCE48CD490860288890
:10227000888003200881002048818871012088819E
:10228000BFE0C648408838B1012804D0022805D0F4
:10229000032819D101E017E000BF00BFBF488088C4
:1022A000012802DD0021BD488180BC4D2D1DBE48A6
:1022B000BB49086028888880012008810020488167
:1022C00088710120888100BF00BF9AE000BF00BF75
:1022D00000BF00BF00BFB148408838B1012804D01A
:1022E000022805D0032845D101E043E000BF00BF2C
:1022F000AA48801D00EB4400851FA8488088E0B9EB
:10230000AA48A749086028888880601EA84931F833
:102310002000A3490881601EA54901EB8000408888
:102320009F494881E01EA34911F810009C4988711B
:10233000A14830F8140088811BE09C489849086047
:1023400028888880601E9D4931F8200094490881C2
:10235000601E9A4901EB8000408891494881E01E47
:10236000944911F810008E498871934830F8140090
:10237000888100BF00BF44E08848008A012802DD50
:10238000002186480182854D10358D4884490860BA
:1023900028888880601E864931F82000804908819D
:1023A000601E834901EB800040887D494881002000
:1023B00088710120888124E000BF00BF00BF7748FA
:1023C000801D00EB4400851F7E4875490860288801
:1023D0008880601E764931F8200071490881601EAE
:1023E000734901EB800040886D494881E01E7149C6
:1023F00011F810006A4988716F4830F8140088811C
:1024000000BF00BF2046FEF72FFE0E2C76D2DFE87D
:1024100004F007111B252F39434D57616B767778F0
:102420000A2069490870002048705D48FEF7F5FEF3
:10243000804671E0082064490870002048705848C0
:10244000FEF724FD804667E00A205F4908700020FF
:1024500048705348FEF71AFD80465DE00A205A494D
:102460000870002048704E48FEF7D7FE804653E0C3
:10247000072055490870002048704948FEF7CDFEF6
:10248000804649E0072050490870002048704448C1
:10249000FEF7C3FE80463FE007204B49087000204E
:1024A00048703F48FEF7B9FE804635E008204649AF
:1024B0000870002048703A48FEF7AFFE80462BE0D7
:1024C000072041490870002048703548FEF7DEFCBF
:1024D000804621E007203C490870002048703048C1
:1024E000FEF79BFE804617E00A203749087000205F
:1024F00048702B48FEF791FE80460DE00BE000BFD0
:1025000000BF082030490870002048702448FEF7BA
:1025100084FE804600E000BF00BF44B920488088A8
:10252000401E288006F06FFEFEF735FA02E01C48D8
:1025300080882880B8F1680F72D009DCA8F16100AA
:1025400007286ED2DFE800F00E6E70888872830074
:10255000A8F1E10008287FD2DFE800F00565677E7A
:102560007E7E7A7800BF0D484088012802D1012C78
:1025700000D1092409488088012827E07C01002037
:1025800007000020000040416C010020E80000200E
:10259000D8000020F4A6000806000020F400002067
:1025A000C800002079A700086BA70008FEA7000854
:1025B0008CAD0008F4AD00080AAE000858AD000864
:1025C00073A7000817A90008B200002006D1072C45
:1025D00004D1601CC4B2601CC4B201E0601CC4B26F
:1025E000012C1BDD5048408840B1012804D002284E
:1025F00007D0032807D103E00E2606E00A2604E0F0
:1026000000BF0E2601E00E2600BF00BFB44205DB6E
:10261000002403204549087006F0E4FD01271CE072
:1026200013E019E000BF18E000BF16E03E48C08884
:10263000012802D102213C48C18003203B49087097
:1026400006F0D0FD06F09CFD07E000BF05E000BFEE
:1026500003203649087000E000BF00BF334800780F
:1026600004283FF4E3ADBDE8F081704702460B4615
:1026700088B2704710B54FF480732D4A2D492E480B
:1026800003F0F6F82C4803F01DF910BDF0B5044630
:10269000059D27460E4602B9012207FB06FCBCFB3E
:1026A000F5FC0CFB03FCBCFBF2F0F0BD30B50246C0
:1026B000002006E0145C0A2594FBF5F4E3B2441C08
:1026C000E0B28842F6DB30BD70B502460C46002011
:1026D00012E0135CDD1703EB15752911135CDD1790
:1026E00003EB15752D11A3EB051501EB810605EB29
:1026F00046051554431CD8B2A042EADB70BD30B584
:102700000B460146C41700EB1474C4F30712C41738
:1027100000EB14742411A0EB041402EB820504EB0B
:102720004504E0B230BD0000F400002003000020AA
:10273000ECA500080C1001401C00024070B506F02A
:102740002BFF06F0BEFE00214FF0804004F08CFE0F
:10275000FEF713F906F01BFD06F019FD06F053FD18
:1027600006F025FD06F060FDFEF715F9F848007843
:10277000082802DD0020F649087006F093FF06F0F5
:102780009BFDFEF7ABF90020F2490870002438E009
:10279000601CC4B2142C02DD0320EF4908700A202B
:1027A00006F081FB0546682D25D009DCA5F1610006
:1027B000072824D2DFE800F01517190E1B1D200092
:1027C000A5F1E10007281AD2DFE800F00C0E100591
:1027D0001214170000BF0920DF49087006F069FFD6
:1027E0000EE000BF0CE000BF0AE000BF08E000BF41
:1027F00006E000BF04E003E000BF142400E000BFD7
:1028000000BFD54800780228C2D006F041FE70BD56
:102810002DE9F04190B0FF260027D04890F82B001A
:10282000A0B1CE4890F83000C94981F848001E2177
:10283000CA482E3007F021F90020C84981F82B0042
:102840000021C64880F82C1006F0A8FCC04890F87B
:102850004800002870D1C24890F82B0000286CD0A6
:102860001C2101A807F009F91C22BD49303101A83B
:1028700007F0EAF8BA4890F82F6090F8305000203E
:10288000B74981F82B000021B54880F82C10DE2EC6
:102890007ED006DCCC2E7CD0CE2E09D0DD2E79D198
:1028A000A6E1EE2E77D0F22E76D0F32EF7D1B0E15E
:1028B000AC4800780B2841D2DFE800F00640400D1C
:1028C00014301B2229403700A748A8A10A680260DB
:1028D0000979017139E0A448A4A10A680260097964
:1028E000017132E0A048A3A10A6802600979017170
:1028F0002BE09D48A1A10A6802600979017124E0DA
:102900009948A0A10A680260097901711DE0964802
:102910009EA10A6802600979017116E092489DA1A2
:102920000A680260097901710FE08F4893A10A6873
:1029300002600979017108E0C9E2C7E28A4897A1FB
:102940000A6802600979017100BF00BF80484088B1
:10295000022803D07E48408803287DD19148007822
:1029600000287AD101208F49087028217C48C01C9A
:1029700007F083F87B48007878B98B497848C01C09
:1029800007F086F878497648C01C07F081F85BE0CC
:1029900041E126E199E25FE13CE1844800780128C9
:1029A00018D181496E48C01C07F072F86848408809
:1029B000022805D16C496A48C01C07F069F843E059
:1029C0006348408803283FD168A16548C01C07F0D0
:1029D0005FF839E05E484088022819D17248407B90
:1029E0003B2805D1704863A10968C0F80E1008E0C3
:1029F0006D48807B3B2804D16B485EA10968C0F814
:102A00000F10122268495648C01C07F01DF81BE041
:102A10004F484088032817D16348407B3B2805D1A5
:102A2000614851490968C0F80E1008E05E48807B93
:102A30003B2804D15C484C490968C0F80F105A493A
:102A40004748C01C07F024F859A14548C01C07F0AE
:102A50001FF85849424801E063E04AE0C01C07F013
:102A600017F852480078012813D1394840880228C5
:102A700005D13EA13A48C01C07F00AF81CE03448D2
:102A80004088032818D138493548C01C07F000F8A1
:102A900012E02F484088022805D133493048C01C35
:102AA00006F0F6FF08E02A484088032804D131A147
:102AB0002B48C01C06F0ECFF3F492948C01C06F01B
:102AC000E7FF00240EE02648C01C015D3B4805F0EE
:102AD000E5F800BF8021394805F04EF90028F9D00B
:102AE000601CC4B2272CEEDB00201D4981F82B00AE
:102AF00076E000240EE01A48C01C015D2F4805F066
:102B0000CDF800BF80212D4805F036F90028F9D016
:102B1000601CC4B2272CEEDB0020114981F82B0089
:102B20005EE028210E48C01C06F0A7FF0E221E49B9
:102B30000B48C01C06F088FF0B490948C01C06F072
:102B4000A7FF1D490648C01C06F0A2FF002445E06F
:102B5000F400002005000020030000201A030020DC
:102B60008002002004000020400000202D2D2D2D8B
:102B700000000000504153530000000048494748FE
:102B8000000000004C4F57200000000042524B2034
:102B900000000000415243200000000054455354FF
:102BA000000000004A00002002020020490000202E
:102BB0003B000000160200204B00002000380140BE
:102BC000FE48015DFE4805F069F800BF8021FC4821
:102BD00005F0D2F80028F9D0601CC4B2142CEFDB49
:102BE00074E10020F74908700520F74908706DE18D
:102BF000F5480078062808D10320F449087007201A
:102C0000F149087006F03FFC02E00320EE4908702D
:102C10005CE15BE15AE135B1012D08D0102D0AD0FD
:102C2000112D10D10BE00020E94948800CE0012073
:102C3000E749488008E00220E549488004E0032095
:102C4000E349488000E000BF00BF06F099FA06F0B3
:102C5000C9FAFDF760FF39E19DF80500401EDC4927
:102C60000870AC2D04D0AD2D6FD0DC2D6ED172E08C
:102C70000021D74881809DF807000121FFF73FFD23
:102C800080469DF806000121FFF739FD00EBC001E9
:102C900001EB001008EB8001CD48C1809DF80900D0
:102CA0000121FFF72CFD80469DF808000121FFF768
:102CB00026FD00EBC00101EB001008EB8001C448C9
:102CC00001819DF80B000121FFF719FD80469DF859
:102CD0000A000121FFF713FD00EBC00101EB00101A
:102CE00008EB8001BA4841819DF80D000121FFF7F2
:102CF00006FD80469DF80C000121FFF700FD00EB6A
:102D0000C00101EB001008EB8001B14881819DF802
:102D10000F000121FFF7F3FC80469DF80E00012112
:102D2000FFF7EDFC00EBC00101EB001008EB8001A8
:102D3000A748C1819DF8101041829DF811005028CC
:102D400005D10021A248018204E069E0B5E001213B
:102D50009F480182B1E001219D4881809DF80700D4
:102D6000FFF7CDFC80469DF806000121FFF7C7FC68
:102D700000EBC00101EB001008EB80019448C1801A
:102D80009DF809000121FFF7BAFC80469DF8080074
:102D90000121FFF7B4FC00EBC00101EB001008EBD0
:102DA00080018B4801819DF80B000121FFF7A7FCF2
:102DB00080469DF80A000121FFF7A1FC00EBC0014D
:102DC00001EB001008EB8001814841819DF80D0066
:102DD0000121FFF794FC80469DF80C000121FFF7CC
:102DE0008EFC00EBC00101EB001008EB800178487D
:102DF00081819DF80F000121FFF781FC80469DF83D
:102E00000E000121FFF77BFC00EBC00101EB00107D
:102E100008EB80016E48C1819DF8101041824CE0A2
:102E20009DF807000121FFF76AFC80469DF8060027
:102E30000121FFF764FC00EBC00101EB001008EB7F
:102E40008001634881829DF809000121FFF757FC4A
:102E500080469DF808000121FFF751FC00EBC001FE
:102E600001EB001008EB80015948C1829DF80B006E
:102E70000121FFF744FC80469DF80A000121FFF77D
:102E80003EFC00EBC00101EB001008EB8001504854
:102E900001839DF80D000121FFF731FC80469DF86C
:102EA0000C000121FFF72BFC00EBC00101EB00102F
:102EB00008EB80014648418300BF00BF06F060F97F
:102EC00006F090F9FDF727FE00E000BFF2E0404871
:102ED00090F848000128F9D13848C01E90F82B001E
:102EE00098B11E2235492B3108A806F0ADFD9DF89A
:102EF00022709DF8236000203049C91E81F82B0004
:102F000000212E48C01E80F82C1026B1012E44D07E
:102F1000022E41D160E0022F25D19DF824005428D3
:102F200009D1002027490870052027490870012091
:102F30002849087030E09DF8240052282CD12248FE
:102F4000007806280BD103202049087007201E496D
:102F5000087006F098FA01201E4908701CE0032052
:102F60001949087018E0032F16D19DF82400742821
:102F700012D10020134908709DF8250014490870EB
:102F800006F0FEF803201049087006F03CF9FDF742
:102F900002FD05200C4908708BE09DF824000C49C7
:102FA000087006F0EDF803200749087006F02BF9C9
:102FB000FDF7F1FCFDF7AFFD7BE000008302002090
:102FC000003801402F0000200300002004000020F2
:102FD000F4000020480000209DF82400F949087002
:102FE000084600788009F8494880F6480078C0F320
:102FF0004011F5488180F3480078C0F30011F24891
:103000000182F048007800F00F01EF4841829DF8FE
:10301000251081829DF827009DF8261000EB0120E5
:1030200081B2E948C1809DF829009DF8281000EB85
:10303000012081B2E44801819DF82B009DF82A10FF
:1030400000EB012081B2E04841819DF82D009DF800
:103050002C1000EB012081B2DB4881819DF82F000C
:103060009DF82E1000EB012081B2D748C1819DF858
:1030700031009DF8301000EB012081B2D248C182AE
:103080009DF833009DF8321000EB012081B2CE484C
:1030900001839DF835009DF8341000EB012081B2CA
:1030A000C948418306F06CF806F09CF8FDF733FD43
:1030B00000BF00BF10B0BDE8F08170B50020C3496B
:1030C0000870FDF728FD06F00FF906F0BCF90020A6
:1030D000BF4908708AE0BF4890F82B0018B9BE4875
:1030E00090F82B0008B1FFF793FB0A2005F0DBFEF8
:1030F0000446662C6ED008DCA4F16100052873D26A
:10310000DFE800F010142D475300E62C63D004DCF8
:10311000672C61D0682C67D154E0E72C5DD0E82C97
:1031200062D150E00420AD4908705EE0AC48007800
:10313000A0B9A5480078401CA3490870084600784B
:10314000082801DD0020087006F05DF8FDF723FC7B
:1031500006F016F805F0E6FFFDF7DDFC45E0A048B7
:103160000078A8B99848007828B197480078401EA0
:103170009549087002E008209349087006F043F86A
:10318000FDF709FC05F0FCFF05F0CCFFFDF7C3FCE3
:103190002BE09348007818B191480078401E00E079
:1031A0000320C5B28E4805701FE08D4800780328C3
:1031B00003DA8B480078401C00E00020C5B2884844
:1031C000057012E000BF0520844908700020854981
:1031D00008700AE000BF00BF00BF002080490870EF
:1031E0008049087001E0FFE700BF00BF7B4800781E
:1031F00003283FF470AF70BD10B5FFF712F810BD93
:1032000010B513E0002078490870784908707549B6
:10321000087006F01DF800214FF0804004F024F9FA
:1032200001206A49087006206C4908706B480078D4
:103230000528E7D010BD10B5002006F009F80021E0
:103240004FF0804004F010F96420FDF72CF806F0F0
:1032500095F810BD2DE9FC5F01205C4908705A48C3
:10326000B0F802808088C0B20090574880885549E5
:10327000097860F34511534801705348408AC0B241
:103280000190002005F0EBFFB8F1000F2ED10020D7
:10329000574908704C48C08800EB80004FF6FF711A
:1032A00001EA400548488089012801D1022601E051
:1032B000454886892C460327F0204E49088040F671
:1032C000D8604D4908809DF8000038B94B48008807
:1032D00044433D48808BB4FBF0F4E9E04748408824
:1032E00044433948008CB4FBF0F4E1E0B8F1010F3D
:1032F0001DD14FF4B4703F49088040F6D8603E4974
:10330000088001203A49087000262F48808A00EB87
:1033100080004FF6FF7101EA40052C46052737482B
:10332000808844432848808CB4FBF0F4C0E0B8F1B6
:10333000030F6DD12448808A00EB80004FF6FF71A7
:1033400001EA400520488089012801D1022601E0D8
:103350001D4886892C461E480078A0B94FF4B470E9
:103360002449088040F6D86023490880012020497C
:103370000870052700262148808844431248808C25
:10338000B4FBF0F494E0F0201A49088040F6D860CD
:10339000194908800020164908700B48C08800EBC6
:1033A00080004FF6FF7101EA40052C4603279DF887
:1033B000000028BB1148008844430348808BB4FBBD
:1033C000F0F475E054000020F40000200400002018
:1033D0002F000020800200201A030020030000209C
:1033E00005000020000000201B0000201C00002021
:1033F0002E00002030000020320000203400002089
:10340000FE4840884443FE48008CB4FBF0F44FE093
:10341000FC48007870BBF020FB49088040F6D8607B
:10342000FA490880F6488089012801D1022601E086
:10343000F3488689F248C08800EB80004FF6FF71A0
:1034400001EA40052C4603270020F14908709DF849
:10345000000038B9E94800884443E948808BB4FB50
:10346000F0F425E0E54840884443E548008CB4FB8F
:10347000F0F41DE04FF4B470E349088040F6D860E2
:10348000E24908800026DE48808A00EB80004FF683
:10349000FF7101EA40052C4605270120DC49087030
:1034A000D64880884443D648808CB4FBF0F400BFF3
:1034B000DFF84C9309F11C094FF00B0BDFF854A314
:1034C0004FF02C0B002705E019F8010B0AF8010B4F
:1034D000781CC7B25F45F7DB0020CF490860CF49B1
:1034E0000880CF490860CF490880CF490870CF498C
:1034F0000880CF490880CF490870CF490880CF495C
:103500000880CF490870002708E00020CD4921F845
:103510001700CD4921F81700781CC7B2082FF4DB3B
:10352000C6490C80002E45D00120C2490870C3480E
:103530000488B4FBF6F4BE490C800488B4FBF6F0B2
:1035400006FB1044B9490C80B9480088012831DADB
:103550000A20B8490870B948048804EB8400440084
:10356000B4FBF6F4B2490C80B448048804EB840040
:103570004400B4FBF6F006FB1044AC490C80AC48A8
:103580000088012816DA6420AA490870AB4804882C
:1035900004EB84004400B4FBF6F4A5490C80A74872
:1035A000048804EB84004400B4FBF6F006FB1044EE
:1035B0009E490C80B8F1000F12D0B8F1010F06D06F
:1035C000B8F1020F54D0B8F1030F7CD126E005F01A
:1035D00091FF022005F0C7FF02209C49087077E0A8
:1035E0009DF8000048B105F085FF022005F0BBFF03
:1035F0009DF8040005F033FE0FE005F097FF8048CA
:10360000008A18B1012005F0AEFF02E0002005F0AD
:10361000AAFF9DF8040005F022FE59E079480078E1
:1036200040B905F067FF022005F09DFF02208749A1
:1036300008701CE09DF8000048B105F05BFF022017
:1036400005F091FF9DF8040005F009FE0FE005F07C
:103650006DFF6B48008A18B1012005F084FF02E07D
:10366000002005F080FF9DF8040005F0F8FD2FE034
:1036700064480078F0B99DF8000048B105F03AFFC1
:10368000022005F070FF9DF8040005F0E8FD19E048
:1036900005F04CFF5A48008A18B1012005F063FF7D
:1036A00002E0002005F05FFF9DF8040005F0D7FD63
:1036B00008E008E005F01EFF022005F054FF02209C
:1036C0006249087004E0072061490870BDE8FC9F6A
:1036D00000BF002005F0BCFD0121880703F0C4FEF7
:1036E00005F0CCFE00205B49087008460078FDF725
:1036F0007EFB05F0A8FE05F0F7FD05F027FE08208B
:103700005549087002204870162008700220487041
:10371000002008705148007800EB4000202101EBA8
:10372000C0004D494870002008704C48007800EBFC
:103730004000C00020304870B8F1000F09D0B8F147
:10374000010F07D0B8F1020F05D0B8F1030F04D173
:1037500002E000BF02E001E000E000BF00BF002087
:103760003D490870FDF7CDF900BFAFE738B52A48ED
:103770000068B0F5805F03D340F6FF70264908600B
:1037800026480088B0F5805F03DB40F6FF702349D0
:1037900008803348008800287ED0012804D0022801
:1037A0007BD003287AD1CFE11A4840891A4A009089
:1037B000126893B2274A1278D21D164D05EB820289
:1037C0005188244A1278D21D35F82200134A1288F3
:1037D000FEF75CFF044612490C6008460068B0F52D
:1037E000617F42D9284640890B4A0090126893B203
:1037F0002A46518D108D094A128833E0340000208A
:10380000F40000202F0000203000002032000020B3
:103810002E000020D60100200C0000201E000020F9
:10382000140000202000002022000020240000209E
:1038300026000020280000202A0000202C00002064
:1038400001000020AC010020BC0100200400002089
:103850000300002006000020B20000201C00002011
:10386000CC010020FEF712FF0446FD480460FD482D
:10387000006800EB80004400FB4800894443FA489C
:103880004089B4FBF0F40A20B4FBF0F100FB1140D6
:10389000042800D90A3402E00BE087E033E20A2072
:1038A000B4FBF0F4A0B20A2190FBF1F0ED490860FE
:1038B0002AE2EE48008800EB80004400EC48808853
:1038C000C8BBEC480078C01CE74931F820004443ED
:1038D000E8480078C01C01EB80004088B4FBF0F49D
:1038E0000A20B4FBF0F100FB1140042800D90A348F
:1038F0000A20B4FBF0F4E049CC81DA48006800EB20
:1039000080004400D84800884443D7484088B4FB2E
:10391000F0F40A20B4FBF0F100FB1140042800D9B8
:103920000A340A20B4FBF0F4A0B20A2190FBF1F0B3
:10393000CC49086039E0FFE7CE480078401DCA490D
:1039400031F820004443CB480078401D01EB800053
:103950004088B4FBF0F40A20B4FBF0F100FB114006
:10396000042800D90A340A20B4FBF0F4C249CC81FF
:10397000BC48006800EB80004400BB48808844439A
:10398000B948C088B4FBF0F40A20B4FBF0F100FBA6
:103990001140042800D90A340A20B4FBF0F4A0B284
:1039A0000A2190FBF1F0AF490860ADE1B34800781F
:1039B00000287DD1AD48008800EB80004400AC4871
:1039C0008088C8BBAB480078C01CA74931F82000EC
:1039D0004443A8480078C01C01EB80004088B4FB39
:1039E000F0F40A20B4FBF0F100FB1140042800D9E8
:1039F0000A340A20B4FBF0F49F49CC81994800684E
:103A000000EB800044009848008844439648408872
:103A1000B4FBF0F40A20B4FBF0F100FB11400428E1
:103A200000D90A340A20B4FBF0F4A0B20A2190FBBA
:103A3000F1F08C49086086E0FFE78E480078401D71
:103A4000894931F8200044438A480078401D01EB41
:103A500080004088B4FBF0F40A20B4FBF0F100FBD6
:103A60001140042800D90A340A20B4FBF0F482493A
:103A7000CC817C48006800EB800044007A48808854
:103A800044437948C088B4FBF0F40A20B4FBF0F159
:103A900000FB1140042800D90A340A20B4FBF0F4DA
:103AA000A0B20A2190FBF1F06E4908604BE0FFE7FD
:103AB0006D4840896B4A0090126893B26D4A127843
:103AC000D21D694D05EB820251886A4A1278D21DD7
:103AD00035F82200654A1288FEF7D8FD0446604991
:103AE0000C6008460068B0F5617F0DD92846408912
:103AF0005C4A0090126893B22A46518D108D5B4A41
:103B00001288FEF7C3FD0446554804605548006816
:103B100000EB8000440054480089444352484089E7
:103B2000B4FBF0F40A20B4FBF0F100FB11400428D0
:103B300000D90A340A20B4FBF0F4A0B20A2190FBA9
:103B4000F1F048490860DFE04C480078E8BB46489F
:103B50004089444A0090126893B2464A1278D21DB6
:103B6000414D05EB82025188424A1278D21D35F848
:103B700022003E4A1288FEF789FD044638490C604F
:103B800008460068B0F5617F0DD928464089354A5E
:103B90000090126893B22A46518D108D334A1288D4
:103BA000FEF774FD04462E4804602E48006800EBC2
:103BB000800044002C48008944432B484089B4FBD2
:103BC000F0F40A20B4FBF0F100E00EE000FB11403D
:103BD000042800D90A340A20B4FBF0F4A0B20A2168
:103BE00090FBF1F01F4908608CE02048008800EB52
:103BF000800044001E48808888BB1E480078C01C96
:103C0000194931F8200044431A480078C01C01EBE0
:103C100080004088B4FBF0F40A20B4FBF0F100FB14
:103C20001140042800D90A340A20B4FBF0F41249E8
:103C3000CC810C48006800EB800044000A480088F2
:103C4000444309484088B4FBF0F40A20B4FBF0F187
:103C500000FB1140042800D90A340A2010E018E0C3
:103C6000140000200C000020D60100201E000020BF
:103C7000F400002006000020D80000202F000020C3
:103C8000B4FBF0F4A0B20A2190FBF1F0F749086010
:103C900038E0F7480078401DF64931F820004443E9
:103CA000F3480078401D01EB80004088B4FBF0F43D
:103CB0000A20B4FBF0F100FB1140042800D90A34BB
:103CC0000A20B4FBF0F4EC49CC81E848006800EB32
:103CD00080004400E74880884443E648C088B4FB3D
:103CE000F0F40A20B4FBF0F100FB1140042800D9E5
:103CF0000A340A20B4FBF0F4A0B20A2190FBF1F0E0
:103D0000DA49086000E000BF00BF38BD0CB5DB48F1
:103D10000078082804DAD9480078401CD749087090
:103D2000072001900EE09DF80400401ED44931F8B0
:103D300010009DF8042021F812009DF80400401E98
:103D4000C0B201909DF804000028ECDCC748006870
:103D5000CB49088000200090C8480078019007E017
:103D6000C7489DF8041030F81100009908440090ED
:103D70009DF80400411EC9B201910028F0D1BF494D
:103D800009780098B0FBF1F00090009880B2B74934
:103D90000860072001900EE09DF80400401EB9491C
:103DA00031F810009DF8042021F812009DF804005D
:103DB000401EC0B201909DF804000028ECDCB2481F
:103DC0000088B049088000200090AC48007801903D
:103DD00007E0AC489DF8041030F811000099084441
:103DE00000909DF80400411EC9B201910028F0D155
:103DF000A24909780098B0FBF1F00090A249009820
:103E000008800CBD0EB500200190009002900EE0DD
:103E100005F02EFA01990844019005F02FFA009957
:103E2000084400909DF80800401CC0B202909DF824
:103E300008001028ECDB0198C0F30F108B490860D4
:103E40000098C0F30F10904908800EBD2DE9F04F87
:103E50008BB04FF0000B0020049003900290019073
:103E600082468A4840888A49088008460088052892
:103E70007ED2DFE800F017036738980085480078A5
:103E800020F0C0004030834908708048C08A8049D3
:103E9000C8807E48008B08817C48408B4880022087
:103EA000099087E07B48007820F0C00079490870CD
:103EB000764800897649C8807448408908817348EB
:103EC000C089488071488089012802D102208880F9
:103ED00003E06E4880896E4988806C488088009035
:103EE0000120099066E06B48007820F0C000C030E7
:103EF000684908706848007860B96448C08A6449B5
:103F0000C8806248008B08816048408B488002204E
:103F1000099016E0012009905C4800895C49C8803E
:103F20005A48408908815948C08948805748808943
:103F3000012802D10220888003E054488089544936
:103F4000888037E05348007820F0C0008030514925
:103F5000087051480078C8B9012009904B48008981
:103F60004B49C8804948408908814848C08900E0D9
:103F70001AE0488045488089012802D102208880C3
:103F800010E042488089424988800BE00220099075
:103F90003E48C08A3E49C8803C48008B08813B4867
:103FA000408B488006E005E007203C4908700BB0D4
:103FB000BDE8F08F00BFFFF74DF900200790089093
:103FC0000690374908602C490881364908809DF8D9
:103FD0002400274908700978334A12781144C8B27E
:103FE000FCF705FF01F07BB900203049087030482C
:103FF000007801287ED100202D4908704FF0010B78
:10400000BDF8200042F20F71884204DABDF82000AA
:10401000401C80B2089027480078012852D19DF8B2
:104020001C00401CC0B207909DF81C002249097872
:10403000884208DB002007901A4800881F49098839
:104040000844184908800C48008911498988884229
:104050000BDB0020084908811948008811490880B5
:10406000022014490870012004909AE00C000020FE
:1040700006000020D6010020D800002022000020E9
:10408000AC010020BC0100201E000020F400002034
:10409000CC010020540000202F000020030000204D
:1040A000100000202A0000202E0000204A000020DE
:1040B000010000200400002028000020260000202D
:1040C0002C000020FA480088FA490880FA48408805
:1040D000002866DDF9480089F7494988884260DB95
:1040E000F548008880B1F4480088022804D1F448DB
:1040F000007800E072E038B1EF48008803282AD148
:10410000EF480078012826D1EE49C88805F081FEE5
:104110008046ED4AED4B05F096FD04460D46EC4811
:10412000006805F076FE064622462B4605F0BEFEE8
:1041300008D2012003900720E64908700320E649D1
:1041400088702EE00720E54908700420E1490870D6
:104150000120049025E0DB49888A05F05AFE0646D6
:10416000D94ADA4B05F06FFD04460D46D848006881
:1041700005F04FFE804622462B4605F097FE08D2FA
:10418000012003900720D34908700320D24988708A
:1041900007E00720D14908700420CE4908700120AB
:1041A0000490C448008805F053F89DF81800401C9E
:1041B000C0B206909DF81800092190FBF1F201FBB6
:1041C0001200C0B206909DF81800052802DA04F02B
:1041D00004FD01E004F0FDFCFCF7E4FAFFF712FE39
:1041E000FFF794FDFFF7C2FABD480088BD49098872
:1041F000884204DD01200290002001900DE0B848C3
:104200000088B9490988884204DA01200190002019
:10421000029002E00020029001904FF0000AB348A3
:1042200000789DF82410884209DA0198012806D107
:10423000AE480078401CAD4908704FF0010AAB4809
:104240000078002809DD0298012806D1A7480078E7
:10425000401EA64908704FF0010ABAF1010F1FD1A4
:104260000020A34908700A900AE00020A1499DF8A7
:10427000282021F812009DF82800401CC0B20A90A6
:104280009DF828000828F0DB984909789A4A1278A6
:104290001144C8B2FCF7ABFD3220FCF704F8CDE0C6
:1042A0008548008830B1012825D0022872D0032823
:1042B00071D13BE08D480078012806D17F48C08944
:1042C0000A2190FBF1F07D49C881BDF8000001286A
:1042D00003D140F22620059002E04FF4966005904D
:1042E0007648C089BDF81410884203DD4FF6FF7090
:1042F0007249C881A1E07A48008848B17F480068C7
:104300007F49884208D94FF6FF707C49086003E076
:104310004FF6FF7079490860BAF1000F05D1674880
:104320000089062801DB0120039086E064480078BC
:10433000D0B96B48008848B170480068704988421D
:1043400008D94FF6FF706D49086003E04FF6FF7023
:104350006A490860BAF1000F2BD158480089062835
:1043600027DB0120039024E060480078012806D173
:104370005248C0890A2190FBF1F05049C8814FF49E
:1043800096600590BDF80000012805D140F2262076
:10439000059004E00EE04FE04FF49660059047482A
:1043A000C089BDF81410884203DD4FF6FF70434901
:1043B000C88142E04248007818BB4C480078012888
:1043C00006D13E48C0890A2190FBF1F03B49C881E3
:1043D0004FF496600590BDF80000012803D140F22B
:1043E0002620059002E04FF4966005903348C0897E
:1043F000BDF8141088421EDD4FF6FF702F49C881AA
:1044000019E03748008848B13C4800683C49884278
:1044100008D94FF6FF703949086003E04FF6FF7086
:1044200036490860BAF1000F05D1244800890628F2
:1044300001DB0120039000E000BF00BF25480078A9
:10444000022872D103980128FBD1BAF1000FF8D1EC
:104450001948008830B101286AD0022867D00328A3
:1044600072D1A9E01548C08905901348C088BDF8ED
:10447000141088424CDA1348808858B9BDF81400EB
:10448000B0F5966F03DD0A201249087002E006209D
:10449000104908700B488088012836D1BDF81400F7
:1044A00041F2883188422DDD0A200A4908702CE04B
:1044B0002C0000202A000020CC010020D800002081
:1044C0002F000020F40000209A9999999999E93FCA
:1044D0000C000020040000202A020020030000201D
:1044E0001E000020320000203000002006000020C6
:1044F00022000020BC0100202E000020140000201B
:104500009F8601000620FE4908700220FD49887040
:10451000FD480089BDF81410884205DD0720F849E0
:1045200008700320F749887057E157E100E0CBE0BD
:10453000F648006880B20590F548007828B1012857
:104540000CD002281AD111E046E1BDF814004FF456
:104550007A7190FBF1F080B2059010E0BDF8140084
:10456000642190FBF1F080B2059008E0BDF81400E2
:104570000A2190FBF1F080B2059000E000BF00BF7F
:10458000E148C088BDF81410884208DADE48C088C7
:1045900028B10620DA4908700820DA498870DA481C
:1045A0000089BDF81410884205DD0720D449087041
:1045B0000920D449887010E1D6480078B0BBD348B0
:1045C000006880B20590D248007820B101280BD055
:1045D000022819D110E0BDF814004FF47A7190FB55
:1045E000F1F080B2059010E0BDF81400642190FB5A
:1045F000F1F080B2059008E0BDF814000A2190FBAC
:10460000F1F080B2059000E000BF00BFBE48C08856
:10461000BDF8141088420ADABB48C08838B10620B9
:10462000B74908700820B749887003E013E00620F6
:10463000B4498870B4480089BDF81410884206DD7A
:104640000720AF4908700920AE4988703BE006207A
:10465000AC49887037E0B048C0890590AA48C08846
:10466000BDF81410884222DAAC48808858B9BDF8E9
:104670001400B0F5966F03DD0A20A149087002E02E
:1046800006209F490870A548808801280CD1BDF8F4
:10469000140041F28831884203DD0A2098490870ED
:1046A00002E006209649087002209D4988709648CD
:1046B0000089BDF81410884205DD07209049087074
:1046C00003209749887088E092480078E0BB9248C0
:1046D000C08905908C48C088BDF81410884223DA40
:1046E0008E48808858B9BDF81400B0F5966F03DD88
:1046F0000A208349087002E0062081490870874833
:10470000808801280CD1BDF8140041F2883188421C
:1047100003DD0A207A49087002E006207849087013
:1047200002207849887002E0002076498870764837
:104730000089BDF81410884207DD07207049087011
:1047400003207049887046E003E000206D498870BE
:1047500041E06E48006880B205906D48007820B155
:1047600001280BD0022819D110E0BDF814004FF435
:104770007A7190FBF1F080B2059010E0BDF8140062
:10478000642190FBF1F080B2059008E0BDF81400C0
:104790000A2190FBF1F080B2059000E000BF00BF5D
:1047A0005948C088BDF81410884208DA5648C088B5
:1047B00028B106205249087008205949887052488B
:1047C0000089BDF81410884205DD07204C490870A7
:1047D00009205349887000E000BF00BF48480078B6
:1047E00006280FD04648007807280BD044480078A8
:1047F000052807D042480078082803D040480078B0
:104800000A2809D101204749087007204649087045
:104810004FF0010B01200490BBF1010F6CD14FF060
:10482000000B00204149087001204870364800887C
:1048300030B1012861D0022860D003285FD1E4E0C4
:104840003648C0883A49096888420DD93348C0883B
:1048500037490968401A022813D83048C0883449BB
:104860000860012003900CE02C48C088304909689A
:10487000081A022805D82948C0882D490860012057
:1048800003902B49096888B2012303220221FCF717
:1048900098F8284804F06BFC1421274805F0EDF83F
:1048A000254824490968016024A105F0F1F8204851
:1048B0000068000A134908711D4800684871092002
:1048C0001A4908701449C889002304220221FCF700
:1048D00078F81148C089B0F57A7F33DA1548407806
:1048E000144908700846807848700846C078887077
:1048F00008460079C87023E0FDE349E2FEE2FBE3ED
:10490000040000202A020020CC0100201400002016
:10491000060000202F000020D8000020F400002016
:104920003E0200200000002003000020B200002012
:104930000C000020B4000020020200206B563B0057
:1049400000200871F849F94805F0A2F8F848007805
:1049500008282CD0F64800780A2828D0F24804F01D
:1049600006FCF14805F02DFE044605F0CFFAF149AA
:104970000860F148C089B0F57A7F03DAEFA004F04F
:10498000E3FB02E0EEA004F0DFFBEA480078ED492B
:104990008871E8484078C871E64880780872E54830
:1049A000C0784872E8A1E14805F072F824E0E048D8
:1049B00000780A280BD1DC48E4A10A680260097972
:1049C000017104F0D4FBE3A004F0BEFB0EE0D84874
:1049D000007808280AD1D448DF490A6802600979BA
:1049E000017104F0C4FBDBA004F0AEFBFF20D5494D
:1049F0008871C87108724872CF4800890012D14985
:104A00008872CD480089C87277E2D4480078E8BB44
:104A10000120D3490870D348808AD3490968884265
:104A20000BD9D048808AD0490968401A02280FD88B
:104A3000CC48808ACC4908600AE0CA48808ACA49C2
:104A40000968081A022803D8C648808AC64908603F
:104A5000C549096888B2012303220221FBF7B1FF8F
:104A6000B14804F084FB1421C04805F006F8BF48A3
:104A7000AD4909680160AFF23C1105F009F8BA4888
:104A80000068000AAF490871B74800E078E00068A4
:104A900048710920B6490870B648006842F20F71A3
:104AA000884225D9B4480078022810D1B14800685E
:104AB0000A21B0FBF1F084B2B04AAF480078401C44
:104AC000115C012305222046FBF77BFF1BE0A94870
:104AD00000680A21B0FBF1F084B2A84AA648007829
:104AE000401C115C012304222046FBF76AFF0AE008
:104AF000A24AA14B1B78D15C9E4A126890B2012356
:104B00000422FBF75EFF9B4800684FF6FF71884266
:104B10001CD0854804F02BFB8349944804F0B8FF6F
:104B2000814805F04EFD044605F0F0F98149086022
:104B300008460078834988717E484078C8717D486E
:104B4000807808727B48C07848720CE08CA004F032
:104B50000EFB8BA1854804F09BFFFF2079498871EB
:104B6000C8710872487288A1804804F091FF7248A9
:104B700000890012734988726F480089C872D2E0B8
:104B80000220774908707748C088774909688842C9
:104B90000DD97448C08874490968401A022813D88E
:104BA0007048C08870490860012003900CE06D488F
:104BB000C0886D490968081A022805D86948C08864
:104BC00069490860012003906749096888B2012398
:104BD00003220221FBF7F5FE534804F0C8FA142122
:104BE000524804F04AFF51484F4909680160AFF24A
:104BF000B42104F04DFF5C480068000A6349087165
:104C00005948006848710920594908704A49C889BB
:104C1000012304220221FBF7D4FE4748C089B0F5E6
:104C20007A7F0EDA404840783F490870084680781D
:104C300048700846C078887008460079C87000201F
:104C400008713949394804F023FF394800780828A9
:104C50002CD0374800780A2828D0334804F087FA47
:104C6000314805F0AEFC044605F050F931490860C2
:104C70003148C089B0F57A7F03DA30A004F064FAD5
:104C800002E02FA004F060FA2A4800783F498871BA
:104C900028484078C8712748807808722548C0782D
:104CA000487229A1214804F0F3FE2CE02048007846
:104CB0000A280FD11C4825A10A68026009790171F0
:104CC00004F055FA23A004F03FFA1FA1174804F09E
:104CD000DFFE12E01648007808280ED112481E495F
:104CE0000A6802600979017104F041FA19A004F020
:104CF0002BFA15A10D4804F0CBFEFF202349887143
:104D0000C87108724872084805F05BFC044605F05B
:104D1000FDF8084908600848008900121B4988729C
:104D200005480089C87297E2B40000200202002002
:104D30000400002050000020D8000020206D410019
:104D40006D4100002A0200206D413B004F464C207F
:104D500000000000202000008C2B00082F00002005
:104D600049000020F40000200C0000201602002062
:104D7000B200002014000020060000207DAF0008D3
:104D80003E393939390000004D3B00003E02002019
:104D9000FA48808AFA49096888420BD9F748808A1C
:104DA000F7490968401A02280FD8F448808AF44964
:104DB00008600AE0F148808AF1490968081A022867
:104DC00003D8EE48808AEE490860ED49096888B248
:104DD000012303220221FBF7F4FDEA4804F0C7F99E
:104DE0001421E94804F049FEE748E64909680160F2
:104DF000AFF2B84104F04CFEE1480068000AE34914
:104E00000871DF48006848710920E1490870E148ED
:104E1000006842F20F71884225D9DF4800780228E5
:104E200010D1DC4800680A21B0FBF1F084B2DB4A03
:104E3000D9480078401C115C002305222046FBF76E
:104E4000C0FD1BE0D34800680A21B0FBF1F084B23A
:104E5000D24AD1480078401C115C0023042220462D
:104E6000FBF7AFFD0AE0CD4ACB4B1B78D15CC94ABA
:104E7000126890B201230422FBF7A3FDC548006825
:104E80004FF6FF7188421CD0BE4804F070F9BD494E
:104E9000BD4804F0FDFDBB4805F093FB044605F05A
:104EA00035F8BF49086008460078B8498871BC48A1
:104EB0004078C871BA4880780872B948C07848729A
:104EC0000EE0AFF2441004F052F9AFF24C11AE48CC
:104ED00004F0DEFDFF20AD498871C8710872487288
:104EE000AFF25C11A84804F0D3FDAE48008900126F
:104EF000A6498872AB480089C872ADE1AA4800781B
:104F0000F0BB0120A94908709C48C0889C490968E9
:104F100088420DD99948C08899490968401A0228E1
:104F200013D89648C08896490860012003900CE089
:104F30009248C08892490968081A022805D88F4803
:104F4000C0888F490860012003908D49096888B2A4
:104F5000012303220221FBF734FD8A4804F007F9FC
:104F60001421894804F089FD874886490968016051
:104F7000AFF2386104F08CFD81480068000A00E05F
:104F80008BE0824908717E48006848710920804999
:104F900008708449C889012304220221FBF711FD0E
:104FA0008048C089B0F57A7F0EDA76484078754936
:104FB00008700846807848700846C07888700846AF
:104FC0000079C870002008716E496F4804F060FDD8
:104FD000AFF28C216C4804F05BFD7548007808281E
:104FE0002AD0734800780A2826D0664804F0BFF813
:104FF000644805F0E6FA044604F088FF6849086052
:105000006848C089B0F57A7F04DAAFF2D02004F0A6
:105010009BF803E0AFF2D82004F096F860480078DF
:105020005A4988715E484078C8715D488078087236
:105030005B48C078487227E05D4800780A280DD1A7
:105040005048AFF2F8210A6802600979017104F052
:105050008EF8AFF2003004F077F80FE05448007893
:1050600008280BD1474853490A6802600979017141
:1050700004F07DF8AFF2243004F066F8FF204349D5
:105080008871C871087248724648008900123F4909
:10509000887244480089C872DCE0022043490870E5
:1050A0003648808A3649096888420BD93348808A55
:1050B00033490968401A02280FD83048808A30499D
:1050C00008600AE02D48808A2D490968081A0228DC
:1050D00003D82A48808A2A4908602949096888B281
:1050E000012303220221FBF76CFC264804F03FF861
:1050F0001421314801E0C0E0ADE004F0BEFC2E48D0
:10510000204909680160AFF2CC7104F0C1FC1C4871
:105110000068000A29490871194800684871092087
:105120001B4908701B48006842F20F71884247D93A
:1051300019480078022810D1164800680A21B0FBEF
:10514000F1F084B2154A14480078401C115C002329
:1051500005222046FBF735FC3DE00E4800680A2199
:10516000B0FBF1F084B20D4A0B480078401C115C92
:10517000002304222046FBF724FC2CE0F40000204E
:105180000C000020B4000020020200202A020020AF
:10519000B200002014000020060000207DAF0008AF
:1051A00050000020D80000202F00002049000020DF
:1051B000040000208C2B0008160200203E02002074
:1051C000F74AF84B1B78D15CF74A126890B201237A
:1051D0000422FBF7F6FBF44800684FF6FF718842A3
:1051E0001CD0F24803F0C3FFF049F14804F050FC32
:1051F000EE4805F0E6F9044604F088FEED49086043
:1052000008460078EC498871EA484078C871E94856
:1052100080780872E748C07848720EE0AFF2A0408C
:1052200003F0A5FFAFF2A841E14804F031FCFF20F4
:10523000E1498871C87108724872AFF2B441DC4824
:1052400004F026FCDD4800890012DB498872DB4847
:105250000089C87200E000BF00BF0A20D84908706A
:1052600000204870D5490889002304220121FBF75A
:10527000A8FBCE4803F07BFF00BFD24890F82B007C
:10528000012801D1FDF7C4FA03F002FE0A909DF84F
:105290002800662814D008DC62280DD063280CD0C2
:1052A00064280BD0652818D109E067280AD0E628C1
:1052B00007D0E72811D106E010E00FE00EE00DE086
:1052C00000BF00BF00BF0320BF4908700720BF49CF
:1052D000087004F0D8F8FEF76ABE00BF00BFBB48F4
:1052E000007806283EF480AEB9480078401CB849E2
:1052F000087004F0C8F800BFEDE710B55A20B549B2
:105300000870592048705A20AB49087059204870DD
:10531000B148008AB149097860F30411AF480170BF
:10532000AD48408AAD49097860F30301AB4801708C
:105330000078A849C870A94800789F49C870A84853
:105340000078002867D1A748008870B99E48007887
:10535000032805D0042807D100209E49887003E067
:1053600001209C49887000BF55E09E4800880128B4
:105370000ED195480078032805D0042807D10620CF
:105380009449887003E007209249887000BF42E08A
:105390009448008803281DD18B480078032808D042
:1053A000042816D106208B49887000208249887015
:1053B0000FE087480078012803D1072085498870CD
:1053C00006E083480078022802D101207A498870DB
:1053D00000BF20E08348008802281CD17A4800786A
:1053E000032808D0042815D100207A4988700620A7
:1053F000714988700EE076480078012802D175491D
:10540000887006E072480078022802D107206A49B5
:10541000887000BF00BF7248007820B371480088D0
:1054200010BB69480078C01E06281CD2DFE800F0D7
:105430000F0313070B1700206649887013E0022042
:10544000644988700FE00320624988700BE00120F6
:105450006049887007E004205E49887003E00520F9
:105460005C49887000BF1FE05E48008801281BD19E
:1054700055480078032812D0042804D0062806D006
:10548000072810D107E00620524988700BE0082059
:105490005049887007E009204E49887003E00720D2
:1054A0004C49887000BF00BF00240DE04948015DF1
:1054B0004D4802F0F3FB00BF80214B4802F05CFC3A
:1054C0000028F9D0601CC4B20C2CEFDB45480088E2
:1054D000032803D043480088022811D100240DE09E
:1054E0003548015D404802F0D9FB00BF80213E48AD
:1054F00002F042FC0028F9D0601CC4B20C2CEFDB97
:1055000010BD2DE9F041002733484088C5B2FDF7B2
:1055100092FE2D480078032827D0052D1FD2DFE802
:1055200005F0040309081D0000BF08202749087082
:105530001AE000BF2648007801280BD122480078E5
:10554000042803D106202149087006E008201F49DD
:10555000087002E008201D49087005E004E00720FB
:105560001A490870BDE8F08153E0052D43D2DFE809
:1055700005F004030605410041E040E03FE0144827
:105580000078012832D110480078042803D1062081
:105590000E4908702DE008200C49087029E0000031
:1055A0007DAF00080600002014000020B400002099
:1055B00016020020500000203E020020D8000020EB
:1055C000B200002080020020040000200300002020
:1055D0002F0000202A020020F400002054000020A8
:1055E00000000020CC01002000380140082096492E
:1055F000087004E003E0072093490870B2E700BF99
:1056000092480078012804D1FFF777FE00208F49E7
:10561000087000208E4908704870FBF772FA04F099
:1056200048F88C480078032807D10820884908707A
:10563000022048704FF6FF740CE087480078401C49
:105640008549087085480078032803DB08207E49D7
:10565000087087E762E08FB100270E207C49087050
:10566000042048700123042219462046FBF7A9F9BB
:105670007B4803F069FD732003F058FD0120FAF721
:1056800031FE70B17348007803280AD04FF6FF70DE
:10569000844206D001270A210120FAF720FE601E6D
:1056A00084B2012C02DA0620674908706D4890F830
:1056B0002B00012801D1FDF7ABF8052003F0F3FB27
:1056C0000646672E0CD004DC642E07D0652E23D14D
:1056D00005E0682E19D0E72E1ED102E01DE01CE087
:1056E00000BF5C48007803280BD04FF6FF7084425F
:1056F00003D103205449087006E00320554908707F
:1057000002E003205049087007E000205649087065
:1057100006204D49087000E000BF00BF4A480078ED
:10572000072898D000BF1DE770B5012503F026FEBD
:1057300046480078012804D1FFF7DFFD00204349E7
:1057400008704BE0012D19D1002516204049087042
:10575000022048704548007830B103F095FD03F011
:1057600072FE03F0DAFD09E003F0AAFF3948007881
:10577000042803D103F0B8FD03F04AFE394890F83D
:105780002B00012801D1FDF743F8022003F08BFB29
:105790000446672C19D006DC642C0BD0652C0AD08B
:1057A000662C19D10FE0682C06D0E62C0CD0E72C23
:1057B00012D10BE011E010E000202B490870052009
:1057C0002149087009E000BF07E000BF03201E491F
:1057D000087003F071FD00E000BF00BF1A480078B8
:1057E0000828AFD000202149087070BD10B506E030
:1057F00003F0D2FE03F018FD03201349087012488D
:1058000000780128F4D010BD10B518E00A20104926
:10581000087002204870042008703220487000246C
:1058200006E003F04DFF0320FAF73DFD601CC4B213
:105830000A2CF6DB01200449087003F0D5FE02486B
:1058400000780028E2D010BD0300002048000020AE
:10585000B2000020040000201C0000201B000020DB
:10586000B4000020800200202F0000200000002053
:105870002DE9F04107460D4616461C460121084613
:1058800001F051F8384602F0BFFD1248048012487A
:10589000056046601020104988600846C4600020FA
:1058A00008618020486100208861C861202008626A
:1058B0004FF44050486200208862384602F046FEAD
:1058C000BDE8F08110B504460121204602F069FED2
:1058D00010BD0000560000205402002070B50446A0
:1058E0000020FD49087048700B20B4FBF0F100FB6C
:1058F000114000EB0010F9494518284603F037FC29
:105900000920F54908700020487003F08AFB002048
:10591000F149087001204870F14803F028FC70BD7F
:105920002DE9FF5F04464FF0000A03F0FBFBED4852
:1059300030F825000190EB4800EB8500408800908E
:105940000B25E94FDFF8A483A8000390002505E0AC
:1059500017F8010B08F8010B681CC5B29DF80C0084
:105960008542F5DB0020E2490860E2490880E2490F
:105970000860E2490870E249087003F064FD03F032
:10598000B3FC03F0E3FC03F094FE00260220DD49A3
:1059900008700A210120FAF7A2FC0120CE494870C4
:1059A00002200870D84803F0E2FB0020CA49487082
:1059B000087004EB0411D54A881803F0D8FB0020C6
:1059C00003F046FC0B2C6CD2DFE804F006162636FA
:1059D00037475758595A5B0003F0A8FD002003F0E1
:1059E000C2FD0121880701F03FFD03F047FDC849D2
:1059F000088803F02DFC58E003F07CFD022003F042
:105A0000B2FD0121880701F02FFD03F037FDC049E9
:105A1000488803F01DFC48E003F06CFD022003F011
:105A2000A2FD0121880701F01FFD03F027FDB84901
:105A3000888803F00DFC38E000BF03F077FD0020FC
:105A400003F091FD0121880701F00EFD03F016FD22
:105A5000AF49888803F0FCFB27E003F04BFD0220F0
:105A600003F081FD0121880701F0FEFC03F006FD33
:105A70004FF4B47003F0ECFB17E000BF00BF00BFB1
:105A800000BF03F037FD022003F06DFD0121880700
:105A900001F0EAFC03F0F2FC9D49888803F0D8FB92
:105AA00003E0002003F0D4FB00BF00BFA0E1012011
:105AB000FAF718FC28B10120914908700A21FAF779
:105AC0000EFC8F480078012817D100208C490870FF
:105AD0004FF0010A09F1010000F0FF09092099FBCC
