:020000040800F2
:100000003007002045010008F902000849050008F2
:100010004D050008510500085505000800000000C6
:10002000000000000000000000000000590500086A
:100030005B050008000000005D0500085F05000882
:100040005F0100085F0100085F0100085F01000810
:100050005F0100085F010008E905000809060008C3
:10006000290600086D0600085F0100085F0100080E
:100070005F0100085F0100085F0100085F010008E0
:100080005F0100085F0100085F0100085F010008D0
:100090005F0100085F0100085F010008E705000834
:1000A0005F0100085F0100085F0100085F010008B0
:1000B0005F010008610500085F0100085F0100089A
:1000C0005F0100085F0100085F0100085F01000890
:1000D0005F010008FB0200085F0100085F010008E3
:1000E0005F0100085F0100085F0100085F01000870
:1000F0005F0100085F0100085F0100085F01000860
:100100005F0100085F0100085F0100085F0100084F
:100110005F0100085F0100085F0100085F0100083F
:100120005F0100085F0100085F0100085F0100082F
:10013000DFF80CD009F0A6FC004800478901000850
:10014000300700200648804706480047FEE7FEE7E4
:10015000FEE7FEE7FEE7FEE7FEE7FEE7FEE7FEE777
:10016000878000083101000870B504460D46E1B2F1
:10017000234807F039FA00BF8021214807F0A2FA8E
:100180000028F9D0204670BD02201E49087036E0D4
:100190001C4800780A282CD2DFE800F02B2805083C
:1001A0000D121A1D202302F013FA27E008F060FC5C
:1001B00002F00CFE22E008F05BFC02F0B2FE1DE053
:1001C00008F056FC00201049087002F0AEFE15E061
:1001D00003F0B4FC12E004F052FE0FE004F056FF0E
:1001E0000CE008F045FC05F062FC07E004F0ABFF12
:1001F00004E008F03DFC04F0B4FF00BF00BFC7E717
:1002000000380140030000200200002010B505F076
:10021000CFFE4FF4803005F0EBFE05F028FF0128FB
:1002200020D1002005F069FF002005F078FF4FF491
:10023000806005F06BFF4FF4E0114FF4803005F063
:100240003FFF012005F048FF00BF392005F0F3FE15
:100250000028FAD0022005F042FF00BF05F048FF59
:100260000828FBD110BD00E0401E0028FCD17047DB
:10027000014601EBC1024FF0E0235A6100229A616E
:1002800001221A6100BF4FF0E022106900F0010264
:100290001AB100F48032002AF5D000224FF0E0239A
:1002A0001A619A617047014642F228324A434FF080
:1002B000E0235A6100229A6101221A6100BF4FF0C7
:1002C000E022106900F001021AB100F48032002A25
:1002D000F5D000224FF0E0231A619A617047054A79
:1002E0001154704701460348405C08B9012070472B
:1002F0000020FCE719000020704710B540F225519E
:10030000E64807F0F5F9002873D02021E34807F00C
:10031000E6F9E34890F84800002846D1E148007E1D
:1003200000280FD10621DF4880F83910DB4807F09C
:100330005FF9C4B2AA2C10D1DA48407E18B100216E
:10034000D84841768FE0D748417E407E401CC2B2FB
:10035000D44842761B30445485E0BB2C13D1D1489D
:10036000417E407E401CC2B2CE4842761B3044548F
:100370000120CC4908760846417E817600214176ED
:1003800080F839106FE0C748407E1E2803DB00214B
:10039000C448417667E0C348417E407E401CC2B2FB
:1003A000C04842761B3044545DE0BD4890F8480098
:1003B000012858D1BB48007E002854D10621B948F5
:1003C00080F83910B54807F013F9C4B2B548407E3B
:1003D00080B9112C03D00021B248417643E0B148E6
:1003E000417E407E401CC2B2AE4842761B3044542F
:1003F00039E04CE0AB48407E01280FD1082C03D0F7
:100400000021A84841762EE0A648417E407E401C4F
:10041000C2B2A44842761B30445424E0A148407E36
:100420001E2803DB00219F4841761CE09D48417E49
:10043000407E401CC2B29B4842761B3044541B385D
:10044000407E02280FDD9748417E407FC01C8142DC
:1004500009D10120934908760846417E8176002122
:10046000417680F839109048007E00285DD1062141
:100470008C4880F83910894807F0BAF8C4B2FF2CCC
:1004800010D18948407E18B10021874841764CE060
:100490008548417E407E401CC2B2834842761B3074
:1004A000445442E0EE2C11D17F48407E012803D015
:1004B00000217D48417638E07B48417E407E401CEB
:1004C000C2B2794842761B3044542EE0DD2C1BD159
:1004D0007548407E042803D000217348417624E00B
:1004E0007148417E407E401CC2B26F4842761B304C
:1004F000445401206C4908760846417E81760021EB
:10050000417680F8391010E06748407E1E2803DBF2
:1005100000216548417608E06348417E407E401CEA
:10052000C2B2614842761B3044544FF458715B4864
:1005300007F0DEF838B10821584807F0D0F85748DE
:1005400007F056F8C4B210BD00BFFEE700BFFEE7DB
:1005500000BFFEE700BFFEE7704770477047704777
:1005600010B50121514806F0FFFE08F054F950483B
:10057000007806281DD14F480078401C4D4908706E
:100580000846007809281ADD0020087001204A4931
:1005900008704A480089401C48490881484800685A
:1005A000401C4749086047480068401C45490860AE
:1005B00005E04048007810B100203E490870002452
:1005C00009E04148005D20B13F48005D401E3E49C2
:1005D0000855601CC4B2022CF3DB3C48007808B913
:1005E00008F0C3FC10BD704710B50121384805F074
:1005F00024FC28B92A48408A10B1052035490870E2
:10060000012005F09EFF10BD10B50120FFF74BFE45
:1006100002212F4805F011FC10B908202D4908705F
:10062000022005F08EFF10BD10B50520FFF73BFE40
:100630000421274805F001FCA0B91D4800780328D3
:1006400007D01B480078072803D0194800780828ED
:1006500006D105201649087000201F49087001E0E6
:1006600013480078042005F06CFF10BD10B5012080
:10067000FFF719FE0821164805F0DFFB50B90C48BA
:100680000078062803D107200949087002E00320FA
:1006900007490870082005F054FF10BD00380140DC
:1006A000F00000207C020020F00200200004004046
:1006B000030000203C00002001000020D4000020A6
:1006C000A4000020100000201900002000000020DD
:1006D00000140140040000202F00002010B500206D
:1006E000FE490870487008F042F9FD484088E8B1BA
:1006F000012804D002287DD003286ED13AE0F948C1
:1007000008F0C8F90620F549087001204870F6A0E5
:1007100008F0D3F90E20F149087001204870F3A0C9
:1007200008F0CBF9F42008F065F9A2E0F048007871
:10073000012803D1EF4808F0ADF903E0ED48C01DF2
:1007400008F0A8F90620E549087001204870E4483F
:10075000808818B1E4A008F0B0F902E0E6A008F043
:10076000ACF90E20DD49087001204870E3A008F0C4
:10077000A4F97EE0E2480078B0B9DA4808F08AF9D6
:100780000620D649087001204870D7A008F095F9D6
:100790000E20D249087001204870D4A008F08DF9CD
:1007A000F42008F027F924E0D1480078012803D18B
:1007B000D04808F06FF903E0CE48C01D08F06AF990
:1007C0000620C649087001204870C548808828B1B5
:1007D000C5A008F072F904E00CE049E0C6A008F0FA
:1007E0006CF90E20BD49087001204870C3A008F0C4
:1007F00064F93EE0C248007818BBBD480078012883
:1008000003D1BC4808F046F903E0BA48C01D08F01F
:1008100041F90620B149087001204870B04880882D
:1008200018B1B1A008F049F902E0B3A008F045F909
:100830000E20AA49087001204870B0A008F03DF9C8
:1008400015E0A84808F026F90620A4490870012000
:100850004870A5A008F031F90E20A04908700120C9
:100860004870A2A008F029F9F42008F0C3F800E0CD
:1008700000BF00BF072099490870002048709BA066
:1008800008F01BF9964909783131C8B208F0F4F83C
:100890000F209249087000204870732008F0F2F889
:1008A00004208E4908700120487096A008F005F9D0
:1008B00010BD8B484A2102E000220270401C0A1E33
:1008C000A1F1010399B2F7D18F4B1A707047002044
:1008D00010E0834A921C02EB40010A888B4B33F8EC
:1008E00020309A4204DD894A02EB800252880A8055
:1008F000421CD0B20D28ECDB7047F0B504461D4613
:10090000052A00DD052202B90122042900DD0421A7
:10091000914200DD1146002004E020267C4F3E5429
:10092000461CF0B20828F8D3104611E00A2694FBC2
:10093000F6F706FB17463036F7B2461EDFF8D0C191
:100940000CF806700A2694FBF6F6B4B2461EF0B216
:100950000028EBDC81B11346084605E05E1E6C4FB3
:10096000BE5DFE545E1EF3B2061EA0F10107F8B292
:10097000F4D12E26664FFE54A5B900200EE0644E39
:10098000365C302E07D1624F461CBE5D2E2E02D043
:1009900020263E5400E004E0461CF0B2561E86427B
:1009A000EDDC00BF09B1561CF2B2104604E000268F
:1009B000574F3E54461CF0B20828F8D3F0BD10B58E
:1009C000474890F8480018B9524808F063F807E023
:1009D000434890F84800012802D14F4808F05AF8DF
:1009E00010BD10B53E4890F8480020B94948153070
:1009F00008F050F808E03A4890F84800012803D180
:100A00004548153008F046F810BD10B543A008F071
:100A100041F810BD10B5002030490870487007F04B
:100A2000A6FFFFF7CCFF00202C490870012048707A
:100A300007F09DFFFFF7D5FF10BD10B52C490978D1
:100A4000C1EBC101384A881808F037F810BD10B55D
:100A500023484088032802DD0020214948800020E7
:100A60001E490870487007F082FF1D49498801EB54
:100A700041012E4A02EB410008F01FF807201749F8
:100A800008700020487016490978481C01231A464E
:100A90000021FFF732FF15A008F00FF81C4807F0FF
:100AA000F9FF0F484088012803DD21A007F0F2FF7D
:100AB00002E020A007F0EEFF0A200849087008486D
:100AC0004088032803D006484088012837D10449CC
:100AD000488B0023042201212EE00000AE000020FC
:100AE000F000002043A00008444300004D00000037
:100AF0000400002051A00008414300006D410000A7
:100B00002F0000206B56000002000020F4A6000811
:100B1000B0000020B2A700089DA700085365702010
:100B200032372032303230005EA70008C5A00008FE
:100B30005F00000020000000FFF7DFFE06E0F9493B
:100B4000C889002304220121FFF7D7FEF64807F0E9
:100B5000B4FFF6A007F09EFF0020F54908700120C1
:100B60004870F048808840B9EE48C088B0F5167FDC
:100B700003DD4FF41671EB48C180EA484088032832
:100B800003D0E848408801280AD1E649888A002332
:100B900003220221FFF7B1FE0121E248818006E035
:100BA000E049C888002303220221FFF7A6FEDE48A1
:100BB00007F083FFAFF2B40007F06CFF1421DD48AB
:100BC00008F001FCDB48D84909680160DAA108F0A7
:100BD00005FCD448808840B9D2484088032804D016
:100BE000AFF2EC0007F056FF03E0AFF2041007F09D
:100BF00051FFCC484088032803D0CA4840880128C8
:100C00001CD10A20CA490870C649C88A0023042298
:100C10001946FFF772FEC44807F04FFFAFF23410D9
:100C200007F038FFF42007F0E5FEBF49C14808F09F
:100C3000D5FBC2A1BF4808F0D1FB18E00920BC4990
:100C40000870B8490889002304220221FFF755FEE5
:100C5000B54807F032FFAFF25C1007F01BFFB24956
:100C6000B44808F0BBFBB7A1B24808F0B7FB10BD11
:100C700070B50546B448047804F03F0475B1012D01
:100C800009D0022D04D0032D09D144F0C00409E09D
:100C900044F0800406E044F0400403E002E044F045
:100CA000C00400BF00BFA84804700020A749086026
:100CB000A5480078C0430006A349097840EA01200E
:100CC000A34908600120A349C1F890016420FFF7FF
:100CD000EAFA70BD70B50446002095490870487066
:100CE000254604EBD5714910A4EB4101C1EBC101CC
:100CF00001EB4101984A881807F0DFFE00208C497B
:100D0000087001204870954807F0D7FE70BDF8B50F
:100D100004460127864800788DF800008448407812
:100D20008DF80100206808F065FBC6B2701CC6B2E1
:100D3000082E00DD082652E067B19DF800007C49CE
:100D400008709DF801004870A288216806FB021017
:100D500007F0B3FE0A2007F04CFD0546E12D15D043
:100D600009DCA5F16100082837D2DFE800F00E2089
:100D70001136362E3331A5F1E20007282DD2DFE8F7
:100D800000F017082C2C252A280000BF6120F8BD90
:100D900000BF0127A0886189884203DDA088401E2A
:100DA000A08003E06089A08008F030F916E000BF61
:100DB0000127A088401CA080A0882189884203DDEB
:100DC0002089A08008F022F908E000BF6620DEE755
:100DD00000BF00BF00BF6720D9E700BF00BFABE77F
:100DE00010B50446002052490870487004EB840195
:100DF00001EBC4015A4A881807F05FFE00204C49F5
:100E0000087001204870574807F057FE10BD10B514
:100E100004460A2094FBF0F100FB1140C4B234B147
:100E2000012C11D0022C19D0032C31D123E03E48E3
:100E300007F043FE202007F01FFE562007F01CFE9F
:100E4000202007F019FE24E0374807F036FE202066
:100E500007F012FE732007F00FFE1AE0324807F089
:100E60002CFE202007F008FE4D2007F005FEF420A0
:100E700007F002FE0DE02C4807F01FFE202007F0CF
:100E8000FBFD4D2007F0F8FDF42007F0F5FD00E034
:100E900000BF00BF10BD10B50446002024490870F3
:100EA00048700E2C13D2DFE804F007131FA5A6A785
:100EB000A8A9AAABF0F1F2F32BA007F0FEFD0020E9
:100EC0001B490870012048702CA007F0F6FDFFE0D8
:100ED0002EA007F0F2FD002015490870012048708F
:100EE0002E4807F0EAFDF3E00E484088C8B101281B
:100EF00004D0022858D0032879D154E0A11E284AF2
:100F000002EB011007F0D9FD00200949087001200B
:100F10004870611E01EB0111204A881807F0CDFDD1
:100F200066E03FE0F0000020B00000207300000009
:100F3000AE000020FE0100206B563B004DA6B83BE2
:100F4000000000006D413B00A10000209081224282
:100F5000101401400080224212A5000866A5000876
:100F6000E4A50008CFA500084D656D6F72793D209E
:100F700020202020202020200000000052616E67E9
:100F8000653A312D392020202020200054657374CB
:100F900020203D202020202020202000DDA000084F
:100FA0005FA0000800BF00BF0020FB490870487028
:100FB000A11EFA4A02EB011007F07FFD0020F6495E
:100FC000087001204870F648808840B9A11E01EBE6
:100FD0000111F44A881807F070FD07E007E0A11E30
:100FE00001EB0111F04A881807F067FD00E000BF2F
:100FF00000BF6DE000BF00BF00BF00BF00BF00BF6B
:10100000E7484088C8B1012804D0022817D0032837
:1010100034D113E0A11EE54A02EB011007F04DFDAB
:101020000020DD49087001204870611E01EB0111AC
:10103000DF4A881807F041FD21E000BF00BFA11E74
:1010400001EB0111DB4A881807F037FD0020D24977
:10105000087001204870D248808838B9611E01EBC1
:101060000111D04A881807F028FD06E0611E01EB47
:101070000111CD4A881807F020FD00E000BF00BF35
:1010800026E005E003E001E0FFE700BF00BF00BF8E
:10109000A11E01EB0111C74A881807F00EFD0C2CA8
:1010A00001D00B2C07D10E20BB49087000204870DE
:1010B000F42007F0E7FC0020B749087001204870D1
:1010C000611E01EB0111BC4A881807F0F6FC00BF55
:1010D00000BF10BD2DE9F84304464FF00109AE48AA
:1010E00000788DF80000AC4840788DF801000027AA
:1010F000A07908B9032600E004268AE1B9F1000FBF
:1011000010D09DF80000A44908709DF801004870B7
:10111000A389DAB2A179A0880023FFF7EEFBA748E4
:1011200007F0CBFC0A2007F064FB8046B8F1E10F22
:1011300015D009DCA8F16100082872D2DFE800F0C0
:101140000E9C127171FAF9F8A8F1E2000728F4D2A6
:10115000DFE800F0D13F6767F3F2F10000BF6120E4
:10116000BDE8F8834FF00109002795488079C0F168
:101170000300B04202DA701EC5B200E03546914865
:1011800030F8150061890844A188884206DCA088EF
:101190008C4931F81510401AA08019E060890528A3
:1011A00002D06089062813D16089062806D1A0885C
:1011B00010B10020A08001E007F028FF6089052819
:1011C00006D1A08810B10020A08001E007F01EFF2A
:1011D0001EE14FF00109781CC7B279488079C0F14F
:1011E0000300B04202DA701EC5B200E035461C2F83
:1011F0000CDD002D01DD681EC5B2002D01DD681E6D
:10120000C5B2002D14DD681EC5B211E0132F09DD33
:10121000002D01DD681EC5B2002D09DD681EC5B2B6
:1012200006E0EFE00A2F03DD002D01DD681EC5B2E8
:10123000644830F8150061890844A188884206DCBA
:10124000A088604931F81510401AA08013E0608929
:10125000062806D1A08810B10020A08001E007F088
:10126000D5FE6089052806D1A08810B10020A08095
:1012700001E007F0CBFECBE04FF00109002750481A
:101280008079C0F10300B04202DA701EC5B200E0FE
:1012900035466089062802D0608905281CD16089FE
:1012A00006280AD1A08810B90620A08005E0A088F1
:1012B000444931F815100844A0806089052819D1E7
:1012C000A08810B90520A08014E0A0883D4931F81D
:1012D00015100844A0800DE0A0883A4931F8151097
:1012E0000844A080A0882189884203DD2089A0804D
:1012F00007F08CFE8CE04FF00109781CC7B2304833
:101300008079C0F10300B04202DA701EC5B200E07D
:1013100035461C2F12DD002D01DD681EC5B2002DE3
:1013200001DD681EC5B2002D19DD681EC5B216E0CC
:1013300063E064E05EE061E062E05CE0132F08DD02
:10134000002D01DD681EC5B2002D08DD681EC5B286
:1013500005E00A2F03DD002D01DD681EC5B260899E
:10136000062802D06089052835D1608906280AD16F
:10137000A08810B90620A08005E0A088114931F8A6
:1013800015100844A0806089052832D1A088D8B9FA
:101390000520A0802DE00000AE00002032A1000852
:1013A000F0000020B2A10008F4A300085FA000082C
:1013B000DDA000084BA2000817A30008B000002021
:1013C000C400002020A00008A088FD4931F81510B5
:1013D0000844A0800DE0A088F94931F815100844B0
:1013E000A080A0882189884203DD2089A08007F0A1
:1013F0000DFE0DE000BF6620B2E600BF08E000BFB2
:101400006720ADE6EF488078012800D0002700BFB4
:1014100000BF73E62DE9F041002500260027EA48C9
:10142000C08940F6D861884211DD012500BF002443
:1014300005E00020E54941F82400601CC4B20C2CF2
:10144000F7DB0020E2490870E249088009E0DE4845
:10145000C089B0F5B47F02DA0126002501E000253D
:1014600000260027DC480078002816DD012D14D165
:10147000D9480078401ED84908700127002405E0AB
:101480000020D24941F82400601CC4B20C2CF7DBC8
:101490000020CF490870CF490880CF480078042841
:1014A00016DA012E14D1CC480078401CCA490870C5
:1014B0000127002405E00020C44941F82400601CF5
:1014C000C4B20C2CF7DB0020C1490870C149088068
:1014D000012F06D1C0480078FFF7CAFB3220FEF783
:1014E000E2FEBDE8F08101B590B00021109808F04F
:1014F000C3F910D2109808F05FF90022B74BCDE97C
:10150000060108F046F8CDE9080108F099F91090B5
:101510000120B3490870109808F04EF9B14AB24B57
:10152000CDE9080108F05CF901D211B000BD1098B6
:1015300008F042F9AD4AAE4BCDE9080108F068F970
:1015400058D2109808F038F9A84AA94BCDE90601FD
:1015500008F091F8CDE9080108F072F90E90A5485D
:101560000D9000200B9026200A903FE0DDE90D1041
:1015700007F0D1FF4FF07E51099008F07DF90ED2AF
:101580000D9808F019F900229B4BCDE9060108F0EF
:1015900072F8CDE9080108F053F90D9000E028E059
:1015A0000D9808F009F9954A954BCDE9020107F02D
:1015B000F0FFCDE90601109808F0FEF8CDE904012E
:1015C000DDE9062308F057F8CDE9080108F0DBF85B
:1015D0000C9083490C9848600A9808720B98401C3C
:1015E00040B20B900A98401E40B20A900B98042813
:1015F000BCDB19E2109808F0DFF8824A824BCDE993
:10160000080108F005F958D2109808F0D5F87D4A7D
:101610007D4BCDE9060108F02EF8CDE9080108F070
:101620000FF90E9079480D9000200B9023200A901E
:101630003FE0DDE90D1007F06EFF4FF07E5109909D
:1016400008F01AF90ED20D9808F0B6F800226A4B8D
:10165000CDE9060108F00FF8CDE9080108F0F0F82F
:101660000D9000E028E00D9808F0A6F8684A694B54
:10167000CDE9020107F08DFFCDE90601109808F0D1
:101680009BF8CDE90401DDE9062307F0F4FFCDE97D
:10169000080108F078F80C9051490C9848600A98B5
:1016A00008720B98401C40B20B900A98401E40B242
:1016B0000A900B980828BCDB9BE7109808F07CF890
:1016C000554A564BCDE9080108F0A2F858D21098B7
:1016D00008F072F8504A514BCDE9060107F0CBFFF4
:1016E000CDE9080108F0ACF80E9048480D900020B4
:1016F0000B901C200A903FE0DDE90D1007F00BFF76
:101700004FF07E51099008F0B7F80ED20D9808F00E
:1017100053F80022384BCDE9060107F0ACFFCDE9C4
:10172000080108F08DF80D9000E028E00D9808F011
:1017300043F83B4A3B4BCDE9020107F02AFFCDE9D4
:101740000601109808F038F8CDE90401DDE9062318
:1017500007F091FFCDE9080108F015F80C90204939
:101760000C9848600A9808720B98401C40B20B9085
:101770000A98401E40B20A900B980828BCDBE4E3AC
:10178000109808F019F8284A284BCDE9080108F00C
:101790003FF87CD2109808F00FF8234A234BCDE98C
:1017A000060107F068FFCDE9080108F049F80E903E
:1017B00016480D9000200B9015200A907AE000004A
:1017C00020A00008A8000020D400002078010020FC
:1017D0000700002008000020060000200000F0BFE5
:1017E000E4000020ECCFC55FFFFF0F38824DC772C9
:1017F0006142334700007A440000244021D7E6FAD2
:10180000E031F44581121F2FE727C0458096184B21
:1018100092D54D06CFF0804450EFE2D6E41A4B4407
:1018200000003426F56B0C430000901EC4BCD64269
:10183000DDE90D1007F06FFE4FF07E51099008F0C2
:101840001BF80ED20D9807F0B7FF0022F84BCDE938
:10185000060107F010FFCDE9080107F0F1FF0D9038
:1018600000E02AE00D9807F0A7FF0022F14BCDE938
:10187000020107F08EFECDE90601109807F09CFFEB
:10188000CDE90401DDE9062307F0F5FE00E015E0EF
:10189000CDE9080107F077FF0C90E7490C98486004
:1018A0000A9808720B98401C40B20B900A98401E90
:1018B00040B20A900B980828BADB46E3109807F06C
:1018C0007BFF0022DD4BCDE9080107F0A1FF58D2D4
:1018D000109807F071FF0022D84BCDE9060107F000
:1018E000CAFECDE9080107F0ABFF0E90D4480D9079
:1018F00000200B900D200A903FE0DDE90D1007F06D
:101900000AFE4FF07E51099007F0B6FF0ED20D98F7
:1019100007F052FF0022C64BCDE9060107F0ABFEEF
:10192000CDE9080107F08CFF0D9000E028E00D984C
:1019300007F042FF0022BE4BCDE9020107F029FE6D
:10194000CDE90601109807F037FFCDE90401DDE984
:10195000062307F090FECDE9080107F014FF0C9074
:10196000B5490C9848600A9808720B98401C40B220
:101970000B900A98401E40B20A900B980828BCDBD6
:10198000E3E24FF07E51109807F080FF4DD210989F
:101990000E90AB480D9000200B9007200A9021E09C
:1019A000DDE90D1007F0B7FD4FF07E51099007F00B
:1019B00063FF0ED20D9807F0FFFE00229C4BCDE98D
:1019C000060107F058FECDE9080107F039FF0D9038
:1019D00000E00AE00B98401C40B20B900A98401EB1
:1019E00040B20A900B980828DADB00BF0D9807F088
:1019F000E3FE944A944BCDE9020107F0CAFDCDE91C
:101A00000601109807F0D8FECDE90401DDE90623B0
:101A100007F031FECDE9080107F0B5FE0C908649CC
:101A20000C9848600A9808728FE2109807F0C4FE7C
:101A3000864A874BCDE9080107F0EAFE59D2109893
:101A400007F0BAFE00227D4BCDE9060107F0A1FDAB
:101A5000CDE9080107F0F4FE0E9079480D900020C2
:101A60000B900A9041E0DDE90D1007F054FD4FF0B6
:101A70007E51099007F000FF0ED20D9807F09CFEF2
:101A800000226B4BCDE9060107F0F5FDCDE9080119
:101A900007F0D6FE0D9000E02AE00D9807F08CFECE
:101AA00002460B46CDE902016A486B4907F0E3FDA7
:101AB000CDE90601109807F07FFECDE90401DDE9CC
:101AC000062307F066FDCDE9080107F05CFE0C90E7
:101AD00059490C9848600A9808720B98401C40B20B
:101AE0000B900A98401E40B20A900B980828BADB67
:101AF0002BE2109807F060FE584A594BCDE90801D7
:101B000007F086FE5AD2109807F056FE554A564BFB
:101B1000CDE9060107F03DFDCDE9080107F090FE93
:101B20000E9047480D9000200B90C01F0A9041E096
:101B3000DDE90D1007F0EFFC4FF07E51099007F042
:101B40009BFE0ED20D9807F037FE0022384BCDE9F0
:101B5000060107F090FDCDE9080107F071FE0D9038
:101B600000E02AE00D9807F027FE02460B46CDE97B
:101B700002013E483E4907F07EFDCDE9060110987E
:101B800007F01AFECDE90401DDE9062307F001FDA7
:101B9000CDE9080107F0F7FD0C9027490C98486043
:101BA0000A9808720B98401C40B20B900A98401E8D
:101BB00040B20A900B980828BADBC6E1109807F0EB
:101BC000FBFD2C4A2C4BCDE9080107F021FE7DD20C
:101BD000109807F0F1FD294A294BCDE9060107F0DD
:101BE000D8FCCDE9080107F02BFE0E9014480D90AB
:101BF00000200B906FF00D000A906EE0DDE90D10F3
:101C000007F089FC4FF07E51099007F035FE39D27C
:101C10000D9807F0D1FD0022054BCDE9060107F034
:101C20002AFDCDE9080107F00BFE0D902BE0000026
:101C30000000244084D79741E4000020D012634183
:101C40008096184B8DEDB5A0F7C6B03E48AFBC9A54
:101C5000F2D77A3E000040E59C30A2429B2BA18641
:101C60009B84063D0000901EC4BCD642408CB578D3
:101C70001DAF15444F9B0E0AB4E3923B50EFE2D6E2
:101C8000E41A4B442CE00D9807F096FD02460B46F3
:101C9000CDE90201FD48FE4907F0EDFCCDE9060162
:101CA000109807F089FDCDE90401DDE9062307F06E
:101CB00070FCCDE9080107F066FD0C90F5490C9821
:101CC00048600A9808720B98401C00E009E040B296
:101CD0000B900A98401E40B20A900B9808288DDBA2
:101CE00033E1109807F068FDEB4AEC4BCDE90801B1
:101CF00007F08EFD5BD2109807F05EFDE84AE94BD5
:101D0000CDE9060107F045FCCDE9080107F098FD93
:101D10000E90E5480D9000200B906FF014000A9093
:101D200041E0DDE90D1007F0F6FB4FF07E51099020
:101D300007F0A2FD0ED20D9807F03EFD0022DB4B0E
:101D4000CDE9060107F097FCCDE9080107F078FD21
:101D50000D9000E02AE00D9807F02EFD02460B469C
:101D6000CDE90201D248D34907F085FCCDE906014F
:101D7000109807F021FDCDE90401DDE9062307F005
:101D800008FCCDE9080107F0FEFC0C90C1490C9855
:101D900048600A9808720B98401C40B20B900A9851
:101DA000401E40B20A900B980828BADBCDE010988C
:101DB00007F002FDC04AC14BCDE9080107F028FD3C
:101DC00061D2109807F0F8FCBD4ABE4BCDE9060180
:101DD00007F0DFFBCDE9080107F032FD0E90B248B5
:101DE0000D9000200B906FF01B000A9047E0DDE99A
:101DF0000D1007F090FB4FF07E51099007F03CFD6D
:101E00000ED20D9807F0D8FC0022A84BCDE90601B0
:101E100007F031FCCDE9080107F012FD0D9000E05C
:101E200030E00D9807F0C8FC02460B46CDE90001F2
:101E3000A348A44907F01FFCCDE90401109807F05E
:101E4000BBFCCDE90201DDE9042307F0A2FB00227F
:101E50009D4BCDE9060107F09CFBCDE9080107F099
:101E600092FC0C908B490C9848600A9808720B9869
:101E7000401C40B20B900A98401E40B20A900B984A
:101E80000828B4DB61E0109807F096FC8F4A904B6D
:101E9000CDE9060107F07DFBCDE9080107F0D0FC94
:101EA0000E908C480D9000200B906FF022000A904D
:101EB00047E0DDE90D1007F02EFB4FF07E51099051
:101EC00007F0DAFC0ED20D9807F076FC0022774B73
:101ED000CDE9060107F0CFFBCDE9080107F0B0FC22
:101EE0000D9000E030E00D9807F066FC02460B46CE
:101EF000CDE900017548764907F0BDFBCDE9040145
:101F0000109807F059FCCDE90201DDE9042307F040
:101F100040FB00226C4BCDE9060107F03AFBCDE90E
:101F2000080107F030FC0C905A490C9848600A9858
:101F300008720B98401C40B20B900A98401E40B2A9
:101F40000A900B980428B4DB00BF00BFFFF7EDBA7E
:101F500070B5002560480078401C5F4908705F48F4
:101F6000C08949F64041884204DC5C48C089B0F52C
:101F7000FA6F06DA5A480078042802D00020564941
:101F8000087058498A6858490888411C564B19807E
:101F9000564941F82020184600880C2802DB002012
:101FA00019460880002408E0504850F824102846BC
:101FB00007F027FA0546601CC4B20C2CF4DB464837
:101FC00000780C2808DB4A49284607F0A4FA45495E
:101FD00088600C204049087042498868FFF783FAFE
:101FE0002C4840684FF47A71B0FBF1F02949486001
:101FF00070BD70B53B49C86807F0ACFB0546394871
:102000000168284607F055FA0446364841682046DC
:1020100007F081FA3349886070BD10B52F48C08938
:102020000A2802DA0A202D49C8812C49C88907F0FC
:1020300091FB2C4948602F482949097850F8210024
:102040002849C860FFF7D5FF10BD2DE9F0410024F5
:10205000012736E2012FFCD100270E2C15D2DFE834
:1020600004F0074F5D8586878889DD8AFEFDFCFBCD
:10207000214D2888401C21498880092008810120A1
:102080004881002088710120888113E10284FEE4E8
:1020900071D98945E4000020196050BEF6B01F3A9E
:1020A00081121F2FE727C0458096184B000024405F
:1020B000037CD8EA9BD0FE460F7AF8B7A595AA38DC
:1020C000824DC7726142334780842E41B1A1162AE6
:1020D000D3CED24700007A4407000020D40000206D
:1020E0000600002068010020080000207801002080
:1020F0000000404128A00008F0000020C40000209B
:10210000F64DF748F7490860288888800320088141
:1021100000204881887101208881CBE0EF48801E33
:10212000408838B1012804D0022805D003281BD1EB
:1021300001E019E000BF00BFE848801E8088012848
:1021400003DD0021E548801E8180E44DAD1CE6489A
:10215000E44908602888888001200881002048819F
:1021600088710120888100BF00BFA3E000BF00BFCD
:1021700000BF00BF00BFD948801E408838B1012889
:1021800004D0022805D0032846D101E044E000BF76
:1021900000BFD248001D00EB4400851FCF48801EC1
:1021A0008088E0B9D148CF49086028888880601EBF
:1021B000CF4931F82000CB490881601ECC4901EBA2
:1021C00080004088C7494881E01ECA4911F81000C4
:1021D000C4498871C84830F8140088811BE0C3489E
:1021E000C049086028888880601EC44931F82000F2
:1021F000BC490881601EC14901EB80004088B94993
:102200004881E01EBB4911F81000B6498871BA48F0
:1022100030F81400888100BF00BF4BE0AF48801E3B
:10222000008A012803DD0021AC48801E0182AB4DED
:102230000E35B348AB49086028888880601EAC49D9
:1022400031F82000A7490881601EA94901EB8000F0
:102250004088A449488103E00AE008E006E004E081
:10226000002088710120888124E000BF00BF00BFEA
:102270009A48001D00EB4400851FA2489949086058
:1022800028888880601E9A4931F820009549088185
:10229000601E974901EB8000408892494881E01E0A
:1022A000944911F810008F498871934830F8140050
:1022B000888100BF00BF2046FEF7EDFD0E2C76D2D0
:1022C000DFE804F007111B252F39434D57616B766A
:1022D00077780A208C490870002048708148FEF702
:1022E000F9FE804671E00820874908700020487098
:1022F0007C48FEF70CFD804667E00A2082490870A2
:10230000002048707748FEF702FD80465DE00A2015
:102310007D490870002048707248FEF7DBFE804659
:1023200053E0072078490870002048706D48FEF798
:10233000D1FE804649E007207349087000204870AC
:102340006848FEF7C7FE80463FE007206E490870E8
:10235000002048706348FEF7BDFE804635E0082047
:1023600069490870002048705E48FEF7B3FE804659
:102370002BE0072064490870002048705948FEF798
:10238000C6FC804621E007205F49087000204870A5
:102390005448FEF79FFE804617E00A205A4908700D
:1023A000002048704F48FEF795FE80460DE00BE098
:1023B00000BF00BF082054490870002048704948F9
:1023C000FEF788FE804600E000BF00BF44B94548E4
:1023D0008088401E288006F0BCFBFEF778FA02E0F9
:1023E000404880882880B8F1680F61D009DCA8F1E6
:1023F0006100072863D2DFE800F00E464862624AB7
:102400005D00A8F1E100082859D2DFE800F0053DA1
:102410003F585858545200BF3048801E4088012809
:1024200002D1012C00D109242C48801E808801286B
:1024300006D1072C04D1601CC4B2601CC4B201E0F8
:10244000601CC4B2012C1CDD2448801E408840B1B1
:10245000012804D0022807D0032807D103E00E2664
:1024600006E00A2604E000BF0E2601E00E2600BFAB
:1024700000BFB44205DB002403202449087006F0A5
:1024800057FB01271CE000BF1AE000BF18E013480B
:10249000801EC088012803D102211048801EC180FF
:1024A00003201A49087006F043FB06F00FFB07E013
:1024B00000BF05E000BF03201449087000E000BF22
:1024C00000BF1248007804283FF4C4ADBDE8F08195
:1024D000704702460B4688B270470000F2000020A9
:1024E000ADA00008C40000209FA0000832A1000891
:1024F000C0A6000828A700083EA700088CA6000870
:10250000A7A000084BA20008AE0000200300002096
:1025100010B54FF480732B4A2B492C4802F04EFE25
:102520002A4802F075FE10BDF0B50446059D274609
:102530000E4602B9012207FB06FCBCFBF5FC0CFBB6
:1025400003FCBCFBF2F0F0BD30B50246002006E013
:10255000145C0A2594FBF5F4E3B2441CE0B2884213
:10256000F6DB30BD70B502460C46002012E0135C6D
:10257000DD1703EB15752911135CDD1703EB1575DA
:102580002D11A3EB051501EB810605EB460515544E
:10259000431CD8B2A042EADB70BD30B50B46014601
:1025A000C41700EB1474C4F30712C41700EB1474BF
:1025B0002411A0EB041402EB820504EB4504E0B205
:1025C00030BD0000209F00080C1001401C0002409C
:1025D00070B506F087FC06F01AFC00214FF0804031
:1025E00004F0E8FBFEF765F906F077FA06F075FAF5
:1025F00006F0AFFA06F081FA06F0BCFAFEF767F9CA
:10260000FE480078082802DD0020FC49087006F02A
:10261000EFFC06F0F7FAFEF7FDF90020F849087024
:10262000002438E0601CC4B2142C02DD0320F549FC
:1026300008700A2006F0DDF80546682D25D009DC73
:10264000A5F16100072824D2DFE800F01517190E64
:102650001B1D2000A5F1E10007281AD2DFE800F0D9
:102660000C0E10051214170000BF0920E549087070
:1026700006F0C5FC0EE000BF0CE000BF0AE000BFA2
:1026800008E000BF06E000BF04E003E000BF142440
:1026900000E000BF00BFDB4800780228C2D006F08F
:1026A0009DFB70BD2DE9F04190B0FF260027D64874
:1026B000007E88B1D448407FD04981F848001E216F
:1026C000D1481B3006F07FFE0020CF49087600215C
:1026D000CD48417606F008FAC84890F8480000282E
:1026E0007ED1CA48007E00287BD01C2101A806F0BC
:1026F0006AFE1C22C5491D3101A806F04BFEC348E5
:10270000067F457F0020C14908760021BF484176F9
:10271000DE2E67D006DCCC2E7ED0CE2E09D0DD2E6C
:102720007BD1C8E0EE2E79D0F22E78D0F32EF7D1FF
:10273000D2E0B7480078092837D2DFE800F0053644
:10274000360C132F1A212800B248B3A10A68026080
:102750000979017130E0AF48B1A10A6802600979D6
:10276000017129E0AB48B0A10A68026009790171E2
:1027700022E0A848AEA10A680260097901711BE055
:10278000A448ADA10A6802600979017114E0A1486A
:10279000ABA10A680260097901710DE09D48AAA108
:1027A0000A6802600979017106E09A48A8A10A68DE
:1027B00002600979017100BF00BF15219348C01C58
:1027C00006F001FEAA209149C8700020087010226E
:1027D000A1498E48001D06F0DDFD8E498B4802E0C0
:1027E00013E211E27AE0C01C06F0F8FD00240EE0CE
:1027F0008648C01C015D994804F0F6FE00BF8021A8
:10280000964804F05FFF0028F9D0601CC4B2152C74
:10281000EEDBBB21914803E046E0F4E17FE05CE0C1
:1028200004F0E2FE00BF80218C4804F04BFF00283A
:10283000F9D08B480088022803D0894800880328F3
:1028400031D11521874806F0BEFDAA208549C91E51
:10285000C87000200870102283498248401C06F08E
:1028600099FD6C497F4806F0B9FD00240DE07D48D4
:10287000015D7A4804F0B8FE00BF8021774804F07B
:1028800021FF0028F9D0601CC4B2152CEFDBBB215E
:10289000724804F0A9FE00BF8021704804F012FFC6
:1028A0000028F9D0B0E1AFE10020704908700520A0
:1028B00054490870A8E153480078062808D103203D
:1028C0005349087007204F49087006F082FA02E069
:1028D00003204C49087097E196E195E135B1012D4F
:1028E00008D0102D0AD0112D10D10BE00020434943
:1028F00048800CE001204149488008E002203F491F
:10290000488004E003203D49488000E000BF00BF4C
:1029100006F0DCF806F00CF9FEF799F874E19DF882
:102920000500401E35490870AC2D04D0AD2D63D094
:10293000DC2D62D1ADE00021304881809DF8070098
:102940000121FFF72AFE80469DF806000121FFF7CE
:1029500024FE00EBC00101EB001008EB80012748CA
:10296000C1809DF809000121FFF717FE80469DF800
:1029700008000121FFF711FE00EBC00101EB001080
:1029800008EB80011D4801819DF80B000121FFF734
:1029900004FE80469DF80A000121FFF7FEFD00EBD2
:1029A000C00101EB001008EB8001144841819DF843
:1029B0000D000121FFF7F1FD80469DF80C0001217B
:1029C000FFF7EBFD00EBC00101EB001008EB80010D
:1029D0000A4881819DF80F000121FFF7DEFD804646
:1029E0009DF80E000121FFF7D8FD00EBC00101EBBF
:1029F000001008EB80013BE0B0E0FCE0F0000020BC
:102A00000500002003000020F00200207C020020CE
:102A100004000020400000204944454C0000000014
:102A200053544F5000000000504153530000000029
:102A300048494748000000004C4F57200000000064
:102A40004F464C200000000041524320000000008F
:102A50005445535400000000FE010020003801409E
:102A6000C8010020B9020020120200202F0000201F
:102A7000FB48C1819DF8101041829DF8110050283B
:102A800003D10021F648018202E00121F4480182CD
:102A9000B1E00121F24881809DF80700FFF77DFD3C
:102AA00080469DF806000121FFF777FD00EBC0018D
:102AB00001EB001008EB8001E948C1809DF8090096
:102AC0000121FFF76AFD80469DF808000121FFF70C
:102AD00064FD00EBC00101EB001008EB8001E04851
:102AE00001819DF80B000121FFF757FD80469DF8FD
:102AF0000A000121FFF751FD00EBC00101EB0010BE
:102B000008EB8001D64841819DF80D000121FFF7B7
:102B100044FD80469DF80C000121FFF73EFD00EBCF
:102B2000C00101EB001008EB8001CD4881819DF8C8
:102B30000F000121FFF731FD80469DF80E000121B5
:102B4000FFF72BFD00EBC00101EB001008EB80014B
:102B5000C348C1819DF8101041824CE09DF80700E8
:102B60000121FFF71AFD80469DF806000121FFF7BD
:102B700014FD00EBC00101EB001008EB8001B84828
:102B800081829DF809000121FFF707FD80469DF82D
:102B900008000121FFF701FD00EBC00101EB00106F
:102BA00008EB8001AE48C1829DF80B000121FFF7C0
:102BB000F4FC80469DF80A000121FFF7EEFC00EBD3
:102BC000C00101EB001008EB8001A54801839DF8CE
:102BD0000D000121FFF7E1FC80469DF80C0001216A
:102BE000FFF7DBFC00EBC00101EB001008EB8001FC
:102BF0009B48418300BF00BF05F068FF05F098FFC8
:102C0000FDF725FF00E000BFDDE0954890F84800A3
:102C10000128F9D19348007E78B11E2291491B31D9
:102C200008A806F0B7FB9DF822709DF823600020ED
:102C30008C49087600218B48417626B1012E44D07C
:102C4000022E41D151E0022F25D19DF824005428B5
:102C500009D10020844908700520844908700120AA
:102C60008349087030E09DF8240052282CD17F4819
:102C7000007806280BD103207E49087007207B4985
:102C8000087006F0A6F80120794908701CE00320BE
:102C90007649087018E0032F16D19DF82400742897
:102CA00012D10020704908709DF825006C49087009
:102CB00005F00CFF03206D49087005F04AFFFDF791
:102CC00006FE0520694908707CE09DF824006449EF
:102CD000087005F0FBFE03206449087005F039FF19
:102CE000FDF7F5FDFDF7B3FE6CE09DF824006249A9
:102CF0000870084600788009594948805E48007885
:102D0000C0F34011564881805B480078C0F3001141
:102D1000534801825848007800F00F015048418222
:102D20009DF8251081829DF827009DF8261000EB64
:102D3000012081B24A48C1809DF829009DF82810E1
:102D400000EB012081B2464801819DF82B009DF8DF
:102D50002A1000EB012081B2414841819DF82D00ED
:102D60009DF82C1000EB012081B23D4881819DF837
:102D70002F009DF82E1000EB012081B23848C18150
:102D80009DF831009DF8301000EB012081B23448ED
:102D9000C1829DF833009DF8321000EB012081B212
:102DA0002F4801839DF835009DF8341000EB012079
:102DB00081B22B48418305F089FE05F0B9FEFDF78D
:102DC00046FE00BF00BF10B0BDE8F08170B5002026
:102DD00028490870FDF73BFE05F02CFF05F0D9FFF0
:102DE00000202149087096E0FFF75CFC0A2005F0FE
:102DF00000FD0446662C71D008DCA4F161000528B2
:102E00006DD2DFE800F010143D576300E62C78D057
:102E100004DC672C76D0682C7BD167E0E72C72D07D
:102E2000E82C76D163E004201049087072E0134862
:102E30000078A0B90A480078401C09490870084683
:102E40000078082801DD0020087005F082FEFDF7FB
:102E50003EFD05F03BFE05F00BFEFDF7F8FD59E0E9
:102E6000F00000207C0200202F0000200300002042
:102E70004800002004000020500000200500002031
:102E8000FE480078A8B9FE48007828B1FC480078D0
:102E9000401EFB49087002E00820F949087005F05F
:102EA00058FEFDF714FD05F011FE05F0E1FDFDF7FC
:102EB000CEFD2FE0F148007818B1F0480078401EB0
:102EC00000E00320C5B2ED48057023E0EB48007830
:102ED000032806DAE9480078401C03E010E018E017
:102EE0000FE00020C5B2E548057013E000BF0520E3
:102EF000E44908700020E44908700BE002E002E0B9
:102F000000BF00BF00BF0020DC490870DE49087028
:102F100000E000BF00BFDB48007803283FF464AF47
:102F200070BD10B5FFF791F810BD10B513E000208B
:102F3000D6490870D6490870D349087005F02EFEAE
:102F400000214FF0804003F035FF0120D149087087
:102F50000620CC490870CB4800780528E7D010BD82
:102F600010B5002005F01AFE00214FF0804003F05C
:102F700021FF6420FDF797F905F0A6FE10BD2DE9AD
:102F8000FC5F0120C3490870BD48B0F8028080880A
:102F9000C0B20090BA488088BF49097860F34511F3
:102FA000BD480170B648408AC0B20190002005F0CB
:102FB000FCFDB8F1000F2ED10020B8490870B048D0
:102FC000C08800EB80004FF6FF7101EA4005AC4875
:102FD0008089012801D1022601E0A94886892C4672
:102FE0000327F020AE49088040F6D860AD4908803C
:102FF0009DF8000038B9AC4800884443A048808B55
:10300000B4FBF0F4CCE0A848408844439C48008CD2
:10301000B4FBF0F4C4E0B8F1010F1DD14FF4B4706B
:103020009F49088040F6D8609E49088001209B494E
:10303000087000269248808A00EB80004FF6FF71EE
:1030400001EA40052C4605279748808844438C4870
:10305000808CB4FBF0F4A3E0B8F1030F4FD18848A3
:10306000808A00EB80004FF6FF7101EA400584483A
:103070008089012801D1022601E0814886892C46F9
:103080008A480078A0B94FF4B4708549088040F6AA
:10309000D8608449088001208049087005270026EF
:1030A0008148808844437648808CB4FBF0F477E014
:1030B000F0207B49088040F6D8607A4908800020DB
:1030C000764908706E48C08800EB80004FF6FF71AB
:1030D00001EA40052C4603279DF8000038B97248E4
:1030E000008844436648808BB4FBF0F458E06E4897
:1030F000408844436248008CB4FBF0F450E06B48D5
:10310000007870BBF0206649088040F6D8606549B9
:1031100008805B488089012801D1022601E05848D7
:1031200086895748C08800EB80004FF6FF7101EA9E
:1031300040052C4603270020584908709DF80000E0
:1031400038B95948008844434D48808BB4FBF0F4AB
:1031500026E05548408844434948008CB4FBF0F4CD
:103160001EE0FFE74FF4B4704D49088040F6D86088
:103170004C49088000264248808A00EB80004FF6C8
:10318000FF7101EA40052C460527012043490870DC
:103190004548808844433A48808CB4FBF0F400BF33
:1031A000DFF8DC9009F11C094FF00B0BDFF800A1F0
:1031B0004FF02C0B002705E019F8010B0AF8010B62
:1031C000781CC7B25F45F7DB00203A4908603A49EE
:1031D00008803A4908603A4908803A4908703A49F3
:1031E00008803A4908803A4908703A4908803A49C3
:1031F00008803A490870002708E00020384921F883
:103200001700384921F81700781CC7B2082FF4DBE3
:1032100031490C80002E7DD001202D4908702E48A8
:103220000488B4FBF6F429490C800488B4FBF6F05A
:1032300006FB104424490C8024480088012869DAE0
:103240000A20234908702448048804EB84004400C1
:10325000B4FBF6F41D490C801F48048804EB84007D
:103260004400B4FBF6F006FB104417490C801748E5
:10327000008801284EDA6420154936E00500002058
:10328000F000002003000020000000201B000020B0
:103290001C00002004000020500000202E00002010
:1032A0003000002032000020340000202F000020D9
:1032B000D20100200C0000201E000020140000207D
:1032C00020000020220000202400002026000020F2
:1032D000280000202A0000202C00002001000020EF
:1032E000A8010020B801002014E00870FE480488FE
:1032F00004EB84004400B4FBF6F4FC490C80FA486B
:10330000048804EB84004400B4FBF6F006FB104490
:10331000F7490C80B8F1000F12D0B8F1010F06D0B8
:10332000B8F1020F54D0B8F1030F7CD126E005F0BC
:1033300087FD022005F0BDFD0220EE49087077E010
:103340009DF8000048B105F07BFD022005F0B1FDBD
:103350009DF8040005F029FC0FE005F08DFDE6481E
:10336000008A18B1012005F0A4FD02E0002005F05C
:10337000A0FD9DF8040005F018FC59E0DF48007836
:1033800040B905F05DFD022005F093FD0220D9490A
:1033900008701CE09DF8000048B105F051FD0220C6
:1033A00005F087FD9DF8040005F0FFFB0FE005F038
:1033B00063FDD148008A18B1012005F07AFD02E0D2
:1033C000002005F076FD9DF8040005F0EEFB2FE0EF
:1033D000CA480078F0B99DF8000048B105F030FD0A
:1033E000022005F066FD9DF8040005F0DEFB19E003
:1033F00005F042FDC048008A18B1012005F059FDD2
:1034000002E0002005F055FD9DF8040005F0CDFB1D
:1034100008E008E005F014FD022005F04AFD022056
:10342000B449087004E00720B5490870BDE8FC9F66
:1034300000BF002005F0B2FB0121880703F0BAFCB1
:1034400005F0C2FC0020AF49087008460078FDF77F
:103450000FFC05F09EFC05F0EDFB05F01DFC0820BF
:10346000A949087002204870162008700220487090
:1034700000200870A548007800EB4000202101EBF7
:10348000C000A149487000200870A048007800EBF7
:103490004000C00020304870B8F1000F09D0B8F1EA
:1034A000010F07D0B8F1020F05D0B8F1030F04D116
:1034B00002E000BF02E001E000E000BF00BF00202A
:1034C00091490870FDF7B9FA00BFAFE738B59048E9
:1034D0000068B0F5805F03D340F6FF708C49086048
:1034E0008C480088B0F5805F03DB40F6FF708949A7
:1034F000088089480088002852D0012804D002287A
:103500007DD003287CD1A7E184484089804A00907F
:10351000126893B27B4A1278D21D804D05EB82026D
:103520005188784A1278D21D35F82200794A1288DB
:10353000FEF7FAFF04467A490C6008460068B0F5C9
:10354000617F0DD928464089714A0090126893B274
:103550002A46518D108D6F4A1288FEF7E5FF04460A
:103560006F4804606A48006800EB800044006B48C4
:103570000089444369484089B4FBF0F40A20B4FB55
:10358000F0F100FB1140042800D90A340A20B4FBF2
:10359000F0F4A0B20A2190FBF1F05D49086015E259
:1035A0005C48008800EB800044005348808840BBA2
:1035B00054480078C01C594931F820004443514810
:1035C0000078C01C01EB80004088B4FBF0F40A20B6
:1035D000B4FBF0F100FB1140042800D90A340A20A2
:1035E000B4FBF0F44F49CC814948006800EB8000FF
:1035F00044004A48008844434848408802E04FE07D
:10360000E3E113E0B4FBF0F40A20B4FBF0F100FBBB
:103610001140042800D90A340A20B4FBF0F4A0B207
:103620000A2190FBF1F03A49086038E0354800780B
:10363000401D3A4931F82000444332480078401D8B
:1036400001EB80004088B4FBF0F40A20B4FBF0F1F9
:1036500000FB1140042800D90A340A20B4FBF0F41E
:103660003049CC812A48006800EB800044002B4898
:10367000808844432948C088B4FBF0F40A20B4FB96
:10368000F0F100FB1140042800D90A340A20B4FBF1
:10369000F0F4A0B20A2190FBF1F01D49086095E119
:1036A0001648007800287CD11A48008800EB80007A
:1036B000440011488088B8BB12480078C01C1749E4
:1036C00031F8200044430F480078C01C01EB800013
:1036D0004088B4FBF0F40A20B4FBF0F100FB114089
:1036E000042800D90A3420E02C0000202600002005
:1036F0002400002004000020F00000202F00002003
:103700000300002006000020AE0000201C00002066
:103710000C0000201E000020C8010020D201002063
:1037200014000020D400002022E00A20B4FBF0F4B2
:10373000F749CC81F748006800EB80004400F64868
:1037400000884443F4484088B4FBF0F40A20B4FBFA
:10375000F0F100FB1140042800D90A340A20B4FB20
:10376000F0F4A0B20A2190FBF1F0EA49086072E09F
:10377000EA480078401DE84931F820004443E74812
:103780000078401D01EB80004088B4FBF0F40A2073
:10379000B4FBF0F100FB1140042800D90A340A20E0
:1037A00000E021E0B4FBF0F4D949CC81D9480068AD
:1037B00000EB80004400D84880884443D648C08845
:1037C000B4FBF0F40A20B4FBF0F100FB1140042834
:1037D00000D90A340A20B4FBF0F4A0B20A2190FB0D
:1037E000F1F0CC49086036E0CB484089C94A0090E6
:1037F000126893B2C94A1278D21DC74D05EB8202F6
:103800005188C64A1278D21D35F82200C44A12885F
:10381000FEF78AFE0446A0B2C2490860BD480068AF
:1038200000EB800044002846008944432846408934
:10383000B4FBF0F40A20B4FBF0F100FB11400428C3
:1038400000D90A340A20B4FBF0F4A0B20A2190FB9C
:10385000F1F0B0490860B9E0B3480078B8BBAE48B1
:103860004089AC4A0090126893B2AC4A1278D21DDB
:10387000A94D05EB82025188A84A1278D21D35F86D
:103880002200A74A1288FEF74FFE0446A0B2A549BF
:103890000860A048006800EB8000440028460089CA
:1038A000444328464089B4FBF0F40A20B4FBF0F10D
:1038B00000FB1140042800D90A340A20B4FBF0F4BC
:1038C000A0B20A2190FBF1F0924908607CE0FFE78A
:1038D0009348008800EB8000440094488088C8BB6F
:1038E0008E480078C01C8C4931F8200044438B4836
:1038F0000078C01C01EB80004088B4FBF0F40A2083
:10390000B4FBF0F100FB1140042800D90A340A206E
:10391000B4FBF0F47E49CC817E48006800EB800067
:1039200044007D48008844437B484088B4FBF0F461
:103930000A20B4FBF0F100FB1140042800D90A343E
:103940000A20B4FBF0F4A0B20A2190FBF1F0714917
:10395000086039E0FFE771480078401D6E4931F892
:10396000200044436D480078401D01EB80004088F2
:10397000B4FBF0F40A20B4FBF0F100FB1140042882
:1039800000D90A340A20B4FBF0F46149CC816148C3
:10399000006800EB800044005F48808844435E4834
:1039A000C088B4FBF0F40A20B4FBF0F100FB114036
:1039B000042800D90A340A20B4FBF0F4A0B20A218A
:1039C00090FBF1F05349086000E000BF00BF38BD34
:1039D0000CB557480078082804DA55480078401C90
:1039E00053490870072001900EE09DF80400401E26
:1039F000504931F810009DF8042021F812009DF87C
:103A00000400401EC0B201909DF804000028ECDCC8
:103A100040480068474908800020009044480078EA
:103A2000019007E043489DF8041030F81100009918
:103A3000084400909DF80400411EC9B2019100287D
:103A4000F0D13B4909780098B0FBF1F00090009864
:103A500080B230490860072001900EE09DF8040014
:103A6000401E354931F810009DF8042021F812005D
:103A70009DF80400401EC0B201909DF8040000288B
:103A8000ECDC274800882C4908800020009028485A
:103A90000078019007E028489DF8041030F81100E4
:103AA0000099084400909DF80400411EC9B201919C
:103AB0000028F0D11E4909780098B0FBF1F0009081
:103AC0001749009808800CBD0EB5002001900090A9
:103AD00002900EE005F072F801990844019005F09B
:103AE00073F80099084400909DF80800401CC0B28B
:103AF00002909DF808001028ECDB0198C0F30F102D
:103B0000044908600098C0F30F10054908800EBDF5
:103B1000D40000200C000020D2010020060000206C
:103B20001E000020140000202F000020F0000020C4
:103B300022000020A8010020B80100202DE9F04F4C
:103B400087B00025AB460026A946AA460024F548C2
:103B50004088F54908800846008805287ED2DFE8BD
:103B600000F0170367389800F048007820F0C00094
:103B70004030EE490870EB48C08AEB49C880E948FC
:103B8000008B0881E748408B48800220059087E041
:103B9000E648007820F0C000E4490870E148008958
:103BA000E149C880DF4840890881DE48C0894880F3
:103BB000DC488089012802D10220888003E0D948AE
:103BC0008089D9498880D748808800900120059055
:103BD00066E0D648007820F0C000C030D3490870B5
:103BE000D348007860B9CF48C08ACF49C880CD4853
:103BF000008B0881CB48408B48800220059016E05E
:103C000001200590C7480089C749C880C548408938
:103C10000881C448C0894880C2488089012802D1EF
:103C20000220888003E0BF488089BF49888037E050
:103C3000BE48007820F0C0008030BC490870BC4805
:103C40000078C8B901200590B6480089B649C880F7
:103C5000B44840890881B348C08900E01AE0488030
:103C6000B0488089012802D10220888010E0AD4848
:103C70008089AD4988800BE002200590A948C08A60
:103C8000A949C880A748008B0881A648408B488076
:103C900006E005E00720A749087007B0BDE8F08FEF
:103CA00000BFFFF76CF90020039004900290A24936
:103CB0000860A2490881A2490880A24908700978D1
:103CC000A14A12781144C8B2FCF7D2FF00F0C5BF78
:103CD0009E48007801286CD100209C49087001257D
:103CE000BDF8100042F20F71884204DABDF81000EE
:103CF000401C80B2049096480078012826D19DF897
:103D00000C00401CC0B203909DF80C00914909784A
:103D1000884208DB00200390894800888E49098882
:103D2000084487490880854800897F4989888842F6
:103D300022DB00208149088188480088804908806A
:103D40000220834908704FF0010B15E0834800887A
:103D50007B4908807448408800280DDD7748008939
:103D600071494988884207DB07207249087004209E
:103D7000774908704FF0010B7148008804F00EFF7E
:103D80009DF80800401CC0B202909DF8080009216F
:103D900090FBF1F201FB1200C0B202909DF8080006
:103DA000052802DA04F0BFFB01E004F0B8FBFCF7E1
:103DB00095FCFFF789FEFFF70BFEFFF787FB6848CE
:103DC000008868490988884204DD4FF001094FF0F6
:103DD000000A0DE06248008863490988884204DAD5
:103DE0004FF0010A4FF0000902E04FF00009CA4607
:103DF0000024544800789DF81410884208DABAF17B
:103E0000010F05D14F480078401C4E49087001242D
:103E10004C480078002808DDB9F1010F05D1494868
:103E20000078401E474908700124012C1FD1002052
:103E30004E49087006900AE000204D499DF8182070
:103E400021F812009DF81800401CC0B206909DF8A1
:103E500018000828F0DB3B4909783B4A12781144E6
:103E6000C8B2FCF705FF3220FCF71DFA0AE12E4824
:103E7000008830B101282DD002287FD003287ED1C0
:103E800040E030480078012806D12C48C0890A213A
:103E900090FBF1F02949C881BDF80000012803D149
:103EA00040F22620019002E04FF4966001902348F2
:103EB000C089BDF80410884203DD4FF6FF701F492A
:103EC000C88134B918488088BDF81010884200DCD9
:103ED0000126D6E02248008848B1264800682649D5
:103EE000884208D94FF6FF702249086003E04FF678
:103EF000FF702049086024B9BDF81000022800DBDB
:103F00000126BEE00A480078D0BB15480088C0B33F
:103F1000184800681849884238D94FF6FF7015498B
:103F2000086033E0F0000020C801002050000020AD
:103F30002F0000200300002010000020D4000020EB
:103F40002A000020060000202E0000200100002092
:103F50000400002028000020260000202C00002063
:103F60001E0000203200002030000020220000202F
:103F7000B8010020140000209F86010039E07FE096
:103F80000BE0FFE74FF6FF70F949086084BBBDF80E
:103F9000100002282CDB01262AE0F64800780128D0
:103FA00006D1F548C0890A2190FBF1F0F249C88199
:103FB0004FF496600190BDF80000012803D140F253
:103FC0002620019002E04FF496600190EA48C089F3
:103FD000BDF80410884203DD4FF6FF70E649C88142
:103FE00034B9E6488088BDF81010884200DC01260C
:103FF00047E0E348007858BBDE480078012806D146
:10400000DD48C0890A2190FBF1F0DB49C8814FF4FB
:1040100096600190BDF80000012803D140F22620EF
:10402000019002E04FF496600190D348C089BDF83A
:104030000410884203DD4FF6FF70CF49C881F4B900
:10404000CE488088BDF81010884218DC012616E0A2
:10405000CC48008848B1C6480068CB49884208D996
:104060004FF6FF70C249086003E04FF6FF70C04989
:10407000086024B9BDF81000022800DB012600E02A
:1040800000BF00BFC148007802287BD1012EFCD1BF
:10409000002CFAD1B948008830B1012820D002287C
:1040A00071D0032870D15EE0B348C0890190B34855
:1040B000C088BDF80410884205DA0620B3490870AC
:1040C0000220B3498870AD480089BDF804108842C9
:1040D00005DD0720AD4908700320AD4988701BE15C
:1040E000A348006880B20190A248007820B101285E
:1040F0000BD0022819D110E0BDF804004FF47A71FA
:1041000090FBF1F080B2019010E0BDF80400642152
:1041100090FBF1F080B2019008E0BDF804000A21A4
:1041200090FBF1F080B2019000E000BF00BF934827
:10413000C088BDF80410884208DA9048C08828B1C9
:104140000620924908700820914988708B480089A0
:10415000BDF80410884205DD07208C49087009204D
:104160008B498870D8E086480078C8BB80480068D2
:1041700080B201907F48007838B101280ED0022823
:104180001CD113E0C9E05CE0C5E0BDF804004FF4C9
:104190007A7190FBF1F080B2019010E0BDF804005C
:1041A000642190FBF1F080B2019008E0BDF80400BA
:1041B0000A2190FBF1F080B2019000E000BF00BF47
:1041C0006E48C088BDF8041088420ADA6B48C0887F
:1041D00038B106206D49087008206D49887003E0E9
:1041E00013E006206A49887064480089BDF804100D
:1041F000884206DD072065490870092064498870F7
:104200001EE00620624988701AE05B48C089019070
:104210005A48C088BDF80410884205DA06205B4978
:10422000087002205B49887054480089BDF804106A
:10423000884205DD072055490870032055498870DC
:104240006AE04F48007818BB4B48C08901904B4842
:10425000C088BDF80410884206DA06204B49087071
:1042600002204B49887002E0002049498870434889
:104270000089BDF80410884206DD07204349087014
:1042800003204349887045E000204149887041E09F
:104290003748006880B201903648007820B1012884
:1042A0000BD0022819D110E0BDF804004FF47A7148
:1042B00090FBF1F080B2019010E0BDF804006421A1
:1042C00090FBF1F080B2019008E0BDF804000A21F3
:1042D00090FBF1F080B2019000E000BF00BF2748E2
:1042E000C088BDF80410884208DA2448C08828B184
:1042F0000620264908700820264988701F48008932
:10430000BDF80410884205DD072020490870092007
:104310002049887000E000BF00BF1C4800780628D4
:104320000BD01A480078072807D0184800780528CD
:1043300003D016480078082808D1012016490870D3
:1043400007201649087001254FF0010B012D7DD182
:104350000025002012490870012048700748008895
:1043600000B3012873D0022872D0032871D1A5E0D0
:104370001400002006000020D4000020C801002006
:104380002F0000201E0000209F8601000400002056
:10439000260200203A020020000000200300002036
:1043A000AE000020FE48C088FE49096888420BD94B
:1043B000FB48C088FB490968401A02280FD8F84812
:1043C000C088F84908600AE0F548C088F5490968DE
:1043D000081A022803D8F248C088F2490860F14957
:1043E000096888B2012303220221FCF786FAEE480D
:1043F00004F063FB1421ED4804F0E5FFEB48EA49C3
:1044000009680160EAA104F0E9FFE6480068000AD3
:10441000E8490871E348006848710920E6490870D6
:10442000E649C889002304220221FCF766FAE44821
:104430000078082824D0DC4804F03FFBDA4805F077
:104440005AFD074605F0FCF9DE4903E0B9E376E1E1
:104450005EE2A4E30860DCA004F01CFBD94800780D
:10446000D4498871D7484078C871D6488078087296
:10447000D448C0784872D5A1CC4804F0AFFF10E012
:10448000C948D3A10A6802600979017104F015FBDB
:10449000D1A004F0FFFAFF20C6498871C8710872E4
:1044A0004872C149C14804F099FFC448008900120C
:1044B000C0498872C1480089C87271E3C748007852
:1044C00000287CD1B648808AB649096888420BD951
:1044D000B348808AB3490968401A02280FD8B04807
:1044E000808AB04908600AE0AD48808AAD49096811
:1044F000081A022803D8AA48808AAA490860A9494C
:10450000096888B2012303220221FCF7F6F9A648C4
:1045100004F0D3FA1421A54804F055FFA348A2499A
:1045200009680160A2A104F059FF9E480068000AD2
:10453000A04908719B480068487109209E4908708D
:10454000A748006842F20F71884225D9A548007833
:10455000022810D1A24800680A21B0FBF1F087B20E
:10456000A14AA0480078401C115C0123052238466E
:10457000FCF7C3F91BE09A4800680A21B0FBF1F090
:1045800087B2994A97480078401C115C01230422A5
:104590003846FCF7B2F90AE0934A924B1B78D15C9B
:1045A0008F4A126890B201230422FCF7A6F98C48C6
:1045B00000684FF6FF7188421ED07B4800E035E06E
:1045C00004F07BFA7849794804F008FF764805F052
:1045D00092FC074605F034F97A49086008460078ED
:1045E0007449887177484078C87176488078087235
:1045F0007448C07848720CE07CA004F05EFA7BA19D
:104600006A4804F0EBFEFF206A498871C87108729D
:10461000487278A1654804F0E1FE684800890012FC
:104620006449887265480089C87287E05C48C08820
:104630005C49096888420BD95948C08859490968BA
:10464000401A02280FD85648C088564908600AE028
:104650005348C08853490968081A022803D85048AB
:10466000C088504908604F49096888B20123032275
:104670000221FCF742F94C4804F01FFA14215F486C
:1046800004F0A1FE5D4848490968016048A104F0B2
:10469000A5FE44480068000A59490871414800686D
:1046A00048710920444908704449C88901230422FB
:1046B0000221FCF722F94248007808281CD03A4829
:1046C00004F0FBF9384805F016FC074605F0B8F889
:1046D0003C49086008460078494988713948407863
:1046E000C8713848807808723648C078487237A157
:1046F0002E4804F073FE0DE02B4835A10A680260D5
:104700000979017104F0D9F9FF203D498871C87118
:10471000087248722449254804F060FE224805F0DA
:10472000EAFB074605F08CF8264908602348008913
:1047300000123349887221480089C87230E2184853
:10474000808A1849096888420BD91548808A15491A
:104750000968401A02280FD81148808A1149086058
:104760000AE00F48808A0F490968081A022803D80E
:104770000B48808A0B4908600A49096888B20123FE
:1047800003220221FCF7B9F8074804F096F9142136
:10479000064804F018FE054803490968016031E045
:1047A000F00000200C000020B0000020FE010020DE
:1047B0006B563B0026020020AE000020D4000020F3
:1047C000040000204C0000206D4100006D413B00C2
:1047D0004F464C4120000000202000002F00002008
:1047E0001400002006000020FBA700082D2D2D2D11
:1047F0002D0000004DA6B83B000000001202002072
:104800003A020020AFF2580104F0E8FDFA480068CF
:10481000000AFA490871F848006848710920F84907
:104820000870F848006842F20F71884225D9F648AE
:104830000078022810D1F34800680A21B0FBF1F09B
:1048400087B2F24AF0480078401C115C0023052230
:104850003846FCF752F81BE0EA4800680A21B0FB32
:10486000F1F087B2E94AE8480078401C115C002367
:1048700004223846FCF741F80AE0E44AE24B1B7890
:10488000D15CE04A126890B201230422FCF735F8AB
:10489000DC4800684FF6FF7188421CD0DC4804F009
:1048A0000CF9DB49DB4804F099FDD94805F023FBFE
:1048B000074604F0C5FFD849086008460078CF498C
:1048C0008871D5484078C871D34880780872D2483A
:1048D000C07848720EE0AFF2EC0004F0EEF8AFF2F0
:1048E000F401CC4804F07AFDFF20C4498871C871F6
:1048F00008724872AFF20411C64804F06FFDC74851
:1049000000890012BD498872C4480089C87247E115
:10491000C3480078F0BBC348C088B74909688842DB
:104920000BD9C048C088B4490968401A02280FD87A
:10493000BC48C088B04908600AE0BA48C088AE499F
:104940000968081A022803D8B648C088AA4908602E
:10495000A949096888B2012303220221FBF7CDFF90
:10496000AB4804F0AAF81421AA4804F02CFDA94889
:10497000A74909680160AFF2C81104F02FFD9E48F5
:104980000068000A9D4908719B4800684871092029
:104990009B4900E04DE00870A049C889012304222A
:1049A0000221FBF7AAFFA0480078082821D09848E8
:1049B00004F083F8964805F09EFA074604F040FF9D
:1049C00095490860AFF2002004F064F8924800783E
:1049D0008A49887190484078C8718F4880780872F9
:1049E0008D48C0784872AFF21C218A4804F0F6FC6A
:1049F00012E08748AFF228210A6802600979017144
:104A000004F05BF8AFF2302004F044F8FF207B495B
:104A10008871C871087248727D497E4804F0DEFCD6
:104A20007E4800890012754988727C480089C872E6
:104A3000B4E07C48808A7049096888420BD979487B
:104A4000808A6D490968401A02280FD87548808A03
:104A5000694908600AE07348808A67490968081A4A
:104A6000022803D86F48808A634908606249096850
:104A700088B2012303220221FBF73FFF644804F0C0
:104A80001CF81421694804F09EFC684860490968D4
:104A90000160AFF2E42104F0A1FC57480068000A6D
:104AA00063490871544800684871092054490870E6
:104AB0005448006842F20F71884225D95248007864
:104AC000022810D14F4800680A21B0FBF1F087B2EC
:104AD0004E4A4D480078401C115C002305223846A0
:104AE000FBF70BFF1BE0474800680A21B0FBF1F021
:104AF00087B2464A44480078401C115C00230422D7
:104B00003846FBF7FAFE0AE0404A3F4B1B78D15C7F
:104B10003C4A126890B201230422FBF7EEFE3948AA
:104B200000684FF6FF7188421CD0394803F0C5FF7A
:104B30003749384804F052FC354805F0DCF907469F
:104B400004F07EFE344908600846007838498871D0
:104B500031484078C8713048807808722E48C07853
:104B600048720EE0AFF27C3003F0A7FFAFF2843161
:104B70002E4804F033FCFF202D498871C87108725B
:104B80004872AFF29031294804F028FC234800898C
:104B900000122749887221480089C87200E000BFCE
:104BA00000BF0A2016490870002048701B49088978
:104BB000002304220121FBF7A0FE154803F07DFF2E
:104BC00000BFFDF76FFD03F009FE06909DF8180089
:104BD000662833D008DC62282CD063282BD06428C8
:104BE0002AD0652837D128E0672829D0E62826D0A2
:104BF000E72830D125E000000C000020260200202C
:104C0000AE0000201400002006000020FBA70008D2
:104C1000B0000020FE0100204C000020D400002045
:104C20002F000020F00000200400002012020020CD
:104C30003A02002010E00FE00EE00DE000BF00BFE0
:104C400000BF0320F84908700720F849087004F0F5
:104C5000C0F8FFF722B800BF00BFF448007806286C
:104C60003FF436A8F2480078401CF149087004F07F
:104C7000B0F800BFEDE710B55A20EE490870592092
:104C800048705A20EC49087059204870EB48008A57
:104C9000EB49097860F30411E9480170E748408A5C
:104CA000E749097860F30301E54801700078E149BC
:104CB000C870E3480078E049C870E24800780028EE
:104CC00067D1E148008870B9D7480078032805D03B
:104CD000042807D10020D749887003E00120D54976
:104CE000887000BF55E0D848008801280ED1CE4812
:104CF0000078032805D0042807D10620CD49887004
:104D000003E00720CB49887000BF42E0CE4800880E
:104D100003281DD1C4480078032808D0042816D1E0
:104D20000620C44988700020C34988700FE0C0483D
:104D30000078012803D10720BE49887006E0BC48EE
:104D40000078022802D10120BB49887000BF20E012
:104D5000BD48008802281CD1B3480078032808D039
:104D6000042815D10020B34988700620B249887004
:104D70000EE0AF480078012802D1AE49887006E005
:104D8000AB480078022802D10720AB49887000BFE9
:104D900000BFAC48007820B3AB48008810BBA248E5
:104DA0000078C01E06281CD2DFE800F00F031307AE
:104DB0000B1700209F49887013E002209D498870DE
:104DC0000FE003209B4988700BE00120994988700F
:104DD00007E004209749887003E005209549887012
:104DE00000BF1FE09848008801281BD18E4800783A
:104DF000032812D0042804D0062806D0072810D192
:104E000007E006208B4988700BE0082089498870EC
:104E100007E009208749887003E0072085498870EA
:104E200000BF00BF00240DE08248015D874802F00A
:104E3000DBFB00BF8021854802F044FC0028F9D04C
:104E4000601CC4B20C2CEFDB7F480088032803D021
:104E50007D480088022811D100240DE07648015DCC
:104E60007A4802F0C1FB00BF8021784802F02AFC9A
:104E70000028F9D0601CC4B20C2CEFDB10BD2DE96A
:104E8000F04100276D484088C5B2FEF769F86648D2
:104E90000078032827D0052D1FD2DFE805F0040392
:104EA00009081D0000BF0820604908701AE000BF13
:104EB0005F48007801280BD15B480078042803D1B3
:104EC00006205A49087006E008205849087002E098
:104ED00008205649087005E004E00720534908708F
:104EE000BDE8F0812CE0052D1CD2DFE805F00403BD
:104EF00006051A001AE019E018E04D48007801286C
:104F00000BD149480078042803D10620474908708E
:104F100006E008204549087002E00820434908706F
:104F200004E003E0072041490870D9E700BF484882
:104F30000078012804D1FFF79EFE00204449087044
:104F40000020444908704870FBF777FD04F057F8DB
:104F500035480078032807D108203E490870022010
:104F600048704FF6FF740CE03B480078401C3A490B
:104F700008703A480078032803DB08202B490870A2
:104F8000AEE77CE08FB100270E2032490870042084
:104F900048700123042219462046FBF7AEFC304836
:104FA00003F078FD732003F067FD0120FBF79AF909
:104FB00070B11D48007803280AD04FF6FF70844274
:104FC00006D001270A210120FBF789F9601E84B26F
:104FD000012C02DA062015490870FDF763FB052055
:104FE00003F007FC0646672E0CD004DC642E07D0C5
:104FF000652E42D105E0682E38D0E72E3DD102E083
:105000003CE03BE000BF0848007803282AD04FF678
:10501000FF70844203D103200449087025E0032077
:105020000149087021E00000040000200300002076
:105030002F000020260200203A020020F00000206D
:105040005000002000000020C8010020003801406E
:1050500048000020AE0000201C0000201B000020A3
:10506000B000002003204F49087007E000204E499F
:10507000087006204B49087000E000BF00BF494897
:10508000007807283FF47EAF00BF29E770B50125FF
:1050900003F01AFE45480078012804D1FFF7EBFD24
:1050A00000204249087046E0012D19D10025162044
:1050B0003F490870022048703E48007830B103F044
:1050C00089FD03F066FE03F0CEFD09E003F09EFFCC
:1050D00039480078042803D103F0ACFD03F03EFE0C
:1050E000FDF7E0FA022003F084FB0446672C19D098
:1050F00006DC642C0BD0652C0AD0662C19D10FE08D
:10510000682C06D0E62C0CD0E72C12D10BE011E075
:1051100010E000202449087005202249087009E0A9
:1051200000BF07E000BF03201E49087003F06AFDBE
:1051300000E000BF00BF1B4800780828B4D0002062
:105140001C49087070BD10B506E003F0CBFE03F0FB
:1051500011FD032013490870124800780128F4D08B
:1051600010BD10B518E00A201149087002204870DF
:105170000420087032204870002406E003F046FF47
:105180000320FBF790F8601CC4B20A2CF6DB012068
:105190000449087003F0CEFE024800780028E2D0EF
:1051A00010BD0000030000202F0000204800002058
:1051B000AE00002000000020040000202DE9F04196
:1051C00007460D4616461C460121084601F051F8D7
:1051D000384602F0BFFD1248048012480560466060
:1051E0001020104988600846C460002008618020B3
:1051F000486100208861C861202008624FF4405057
:10520000486200208862384602F046FEBDE8F08120
:1052100010B504460121204602F069FE10BD0000D1
:10522000520000205002002070B504460020FD49C5
:10523000087048700B20B4FBF0F100FB114000EB4C
:105240000010F9494518284603F037FC0920F549B4
:1052500008700020487003F08AFB0020F1490870B4
:1052600001204870F14803F028FC70BD2DE9FF5F74
:1052700004464FF0000A03F0FBFBED4830F8250030
:105280000190EB4800EB8500408800900B25E94F2A
:10529000DFF8A483A8000390002505E017F8010BB0
:1052A00008F8010B681CC5B29DF80C008542F5DBBF
:1052B0000020E2490860E2490880E2490860E249CA
:1052C0000870E249087003F064FD03F0B3FC03F0DA
:1052D000E3FC03F094FE00260220DD4908700A2159
:1052E0000120FAF7FCFF0120CE4948700220087027
:1052F000D84803F0E2FB0020CA494870087004EB6C
:105300000411D54A881803F0D8FB002003F046FCAE
:105310000B2C6CD2DFE804F00616263637475758B8
:10532000595A5B0003F0A8FD002003F0C2FD0121E3
:10533000880701F03FFD03F047FDC849088803F0E6
:105340002DFC58E003F07CFD022003F0B2FD0121AA
:10535000880701F02FFD03F037FDC049488803F0AE
:105360001DFC48E003F06CFD022003F0A2FD0121CA
:10537000880701F01FFD03F027FDB849888803F076
:105380000DFC38E000BF03F077FD002003F091FD35
:105390000121880701F00EFD03F016FDAF49888852
:1053A00003F0FCFB27E003F04BFD022003F081FD3E
:1053B0000121880701F0FEFC03F006FD4FF4B470F4
:1053C00003F0ECFB17E000BF00BF00BF00BF03F01D
:1053D00037FD022003F06DFD0121880701F0EAFC92
:1053E00003F0F2FC9D49888803F0D8FB03E000201D
:1053F00003F0D4FB00BF00BFA0E10120FAF772FF69
:1054000028B10120914908700A21FAF768FF8F48F6
:105410000078012817D100208C4908704FF0010A4C
:1054200009F1010000F0FF09092099FBF0F100FBF0
:10543000119000F0FF09B9F1050F02DA03F02CFC1E
:1054400001E003F041FC03F0BFFB8549C88103F094
:10545000B5FB834908601CB1012C01D0022C06D198
:105460007F480068744901EB840148804DE0032CBB
:105470000DD0062C0BD0042C01D1012000E000201F
:10548000052C01D1012100E00021084330B174480E
:10549000C089694901EB8401488036E07049096898
:1054A00001EB8101480004F055F96E4908606C4831
:1054B000C0890A2802DA0A206949C8816849C8896E
:1054C00004F048F967494860E01F674951F8200037
:1054D0006449C860FCF78DFDFCF73AFD0A2C0CD13D
:1054E00060494868614903F0E4FF834604F037F9F6
:1054F000514901EB8401488007E05A49486804F0AB
:105500002EF94D4901EB84014880BDF80800BDF833
:105510000410884205DCBDF8080000BFBDF800009B
:1055200000BFBAF1010F12D14FF0000A0A203D4925
:105530000870002048704E4A115D3F4A32F824003E
:1055400001230422FBF7D9F94A4803F0B6FA03F025
:1055500045F903909DF80C00672861D008DCA0F1A4
:10556000620005285DD2DFE800F00C47B1B3B5005A
:10557000E2281ED0E3287FD0E6287ED0E72850D14D
:10558000CDE000262C4830F82400401C2A4921F8A0
:105590002400084630F82400254931F824108842B8
:1055A00006DD234800EB84004088234921F82400CD
:1055B000C3E0701CC6B20A2E07DD1F4830F8240075
:1055C0000A301D4921F8240006E01B4830F8240069
:1055D000401C194921F82400174830F824001449C8
:1055E00031F82410884206DD114800EB8400408821
:1055F000114921F82400A0E000260F4830F82400CB
:10560000401E0D4921F82400084630F824000849BE
:1056100031F82410884235DD054800EB84002DE088
:105620007CE089E0AE00002040A8000884AA0008C1
:1056300000A800080C010020D20100200C0000206E
:105640001E000020140000200600002001000020A1
:10565000040000200CA90008C9A90008340000209B
:10566000D40000206801002028A00008000020418C
:1056700095AA0008B000002005E02CE04088F7491A
:1056800021F8240059E0701CC6B20A2E07DDF34849
:1056900030F824000A38F14921F8240006E0EF48E8
:1056A00030F82400401EED4921F82400EB4830F882
:1056B0002400EB4931F82410884206DDE84800EB6D
:1056C00084004088E54921F8240036E0002634E0D3
:1056D000002632E000BF00214FF0804001F06AFB5D
:1056E00003F077FB002003F059FA03F0EDFADD4FE9
:1056F000DFF868832C200390002505E018F8010BE3
:1057000007F8010B681CC5B29DF80C008542F5DB5B
:1057100003F039FA03F0D8FABDE8FF9F00BF00217B
:105720004FF0804001F046FB03F053FB002003F0F4
:1057300035FA03F0C9FAEFE700BF00BFCA480078A6
:1057400009283FF45AAE00BFE6E72DE9FC5F0446A6
:10575000012000903220FAF7A6FD0020C3494870CE
:10576000087004EB0411C24A881803F0A6F901205E
:10577000BE49487000200870BE4803F09EF900271B
:1057800018E0B64830F82700B54931F824108842AF
:1057900008DCB24830F82700B14901EB84014988A0
:1057A000884205DAB44830F81700AC4921F82700E0
:1057B000781CC7B20B2FE4D3DFF8A892DFF89CA2C5
:1057C0004FF02C08002705E019F8010B0AF8010B2F
:1057D000781CC7B24745F7DBA14830F8245000EBEE
:1057E000840046880B2C76D2DFE804F0063F761959
:1057F0002C4F628699ACC1000020FBF739FA99481A
:105800001C38808BA84204DC96481C38808BB04240
:1058100004DA4FF47A60914921F82400BDE00020B9
:10582000FBF726FA8F481C38008DA84204DC8D480F
:105830001C38008DB04204DA4FF47A70874921F8A1
:105840002400AAE00120FBF713FA86481C38008CDC
:10585000A84204DC83481C38008CB04204DA4FF4C0
:105860007A707E4921F8240097E07E481C38008C2D
:10587000A84204DC7B481C38008CB04204DA4FF4A8
:105880007A60764921F8240087E00020FBF7F0F9E0
:1058900074481C38008EA84204DC72481C38008E04
:1058A000B04204DA4FF4FA706C4921F8240074E035
:1058B0000120FBF7DDF96B481C38808EA84204DC20
:1058C00068481C38808EB04204DA4FF47A7063491D
:1058D00021F8240061E05FE062481C38808CA84217
:1058E00004DC60481C38808CB04204DA4FF47A70D3
:1058F0005A4921F8240050E00120FBF7B9F9594832
:105900001C38008FA84204DC56481C38008FB04277
:1059100004DA4FF47A70514921F824003DE0022066
:10592000FBF7A6F94F481C38808FA84204DC4D488D
:105930001C38808FB04204DA4FF47A70474921F85E
:1059400024002AE00320FBF793F946481C38B0F8FE
:105950004000A84205DC43481C38B0F84000B04283
:1059600004DA4FF47A703D4921F8240015E0032051
:10597000FBF77EF93B481C38B0F84400A84205DC30
:1059800038481C38B0F84400B04204DA4FF47A705A
:10599000324921F8240000E000BF00BF012781E068
:1059A0000098012828D100200090344810F804B055
:1059B00004200190294931F8240000235946019A16
:1059C000FAF79BFF0020294948700A2008702C48EC
:1059D00003F073F8002025494870087004EB0411A7
:1059E000234A881803F069F80120204948700020F4
:1059F0000870204803F061F80A2002F0FAFE8046A1
:105A0000B8F1680F41D009DCA8F16100072847D23E
:105A1000DFE800F00E181E4646384400A8F1E10009
:105A200007283DD2DFE800F00511173C3C2F3B0072
:105A300000BF2046FFF71AFC03F01AF8012000907F
:105A400000272EE0012000902BE00120009028E0AC
:105A50000120009025E00120009022E0D2010020EA
:105A600000A800080C01002003000020AE00002068
:105A700040A80008FBA800082CA8000895AA000868
:105A8000B000002000BFBDE8FC9F2046FFF7EEFB02
:105A900002F0EEFF01200090002702E000BFF2E7D5
:105AA00000BF00BF002F7FF47BAF00BFEBE72DE905
:105AB000FC4100200090012765E0012F04D1002760
:105AC0009DF80000FFF7B0FB0A2002F092FE019063
:105AD0009DF8040066283AD006DC61280BD06228C5
