:020000040800F2
:100000003007002045010008F902000849050008F2
:100010004D050008510500085505000800000000C6
:10002000000000000000000000000000590500086A
:100030005B050008000000005D0500085F05000882
:100040005F0100085F0100085F0100085F01000810
:100050005F0100085F010008E905000809060008C3
:10006000290600086D0600085F0100085F0100080E
:100070005F0100085F0100085F0100085F010008E0
:100080005F0100085F0100085F0100085F010008D0
:100090005F0100085F0100085F010008E705000834
:1000A0005F0100085F0100085F0100085F010008B0
:1000B0005F010008610500085F0100085F0100089A
:1000C0005F0100085F0100085F0100085F01000890
:1000D0005F010008FB0200085F0100085F010008E3
:1000E0005F0100085F0100085F0100085F01000870
:1000F0005F0100085F0100085F0100085F01000860
:100100005F0100085F0100085F0100085F0100084F
:100110005F0100085F0100085F0100085F0100083F
:100120005F0100085F0100085F0100085F0100082F
:10013000DFF80CD009F0DAFC00480047890100081C
:10014000300700200648804706480047FEE7FEE7E4
:10015000FEE7FEE7FEE7FEE7FEE7FEE7FEE7FEE777
:10016000EF8000083101000870B504460D46E1B289
:10017000234807F06DFA00BF8021214807F0D6FA26
:100180000028F9D0204670BD02201E49087036E0D4
:100190001C4800780A282CD2DFE800F02B2805083C
:1001A0000D121A1D202302F01BFA27E008F094FC20
:1001B00002F014FE22E008F08FFC02F0BAFE1DE00F
:1001C00008F08AFC00201049087002F0B6FE15E025
:1001D00003F0E6FC12E004F086FE0FE004F08AFF74
:1001E0000CE008F079FC05F096FC07E004F0DFFF76
:1001F00004E008F071FC04F0E8FF00BF00BFC7E7AF
:1002000000380140030000200200002010B505F076
:1002100003FF4FF4803005F01FFF05F05CFF01285D
:1002200020D1002005F09DFF002005F0ACFF4FF429
:10023000806005F09FFF4FF4E0114FF4803005F02F
:1002400073FF012005F07CFF00BF392005F027FF78
:100250000028FAD0022005F076FF00BF05F07CFFF1
:100260000828FBD110BD00E0401E0028FCD17047DB
:10027000014601EBC1024FF0E0235A6100229A616E
:1002800001221A6100BF4FF0E022106900F0010264
:100290001AB100F48032002AF5D000224FF0E0239A
:1002A0001A619A617047014642F228324A434FF080
:1002B000E0235A6100229A6101221A6100BF4FF0C7
:1002C000E022106900F001021AB100F48032002A25
:1002D000F5D000224FF0E0231A619A617047054A79
:1002E0001154704701460348405C08B9012070472B
:1002F0000020FCE719000020704710B540F225519E
:10030000E64807F029FA002873D02021E34807F0D7
:100310001AFAE34890F84800002846D1E148007EE8
:1003200000280FD10621DF4880F83910DB4807F09C
:1003300093F9C4B2DB48407E78B9AA2C03D00021DF
:10034000D84841768FE0D748417E407E401CC2B2FB
:10035000D44842761B30445485E0BB2C13D1D1489D
:10036000417E407E401CC2B2CE4842761B3044548F
:100370000120CC4908760846417E817600214176ED
:1003800080F839106FE0C748407E1E2803DB00214B
:10039000C448417667E0C348417E407E401CC2B2FB
:1003A000C04842761B3044545DE0BD4890F8480098
:1003B000012858D1BB48007E002854D10621B948F5
:1003C00080F83910B54807F047F9C4B2B548407E07
:1003D00080B9112C03D00021B248417643E0B148E6
:1003E000417E407E401CC2B2AE4842761B3044542F
:1003F00039E04CE0AB48407E01280FD1082C03D0F7
:100400000021A84841762EE0A648417E407E401C4F
:10041000C2B2A44842761B30445424E0A148407E36
:100420001E2803DB00219F4841761CE09D48417E49
:10043000407E401CC2B29B4842761B3044541B385D
:10044000407E02280FDD9748417E407FC01C8142DC
:1004500009D10120934908760846417E8176002122
:10046000417680F839109048007E00285DD1062141
:100470008C4880F83910894807F0EEF8C4B28A48F1
:10048000407E78B9FF2C03D00021874841764CE0AC
:100490008548417E407E401CC2B2834842761B3074
:1004A000445442E08048407E01280FD1EE2C03D016
:1004B00000217D48417638E07B48417E407E401CEB
:1004C000C2B2794842761B3044542EE07648407ED2
:1004D000042819D1DD2C03D000217348417624E093
:1004E0007148417E407E401CC2B26F4842761B304C
:1004F000445401206C4908760846417E81760021EB
:10050000417680F8391010E06748407E1E2803DBF2
:1005100000216548417608E06348417E407E401CEA
:10052000C2B2614842761B3044544FF458715B4864
:1005300007F012F938B10821584807F004F9574874
:1005400007F08AF8C4B210BD00BFFEE700BFFEE7A7
:1005500000BFFEE700BFFEE7704770477047704777
:1005600010B50121514806F033FF08F088F95048D2
:10057000007806281DD14F480078401C4D4908706E
:100580000846007809281ADD0020087001204A4931
:1005900008704A480089401C48490881484800685A
:1005A000401C4749086047480068401C45490860AE
:1005B00005E04048007810B100203E490870002452
:1005C00009E04148005D20B13F48005D401E3E49C2
:1005D0000855601CC4B2022CF3DB3C48007808B913
:1005E00008F0F7FC10BD704710B50121384805F040
:1005F00058FC28B92A48408A10B1052035490870AE
:10060000012005F0D2FF10BD10B50120FFF74BFE11
:1006100002212F4805F045FC10B908202D4908702B
:10062000022005F0C2FF10BD10B50520FFF73BFE0C
:100630000421274805F035FCA0B91D48007803289F
:1006400007D01B480078072803D0194800780828ED
:1006500006D105201649087000201F49087001E0E6
:1006600013480078042005F0A0FF10BD10B501204C
:10067000FFF719FE0821164805F013FC50B90C4885
:100680000078062803D107200949087002E00320FA
:1006900007490870082005F088FF10BD00380140A8
:1006A000F00000207C020020F00200200004004046
:1006B000030000203C00002001000020D4000020A6
:1006C000A4000020100000201900002000000020DD
:1006D00000140140040000202F00002010B500206D
:1006E000FE490870487008F076F9FD484088E8B186
:1006F000012804D002287DD003286ED13AE0F948C1
:1007000008F0FCF90620F549087001204870F6A0B1
:1007100008F007FA0E20F149087001204870F3A094
:1007200008F0FFF9F42008F099F9A2E0F048007809
:10073000012803D1EF4808F0E1F903E0ED48C01DBE
:1007400008F0DCF90620E549087001204870E4480B
:10075000808818B1E4A008F0E4F902E0E6A008F00F
:10076000E0F90E20DD49087001204870E3A008F090
:10077000D8F97EE0E2480078B0B9DA4808F0BEF96E
:100780000620D649087001204870D7A008F0C9F9A2
:100790000E20D249087001204870D4A008F0C1F999
:1007A000F42008F05BF924E0D1480078012803D157
:1007B000D04808F0A3F903E0CE48C01D08F09EF928
:1007C0000620C649087001204870C548808828B1B5
:1007D000C5A008F0A6F904E00CE049E0C6A008F0C6
:1007E000A0F90E20BD49087001204870C3A008F090
:1007F00098F93EE0C248007818BBBD48007801284F
:1008000003D1BC4808F07AF903E0BA48C01D08F0EB
:1008100075F90620B149087001204870B0488088F9
:1008200018B1B1A008F07DF902E0B3A008F079F9A1
:100830000E20AA49087001204870B0A008F071F994
:1008400015E0A84808F05AF90620A44908700120CC
:100850004870A5A008F065F90E20A0490870012095
:100860004870A2A008F05DF9F42008F0F7F800E065
:1008700000BF00BF072099490870002048709BA066
:1008800008F04FF9964909783131C8B208F028F9D3
:100890000F209249087000204870732008F026F954
:1008A00004208E4908700120487096A008F039F99C
:1008B00010BD8B484A2102E000220270401C0A1E33
:1008C000A1F1010399B2F7D18F4B1A707047002044
:1008D00010E0834A921C02EB40010A888B4B33F8EC
:1008E00020309A4204DD894A02EB800252880A8055
:1008F000421CD0B20D28ECDB7047F0B504461D4613
:10090000052A00DD052202B90122042900DD0421A7
:10091000914200DD1146002004E020267C4F3E5429
:10092000461CF0B20828F8D3104611E00A2694FBC2
:10093000F6F706FB17463036F7B2461EDFF8D0C191
:100940000CF806700A2694FBF6F6B4B2461EF0B216
:100950000028EBDC81B11346084605E05E1E6C4FB3
:10096000BE5DFE545E1EF3B2061EA0F10107F8B292
:10097000F4D12E26664FFE54A5B900200EE0644E39
:10098000365C302E07D1624F461CBE5D2E2E02D043
:1009900020263E5400E004E0461CF0B2561E86427B
:1009A000EDDC00BF09B1561CF2B2104604E000268F
:1009B000574F3E54461CF0B20828F8D3F0BD10B58E
:1009C000474890F8480018B9524808F097F807E0EF
:1009D000434890F84800012802D14F4808F08EF8AB
:1009E00010BD10B53E4890F8480020B94948153070
:1009F00008F084F808E03A4890F84800012803D14C
:100A00004548153008F07AF810BD10B543A008F03D
:100A100075F810BD10B5002030490870487007F017
:100A2000DAFFFFF7CCFF00202C4908700120487046
:100A300007F0D1FFFFF7D5FF10BD10B52C4909789D
:100A4000C1EBC101384A881808F06BF810BD10B529
:100A500023484088032802DD0020214948800020E7
:100A60001E490870487007F0B6FF1D49498801EB20
:100A700041012E4A02EB410008F053F807201749C4
:100A800008700020487016490978481C01231A464E
:100A90000021FFF732FF15A008F043F81C4808F0CA
:100AA0002DF80F484088012803DD21A008F026F822
:100AB00002E020A008F022F80A200849087008483F
:100AC0004088032803D006484088012837D10449CC
:100AD000488B0023042201212EE00000AE000020FC
:100AE000F0000020ABA00008444300004D000000CF
:100AF00004000020B9A00008414300006D4100003F
:100B00002F0000206B560000020000205CA70008A8
:100B1000B00000206EA8000805A800084F637420EC
:100B20003135203230323000C6A700082DA1000830
:100B30005F00000020000000FFF7DFFE06E0FD4937
:100B4000C889002304220121FFF7D7FEFA4807F0E5
:100B5000E8FFFAA007F0D2FF0020F9490870012051
:100B60004870F448808840B9F248C088B0F5167FD4
:100B700003DD4FF41671EF48C180EE48408801282C
:100B80000AD1EC49888A002303220221FFF7B5FE2F
:100B90000121E848818012E0E6484088032807D117
:100BA000E449888A002303220221FFF7A6FE06E01B
:100BB000E049C888002303220221FFF79EFEDE4899
:100BC00007F0AFFFAFF2C40007F098FF1421DD4833
:100BD00008F02DFCDB48D84909680160DAA108F06B
:100BE00031FCD448808840B9D2484088032804D0DA
:100BF000AFF2FC0007F082FF03E0AFF2141007F041
:100C00007DFFCC484088032803D0CA48408801288B
:100C10001CD10A20CA490870C649C88A0023042288
:100C20001946FFF76AFEC44807F07BFFAFF2441095
:100C300007F064FFF42007F011FFBF49C14808F036
:100C400001FCC2A1BF4808F0FDFB18E00920BC4927
:100C50000870B8490889002304220221FFF74DFEDD
:100C6000B54807F05EFFAFF26C1007F047FFB249DE
:100C7000B44808F0E7FBB7A1B24808F0E3FB10BDA9
:100C800070B50546B448047804F03F0475B1012DF1
:100C900009D0022D04D0032D09D144F0C00409E08D
:100CA00044F0800406E044F0400403E002E044F035
:100CB000C00400BF00BFA84804700020A749086016
:100CC000A5480078C0430006A349097840EA0120FE
:100CD000A34908600120A349C1F890016420FFF7EF
:100CE000E2FA70BD70B5044600209549087048705E
:100CF000254604EBD5714910A4EB4101C1EBC101BC
:100D000001EB4101984A881807F00BFF00208C493D
:100D1000087001204870954807F003FF70BDF8B5D2
:100D200004460127864800788DF800008448407802
:100D30008DF80100206808F091FBC6B2701CC6B2A5
:100D4000082E00DD082652E067B19DF800007C49BE
:100D500008709DF801004870A288216806FB021007
:100D600007F0DFFE0A2007F078FD0546E12D15D0DB
:100D700009DCA5F16100082837D2DFE800F00E2079
:100D80001136362E3331A5F1E20007282DD2DFE8E7
:100D900000F017082C2C252A280000BF6120F8BD80
:100DA00000BF0127A0886189884203DDA088401E1A
:100DB000A08003E06089A08008F05CF916E000BF25
:100DC0000127A088401CA080A0882189884203DDDB
:100DD0002089A08008F04EF908E000BF6620DEE719
:100DE00000BF00BF00BF6720D9E700BF00BFABE76F
:100DF00010B50446002052490870487004EB840185
:100E000001EBC4015A4A881807F08BFE00204C49B8
:100E1000087001204870574807F083FE10BD10B5D8
:100E200004460A2094FBF0F100FB1140C4B234B137
:100E3000012C11D0022C19D0032C31D123E03E48D3
:100E400007F06FFE202007F04BFE562007F048FE0B
:100E5000202007F045FE24E0374807F062FE2020FE
:100E600007F03EFE732007F03BFE1AE0324807F021
:100E700058FE202007F034FE4D2007F031FEF4200C
:100E800007F02EFE0DE02C4807F04BFE202007F067
:100E900027FE4D2007F024FEF42007F021FE00E09D
:100EA00000BF00BF10BD10B50446002024490870E3
:100EB00048700E2C13D2DFE804F007131FA5A6A775
:100EC000A8A9AAABF0F1F2F32BA007F02AFE0020AC
:100ED0001B490870012048702CA007F022FEFFE09B
:100EE0002EA007F01EFE0020154908700120487052
:100EF0002E4807F016FEF3E00E484088C8B10128DE
:100F000004D0022858D0032879D154E0A11E284AE1
:100F100002EB011007F005FE0020094908700120CE
:100F20004870611E01EB0111204A881807F0F9FD95
:100F300066E03FE0F0000020B000002073000000F9
:100F4000AE000020FE0100206B563B004DA6B83BD2
:100F5000000000006D413B00A10000209081224272
:100F600010140140008022427AA50008CEA5000896
:100F70004CA6000837A600084D656D6F72793D20BC
:100F800020202020202020200000000052616E67D9
:100F9000653A312D392020202020200054657374BB
:100FA00020203D20202020202020200045A10008D6
:100FB000C7A0000800BF00BF0020FB4908704870B0
:100FC000A11EFA4A02EB011007F0ABFD0020F64922
:100FD000087001204870F648808840B9A11E01EBD6
:100FE0000111F44A881807F09CFD07E007E0A11EF4
:100FF00001EB0111F04A881807F093FD00E000BFF3
:1010000000BF6DE000BF00BF00BF00BF00BF00BF5A
:10101000E7484088C8B1012804D0022817D0032827
:1010200034D113E0A11EE54A02EB011007F079FD6F
:101030000020DD49087001204870611E01EB01119C
:10104000DF4A881807F06DFD21E000BF00BFA11E38
:1010500001EB0111DB4A881807F063FD0020D2493B
:10106000087001204870D248808838B9611E01EBB1
:101070000111D04A881807F054FD06E0611E01EB0B
:101080000111CD4A881807F04CFD00E000BF00BFF9
:1010900026E005E003E001E0FFE700BF00BF00BF7E
:1010A000A11E01EB0111C74A881807F03AFD0C2C6C
:1010B00001D00B2C07D10E20BB49087000204870CE
:1010C000F42007F013FD0020B74908700120487094
:1010D000611E01EB0111BC4A881807F022FD00BF18
:1010E00000BF10BD2DE9F84304464FF00109AE489A
:1010F00000788DF80000AC4840788DF8010000279A
:10110000A07908B9032600E004268AE1B9F1000FAE
:1011100010D09DF80000A44908709DF801004870A7
:10112000A389DAB2A179A0880023FFF7E6FBA748DC
:1011300007F0F7FC0A2007F090FB8046B8F1E10FBA
:1011400015D009DCA8F16100082872D2DFE800F0B0
:101150000E9C127171FAF9F8A8F1E2000728F4D296
:10116000DFE800F0D13F6767F3F2F10000BF6120D4
:10117000BDE8F8834FF00109002795488079C0F158
:101180000300B04202DA701EC5B200E03546914855
:1011900030F8150061890844A188884206DCA088DF
:1011A0008C4931F81510401AA08019E06089052893
:1011B00002D06089062813D16089062806D1A0884C
:1011C00010B10020A08001E007F054FF60890528DD
:1011D00006D1A08810B10020A08001E007F04AFFEE
:1011E0001EE14FF00109781CC7B279488079C0F13F
:1011F0000300B04202DA701EC5B200E035461C2F73
:101200000CDD002D01DD681EC5B2002D01DD681E5C
:10121000C5B2002D14DD681EC5B211E0132F09DD23
:10122000002D01DD681EC5B2002D09DD681EC5B2A6
:1012300006E0EFE00A2F03DD002D01DD681EC5B2D8
:10124000644830F8150061890844A188884206DCAA
:10125000A088604931F81510401AA08013E0608919
:10126000062806D1A08810B10020A08001E007F078
:1012700001FF6089052806D1A08810B10020A08058
:1012800001E007F0F7FECBE04FF0010900275048DE
:101290008079C0F10300B04202DA701EC5B200E0EE
:1012A00035466089062802D0608905281CD16089EE
:1012B00006280AD1A08810B90620A08005E0A088E1
:1012C000444931F815100844A0806089052819D1D7
:1012D000A08810B90520A08014E0A0883D4931F80D
:1012E00015100844A0800DE0A0883A4931F8151087
:1012F0000844A080A0882189884203DD2089A0803D
:1013000007F0B8FE8CE04FF00109781CC7B23048F6
:101310008079C0F10300B04202DA701EC5B200E06D
:1013200035461C2F12DD002D01DD681EC5B2002DD3
:1013300001DD681EC5B2002D19DD681EC5B216E0BC
:1013400063E064E05EE061E062E05CE0132F08DDF2
:10135000002D01DD681EC5B2002D08DD681EC5B276
:1013600005E00A2F03DD002D01DD681EC5B260898E
:10137000062802D06089052835D1608906280AD15F
:10138000A08810B90620A08005E0A088114931F896
:1013900015100844A0806089052832D1A088D8B9EA
:1013A0000520A0802DE00000AE0000209AA10008DA
:1013B000F00000201AA200085CA40008C7A00008E2
:1013C00045A10008B3A200087FA30008B0000020D8
:1013D000C400002088A00008A088FD4931F815103D
:1013E0000844A0800DE0A088F94931F815100844A0
:1013F000A080A0882189884203DD2089A08007F091
:1014000039FE0DE000BF6620B2E600BF08E000BF75
:101410006720ADE6EF488078012800D0002700BFA4
:1014200000BF73E62DE9F041002500260027EA48B9
:10143000C08940F6D861884211DD012500BF002433
:1014400005E00020E54941F82400601CC4B20C2CE2
:10145000F7DB0020E2490870E249088009E0DE4835
:10146000C089B0F5B47F02DA0126002501E000252D
:1014700000260027DC480078002816DD012D14D155
:10148000D9480078401ED84908700127002405E09B
:101490000020D24941F82400601CC4B20C2CF7DBB8
:1014A0000020CF490870CF490880CF480078042831
:1014B00016DA012E14D1CC480078401CCA490870B5
:1014C0000127002405E00020C44941F82400601CE5
:1014D000C4B20C2CF7DB0020C1490870C149088058
:1014E000012F06D1C0480078FFF7CAFB3220FEF773
:1014F000DAFEBDE8F08101B590B00021109808F047
:10150000EFF910D2109808F08BF90022B74BCDE913
:10151000060108F072F8CDE9080108F0C5F910904D
:101520000120B3490870109808F07AF9B14AB24B1B
:10153000CDE9080108F088F901D211B000BD10987A
:1015400008F06EF9AD4AAE4BCDE9080108F094F908
:1015500058D2109808F064F9A84AA94BCDE90601C1
:1015600008F0BDF8CDE9080108F09EF90E90A548F5
:101570000D9000200B9026200A903FE0DDE90D1031
:1015800007F0FDFF4FF07E51099008F0A9F90ED247
:101590000D9808F045F900229B4BCDE9060108F0B3
:1015A0009EF8CDE9080108F07FF90D9000E028E0F1
:1015B0000D9808F035F9954A954BCDE9020108F0F0
:1015C0001CF8CDE90601109808F02AF9CDE90401CC
:1015D000DDE9062308F083F8CDE9080108F007F9F2
:1015E0000C9083490C9848600A9808720B98401C2C
:1015F00040B20B900A98401E40B20A900B98042803
:10160000BCDB19E2109808F00BF9824A824BCDE955
:10161000080108F031F958D2109808F001F97D4A14
:101620007D4BCDE9060108F05AF8CDE9080108F034
:101630003BF90E9079480D9000200B9023200A90E2
:101640003FE0DDE90D1007F09AFF4FF07E51099061
:1016500008F046F90ED20D9808F0E2F800226A4B25
:10166000CDE9060108F03BF8CDE9080108F01CF9C6
:101670000D9000E028E00D9808F0D2F8684A694B18
:10168000CDE9020107F0B9FFCDE90601109808F095
:10169000C7F8CDE90401DDE9062308F020F8CDE91B
:1016A000080108F0A4F80C9051490C9848600A9879
:1016B00008720B98401C40B20B900A98401E40B232
:1016C0000A900B980828BCDB9BE7109808F0A8F854
:1016D000554A564BCDE9080108F0CEF858D210987B
:1016E00008F09EF8504A514BCDE9060107F0F7FF8C
:1016F000CDE9080108F0D8F80E9048480D90002078
:101700000B901C200A903FE0DDE90D1007F037FF39
:101710004FF07E51099008F0E3F80ED20D9808F0D2
:101720007FF80022384BCDE9060107F0D8FFCDE95C
:10173000080108F0B9F80D9000E028E00D9808F0D5
:101740006FF83B4A3B4BCDE9020107F056FFCDE96C
:101750000601109808F064F8CDE90401DDE90623DC
:1017600007F0BDFFCDE9080108F041F80C902049D1
:101770000C9848600A9808720B98401C40B20B9075
:101780000A98401E40B20A900B980828BCDBE4E39C
:10179000109808F045F8284A284BCDE9080108F0D0
:1017A0006BF87CD2109808F03BF8234A234BCDE924
:1017B000060107F094FFCDE9080108F075F80E90D6
:1017C00016480D9000200B9015200A907AE000003A
:1017D00088A00008A8000020D40000207801002084
:1017E0000700002008000020060000200000F0BFD5
:1017F000E4000020ECCFC55FFFFF0F38824DC772B9
:101800006142334700007A440000244021D7E6FAC1
:10181000E031F44581121F2FE727C0458096184B11
:1018200092D54D06CFF0804450EFE2D6E41A4B44F7
:1018300000003426F56B0C430000901EC4BCD64259
:10184000DDE90D1007F09BFE4FF07E51099008F086
:1018500047F80ED20D9807F0E3FF0022F84BCDE9D0
:10186000060107F03CFFCDE9080108F01DF80D90D6
:1018700000E02AE00D9807F0D3FF0022F14BCDE9FC
:10188000020107F0BAFECDE90601109807F0C8FF83
:10189000CDE90401DDE9062307F021FF00E015E0B2
:1018A000CDE9080107F0A3FF0C90E7490C984860C8
:1018B0000A9808720B98401C40B20B900A98401E80
:1018C00040B20A900B980828BADB46E3109807F05C
:1018D000A7FF0022DD4BCDE9080107F0CDFF58D26C
:1018E000109807F09DFF0022D84BCDE9060107F0C4
:1018F000F6FECDE9080107F0D7FF0E90D4480D9011
:1019000000200B900D200A903FE0DDE90D1007F05C
:1019100036FE4FF07E51099007F0E2FF0ED20D988F
:1019200007F07EFF0022C64BCDE9060107F0D7FE87
:10193000CDE9080107F0B8FF0D9000E028E00D9810
:1019400007F06EFF0022BE4BCDE9020107F055FE05
:10195000CDE90601109807F063FFCDE90401DDE948
:10196000062307F0BCFECDE9080107F040FF0C900C
:10197000B5490C9848600A9808720B98401C40B210
:101980000B900A98401E40B20A900B980828BCDBC6
:10199000E3E24FF07E51109807F0ACFF4DD2109863
:1019A0000E90AB480D9000200B9007200A9021E08C
:1019B000DDE90D1007F0E3FD4FF07E51099007F0CF
:1019C0008FFF0ED20D9807F02BFF00229C4BCDE924
:1019D000060107F084FECDE9080107F065FF0D90D0
:1019E00000E00AE00B98401C40B20B900A98401EA1
:1019F00040B20A900B980828DADB00BF0D9807F078
:101A00000FFF944A944BCDE9020107F0F6FDCDE9B2
:101A10000601109807F004FFCDE90401DDE9062373
:101A200007F05DFECDE9080107F0E1FE0C90864964
:101A30000C9848600A9808728FE2109807F0F0FE40
:101A4000864A874BCDE9080107F016FF59D2109856
:101A500007F0E6FE00227D4BCDE9060107F0CDFD43
:101A6000CDE9080107F020FF0E9079480D90002085
:101A70000B900A9041E0DDE90D1007F080FD4FF07A
:101A80007E51099007F02CFF0ED20D9807F0C8FE8A
:101A900000226B4BCDE9060107F021FECDE90801DC
:101AA00007F002FF0D9000E02AE00D9807F0B8FE65
:101AB00002460B46CDE902016A486B4907F00FFE6A
:101AC000CDE90601109807F0ABFECDE90401DDE990
:101AD000062307F092FDCDE9080107F088FE0C907F
:101AE00059490C9848600A9808720B98401C40B2FB
:101AF0000B900A98401E40B20A900B980828BADB57
:101B00002BE2109807F08CFE584A594BCDE908019A
:101B100007F0B2FE5AD2109807F082FE554A564B93
:101B2000CDE9060107F069FDCDE9080107F0BCFE2B
:101B30000E9047480D9000200B90C01F0A9041E086
:101B4000DDE90D1007F01BFD4FF07E51099007F005
:101B5000C7FE0ED20D9807F063FE0022384BCDE988
:101B6000060107F0BCFDCDE9080107F09DFE0D90D0
:101B700000E02AE00D9807F053FE02460B46CDE93F
:101B800002013E483E4907F0AAFDCDE90601109842
:101B900007F046FECDE90401DDE9062307F02DFD3F
:101BA000CDE9080107F023FE0C9027490C98486006
:101BB0000A9808720B98401C40B20B900A98401E7D
:101BC00040B20A900B980828BADBC6E1109807F0DB
:101BD00027FE2C4A2C4BCDE9080107F04DFE7DD2A3
:101BE000109807F01DFE294A294BCDE9060107F0A0
:101BF00004FDCDE9080107F057FE0E9014480D9042
:101C000000200B906FF00D000A906EE0DDE90D10E2
:101C100007F0B5FC4FF07E51099007F061FE39D214
:101C20000D9807F0FDFD0022054BCDE9060107F0F8
:101C300056FDCDE9080107F037FE0D902BE00000BE
:101C40000000244084D79741E4000020D012634173
:101C50008096184B8DEDB5A0F7C6B03E48AFBC9A44
:101C6000F2D77A3E000040E59C30A2429B2BA18631
:101C70009B84063D0000901EC4BCD642408CB578C3
:101C80001DAF15444F9B0E0AB4E3923B50EFE2D6D2
:101C9000E41A4B442CE00D9807F0C2FD02460B46B7
:101CA000CDE90201FD48FE4907F019FDCDE9060125
:101CB000109807F0B5FDCDE90401DDE9062307F032
:101CC0009CFCCDE9080107F092FD0C90F5490C98B9
:101CD00048600A9808720B98401C00E009E040B286
:101CE0000B900A98401E40B20A900B9808288DDB92
:101CF00033E1109807F094FDEB4AEC4BCDE9080175
:101D000007F0BAFD5BD2109807F08AFDE84AE94B6C
:101D1000CDE9060107F071FCCDE9080107F0C4FD2B
:101D20000E90E5480D9000200B906FF014000A9083
:101D300041E0DDE90D1007F022FC4FF07E510990E3
:101D400007F0CEFD0ED20D9807F06AFD0022DB4BA6
:101D5000CDE9060107F0C3FCCDE9080107F0A4FDB9
:101D60000D9000E02AE00D9807F05AFD02460B4660
:101D7000CDE90201D248D34907F0B1FCCDE9060113
:101D8000109807F04DFDCDE90401DDE9062307F0C9
:101D900034FCCDE9080107F02AFD0C90C1490C98EC
:101DA00048600A9808720B98401C40B20B900A9841
:101DB000401E40B20A900B980828BADBCDE010987C
:101DC00007F02EFDC04AC14BCDE9080107F054FDD4
:101DD00061D2109807F024FDBD4ABE4BCDE9060143
:101DE00007F00BFCCDE9080107F05EFD0E90B2484C
:101DF0000D9000200B906FF01B000A9047E0DDE98A
:101E00000D1007F0BCFB4FF07E51099007F068FD04
:101E10000ED20D9807F004FD0022A84BCDE9060173
:101E200007F05DFCCDE9080107F03EFD0D9000E0F4
:101E300030E00D9807F0F4FC02460B46CDE90001B6
:101E4000A348A44907F04BFCCDE90401109807F022
:101E5000E7FCCDE90201DDE9042307F0CEFB002217
:101E60009D4BCDE9060107F0C8FBCDE9080107F05D
:101E7000BEFC0C908B490C9848600A9808720B982D
:101E8000401C40B20B900A98401E40B20A900B983A
:101E90000828B4DB61E0109807F0C2FC8F4A904B31
:101EA000CDE9060107F0A9FBCDE9080107F0FCFC2C
:101EB0000E908C480D9000200B906FF022000A903D
:101EC00047E0DDE90D1007F05AFB4FF07E51099015
:101ED00007F006FD0ED20D9807F0A2FC0022774B0A
:101EE000CDE9060107F0FBFBCDE9080107F0DCFCBA
:101EF0000D9000E030E00D9807F092FC02460B4692
:101F0000CDE900017548764907F0E9FBCDE9040108
:101F1000109807F085FCCDE90201DDE9042307F004
:101F20006CFB00226C4BCDE9060107F066FBCDE9A6
:101F3000080107F05CFC0C905A490C9848600A981C
:101F400008720B98401C40B20B900A98401E40B299
:101F50000A900B980428B4DB00BF00BFFFF7EDBA6E
:101F600070B5002560480078401C5F4908705F48E4
:101F7000C08949F64041884204DC5C48C089B0F51C
:101F8000FA6F06DA5A480078042802D00020564931
:101F9000087058498A6858490888411C564B19806E
:101FA000564941F82020184600880C2802DB002002
:101FB00019460880002408E0504850F824102846AC
:101FC00007F053FA0546601CC4B20C2CF4DB4648FB
:101FD00000780C2808DB4A49284607F0D0FA454922
:101FE00088600C204049087042498868FFF783FAEE
:101FF0002C4840684FF47A71B0FBF1F029494860F1
:1020000070BD70B53B49C86807F0D8FB0546394834
:102010000168284607F081FA0446364841682046A0
:1020200007F0ADFA3349886070BD10B52F48C089FC
:102030000A2802DA0A202D49C8812C49C88907F0EC
:10204000BDFB2C4948602F482949097850F82100E8
:102050002849C860FFF7D5FF10BD2DE9F0410024E5
:10206000012736E2012FFCD100270E2C15D2DFE824
:1020700004F0074F5D8586878889DD8AFEFDFCFBBD
:10208000214D2888401C2149888009200881012091
:102090004881002088710120888113E10284FEE4D8
:1020A00071D98945E4000020196050BEF6B01F3A8E
:1020B00081121F2FE727C0458096184B000024404F
:1020C000037CD8EA9BD0FE460F7AF8B7A595AA38CC
:1020D000824DC7726142334780842E41B1A1162AD6
:1020E000D3CED24700007A4407000020D40000205D
:1020F0000600002068010020080000207801002070
:102100000000404190A00008F0000020C400002022
:10211000F64DF748F7490860288888800320088131
:1021200000204881887101208881CBE0EF48801E23
:10213000408838B1012804D0022805D003281BD1DB
:1021400001E019E000BF00BFE848801E8088012838
:1021500003DD0021E548801E8180E44DAD1CE6488A
:10216000E44908602888888001200881002048818F
:1021700088710120888100BF00BFA3E000BF00BFBD
:1021800000BF00BF00BFD948801E408838B1012879
:1021900004D0022805D0032846D101E044E000BF66
:1021A00000BFD248001D00EB4400851FCF48801EB1
:1021B0008088E0B9D148CF49086028888880601EAF
:1021C000CF4931F82000CB490881601ECC4901EB92
:1021D00080004088C7494881E01ECA4911F81000B4
:1021E000C4498871C84830F8140088811BE0C3488E
:1021F000C049086028888880601EC44931F82000E2
:10220000BC490881601EC14901EB80004088B94982
:102210004881E01EBB4911F81000B6498871BA48E0
:1022200030F81400888100BF00BF4BE0AF48801E2B
:10223000008A012803DD0021AC48801E0182AB4DDD
:102240000E35B348AB49086028888880601EAC49C9
:1022500031F82000A7490881601EA94901EB8000E0
:102260004088A449488103E00AE008E006E004E071
:10227000002088710120888124E000BF00BF00BFDA
:102280009A48001D00EB4400851FA2489949086048
:1022900028888880601E9A4931F820009549088175
:1022A000601E974901EB8000408892494881E01EFA
:1022B000944911F810008F498871934830F8140040
:1022C000888100BF00BF2046FEF7EDFD0E2C76D2C0
:1022D000DFE804F007111B252F39434D57616B765A
:1022E00077780A208C490870002048708148FEF7F2
:1022F000F9FE804671E00820874908700020487088
:102300007C48FEF70CFD804667E00A208249087091
:10231000002048707748FEF702FD80465DE00A2005
:102320007D490870002048707248FEF7DBFE804649
:1023300053E0072078490870002048706D48FEF788
:10234000D1FE804649E0072073490870002048709C
:102350006848FEF7C7FE80463FE007206E490870D8
:10236000002048706348FEF7BDFE804635E0082037
:1023700069490870002048705E48FEF7B3FE804649
:102380002BE0072064490870002048705948FEF788
:10239000C6FC804621E007205F4908700020487095
:1023A0005448FEF79FFE804617E00A205A490870FD
:1023B000002048704F48FEF795FE80460DE00BE088
:1023C00000BF00BF082054490870002048704948E9
:1023D000FEF788FE804600E000BF00BF44B94548D4
:1023E0008088401E288006F0E8FBFEF770FA02E0C5
:1023F000404880882880B8F1680F61D009DCA8F1D6
:102400006100072863D2DFE800F00E464862624AA6
:102410005D00A8F1E100082859D2DFE800F0053D91
:102420003F585858545200BF3048801E40880128F9
:1024300002D1012C00D109242C48801E808801285B
:1024400006D1072C04D1601CC4B2601CC4B201E0E8
:10245000601CC4B2012C1CDD2448801E408840B1A1
:10246000012804D0022807D0032807D103E00E2654
:1024700006E00A2604E000BF0E2601E00E2600BF9B
:1024800000BFB44205DB002403202449087006F095
:1024900083FB01271CE000BF1AE000BF18E01348CF
:1024A000801EC088012803D102211048801EC180EF
:1024B00003201A49087006F06FFB06F03BFB07E0AB
:1024C00000BF05E000BF03201449087000E000BF12
:1024D00000BF1248007804283FF4C4ADBDE8F08185
:1024E000704702460B4688B270470000F200002099
:1024F00015A10008C400002007A100089AA1000847
:1025000028A7000890A70008A6A70008F4A60008BE
:102510000FA10008B3A20008AE00002003000020B5
:1025200010B54FF480732B4A2B492C4802F07AFEE9
:102530002A4802F0A1FE10BDF0B50446059D2746CD
:102540000E4602B9012207FB06FCBCFBF5FC0CFBA6
:1025500003FCBCFBF2F0F0BD30B50246002006E003
:10256000145C0A2594FBF5F4E3B2441CE0B2884203
:10257000F6DB30BD70B502460C46002012E0135C5D
:10258000DD1703EB15752911135CDD1703EB1575CA
:102590002D11A3EB051501EB810605EB460515543E
:1025A000431CD8B2A042EADB70BD30B50B460146F1
:1025B000C41700EB1474C4F30712C41700EB1474AF
:1025C0002411A0EB041402EB820504EB4504E0B2F5
:1025D00030BD0000889F00080C1001401C00024024
:1025E00070B506F0B3FC06F046FC00214FF08040C9
:1025F00004F014FCFEF75DF906F0A3FA06F0A1FA68
:1026000006F0DBFA06F0ADFA06F0E8FAFEF75FF93D
:10261000FE480078082802DD0020FC49087006F01A
:102620001BFD06F023FBFEF7F5F90020F8490870C2
:10263000002438E0601CC4B2142C02DD0320F549EC
:1026400008700A2006F009F90546682D25D009DC36
:10265000A5F16100072824D2DFE800F01517190E54
:102660001B1D2000A5F1E10007281AD2DFE800F0C9
:102670000C0E10051214170000BF0920E549087060
:1026800006F0F1FC0EE000BF0CE000BF0AE000BF66
:1026900008E000BF06E000BF04E003E000BF142430
:1026A00000E000BF00BFDB4800780228C2D006F07F
:1026B000C9FB70BD2DE9F04190B0FF260027D64838
:1026C000007E88B1D448407FD04981F848001E215F
:1026D000D1481B3006F0ABFE0020CF490876002120
:1026E000CD48417606F034FAC84890F848000028F2
:1026F0007ED1CA48007E00287BD01C2101A806F0AC
:1027000096FE1C22C5491D3101A806F077FEC3487C
:10271000067F457F0020C14908760021BF484176E9
:10272000DE2E67D006DCCC2E7ED0CE2E09D0DD2E5C
:102730007BD1C8E0EE2E79D0F22E78D0F32EF7D1EF
:10274000D2E0B7480078092837D2DFE800F0053634
:10275000360C132F1A212800B248B3A10A68026070
:102760000979017130E0AF48B1A10A6802600979C6
:10277000017129E0AB48B0A10A68026009790171D2
:1027800022E0A848AEA10A680260097901711BE045
:10279000A448ADA10A6802600979017114E0A1485A
:1027A000ABA10A680260097901710DE09D48AAA1F8
:1027B0000A6802600979017106E09A48A8A10A68CE
:1027C00002600979017100BF00BF15219348C01C48
:1027D00006F02DFEAA209149C87000200870102232
:1027E000A1498E48001D06F009FE8E498B4802E083
:1027F00013E211E27AE0C01C06F024FE00240EE091
:102800008648C01C015D994804F022FF00BF80216A
:10281000964804F08BFF0028F9D0601CC4B2152C38
:10282000EEDBBB21914803E046E0F4E17FE05CE0B1
:1028300004F00EFF00BF80218C4804F077FF0028D1
:10284000F9D08B480088022803D0894800880328E3
:1028500031D11521874806F0EAFDAA208549C91E15
:10286000C87000200870102283498248401C06F07E
:10287000C5FD6C497F4806F0E5FD00240DE07D486C
:10288000015D7A4804F0E4FE00BF8021774804F03F
:102890004DFF0028F9D0601CC4B2152CEFDBBB2122
:1028A000724804F0D5FE00BF8021704804F03EFF5E
:1028B0000028F9D0B0E1AFE1002070490870052090
:1028C00054490870A8E153480078062808D103202D
:1028D0005349087007204F49087006F0AEFA02E02D
:1028E00003204C49087097E196E195E135B1012D3F
:1028F00008D0102D0AD0112D10D10BE00020434933
:1029000048800CE001204149488008E002203F490E
:10291000488004E003203D49488000E000BF00BF3C
:1029200006F008F906F038F9FEF791F874E19DF821
:102930000500401E35490870AC2D04D0AD2D63D084
:10294000DC2D62D1ADE00021304881809DF8070088
:102950000121FFF72AFE80469DF806000121FFF7BE
:1029600024FE00EBC00101EB001008EB80012748BA
:10297000C1809DF809000121FFF717FE80469DF8F0
:1029800008000121FFF711FE00EBC00101EB001070
:1029900008EB80011D4801819DF80B000121FFF724
:1029A00004FE80469DF80A000121FFF7FEFD00EBC2
:1029B000C00101EB001008EB8001144841819DF833
:1029C0000D000121FFF7F1FD80469DF80C0001216B
:1029D000FFF7EBFD00EBC00101EB001008EB8001FD
:1029E0000A4881819DF80F000121FFF7DEFD804636
:1029F0009DF80E000121FFF7D8FD00EBC00101EBAF
:102A0000001008EB80013BE0B0E0FCE0F0000020AB
:102A10000500002003000020F00200207C020020BE
:102A200004000020400000204944454C0000000004
:102A300053544F5000000000504153530000000019
:102A400048494748000000004C4F57200000000054
:102A50004F464C200000000041524320000000007F
:102A60005445535400000000FE010020003801408E
:102A7000C8010020B9020020120200202F0000200F
:102A8000FB48C1819DF8101041829DF8110050282B
:102A900003D10021F648018202E00121F4480182BD
:102AA000B1E00121F24881809DF80700FFF77DFD2C
:102AB00080469DF806000121FFF777FD00EBC0017D
:102AC00001EB001008EB8001E948C1809DF8090086
:102AD0000121FFF76AFD80469DF808000121FFF7FC
:102AE00064FD00EBC00101EB001008EB8001E04841
:102AF00001819DF80B000121FFF757FD80469DF8ED
:102B00000A000121FFF751FD00EBC00101EB0010AD
:102B100008EB8001D64841819DF80D000121FFF7A7
:102B200044FD80469DF80C000121FFF73EFD00EBBF
:102B3000C00101EB001008EB8001CD4881819DF8B8
:102B40000F000121FFF731FD80469DF80E000121A5
:102B5000FFF72BFD00EBC00101EB001008EB80013B
:102B6000C348C1819DF8101041824CE09DF80700D8
:102B70000121FFF71AFD80469DF806000121FFF7AD
:102B800014FD00EBC00101EB001008EB8001B84818
:102B900081829DF809000121FFF707FD80469DF81D
:102BA00008000121FFF701FD00EBC00101EB00105F
:102BB00008EB8001AE48C1829DF80B000121FFF7B0
:102BC000F4FC80469DF80A000121FFF7EEFC00EBC3
:102BD000C00101EB001008EB8001A54801839DF8BE
:102BE0000D000121FFF7E1FC80469DF80C0001215A
:102BF000FFF7DBFC00EBC00101EB001008EB8001EC
:102C00009B48418300BF00BF05F094FF05F0C4FF5F
:102C1000FDF71DFF00E000BFDDE0954890F848009B
:102C20000128F9D19348007E78B11E2291491B31C9
:102C300008A806F0E3FB9DF822709DF823600020B1
:102C40008C49087600218B48417626B1012E44D06C
:102C5000022E41D151E0022F25D19DF824005428A5
:102C600009D100208449087005208449087001209A
:102C70008349087030E09DF8240052282CD17F4809
:102C8000007806280BD103207E49087007207B4975
:102C9000087006F0D2F80120794908701CE0032082
:102CA0007649087018E0032F16D19DF82400742887
:102CB00012D10020704908709DF825006C490870F9
:102CC00005F038FF03206D49087005F076FFFDF729
:102CD000FEFD0520694908707CE09DF824006449E8
:102CE000087005F027FF03206449087005F065FFB0
:102CF000FDF7EDFDFDF7ABFE6CE09DF824006249A9
:102D00000870084600788009594948805E48007874
:102D1000C0F34011564881805B480078C0F3001131
:102D2000534801825848007800F00F015048418212
:102D30009DF8251081829DF827009DF8261000EB54
:102D4000012081B24A48C1809DF829009DF82810D1
:102D500000EB012081B2464801819DF82B009DF8CF
:102D60002A1000EB012081B2414841819DF82D00DD
:102D70009DF82C1000EB012081B23D4881819DF827
:102D80002F009DF82E1000EB012081B23848C18140
:102D90009DF831009DF8301000EB012081B23448DD
:102DA000C1829DF833009DF8321000EB012081B202
:102DB0002F4801839DF835009DF8341000EB012069
:102DC00081B22B48418305F0B5FE05F0E5FEFDF725
:102DD0003EFE00BF00BF10B0BDE8F08170B500201E
:102DE00028490870FDF733FE05F058FF06F005F896
:102DF00000202149087096E0FFF75CFC0A2005F0EE
:102E00002CFD0446662C71D008DCA4F16100052875
:102E10006DD2DFE800F010143D576300E62C78D047
:102E200004DC672C76D0682C7BD167E0E72C72D06D
:102E3000E82C76D163E004201049087072E0134852
:102E40000078A0B90A480078401C09490870084673
:102E50000078082801DD0020087005F0AEFEFDF7BF
:102E600036FD05F067FE05F037FEFDF7F0FD59E091
:102E7000F00000207C0200202F0000200300002032
:102E80004800002004000020500000200500002021
:102E9000FE480078A8B9FE48007828B1FC480078C0
:102EA000401EFB49087002E00820F949087005F04F
:102EB00084FEFDF70CFD05F03DFE05F00DFEFDF76F
:102EC000C6FD2FE0F148007818B1F0480078401EA8
:102ED00000E00320C5B2ED48057023E0EB48007820
:102EE000032806DAE9480078401C03E010E018E007
:102EF0000FE00020C5B2E548057013E000BF0520D3
:102F0000E44908700020E44908700BE002E002E0A8
:102F100000BF00BF00BF0020DC490870DE49087018
:102F200000E000BF00BFDB48007803283FF464AF37
:102F300070BD10B5FFF791F810BD10B513E000207B
:102F4000D6490870D6490870D349087005F05AFE72
:102F500000214FF0804003F061FF0120D14908704B
:102F60000620CC490870CB4800780528E7D010BD72
:102F700010B5002005F046FE00214FF0804003F020
:102F80004DFF6420FDF78FF905F0D2FE10BD2DE94D
:102F9000FC5F0120C3490870BD48B0F802808088FA
:102FA000C0B20090BA488088BF49097860F34511E3
:102FB000BD480170B648408AC0B20190002005F0BB
:102FC00028FEB8F1000F2ED10020B8490870B04893
:102FD000C08800EB80004FF6FF7101EA4005AC4865
:102FE0008089012801D1022601E0A94886892C4662
:102FF0000327F020AE49088040F6D860AD4908802C
:103000009DF8000038B9AC4800884443A048808B44
:10301000B4FBF0F4CCE0A848408844439C48008CC2
:10302000B4FBF0F4C4E0B8F1010F1DD14FF4B4705B
:103030009F49088040F6D8609E49088001209B493E
:10304000087000269248808A00EB80004FF6FF71DE
:1030500001EA40052C4605279748808844438C4860
:10306000808CB4FBF0F4A3E0B8F1030F4FD1884893
:10307000808A00EB80004FF6FF7101EA400584482A
:103080008089012801D1022601E0814886892C46E9
:103090008A480078A0B94FF4B4708549088040F69A
:1030A000D8608449088001208049087005270026DF
:1030B0008148808844437648808CB4FBF0F477E004
:1030C000F0207B49088040F6D8607A4908800020CB
:1030D000764908706E48C08800EB80004FF6FF719B
:1030E00001EA40052C4603279DF8000038B97248D4
:1030F000008844436648808BB4FBF0F458E06E4887
:10310000408844436248008CB4FBF0F450E06B48C4
:10311000007870BBF0206649088040F6D8606549A9
:1031200008805B488089012801D1022601E05848C7
:1031300086895748C08800EB80004FF6FF7101EA8E
:1031400040052C4603270020584908709DF80000D0
:1031500038B95948008844434D48808BB4FBF0F49B
:1031600026E05548408844434948008CB4FBF0F4BD
:103170001EE0FFE74FF4B4704D49088040F6D86078
:103180004C49088000264248808A00EB80004FF6B8
:10319000FF7101EA40052C460527012043490870CC
:1031A0004548808844433A48808CB4FBF0F400BF23
:1031B000DFF8DC9009F11C094FF00B0BDFF800A1E0
:1031C0004FF02C0B002705E019F8010B0AF8010B52
:1031D000781CC7B25F45F7DB00203A4908603A49DE
:1031E00008803A4908603A4908803A4908703A49E3
:1031F00008803A4908803A4908703A4908803A49B3
:1032000008803A490870002708E00020384921F872
:103210001700384921F81700781CC7B2082FF4DBD3
:1032200031490C80002E7DD001202D4908702E4898
:103230000488B4FBF6F429490C800488B4FBF6F04A
:1032400006FB104424490C8024480088012869DAD0
:103250000A20234908702448048804EB84004400B1
:10326000B4FBF6F41D490C801F48048804EB84006D
:103270004400B4FBF6F006FB104417490C801748D5
:10328000008801284EDA6420154936E00500002048
:10329000F000002003000020000000201B000020A0
:1032A0001C00002004000020500000202E00002000
:1032B0003000002032000020340000202F000020C9
:1032C000D20100200C0000201E000020140000206D
:1032D00020000020220000202400002026000020E2
:1032E000280000202A0000202C00002001000020DF
:1032F000A8010020B801002014E00870FE480488EE
:1033000004EB84004400B4FBF6F4FC490C80FA485A
:10331000048804EB84004400B4FBF6F006FB104480
:10332000F7490C80B8F1000F12D0B8F1010F06D0A8
:10333000B8F1020F54D0B8F1030F7CD126E005F0AC
:10334000B3FD022005F0E9FD0220EE49087077E0A8
:103350009DF8000048B105F0A7FD022005F0DDFD55
:103360009DF8040005F055FC0FE005F0B9FDE648B6
:10337000008A18B1012005F0D0FD02E0002005F020
:10338000CCFD9DF8040005F044FC59E0DF480078CE
:1033900040B905F089FD022005F0BFFD0220D949A2
:1033A00008701CE09DF8000048B105F07DFD02208A
:1033B00005F0B3FD9DF8040005F02BFC0FE005F0CF
:1033C0008FFDD148008A18B1012005F0A6FD02E06A
:1033D000002005F0A2FD9DF8040005F01AFC2FE086
:1033E000CA480078F0B99DF8000048B105F05CFDCE
:1033F000022005F092FD9DF8040005F00AFC19E09A
:1034000005F06EFDC048008A18B1012005F085FD69
:1034100002E0002005F081FD9DF8040005F0F9FBB5
:1034200008E008E005F040FD022005F076FD0220EE
:10343000B449087004E00720B5490870BDE8FC9F56
:1034400000BF002005F0DEFB0121880703F0E6FC49
:1034500005F0EEFC0020AF49087008460078FDF743
:103460000FFC05F0CAFC05F019FC05F049FC08202A
:10347000A949087002204870162008700220487080
:1034800000200870A548007800EB4000202101EBE7
:10349000C000A149487000200870A048007800EBE7
:1034A0004000C00020304870B8F1000F09D0B8F1DA
:1034B000010F07D0B8F1020F05D0B8F1030F04D106
:1034C00002E000BF02E001E000E000BF00BF00201A
:1034D00091490870FDF7B1FA00BFAFE738B59048E1
:1034E0000068B0F5805F03D340F6FF708C49086038
:1034F0008C480088B0F5805F03DB40F6FF70894997
:10350000088089480088002852D0012804D0022869
:103510007DD003287CD1BBE184484089804A00905B
:10352000126893B27B4A1278D21D804D05EB82025D
:103530005188784A1278D21D35F82200794A1288CB
:10354000FEF7FAFF04467A490C6008460068B0F5B9
:10355000617F0DD928464089714A0090126893B264
:103560002A46518D108D6F4A1288FEF7E5FF0446FA
:103570006F4804606A48006800EB800044006B48B4
:103580000089444369484089B4FBF0F40A20B4FB45
:10359000F0F100FB1140042800D90A340A20B4FBE2
:1035A000F0F4A0B20A2190FBF1F05D4908603EE220
:1035B0005C48008800EB800044005348808840BB92
:1035C00054480078C01C594931F820004443514800
:1035D0000078C01C01EB80004088B4FBF0F40A20A6
:1035E000B4FBF0F100FB1140042800D90A340A2092
:1035F000B4FBF0F44F49CC814948006800EB8000EF
:1036000044004A48008844434848408802E04FE06C
:103610000CE213E0B4FBF0F40A20B4FBF0F100FB81
:103620001140042800D90A340A20B4FBF0F4A0B2F7
:103630000A2190FBF1F03A49086038E035480078FB
:10364000401D3A4931F82000444332480078401D7B
:1036500001EB80004088B4FBF0F40A20B4FBF0F1E9
:1036600000FB1140042800D90A340A20B4FBF0F40E
:103670003049CC812A48006800EB800044002B4888
:10368000808844432948C088B4FBF0F40A20B4FB86
:10369000F0F100FB1140042800D90A340A20B4FBE1
:1036A000F0F4A0B20A2190FBF1F01D490860BEE1E0
:1036B0001648007800287CD11A48008800EB80006A
:1036C000440011488088B8BB12480078C01C1749D4
:1036D00031F8200044430F480078C01C01EB800003
:1036E0004088B4FBF0F40A20B4FBF0F100FB114079
:1036F000042800D90A3420E02C00002026000020F5
:103700002400002004000020F00000202F000020F2
:103710000300002006000020AE0000201C00002056
:103720000C0000201E000020C8010020D201002053
:1037300014000020D400002022E00A20B4FBF0F4A2
:10374000FA49CC81FA48006800EB80004400F9484F
:1037500000884443F7484088B4FBF0F40A20B4FBE7
:10376000F0F100FB1140042800D90A340A20B4FB10
:10377000F0F4A0B20A2190FBF1F0ED49086086E078
:10378000ED480078401DEB4931F820004443EA48F9
:103790000078401D01EB80004088B4FBF0F40A2063
:1037A000B4FBF0F100FB1140042800D90A340A20D0
:1037B00000E021E0B4FBF0F4DC49CC81DC48006897
:1037C00000EB80004400DB4880884443D948C0882F
:1037D000B4FBF0F40A20B4FBF0F100FB1140042824
:1037E00000D90A340A20B4FBF0F4A0B20A2190FBFD
:1037F000F1F0CF4908604AE0CE484089CC4A0090B9
:10380000126893B2CC4A1278D21DCA4D05EB8202DF
:103810005188C94A1278D21D35F82200C74A128849
:10382000FEF78AFE0446C6490C6008460068B0F5FB
:10383000617F0DD928464089BD4A0090126893B235
:103840002A46518D108DBD4A1288FEF775FE04463A
:10385000BB480460B648006800EB80004400B548EF
:1038600000894443B3484089B4FBF0F40A20B4FB18
:10387000F0F100FB1140042800D90A340A20B4FBFF
:10388000F0F4A0B20A2190FBF1F0A9490860CEE063
:10389000AC480078E8BBA7484089A54A0090126868
:1038A00093B2A54A1278D21DA24D05EB820251882F
:1038B000A14A1278D21D35F82200A04A1288FEF7DC
:1038C0003BFE04469E490C6008460068B0F5617FE7
:1038D0000DD928464089964A0090126893B22A462C
:1038E000518D108D954A1288FEF726FE04469448A5
:1038F00004608F48006800EB800044008D48008918
:1039000044438C484089B4FBF0F40A20B4FBF0F146
:1039100000E00EE000FB1140042800D90A340A2020
:10392000B4FBF0F4A0B20A2190FBF1F080490860EA
:103930007BE08248008800EB800044008248808859
:10394000C8BB7D480078C01C7A4931F82000444348
:1039500079480078C01C01EB80004088B4FBF0F48B
:103960000A20B4FBF0F100FB1140042800D90A340E
:103970000A20B4FBF0F46D49CC816D48006800EB7F
:10398000800044006B48008844436A484088B4FB88
:10399000F0F40A20B4FBF0F100FB1140042800D938
:1039A0000A340A20B4FBF0F4A0B20A2190FBF1F033
:1039B0005F49086039E0FFE75F480078401D5D49D6
:1039C00031F8200044435C480078401D01EB800042
:1039D0004088B4FBF0F40A20B4FBF0F100FB114086
:1039E000042800D90A340A20B4FBF0F44F49CC81F2
:1039F0004F48006800EB800044004E4880884443F4
:103A00004C48C088B4FBF0F40A20B4FBF0F100FB92
:103A10001140042800D90A340A20B4FBF0F4A0B203
:103A20000A2190FBF1F04249086000E000BF00BFAE
:103A300038BD0CB545480078082804DA43480078BA
:103A4000401C42490870072001900EE09DF80400D8
:103A5000401E3F4931F810009DF8042021F8120063
:103A60009DF80400401EC0B201909DF8040000289B
:103A7000ECDC2F480068364908800020009033486D
:103A80000078019007E032489DF8041030F81100EA
:103A90000099084400909DF80400411EC9B20191AC
:103AA0000028F0D1294909780098B0FBF1F0009086
:103AB000009880B21E490860072001900EE09DF832
:103AC0000400401E234931F810009DF8042021F81D
:103AD00012009DF80400401EC0B201909DF8040041
:103AE0000028ECDC154800881A4908800020009066
:103AF00016480078019007E016489DF8041030F849
:103B000011000099084400909DF80400411EC9B2BC
:103B100001910028F0D10D4909780098B0FBF1F02F
:103B200000900649009808800CBD0000D4000020D9
:103B30000C000020D2010020060000201E00002002
:103B4000140000202F000020F000002022000020A0
:103B5000A8010020B80100200EB5002001900090BF
:103B600002900EE005F05EF801990844019005F01E
:103B70005FF80099084400909DF80800401CC0B20E
:103B800002909DF808001028ECDB0198C0F30F109C
:103B9000FE4908600098C0F30F10FD4908800EBD73
:103BA0002DE9F04F87B00025AB460026A946AA466E
:103BB0000024F8484088F84908800846008805280D
:103BC0007ED2DFE800F0170367389800F3480078EA
:103BD00020F0C0004030F1490870EE48C08AEE493C
:103BE000C880EC48008B0881EA48408B488002205E
:103BF000059087E0E948007820F0C000E7490870A8
:103C0000E4480089E449C880E24840890881E148E5
:103C1000C0894880DF488089012802D1022088803D
:103C200003E0DC488089DC498880DA48808800909D
:103C30000120059066E0D948007820F0C000C0302F
:103C4000D6490870D648007860B9D248C08AD249AF
:103C5000C880D048008B0881CE48408B4880022025
:103C6000059016E001200590CA480089CA49C8801D
:103C7000C84840890881C748C0894880C5488089AC
:103C8000012802D10220888003E0C2488089C2490D
:103C9000888037E0C148007820F0C0008030BF49FC
:103CA0000870BF480078C8B901200590B94800895C
:103CB000B949C880B74840890881B648C08900E042
:103CC0001AE04880B3488089012802D10220888008
:103CD00010E0B0488089B04988800BE00220059050
:103CE000AC48C08AAC49C880AA48008B0881A94862
:103CF000408B488006E005E00720AA49087007B01D
:103D0000BDE8F08F00BFFFF742F900200390049058
:103D10000290A5490860A5490881A5490880A549E0
:103D200008700978A44A12781144C8B2FCF7A8FFB9
:103D300000F0C7BFA148007801286CD100209F493E
:103D400008700125BDF8100042F20F71884204DAB4
:103D5000BDF81000401C80B20490994800780128FA
:103D600026D19DF80C00401CC0B203909DF80C00B9
:103D700094490978884208DB002003908C48008829
:103D80009149098808448A490880884800898249FD
:103D90008988884222DB0020844908818B4800887A
:103DA000834908800220864908704FF0010B15E016
:103DB000864800887E4908807748408800280DDDC5
:103DC0007A48008974494988884207DB0720754989
:103DD000087004207A4908704FF0010B744800887D
:103DE00004F010FF9DF80800401CC0B202909DF83E
:103DF0000800092190FBF1F201FB1200C0B2029011
:103E00009DF80800052802DA04F0C1FB01E004F087
:103E1000BAFBFCF763FCFFF79FFEFFF70AFEFFF714
:103E20005DFB5B4800886A490988884204DD4FF0E1
:103E300001094FF0000A0DE05548008865490988DE
:103E4000884204DA4FF0010A4FF0000902E04FF017
:103E50000009CA460024574800789DF8141088428B
:103E600008DABAF1010F05D152480078401C5149D7
:103E7000087001244F480078002808DDB9F1010FCF
:103E800005D14C480078401E4A4908700124012C95
:103E90001FD100205049087006900AE000204F49C9
:103EA0009DF8182021F812009DF81800401CC0B29F
:103EB00006909DF818000828F0DB3E4909783E4A34
:103EC00012781144C8B2FCF7DBFE3220FCF7EBF9A4
:103ED0000CE13148008830B101282DD0022853D0A0
:103EE000032852D140E033480078012806D12F48FA
:103EF000C0890A2190FBF1F02C49C881BDF800006F
:103F0000012803D140F22620019002E04FF4966090
:103F100001902648C089BDF80410884203DD4FF6A1
:103F2000FF702249C88134B91B488088BDF8101041
:103F3000884200DC0126D8E01548008848B12848AE
:103F400000682849884208D94FF6FF702449086064
:103F500003E04FF6FF702249086024B9BDF8100055
:103F6000022800DB0126C0E00D480078E0BB0848CD
:103F70000088D0B31A4800681A4988423AD94FF6E7
:103F8000FF701749086035E067E0ADE00C000020E5
:103F90001E000020F0000020C8010020500000207A
:103FA0002F0000200300002010000020D40000207B
:103FB0002A000020060000202E0000200100002022
:103FC0000400002028000020260000202C000020F3
:103FD000320000203000002022000020B801002024
:103FE000140000209F8601000BE0FFE74FF6FF70F2
:103FF000F949086084BBBDF8100002282CDB0126BB
:104000002AE0F6480078012806D1F548C0890A213F
:1040100090FBF1F0F249C8814FF496600190BDF831
:104020000000012803D140F22620019002E04FF465
:1040300096600190EA48C089BDF80410884203DD0B
:104040004FF6FF70E649C88134B9E6488088BDF86C
:104050001010884200DC012647E0E348007858BB96
:10406000DE480078012806D1DD48C0890A2190FB8E
:10407000F1F0DB49C8814FF496600190BDF8000073
:10408000012803D140F22620019002E04FF496600F
:104090000190D348C089BDF80410884203DD4FF673
:1040A000FF70CF49C881F4B9CE488088BDF81010A0
:1040B000884218DC012616E0CC48008848B1C64882
:1040C0000068CB49884208D94FF6FF70C2490860A2
:1040D00003E04FF6FF70C049086024B9BDF8100036
:1040E000022800DB012600E000BF00BFC1480078C5
:1040F00002287BD1012EFCD1002CFAD1B9480088CE
:1041000030B1012820D0022871D0032870D15EE0A0
:10411000B348C0890190B348C088BDF804108842F4
:1041200005DA0620B34908700220B3498870AD480B
:104130000089BDF80410884205DD0720AD490870EC
:104140000320AD4988701BE1A348006880B201904C
:10415000A248007820B101280BD0022819D110E024
:10416000BDF804004FF47A7190FBF1F080B2019039
:1041700010E0BDF80400642190FBF1F080B20190E2
:1041800008E0BDF804000A2190FBF1F080B2019034
:1041900000E000BF00BF9348C088BDF8041088420B
:1041A00008DA9048C08828B1062092490870082093
:1041B000914988708B480089BDF80410884205DD5C
:1041C00007208C49087009208B498870D8E0864800
:1041D0000078C8BB8048006880B201907F480078B2
:1041E00038B101280ED002281CD113E0C9E05CE0F0
:1041F000C5E0BDF804004FF47A7190FBF1F080B295
:10420000019010E0BDF80400642190FBF1F080B251
:10421000019008E0BDF804000A2190FBF1F080B2A3
:10422000019000E000BF00BF6E48C088BDF80410D8
:1042300088420ADA6B48C08838B106206D49087098
:1042400008206D49887003E013E006206A498870F1
:1042500064480089BDF80410884206DD07206549DE
:1042600008700920644988701EE006206249887041
:104270001AE05B48C08901905A48C088BDF8041014
:10428000884205DA06205B49087002205B49887085
:1042900054480089BDF80410884205DD07205549BF
:1042A00008700320554988706AE04F48007818BBB1
:1042B0004B48C08901904B48C088BDF80410884223
:1042C00006DA06204B49087002204B49887002E04C
:1042D00000204949887043480089BDF8041088428D
:1042E00006DD07204349087003204349887045E0F4
:1042F00000204149887041E03748006880B2019051
:104300003648007820B101280BD0022819D110E0DE
:10431000BDF804004FF47A7190FBF1F080B2019087
:1043200010E0BDF80400642190FBF1F080B2019030
:1043300008E0BDF804000A2190FBF1F080B2019082
:1043400000E000BF00BF2748C088BDF804108842C5
:1043500008DA2448C08828B10620264908700820B9
:10436000264988701F480089BDF80410884205DD81
:1043700007202049087009202049887000E000BF0C
:1043800000BF1C48007806280BD01A480078072880
:1043900007D018480078052803D016480078082868
:1043A00008D1012016490870072016490870012518
:1043B0004FF0010B012D7DD100250020124908701E
:1043C000012048700748008800B3012873D00228F4
:1043D00072D0032871D1A5E014000020060000204F
:1043E000D4000020C80100202F0000201E00002063
:1043F0009F86010004000020260200203A020020CF
:104400000000002003000020AE000020FE48C0880D
:10441000FE49096888420BD9FB48C088FB490968F6
:10442000401A02280FD8F848C088F84908600AE006
:10443000F548C088F5490968081A022803D8F248E7
:10444000C088F2490860F149096888B20123032253
:104450000221FCF752FAEE4804F063FB1421ED4808
:1044600004F0E5FFEB48EA4909680160EAA104F0BD
:10447000E9FFE6480068000AE8490871E348006877
:1044800048710920E6490870E649C88900230422DA
:104490000221FCF732FADE49DE4804F0D3FFE2489D
:1044A0000078082824D0DA4804F03BFBD84805F00F
:1044B00056FD03E0B9E376E15EE2A4E3074605F0CA
:1044C000F3F9DA490860DAA004F018FBD74800785D
:1044D000D2498871D5484078C871D448807808722C
:1044E000D248C0784872D3A1CA4804F0ABFF10E0AC
:1044F000C748D1A10A6802600979017104F011FB73
:10450000CFA004F0FBFAFF20C4498871C87108727B
:104510004872C44800890012C0498872C1480089A5
:10452000C87271E3C748007800287CD1B648808AF9
:10453000B649096888420BD9B348808AB3490968EB
:10454000401A02280FD8B048808AB04908600AE0B3
:10455000AD48808AAD490968081A022803D8AA48DC
:10456000808AAA490860A949096888B20123032200
:104570000221FCF7C2F9A64804F0D3FA1421A54899
:1045800004F055FFA348A24909680160A2A104F004
:1045900059FF9E480068000AA04908719B480068BE
:1045A000487109209E490870A748006842F20F71BF
:1045B000884225D9A5480078022810D1A248006871
:1045C0000A21B0FBF1F087B2A14AA0480078401C54
:1045D000115C012305223846FCF78FF91BE09A484D
:1045E00000680A21B0FBF1F087B2994A9748007839
:1045F000401C115C012304223846FCF77EF90AE0D6
:10460000934A924B1B78D15C8F4A126890B2012377
:104610000422FCF772F98C4800684FF6FF7188425B
:104620001ED07B4800E035E004F07BFA78497948F9
:1046300004F008FF764805F092FC074605F034F9CF
:104640007A4908600846007874498871774840784C
:10465000C8717648807808727448C07848720CE057
:104660007CA004F05EFA7BA16A4804F0EBFEFF2018
:104670006A498871C8710872487278A1654804F067
:10468000E1FE684800890012644988726548008923
:10469000C87287E05C48C0885C49096888420BD9C9
:1046A0005948C08859490968401A02280FD8564805
:1046B000C088564908600AE05348C08853490968D1
:1046C000081A022803D85048C088504908604F494A
:1046D000096888B2012303220221FCF70EF94C4835
:1046E00004F01FFA14215F4804F0A1FE5D48484918
:1046F0000968016048A104F0A5FE44480068000A6A
:1047000059490871414800684871092044490870B6
:104710004449C889012304220221FCF7EEF83C49F0
:104720003C4804F08FFE4048007808281CD03848E8
:1047300004F0F7F9364805F012FC074605F0B4F826
:104740003A490860084600784749887137484078F8
:10475000C8713648807808723448C078487235A1EC
:104760002C4804F06FFE0DE0294833A10A6802606E
:104770000979017104F0D5F9FF203B498871C871AE
:1047800008724872224805F0EAFB074605F08CF8EB
:10479000264908602348008900123349887221485D
:1047A0000089C87230E21848808A1849096888422E
:1047B0000BD91548808A15490968401A02280FD874
:1047C0001148808A114908600AE00F48808A0F4921
:1047D0000968081A022803D80B48808A0B49086028
:1047E0000A49096888B2012303220221FCF785F8EF
:1047F000074804F096F91421064804F018FE05480D
:1048000003490968016031E0F00000200C0000203D
:10481000B0000020FE0100206B563B002602002065
:10482000AE000020D4000020040000204C00002036
:104830006D4100006D413B004F464C41200000009F
:10484000202000002F00002014000020060000207F
:104850000BA900082D2D2D2D2D0000004DA6B83BD5
:1048600000000000120200203A020020AFF25801BE
:1048700004F0E8FDFA480068000AFA490871F848AF
:10488000006848710920F8490870F848006842F249
:104890000F71884225D9F6480078022810D1F348D4
:1048A00000680A21B0FBF1F087B2F24AF0480078C4
:1048B000401C115C002305223846FCF71EF81BE063
:1048C000EA4800680A21B0FBF1F087B2E94AE848FB
:1048D0000078401C115C002304223846FCF70DF8D8
:1048E0000AE0E44AE24B1B78D15CE04A126890B2DD
:1048F00001230422FCF701F8DC4800684FF6FF7141
:1049000088421CD0DC4804F00CF9DB49DB4804F099
:1049100099FDD94805F023FB074604F0C5FFD849A7
:10492000086008460078CF498871D5484078C8713A
:10493000D34880780872D248C07848720EE0AFF24F
:10494000EC0004F0EEF8AFF2F401CC4804F07AFD8C
:10495000FF20C4498871C87108724872AFF204110F
:10496000C64804F06FFDC74800890012BD4988722F
:10497000C4480089C87247E1C3480078F0BBC34807
:10498000C088B749096888420BD9C048C088B44973
:104990000968401A02280FD8BC48C088B04908608E
:1049A0000AE0BA48C088AE490968081A022803D844
:1049B000B648C088AA490860A949096888B2012395
:1049C00003220221FBF799FFAB4804F0AAF8142157
:1049D000AA4804F02CFDA948A74909680160AFF274
:1049E000C81104F02FFD9E480068000A9D49087117
:1049F0009B480068487109209B4900E04DE0087021
:104A0000A049C889012304220221FBF776FF9A49B5
:104A10009A4804F017FD9E480078082821D096484F
:104A200004F07FF8944805F09AFA074604F03CFF3A
:104A300093490860AFF2082004F060F890480078CD
:104A4000884988718E484078C8718D48807808728E
:104A50008B48C0784872AFF22421884804F0F2FCF9
:104A600012E08548AFF230210A68026009790171CD
:104A700004F057F8AFF2382004F040F8FF207949ED
:104A80008871C871087248727E48008900127549A1
:104A900088727C480089C872B4E07C48808A70497A
:104AA000096888420BD97948808A6D490968401A9B
:104AB00002280FD87548808A694908600AE073485F
:104AC000808A67490968081A022803D86F48808AD3
:104AD000634908606249096888B201230322022100
:104AE000FBF70BFF644804F01CF81421694804F03C
:104AF0009EFC6848604909680160AFF2E42104F057
:104B0000A1FC57480068000A6349087154480068CE
:104B100048710920544908705448006842F20F71E6
:104B2000884225D952480078022810D14F480068A1
:104B30000A21B0FBF1F087B24E4A4D480078401C84
:104B4000115C002305223846FBF7D7FE1BE04748DF
:104B500000680A21B0FBF1F087B2464A4448007869
:104B6000401C115C002304223846FBF7C6FE0AE015
:104B7000404A3F4B1B78D15C3C4A126890B20123FB
:104B80000422FBF7BAFE394800684FF6FF718842ED
:104B90001CD0394803F0C5FF3749384804F052FCAF
:104BA000354805F0DCF9074604F07EFE344908601C
:104BB000084600783849887131484078C8713048D3
:104BC000807808722E48C07848720EE0AFF27C30D0
:104BD00003F0A7FFAFF284312E4804F033FCFF202E
:104BE0002D498871C87108724872AFF29031294816
:104BF00004F028FC234800890012274988722148C4
:104C00000089C87200E000BF00BF0A201649087082
:104C1000002048701B490889002304220121FBF76A
:104C20006CFE154803F07DFF00BFFDF743FD03F068
:104C300009FE06909DF81800662833D008DC62282B
:104C40002CD063282BD064282AD0652837D128E0BF
:104C5000672829D0E62826D0E72830D125E00000B3
:104C60000C00002026020020AE00002014000020CE
:104C7000060000200BA90008B0000020FE01002063
:104C80004C000020D40000202F000020F000002065
:104C900004000020120200203A02002010E00FE081
:104CA0000EE00DE000BF00BF00BF0320F849087010
:104CB0000720F849087004F0C0F8FFF720B800BFDB
:104CC00000BFF448007806283FF434A8F248007882
:104CD000401CF149087004F0B0F800BFEDE710B5D2
:104CE0005A20EE490870592048705A20EC49087043
:104CF00059204870EB48008AEB49097860F30411A9
:104D0000E9480170E748408AE749097860F3030100
:104D1000E54801700078E149C870E3480078E0494F
:104D2000C870E2480078002867D1E148008870B96F
:104D3000D7480078032805D0042807D10020D74998
:104D4000887003E00120D549887000BF55E0D8483D
:104D5000008801280ED1CE480078032805D0042809
:104D600007D10620CD49887003E00720CB49887021
:104D700000BF42E0CE48008803281DD1C448007817
:104D8000032808D0042816D10620C44988700020C2
:104D9000C34988700FE0C0480078012803D107207C
:104DA000BE49887006E0BC480078022802D1012084
:104DB000BB49887000BF20E0BD48008802281CD194
:104DC000B3480078032808D0042815D10020B3493F
:104DD00088700620B24988700EE0AF48007801283C
:104DE00002D1AE49887006E0AB480078022802D1B3
:104DF0000720AB49887000BF00BFAC48007820B3E3
:104E0000AB48008810BBA2480078C01E06281CD200
:104E1000DFE800F00F0313070B1700209F4988708D
:104E200013E002209D4988700FE003209B498870A1
:104E30000BE001209949887007E0042097498870A9
:104E400003E005209549887000BF1FE0984800885E
:104E500001281BD18E480078032812D0042804D0E2
:104E6000062806D0072810D107E006208B49887055
:104E70000BE008208949887007E00920874988707D
:104E800003E007208549887000BF00BF00240DE0C3
:104E90008248015D874802F0DBFB00BF8021854826
:104EA00002F044FC0028F9D0601CC4B20C2CEFDBEB
:104EB0007F480088032803D07D480088022811D14C
:104EC00000240DE07648015D7A4802F0C1FB00BF86
:104ED0008021784802F02AFC0028F9D0601CC4B276
:104EE0000C2CEFDB10BD2DE9F04100276D48408808
:104EF000C5B2FEF73DF866480078032827D0052D97
:104F00001FD2DFE805F0040309081D0000BF0820D8
:104F1000604908701AE000BF5F48007801280BD193
:104F20005B480078042803D106205A49087006E03F
:104F300008205849087002E008205649087005E02A
:104F400004E0072053490870BDE8F0812CE0052DEE
:104F50001CD2DFE805F0040306051A001AE019E088
:104F600018E04D48007801280BD149480078042802
:104F700003D106204749087006E00820454908701B
:104F800002E008204349087004E003E0072041499B
:104F90000870D9E700BF48480078012804D1FFF71E
:104FA0009EFE002044490870002044490870487063
:104FB000FBF743FD04F057F835480078032807D184
:104FC00008203E490870022048704FF6FF740CE03C
:104FD0003B480078401C3A4908703A48007803285A
:104FE00003DB08202B490870AEE77CE08FB1002777
:104FF0000E2032490870042048700123042219460B
:105000002046FBF77AFC304803F078FD732003F06C
:1050100067FD0120FBF766F970B11D480078032891
:105020000AD04FF6FF70844206D001270A210120E2
:10503000FBF755F9601E84B2012C02DA06201549EF
:105040000870FDF737FB052003F007FC0646672EC6
:105050000CD004DC642E07D0652E42D105E0682E0A
:1050600038D0E72E3DD102E03CE03BE000BF0848ED
:10507000007803282AD04FF6FF70844203D1032022
:105080000449087025E003200149087021E0000070
:1050900004000020030000202F0000202602002032
:1050A0003A020020F0000020500000200000002004
:1050B000C80100200038014048000020AE00002058
:1050C0001C0000201B000020B000002003204F49DE
:1050D000087007E000204E49087006204B49087010
:1050E00000E000BF00BF4948007807283FF47EAFCA
:1050F00000BF29E770B5012503F01AFE4548007886
:10510000012804D1FFF7EBFD00204249087046E07A
:10511000012D19D1002516203F4908700220487042
:105120003E48007830B103F089FD03F066FE03F0DD
:10513000CEFD09E003F09EFF39480078042803D132
:1051400003F0ACFD03F03EFEFDF7B4FA022003F0DD
:1051500084FB0446672C19D006DC642C0BD0652C2C
:105160000AD0662C19D10FE0682C06D0E62C0CD0A2
:10517000E72C12D10BE011E010E000202449087068
:1051800005202249087009E000BF07E000BF0320A6
:105190001E49087003F06AFD00E000BF00BF1B4815
:1051A00000780828B4D000201C49087070BD10B5E4
:1051B00006E003F0CBFE03F011FD03201349087055
:1051C000124800780128F4D010BD10B518E00A206C
:1051D000114908700220487004200870322048707D
:1051E000002406E003F046FF0320FBF75CF8601C98
:1051F000C4B20A2CF6DB01200449087003F0CEFE8D
:10520000024800780028E2D010BD00000300002012
:105210002F00002048000020AE00002000000020E9
:10522000040000202DE9F04107460D4616461C46B5
:105230000121084601F051F8384602F0BFFD12483E
:1052400004801248056046601020104988600846B6
:10525000C460002008618020486100208861C86126
:10526000202008624FF4405048620020886238468F
:1052700002F046FEBDE8F08110B50446012120464B
:1052800002F069FE10BD0000520000205002002014
:1052900070B504460020FD49087048700B20B4FB2F
:1052A000F0F100FB114000EB0010F94945182846C9
:1052B00003F037FC0920F54908700020487003F01E
:1052C0008AFB0020F149087001204870F14803F082
:1052D00028FC70BD2DE9FF5F04464FF0000A03F083
:1052E000FBFBED4830F825000190EB4800EB850012
:1052F000408800900B25E94FDFF8A483A8000390B5
:10530000002505E017F8010B08F8010B681CC5B271
:105310009DF80C008542F5DB0020E2490860E24977
:105320000880E2490860E2490870E249087003F029
:1053300064FD03F0B3FC03F0E3FC03F094FE0026ED
:105340000220DD4908700A210120FAF7C8FF012078
:10535000CE49487002200870D84803F0E2FB0020D4
:10536000CA494870087004EB0411D54A881803F044
:10537000D8FB002003F046FC0B2C6CD2DFE804F0D5
:105380000616263637475758595A5B0003F0A8FDD2
:10539000002003F0C2FD0121880701F03FFD03F06A
:1053A00047FDC849088803F02DFC58E003F07CFD58
:1053B000022003F0B2FD0121880701F02FFD03F068
:1053C00037FDC049488803F01DFC48E003F06CFD40
:1053D000022003F0A2FD0121880701F01FFD03F068
:1053E00027FDB849888803F00DFC38E000BF03F0C2
:1053F00077FD002003F091FD0121880701F00EFDEB
:1054000003F016FDAF49888803F0FCFB27E003F0AA
:105410004BFD022003F081FD0121880701F0FEFC15
:1054200003F006FD4FF4B47003F0ECFB17E000BF8F
:1054300000BF00BF00BF03F037FD022003F06DFD89
:105440000121880701F0EAFC03F0F2FC9D498888FD
:1054500003F0D8FB03E0002003F0D4FB00BF00BF43
:10546000A0E10120FAF73EFF28B101209149087020
:105470000A21FAF734FF8F480078012817D100205D
:105480008C4908704FF0010A09F1010000F0FF0992
:10549000092099FBF0F100FB119000F0FF09B9F130
:1054A000050F02DA03F02CFC01E003F041FC03F0ED
:1054B000BFFB8549C88103F0B5FB834908601CB177
:1054C000012C01D0022C06D17F480068744901EB01
:1054D000840148804DE0032C0DD0062C0BD0042C09
:1054E00001D1012000E00020052C01D1012100E0C4
:1054F0000021084330B17448C089694901EB840137
:10550000488036E07049096801EB8101480004F0E9
:1055100055F96E4908606C48C0890A2802DA0A20E9
:105520006949C8816849C88904F048F967494860F1
:10553000E01F674951F820006449C860FCF761FD2D
:10554000FCF70EFD0A2C0CD160494868614903F054
:10555000E4FF834604F037F9514901EB84014880A8
:1055600007E05A49486804F02EF94D4901EB8401DF
:105570004880BDF80800BDF80410884205DCBDF87D
:10558000080000BFBDF8000000BFBAF1010F12D142
:105590004FF0000A0A203D490870002048704E4A2A
:1055A000115D3F4A32F8240001230422FBF7A5F9DC
:1055B0004A4803F0B6FA03F045F903909DF80C0051
:1055C000672861D008DCA0F1620005285DD2DFE821
:1055D00000F00C47B1B3B500E2281ED0E3287FD01D
:1055E000E6287ED0E72850D1CDE000262C4830F8C0
:1055F0002400401C2A4921F82400084630F82400E1
:10560000254931F82410884206DD234800EB840048
:105610004088234921F82400C3E0701CC6B20A2E3A
:1056200007DD1F4830F824000A301D4921F8240006
:1056300006E01B4830F82400401C194921F82400DA
:10564000174830F82400144931F82410884206DD48
:10565000114800EB84004088114921F82400A0E0A3
:1056600000260F4830F82400401E0D4921F8240080
:10567000084630F82400084931F82410884235DD06
:10568000054800EB84002DE07CE089E0AE000020BE
:1056900050A9000894AB000810A900080C010020D4
:1056A000D20100200C0000201E0000201400002069
:1056B0000600002001000020040000201CAA0008B1
:1056C000D9AA000834000020D4000020680100207E
:1056D00090A0000800002041A5AB0008B000002009
:1056E00005E02CE04088F74921F8240059E0701CBF
:1056F000C6B20A2E07DDF34830F824000A38F14913
:1057000021F8240006E0EF4830F82400401EED495F
:1057100021F82400EB4830F82400EB4931F824103C
:10572000884206DDE84800EB84004088E54921F81E
:10573000240036E0002634E0002632E000BF0021DD
:105740004FF0804001F06AFB03F077FB002003F08C
:1057500059FA03F0EDFADD4FDFF868832C2003904F
:10576000002505E018F8010B07F8010B681CC5B20D
:105770009DF80C008542F5DB03F039FA03F0D8FA06
:10578000BDE8FF9F00BF00214FF0804001F046FBC5
:1057900003F053FB002003F035FA03F0C9FAEFE7FA
:1057A00000BF00BFCA48007809283FF45AAE00BFC6
:1057B000E6E72DE9FC5F0446012000903220FAF76D
:1057C00072FD0020C3494870087004EB0411C24AFE
:1057D000881803F0A6F90120BE494870002008701F
:1057E000BE4803F09EF9002718E0B64830F82700BD
:1057F000B54931F82410884208DCB24830F8270057
:10580000B14901EB84014988884205DAB44830F88F
:105810001700AC4921F82700781CC7B20B2FE4D33E
:10582000DFF8A892DFF89CA24FF02C08002705E0D3
:1058300019F8010B0AF8010B781CC7B24745F7DBD2
:10584000A14830F8245000EB840046880B2C76D217
:10585000DFE804F0063F76192C4F628699ACC10050
:105860000020FBF70DFA99481C38808BA84204DC15
:1058700096481C38808BB04204DA4FF47A60914924
:1058800021F82400BDE00020FBF7FAF98F481C380E
:10589000008DA84204DC8D481C38008DB04204DA2B
:1058A0004FF47A70874921F82400AAE00120FBF721
:1058B000E7F986481C38008CA84204DC83481C3871
:1058C000008CB04204DA4FF47A707E4921F824004B
:1058D00097E07E481C38008CA84204DC7B481C38CA
:1058E000008CB04204DA4FF47A60764921F8240043
:1058F00087E00020FBF7C4F974481C38008EA842EA
:1059000004DC72481C38008EB04204DA4FF4FA709E
:105910006C4921F8240074E00120FBF7B1F96B48D1
:105920001C38808EA84204DC68481C38808EB04247
:1059300004DA4FF47A70634921F8240061E05FE0F3
:1059400062481C38808CA84204DC60481C38808C7B
:10595000B04204DA4FF47A705A4921F8240050E03A
:105960000120FBF78DF959481C38008FA84204DC50
:1059700056481C38008FB04204DA4FF47A7051490F
:1059800021F824003DE00220FBF77AF94F481C384B
:10599000808FA84204DC4D481C38808FB04204DA66
:1059A0004FF47A70474921F824002AE00320FBF7DE
:1059B00067F946481C38B0F84000A84205DC434867
:1059C0001C38B0F84000B04204DA4FF47A703D4918
:1059D00021F8240015E00320FBF752F93B481C385E
:1059E000B0F84400A84205DC38481C38B0F8440040
:1059F000B04204DA4FF47A70324921F8240000E012
:105A000000BF00BF012781E00098012828D10020B5
:105A10000090344810F804B004200190294931F86E
:105A2000240000235946019AFAF767FF002029490C
:105A300048700A2008702C4803F073F800202549AC
:105A40004870087004EB0411234A881803F069F8C1
:105A500001202049487000200870204803F061F8B8
:105A60000A2002F0FAFE8046B8F1680F41D009DC46
:105A7000A8F16100072847D2DFE800F00E181E46A3
:105A800046384400A8F1E10007283DD2DFE800F0E5
:105A90000511173C3C2F3B0000BF2046FFF71AFCC6
:105AA00003F01AF80120009000272EE0012000905A
:105AB0002BE00120009028E00120009025E001204B
:105AC000009022E0D201002010A900080C01002063
:105AD00003000020AE00002050A900080BAA000817
