:020000040800F2
:100000006807002045010008F9020008CD05000836
:10001000D1050008D5050008D9050008000000003A
:10002000000000000000000000000000DD050008E6
:10003000DF05000800000000E1050008E3050008F6
:100040005F0100085F0100085F0100085F01000810
:100050005F0100085F0100086D0600088D060008BA
:10006000DB060008670700085F0100085F01000861
:100070005F0100085F0100085F0100085F010008E0
:100080005F0100085F0100085F0100085F010008D0
:100090005F0100085F0100085F0100086B060008AF
:1000A0005F0100085F0100085F0100085F010008B0
:1000B0005F010008E50500085F0100085F01000816
:1000C0005F0100085F0100085F0100085F01000890
:1000D0005F010008FB0200085F0100085F010008E3
:1000E0005F0100085F0100085F0100085F01000870
:1000F0005F0100085F0100085F0100085F01000860
:100100005F0100085F0100085F0100085F0100084F
:100110005F0100085F0100085F0100085F0100083F
:100120005F0100085F0100085F0100085F0100082F
:10013000DFF80CD009F0D4FF00480047890100081F
:10014000680700200648804706480047FEE7FEE7AC
:10015000FEE7FEE7FEE7FEE7FEE7FEE7FEE7FEE777
:10016000CB8600083101000870B504460D46E1B2A7
:10017000234807F05BFD00BF8021214807F0C4FD44
:100180000028F9D0204670BD02201E49087036E0D4
:100190001C4800780A282CD2DFE800F02B2805083C
:1001A0000D121A1D202302F0C9FA27E008F082FF81
:1001B00002F083FF22E008F07DFF03F01DF81DE050
:1001C00008F078FF00201049087003F019F815E0D6
:1001D00003F03CFE12E005F065F90FE005F072FA5D
:1001E0000CE008F067FF05F084FF07E005F0CCFAAB
:1001F00004E008F05FFF05F0D5FA00BF00BFC7E7D5
:1002000000380140030000200200002010B506F075
:10021000F1F94FF4803006F00DFA06F04AFA0128A1
:1002200020D1002006F08BFA002006F09AFA4FF455
:10023000806006F08DFA4FF4E0114FF4803006F044
:1002400061FA012006F06AFA00BF392006F015FABB
:100250000028FAD0022006F064FA00BF06F06AFA1D
:100260000828FBD110BD00E0401E0028FCD17047DB
:10027000014601EBC1024FF0E0235A6100229A616E
:1002800001221A6100BF4FF0E022106900F0010264
:100290001AB100F48032002AF5D000224FF0E0239A
:1002A0001A619A617047014642F228324A434FF080
:1002B000E0235A6100229A6101221A6100BF4FF0C7
:1002C000E022106900F001021AB100F48032002A25
:1002D000F5D000224FF0E0231A619A617047054A79
:1002E0001154704701460348405C08B9012070472B
:1002F0000020FCE719000020704710B540F225519E
:10030000FE4807F017FD00287ED02021FB4807F0AB
:1003100008FDFB4890F84800002858D1F94890F8AB
:100320002B00002811D10621F64880F84C10F34824
:1003300007F080FCC4B2F34890F82C0098B9AA2CBE
:1003400004D00021EF4880F82C10B5E0ED4890F87B
:100350002C1090F82C00401CC2B2EA4880F82C20E7
:100360002E304454A8E0BB2C1AD1E64890F82C104B
:1003700090F82C00401CC2B2E24880F82C202E30AD
:1003800044540120DF4981F82B00084690F82C10D6
:1003900080F82D10002180F82C1080F84C108BE094
:1003A000D84890F82C001E2804DB0021D54880F89E
:1003B0002C1081E0D34890F82C1090F82C00401CB1
:1003C000C2B2D04880F82C202E30445474E0CC487F
:1003D00090F8480001286FD1CA4890F82B000028F7
:1003E0006AD10621C74880F84C10C44807F022FCA7
:1003F000C4B2C44890F82C00A0B9112C05D000213B
:10040000C04880F82C1057E06DE0BE4890F82C10E2
:1004100090F82C00401CC2B2BA4880F82C202E3034
:10042000445449E0B74890F82C00012813D1082C17
:1004300004D00021B34880F82C103DE0B14890F87A
:100440002C1090F82C00401CC2B2AE4880F82C2032
:100450002E30445430E0AB4890F82C001E2804DBCA
:100460000021A84880F82C1026E0A64890F82C100F
:1004700090F82C00401CC2B2A24880F82C202E30EC
:1004800044542E3890F82C00022815DD9D4890F831
:100490002C1090F83000C01C81420DD101209949E8
:1004A00081F82B00084690F82C1080F82D100021C0
:1004B00080F82C1080F84C10934890F82B000028FE
:1004C00075D106218F4880F84C108C4807F0B2FB9C
:1004D000C4B28D4890F82C0098B9FF2C04D00021AC
:1004E000894880F82C1062E0874890F82C1090F82A
:1004F0002C00401CC2B2844880F82C202E3044547A
:1005000055E0814890F82C00012813D1EE2C04D03E
:1005100000217D4880F82C1049E07B4890F82C1091
:1005200090F82C00401CC2B2774880F82C202E3066
:1005300044543CE0744890F82C00042821D1DD2C70
:1005400004D00021704880F82C1030E06E4890F8FC
:100550002C1090F82C00401CC2B26B4880F82C2064
:100560002E3044540120684981F82B00084690F849
:100570002C1080F82D10002180F82C1080F84C10E1
:1005800015E0614890F82C001E2804DB00215E482D
:1005900080F82C100BE05C4890F82C1090F82C00A0
:1005A000401CC2B2584880F82C202E3044544FF4DE
:1005B0005871524807F0BEFB38B108214F4807F088
:1005C000B0FB4E4807F036FBC4B210BD00BFFEE7DB
:1005D00000BFFEE700BFFEE700BFFEE770477047C1
:1005E0007047704710B50121484807F0DFF908F05F
:1005F00034FC4748007806281DD146480078401C46
:10060000444908700846007809281ADD002008705F
:1006100001204149087041480089401C3F49088138
:100620003F480068401C3E4908603E480068401C46
:100630003C49086005E03748007810B10020354992
:100640000870002409E03848005D20B13648005D9C
:10065000401E35490855601CC4B2022CF3DB3348F8
:10066000007808B908F0A3FF10BD704710B501214C
:100670002F4805F004FF28B92148408A10B1052011
:100680002C490870012006F07EFA10BD10B501203B
:10069000FFF709FE0221264805F0F1FEC8B92648F9
:1006A0000088022807D125480078012803D10720B7
:1006B000204908700DE020480088032806D11F4813
:1006C000007818B907201B49087002E00820194972
:1006D0000870022006F057FA10BD10B50520FFF78C
:1006E000E2FD0421124805F0CAFE48BB0848007824
:1006F00003282BD006480078072822E00038014064
:10070000F4000020800200201A03002000040040B2
:10071000030000203C00002001000020D800002041
:10072000A800002010000020190000200000002078
:100730000014014004000020CC0100202F00002004
:100740000DE003D014480078082806D1052012498E
:10075000087000201149087001E00F48007804205B
:1007600006F011FA10BD10B50120FFF79CFD08211D
:100770000B4805F084FE50B907480078062803D1DD
:1007800007200549087002E003200349087008208B
:1007900006F0F9F910BD0000030000202F00002032
:1007A0000014014010B50020FE490870487008F0A0
:1007B00000FCFD484088E8B1012804D002287DD023
:1007C00003286ED13AE0F94808F086FC0620F54986
:1007D000087001204870F6A008F091FC0E20F14945
:1007E000087001204870F3A008F089FCF42008F09C
:1007F00023FCA2E0F0480078012803D1EF4808F07C
:100800006BFC03E0ED48C01D08F066FC0620E549DE
:10081000087001204870E448808818B1E4A008F00E
:100820006EFC02E0E6A008F06AFC0E20DD490870CC
:1008300001204870E3A008F062FC7EE0E248007806
:10084000B0B9DA4808F048FC0620D6490870012003
:100850004870D7A008F053FC0E20D2490870012040
:100860004870D4A008F04BFCF42008F0E5FB24E02D
:10087000D1480078012803D1D04808F02DFC03E0CE
:10088000CE48C01D08F028FC0620C649087001208B
:100890004870C548808828B1C5A008F030FC04E045
:1008A0000CE049E0C6A008F02AFC0E20BD49087003
:1008B00001204870C3A008F022FC3EE0C248007846
:1008C00018BBBD480078012803D1BC4808F004FCDF
:1008D00003E0BA48C01D08F0FFFB0620B1490870CC
:1008E00001204870B048808818B1B1A008F007FC1A
:1008F00002E0B3A008F003FC0E20AA490870012012
:100900004870B0A008F0FBFB15E0A84808F0E4FB35
:100910000620A449087001204870A5A008F0EFFB4C
:100920000E20A049087001204870A2A008F0E7FB43
:10093000F42008F081FB00E000BF00BF07209949C8
:100940000870002048709BA008F0D9FB96490978F0
:100950003131C8B208F0B2FB0F2092490870002074
:100960004870732008F0B0FB04208E490870012005
:10097000487096A008F0C3FB10BD8B484A2102E0E6
:1009800000220270401C0A1EA1F1010399B2F7D1A6
:100990008F4B1A707047002010E0834A921C02EBC4
:1009A00040010A888B4B33F820309A4204DD894A93
:1009B00002EB800252880A80421CD0B20D28ECDB88
:1009C0007047F0B504461D46052A00DD052202B930
:1009D0000122042900DD0421914200DD114600209E
:1009E00004E020267C4F3E54461CF0B20828F8D381
:1009F000104611E00A2694FBF6F706FB1746303640
:100A0000F7B2461EDFF8D0C10CF806700A2694FB38
:100A1000F6F6B4B2461EF0B20028EBDC81B1134604
:100A2000084605E05E1E6C4FBE5DFE545E1EF3B2CE
:100A3000061EA0F10107F8B2F4D12E26664FFE542F
:100A4000A5B900200EE0644E365C302E07D1624F0F
:100A5000461CBE5D2E2E02D020263E5400E004E04F
:100A6000461CF0B2561E8642EDDC00BF09B1561C92
:100A7000F2B2104604E00026574F3E54461CF0B236
:100A80000828F8D3F0BD10B5474890F8480018B9C9
:100A9000524808F021FB07E0434890F8480001283D
:100AA00002D14F4808F018FB10BD10B53E4890F831
:100AB000480020B94948153008F00EFB08E03A48D4
:100AC00090F84800012803D14548153008F004FB90
:100AD00010BD10B543A008F0FFFA10BD10B50020FE
:100AE00030490870487008F064FAFFF7CCFF002026
:100AF0002C4908700120487008F05BFAFFF7D5FF19
:100B000010BD10B52C490978C1EBC101384A8818CD
:100B100008F0F5FA10BD10B523484088032802DD1F
:100B200000202149488000201E490870487008F0C4
:100B300040FA1D49498801EB41012E4A02EB410070
:100B400008F0DDFA072017490870002048701649A0
:100B50000978481C01231A460021FFF732FF15A02F
:100B600008F0CDFA1C4808F0B7FA0F484088012871
:100B700003DD21A008F0B0FA02E020A008F0ACFAF2
:100B80000A200849087008484088032803D006480E
:100B90004088012837D10449488B002304220121D1
:100BA0002EE00000B2000020F40000209FA6000804
:100BB000444300004D00000004000020ADA60008E2
:100BC000414300006D4100002F0000206B560000E3
:100BD0000200002050AD0008B400002070AE0008F4
:100BE00007AE0008446563203132203230323000D5
:100BF000BAAD000821A700085F0000002000000037
:100C0000FFF7DFFE06E0FB49C8890023042201212B
:100C1000FFF7D7FEF84808F072FAF8A008F05CFA7F
:100C20000020F749087001204870F248808840B9D8
:100C3000F048C088B0F5167F03DD4FF41671ED481B
:100C4000C180EC48408801280AD1EA49888A0023FB
:100C500003220221FFF7B5FE0121E648818012E060
:100C6000E4484088032807D1E249888A0023032208
:100C70000221FFF7A6FE06E0DE49C8880023032212
:100C80000221FFF79EFEDC4808F039FAAFF2C400FB
:100C900008F022FA1421DB4808F0B7FED948DAA19F
:100CA00009680160DAA108F0BBFED2484088032839
:100CB00012D1D049C888002303220221FFF781FE08
:100CC0001421D44808F0A1FED248CFA109680160E0
:100CD000CFA108F0A5FE15E0C6484088022811D132
:100CE000C449888A002303220221FFF76AFE1421E7
:100CF000C84808F08AFEC748C3A109680160C4A1BA
:100D000008F08EFEBB48808840B9BA484088032866
:100D100004D0AFF2541008F0DFF903E0AFF2701026
:100D200008F0DAF9B3484088032803D0B148408876
:100D300001282FD10A20B2490870AE49C88A002381
:100D400004221946FFF73DFEAB4808F0D8F9AFF290
:100D50009C1008F0C1F9F42008F06EF9AEA1AD487E
:100D600008F05EFEAEA1AB4808F05AFEA1484088EC
:100D700003283BD19F490889002304220221FFF761
:100D800020FEA1A19F4808F04BFEA6A19D4808F0B7
:100D900047FE2BE009209A490870964908890023EC
:100DA00004220221FFF70DFE934808F0A8F9AFF2E4
:100DB000EC1008F091F994A1924808F031FE99A145
:100DC000904808F02DFE8B48408802280ED18949B2
:100DD000C88A002304220221FFF7F3FD8EA18D486B
:100DE00008F01EFE8EA18B4808F01AFE10BD70B5EB
:100DF00005468D48047804F03F0475B1012D09D0F3
:100E0000022D04D0032D09D144F0C00409E044F0C0
:100E1000800406E044F0400403E002E044F0C00433
:100E200000BF00BF804804700020804908607E48F1
:100E30000078C04300067C49097840EA01207C49DB
:100E4000086001207B49C1F890016420FFF72BFA6C
:100E500070BD70B504460020694908704870254689
:100E600004EBD5714910A4EB4101C1EBC10101EBC9
:100E70004101714A881808F042F900206049087061
:100E8000012048706D4808F03AF970BDF8B5044685
:100E900001275B4800788DF80000594840788DF8AC
:100EA0000100206808F0C8FDC6B2701CC6B2082E4A
:100EB00000DD082652E067B19DF800005049087037
:100EC0009DF801004870A288216806FB021008F016
:100ED00016F90A2007F0AFFF0546E12D15D009DC11
:100EE000A5F16100082837D2DFE800F00E201136A6
:100EF000362E3331A5F1E20007282DD2DFE800F0CD
:100F000017082C2C252A280000BF6120F8BD00BF3F
:100F10000127A0886189884203DDA088401EA08047
:100F200003E06089A08008F093FB16E000BF012772
:100F3000A088401CA080A0882189884203DD2089E8
:100F4000A08008F085FB08E000BF6620DEE700BF58
:100F500000BF00BF6720D9E700BF00BFABE710B5F7
:100F60000446002026490870487004EB840101EB18
:100F7000C401334A881808F0C2F8002020490870DC
:100F8000012048702F4808F0BAF810BD10B504468B
:100F90000A2094FBF0F100FB1140C4B234B1012CE3
:100FA00011D0022C19D0032C5BD14DE0124808F06F
:100FB000A6F8202008F082F8562008F07FF82020BC
:100FC00008F07CF84EE00C4808F099F8202008F072
:100FD00075F8732008F072F844E0074808F08FF8BD
:100FE000202008F06BF84D2008F068F8F42008F095
:100FF00065F837E0F4000020B40000207300000022
:10100000B200002002020020302E3030000000002C
:101010006B563B00160200202020302E30000000CE
:101020004D3B00006D413B00A50000209081224215
:1010300010140140008022426EAB0008C2AB0008D1
:1010400040AC00082BAC0008F64808F058F8202007
:1010500008F034F84D2008F031F8F42008F02EF8AC
:1010600000E000BF00BF10BD10B504460020EE49EF
:10107000087048700E2C13D2DFE804F007131F63CA
:10108000646566676869AAABACADE8A008F037F89C
:101090000020E549087001204870E9A008F02FF809
:1010A000B9E0EBA008F02BF80020DF490870012020
:1010B0004870EB4808F023F8ADE0EA484088C8B132
:1010C000012804D0022817D0032837D113E0A11E2D
:1010D000E54A02EB011008F012F80020D24908702E
:1010E00001204870611E01EB0111DD4A881808F0EB
:1010F00006F824E000BF00BF0020CB49087048700C
:10110000A11EDA4A02EB011007F0F9FF0020C649E0
:10111000087001204870D348808838B9A11E01EBBF
:101120000111D34A881807F0EAFF06E0A11E01EB7F
:101130000111D04A881807F0E2FF00E000BF00BFAD
:1011400069E000BF00BF00BF00BF00BF00BFC548CF
:101150004088C8B1012804D0022817D0032834D110
:1011600013E0A11EC04A02EB011007F0C8FF0020E7
:10117000AD49087001204870611E01EB0111B84AA9
:10118000881807F0BCFF21E000BF00BFA11E01EBE3
:101190000111B94A881807F0B2FF0020A24908706F
:1011A00001204870AF48808838B9611E01EB0111F9
:1011B000AF4A881807F0A3FF06E0611E01EB01119A
:1011C000AC4A881807F09BFF00E000BF00BF22E098
:1011D00000BF00BF00BFA11E01EB0111A64A881885
:1011E00007F08DFF0C2C01D00B2C07D10E208E495F
:1011F000087000204870F42007F066FF00208A493C
:10120000087001204870611E01EB01119B4A88188B
:1012100007F075FF00BF00BF10BD2DE9F84304467D
:101220004FF00109804800788DF800007E48407832
:101230008DF801000027A07908B9032600E00426F4
:10124000A4E1B9F1000F10D09DF8000076490870B4
:101250009DF801004870A389DAB2A179A088002323
:10126000FFF7AFFB6F4807F04AFF0A2007F0E3FDE6
:101270008046B8F1E10F15D009DCA8F1610008281B
:1012800072D2DFE800F00E9C127171CECDCCA8F1C5
:10129000E2000728F4D2DFE800F0FA3F6767F9F8C8
:1012A000F70000BF6120BDE8F8834FF00109002777
:1012B00073488079C0F10300B04202DA701EC5B2F3
:1012C00000E035466F4830F8150061890844A18870
:1012D000884206DCA0886B4931F81510401AA080BE
:1012E00019E06089052802D06089062813D1608939
:1012F000062806D1A08810B10020A08001E008F0E7
:10130000A7F96089052806D1A08810B10020A08027
:1013100001E008F09DF938E14FF00109781CC7B2EF
:1013200057488079C0F10300B04202DA701EC5B29E
:1013300000E035461C2F0CDD002D01DD681EC5B216
:10134000002D01DD681EC5B2002D14DD681EC5B27A
:1013500011E0132F09DD002D01DD681EC5B2002D3F
:1013600009DD681EC5B206E009E10A2F03DD002D84
:1013700001DD681EC5B2434830F815006189084494
:10138000A188884206DCA0883E4931F81510401A31
:10139000A08013E06089062806D1A08810B1002043
:1013A000A08001E008F054F96089052806D1A088E2
:1013B00010B10020A08001E008F04AF9E5E04FF00C
:1013C000010900272E488079C0F10300B04202DAFB
:1013D000701EC5B200E035466089062802D06089DB
:1013E000052855D1608906280AD1A08810B90620A1
:1013F000A08005E0A088234931F815100844A0809A
:101400006089052852D1A08810B90520A0804DE040
:10141000A0881C4931F815100844A08046E0A9E0D6
:10142000AAE0A4E0B4000020B20000204D656D6F7A
:1014300072793D2020202020202020200000000064
:1014400052616E67653A312D39202020202020001E
:101450005465737420203D2020202020202020006F
:1014600039A70008F4000020BBA600088EA70008DA
:101470000EA8000850AA0008A7A8000873A9000831
:10148000C80000207CA6000875E076E070E00EE061
:10149000A088F84931F815100844A080A088218957
:1014A000884203DD2089A08008F0D2F86DE04FF07B
:1014B0000109781CC7B2F0488079C0F10300B0423E
:1014C00002DA701EC5B200E035461C2F0CDD002D7F
:1014D00001DD681EC5B2002D01DD681EC5B2002DFC
:1014E00013DD681EC5B210E0132F08DD002D01DDED
:1014F000681EC5B2002D08DD681EC5B205E00A2FC2
:1015000003DD002D01DD681EC5B26089062802D00A
:10151000608905281CD1608906280AD1A08810B9E5
:101520000620A08005E0A088D24931F815100844B3
:10153000A0806089052819D1A08810B90520A08055
:1015400014E0A088CB4931F815100844A0800DE0C4
:10155000A088C84931F815100844A080A0882189C6
:10156000884203DD2089A08008F072F80DE000BFFA
:10157000662098E600BF08E000BF672093E6BF48FA
:101580008078012800D0002700BF00BF59E62DE970
:10159000F041002500260027B948C08940F6D861EF
:1015A000884211DD012500BF002405E00020B54977
:1015B00041F82400601CC4B20C2CF7DB0020B249B7
:1015C0000870B249088009E0AD48C089B0F5B47F21
:1015D00002DA0126002501E0002500260027AC489C
:1015E0000078002816DD012D14D1A9480078401E8E
:1015F000A74908700127002405E00020A14941F80F
:101600002400601CC4B20C2CF7DB00209E4908703B
:101610009E4908809E480078042816DA012E14D1CD
:101620009B480078401C9A4908700127002405E077
:101630000020944941F82400601CC4B20C2CF7DB54
:1016400000209149087091490880012F06D19048E7
:101650000078FFF7CCFB3220FEF725FEBDE8F081D5
:1016600001B590B00021109808F034FC10D2109809
:1016700008F0D1FB0022874BCDE9060108F0ABFA58
:10168000CDE9080108F00AFC109001208249087099
:10169000109808F0C0FB814A814BCDE9080108F0A1
:1016A000CDFB01D211B000BD109808F0B4FB7D4A0B
:1016B0007D4BCDE9080108F0D9FB58D2109808F00D
:1016C000AAFB784A784BCDE9060108F0F6FACDE995
:1016D000080108F0E3FB0E9074480D9000200B9079
:1016E00026200A903FE0DDE90D1008F036FA4FF0B1
:1016F0007E51099008F0EEFB0ED20D9808F08BFB9E
:1017000000226B4BCDE9060108F0D7FACDE90801BC
:1017100008F0C4FB0D9000E028E00D9808F07BFB7A
:10172000644A654BCDE9020108F055FACDE906019E
:10173000109808F070FBCDE90401DDE9062308F0FC
:10174000BCFACDE9080108F04DFB0C9052490C9809
:1017500048600A9808720B98401C40B20B900A9897
:10176000401E40B20A900B980428BCDB13E210988C
:1017700008F051FB514A524BCDE9080108F076FBC5
:1017800058D2109808F047FB4C4A4D4BCDE9060162
:1017900008F093FACDE9080108F080FB0E90494863
:1017A0000D9000200B9023200A903FE0DDE90D1002
:1017B00008F0D3F94FF07E51099008F08BFB0ED260
:1017C0000D9808F028FB0022394BCDE9060108F0FE
:1017D00074FACDE9080108F061FB0D9000E028E003
:1017E0000D9808F018FB384A384BCDE9020108F093
:1017F000F2F9CDE90601109808F00DFBCDE90401DE
:10180000DDE9062308F059FACDE9080108F0EAFA03
:101810000C9021490C9848600A9808720B98401C5B
:1018200040B20B900A98401E40B20A900B980828CC
:10183000BCDB9BE7109808F0EEFA254A254BCDE972
:10184000080108F013FB7DD2109808F0E4FA204A52
:10185000204BCDE9060108F030FACDE9080108F087
:101860001DFB0E9017480D9000200B901C200A9035
:1018700074E000007CA60008C8000020AC00002036
:10188000D80000207C010020070000200800002074
:10189000060000200000F0BFE8000020ECCFC55F8C
:1018A000FFFF0F38824DC7726142334700007A4410
:1018B0000000244021D7E6FAE031F44581121F2FC1
:1018C000E727C0458096184B92D54D06CFF080444F
:1018D00050EFE2D6E41A4B44DDE90D1008F03DF973
:1018E0004FF07E51099008F0F5FA0ED20D9808F0ED
:1018F00092FA0022F74BCDE9060108F0DEF9CDE9B6
:10190000080108F0CBFA0D9000E02AE00D9808F0ED
:1019100082FAF14AF14BCDE9020108F05CF9CDE918
:101920000601109808F077FACDE90401DDE90623F5
:1019300008F0C3F9CDE9080108F054FA0C90E84921
:101940000C9800E00EE048600A9808720B98401C62
:1019500040B20B900A98401E40B20A900B9808289B
:10196000BADBA0E3109808F056FADE4ADE4BCDE968
:10197000080108F07BFA58D2109808F04CFAD94ABE
:10198000D94BCDE9060108F098F9CDE9080108F036
:1019900085FA0E90D5480D9000200B9015200A90E6
:1019A0003FE0DDE90D1008F0D8F84FF07E510990C6
:1019B00008F090FA0ED20D9808F02DFA0022C54BCF
:1019C000CDE9060108F079F9CDE9080108F066FAD9
:1019D0000D9000E028E00D9808F01DFA0022C44B9D
:1019E000CDE9020108F0F7F8CDE90601109808F0FA
:1019F00012FACDE90401DDE9062308F05EF9CDE92C
:101A0000080108F0EFF90C90B5490C9848600A9865
:101A100008720B98401C40B20B900A98401E40B2CE
:101A20000A900B980828BCDB3DE3109808F0F3F906
:101A30000022B04BCDE9080108F018FA58D21098EE
:101A400008F0E9F90022AB4BCDE9060108F035F9C1
:101A5000CDE9080108F022FA0E90A4480D9000206C
:101A60000B900D200A903FE0DDE90D1008F075F8AD
:101A70004FF07E51099008F02DFA0ED20D9808F023
:101A8000CAF90022934BCDE9060108F016F9CDE919
:101A9000080108F003FA0D9000E028E00D9808F026
:101AA000BAF900228B4BCDE9020108F094F8CDE998
:101AB0000601109808F0AFF9CDE90401DDE906232D
:101AC00008F0FBF8CDE9080108F08CF90C90844986
:101AD0000C9848600A9808720B98401C40B20B9012
:101AE0000A98401E40B20A900B980828BCDBDAE244
:101AF0004FF07E51109808F0F7F94DD210980E90E3
:101B00007A480D9000200B9007200A9021E0DDE933
:101B10000D1008F022F84FF07E51099008F0DAF924
:101B20000ED20D9808F077F900226A4BCDE9060134
:101B300008F0C3F8CDE9080108F0B0F90D9000E015
:101B40000AE00B98401C40B20B900A98401E40B22D
:101B50000A900B980828DADB00BF0D9808F05BF9B3
:101B6000654A664BCDE9020108F035F8CDE906017A
:101B7000109808F050F9CDE90401DDE9062308F0DA
:101B80009CF8CDE9080108F02DF90C9054490C9807
:101B900048600A98087286E2109808F03CF9584AA2
:101BA000584BCDE9080108F061F959D2109808F0B6
:101BB00032F900224F4BCDE9060108F00CF8CDE9CF
:101BC000080108F06BF90E9048480D9000200B902A
:101BD0000A9041E0DDE90D1007F0BFFF4FF07E51A4
:101BE000099008F077F90ED20D9808F014F9002248
:101BF000384BCDE9060108F060F8CDE9080108F09E
:101C00004DF90D9000E02AE00D9808F004F9024625
:101C10000B46CDE902013C483C4908F04EF8CDE9BD
:101C20000601109808F0F7F8CDE90401DDE9062374
:101C300007F0D1FFCDE9080108F0D4F80C9028494D
:101C40000C9848600A9808720B98401C40B20B90A0
:101C50000A98401E40B20A900B980828BADB22E28C
:101C6000109808F0D8F82A4A2A4BCDE9080108F064
:101C7000FDF87ED2109808F0CEF81A4A1A4BCDE93A
:101C8000060107F0A8FFCDE9080108F007F90E905A
:101C900016480D9000200B90C01F0A9064E0DDE90B
:101CA0000D1007F05AFF4FF07E51099008F012F91D
:101CB0000ED20D9808F0AFF80022064BCDE90601D0
:101CC00007F0FBFFCDE9080108F0E8F80D9023E0EC
:101CD0004DE000000000244000003426F56B0C436A
:101CE000E80000200000901EC4BCD6428096184B2D
:101CF00084D79741D01263418DEDB5A0F7C6B03EB1
:101D000048AFBC9AF2D77A3E000040E59C30A24230
:101D10009B2BA1869B84063D0D9808F07CF802461B
:101D20000B46CDE90201F748F74907F0C6FFCDE9B8
:101D30000601109808F06FF8CDE90401DDE90623EB
:101D400007F049FFCDE9080108F04CF80C90EF4985
:101D50000C9848600A9808720B98401C40B20B908F
:101D60000A98401E40B20A900B98082897DB9AE127
:101D7000FFE7109808F04FF8E54AE64BCDE9080177
:101D800008F074F85BD2109808F045F8E24AE34B8B
:101D9000CDE9060107F01FFFCDE9080108F07EF844
:101DA0000E90DF480D9000200B906FF00D000A9010
:101DB00041E0DDE90D1007F0D0FE4FF07E510990B3
:101DC00008F088F80ED20D9808F025F80022D54BBF
:101DD000CDE9060107F071FFCDE9080108F05EF8D2
:101DE0000D9000E02AE00D9808F015F802460B4629
:101DF000CDE90201CC48CD4907F05FFFCDE90601EE
:101E0000109808F008F8CDE90401DDE9062307F091
:101E1000E2FECDE9080107F0E5FF0C90BB490C9804
:101E200048600A9808720B98401C40B20B900A98C0
:101E3000401E40B20A900B980828BADB33E1109894
:101E400007F0E9FFBA4ABB4BCDE9080108F00EF8EC
:101E50005BD2109807F0DFFFB74AB84BCDE9060117
:101E600007F0B9FECDE9080108F018F80E90AC486B
:101E70000D9000200B906FF014000A9041E0DDE916
:101E80000D1007F06AFE4FF07E51099008F022F81D
:101E90000ED20D9807F0BFFF0022A24BCDE906013C
:101EA00007F00BFFCDE9080107F0F8FF0D9000E007
:101EB0002AE00D9807F0AFFF02460B46CDE902017C
:101EC0009F48A04907F0F9FECDE90601109807F0F8
:101ED000A2FFCDE90401DDE9062307F07CFECDE990
:101EE000080107F07FFF0C9088490C9848600A9819
:101EF00008720B98401C40B20B900A98401E40B2EA
:101F00000A900B980828BADBCDE0109807F083FF01
:101F10008D4A8E4BCDE9080107F0A8FF61D21098D9
:101F200007F079FF8A4A8B4BCDE9060107F053FE93
:101F3000CDE9080107F0B2FF0E9079480D9000201E
:101F40000B906FF01B000A9047E0DDE90D1007F0E1
:101F500004FE4FF07E51099007F0BCFF0ED20D98A1
:101F600007F059FF00226F4BCDE9060107F0A5FEEF
:101F7000CDE9080107F092FF0D9000E030E00D98E8
:101F800007F049FF02460B46CDE900017048714950
:101F900007F093FECDE90401109807F03CFFCDE96E
:101FA0000201DDE9042307F016FE00226A4BCDE9A9
:101FB000060107F010FECDE9080107F013FF0C90B1
:101FC00052490C9848600A9808720B98401C40B21D
:101FD0000B900A98401E40B20A900B980828B4DB78
:101FE00061E0109807F017FF5C4A5D4BCDE90601F0
:101FF00007F0F1FDCDE9080107F050FF0E905948B8
:102000000D9000200B906FF022000A9047E0DDE970
:102010000D1007F0A2FD4FF07E51099007F05AFF16
:102020000ED20D9807F0F7FE00223E4BCDE90601D7
:1020300007F043FECDE9080107F030FF0D9000E006
:1020400030E00D9807F0E7FE02460B46CDE90001AF
:102050004248434907F031FECDE90401109807F0EA
:10206000DAFECDE90201DDE9042307F0B4FD002228
:10207000394BCDE9060107F0AEFDCDE9080107F0C7
:10208000B1FE0C9021490C9848600A9808720B9890
:10209000401C40B20B900A98401E40B20A900B9828
:1020A0000428B4DB00BF00BFFFF7FCBA70B5002501
:1020B0002D480078401C2C4908702C48C08949F6EE
:1020C0004041884204DC2948C089B0F5FA6F06DA3D
:1020D00027480078042802D00020234908702549A9
:1020E0008A6825490888411C234B1980234941F8F7
:1020F0002020184600880C2802DB002019460880A2
:10210000002446E0408CB5781DAF1544E80000205F
:102110004F9B0E0AB4E3923B50EFE2D6E41A4B44D5
:102120008096184B000024400284FEE471D9894552
:10213000196050BEF6B01F3A81121F2FE727C04525
:10214000037CD8EA9BD0FE460F7AF8B7A595AA384B
:10215000824DC7726142334780842E41B1A1162A55
:10216000D3CED24700007A4407000020D8000020D8
:10217000060000206C010020080000207C010020E7
:10218000FE4850F82410284607F05DFC0546601C08
:10219000C4B20C2CF4DBFA4800780C2808DBF949AF
:1021A000284607F0DAFCF84988600C20F4490870EA
:1021B000F5498868FFF754FAF44840684FF47A719B
:1021C000B0FBF1F0F149486070BD70B5EE49C868E8
:1021D00007F0E2FD0546EC480168284607F08BFC55
:1021E0000446E9484168204607F0B7FCE6498860A4
:1021F00070BD10B5E648C0890A2802DA0A20E44911
:10220000C881E349C88907F0C7FDDF494860E14854
:10221000E149097850F82100DB49C860FFF7D5FF94
:1022200010BD2DE9F0410024012717E2012FFCD158
:1022300000270E2C15D2DFE804F0071524494A4B7D
:102240004C4D9F4EBFC0C1C2D44D2888401CD449BC
:1022500088800920088101204881002088710120A0
:102260008881CEE0CD4DAD1CCE48CD490860288890
:10227000888003200881002048818871012088819E
:10228000BFE0C648408838B1012804D0022805D0F4
:10229000032819D101E017E000BF00BFBF488088C4
:1022A000012802DD0021BD488180BC4D2D1DBE48A6
:1022B000BB49086028888880012008810020488167
:1022C00088710120888100BF00BF9AE000BF00BF75
:1022D00000BF00BF00BFB148408838B1012804D01A
:1022E000022805D0032845D101E043E000BF00BF2C
:1022F000AA48801D00EB4400851FA8488088E0B9EB
:10230000AA48A749086028888880601EA84931F833
:102310002000A3490881601EA54901EB8000408888
:102320009F494881E01EA34911F810009C4988711B
:10233000A14830F8140088811BE09C489849086047
:1023400028888880601E9D4931F8200094490881C2
:10235000601E9A4901EB8000408891494881E01E47
:10236000944911F810008E498871934830F8140090
:10237000888100BF00BF44E08848008A012802DD50
:10238000002186480182854D10358D4884490860BA
:1023900028888880601E864931F82000804908819D
:1023A000601E834901EB800040887D494881002000
:1023B00088710120888124E000BF00BF00BF7748FA
:1023C000801D00EB4400851F7E4875490860288801
:1023D0008880601E764931F8200071490881601EAE
:1023E000734901EB800040886D494881E01E7149C6
:1023F00011F810006A4988716F4830F8140088811C
:1024000000BF00BF2046FEF72FFE0E2C76D2DFE87D
:1024100004F007111B252F39434D57616B767778F0
:102420000A2069490870002048705D48FEF7F5FEF3
:10243000804671E0082064490870002048705848C0
:10244000FEF724FD804667E00A205F4908700020FF
:1024500048705348FEF71AFD80465DE00A205A494D
:102460000870002048704E48FEF7D7FE804653E0C3
:10247000072055490870002048704948FEF7CDFEF6
:10248000804649E0072050490870002048704448C1
:10249000FEF7C3FE80463FE007204B49087000204E
:1024A00048703F48FEF7B9FE804635E008204649AF
:1024B0000870002048703A48FEF7AFFE80462BE0D7
:1024C000072041490870002048703548FEF7DEFCBF
:1024D000804621E007203C490870002048703048C1
:1024E000FEF79BFE804617E00A203749087000205F
:1024F00048702B48FEF791FE80460DE00BE000BFD0
:1025000000BF082030490870002048702448FEF7BA
:1025100084FE804600E000BF00BF44B920488088A8
:10252000401E288006F037FEFEF735FA02E01C4810
:1025300080882880B8F1680F72D009DCA8F16100AA
:1025400007286ED2DFE800F00E6E70888872830074
:10255000A8F1E10008287FD2DFE800F00565677E7A
:102560007E7E7A7800BF0D484088012802D1012C78
:1025700000D1092409488088012827E07C01002037
:1025800007000020000040416C010020E80000200E
:10259000D800002084A6000806000020F4000020D7
:1025A000C800002009A70008FBA600088EA70008A5
:1025B0001CAD000884AD00089AAD0008E8AC000826
:1025C00003A70008A7A80008B200002006D1072C26
:1025D00004D1601CC4B2601CC4B201E0601CC4B26F
:1025E000012C1BDD5048408840B1012804D002284E
:1025F00007D0032807D103E00E2606E00A2604E0F0
:1026000000BF0E2601E00E2600BF00BFB44205DB6E
:10261000002403204549087006F0ACFD01271CE0AA
:1026200013E019E000BF18E000BF16E03E48C08884
:10263000012802D102213C48C18003203B49087097
:1026400006F098FD06F064FD07E000BF05E000BF5E
:1026500003203649087000E000BF00BF334800780F
:1026600004283FF4E3ADBDE8F081704702460B4615
:1026700088B2704710B54FF480732D4A2D492E480B
:1026800003F0BEF82C4803F0E5F810BDF0B50446A1
:10269000059D27460E4602B9012207FB06FCBCFB3E
:1026A000F5FC0CFB03FCBCFBF2F0F0BD30B50246C0
:1026B000002006E0145C0A2594FBF5F4E3B2441C08
:1026C000E0B28842F6DB30BD70B502460C46002011
:1026D00012E0135CDD1703EB15752911135CDD1790
:1026E00003EB15752D11A3EB051501EB810605EB29
:1026F00046051554431CD8B2A042EADB70BD30B584
:102700000B460146C41700EB1474C4F30712C41738
:1027100000EB14742411A0EB041402EB820504EB0B
:102720004504E0B230BD0000F400002003000020AA
:102730007CA500080C1001401C00024070B506F09A
:10274000F3FE06F086FE00214FF0804004F054FEB8
:10275000FEF713F906F0E3FC06F0E1FC06F01BFDC2
:1027600006F0EDFC06F028FDFEF715F9F8480078B4
:10277000082802DD0020F649087006F05BFF06F02D
:1027800063FDFEF7ABF90020F2490870002438E041
:10279000601CC4B2142C02DD0320EF4908700A202B
:1027A00006F049FB0546682D25D009DCA5F161003E
:1027B000072824D2DFE800F01517190E1B1D200092
:1027C000A5F1E10007281AD2DFE800F00C0E100591
:1027D0001214170000BF0920DF49087006F031FF0E
:1027E0000EE000BF0CE000BF0AE000BF08E000BF41
:1027F00006E000BF04E003E000BF142400E000BFD7
:1028000000BFD54800780228C2D006F009FE70BD8E
:102810002DE9F04190B0FF260027D04890F82B001A
:10282000A0B1CE4890F83000C94981F848001E2177
:10283000CA482E3007F0E9F80020C84981F82B007B
:102840000021C64880F82C1006F070FCC04890F8B3
:102850004800002870D1C24890F82B0000286CD0A6
:102860001C2101A807F0D1F81C22BD49303101A874
:1028700007F0B2F8BA4890F82F6090F83050002076
:10288000B74981F82B000021B54880F82C10DE2EC6
:102890007ED006DCCC2E7CD0CE2E09D0DD2E79D198
:1028A000A6E1EE2E77D0F22E76D0F32EF7D1B0E15E
:1028B000AC4800780B2841D2DFE800F00640400D1C
:1028C00014301B2229403700A748A8A10A680260DB
:1028D0000979017139E0A448A4A10A680260097964
:1028E000017132E0A048A3A10A6802600979017170
:1028F0002BE09D48A1A10A6802600979017124E0DA
:102900009948A0A10A680260097901711DE0964802
:102910009EA10A6802600979017116E092489DA1A2
:102920000A680260097901710FE08F4893A10A6873
:1029300002600979017108E0C9E2C7E28A4897A1FB
:102940000A6802600979017100BF00BF80484088B1
:10295000022803D07E48408803287DD19148007822
:1029600000287AD101208F49087028217C48C01C9A
:1029700007F04BF87B48007878B98B497848C01C41
:1029800007F04EF878497648C01C07F049F85BE03C
:1029900041E126E199E25FE13CE1844800780128C9
:1029A00018D181496E48C01C07F03AF86848408841
:1029B000022805D16C496A48C01C07F031F843E091
:1029C0006348408803283FD168A16548C01C07F0D0
:1029D00027F839E05E484088022819D17248407BC8
:1029E0003B2805D1704863A10968C0F80E1008E0C3
:1029F0006D48807B3B2804D16B485EA10968C0F814
:102A00000F10122268495648C01C06F0E5FF1BE073
:102A10004F484088032817D16348407B3B2805D1A5
:102A2000614851490968C0F80E1008E05E48807B93
:102A30003B2804D15C484C490968C0F80F105A493A
:102A40004748C01C06F0ECFF59A14548C01C06F0E1
:102A5000E7FF5849424801E063E04AE0C01C06F045
:102A6000DFFF52480078012813D1394840880228F6
:102A700005D13EA13A48C01C06F0D2FF1CE0344804
:102A80004088032818D138493548C01C06F0C8FFD3
:102A900012E02F484088022805D133493048C01C35
:102AA00006F0BEFF08E02A484088032804D131A17F
:102AB0002B48C01C06F0B4FF3F492948C01C06F053
:102AC000AFFF00240EE02648C01C015D3B4805F026
:102AD000ADF800BF8021394805F016F90028F9D07B
:102AE000601CC4B2272CEEDB00201D4981F82B00AE
:102AF00076E000240EE01A48C01C015D2F4805F066
:102B000095F800BF80212D4805F0FEF80028F9D087
:102B1000601CC4B2272CEEDB0020114981F82B0089
:102B20005EE028210E48C01C06F06FFF0E221E49F1
:102B30000B48C01C06F050FF0B490948C01C06F0AA
:102B40006FFF1D490648C01C06F06AFF002445E0DF
:102B5000F400002005000020030000201A030020DC
:102B60008002002004000020400000202D2D2D2D8B
:102B700000000000504153530000000048494748FE
:102B8000000000004C4F57200000000042524B2034
:102B900000000000415243200000000054455354FF
:102BA000000000004A00002002020020490000202E
:102BB0003B000000160200204B00002000380140BE
:102BC000FE48015DFE4805F031F800BF8021FC4859
:102BD00005F09AF80028F9D0601CC4B2142CEFDB81
:102BE00074E10020F74908700520F74908706DE18D
:102BF000F5480078062808D10320F449087007201A
:102C0000F149087006F007FC02E00320EE49087065
:102C10005CE15BE15AE135B1012D08D0102D0AD0FD
:102C2000112D10D10BE00020E94948800CE0012073
:102C3000E749488008E00220E549488004E0032095
:102C4000E349488000E000BF00BF06F061FA06F0EB
:102C500091FAFDF760FF39E19DF80500401EDC495F
:102C60000870AC2D04D0AD2D6FD0DC2D6ED172E08C
:102C70000021D74881809DF807000121FFF73FFD23
:102C800080469DF806000121FFF739FD00EBC001E9
:102C900001EB001008EB8001CD48C1809DF80900D0
:102CA0000121FFF72CFD80469DF808000121FFF768
:102CB00026FD00EBC00101EB001008EB8001C448C9
:102CC00001819DF80B000121FFF719FD80469DF859
:102CD0000A000121FFF713FD00EBC00101EB00101A
:102CE00008EB8001BA4841819DF80D000121FFF7F2
:102CF00006FD80469DF80C000121FFF700FD00EB6A
:102D0000C00101EB001008EB8001B14881819DF802
:102D10000F000121FFF7F3FC80469DF80E00012112
:102D2000FFF7EDFC00EBC00101EB001008EB8001A8
:102D3000A748C1819DF8101041829DF811005028CC
:102D400005D10021A248018204E069E0B5E001213B
:102D50009F480182B1E001219D4881809DF80700D4
:102D6000FFF7CDFC80469DF806000121FFF7C7FC68
:102D700000EBC00101EB001008EB80019448C1801A
:102D80009DF809000121FFF7BAFC80469DF8080074
:102D90000121FFF7B4FC00EBC00101EB001008EBD0
:102DA00080018B4801819DF80B000121FFF7A7FCF2
:102DB00080469DF80A000121FFF7A1FC00EBC0014D
:102DC00001EB001008EB8001814841819DF80D0066
:102DD0000121FFF794FC80469DF80C000121FFF7CC
:102DE0008EFC00EBC00101EB001008EB800178487D
:102DF00081819DF80F000121FFF781FC80469DF83D
:102E00000E000121FFF77BFC00EBC00101EB00107D
:102E100008EB80016E48C1819DF8101041824CE0A2
:102E20009DF807000121FFF76AFC80469DF8060027
:102E30000121FFF764FC00EBC00101EB001008EB7F
:102E40008001634881829DF809000121FFF757FC4A
:102E500080469DF808000121FFF751FC00EBC001FE
:102E600001EB001008EB80015948C1829DF80B006E
:102E70000121FFF744FC80469DF80A000121FFF77D
:102E80003EFC00EBC00101EB001008EB8001504854
:102E900001839DF80D000121FFF731FC80469DF86C
:102EA0000C000121FFF72BFC00EBC00101EB00102F
:102EB00008EB80014648418300BF00BF06F028F9B7
:102EC00006F058F9FDF727FE00E000BFF2E04048A9
:102ED00090F848000128F9D13848C01E90F82B001E
:102EE00098B11E2235492B3108A806F075FD9DF8D2
:102EF00022709DF8236000203049C91E81F82B0004
:102F000000212E48C01E80F82C1026B1012E44D07E
:102F1000022E41D160E0022F25D19DF824005428D3
:102F200009D1002027490870052027490870012091
:102F30002849087030E09DF8240052282CD12248FE
:102F4000007806280BD103202049087007201E496D
:102F5000087006F060FA01201E4908701CE003208A
:102F60001949087018E0032F16D19DF82400742821
:102F700012D10020134908709DF8250014490870EB
:102F800006F0C6F803201049087006F004F9FDF7B2
:102F900002FD05200C4908708BE09DF824000C49C7
:102FA000087006F0B5F803200749087006F0F3F83A
:102FB000FDF7F1FCFDF7AFFD7BE000008302002090
:102FC000003801402F0000200300002004000020F2
:102FD000F4000020480000209DF82400F949087002
:102FE000084600788009F8494880F6480078C0F320
:102FF0004011F5488180F3480078C0F30011F24891
:103000000182F048007800F00F01EF4841829DF8FE
:10301000251081829DF827009DF8261000EB0120E5
:1030200081B2E948C1809DF829009DF8281000EB85
:10303000012081B2E44801819DF82B009DF82A10FF
:1030400000EB012081B2E04841819DF82D009DF800
:103050002C1000EB012081B2DB4881819DF82F000C
:103060009DF82E1000EB012081B2D748C1819DF858
:1030700031009DF8301000EB012081B2D248C182AE
:103080009DF833009DF8321000EB012081B2CE484C
:1030900001839DF835009DF8341000EB012081B2CA
:1030A000C948418306F034F806F064F8FDF733FDB3
:1030B00000BF00BF10B0BDE8F08170B50020C3496B
:1030C0000870FDF728FD06F0D7F806F084F9002017
:1030D000BF4908708AE0BF4890F82B0018B9BE4875
:1030E00090F82B0008B1FFF793FB0A2005F0A3FE30
:1030F0000446662C6ED008DCA4F16100052873D26A
:10310000DFE800F010142D475300E62C63D004DCF8
:10311000672C61D0682C67D154E0E72C5DD0E82C97
:1031200062D150E00420AD4908705EE0AC48007800
:10313000A0B9A5480078401CA3490870084600784B
:10314000082801DD0020087006F025F8FDF723FCB3
:1031500005F0DEFF05F0AEFFFDF7DDFC45E0A04821
:103160000078A8B99848007828B197480078401EA0
:103170009549087002E008209349087006F00BF8A2
:10318000FDF709FC05F0C4FF05F094FFFDF7C3FC53
:103190002BE09348007818B191480078401E00E079
:1031A0000320C5B28E4805701FE08D4800780328C3
:1031B00003DA8B480078401C00E00020C5B2884844
:1031C000057012E000BF0520844908700020854981
:1031D00008700AE000BF00BF00BF002080490870EF
:1031E0008049087001E0FFE700BF00BF7B4800781E
:1031F00003283FF470AF70BD10B5FFF712F810BD93
:1032000010B513E0002078490870784908707549B6
:10321000087005F0E5FF00214FF0804004F0ECF865
:1032200001206A49087006206C4908706B480078D4
:103230000528E7D010BD10B5002005F0D1FF002112
:103240004FF0804004F0D8F86420FDF72CF806F029
:103250005DF810BD2DE9FC5F01205C4908705A48FB
:10326000B0F802808088C0B20090574880885549E5
:10327000097860F34511534801705348408AC0B241
:103280000190002005F0B3FFB8F1000F2ED100200F
:10329000574908704C48C08800EB80004FF6FF711A
:1032A00001EA400548488089012801D1022601E051
:1032B000454886892C460327F0204E49088040F671
:1032C000D8604D4908809DF8000038B94B48008807
:1032D00044433D48808BB4FBF0F4E9E04748408824
:1032E00044433948008CB4FBF0F4E1E0B8F1010F3D
:1032F0001DD14FF4B4703F49088040F6D8603E4974
:10330000088001203A49087000262F48808A00EB87
:1033100080004FF6FF7101EA40052C46052737482B
:10332000808844432848808CB4FBF0F4C0E0B8F1B6
:10333000030F6DD12448808A00EB80004FF6FF71A7
:1033400001EA400520488089012801D1022601E0D8
:103350001D4886892C461E480078A0B94FF4B470E9
:103360002449088040F6D86023490880012020497C
:103370000870052700262148808844431248808C25
:10338000B4FBF0F494E0F0201A49088040F6D860CD
:10339000194908800020164908700B48C08800EBC6
:1033A00080004FF6FF7101EA40052C4603279DF887
:1033B000000028BB1148008844430348808BB4FBBD
:1033C000F0F475E054000020F40000200400002018
:1033D0002F000020800200201A030020030000209C
:1033E00005000020000000201B0000201C00002021
:1033F0002E00002030000020320000203400002089
:10340000FE4840884443FE48008CB4FBF0F44FE093
:10341000FC48007870BBF020FB49088040F6D8607B
:10342000FA490880F6488089012801D1022601E086
:10343000F3488689F248C08800EB80004FF6FF71A0
:1034400001EA40052C4603270020F14908709DF849
:10345000000038B9E94800884443E948808BB4FB50
:10346000F0F425E0E54840884443E548008CB4FB8F
:10347000F0F41DE04FF4B470E349088040F6D860E2
:10348000E24908800026DE48808A00EB80004FF683
:10349000FF7101EA40052C4605270120DC49087030
:1034A000D64880884443D648808CB4FBF0F400BFF3
:1034B000DFF84C9309F11C094FF00B0BDFF854A314
:1034C0004FF02C0B002705E019F8010B0AF8010B4F
:1034D000781CC7B25F45F7DB0020CF490860CF49B1
:1034E0000880CF490860CF490880CF490870CF498C
:1034F0000880CF490880CF490870CF490880CF495C
:103500000880CF490870002708E00020CD4921F845
:103510001700CD4921F81700781CC7B2082FF4DB3B
:10352000C6490C80002E45D00120C2490870C3480E
:103530000488B4FBF6F4BE490C800488B4FBF6F0B2
:1035400006FB1044B9490C80B9480088012831DADB
:103550000A20B8490870B948048804EB8400440084
:10356000B4FBF6F4B2490C80B448048804EB840040
:103570004400B4FBF6F006FB1044AC490C80AC48A8
:103580000088012816DA6420AA490870AB4804882C
:1035900004EB84004400B4FBF6F4A5490C80A74872
:1035A000048804EB84004400B4FBF6F006FB1044EE
:1035B0009E490C80B8F1000F12D0B8F1010F06D06F
:1035C000B8F1020F54D0B8F1030F7CD126E005F01A
:1035D00059FF022005F08FFF02209C49087077E018
:1035E0009DF8000048B105F04DFF022005F083FF73
:1035F0009DF8040005F0FBFD0FE005F05FFF80483B
:10360000008A18B1012005F076FF02E0002005F0E5
:1036100072FF9DF8040005F0EAFD59E07948007852
:1036200040B905F02FFF022005F065FF0220874911
:1036300008701CE09DF8000048B105F023FF02204F
:1036400005F059FF9DF8040005F0D1FD0FE005F0ED
:1036500035FF6B48008A18B1012005F04CFF02E0ED
:10366000002005F048FF9DF8040005F0C0FD2FE0A4
:1036700064480078F0B99DF8000048B105F002FFF9
:10368000022005F038FF9DF8040005F0B0FD19E0B8
:1036900005F014FF5A48008A18B1012005F02BFFED
:1036A00002E0002005F027FF9DF8040005F09FFDD3
:1036B00008E008E005F0E6FE022005F01CFF02200D
:1036C0006249087004E0072061490870BDE8FC9F6A
:1036D00000BF002005F084FD0121880703F08CFE67
:1036E00005F094FE00205B49087008460078FDF75D
:1036F0007EFB05F070FE05F0BFFD05F0EFFD082034
:103700005549087002204870162008700220487041
:10371000002008705148007800EB4000202101EBA8
:10372000C0004D494870002008704C48007800EBFC
:103730004000C00020304870B8F1000F09D0B8F147
:10374000010F07D0B8F1020F05D0B8F1030F04D173
:1037500002E000BF02E001E000E000BF00BF002087
:103760003D490870FDF7CDF900BFAFE738B52A48ED
:103770000068B0F5805F03D340F6FF70264908600B
:1037800026480088B0F5805F03DB40F6FF702349D0
:1037900008803348008800287ED0012804D0022801
:1037A0007BD003287AD1CFE11A4840891A4A009089
:1037B000126893B2274A1278D21D164D05EB820289
:1037C0005188244A1278D21D35F82200134A1288F3
:1037D000FEF75CFF044612490C6008460068B0F52D
:1037E000617F42D9284640890B4A0090126893B203
:1037F0002A46518D108D094A128833E0340000208A
:10380000F40000202F0000203000002032000020B3
:103810002E000020D60100200C0000201E000020F9
:10382000140000202000002022000020240000209E
:1038300026000020280000202A0000202C00002064
:1038400001000020AC010020BC0100200400002089
:103850000300002006000020B20000201C00002011
:10386000CC010020FEF712FF0446FD480460FD482D
:10387000006800EB80004400FB4800894443FA489C
:103880004089B4FBF0F40A20B4FBF0F100FB1140D6
:10389000042800D90A3402E00BE087E033E20A2072
:1038A000B4FBF0F4A0B20A2190FBF1F0ED490860FE
:1038B0002AE2EE48008800EB80004400EC48808853
:1038C000C8BBEC480078C01CE74931F820004443ED
:1038D000E8480078C01C01EB80004088B4FBF0F49D
:1038E0000A20B4FBF0F100FB1140042800D90A348F
:1038F0000A20B4FBF0F4E049CC81DA48006800EB20
:1039000080004400D84800884443D7484088B4FB2E
:10391000F0F40A20B4FBF0F100FB1140042800D9B8
:103920000A340A20B4FBF0F4A0B20A2190FBF1F0B3
:10393000CC49086039E0FFE7CE480078401DCA490D
:1039400031F820004443CB480078401D01EB800053
:103950004088B4FBF0F40A20B4FBF0F100FB114006
:10396000042800D90A340A20B4FBF0F4C249CC81FF
:10397000BC48006800EB80004400BB48808844439A
:10398000B948C088B4FBF0F40A20B4FBF0F100FBA6
:103990001140042800D90A340A20B4FBF0F4A0B284
:1039A0000A2190FBF1F0AF490860ADE1B34800781F
:1039B00000287DD1AD48008800EB80004400AC4871
:1039C0008088C8BBAB480078C01CA74931F82000EC
:1039D0004443A8480078C01C01EB80004088B4FB39
:1039E000F0F40A20B4FBF0F100FB1140042800D9E8
:1039F0000A340A20B4FBF0F49F49CC81994800684E
:103A000000EB800044009848008844439648408872
:103A1000B4FBF0F40A20B4FBF0F100FB11400428E1
:103A200000D90A340A20B4FBF0F4A0B20A2190FBBA
:103A3000F1F08C49086086E0FFE78E480078401D71
:103A4000894931F8200044438A480078401D01EB41
:103A500080004088B4FBF0F40A20B4FBF0F100FBD6
:103A60001140042800D90A340A20B4FBF0F482493A
:103A7000CC817C48006800EB800044007A48808854
:103A800044437948C088B4FBF0F40A20B4FBF0F159
:103A900000FB1140042800D90A340A20B4FBF0F4DA
:103AA000A0B20A2190FBF1F06E4908604BE0FFE7FD
:103AB0006D4840896B4A0090126893B26D4A127843
:103AC000D21D694D05EB820251886A4A1278D21DD7
:103AD00035F82200654A1288FEF7D8FD0446604991
:103AE0000C6008460068B0F5617F0DD92846408912
:103AF0005C4A0090126893B22A46518D108D5B4A41
:103B00001288FEF7C3FD0446554804605548006816
:103B100000EB8000440054480089444352484089E7
:103B2000B4FBF0F40A20B4FBF0F100FB11400428D0
:103B300000D90A340A20B4FBF0F4A0B20A2190FBA9
:103B4000F1F048490860DFE04C480078E8BB46489F
:103B50004089444A0090126893B2464A1278D21DB6
:103B6000414D05EB82025188424A1278D21D35F848
:103B700022003E4A1288FEF789FD044638490C604F
:103B800008460068B0F5617F0DD928464089354A5E
:103B90000090126893B22A46518D108D334A1288D4
:103BA000FEF774FD04462E4804602E48006800EBC2
:103BB000800044002C48008944432B484089B4FBD2
:103BC000F0F40A20B4FBF0F100E00EE000FB11403D
:103BD000042800D90A340A20B4FBF0F4A0B20A2168
:103BE00090FBF1F01F4908608CE02048008800EB52
:103BF000800044001E48808888BB1E480078C01C96
:103C0000194931F8200044431A480078C01C01EBE0
:103C100080004088B4FBF0F40A20B4FBF0F100FB14
:103C20001140042800D90A340A20B4FBF0F41249E8
:103C3000CC810C48006800EB800044000A480088F2
:103C4000444309484088B4FBF0F40A20B4FBF0F187
:103C500000FB1140042800D90A340A2010E018E0C3
:103C6000140000200C000020D60100201E000020BF
:103C7000F400002006000020D80000202F000020C3
:103C8000B4FBF0F4A0B20A2190FBF1F0FE49086009
:103C900038E0FE480078401DFD4931F820004443DB
:103CA000FA480078401D01EB80004088B4FBF0F436
:103CB0000A20B4FBF0F100FB1140042800D90A34BB
:103CC0000A20B4FBF0F4F349CC81EF48006800EB24
:103CD00080004400EE4880884443ED48C088B4FB2F
:103CE000F0F40A20B4FBF0F100FB1140042800D9E5
:103CF0000A340A20B4FBF0F4A0B20A2190FBF1F0E0
:103D0000E149086000E000BF00BF38BD0CB5E248E3
:103D10000078082804DAE0480078401CDE49087082
:103D2000072001900EE09DF80400401EDB4931F8A9
:103D300010009DF8042021F812009DF80400401E98
:103D4000C0B201909DF804000028ECDCCE48006869
:103D5000D249088000200090CF480078019007E009
:103D6000CE489DF8041030F81100009908440090E6
:103D70009DF80400411EC9B201910028F0D1C64946
:103D800009780098B0FBF1F00090009880B2BE492D
:103D90000860072001900EE09DF80400401EC04915
:103DA00031F810009DF8042021F812009DF804005D
:103DB000401EC0B201909DF804000028ECDCB94818
:103DC0000088B749088000200090B348007801902F
:103DD00007E0B3489DF8041030F81100009908443A
:103DE00000909DF80400411EC9B201910028F0D155
:103DF000A94909780098B0FBF1F00090A949009812
:103E000008800CBD0EB500200190009002900EE0DD
:103E100005F0F6F901990844019005F0F7F90099C9
:103E2000084400909DF80800401CC0B202909DF824
:103E300008001028ECDB0198C0F30F1092490860CD
:103E40000098C0F30F10974908800EBD2DE9F04F80
:103E50008BB04FF0000B0020049003900290019073
:103E60008246914840889149088008460088052884
:103E70007ED2DFE800F01703673898008C4800789E
:103E800020F0C00040308A4908708748C08A8749BE
:103E9000C8808548008B08818348408B4880022079
:103EA000099087E08248007820F0C00080490870BF
:103EB0007D4800897D49C8807B48408908817A48CF
:103EC000C089488078488089012802D102208880F2
:103ED00003E0754880897549888073488088009020
:103EE0000120099066E07248007820F0C000C030E0
:103EF0006F4908706F48007860B96B48C08A6B4999
:103F0000C8806948008B08816748408B4880022040
:103F1000099016E001200990634800896349C88030
:103F20006148408908816048C08948805E4880892E
:103F3000012802D10220888003E05B4880895B4928
:103F4000888037E05A48007820F0C0008030584917
:103F5000087058480078C8B9012009905248008973
:103F60005249C8805048408908814F48C08900E0C4
:103F70001AE048804C488089012802D102208880BC
:103F800010E049488089494988800BE00220099067
:103F90004548C08A4549C8804348008B088142484B
:103FA000408B488006E005E00720434908700BB0CD
:103FB000BDE8F08F00BFFFF74DF900200790089093
:103FC00006903E490860334908813D4908802F49E1
:103FD000087009783B4A12781144C8B2FCF707FF11
:103FE00001F04EB90020384908703848007801289F
:103FF00076D10020354908704FF0010BBDF8200044
:1040000042F20F71884204DABDF82000401C80B2F1
:1040100008902F480078012826D19DF81C00401CEC
:10402000C0B207909DF81C002A490978884208DB35
:104030000020079022480088274909880844204921
:104040000880144800891949898888426EDB00205D
:1040500010490881214800881949088002201C491C
:1040600008700120049061E01C4800881449088011
:104070000E484088002859DD064800890B494988C8
:10408000884253DB08492CE00C0000200600002089
:10409000D6010020D800002022000020AC01002022
:1040A000BC0100201E000020F4000020CC010020F4
:1040B000540000202F0000200300002010000020EA
:1040C0002A0000202E0000204A00002001000020CD
:1040D0000400002028000020260000202C000020E2
:1040E00041E0C88805F05DFE80460022FE4B05F0E9
:1040F00072FD04460D46FD48006805F052FE064676
:1041000022462B4605F09AFE08D201200390072094
:10411000F74908700320F749887007E00720F6493F
:1041200008700420F249087001200490F3480088C8
:1041300005F056F89DF81800401CC0B206909DF896
:104140001800092190FBF1F201FB1200C0B20690A9
:104150009DF81800052802DA04F007FD01E004F0DC
:1041600000FDFCF71FFBFFF74DFEFFF7CFFDFFF74C
:10417000FDFAE3480088E3490988884204DD01200C
:104180000290002001900DE0DD480088DE4909889A
:10419000884204DA012001900020029002E0002011
:1041A000029001904FF0000AD84800789DF8241042
:1041B000884209DA0198012806D1D4480078401CC9
:1041C000D24908704FF0010AD0480078002809DD74
:1041D0000298012806D1CD480078401ECB490870CE
:1041E0004FF0010ABAF1010F1FD10020C849087031
:1041F0000A900AE00020C7499DF8282021F8120003
:104200009DF82800401CC0B20A909DF8280008289C
:10421000F0DBBE490978C04A12781144C8B2FCF7F5
:10422000E6FD3220FCF73FF8CDE0BC48008830B115
:10423000012825D0022872D0032871D13BE0B34871
:104240000078012806D1B648C0890A2190FBF1F018
:10425000B349C881BDF80000012803D140F22620EF
:10426000059002E04FF496600590AD48C089BDF816
:104270001410884203DD4FF6FF70A949C881A1E000
:104280009F48008848B1A7480068A749884208D9D4
:104290004FF6FF70A349086003E04FF6FF70A14995
:1042A0000860BAF1000F05D1BDF82000062801DB37
:1042B0000120039086E09D480078D0B9904800889E
:1042C00048B1984800689849884208D94FF6FF706D
:1042D0009449086003E04FF6FF7092490860BAF114
:1042E000000F2BD1BDF82000062827DB012003900A
:1042F00024E086480078012806D18948C0890A212F
:1043000090FBF1F08649C8814FF496600590BDF8A6
:104310000000012805D140F22620059004E00EE0BF
:104320004FE04FF4966005907D48C089BDF81410A9
:10433000884203DD4FF6FF707949C88142E07B482F
:10434000007818BB71480078012806D17448C089EC
:104350000A2190FBF1F07249C8814FF496600590F4
:10436000BDF80000012803D140F22620059002E0AC
:104370004FF4966005906A48C089BDF814108842D1
:104380001EDD4FF6FF706649C88119E05C48008861
:1043900048B1644800686449884208D94FF6FF7004
:1043A0006049086003E04FF6FF705E490860BAF1AB
:1043B000000F05D1BDF82000062801DB0120039085
:1043C00000E000BF00BF4A48007802287ED1039871
:1043D0000128FBD1BAF1000FF8D15048008830B164
:1043E00001283DD0022872D0032871D1A6E04C48A4
:1043F000C08905904948C088BDF81410884222DA67
:104400004B48808858B9BDF81400B0F5966F03DDAD
:104410000A203749087002E00620354908704448F0
:10442000808801280CD1BDF8140041F288318842FF
:1044300003DD0A202E49087002E006202C4908708E
:1044400002202C49887035480089BDF81410884234
:1044500005DD0720264908700320264988707EE183
:104460003048006880B205902848007820B10128C3
:104470000BD0022819D110E0BDF814004FF47A7166
:1044800090FBF1F080B2059010E0BDF814006421BB
:1044900090FBF1F080B2059008E0BDF814000A210D
:1044A00090FBF1F080B2059000E000BF00BF1B4818
:1044B000C088BDF8141088420CDA1848C08848B18A
:1044C00006200B49087008200A4902E048E1BDE0D7
:1044D00044E1887011480089BDF8141088422CDD31
:1044E00007200349087025E00000E03F0C00002091
:1044F000040000202A020020030000202A000020DF
:104500001E000020320000203000002006000020A5
:1045100022000020BC0100202E000020CC01002041
:10452000D8000020140000209F8601002F000020EA
:10453000F40000200920F749887010E1F64800785F
:10454000B0BBF648006880B20590F548007820B10D
:1045500001280BD0022819D110E0BDF814004FF447
:104560007A7190FBF1F080B2059010E0BDF8140074
:10457000642190FBF1F080B2059008E0BDF81400D2
:104580000A2190FBF1F080B2059000E000BF00BF6F
:10459000E448C088BDF8141088420ADAE148C088AF
:1045A00038B10620E04908700820DA49887003E035
:1045B00013E00620D7498870DA480089BDF8141046
:1045C000884206DD0720D84908700920D149887043
:1045D0003BE00620CF49887037E0D448C089059079
:1045E000D048C088BDF81410884222DAD0488088AC
:1045F00058B9BDF81400B0F5966F03DD0A20CA491A
:10460000087002E00620C8490870C948808801285F
:104610000CD1BDF8140041F28831884203DD0A2034
:10462000C149087002E00620BF4908700220C14954
:104630008870BC480089BDF81410884205DD072049
:10464000B94908700320BB49887088E0B2480078F7
:10465000E0BBB648C0890590B248C088BDF81410C8
:10466000884223DAB248808858B9BDF81400B0F502
:10467000966F03DD0A20AC49087002E00620AA49C3
:104680000870AB48808801280CD1BDF8140041F2B5
:104690008831884203DD0A20A349087002E0062021
:1046A000A149087002209B49887002E000209949C6
:1046B00088709C480089BDF81410884207DD0720E7
:1046C0009949087003209349887046E003E0002070
:1046D0009049887041E09148006880B20590904808
:1046E000007820B101280BD0022819D110E0BDF8C4
:1046F00014004FF47A7190FBF1F080B2059010E055
:10470000BDF81400642190FBF1F080B2059008E040
:10471000BDF814000A2190FBF1F080B2059000E092
:1047200000BF00BF7F48C088BDF81410884208DA77
:104730007C48C08828B106207B49087008207D4944
:10474000887078480089BDF81410884205DD07207C
:104750007549087009207749887000E000BF00BFE4
:104760007148007806280FD06F48007807280BD0D2
:104770006D480078052807D06B480078082803D0DA
:10478000694800780A2809D101206B490870072080
:104790006A4908704FF0010B01200490BBF1010F32
:1047A0007ED14FF0000B0020654908700120487051
:1047B0005C48008830B1012873D0022872D00328E9
:1047C00071D1F4E05A48C0885E49096888420DD921
:1047D0005748C0885B490968401A022813D85448D2
:1047E000C08858490860012003900CE05048C088F8
:1047F00054490968081A022805D84D48C08851490B
:104800000860012003904F49096888B20123032200
:104810000221FCF7D6F84C4804F071FC14214B48F7
:1048200005F0F3F8494848490968016048A105F0D6
:10483000F7F844480068000A3649087141480068A2
:10484000487109203E4908703849C889002304226C
:104850000221FCF7B6F83548C089B0F57A7F0EDA48
:1048600039484078384908700846807848700846CA
:10487000C078887008460079C870002008713249F5
:10488000324805F0CDF828480078082831D026486D
:1048900000780A282DD02C4804F031FC2A4803E087
:1048A000FEE31CE2FAE2FCE305F053FE044605F0E9
:1048B000F5FA284908601D48C089B0F57A7F03DA07
:1048C00025A004F009FC02E024A004F005FC214826
:1048D0000078104988711F484078C8711D48807859
:1048E00008721C48C07848721DA1184805F098F855
:1048F00054E00D4800780A283AD1134819A10A68F3
:1049000002600979017104F0FAFB18A004F0E4FBDD
:104910003EE000002A0200202F00002014000020AA
:1049200006000020CC01002004000020D800002058
:10493000F40000203E0200200000002003000020C0
:10494000B20000200C000020B40000200202002071
:104950006B563B0050000020206D41006D4100006F
:104960006D413B004F464C2000000000202000001D
:10497000FE48007808280BD1FD48FE490A6802600D
:104980000979017104F0BBFBAFF2200004F0A4FB35
:10499000FF20F9498871C87108724872F748008988
:1049A0000012F5498872F5480089C87275E2F4482A
:1049B000007800287ED10120F2490870F248808AF0
:1049C000F249096888420BD9EF48808AEF490968A3
:1049D000401A02280FD8EC48808AEC4908600AE0A7
:1049E000E948808AE9490968081A022803D8E64894
:1049F000808AE6490860E549096888B201230322F4
:104A00000221FBF7DEFFDA4804F079FB1421E048CD
:104A100004F0FBFFDE48D64909680160AFF2D0011F
:104A200004F0FEFFD9480068000AD3490871D7484E
:104A3000006848710920D7490870D748006842F2D9
:104A40000F71884225D9D5480078022810D1D24864
:104A500000680A21B0FBF1F084B2D14ACF48007857
:104A6000401C115C012305222046FBF7AAFF1BE036
:104A7000C94800680A21B0FBF1F084B2C84AC748AF
:104A80000078401C115C012304222046FBF799FFAB
:104A90000AE0C34AC14B1B78D15CBF4A126890B28E
:104AA00001230422FBF78DFFBB4800684FF6FF711E
:104AB000884200E037E01CD0AD4804F020FBAC4950
:104AC000B34804F0ADFFAA4805F043FD044605F0E5
:104AD000E5F9B449086008460078A7498871B148EB
:104AE0004078C871AF4880780872AE48C078487284
:104AF0000CE0ADA004F003FBABA1A54804F090FFCF
:104B0000FF209D498871C87108724872A8A1A04809
:104B100004F086FF994800890012974988729748E7
:104B20000089C872DAE00220964908709648C08869
:104B30009649096888420DD99348C0889349096805
:104B4000401A022813D89048C08890490860012074
:104B500003900CE08C48C0888C490968081A022828
:104B600005D88948C0888949086001200390874991
:104B7000096888B2012303220221FBF722FF7C4847
:104B800004F0BDFA14218B4804F03FFF89487849AE
:104B900009680160AFF2482104F042FF7B480068D9
:104BA000000A8549087179480068487109207949E7
:104BB00008707249C889012304220221FBF701FF12
:104BC0006E48C089B0F57A7F0EDA69484078684946
:104BD00008700846807848700846C0788870084693
:104BE0000079C870002008716149724804F018FF0C
:104BF0005E48007808282FD05C4800780A282BD01F
:104C00005B4804F07CFA5A4805F0A3FC044605F022
:104C100045F9644908605948C089B0F57A7F04DADB
:104C2000AFF2CC2004F058FA03E0AFF2D02004F049
:104C300053FA5C480078604988715A484078C871D6
:104C40005848807808725748C0784872AFF2F0210F
:104C5000584804F0E5FE31E0444800780A2812D1B3
:104C60004348AFF200310A6802600979017104F02B
:104C700046FAAFF2083004F02FFAAFF21C314D487B
:104C800004F0CEFE14E039480078082810D13848E6
:104C900038490A6802600979017104F030FAAFF20C
:104CA000343004F019FAAFF24831424804F0B8FE4B
:104CB000FF2041498871C871087248722C4805F07C
:104CC00048FC044605F0EAF8364908602B4800899C
:104CD00000123949887229480089C8728DE22A4831
:104CE000808A2A49096888420BD92748808A27493F
:104CF0000968401A02280FD82348808A234908608F
:104D00000AE02148808A21490968081A022803D844
:104D10001D48808A1D4908601C49096888B2012322
:104D200003220221FBF74DFE114804F0E8F914219B
:104D3000204804F06AFE1F480D4909680160AFF27F
:104D4000F03104F06DFE11480068000A0A4908714C
:104D50000E480068487109200E4908700E48006826
:104D600042F20F7188424ED90C4827E0040000201F
:104D7000B40000208C2B00082A020020D80000205C
:104D80002F00002049000020F40000200C0000202B
:104D900016020020B20000201400002006000020AF
:104DA0000DAF0008500000203E39393939000000AD
:104DB0004D3B0000020200203E0200200078022845
:104DC00010D1FC4800680A21B0FBF1F084B2FA4A25
:104DD000FA480078401C115C002305222046FBF7AE
:104DE000F0FD1BE0F34800680A21B0FBF1F084B24B
:104DF000F14AF2480078401C115C0023042220464E
:104E0000FBF7DFFD0AE0EC4AEC4B1B78D15CE94A8A
:104E1000126890B201230422FBF7D3FDE548006835
:104E20004FF6FF7188421CD0E54804F068F9E44968
:104E3000E44804F0F5FDE24805F08BFB044605F07C
:104E40002DF8E149086008460078E0498871DE489D
:104E50004078C871DC4880780872DB48C0784872B6
:104E60000EE0AFF2BC0004F04AF9AFF2C401D5483D
:104E700004F0D6FDFF20D5498871C87108724872C8
:104E8000AFF2D401CF4804F0CBFDD1480089001225
:104E9000CE498872CE480089C872AEE1CD4800780C
:104EA00000287DD10120CC490870CC48C088CC496D
:104EB000096888420DD9C948C088C9490968401A9B
:104EC000022813D8C548C088C5490860012003904E
:104ED0000CE0C248C088C2490968081A022805D8EF
:104EE000BE48C088BE49086001200390BC490968DB
:104EF00088B2012303220221FBF763FDB04804F0CE
:104F0000FEF81421AF4804F080FDAE48AC490968B2
:104F10000160AFF2C45104F083FDB1480068000A9B
:104F2000AA490871AE48006848710920AD49087067
:104F3000A749C889012304220221FBF742FDA448A6
:104F4000C089B0F57A7F0EDA9D4840789C49087098
:104F50000846807848700846C0788870084600790E
:104F6000C870002008719649964804F059FDAFF2C8
:104F70001061944804F054FD9B48007808282CD018
:104F8000994800780A2828D08D4804F0B8F88C4851
:104F900005F0DFFA044604F081FF8B49086000E069
:104FA0004CE08B48C089B0F57A7F04DAAFF25860E4
:104FB00004F092F803E0AFF25C6004F08DF88248F0
:104FC00000788249887180484078C8717E4880782E
:104FD00008727D48C078487227E0834800780A2824
:104FE0000DD17748AFF284610A68026009790171D6
:104FF00004F085F8AFF28C6004F06EF80FE07A48A8
:10500000007808280BD16E4878490A68026009794F
:10501000017104F074F8AFF2AC6004F05DF8FF20A9
:105020006A498871C871087248726948008900121B
:105030006649887266480089C872BAE002206649EB
:1050400008706648808A6649096888420BD96348B7
:10505000808A63490968401A02280FD85F48808A0D
:105060005F4908600AE05D48808A5D490968081A5E
:10507000022803D85948808A594908605849096864
:1050800088B2012303220221FBF79BFC4C4804F069
:1050900036F81421564804F0B8FC5548484901E058
:1050A000BCE0A9E009680160AFF25C7104F0B8FCF3
:1050B0004B480068000A4F49087149480068487128
:1050C0000920484908703B48006842F20F71884245
:1050D00025D93A480078022810D1364800680A21BC
:1050E000B0FBF1F084B2344A34480078401C115CC3
:1050F000002305222046FBF764FC1BE02D480068D6
:105100000A21B0FBF1F084B22B4A2C480078401CF5
:10511000115C002304222046FBF753FC0AE0264AD8
:10512000264B1B78D15C234A126890B201230422DB
:10513000FBF747FC1F4800684FF6FF7188421CD000
:105140001F4803F0DCFF1E49294804F069FC1C4895
:1051500005F0FFF9044604F0A1FE1B49086008466B
:1051600000782449887118484078C87116488078BA
:1051700008721548C07848720EE0AFF2D43003F0E0
:10518000BEFFAFF2DC311A4804F04AFCFF20194997
:105190008871C87108724872AFF2EC31144804F09B
:1051A0003FFC0B48008900121249887208480089A8
:1051B000C87222E0140000200DAF00080600002095
:1051C000B400002002020020500000202A0200202B
:1051D000D80000202F00002049000020F40000200B
:1051E0000C000020B2000020040000208C2B0008DE
:1051F000160200203E02002000BF00BF0A20FE4928
:10520000087000204870FD4908890023042201210C
:10521000FBF7D7FBFA4803F072FF00BFF94890F89C
:105220002B00012801D1FDF7F3FA03F0F9FD0A90F4
:105230009DF82800662814D008DC62280DD0632869
:105240000CD064280BD0652818D109E067280AD053
:10525000E62807D0E72811D106E010E00FE00EE0C5
:105260000DE000BF00BF00BF0320E7490870072022
:10527000E649087004F0CFF8FEF799BE00BF00BF02
:10528000E248007806283EF4ADAEE1480078401CC4
:10529000DF49087004F0BFF800BFEDE710B55A20F1
:1052A000DC490870592048705A20DB4908705920A1
:1052B0004870DA48008ADA49097860F30411D8485E
:1052C0000170D648408AD649097860F30301D44872
:1052D00001700078CF49C870D1480078CE49C870B5
:1052E000D0480078002867D1CF48008870B9C648F8
:1052F0000078032805D0042807D10020C54988700C
:1053000003E00120C349887000BF55E0C64800880B
:1053100001280ED1BC480078032805D0042807D105
:105320000620BC49887003E00720BA49887000BF96
:1053300042E0BD48008803281DD1B3480078032807
:1053400008D0042816D10620B24988700020B2493E
:1053500088700FE0AE480078012803D10720AD49DE
:10536000887006E0AA480078022802D10120AA49E4
:10537000887000BF20E0AC48008802281CD1A248F9
:105380000078032808D0042815D10020A14988708E
:105390000620A14988700EE09D480078012802D1BE
:1053A0009C49887006E09A480078022802D10720BC
:1053B0009949887000BF00BF9A48007820B39A4886
:1053C000008810BB90480078C01E06281CD2DFE879
:1053D00000F00F0313070B1700208E49887013E0AD
:1053E00002208C4988700FE003208A4988700BE006
:1053F00001208849887007E004208649887003E00E
:1054000005208449887000BF1FE087480088012874
:105410001BD17D480078032812D0042804D0062828
:1054200006D0072810D107E006207A4988700BE0E3
:1054300008207849887007E009207649887003E0E1
:1054400007207449887000BF00BF00240DE0714838
:10545000015D764802F0EAFB00BF8021734802F04C
:1054600053FC0028F9D0601CC4B20C2CEFDB6E4852
:105470000088032803D06C480088022811D100243A
:105480000DE06548015D694802F0D0FB00BF802156
:10549000664802F039FC0028F9D0601CC4B20C2C1C
:1054A000EFDB10BD2DE9F04100275C484088C5B214
:1054B000FDF7C1FE54480078032827D0052D1FD2E0
:1054C000DFE805F0040309081D0000BF08204F496C
:1054D00008701AE000BF4E48007801280BD14A48F6
:1054E0000078042803D106204849087006E0082007
:1054F0004649087002E008204449087005E004E0CD
:10550000072042490870BDE8F0812CE0052D1CD22F
:10551000DFE805F0040306051A001AE019E018E0B8
:105520003B48007801280BD137480078042803D184
:1055300006203649087006E008203449087002E069
:1055400008203249087004E003E007202F49087062
:10555000D9E700BF36480078012804D1FFF79EFE46
:105560000020334908700020234908704870FBF779
:10557000C8FA04F066F824480078032807D1082008
:105580001D490870022048704FF6FF740CE029484E
:105590000078401C2749087027480078032803DB5F
:1055A00008201A490870AEE785E08FB100270E2069
:1055B000114908700420487001230422194620462E
:1055C000FBF7FFF90E4803F087FD732003F076FD2B
:1055D0000120FAF787FE70B10B48007803280AD043
:1055E0004FF6FF70844206D001270A210120FAF706
:1055F00076FE601E84B221E0B2000020D8000020B8
:10560000B4000020800200200400002003000020DD
:105610002F0000202A0200203E020020F40000207B
:105620005400002000000020CC0100200038014080
:10563000480000201C0000201B000020012C02DA82
:10564000062068490870684890F82B00012801D1AD
:10565000FDF7DEF8052003F0EEFB0646672E0CD0C2
:1056600004DC642E07D0652E23D105E0682E19D006
:10567000E72E1ED102E01DE01CE000BF5B48007871
:1056800003280BD04FF6FF70844203D10320554905
:10569000087006E003205549087002E003205149D4
:1056A000087007E000205249087006204D49087034
:1056B00000E000BF00BF4B48007807283FF475AFFB
:1056C00000BF20E770B5012503F020FE49480078AF
:1056D000012804D1FFF7E2FD0020464908704BE0A5
:1056E000012D19D100251620434908700220487069
:1056F0004248007830B103F08FFD03F06CFE03F0F8
:10570000D4FD09E003F0A4FF38480078042803D151
:1057100003F0B2FD03F044FE334890F82B0001285B
:1057200001D1FDF775F8022003F085FB0446672CD4
:1057300019D006DC642C0BD0652C0AD0662C19D14C
:105740000FE0682C06D0E62C0CD0E72C12D10BE031
:1057500011E010E00020264908700520214908705A
:1057600009E000BF07E000BF03201E49087003F0F6
:105770006BFD00E000BF00BF1A4800780828AFD0DA
:1057800000201E49087070BD10B506E003F0CCFE85
:1057900003F012FD03201349087012480078012815
:1057A000F4D010BD10B518E00A201349087002208B
:1057B00048700420087032204870002406E003F08E
:1057C00047FF0320FAF76FFD601CC4B20A2CF6DB1A
:1057D00001200449087003F0CFFE02480078002839
:1057E000E2D010BD03000020800200200400002051
:1057F0002F00002048000020B20000200000002000
:105800002DE9F04107460D4616461C460121084683
:1058100001F051F8384602F0BFFD124804801248EA
:10582000056046601020104988600846C46000206A
:1058300008618020486100208861C86120200862DA
:105840004FF44050486200208862384602F046FE1D
:10585000BDE8F08110B504460121204602F069FE42
:1058600010BD0000560000205402002070B5044610
:105870000020FD49087048700B20B4FBF0F100FBDC
:10588000114000EB0010F9494518284603F037FC99
:105890000920F54908700020487003F08AFB0020B9
:1058A000F149087001204870F14803F028FC70BDF0
:1058B0002DE9FF5F04464FF0000A03F0FBFBED48C3
:1058C00030F825000190EB4800EB850040880090FF
:1058D0000B25E94FDFF8A483A8000390002505E01D
:1058E00017F8010B08F8010B681CC5B29DF80C00F5
:1058F0008542F5DB0020E2490860E2490880E24980
:105900000860E2490870E249087003F064FD03F0A2
:10591000B3FC03F0E3FC03F094FE00260220DD4913
:1059200008700A210120FAF7DAFC0120CE494870FC
:1059300002200870D84803F0E2FB0020CA494870F2
:10594000087004EB0411D54A881803F0D8FB002036
:1059500003F046FC0B2C6CD2DFE804F0061626366A
:1059600037475758595A5B0003F0A8FD002003F051
:10597000C2FD0121880701F03FFD03F047FDC84942
:10598000088803F02DFC58E003F07CFD022003F0B2
:10599000B2FD0121880701F02FFD03F037FDC0495A
:1059A000488803F01DFC48E003F06CFD022003F082
:1059B000A2FD0121880701F01FFD03F027FDB84972
:1059C000888803F00DFC38E000BF03F077FD00206D
:1059D00003F091FD0121880701F00EFD03F016FD93
:1059E000AF49888803F0FCFB27E003F04BFD022061
:1059F00003F081FD0121880701F0FEFC03F006FDA4
:105A00004FF4B47003F0ECFB17E000BF00BF00BF21
:105A100000BF03F037FD022003F06DFD0121880770
:105A200001F0EAFC03F0F2FC9D49888803F0D8FB02
:105A300003E0002003F0D4FB00BF00BFA0E1012081
:105A4000FAF750FC28B10120914908700A21FAF7B1
:105A500046FC8F480078012817D100208C49087037
:105A60004FF0010A09F1010000F0FF09092099FB3C
:105A7000F0F100FB119000F0FF09B9F1050F02DA17
:105A800003F02CFC01E003F041FC03F0BFFB85496F
:105A9000C88103F0B5FB834908601CB1012C01D01B
:105AA000022C06D17F480068744901EB84014880CC
:105AB0004DE0032C0DD0062C0BD0042C01D101207D
:105AC00000E00020052C01D1012100E00021084365
:105AD00030B17448C089694901EB8401488036E0DF
