:020000040800F2
:100000003007002045010008F902000859050008E2
:100010005D05000861050008650500080000000096
:10002000000000000000000000000000690500085A
:100030006B050008000000006D0500086F05000852
:100040005F0100085F0100085F0100085F01000810
:100050005F0100085F010008F905000819060008A3
:10006000390600087D0600085F0100085F010008EE
:100070005F0100085F0100085F0100085F010008E0
:100080005F0100085F0100085F0100085F010008D0
:100090005F0100085F0100085F010008F705000824
:1000A0005F0100085F0100085F0100085F010008B0
:1000B0005F010008710500085F0100085F0100088A
:1000C0005F0100085F0100085F0100085F01000890
:1000D0005F010008FB0200085F0100085F010008E3
:1000E0005F0100085F0100085F0100085F01000870
:1000F0005F0100085F0100085F0100085F01000860
:100100005F0100085F0100085F0100085F0100084F
:100110005F0100085F0100085F0100085F0100083F
:100120005F0100085F0100085F0100085F0100082F
:10013000DFF80CD009F0B4FB004800478901000843
:10014000300700200648804706480047FEE7FEE7E4
:10015000FEE7FEE7FEE7FEE7FEE7FEE7FEE7FEE777
:10016000C77E00083101000870B504460D46E1B2B3
:10017000234807F059F900BF8021214807F0C2F950
:100180000028F9D0204670BD02201E49087036E0D4
:100190001C4800780A282CD2DFE800F02B2805083C
:1001A0000D121A1D202302F0A3F927E008F080FBAE
:1001B00002F09CFD22E008F07BFB02F042FE1DE015
:1001C00008F076FB00201049087002F03EFE15E0B2
:1001D00003F019FC12E004F08DFD0FE004F071FE55
:1001E0000CE008F065FB05F082FB07E004F0C6FEBA
:1001F00004E008F05DFB04F0EDFE00BF00BFC7E7C0
:1002000000380140030000200200002010B505F076
:10021000EFFD4FF4803005F00BFE05F048FE01289D
:1002200020D1002005F089FE002005F098FE4FF453
:10023000806005F08BFE4FF4E0114FF4803005F044
:100240005FFE012005F068FE00BF392005F013FEB7
:100250000028FAD0022005F062FE00BF05F068FE1B
:100260000828FBD110BD00E0401E0028FCD17047DB
:10027000014601EBC1024FF0E0235A6100229A616E
:1002800001221A6100BF4FF0E022106900F0010264
:100290001AB100F48032002AF5D000224FF0E0239A
:1002A0001A619A617047014642F228324A434FF080
:1002B000E0235A6100229A6101221A6100BF4FF0C7
:1002C000E022106900F001021AB100F48032002A25
:1002D000F5D000224FF0E0231A619A617047054A79
:1002E0001154704701460348405C08B9012070472B
:1002F0000020FCE719000020704710B540F225519E
:10030000EA4807F015F9002877D02021E74807F0E0
:1003100006F9E74890F84800002846D1E548007EF5
:1003200000280FD10621E34880F83910DF4807F094
:100330007FF8C4B2AA2C10D1DE48407E18B100214B
:10034000DC48417697E0DB48417E407E401CC2B2EB
:10035000D84842761B3044548DE0BB2C13D1D5488D
:10036000417E407E401CC2B2D24842761B3044548B
:100370000120D04908760846417E817600214176E9
:1003800080F8391077E0CB48407E1E2803DB00213F
:10039000C84841766FE0C748417E407E401CC2B2EB
:1003A000C44842761B30445465E0C14890F8480088
:1003B000012860D1BF48007E00285CD10621BD48DD
:1003C00080F83910B94807F033F8C4B2112C15D1B0
:1003D000B848407E022811DAB648407E18B10021A4
:1003E000B448417647E0B348417E407E401CC2B2EB
:1003F000B04842761B3044543DE050E0082C15D103
:10040000AC48407E022811DAAA48407E012803D079
:100410000021A84841762EE0A648417E407E401C3F
:10042000C2B2A44842761B30445424E0A148407E26
:100430001E2803DB00219F4841761CE09D48417E39
:10044000407E401CC2B29B4842761B3044541B384D
:10045000407E02280FDD9748417E407FC01C8142CC
:1004600009D10120934908760846417E8176002112
:10047000417680F839109048007E00285DD1062131
:100480008C4880F83910894806F0D2FFC4B2FF2C9E
:1004900010D18948407E18B10021874841764CE050
:1004A0008548417E407E401CC2B2834842761B3064
:1004B000445442E0EE2C11D17F48407E012803D005
:1004C00000217D48417638E07B48417E407E401CDB
:1004D000C2B2794842761B3044542EE0DD2C1BD149
:1004E0007548407E032803D000217348417624E0FC
:1004F0007148417E407E401CC2B26F4842761B303C
:10050000445401206C4908760846417E81760021DA
:10051000417680F8391010E06748407E1E2803DBE2
:1005200000216548417608E06348417E407E401CDA
:10053000C2B2614842761B3044544FF458715B4854
:1005400006F0F6FF38B10821584806F0E8FF574892
:1005500006F06EFFC4B210BD00BFFEE700BFFEE7AD
:1005600000BFFEE700BFFEE7704770477047704767
:1005700010B50121514806F017FE08F06CF85048FC
:10058000007806281DD14F480078401C4D4908705E
:100590000846007809281ADD0020087001204A4921
:1005A00008704A480089401C48490881484800684A
:1005B000401C4749086047480068401C454908609E
:1005C00005E04048007810B100203E490870002442
:1005D00009E04148005D20B13F48005D401E3E49B2
:1005E0000855601CC4B2022CF3DB3C48007808B903
:1005F00008F0C9FB10BD704710B50121384805F05F
:100600003CFB28B92A48408A10B1052035490870BA
:10061000012005F0B6FE10BD10B50120FFF743FE26
:1006200002212F4805F029FB10B908202D49087038
:10063000022005F0A6FE10BD10B50520FFF733FE21
:100640000421274805F019FBA0B91D4800780328AC
:1006500007D01B480078072803D0194800780828DD
:1006600006D105201649087000201F49087001E0D6
:1006700013480078042005F084FE10BD10B5012059
:10068000FFF711FE0821164805F0F7FA50B90C489B
:100690000078062803D107200949087002E00320EA
:1006A00007490870082005F06CFE10BD00380140B5
:1006B000F00000207C020020F00200200004004036
:1006C000030000203C00002001000020D400002096
:1006D000A4000020100000201900002000000020CD
:1006E00000140140040000202F00002010B500205D
:1006F000FE490870487008F05AF8FD484088E8B193
:10070000012804D002287DD003286ED13AE0F948B0
:1007100008F0E0F80620F549087001204870F6A0BE
:1007200008F0EBF80E20F149087001204870F3A0A2
:1007300008F0E3F8F42008F07DF8A2E0F048007833
:10074000012803D1EF4808F0C5F803E0ED48C01DCB
:1007500008F0C0F80620E549087001204870E44818
:10076000808818B1E4A008F0C8F802E0E6A008F01C
:10077000C4F80E20DD49087001204870E3A008F09D
:10078000BCF87EE0E2480078B0B9DA4808F0A2F898
:100790000620D649087001204870D7A008F0ADF8AF
:1007A0000E20D249087001204870D4A008F0A5F8A6
:1007B000F42008F03FF824E0D1480078012803D164
:1007C000D04808F087F803E0CE48C01D08F082F852
:1007D0000620C649087001204870C548808828B1A5
:1007E000C5A008F08AF804E00CE049E0C6A008F0D3
:1007F00084F80E20BD49087001204870C3A008F09D
:100800007CF83EE0C248007818BBBD48007801285B
:1008100003D1BC4808F05EF803E0BA48C01D08F0F8
:1008200059F80620B149087001204870B048808806
:1008300018B1B1A008F061F802E0B3A008F05DF8CB
:100840000E20AA49087001204870B0A008F055F8A1
:1008500015E0A84808F03EF80620A44908700120D9
:100860004870A5A008F049F80E20A04908700120A2
:100870004870A2A008F041F8F42007F0DBFF00E088
:1008800000BF00BF072099490870002048709BA056
:1008900008F033F8964909783131C8B208F00CF8FD
:1008A0000F209249087000204870732008F00AF861
:1008B00004208E4908700120487096A008F01DF8A9
:1008C00010BD8B484A2102E000220270401C0A1E23
:1008D000A1F1010399B2F7D18F4B1A707047002034
:1008E00010E0834A921C02EB40010A888B4B33F8DC
:1008F00020309A4204DD894A02EB800252880A8045
:10090000421CD0B20D28ECDB7047F0B504461D4602
:10091000052A00DD052202B90122042900DD042197
:10092000914200DD1146002004E020267C4F3E5419
:10093000461CF0B20828F8D3104611E00A2694FBB2
:10094000F6F706FB17463036F7B2461EDFF8D0C181
:100950000CF806700A2694FBF6F6B4B2461EF0B206
:100960000028EBDC81B11346084605E05E1E6C4FA3
:10097000BE5DFE545E1EF3B2061EA0F10107F8B282
:10098000F4D12E26664FFE54A5B900200EE0644E29
:10099000365C302E07D1624F461CBE5D2E2E02D033
:1009A00020263E5400E004E0461CF0B2561E86426B
:1009B000EDDC00BF09B1561CF2B2104604E000267F
:1009C000574F3E54461CF0B20828F8D3F0BD10B57E
:1009D000474890F8480018B9524807F07BFF07E0F5
:1009E000434890F84800012802D14F4807F072FFB1
:1009F00010BD10B53E4890F8480020B94948153060
:100A000007F068FF08E03A4890F84800012803D151
:100A10004548153007F05EFF10BD10B543A007F044
:100A200059FF10BD10B5002030490870487007F01C
:100A3000BEFEFFF7CCFF00202C4908700120487053
:100A400007F0B5FEFFF7D5FF10BD10B52C490978AA
:100A5000C1EBC101384A881807F04FFF10BD10B52F
:100A600023484088032802DD0020214948800020D7
:100A70001E490870487007F09AFE1D49498801EB2D
:100A800041012E4A02EB410007F037FF07201749CA
:100A900008700020487016490978481C01231A463E
:100AA0000021FFF732FF15A007F027FF1C4807F0D1
:100AB00011FF0F484088012803DD21A007F00AFF3D
:100AC00002E020A007F006FF0A2008490870084845
:100AD0004088032803D006484088012837D10449BC
:100AE000488B0023042201212EE00000AE000020EC
:100AF000F00000205F9E0008444300004D0000000D
:100B0000040000206D9E0008414300006D4100007C
:100B10002F0000206B5600000200002010A50008E6
:100B2000B000002022A60008B9A500084175672082
:100B300032322032303230007AA50008E19E0008BF
:100B40005F00000020000000FFF7DFFE06E0F7492D
:100B5000C889002304220121FFF7D7FEF44807F0DB
:100B6000CCFEF4A007F0B6FE0020F3490870012087
:100B70004870EE48808840B9EC48C088B0F5167FD0
:100B800003DD4FF41671E948C180E8484088012828
:100B90000AD1E649888A002303220221FFF7B5FE25
:100BA0000121E248818006E0E049C8880023032251
:100BB0000221FFF7AAFEDE4807F09FFEAFF2AC006D
:100BC00007F088FE1421DD4808F00BFBDB48D8490C
:100BD00009680160DAA108F00FFBD448808840B9A9
:100BE000D2484088032804D0AFF2E40007F072FE38
:100BF00003E0AFF2FC0007F06DFECC48408803280C
:100C000003D0CA48408801281CD10A20CA4908706C
:100C1000C649C88A002304221946FFF776FEC44855
:100C200007F06BFEAFF22C1007F054FEF42007F033
:100C300001FEBF49C14808F0DFFAC2A1BF4808F071
:100C4000DBFA18E00920BC490870B849088900237C
:100C500004220221FFF759FEB54807F04EFEAFF21D
:100C6000541007F037FEB249B44808F0C5FAB7A1EE
:100C7000B24808F0C1FA10BD70B50546B448047812
:100C800004F03F0475B1012D09D0022D04D0032DCD
:100C900009D144F0C00409E044F0800406E044F0C7
:100CA000400403E002E044F0C00400BF00BFA848D5
:100CB00004700020A7490860A5480078C0430006DA
:100CC000A349097840EA0120A34908600120A3490B
:100CD000C1F890016420FFF7E6FA70BD70B50446D4
:100CE0000020954908704870254604EBD5714910DD
:100CF000A4EB4101C1EBC10101EB4101984A881805
:100D000007F0FBFD00208C490870012048709548D1
:100D100007F0F3FD70BDF8B504460127864800785A
:100D20008DF80000844840788DF80100206808F0B4
:100D30006FFAC6B2701CC6B2082E00DD082652E05B
:100D400067B19DF800007C4908709DF8010048706B
:100D5000A288216806FB021007F0CFFD0A2007F0E9
:100D600068FC0546E12D15D009DCA5F161000828D5
:100D700037D2DFE800F00E201136362E3331A5F1E0
:100D8000E20007282DD2DFE800F017082C2C252AD6
:100D9000280000BF6120F8BD00BF0127A08861893D
:100DA000884203DDA088401EA08003E06089A08007
:100DB00008F03AF816E000BF0127A088401CA08088
:100DC000A0882189884203DD2089A08008F02CF8C2
:100DD00008E000BF6620DEE700BF00BF00BF67205D
:100DE000D9E700BF00BFABE710B504460020524969
:100DF0000870487004EB840101EBC4015A4A88185A
:100E000007F07BFD00204C490870012048705748CE
:100E100007F073FD10BD10B504460A2094FBF0F1F5
:100E200000FB1140C4B234B1012C11D0022C19D0F6
:100E3000032C31D123E03E4807F05FFD202007F06E
:100E40003BFD562007F038FD202007F035FD24E05B
:100E5000374807F052FD202007F02EFD732007F0E1
:100E60002BFD1AE0324807F048FD202007F024FD52
:100E70004D2007F021FDF42007F01EFD0DE02C4869
:100E800007F03BFD202007F017FD4D2007F014FD73
:100E9000F42007F011FD00E000BF00BF10BD10B549
:100EA000044600202449087048700E2C13D2DFE855
:100EB00004F007131FA5A6A7A8A9AAABF0F1F2F3A7
:100EC0002BA007F01AFD00201B4908700120487074
:100ED0002CA007F012FDFFE02EA007F00EFD002071
:100EE00015490870012048702E4807F006FDF3E010
:100EF0000E484088C8B1012804D0022858D00328E1
:100F000079D154E0A11E284A02EB011007F0F5FC4C
:100F100000200949087001204870611E01EB011191
:100F2000204A881807F0E9FC66E03FE0F000002066
:100F3000B000002073000000AE000020FE01002081
:100F40006B563B004DA6B83B000000006D413B00D6
:100F5000A100002090812242101401400080224212
:100F60002EA3000882A3000800A40008EBA3000839
:100F70004D656D6F72793D2020202020202020209B
:100F80000000000052616E67653A312D3920202043
:100F9000202020005465737420203D202020202034
:100FA00020202000F99E00087B9E000800BF00BFA3
:100FB0000020FD4908704870A11EFC4A02EB011098
:100FC00007F09BFC0020F849087001204870F848A1
:100FD000808840B9A11E01EB0111F64A881807F07C
:100FE0008CFC07E007E0A11E01EB0111F24A881812
:100FF00007F083FC00E000BF00BF6DE000BF00BF52
:1010000000BF00BF00BF00BFE9484088C8B1012849
:1010100004D0022817D0032834D113E0A11EE74AD8
:1010200002EB011007F069FC0020DF490870012085
:101030004870611E01EB0111E14A881807F05DFC60
:1010400021E000BF00BFA11E01EB0111DD4A88189D
:1010500007F053FC0020D449087001204870D448A0
:10106000808838B9611E01EB0111D24A881807F057
:1010700044FC06E0611E01EB0111CF4A881807F01D
:101080003CFC00E000BF00BF26E005E003E001E01B
:10109000FFE700BF00BF00BFA11E01EB0111C94A5D
:1010A000881807F02AFC0C2C01D00B2C07D10E203D
:1010B000BD49087000204870F42007F003FC0020B0
:1010C000B949087001204870611E01EB0111BE4A48
:1010D000881807F012FC00BF00BF10BD2DE9F843CF
:1010E00005464FF00109B04800788DF80000AE4881
:1010F00040788DF801000027A87908B9032600E0A0
:101100000426FFE0B9F1000F10D09DF80000A649B9
:1011100008709DF801004870AB89DAB2A979A888F7
:101120000023FFF7F2FBA94807F0E7FB0A2007F0CE
:1011300080FA8046B8F1E10F15D009DCA8F1610012
:10114000082871D2DFE800F00E7612D7D7CFD4D2BC
:10115000A8F1E2000728F4D2DFE800F08829CDCD1D
:10116000C6CBC90000BF6120BDE8F8834FF001097C
:10117000002797488079C0F10300B04202DA701E60
:10118000C4B200E03446934830F81400698908443A
:10119000A988884206DCA8888E4931F81410401AC4
:1011A000A88003E06889A88007F03EFEA9E04FF020
:1011B0000109781CC7B286488079C0F10300B042AB
:1011C00002DA701EC4B200E034461C2F0CDD002C85
:1011D00001DD601EC4B2002C01DD601EC4B2002C13
:1011E00013DD601EC4B210E0132F08DD002C01DDFA
:1011F000601EC4B2002C08DD601EC4B205E00A2FD8
:1012000003DD002C01DD601EC4B2724830F814000A
:1012100069890844A988884207DCA8886D4931F8A3
:101220001410401AA88004E065E06889A88007F0DF
:10123000FBFD66E04FF00109002765488079C0F1A9
:101240000300B04202DA701EC4B200E03446A8883F
:10125000604931F814100844A880A8882989884278
:1012600003DD2889A88007F0DFFD4AE04FF001097F
:10127000781CC7B256488079C0F10300B04202DA48
:10128000701EC4B200E034461C2F0CDD002C01DDC2
:10129000601EC4B2002C01DD601EC4B2002C13DD40
:1012A000601EC4B210E0132F08DD002C01DD601EAB
:1012B000C4B2002C08DD601EC4B205E00A2F03DDB5
:1012C000002C01DD601EC4B2A888424931F8141018
:1012D0000844A880A8882989884203DD2889A88035
:1012E00007F0A2FD0DE000BF66203DE700BF08E06B
:1012F00000BF672038E738488078012800D00027F1
:1013000000BF00BFFEE62DE9F041002500260027C2
:101310003248C08940F6D861884211DD012500BFFE
:10132000002405E000202E4941F82400601CC4B2CE
:101330000C2CF7DB00202B4908702B49088009E0B2
:101340002648C089B0F5B47F02DA0126002501E005
:1013500000250026002725480078002816DD012DED
:1013600014D122480078401E20490870012700242B
:1013700005E000201A4941F82400601CC4B20C2C7E
:10138000F7DB0020174908701749088017480078D4
:1013900004283ADA012E38D114480078401C134949
:1013A00008700127002429E0AE0000204E9F0008AD
:1013B000F0000020CE9F000810A200087B9E0008CD
:1013C000F99E000867A0000833A10008B0000020C3
:1013D000C40000203C9E0008A8000020D40000208B
:1013E00078010020070000200800002006000020EF
:1013F0000020FE4941F82400601CC4B20C2CF7DB2D
:101400000020FB490870FB490880012F06D1FA48EB
:101410000078FFF731FC3220FEF745FFBDE8F08190
:1014200001B590B00021109808F034F910D210984E
:1014300008F0D0F80022F14BCDE9060107F0B7FF24
:10144000CDE9080108F00AF910900120EC49087074
:10145000109808F0BFF8EB4AEB4BCDE9080108F013
:10146000CDF801D211B000BD109808F0B3F8E74AEA
:10147000E74BCDE9080108F0D9F858D2109808F0E8
:10148000A9F8E24AE24BCDE9060108F002F8CDE9FD
:10149000080108F0E3F80E90DE480D9000200B9054
:1014A00026200A903FE0DDE90D1007F042FF4FF0E3
:1014B0007E51099008F0EEF80ED20D9808F08AF8E7
:1014C0000022D54BCDE9060107F0E3FFCDE9080185
:1014D00008F0C4F80D9000E028E00D9808F07AF8C4
:1014E000CE4ACF4BCDE9020107F061FFCDE90601FD
:1014F000109808F06FF8CDE90401DDE9062307F044
:10150000C8FFCDE9080108F04CF80C90BC490C98D4
:1015100048600A9808720B98401C40B20B900A98D9
:10152000401E40B20A900B980428BCDB16E21098CB
:1015300008F050F8BB4ABC4BCDE9080108F076F83A
:1015400058D2109808F046F8B64AB74BCDE90601D4
:1015500007F09FFFCDE9080108F080F80E90B3482E
:101560000D9000200B9023200A903FE0DDE90D1044
:1015700007F0DFFE4FF07E51099008F08BF80ED295
:101580000D9808F027F80022A34BCDE9060107F0DB
:1015900080FFCDE9080108F061F80D9000E028E037
:1015A0000D9808F017F8A24AA24BCDE9020107F006
:1015B000FEFECDE90601109808F00CF8CDE9040113
:1015C000DDE9062307F065FFCDE9080107F0E9FF33
:1015D0000C908B490C9848600A9808720B98401C34
:1015E00040B20B900A98401E40B20A900B9808280F
:1015F000BCDB9BE7109807F0EDFF8F4A8F4BCDE9DE
:10160000080108F013F858D2109807F0E3FF8A4A4F
:101610008A4BCDE9060107F03CFFCDE9080108F04F
:101620001DF80E9081480D9000200B901C200A9010
:101630003FE0DDE90D1007F07CFE4FF07E51099090
:1016400008F028F80ED20D9807F0C4FF0022724B64
:10165000CDE9060107F01DFFCDE9080107F0FEFF07
:101660000D9000E028E00D9807F0B4FF744A754B28
:10167000CDE9020107F09BFECDE90601109807F0C5
:10168000A9FFCDE90401DDE9062307F002FFCDE95A
:10169000080107F086FF0C9059490C9848600A9899
:1016A00008720B98401C40B20B900A98401E40B242
:1016B0000A900B980828BCDBEEE3109807F08AFF2D
:1016C000614A624BCDE9080107F0B0FF58D210988B
:1016D00007F080FF5C4A5D4BCDE9060107F0D9FEBB
:1016E000CDE9080107F0BAFF0E9050480D90002098
:1016F0000B9015200A903FE0DDE90D1007F019FE70
:101700004FF07E51099007F0C5FF0ED20D9807F0FB
:1017100061FF0022404BCDE9060107F0BAFECDE99A
:10172000080107F09BFF0D9000E028E00D9807F0FE
:1017300051FF0022464BCDE9020107F038FECDE90A
:101740000601109807F046FFCDE90401DDE9062304
:1017500007F09FFECDE9080107F023FF0C90284910
:101760000C9848600A9808720B98401C40B20B9085
:101770000A98401E40B20A900B980828BCDB8BE305
:10178000109807F027FF0022324BCDE9080107F03F
:101790004DFF2AD2109807F01DFF00222D4BCDE9F6
:1017A000060107F076FECDE9080107F057FF0E901D
:1017B0001E480D9000200B900D200A9077E0DDE987
:1017C0000D1007F0B6FD4FF07E51099007F062FF53
:1017D00046D20D9807F0FEFE00220F4BCDE9060120
:1017E00007F057FECDE9080136E064E078010020FB
:1017F0000700002008000020060000200000F0BFC5
:10180000E4000020ECCFC55FFFFF0F38824DC772A8
:101810006142334700007A440000244021D7E6FAB1
:10182000E031F44581121F2FE727C0458096184B01
:1018300092D54D06CFF0804450EFE2D6E41A4B44E7
:1018400000003426F56B0C430000901EC4BCD64249
:1018500084D79741D012634107F000FF0D9000E05C
:1018600028E00D9807F0B6FE0022FD4BCDE90201FD
:1018700007F09DFDCDE90601109807F0ABFECDE91C
:101880000401DDE9062307F004FECDE9080107F0B5
:1018900088FE0C90F3490C9848600A9808720B98DF
:1018A000401C40B20B900A98401E40B20A900B9820
:1018B000082884DBF0E24FF07E51109807F0F4FE28
:1018C0004DD210980E90E8480D9000200B90072004
:1018D0000A9021E0DDE90D1007F02BFD4FF07E515D
:1018E000099007F0D7FE0ED20D9807F073FE002284
:1018F000DB4BCDE9060107F0CCFDCDE9080107F08F
:10190000ADFE0D9000E00AE00B98401C40B20B9039
:101910000A98401E40B20A900B980828DADB00BFF4
:101920000D9807F057FED14AD14BCDE9020107F0DF
:101930003EFDCDE90601109807F04CFECDE904010B
:10194000DDE9062307F0A5FDCDE9080107F029FE32
:101950000C90C4490C9848600A9808729CE2109850
:1019600007F038FEC34AC44BCDE9080107F05EFE1C
:1019700059D2109807F02EFE0022C04BCDE9060187
:1019800007F015FDCDE9080107F068FE0E90B64896
:101990000D9000200B900A9041E0DDE90D1007F05A
:1019A000C8FC4FF07E51099007F074FE0ED20D98DE
:1019B00007F010FE0022AA4BCDE9060107F069FDF1
:1019C000CDE9080107F04AFE0D9000E02AE00D98ED
:1019D00007F000FE02460B46CDE90201A848A949DE
:1019E00007F057FDCDE90601109807F0F3FDCDE9AA
:1019F0000401DDE9062307F0DAFCCDE9080107F070
:101A0000D0FD0C9097490C9848600A9808720B9882
:101A1000401C40B20B900A98401E40B20A900B98AE
:101A20000828BADB38E2109807F0D4FD964A974BA5
:101A3000CDE9080107F0FAFD5AD2109807F0CAFD67
:101A4000934A944BCDE9060107F0B1FCCDE90801BA
:101A500007F004FE0E9084480D9000200B90C01FEC
:101A60000A9041E0DDE90D1007F063FC4FF07E5174
:101A7000099007F00FFE0ED20D9807F0ABFD002283
:101A8000774BCDE9060107F004FDCDE9080107F029
:101A9000E5FD0D9000E02AE00D9807F09BFD024661
:101AA0000B46CDE902017C487C4907F0F2FCCDE908
:101AB0000601109807F08EFDCDE90401DDE906234B
:101AC00007F075FCCDE9080107F06BFD0C90654946
:101AD0000C9848600A9808720B98401C40B20B9012
:101AE0000A98401E40B20A900B980828BADBD3E14E
:101AF000109807F06FFD6A4A6A4BCDE9080107F0BC
:101B000095FD5BD2109807F065FD674A674BCDE9FC
:101B1000060107F04CFCCDE9080107F09FFD0E908F
:101B200051480D9000200B906FF00D000A9041E09D
:101B3000DDE90D1007F0FDFB4FF07E51099007F035
:101B4000A9FD0ED20D9807F045FD0022444BCDE9CA
:101B5000060107F09EFCCDE9080107F07FFD0D901E
:101B600000E02AE00D9807F035FD02460B46CDE96E
:101B700002014F484F4907F08CFCCDE9060110984F
:101B800007F028FDCDE90401DDE9062307F00FFC8D
:101B9000CDE9080107F005FD0C9032490C9848602A
:101BA0000A9808720B98401C40B20B900A98401E8D
:101BB00040B20A900B980828BADB6DE1109807F044
:101BC00009FD3D4A3D4BCDE9080107F02FFD46D206
:101BD000109807F0FFFC3A4A3A4BCDE9060107F0AE
:101BE000E6FBCDE9080107F039FD0E901E480D9087
:101BF00000200B906FF014000A907BE0DDE90D10DF
:101C000007F097FB4FF07E51099007F043FD0ED28D
:101C10000D9807F0DFFC0022114BCDE9060107F01B
:101C200038FCCDE9080107F019FD0D9000E064E0F3
:101C30000D9807F0CFFC02460B46CDE90201224881
:101C4000224907F026FCCDE90601109807F0C2FCF6
:101C5000CDE90401DDE9062307F0A9FB38E04DE0FA
:101C600000002440E40000208096184B8DEDB5A0C4
:101C7000F7C6B03E48AFBC9AF2D77A3ED012634165
:101C8000000040E59C30A2429B2BA1869B84063D30
:101C90000000901EC4BCD642408CB5781DAF1544E0
:101CA0004F9B0E0AB4E3923B50EFE2D6E41A4B444A
:101CB0000284FEE471D98945196050BEF6B01F3A1E
:101CC00081121F2FE727C045037CD8EA9BD0FE4630
:101CD000CDE9080107F065FC0C90FE490C984860BE
:101CE0000A9808720B98401C40B20B900A98401E4C
:101CF00040B20A900B98082880DBCDE0109807F0DE
:101D000069FCF54AF54BCDE9080107F08FFC61D27B
:101D1000109807F05FFCF24AF24BCDE9060107F09C
:101D200046FBCDE9080107F099FC0E90EE480D90B6
:101D300000200B906FF01B000A9047E0DDE90D10CA
:101D400007F0F7FA4FF07E51099007F0A3FC0ED28E
:101D50000D9807F03FFC0022E44BCDE9060107F0A7
:101D600098FBCDE9080107F079FC0D9000E030E028
:101D70000D9807F02FFC02460B46CDE90001D8482C
:101D8000D84907F086FBCDE90401109807F022FC42
:101D9000CDE90201DDE9042307F009FB0022D44B61
:101DA000CDE9060107F003FBCDE9080107F0F9FBD7
:101DB0000C90C8490C9848600A9808720B98401C0F
:101DC00040B20B900A98401E40B20A900B98082827
:101DD000B4DB61E0109807F0FDFBC64AC64BCDE9C5
:101DE000060107F0E4FACDE9080107F037FC0E9090
:101DF000C2480D9000200B906FF022000A9047E03F
:101E0000DDE90D1007F095FA4FF07E51099007F0CB
:101E100041FC0ED20D9807F0DDFB0022B34BCDE95B
:101E2000060107F036FBCDE9080107F017FC0D901D
:101E300000E030E00D9807F0CDFB02460B46CDE9FF
:101E40000001AC48AC4907F024FBCDE9040110982F
:101E500007F0C0FBCDE90201DDE9042307F0A7FA92
:101E60000022A34BCDE9060107F0A1FACDE9080154
:101E700007F097FB0C9097490C9848600A980872F5
:101E80000B98401C40B20B900A98401E40B20A903A
:101E90000B980428B4DB00BF00BFFFF7E3BA70B5AE
:101EA000002597480078401C954908709548C089DE
:101EB00049F64041884204DC9248C089B0F5FA6F87
:101EC00006DA91480078042802D000208C49087076
:101ED0008E498A688E490888411C8D4B19808D492E
:101EE00041F82020184600880C2802DB0020194603
:101EF0000880002408E0874850F82410284607F09E
:101F00008EF90546601CC4B20C2CF4DB7C480078CA
:101F10000C2808DB8049284607F00BFA7B498860CB
:101F20000C207749087079498868FFF779FA694881
:101F300040684FF47A71B0FBF1F06649486070BDBB
:101F400070B57249C86807F013FB05466F48016811
:101F5000284607F0BCF904466C484168204607F063
:101F6000E8F96A49886070BD10B56648C0890A28DA
:101F700002DA0A206349C8816249C88907F0F8FA81
:101F80006249486065486049097850F821005F4916
:101F9000C860FFF7D5FF10BD2DE9F04100240127EF
:101FA00029E2012FFCD100270E2C15D2DFE804F026
:101FB000071524494A4B4C4DD84EFCFDFEFF584DA9
:101FC0002888401C574988800920088101204881C1
:101FD00000208871012088810BE1514DAD1C5248D1
:101FE00050490860288888800320088100204881A3
:101FF000887101208881FCE04948408838B1012877
:1020000004D0022805D0032819D101E017E000BF51
:1020100000BF43488088012802DD002140488180BC
:102020003F4D2D1D41483F49086028888880012088
:1020300008810020488188710120888100BF00BF8D
:10204000D7E000BF00BF00BF00BF00BF34484088DA
:1020500038B1012804D0022805D003287ED101E040
:102060007CE000BF00BF2E48801D00EB4400851FB0
:102070002B488088E0B92E482A4908602888888043
:10208000601E2C4931F8200026490881601E29492C
:1020900001EB8000408823494881E01E264911F861
:1020A000100020498871254830F81400888154E0D8
:1020B0001F481C49086028888880601E204931F824
:1020C000200018490881601E1D4901EB80004088EE
:1020D000144937E0E40000200F7AF8B7A595AA3834
:1020E000824DC772614233478096184B00002440EE
:1020F00080842E41B1A1162AD3CED24700007A4463
:1021000007000020D4000020060000206801002005
:10211000080000207801002000004041449E000893
:10212000F0000020C4000020C99E0008BB9E0008EB
:102130004E9F0008DCA4000844A500085AA500082A
:10214000A8A400084881E01EDD4911F81000DD490F
:102150008871DD4830F81400888100BF00BF48E076
:10216000DA48008A012802DD0021D8480182D74DD3
:102170001035D748D349086028888880601ED54923
:1021800031F82000CF490881601ED24901EB800060
:102190004088CC494881002088710120888128E04E
:1021A00005E003E001E0FFE700BF00BF00BFC74854
:1021B000801D00EB4400851FC748C249086028887D
:1021C0008880601EC34931F82000BE490881601E26
:1021D000C04901EB80004088BA494881E01EB849F7
:1021E00011F81000B7498871B74830F81400888199
:1021F00000BF00BF2046FEF752FE0E2C76D2DFE86D
:1022000004F007111B252F39434D57616B76777802
:102210000A20B249087000204870AA48FEF75EFF05
:10222000804671E00820AD49087000204870A5483C
:10223000FEF771FD804667E00A20A849087000207B
:102240004870A048FEF767FD80465DE00A20A3497C
:102250000870002048709B48FEF740FF804653E01E
:1022600007209E490870002048709648FEF736FF08
:10227000804649E00720994908700020487091483D
:10228000FEF72CFF80463FE00720944908700020AD
:1022900048708C48FEF722FF804635E008208F49C1
:1022A0000870002048708748FEF718FF80462BE032
:1022B00007208A490870002048708248FEF72BFDED
:1022C000804621E0072085490870002048707D483D
:1022D000FEF704FF804617E00A20804908700020BE
:1022E00048707848FEF7FAFE80460DE00BE000BF2C
:1022F00000BF082079490870002048707148FEF737
:10230000EDFE804600E000BF00BF44B96D48808804
:10231000401E288006F02BFBFEF7E1FA02E0694838
:1023200080882880B8F1680F5CD009DCA8F16100D2
:1023300007285ED2DFE800F00E43455D5D47580098
:10234000A8F1E100082854D2DFE800F0053A3C5338
:1023500053534F4D00BF5D484088012802D1012CE6
:1023600000D1092459488088012806D1072C04D1BE
:10237000601CC4B2601CC4B201E0601CC4B2012C79
:102380001BDD5248408840B1012804D0022807D004
:10239000032807D103E00E2606E00A2604E000BF6A
:1023A0000E2601E00E2600BF00BFB44205DB00246C
:1023B00003204B49087006F0C9FA01271AE000BF54
:1023C00018E000BF16E04148C088012802D1022170
:1023D0003E48C18003204249087006F0B7FA06F073
:1023E00095FA07E000BF05E000BF03203C490870F4
:1023F00000E000BF00BF3A48007804283FF4D1ADA8
:10240000BDE8F081704702460B4688B2704710B5B0
:102410004FF48073334A3449344802F0FFFD3348A7
:1024200002F026FE10BDF0B50446059D27460E4677
:1024300002B9012207FB06FCBCFBF5FC0CFB03FC0C
:10244000BCFBF2F0F0BD30B50246002006E0145CA3
:102450000A2594FBF5F4E3B2441CE0B28842F6DBB3
:1024600030BD70B502460C46002012E0135CDD174B
:1024700003EB15752911135CDD1703EB15752D1191
:10248000A3EB051501EB810605EB46051554431C2E
:10249000D8B2A042EADB70BD30B50B460146C41786
:1024A00000EB1474C4F30712C41700EB1474241166
:1024B000A0EB041402EB820504EB4504E0B230BD4E
:1024C00044A50008C40000205AA50008F000002020
:1024D000C39E0008DCA4000867A00008AE0000202E
:1024E000030000203C9D00080C1001401C0002402D
:1024F00070B506F005FC06F098FB00214FF0804017
:1025000004F078FBFEF7DDF906F007FA06F005FAAD
:1025100006F02DFA06F011FA06F03AFAFEF7DFF9A6
:10252000FE480078082802DD0020FC49087006F00B
:102530006DFC06F075FAFEF775FA0020F849087090
:10254000002438E0601CC4B2142C02DD0320F549DD
:1025500008700A2006F06DF80546682D25D009DCC4
:10256000A5F16100072824D2DFE800F01517190E45
:102570001B1D2000A5F1E10007281AD2DFE800F0BA
:102580000C0E10051214170000BF0920E549087051
:1025900006F043FC0EE000BF0CE000BF0AE000BF05
:1025A00008E000BF06E000BF04E003E000BF142421
:1025B00000E000BF00BFDB4800780228C2D006F070
:1025C0001BFB70BD2DE9F04190B0FF260027D648D7
:1025D000007E88B1D448407FD04981F848001E2150
:1025E000D1481B3006F0FDFD0020CF4908760021C0
:1025F000CD48417606F098F9C84890F84800002880
:102600007ED1CA48007E00287BD01C2101A806F09C
:10261000E8FD1C22C5491D3101A806F0C9FDC348CB
:10262000067F457F0020C14908760021BF484176DA
:10263000DE2E67D006DCCC2E7ED0CE2E09D0DD2E4D
:102640007BD1C8E0EE2E79D0F22E78D0F32EF7D1E0
:10265000D2E0B7480078092837D2DFE800F0053625
:10266000360C132F1A212800B248B3A10A68026061
:102670000979017130E0AF48B1A10A6802600979B7
:10268000017129E0AB48B0A10A68026009790171C3
:1026900022E0A848AEA10A680260097901711BE036
:1026A000A448ADA10A6802600979017114E0A1484B
:1026B000ABA10A680260097901710DE09D48AAA1E9
:1026C0000A6802600979017106E09A48A8A10A68BF
:1026D00002600979017100BF00BF15219348C01C39
:1026E00006F07FFDAA209149C870002008701022D2
:1026F000A1498E48001D06F05BFD8E498B4802E023
:1027000013E211E27AE0C01C06F076FD00240EE030
:102710008648C01C015D994804F086FE00BF8021F8
:10272000964804F0EFFE0028F9D0601CC4B2152CC6
:10273000EEDBBB21914803E046E0F4E17FE05CE0A2
:1027400004F072FE00BF80218C4804F0DBFE0028FC
:10275000F9D08B480088022803D0894800880328D4
:1027600031D11521874806F03CFDAA208549C91EB4
:10277000C87000200870102283498248401C06F06F
:1027800017FD6C497F4806F037FD00240DE07D48B9
:10279000015D7A4804F048FE00BF8021774804F0CC
:1027A000B1FE0028F9D0601CC4B2152CEFDBBB21B0
:1027B000724804F039FE00BF8021704804F0A2FE88
:1027C0000028F9D0B0E1AFE1002070490870052081
:1027D00054490870A8E153480078062808D103201E
:1027E0005349087007204F49087006F000FA02E0CC
:1027F00003204C49087097E196E195E135B1012D30
:1028000008D0102D0AD0112D10D10BE00020434923
:1028100048800CE001204149488008E002203F49FF
:10282000488004E003203D49488000E000BF00BF2D
:1028300006F06CF806F08AF8FEF711F974E19DF8DD
:102840000500401E35490870AC2D04D0AD2D63D075
:10285000DC2D62D1ADE00021304881809DF8070079
:102860000121FFF719FE80469DF806000121FFF7C0
:1028700013FE00EBC00101EB001008EB80012748BC
:10288000C1809DF809000121FFF706FE80469DF8F2
:1028900008000121FFF700FE00EBC00101EB001072
:1028A00008EB80011D4801819DF80B000121FFF715
:1028B000F3FD80469DF80A000121FFF7EDFD00EBD6
:1028C000C00101EB001008EB8001144841819DF824
:1028D0000D000121FFF7E0FD80469DF80C0001216D
:1028E000FFF7DAFD00EBC00101EB001008EB8001FF
:1028F0000A4881819DF80F000121FFF7CDFD804638
:102900009DF80E000121FFF7C7FD00EBC00101EBB0
:10291000001008EB80013BE0B0E0FCE0F00000209C
:102920000500002003000020F00200207C020020AF
:1029300004000020400000204944454C00000000F5
:1029400053544F500000000050415353000000000A
:1029500048494748000000004C4F57200000000045
:102960004F464C2000000000415243200000000070
:102970005445535400000000FE010020003801407F
:10298000C8010020B9020020120200202F00002000
:10299000FB48C1819DF8101041829DF8110050281C
:1029A00003D10021F648018202E00121F4480182AE
:1029B000B1E00121F24881809DF80700FFF76CFD2E
:1029C00080469DF806000121FFF766FD00EBC0017F
:1029D00001EB001008EB8001E948C1809DF8090077
:1029E0000121FFF759FD80469DF808000121FFF7FE
:1029F00053FD00EBC00101EB001008EB8001E04843
:102A000001819DF80B000121FFF746FD80469DF8EE
:102A10000A000121FFF740FD00EBC00101EB0010AF
:102A200008EB8001D64841819DF80D000121FFF798
:102A300033FD80469DF80C000121FFF72DFD00EBD2
:102A4000C00101EB001008EB8001CD4881819DF8A9
:102A50000F000121FFF720FD80469DF80E000121A7
:102A6000FFF71AFD00EBC00101EB001008EB80013D
:102A7000C348C1819DF8121041824CE09DF80700C7
:102A80000121FFF709FD80469DF806000121FFF7AF
:102A900003FD00EBC00101EB001008EB8001B8481A
:102AA00081829DF809000121FFF7F6FC80469DF820
:102AB00008000121FFF7F0FC00EBC00101EB001062
:102AC00008EB8001AE48C1829DF80B000121FFF7A1
:102AD000E3FC80469DF80A000121FFF7DDFC00EBD6
:102AE000C00101EB001008EB8001A54801839DF8AF
:102AF0000D000121FFF7D0FC80469DF80C0001215C
:102B0000FFF7CAFC00EBC00101EB001008EB8001ED
:102B10009B48418300BF00BF05F0F8FE05F016FF9B
:102B2000FDF79DFF00E000BFDDE0954890F848000C
:102B30000128F9D19348007E78B11E2291491B31BA
:102B400008A806F035FB9DF822709DF82360002050
:102B50008C49087600218B48417626B1012E44D05D
:102B6000022E41D151E0022F25D19DF82400542896
:102B700009D100208449087005208449087001208B
:102B80008349087030E09DF8240052282CD17F48FA
:102B9000007806280BD103207E49087007207B4966
:102BA000087006F024F80120794908701CE0032021
:102BB0007649087018E0032F16D19DF82400742878
:102BC00012D10020704908709DF825006C490870EA
:102BD00005F09CFE03206D49087005F0C8FEFDF766
:102BE0007EFE0520694908707CE09DF82400644958
:102BF000087005F08BFE03206449087005F0B7FEED
:102C0000FDF76DFEFDF72BFF6CE09DF82400624997
:102C10000870084600788009594948805E48007865
:102C2000C0F34011564881805B480078C0F3001122
:102C3000534801825848007800F00F015048418203
:102C40009DF8251081829DF827009DF8261000EB45
:102C5000012081B24A48C1809DF829009DF82810C2
:102C600000EB012081B2464801819DF82B009DF8C0
:102C70002A1000EB012081B2414841819DF82D00CE
:102C80009DF82C1000EB012081B23D4881819DF818
:102C90002F009DF82E1000EB012081B23848C18131
:102CA0009DF831009DF8301000EB012081B23448CE
:102CB000C1829DF833009DF8321000EB012081B2F3
:102CC0002F4801839DF835009DF8341000EB01205A
:102CD00081B22B48418305F019FE05F037FEFDF760
:102CE000BEFE00BF00BF10B0BDE8F08170B500208F
:102CF00028490870FDF7B3FE05F0AAFE05F057FF5E
:102D000000202149087096E0FFF75CFC0A2005F0DE
:102D100090FC0446662C71D008DCA4F16100052803
:102D20006DD2DFE800F010143D576300E62C78D038
:102D300004DC672C76D0682C7BD167E0E72C72D05E
:102D4000E82C76D163E004201049087072E0134843
:102D50000078A0B90A480078401C09490870084664
:102D60000078082801DD0020087005F000FEFDF75E
:102D7000B6FD05F0CBFD05F09BFDFDF770FE59E0BB
:102D8000F00000207C0200202F0000200300002023
:102D90004800002004000020500000200500002012
:102DA000FE480078A8B9FE48007828B1FC480078B1
:102DB000401EFB49087002E00820F949087005F040
:102DC000D6FDFDF78CFD05F0A1FD05F071FDFDF7C9
:102DD00046FE2FE0F148007818B1F0480078401E18
:102DE00000E00320C5B2ED48057023E0EB48007811
:102DF000032806DAE9480078401C03E010E018E0F8
:102E00000FE00020C5B2E548057013E000BF0520C3
:102E1000E44908700020E44908700BE002E002E099
:102E200000BF00BF00BF0020DC490870DE49087009
:102E300000E000BF00BFDB48007803283FF464AF28
:102E400070BD10B5FFF7A8F810BD10B513E0002055
:102E5000D6490870D6490870D349087005F0ACFD12
:102E600000214FF0804003F0C5FE0120D1490870D9
:102E70000620CC490870CB4800780528E7D010BD63
:102E800010B5002005F098FD00214FF0804003F0C0
:102E9000B1FE6420FDF707FA05F024FE10BD2DE910
:102EA000FC5F0120C3490870BD48B0F802808088EB
:102EB000C0B20090BA488088BF49097860F34511D4
:102EC000BD480170B648408AC0B20190002005F0AC
:102ED0007AFDB8F1000F2ED10020B8490870B04833
:102EE000C08800EB80004FF6FF7101EA4005AC4856
:102EF0008089012801D1022601E0A94886892C4653
:102F00000327F020AE49088040F6D860AD4908801C
:102F10009DF8000038B9AC4800884443A048808B35
:102F2000B4FBF0F4CCE0A848408844439C48008CB3
:102F3000B4FBF0F4C4E0B8F1010F1DD14FF4B4704C
:102F40009F49088040F6D8609E49088001209B492F
:102F5000087000269248808A00EB80004FF6FF71CF
:102F600001EA40052C4605279748808844438C4851
:102F7000808CB4FBF0F4A3E0B8F1030F4FD1884884
:102F8000808A00EB80004FF6FF7101EA400584481B
:102F90008089012801D1022601E0814886892C46DA
:102FA0008A480078A0B94FF4B4708549088040F68B
:102FB000D8608449088001208049087005270026D0
:102FC0008148808844437648808CB4FBF0F477E0F5
:102FD000F0207B49088040F6D8607A4908800020BC
:102FE000764908706E48C08800EB80004FF6FF718C
:102FF00001EA40052C4603279DF8000038B97248C5
:10300000008844436648808BB4FBF0F458E06E4877
:10301000408844436248008CB4FBF0F450E06B48B5
:10302000007870BBF0206649088040F6D86065499A
:1030300008805B488089012801D1022601E05848B8
:1030400086895748C08800EB80004FF6FF7101EA7F
:1030500040052C4603270020584908709DF80000C1
:1030600038B95948008844434D48808BB4FBF0F48C
:1030700026E05548408844434948008CB4FBF0F4AE
:103080001EE0FFE74FF4B4704D49088040F6D86069
:103090004C49088000264248808A00EB80004FF6A9
:1030A000FF7101EA40052C460527012043490870BD
:1030B0004548808844433A48808CB4FBF0F400BF14
:1030C000DFF8DC9009F11C094FF00B0BDFF800A1D1
:1030D0004FF02C0B002705E019F8010B0AF8010B43
:1030E000781CC7B25F45F7DB00203A4908603A49CF
:1030F00008803A4908603A4908803A4908703A49D4
:1031000008803A4908803A4908703A4908803A49A3
:1031100008803A490870002708E00020384921F863
:103120001700384921F81700781CC7B2082FF4DBC4
:1031300031490C80002E7DD001202D4908702E4889
:103140000488B4FBF6F429490C800488B4FBF6F03B
:1031500006FB104424490C8024480088012869DAC1
:103160000A20234908702448048804EB84004400A2
:10317000B4FBF6F41D490C801F48048804EB84005E
:103180004400B4FBF6F006FB104417490C801748C6
:10319000008801284EDA6420154936E00500002039
:1031A000F000002003000020000000201B00002091
:1031B0001C00002004000020500000202E000020F1
:1031C0003000002032000020340000202F000020BA
:1031D000D20100200C0000201E000020140000205E
:1031E00020000020220000202400002026000020D3
:1031F000280000202A0000202C00002001000020D0
:10320000A8010020B801002014E00870FD480488DF
:1032100004EB84004400B4FBF6F4FB490C80F9484D
:10322000048804EB84004400B4FBF6F006FB104471
:10323000F6490C80B8F1000F12D0B8F1010F06D09A
:10324000B8F1020F54D0B8F1030F7CD126E005F09D
:1032500005FD022005F03BFD0220ED49087077E0F6
:103260009DF8000048B105F0F9FC022005F02FFDA3
:103270009DF8040005F0A7FB0FE005F00BFDE54805
:10328000008A18B1012005F022FD02E0002005F0BF
:103290001EFD9DF8040005F096FB59E0DE4800781D
:1032A00040B905F0DBFC022005F011FD0220D849F1
:1032B00008701CE09DF8000048B105F0CFFC02202A
:1032C00005F005FD9DF8040005F07DFB0FE005F01D
:1032D000E1FCD048008A18B1012005F0F8FC02E0BA
:1032E000002005F0F4FC9DF8040005F06CFB2FE0D5
:1032F000C9480078F0B99DF8000048B105F0AEFC6F
:10330000022005F0E4FC9DF8040005F05CFB19E0E8
:1033100005F0C0FCBF48008A18B1012005F0D7FCB9
:1033200002E0002005F0D3FC9DF8040005F04BFB03
:1033300008E008E005F092FC022005F0C8FC02203D
:10334000B349087004E00720B4490870BDE8FC9F49
:1033500000BF002005F030FB0121880703F04AFC84
:1033600005F040FC0020AE49087008460078FDF7E3
:1033700083FC05F01CFC05F06BFB05F09BFB0820B3
:10338000A849087002204870162008700220487072
:1033900000200870A448007800EB4000202101EBD9
:1033A000C000A0494870002008709F48007800EBDA
:1033B0004000C00020304870B8F1000F09D0B8F1CB
:1033C000010F07D0B8F1020F05D0B8F1030F04D1F7
:1033D00002E000BF02E001E000E000BF00BF00200B
:1033E00090490870FDF731FB00BFAFE738B58F4853
:1033F0000068B0F5805F03D340F6FF708B4908602A
:103400008B480088B0F5805F03DB40F6FF70884989
:1034100008808848008800283ED0012804D002286F
:103420007CD003287BD192E1834840897F4A009079
:10343000126893B27A4A1278D21D7F4D05EB820250
:103440005188774A1278D21D35F82200784A1288BE
:10345000FEF7E9FF0446A0B27849086073480068A7
:1034600000EB8000440028460089444328464089F8
:10347000B4FBF0F40A20B4FBF0F100FB1140042887
:1034800000D90A340A20B4FBF0F4A0B20A2190FB60
:10349000F1F06649086014E26548008800EB80009E
:1034A00044005C488088D8BB5D480078C01C6249F5
:1034B00031F8200044435A480078C01C01EB8000DA
:1034C0004088B4FBF0F40A20B4FBF0F100FB11409B
:1034D000042800D90A340A20B4FBF0F45849CC81FE
:1034E0005248006800EB8000440053480088444381
:1034F00051484088B4FBF0F40A20B4FBF0F100FB23
:103500001140042800D90A340A20B4FBF0F4A0B218
:103510000A2190FBF1F0454908603BE03BE0CFE138
:10352000FFE73F480078401D434931F820004443FD
:103530003B480078401D01EB80004088B4FBF0F46C
:103540000A20B4FBF0F100FB1140042800D90A3432
:103550000A20B4FBF0F43A49CC813448006800EB0F
:10356000800044003448808844433348C088B4FB1A
:10357000F0F40A20B4FBF0F100FB1140042800D95C
:103580000A340A20B4FBF0F4A0B20A2190FBF1F057
:103590002649086095E12048007800287ED124481B
:1035A000008800EB800044001A48808848BB1C4813
:1035B0000078C01C204931F82000444318480078A6
:1035C000C01C01EB80004088B4FBF0F40A20B4FB7F
:1035D000F0F100FB1140042800D90A340A20B4FBA2
:1035E000F0F41749CC811148006800EB80004400DA
:1035F00011480088444310484088B4FBF0F40A2086
:1036000020E030E02C0000202600002024000020D4
:1036100004000020F00000202F0000200300002004
:1036200006000020AE0000201C0000200C0000203E
:103630001E000020C8010020D2010020140000203C
:10364000D4000020B4FBF0F100FB1140042800D9A5
:103650000A340A20B4FBF0F4A0B20A2190FBF1F086
:10366000FE49086072E0FE480078401DFD4931F8CF
:1036700020004443FA480078401D01EB8000408858
:10368000B4FBF0F40A20B4FBF0F100FB1140042875
:1036900000D90A340A20B4FBF0F400E01FE0F2493C
:1036A000CC81EE48006800EB80004400ED48808843
:1036B0004443EC48C088B4FBF0F40A20B4FBF0F1BA
:1036C00000FB1140042800D90A340A20B4FBF0F4AE
:1036D000A0B20A2190FBF1F0E049086036E0E14831
:1036E0004089DE4A0090126893B2DD4A1278D21DFA
:1036F000DC4D05EB82025188D94A1278D21D35F88B
:103700002200DA4A1288FEF78EFE0446A0B2D8499B
:103710000860D248006800EB800044002846008919
:10372000444328464089B4FBF0F40A20B4FBF0F18E
:1037300000FB1140042800D90A340A20B4FBF0F43D
:10374000A0B20A2190FBF1F0C4490860B9E0C94871
:103750000078B8BBC3484089C04A0090126893B251
:10376000BF4A1278D21DBF4D05EB82025188BC4A78
:103770001278D21D35F82200BC4A1288FEF753FE9B
:103780000446A0B2BA490860B448006800EB800063
:10379000440028460089444328464089B4FBF0F49D
:1037A0000A20B4FBF0F100FB1140042800D90A34D0
:1037B0000A20B4FBF0F4A0B20A2190FBF1F0A74973
:1037C00008607CE0FFE7A948008800EB8000440027
:1037D000A9488088C8BBA2480078C01CA14931F81C
:1037E000200044439E480078C01C01EB80004088C4
:1037F000B4FBF0F40A20B4FBF0F100FB1140042804
:1038000000D90A340A20B4FBF0F49749CC819348DC
:10381000006800EB800044009248008844439148CF
:103820004088B4FBF0F40A20B4FBF0F100FB114037
:10383000042800D90A340A20B4FBF0F4A0B20A210B
:1038400090FBF1F08549086039E0FFE78448007893
:10385000401D844931F82000444381480078401DD0
:1038600001EB80004088B4FBF0F40A20B4FBF0F1D7
:1038700000FB1140042800D90A340A20B4FBF0F4FC
:103880007949CC817548006800EB80004400754898
:10389000808844437348C088B4FBF0F40A20B4FB2A
:1038A000F0F100FB1140042800D90A340A20B4FBCF
:1038B000F0F4A0B20A2190FBF1F06849086000E042
:1038C00000BF00BF38BD0CB56C480078082804DA8A
:1038D0006A480078401C69490870072001900EE092
:1038E0009DF80400401E664931F810009DF8042040
:1038F00021F812009DF80400401EC0B201909DF80E
:1039000004000028ECDC554800685D490880002070
:1039100000905A480078019007E059489DF804103B
:1039200030F811000099084400909DF80400411EF1
:10393000C9B201910028F0D1504909780098B0FB34
:10394000F1F00090009880B244490860072001908F
:103950000EE09DF80400401E4A4931F810009DF821
:10396000042021F812009DF80400401EC0B201900E
:103970009DF804000028ECDC3C48008841490880A0
:10398000002000903D480078019007E03D489DF8F8
:10399000041030F811000099084400909DF80400CC
:1039A000411EC9B201910028F0D13449097800982C
:1039B000B0FBF1F000902D49009808800CBD0EB5C9
:1039C00000200190009002900EE005F005F80199AA
:1039D0000844019005F006F80099084400909DF80D
:1039E0000800401CC0B202909DF808001028ECDBD3
:1039F0000198C0F30F10194908600098C0F30F1028
:103A00001A4908800EBD2DE9F04F87B00025AB465E
:103A10000026A946AA460024174840881A4908806B
:103A20000846008805287DD2DFE800F03203845381
:103A3000B3001648007820F0C000403013490870E9
:103A40000D48C08A1049C8800B48008B08810A487D
:103A5000408B488002200590A2E000000C0000206E
:103A600006000020D2010020D40000201E0000200B
:103A7000140000202F000020F00000202200002071
:103A8000A8010020B8010020C8010020500000203B
:103A9000F748007820F0C000F5490870F548008923
:103AA000F549C880F34840890881F248C0894880B8
:103AB000F0488089012802D10220888003E0ED4887
:103AC0008089ED498880EB4880880090012005902E
:103AD00066E0E748007820F0C000C030E449087094
:103AE000E648007860B9E348C08AE349C880E14805
:103AF000008B0881DF48408B48800220059018E049
:103B000001200590DB480089DB49C880D9484089FD
:103B10000881D848C0894880D6488089012804D1C6
:103B2000022000E036E0888003E0D2488089D24954
:103B3000888035E0CE48007820F0C0008030CC4945
:103B40000870CE480078B8B901200590C9480089AE
:103B5000C949C880C74840890881C648C08948808B
:103B6000C4488089012802D10220888010E0C14821
:103B70008089C14988800BE002200590BD48C08A39
:103B8000BD49C880BB48008B0881BA48408B48803B
:103B900006E005E00720BA49087007B0BDE8F08FDD
:103BA00000BFFFF77CF90020039004900290B54914
:103BB0000860B5490881B5490880B5490870097899
:103BC000B44A12781144C8B2FDF756F800F0A1BF0C
:103BD000B148007801286CD10020AF490870012558
:103BE000BDF8100042F20F71884204DABDF81000EF
:103BF000401C80B20490A9480078012826D19DF885
:103C00000C00401CC0B203909DF80C00A449097838
:103C1000884208DB002003909C480088A14909885D
:103C200008449A49088098480089934989888842BD
:103C300022DB0020944908819B4800889349088032
:103C40000220964908704FF0010B15E09648008855
:103C50008E4908808848408800280DDD8A48008900
:103C600085494988884207DB072085490870042078
:103C70008A4908704FF0010B8448008804F09CFECC
:103C80009DF80800401CC0B202909DF80800092170
:103C900090FBF1F201FB1200C0B202909DF8080007
:103CA000052802DA04F05FFB01E004F058FBFCF7A2
:103CB0001DFDFFF784FEFFF706FEFFF797FB7B482D
:103CC00000887B490988884204DD4FF001094FF0E4
:103CD000000A0DE07548008876490988884204DAB0
:103CE0004FF0010A4FF0000902E04FF00009CA4608
:103CF0000024674800789DF81410884208DABAF169
:103D0000010F05D162480078401C61490870012408
:103D10005F480078002808DDB9F1010F05D15C4843
:103D20000078401E5A4908700124012C1FD1002040
:103D30006149087006900AE0002060499DF818204B
:103D400021F812009DF81800401CC0B206909DF8A2
:103D500018000828F0DB4E4909784E4A12781144C1
:103D6000C8B2FCF789FF3220FCF79DFA09E142480E
:103D7000008830B101282BD0022876D0032875D1D5
:103D800040E043480078012806D13F48C0890A2115
:103D900090FBF1F03C49C881BDF80000012803D137
:103DA00040F22620019002E04FF4966001903648E0
:103DB000C089BDF80410884203DD4FF6FF70324918
:103DC000C88124B9BDF81000022800DB0126D7E025
:103DD0003648008848B13A4800683A49884208D9CC
:103DE0004FF6FF703649086003E04FF6FF70344924
:103DF000086034B920488088BDF81010884200DC83
:103E00000126BDE01D480078C8B92848008848B19F
:103E10002B4800682B49884208D94FF6FF70284983
:103E2000086003E04FF6FF7025490860FCB91248AE
:103E30008088BDF81010884259DC012657E01448EC
:103E40000078012806D11048C0890A2190FBF1F0C2
:103E50000D49C8814FF496600190BDF8000001281B
:103E600032D140F22620019031E041E087E03EE08F
:103E700050000020F0000020C80100202F0000208A
:103E80000300002010000020D40000202A000020A1
:103E9000060000202E000020010000200400002069
:103EA00028000020260000202C0000201E000020FA
:103EB000320000203000002022000020B801002045
:103EC000140000209F8601004FF496600190FE4888
:103ED000C089BDF80410884203DD4FF6FF70FA492F
:103EE000C88124B9BDF81000022800DB012647E094
:103EF000F648007848BBF6480078012806D1F24819
:103F0000C0890A2190FBF1F0EF49C8814FF4966017
:103F10000190BDF80000012803D140F22620019055
:103F200002E04FF496600190E748C089BDF80410A4
:103F3000884203DD4FF6FF70E349C881F4B9BDF84C
:103F4000100002281ADB012618E0E248008848B178
:103F5000E1480068E149884208D94FF6FF70DE4920
:103F6000086003E04FF6FF70DB49086034B9DC48B5
:103F70008088BDF81010884200DC012600E000BFF8
:103F800000BFD848007802287BD1012EFCD1002C3C
:103F9000FAD1D348008830B1012820D0022871D04E
:103FA000032870D15EE0C848C0890190CC48C08821
:103FB000BDF80410884205DA0620CA4908700220BC
:103FC000C9498870C6480089BDF80410884205DDDB
:103FD0000720C44908700320C34988700CE1BE481B
:103FE000006880B20190BA48007820B101280BD057
:103FF000022819D110E0BDF804004FF47A7190FB4B
:10400000F1F080B2019010E0BDF80400642190FB53
:10401000F1F080B2019008E0BDF804000A2190FBA5
:10402000F1F080B2019000E000BF00BFAC48C08852
:10403000BDF80410884208DAA948C08828B10620D3
:10404000A84908700820A8498870A5480089BDF8CB
:104050000410884205DD0720A24908700920A24902
:104060008870C9E099480078F0BB9B48006880B22E
:1040700001909748007838B101280ED002281CD151
:1040800013E0BAE055E0B6E0BDF804004FF47A71F1
:1040900090FBF1F080B2019010E0BDF804006421C3
:1040A00090FBF1F080B2019008E0BDF804000A2115
:1040B00090FBF1F080B2019000E000BF00BF8848A3
:1040C000C088BDF80410884208DA8548C08828B145
:1040D0000620844908700820834988708048008938
:1040E000BDF80410884200E007E021DD07207D498B
:1040F000087009207C4988701AE07348C0890190D3
:104100007748C088BDF80410884205DA0620754952
:10411000087002207549887071480089BDF8041044
:10412000884205DD07206F49087003206F498870B9
:1041300062E066480078D8B96348C0890190684851
:10414000C088BDF80410884205DA06206549087069
:1041500002206549887062480089BDF804108842D1
:1041600048DD07205F49087003205F49887041E0FF
:104170005948006880B201905548007820B1012864
:104180000BD0022819D110E0BDF804004FF47A7169
:1041900090FBF1F080B2019010E0BDF804006421C2
:1041A00090FBF1F080B2019008E0BDF804000A2114
:1041B00090FBF1F080B2019000E000BF00BF4848E2
:1041C000C088BDF80410884208DA4548C08828B184
:1041D00006204449087008204449887040480089F6
:1041E000BDF80410884205DD07203E49087009200B
:1041F0003E49887000E000BF00BF3A4800780628BA
:104200000BD038480078072807D0364800780528B2
:1042100003D034480078082808D1012034490870B8
:1042200007203449087001254FF0010B012D6FD193
:104230000025002030490870012048702848008877
:1042400030B101287ED002287DD003287CD1B0E097
:104250002A48C0882A49096888420BD92748C0885B
:1042600027490968401A02280FD82448C0882449E1
:1042700008600AE02148C08821490968081A022814
:1042800003D81E48C0881E4908601D49096888B2C5
:10429000012303220221FCF738FB1A4804F02DFB0E
:1042A0001421194804F09DFF174816490968016058
:1042B00016A104F0A1FF12480068000A0A4908711B
:1042C0000F480068487124E0D40000202F0000202F
:1042D000060000201E000020140000209F86010020
:1042E000C801002004000020260200203A0200201D
:1042F0000000002003000020AE000020F00000209D
:104300000C000020B0000020FE0100206B563B0096
:10431000D2E30920FE490870FE49C889002304221F
:104320000221FCF7F2FAFC480078082823D0FB4869
:1043300004F0E3FAF94805F0ECFC074605F08EF9C5
:10434000F74902E078E15EE2A4E30860F5A004F03A
:10435000C1FAF3480078F4498871F1484078C8718F
:10436000EF4880780872EE48C0784872EFA1F048B4
:1043700004F042FF10E0E948EEA10A680260097902
:10438000017104F0BAFAEDA004F0A4FAFF20E649A6
:104390008871C87108724872E049E54804F02CFF42
:1043A000DC4800890012E0498872DA480089C87246
:1043B00071E3E348007800287DD1E248808AE24931
:1043C000096888420BD9DF48808ADF490968401AAA
:1043D00002280FD8DB48808ADB4908600AE0D94808
:1043E000808AD9490968081A022803D8D548808AE2
:1043F000D5490860D449096888B201230322022103
:10440000FCF783FAC54804F078FA1421C84804F090
:10441000E8FEC748C14909680160AFF2101104F015
:10442000EBFEC9480068000ABF490871C648006829
:1044300048710920B6490870C448006842F20F71FB
:10444000884225D9C2480078022810D1BF480068A8
:104450000A21B0FBF1F087B2BE4ABD480078401C8B
:10446000115C012305223846FCF74FFA1BE0B748E0
:1044700000680A21B0FBF1F087B2B64AB448007870
:10448000401C115C012304223846FCF73EFA0AE086
:10449000B04AAF4B1B78D15CAC4A126890B2012392
:1044A0000422FCF732FAA94800684FF6FF718842EF
:1044B0001ED09A4800E035E004F01FFA97499C4866
:1044C00004F09AFE954805F024FC074605F0C6F86E
:1044D000934908600846007893498871904840786D
:1044E000C8718F48807808728D48C07848720CE097
:1044F00099A004F002FA98A18D4804F07DFEFF20F7
:1045000089498871C8710872487295A1884804F079
:1045100073FE804800890012834988727D480089B3
:10452000C87288E08748C0888749096888420BD9E3
:104530008448C08884490968401A02280FD88148F5
:10454000C088814908600AE07E48C0887E490968C1
:10455000081A022803D87B48C0887B4908607A493A
:10456000096888B2012303220221FCF7CEF96B48C7
:1045700004F0C3F914217C4804F033FE7A486749FB
:1045800009680160AFF27C2104F036FE6E480068D5
:10459000000A764908716C480068487109205C4936
:1045A00008705C49C889012304220221FCF7ADF997
:1045B0005948007808281CD0584804F09EF95748FC
:1045C00005F0A7FB074605F049F85549086008467D
:1045D00000785549887152484078C87150488078B1
:1045E00008724F48C078487250A1514804F004FE48
:1045F0000DE04A484FA10A6802600979017104F090
:104600007CF9FF2048498871C87108724872434993
:10461000474804F0F1FD414805F07BFB074605F0F3
:104620001DF83F4908603B48008900124F498872D5
:1046300038480089C8722EE24248808A4249096897
:1046400088420BD93F48808A3F490968401A0228AE
:104650000FD83C48808A3C4908600AE03948808A83
:1046600039490968081A022803D83648808A364929
:1046700008603549096888B2012303220221FCF74A
:1046800044F9264804F039F91421294804F0A9FD19
:104690002748224909680160AFF2903104F0ACFD6F
:1046A00029480068000A20490871274800684871B5
:1046B0000920174908702548006842F20F718842A6
:1046C00056D923480078022810D1204800680A21D2
:1046D000B0FBF1F087B21F4A1D480078401C115C06
:1046E000002305223846FCF710F94CE01748006813
:1046F0000A21B0FBF1F087B2164A15480078401C39
:10470000115C002304223846FCF7FFF83BE0000070
:10471000AE000020D400002004000020B0000020E3
:104720004C0000206D410000260200206D413B003E
:10473000FE0100204F464C412000000020200000D8
:104740002F000020F00000200C00002014000020AA
:1047500006000020BFA600082D2D2D2D2D000000E5
:104760004DA6B83B00000000120200203A020020D3
:10477000FD4AFE4B1B78D15CFD4A126890B20123C2
:104780000422FCF7C2F8FA4800684FF6FF7188422D
:104790001CD0F84804F0B1F8F649F74804F02CFDB5
:1047A000F44805F0B6FA074604F058FFF3490860EC
:1047B00008460078F2498871F0484078C871EF489F
:1047C00080780872ED48C07848720EE0AFF2780049
:1047D00004F093F8AFF28001E74804F00DFDFF20EC
:1047E000E7498871C87108724872AFF28C01E248DB
:1047F00004F002FDE34800890012E1498872E148B3
:104800000089C87247E1E0480078E8BBDF48C0880B
:10481000DF49096888420BD9DC48C088DC4909684F
:10482000401A02280FD8D948C088D94908600AE040
:10483000D648C088D6490968081A022803D8D34840
:10484000C088D3490860D249096888B2012303228D
:104850000221FCF75AF8C74804F04FF81421C64863
:1048600004F0BFFCC448C34909680160AFF2645159
:1048700004F0C2FCC6480068000AC1490871C44877
:1048800000684871092000E04EE0C2490870BD4947
:10489000C889012304220221FCF737F8BE480078BA
:1048A000082821D0B34804F028F8B24805F031FABE
:1048B000074604F0D3FEB1490860AFF2981004F047
:1048C00009F8AE480078AE498871AC484078C871A4
:1048D000AA4880780872A948C0784872AFF2B4112B
:1048E000A54804F089FC12E0A248AFF2B8110A68AA
:1048F00002600979017104F000F8AFF2C01003F012
:10490000E9FFFF209E498871C87108724872994971
:10491000994804F071FC9B480089001298498872FC
:1049200098480089C872B4E09848808A9849096814
:1049300088420BD99548808A95490968401A02280F
:104940000FD89248808A924908600AE08F48808A8E
:104950008F490968081A022803D88C48808A8C4934
:1049600008608B49096888B2012303220221FBF702
:10497000CCFF804803F0C1FF1421884804F031FCCB
:1049800086487C4909680160AFF2806104F034FC1C
:104990007F480068000A824908717D4800684871B4
:1049A00009207C4908707248006842F20F71884201
:1049B00025D96E480078022810D16D4800680A2178
:1049C000B0FBF1F087B2684A68480078401C115C7F
:1049D000002305223846FBF798FF1BE06448006877
:1049E0000A21B0FBF1F087B25F4A60480078401CB2
:1049F000115C002304223846FBF787FF0AE05A4A7D
:104A00005A4B1B78D15C5A4A126890B20123042297
:104A1000FBF77BFF564800684FF6FF7188421CD0B9
:104A2000544803F06AFF5349534804F0E5FB5148EA
:104A300005F06FF9074604F011FE5049086008467A
:104A40000078574988714D484078C8714B48807844
:104A500008724A48C07848720EE0AFF2043003F0A2
:104A60004CFFAFF20C314D4804F0C6FBFF204C491F
:104A70008871C87108724872AFF21C31474804F05F
:104A8000BBFB404800890012454988723D480089B7
:104A9000C87200E000BF00BF0A203E490870002035
:104AA000487038490889002304220121FBF72DFFB3
:104AB000304803F022FF00BFFDF784FD03F0AEFD98
:104AC00006909DF81800662814D008DC62280DD0E6
:104AD00063280CD064280BD0652818D109E067281A
:104AE0000AD0E62807D0E72811D106E010E00FE051
:104AF0000EE00DE000BF00BF00BF03202649087094
:104B000007202849087004F072F8FFF746B800BF84
:104B100000BF2448007806283FF45AA81A480078B5
:104B2000401C1949087004F062F800BFEDE710B5A9
:104B30005A2013490870592048705A2018490870A3
:104B4000592048701148008A1749097860F3041108
:104B5000154801700D48408A1349097860F3030134
:104B600011480170007821E0BFA60008060000206F
:104B700014000020B0000020FE0100204C000020A6
:104B800026020020D40000202F000020F00000208A
:104B90000C000020AE0000200400002012020020C3
:104BA0003A0200200300002050000020FA49C8709B
:104BB000FA480078FA49C870FA48007818BBFA48F1
:104BC000008818B90020F44988701CE0F648008875
:104BD000012803D10620F049887014E0F2480088CB
:104BE000032806D10620EC4988700020EC49887023
:104BF00009E0ED480088022805D10020E6498870C8
:104C00000620E7498870E7480078002845D0E64844
:104C1000008810BBE5480078C01E06281CD2DFE8DB
:104C200000F00F0313070B170020DB49887013E017
:104C30000220D94988700FE00320D74988700BE023
:104C40000120D549887007E00420D349887003E02B
:104C50000520D149887000BF1FE0D3480088012893
:104C60001BD1D2480078032812D0042804D006288B
:104C700006D0072810D107E00620C74988700BE04E
:104C80000820C549887007E00920C349887003E0FF
:104C90000720C149887000BF00BF00240DE0BE4856
:104CA000015DC34802F0C0FB00BF8021C04802F094
:104CB00029FC0028F9D0601CC4B20C2CEFDBBA48E8
:104CC0000088032803D0B8480088022811D10024A6
:104CD0000DE0B348015DB64802F0A6FB00BF80219D
:104CE000B34802F00FFC0028F9D0601CC4B20C2CB1
:104CF000EFDB10BD2DE9F0410027AE484088C5B27A
:104D0000FEF7BEF8A9480078032827D0052D1FD24A
:104D1000DFE805F0040309081D0000BF0820A649CC
:104D200008701AE000BFA548007801280BD19F4801
:104D30000078042803D106209F49087006E0082067
:104D40009D49087002E008209B49087005E004E0D6
:104D5000072099490870BDE8F0812CE0052D1CD290
:104D6000DFE805F0040306051A001AE019E018E070
:104D70009248007801280BD18C480078042803D190
:104D800006208D49087006E008208B49087002E073
:104D900008208949087004E003E00720864908706C
:104DA000D9E700BF86480078012804D1FFF7BFFE8D
:104DB0000020834908700020824908704870FBF782
:104DC00044FE04F02AF879480078032807D1082027
:104DD0007C490870022048704FF6FF740CE07A4856
:104DE0000078401C7849087078480078032803DB75
:104DF000082071490870AEE75DE08FB100270E20F2
:104E00007049087004204870012304221946204686
:104E1000FBF77BFD6E4803F05DFD732003F04CFD56
:104E20000120FBF75FFA70B16048007803280AD0D0
:104E30004FF6FF70844206D001270A210120FBF7BC
:104E40004EFA601E84B2012C02DA06205A4908701C
:104E5000FDF7B8FB052003F0ECFB0646672E0CD0EF
:104E600004DC642E07D0652E23D105E0682E19D00E
:104E7000E72E1ED102E01DE01CE000BF4B48007889
:104E800003280BD04FF6FF70844203D103204A4918
:104E9000087006E003204549087002E003204649F7
:104EA000087007E000204549087006204249087054
:104EB00000E000BF00BF4048007807289DD000BF39
:104EC00049E770B5012503F00DFE3D480078012843
:104ED00004D1FFF72CFE00203949087046E0012D6F
:104EE00019D10025162037490870022048702D4836
:104EF000007830B103F07CFD03F059FE03F0C1FDF2
:104F000009E003F091FF29480078042803D103F059
:104F10009FFD03F031FEFDF755FB022003F089FBF6
:104F20000446672C19D006DC642C0BD0652C0AD003
:104F3000662C19D10FE0682C06D0E62C0CD0E72C9B
:104F400012D10BE011E010E000201C490870052090
:104F50001949087009E000BF07E000BF03201649A7
:104F6000087003F05DFD00E000BF00BF124800784C
:104F70000828B4D000200B49087070BD10B506E0B9
:104F800003F0BEFE03F004FD03200B4908700A483D
:104F900000780128F4D010BD260200205000002027
:104FA0003A02002000000020C80100200400002078
:104FB00000380140F0000020030000202F000020F6
:104FC00048000020AE0000201C0000201B00002034
:104FD000B000002010B518E00A200E490870022029
:104FE00048700420087032204870002406E003F066
:104FF0001BFF0320FBF757F9601CC4B20A2CF6DB39
:1050000001200549087003F0A3FE0348007800283A
:10501000E2D010BDAE000020030000202DE9F041D9
:1050200007460D4616461C460121084601F041F888
:10503000384602F0AFFD1248048012480560466011
:105040001020104988600846C46000200861802054
:10505000486100208861C861202008624FF44050F8
:10506000486200208862384602F036FEBDE8F081D2
:1050700010B504460121204602F059FE10BD000083
:10508000520000205002002070B504460020F9496B
:10509000087048700A20B4FBF0F100FB114000EBEF
:1050A0000010F5494518284603F027FC0920F1496E
:1050B00008700020487003F07AFB0020ED4908706A
:1050C00001204870ED4803F018FC70BD2DE9FF4742
:1050D00004464FF0000A03F0EBFBE94830F82500E6
:1050E0000190E74800EB8500408800900B25E54FD4
:1050F000DFF89483A8000390002505E017F8010B62
:1051000008F8010B681CC5B29DF80C008542F5DB60
:105110000020DE490860DE490880DE490860DE497B
:105120000870DE49087003F042FD03F091FC03F0C3
:10513000C1FC03F072FE00260220D94908700A2142
:105140000120FBF7CCF80120CA4948700220087002
:10515000D44803F0D2FB0020C6494870087004EB25
:105160000411D14A881803F0C8FB002003F024FC86
:105170000B2C6CD2DFE804F006162636374757585A
:10518000595A5B0003F086FD002003F0A0FD0121C9
:10519000880701F02FFD03F025FDC449088803F0BE
:1051A0000BFC58E003F05AFD022003F090FD0121B2
:1051B000880701F01FFD03F015FDBC49488803F086
:1051C000FBFB48E003F04AFD022003F080FD0121D3
:1051D000880701F00FFD03F005FDB449888803F04E
:1051E000EBFB38E000BF03F055FD002003F06FFD3E
:1051F0000121880701F0FEFC03F0F4FCAB4988882C
:1052000003F0DAFB27E003F029FD022003F05FFD45
:105210000121880701F0EEFC03F0E4FC4FF4B470C8
:1052200003F0CAFB17E000BF00BF00BF00BF03F0E0
:1052300015FD022003F04BFD0121880701F0DAFC87
:1052400003F0D0FC9949888803F0B6FB03E0002006
:1052500003F0B2FB00BF00BF8FE10120FBF742F873
:1052600028B101208D4908700A21FBF738F88B48D6
:105270000078012817D10020884908704FF0010AF2
:1052800009F1010000F0FF09092099FBF0F100FB92
:10529000119000F0FF09B9F1050F02DA03F00AFCE2
:1052A00001E003F01FFC03F09DFB8149C88103F07E
:1052B00093FB7F4908601CB1012C01D0022C06D160
:1052C0007B480068704901EB840148803EE0032C74
:1052D0000DD0062C0BD0042C01D1012000E00020C1
:1052E000052C01D1012100E00021084330B17048B4
:1052F000C089654901EB8401488027E06C49096851
:1053000001EB8101480004F033F96A4908606848FC
:10531000C0890A2802DA0A206549C8816449C88917
:1053200004F026F963494860E01F634951F8200002
:105330006049C860FCF704FEFCF7B1FD5D494868B0
:1053400004F01BF9504901EB84014880BDF80800C6
:10535000BDF80410884205DCBDF8080000BFBDF8A8
:10536000000000BFBAF1010F12D14FF0000A0A206D
:105370004049087000204870504A115D424A32F896
:10538000240001230422FBF7C0FA4D4803F0B5FACC
:1053900003F044F903909DF80C00672865D008DC01
:1053A000A0F16200052861D2DFE800F00C47AFB140
:1053B000B300E2281ED0E32859D0E62858D0E728C9
:1053C00054D1CBE00026304830F82400401C2E4950
:1053D00021F82400084630F82400294931F8241027
:1053E000884206DD264800EB84004088264921F8E3
:1053F0002400C1E0701CC6B20A2E07DD224830F836
:1054000024000A30204921F8240006E01E4830F824
:105410002400401C1C4921F824001B4830F82400BB
:10542000174931F82410884206DD154800EB840046
:105430004088154921F824009EE00026124830F8E3
:105440002400401E104921F82400084630F82400AA
:105450000B4931F82410884206DD094800EB84002E
:105460004088094921F8240086E076E083E029E0BD
:1054700050E00000AE00002004A7000826A90008A4
:10548000C4A600080C010020D20100200C0000205E
:105490001E00002014000020060000200100002053
:1054A00004000020BFA700087CA8000834000020EA
:1054B000D400002068010020449E000837A900089D
:1054C000B0000020701CC6B20A2E07DDF94830F883
:1054D00024000A38F74921F8240006E0F54830F89E
:1054E0002400401EF34921F82400F24830F824003B
:1054F000F14931F82410884206DDEF4800EB8400C2
:105500004088EC4921F8240036E0002634E00026EB
:1055100032E000BF00214FF0804001F06BFB03F050
:1055200066FB002003F048FA03F0DCFAE34FDFF8F3
:10553000848328200390002505E018F8010B07F864
:10554000010B681CC5B29DF80C008542F5DB03F029
:1055500028FA03F0C7FABDE8FF8700BF00214FF02B
:10556000804001F047FB03F042FB002003F024FAE7
:1055700003F0B8FAEFE700BF00BFD1480078092870
:105580003FF46BAE00BFE6E72DE9FC5F0446012067
:1055900000903220FAF787FE0020CA494870087050
:1055A00004EB0411C84A881803F0A7F90120C54983
:1055B000487000200870C54803F09FF9002718E0E4
:1055C000BC4830F82700BC4931F82410884208DC78
:1055D000B84830F82700B84901EB8401498888426F
:1055E00005DABB4830F81700B24921F82700781CCB
:1055F000C7B20A2FE4D3DFF8C492DFF8B8A24FF0A5
:105600002808002705E019F8010B0AF8010B781C9F
:10561000C7B24745F7DBA84830F8245000EB8400B8
:1056200046880B2C76D2DFE804F0063F76192C4F23
:10563000628699ACC1000020FBF71EFB9F481C3816
:10564000808BA84204DC9D481C38808BB04204DA71
:105650004FF47A60974921F82400BDE00020FBF761
:105660000BFB96481C38008DA84204DC93481C387C
:10567000008DB04204DA4FF47A708E4921F824008C
:10568000AAE00120FBF7F8FA8C481C38008CA842ED
:1056900004DC8A481C38008CB04204DA4FF47A707B
:1056A000844921F8240097E084481C38008CA842E3
:1056B00004DC82481C38008CB04204DA4FF47A6073
:1056C0007C4921F8240087E00020FBF7D5FA7B48CD
:1056D0001C38008EA84204DC78481C38008EB0428A
:1056E00004DA4FF4FA70734921F8240074E00120C1
:1056F000FBF7C2FA71481C38808EA84204DC6F4860
:105700001C38808EB04204DA4FF47A70694921F86F
:10571000240061E05FE069481C38808CA84204DC0A
:1057200066481C38808CB04204DA4FF47A706149C4
:1057300021F8240050E00120FBF79EFA5F481C3856
:10574000008FA84204DC5D481C38008FB04204DAA8
:105750004FF47A70574921F824003DE00220FBF70E
:105760008BFA56481C38808FA84204DC53481C38FA
:10577000808FB04204DA4FF47A704E4921F8240049
:105780002AE00320FBF778FA4C481C38B0F84000B8
:10579000A84205DC49481C38B0F84000B04204DAA1
:1057A0004FF47A70434921F8240015E00320FBF7F9
:1057B00063FA42481C38B0F84400A84205DC3F4870
:1057C0001C38B0F84400B04204DA4FF47A7039491A
:1057D00021F8240000E000BF00BF012782E000980C
:1057E000012828D1002000903A4810F804B0042085
:1057F0000190304931F8240000235946019AFBF703
:1058000084F800202F4948700A200870324803F0BD
:1058100074F800202B494870087004EB04112A4AE0
:10582000881803F06AF801202649487000200870A3
:10583000264803F062F80A2002F0FBFE8046B8F129
:10584000680F2DD009DCA8F16100072848D2DFE8F5
:1058500000F00E181E4747244500A8F1E100072874
:105860003ED2DFE800F00511173D3D1B3C0000BFB4
:105870002046FFF72BFC03F01BF8012000900027C7
:105880002FE0012000902CE00120009029E0012071
:10589000009026E00120009023E000BFBDE8FC9FBF
:1058A0002046FFF713FC03F003F8012000900027C7
:1058B00017E00000D2010020C4A600080C0100205F
:1058C00003000020AE00002004A70008AEA70008D7
:1058D000F0A6000837A90008B000002000BFDDE7EF
:1058E00000BF00BF002F7FF47AAF00BFD6E72DE9DD
:1058F000FC4100200090012765E0012F04D1002722
:105900009DF80000FFF7C0FB0A2002F092FE019014
:105910009DF8040066283AD006DC61280BD0622886
:1059200011D063284DD120E0672848D0E6282FD039
:10593000E72846D144E002F0BBFF9DF80000FFF7E6
:1059400023FE01273EE09DF80000092805D29DF8BE
:105950000000401CC0B2009001E0002000909DF8C3
:1059600000003849087001272CE09DF8000000284D
:1059700005DD9DF80000401EC0B2009001E0092046
:1059800000909DF800002F49087001271AE000BF21
:105990000B242D4D2D4EA0000190002405E016F89B
:1059A000010B05F8010B601CC4B29DF80400844291
:1059B000F5DB02F0F6FF03202549087002E000BF86
:1059C00000E000BF00BF22480078092895D0BDE85C
:1059D000FC8110B502F06CFF05201E490870002004
:1059E00048701DA002F076FF01201A490870487027
:1059F0001CA002F06FFF1FE00A2002F01AFE04460E
:105A0000662C0CD004DC642C07D0652C12D105E088
:105A1000672C0DD0E72C0DD10BE000BF10BD082086
:105A20000C4908701420487016A002F053FFF5E7E7
:105A300000BFF3E700BF00BF054800780928DBD0AE
:105A400000BFEBE7540000200C010020D201002031
:105A500003000020AE000020BBD6B8B4C4ACC8CF51
:105A6000D6B53F00B0B43CC8B7C8CF3EBCFCBBD62F
:105A7000B8B42C3CD7F32CD3D23EBCFCB7B5BBD8C2
:105A800000000000BBD6B8B4C4ACC8CFD6B5B3C90B
:105A9000B9A6000010B50446CC48844208D10121C3
:105AA000042000F02DFB0021042000F029FB46E03B
:105AB000C748844208D10121082000F021FB0021C1
:105AC000082000F01DFB3AE0C248844208D10121C1
:105AD000102000F015FB0021102000F011FB2EE03B
