:020000040801F1
:10000000680700204501010805030108D90501081A
:10001000DD050108E1050108E50501080000000013
:10002000000000000000000000000000E9050108D9
:10003000EB05010800000000ED050108EF050108CF
:100040005F0101085F0101085F0101085F0101080C
:100050005F0101085F01010879060108990601089E
:10006000E7060108730701085F0101085F01010845
:100070005F0101085F0101085F0101085F010108DC
:100080005F0101085F0101085F0101085F010108CC
:100090005F0101085F0101085F010108770601089F
:1000A0005F0101085F0101085F0101085F010108AC
:1000B0005F010108F10501085F0101085F01010806
:1000C0005F0101085F0101085F0101085F0101088C
:1000D0005F010108070301085F0101085F010108D2
:1000E0005F0101085F0101085F0101085F0101086C
:1000F0005F0101085F0101085F0101085F0101085C
:100100005F0101085F0101085F0101085F0101084B
:100110005F0101085F0101085F0101085F0101083B
:100120005F0101085F0101085F0101085F0101082B
:10013000DFF80CD009F0E6FF00480047890101080C
:10014000680700200648804706480047FEE7FEE7AC
:10015000FEE7FEE7FEE7FEE7FEE7FEE7FEE7FEE777
:10016000EF8601083101010870B504460D46E1B281
:10017000264807F06DFD00BF8021244807F0D6FD1A
:100180000028F9D0204670BD4FF48031C80206F037
:1001900050FC62B602201E49087036E01C48007808
:1001A0000A282CD2DFE800F02B2805080D121A1DB2
:1001B000202302F0C9FA27E008F08EFF02F083FF47
:1001C00022E008F089FF03F01DF81DE008F084FF2D
:1001D00000201049087003F019F815E003F03CFE08
:1001E00012E005F06DF90FE005F07BFA0CE008F085
:1001F00073FF05F090FF07E005F0D5FA04E008F082
:100200006BFF05F0DEFA00BF00BFC7E70038014012
:10021000030000200200002010B506F0FDF94FF4A5
:10022000803006F019FA06F056FA012820D1002095
:1002300006F097FA002006F0A6FA4FF4806006F068
:1002400099FA4FF4E0114FF4803006F06DFA012076
:1002500006F076FA00BF392006F021FA0028FAD01D
:10026000022006F070FA00BF06F076FA0828FBD1EB
:1002700010BD00E0401E0028FCD17047014601EB94
:10028000C1024FF0E0235A6100229A6101221A61F3
:1002900000BF4FF0E022106900F001021AB100F433
:1002A0008032002AF5D000224FF0E0231A619A61D3
:1002B0007047014642F228324A434FF0E0235A6128
:1002C00000229A6101221A6100BF4FF0E0221069FA
:1002D00000F001021AB100F48032002AF5D00022A9
:1002E0004FF0E0231A619A617047054A1154704734
:1002F00001460348405C08B9012070470020FCE734
:1003000019000020704710B540F22551FE4807F053
:1003100023FD00287ED02021FB4807F014FDFB4878
:1003200090F84800002858D1F94890F82B00002890
:1003300011D10621F64880F84C10F34807F08CFCE8
:10034000C4B2F34890F82C0098B9AA2C04D000212C
:10035000EF4880F82C10B5E0ED4890F82C1090F89C
:100360002C00401CC2B2EA4880F82C202E304454A5
:10037000A8E0BB2C1AD1E64890F82C1090F82C007D
:10038000401CC2B2E24880F82C202E304454012098
:10039000DF4981F82B00084690F82C1080F82D10CA
:1003A000002180F82C1080F84C108BE0D84890F891
:1003B0002C001E2804DB0021D54880F82C1081E099
:1003C000D34890F82C1090F82C00401CC2B2D048B2
:1003D00080F82C202E30445474E0CC4890F848002B
:1003E00001286FD1CA4890F82B0000286AD1062155
:1003F000C74880F84C10C44807F02EFCC4B2C4486B
:1004000090F82C00A0B9112C05D00021C04880F82C
:100410002C1057E06DE0BE4890F82C1090F82C009E
:10042000401CC2B2BA4880F82C202E30445449E017
:10043000B74890F82C00012813D1082C04D00021D3
:10044000B34880F82C103DE0B14890F82C1090F89B
:100450002C00401CC2B2AE4880F82C202E304454F0
:1004600030E0AB4890F82C001E2804DB0021A8489F
:1004700080F82C1026E0A64890F82C1090F82C005C
:10048000401CC2B2A24880F82C202E3044542E3892
:1004900090F82C00022815DD9D4890F82C1090F85B
:1004A0003000C01C81420DD10120994981F82B00F8
:1004B000084690F82C1080F82D10002180F82C10A0
:1004C00080F84C10934890F82B00002875D1062135
:1004D0008F4880F84C108C4807F0BEFBC4B28D48A2
:1004E00090F82C0098B9FF2C04D00021894880F89E
:1004F0002C1062E0874890F82C1090F82C00401CDB
:10050000C2B2844880F82C202E30445455E08148F3
:1005100090F82C00012813D1EE2C04D000217D4846
:1005200080F82C1049E07B4890F82C1090F82C00B3
:10053000401CC2B2774880F82C202E3044543CE056
:10054000744890F82C00042821D1DD2C04D000211F
:10055000704880F82C1030E06E4890F82C1090F81D
:100560002C00401CC2B26B4880F82C202E30445422
:100570000120684981F82B00084690F82C1080F87B
:100580002D10002180F82C1080F84C1015E06148E7
:1005900090F82C001E2804DB00215E4880F82C1007
:1005A0000BE05C4890F82C1090F82C00401CC2B274
:1005B000584880F82C202E3044544FF4587152483B
:1005C00007F0CAFB38B108214F4807F0BCFB4E4882
:1005D00007F042FBC4B210BD00BFFEE700BFFEE75C
:1005E00000BFFEE700BFFEE77047704770477047E7
:1005F00010B50121484807F0EBF908F040FC4748E6
:10060000007806281DD146480078401C44490870EF
:100610000846007809281ADD0020087001204149A9
:10062000087041480089401C3F4908813F480068E4
:10063000401C3E4908603E480068401C3C49086038
:1006400005E03748007810B10020354908700024D3
:1006500009E03848005D20B13648005D401E35494C
:100660000855601CC4B2022CF3DB3348007808B98B
:1006700008F0AFFF10BD704710B501212F4805F0FD
:1006800010FF28B92148408A10B105202C49087074
:10069000012006F08AFA10BD10B50120FFF709FE0F
:1006A0000221264805F0FDFEC8B926480088022828
:1006B00007D125480078012803D107202049087078
:1006C0000DE020480088032806D11F48007818B99B
:1006D00007201B49087002E0082019490870022011
:1006E00006F063FA10BD10B50520FFF7E2FD042106
:1006F000124805F0D6FE48BB0848007803282BD0E6
:1007000006480078072822E000380140F400002065
:10071000800200201A030020000400400300002093
:100720003C00002001000020D8000020A80000208C
:1007300010000020190000200000002000140140DB
:1007400004000020CC0100202F0000200DE003D089
:1007500014480078082806D10520124908700020A6
:100760001149087001E00F480078042006F01DFAD6
:1007700010BD10B50120FFF79CFD08210B4805F0C6
:1007800090FE50B907480078062803D10720054994
:10079000087002E0032003490870082006F005FAFB
:1007A00010BD0000030000202F00002000140140B5
:1007B00010B50020FE490870487008F00CFCFD4898
:1007C0004088E8B1012804D002287DD003286ED1EA
:1007D0003AE0F94808F092FC0620F549087001203B
:1007E0004870F6A008F09DFC0E20F1490870012029
:1007F0004870F3A008F095FCF42008F02FFCA2E06C
:10080000F0480078012803D1EF4808F077FC03E0B6
:10081000ED48C01D08F072FC0620E5490870012073
:100820004870E448808818B1E4A008F07AFC02E03F
:10083000E6A008F076FC0E20DD4908700120487023
:10084000E3A008F06EFC7EE0E2480078B0B9DA4838
:1008500008F054FC0620D649087001204870D7A043
:1008600008F05FFC0E20D249087001204870D4A027
:1008700008F057FCF42008F0F1FB24E0D1480078A0
:10088000012803D1D04808F039FC03E0CE48C01D50
:1008900008F034FC0620C649087001204870C5489D
:1008A000808828B1C5A008F03CFC04E00CE049E0D9
:1008B000C6A008F036FC0E20BD4908700120487023
:1008C000C3A008F02EFC3EE0C248007818BBBD482B
:1008D0000078012803D1BC4808F010FC03E0BA48B6
:1008E000C01D08F00BFC0620B149087001204870BB
:1008F000B048808818B1B1A008F013FC02E0B3A0A2
:1009000008F00FFC0E20AA49087001204870B0A022
:1009100008F007FC15E0A84808F0F0FB0620A44901
:10092000087001204870A5A008F0FBFB0E20A0492C
:10093000087001204870A2A008F0F3FBF42008F032
:100940008DFB00E000BF00BF072099490870002020
:1009500048709BA008F0E5FB964909783131C8B290
:1009600008F0BEFB0F2092490870002048707320E9
:1009700008F0BCFB04208E4908700120487096A046
:1009800008F0CFFB10BD8B484A2102E00022027024
:10099000401C0A1EA1F1010399B2F7D18F4B1A70C6
:1009A0007047002010E0834A921C02EB40010A8845
:1009B0008B4B33F820309A4204DD894A02EB8002E7
:1009C00052880A80421CD0B20D28ECDB7047F0B58B
:1009D00004461D46052A00DD052202B9012204292C
:1009E00000DD0421914200DD1146002004E02026B4
:1009F0007C4F3E54461CF0B20828F8D3104611E054
:100A00000A2694FBF6F706FB17463036F7B2461E69
:100A1000DFF8D0C10CF806700A2694FBF6F6B4B2E3
:100A2000461EF0B20028EBDC81B11346084605E013
:100A30005E1E6C4FBE5DFE545E1EF3B2061EA0F13C
:100A40000107F8B2F4D12E26664FFE54A5B9002056
:100A50000EE0644E365C302E07D1624F461CBE5D00
:100A60002E2E02D020263E5400E004E0461CF0B2B8
:100A7000561E8642EDDC00BF09B1561CF2B210468C
:100A800004E00026574F3E54461CF0B20828F8D325
:100A9000F0BD10B5474890F8480018B9524808F022
:100AA0002DFB07E0434890F84800012802D14F4849
:100AB00008F024FB10BD10B53E4890F8480020B95E
:100AC0004948153008F01AFB08E03A4890F8480009
:100AD000012803D14548153008F010FB10BD10B5B2
:100AE00043A008F00BFB10BD10B500203049087082
:100AF000487008F070FAFFF7CCFF00202C4908700E
:100B00000120487008F067FAFFF7D5FF10BD10B557
:100B10002C490978C1EBC101384A881808F001FB5B
:100B200010BD10B523484088032802DD002021496C
:100B3000488000201E490870487008F04CFA1D4992
:100B4000498801EB41012E4A02EB410008F0E9FA25
:100B50000720174908700020487016490978481C7A
:100B600001231A460021FFF732FF15A008F0D9FA39
:100B70001C4808F0C3FA0F484088012803DD21A073
:100B800008F0BCFA02E020A008F0B8FA0A200849F0
:100B9000087008484088032803D006484088012888
:100BA00037D10449488B0023042201212EE00000A4
:100BB000B2000020F4000020C3A601084443000056
:100BC0004D00000004000020D1A6010841430000B0
:100BD0006D4100002F0000206B5600000200002035
:100BE00074AD0108B400002094AE01082BAE0108DA
:100BF0004A616E203135203230323100DEAD0108DD
:100C000045A701085F00000020000000FFF7DFFE9D
:100C100006E0FB49C889002304220121FFF7D7FE23
:100C2000F84808F07EFAF8A008F068FA0020F749C2
:100C3000087001204870F248808840B9F048C088A8
:100C4000B0F5167F03DD4FF41671ED48C180EC4816
:100C5000408801280AD1EA49888A00230322022118
:100C6000FFF7B5FE0121E648818012E0E4484088A4
:100C7000032807D1E249888A002303220221FFF7D3
:100C8000A6FE06E0DE49C888002303220221FFF702
:100C90009EFEDC4808F045FAAFF2C40008F02EFAD8
:100CA0001421DB4808F0C3FED948DAA109680160C5
:100CB000DAA108F0C7FED2484088032812D1D049F3
:100CC000C888002303220221FFF781FE1421D448A3
:100CD00008F0ADFED248CFA109680160CFA108F0AD
:100CE000B1FE15E0C6484088022811D1C449888A5F
:100CF000002303220221FFF76AFE1421C84808F0EE
:100D000096FEC748C3A109680160C4A108F09AFE15
:100D1000BB48808840B9BA484088032804D0AFF265
:100D2000541008F0EBF903E0AFF2701008F0E6F9A8
:100D3000B3484088032803D0B148408801282FD108
:100D40000A20B2490870AE49C88A00230422194615
:100D5000FFF73DFEAB4808F0E4F9AFF29C1008F055
:100D6000CDF9F42008F07AF9AEA1AD4808F06AFE9A
:100D7000AEA1AB4808F066FEA148408803283BD1ED
:100D80009F490889002304220221FFF720FEA1A128
:100D90009F4808F057FEA6A19D4808F053FE2BE09F
:100DA00009209A49087096490889002304220221E3
:100DB000FFF70DFE934808F0B4F9AFF2EC1008F01D
:100DC0009DF994A1924808F03DFE99A1904808F041
:100DD00039FE8B48408802280ED18949C88A0023F1
:100DE00004220221FFF7F3FD8EA18D4808F02AFEB0
:100DF0008EA18B4808F026FE10BD70B505468D48C3
:100E0000047804F03F0475B1012D09D0022D04D0FF
:100E1000032D09D144F0C00409E044F0800406E049
:100E200044F0400403E002E044F0C00400BF00BF0F
:100E3000804804700020804908607E480078C043E4
:100E400000067C49097840EA01207C4908600120BD
:100E50007B49C1F890016420FFF72BFA70BD70B593
:100E600004460020694908704870254604EBD57196
:100E70004910A4EB4101C1EBC10101EB4101714AF1
:100E8000881808F04EF90020604908700120487069
:100E90006D4808F046F970BDF8B5044601275B4877
:100EA00000788DF80000594840788DF801002068DE
:100EB00008F0D4FDC6B2701CC6B2082E00DD0826AC
:100EC00052E067B19DF80000504908709DF801009C
:100ED0004870A288216806FB021008F022F90A2057
:100EE00007F0BBFF0546E12D15D009DCA5F1610037
:100EF000082837D2DFE800F00E201136362E3331C5
:100F0000A5F1E20007282DD2DFE800F017082C2C0D
:100F1000252A280000BF6120F8BD00BF0127A08856
:100F20006189884203DDA088401EA08003E06089BB
:100F3000A08008F09FFB16E000BF0127A088401C9E
:100F4000A080A0882189884203DD2089A08008F044
:100F500091FB08E000BF6620DEE700BF00BF00BFD6
:100F60006720D9E700BF00BFABE710B504460020FB
:100F700026490870487004EB840101EBC401334A30
:100F8000881808F0CEF80020204908700120487029
:100F90002F4808F0C6F810BD10B504460A2094FB8F
:100FA000F0F100FB1140C4B234B1012C11D0022C7D
:100FB00019D0032C5BD14DE0124808F0B2F8202084
:100FC00008F08EF8562008F08BF8202008F088F8FA
:100FD0004EE00C4808F0A5F8202008F081F87320B6
:100FE00008F07EF844E0074808F09BF8202008F05D
:100FF00077F84D2008F074F8F42008F071F837E025
:10100000F4000020B400002073000000B2000020B3
:1010100002020020302E3030000000006B563B00F2
:10102000160200202020302E300000004D3B000032
:101030006D413B00A5000020908122421014014028
:101040000080224292AB0108E6AB010864AC0108C3
:101050004FAC0108F64808F064F8202008F040F88A
:101060004D2008F03DF8F42008F03AF800E000BF09
:1010700000BF10BD10B504460020EE49087048704E
:101080000E2C13D2DFE804F007131F636465666754
:101090006869AAABACADE8A008F043F80020E549C8
:1010A000087001204870E9A008F03BF8B9E0EBA017
:1010B00008F037F80020DF49087001204870EB483D
:1010C00008F02FF8ADE0EA484088C8B1012804D004
:1010D000022817D0032837D113E0A11EE54A02EBFE
:1010E000011008F01EF80020D24908700120487055
:1010F000611E01EB0111DD4A881808F012F824E0A6
:1011000000BF00BF0020CB4908704870A11EDA4A1A
:1011100002EB011008F005F80020C6490870012014
:101120004870D348808838B9A11E01EB0111D34A19
:10113000881807F0F6FF06E0A11E01EB0111D04A66
:10114000881807F0EEFF00E000BF00BF69E000BFB5
:1011500000BF00BF00BF00BF00BFC5484088C8B186
:10116000012804D0022817D0032834D113E0A11E8F
:10117000C04A02EB011007F0D4FF0020AD4908700F
:1011800001204870611E01EB0111B84A881807F070
:10119000C8FF21E000BF00BFA11E01EB0111B94A49
:1011A000881807F0BEFF0020A2490870012048708F
:1011B000AF48808838B9611E01EB0111AF4A881829
:1011C00007F0AFFF06E0611E01EB0111AC4A881881
:1011D00007F0A7FF00E000BF00BF22E000BF00BF94
:1011E00000BFA11E01EB0111A64A881807F099FF64
:1011F0000C2C01D00B2C07D10E208E49087000203A
:101200004870F42007F072FF00208A49087001201E
:101210004870611E01EB01119B4A881807F081FF9D
:1012200000BF00BF10BD2DE9F84304464FF001098F
:10123000804800788DF800007E4840788DF80100E5
:101240000027A07908B9032600E00426A4E1B9F13B
:10125000000F10D09DF80000764908709DF801003D
:101260004870A389DAB2A179A0880023FFF7AFFB09
:101270006F4807F056FF0A2007F0EFFD8046B8F1EF
:10128000E10F15D009DCA8F16100082872D2DFE86F
:1012900000F00E9C127171CECDCCA8F1E2000728AF
:1012A000F4D2DFE800F0FA3F6767F9F8F70000BF13
:1012B0006120BDE8F8834FF0010900277348807969
:1012C000C0F10300B04202DA701EC5B200E035463C
:1012D0006F4830F8150061890844A188884206DC0F
:1012E000A0886B4931F81510401AA08019E0608978
:1012F000052802D06089062813D16089062806D106
:10130000A08810B10020A08001E008F0B3F9608946
:10131000052806D1A08810B10020A08001E008F0C7
:10132000A9F938E14FF00109781CC7B25748807914
:10133000C0F10300B04202DA701EC5B200E03546CB
:101340001C2F0CDD002D01DD681EC5B2002D01DD56
:10135000681EC5B2002D14DD681EC5B211E0132F42
:1013600009DD002D01DD681EC5B2002D09DD681EF6
:10137000C5B206E009E10A2F03DD002D01DD681E7C
:10138000C5B2434830F8150061890844A1888842F5
:1013900006DCA0883E4931F81510401AA08013E001
:1013A0006089062806D1A08810B10020A08001E045
:1013B00008F060F96089052806D1A08810B10020E6
:1013C000A08001E008F056F9E5E04FF001090027A0
:1013D0002E488079C0F10300B04202DA701EC5B217
:1013E00000E035466089062802D06089052855D17D
:1013F000608906280AD1A08810B90620A08005E0DF
:10140000A088234931F815100844A0806089052878
:1014100052D1A08810B90520A0804DE0A0881C49B9
:1014200031F815100844A08046E0A9E0AAE0A4E045
:10143000B4000020B20000204D656D6F72793D2030
:1014400020202020202020200000000052616E6714
:10145000653A312D392020202020200054657374F6
:1014600020203D2020202020202020005DA70108F2
:10147000F4000020DFA60108B2A7010832A8010885
:1014800074AA0108CBA8010897A90108C800002088
:10149000A0A6010875E076E070E00EE0A088F849AB
:1014A00031F815100844A080A0882189884203DD06
:1014B0002089A08008F0DEF86DE04FF00109781C6B
:1014C000C7B2F0488079C0F10300B04202DA701E62
:1014D000C5B200E035461C2F0CDD002D01DD681E75
:1014E000C5B2002D01DD681EC5B2002D13DD681EDA
:1014F000C5B210E0132F08DD002D01DD681EC5B256
:10150000002D08DD681EC5B205E00A2F03DD002DA1
:1015100001DD681EC5B26089062802D060890528F1
:101520001CD1608906280AD1A08810B90620A080A5
:1015300005E0A088D24931F815100844A0806089E0
:10154000052819D1A08810B90520A08014E0A08832
:10155000CB4931F815100844A0800DE0A088C84997
:1015600031F815100844A080A0882189884203DD45
:101570002089A08008F07EF80DE000BF662098E684
:1015800000BF08E000BF672093E6BF4880780128CD
:1015900000D0002700BF00BF59E62DE9F04100252B
:1015A00000260027B948C08940F6D861884211DD7D
:1015B000012500BF002405E00020B54941F82400C2
:1015C000601CC4B20C2CF7DB0020B2490870B24991
:1015D000088009E0AD48C089B0F5B47F02DA012681
:1015E000002501E0002500260027AC4800780028EF
:1015F00016DD012D14D1A9480078401EA7490870B6
:101600000127002405E00020A14941F82400601CC6
:10161000C4B20C2CF7DB00209E4908709E4908805C
:101620009E480078042816DA012E14D19B480078D1
:10163000401C9A4908700127002405E000209449C5
:1016400041F82400601CC4B20C2CF7DB0020914947
:10165000087091490880012F06D190480078FFF763
:10166000CCFB3220FEF725FEBDE8F08101B590B03D
:101670000021109808F040FC10D2109808F0DDFB13
:101680000022874BCDE9060108F0B7FACDE9080141
:1016900008F016FC1090012082490870109808F09C
:1016A000CCFB814A814BCDE9080108F0D9FB01D27E
:1016B00011B000BD109808F0C0FB7D4A7D4BCDE90C
:1016C000080108F0E5FB58D2109808F0B6FB784AFC
:1016D000784BCDE9060108F002FBCDE9080108F0DE
:1016E000EFFB0E9074480D9000200B9026200A907E
:1016F0003FE0DDE90D1008F042FA4FF07E5109900D
:1017000008F0FAFB0ED20D9808F097FB00226B4B05
:10171000CDE9060108F0E3FACDE9080108F0D0FBB5
:101720000D9000E028E00D9808F087FB644A654BB7
:10173000CDE9020108F061FACDE90601109808F040
:101740007CFBCDE90401DDE9062308F0C8FACDE908
:10175000080108F059FB0C9052490C9848600A980F
:1017600008720B98401C40B20B900A98401E40B281
:101770000A900B980428BCDB13E2109808F05DFB7C
:10178000514A524BCDE9080108F082FB58D210981B
:1017900008F053FB4C4A4D4BCDE9060108F09FFA87
:1017A000CDE9080108F08CFB0E9049480D9000200F
:1017B0000B9023200A903FE0DDE90D1008F0DFF9DF
:1017C0004FF07E51099008F097FB0ED20D9808F06B
:1017D00034FB0022394BCDE9060108F080FACDE94F
:1017E000080108F06DFB0D9000E028E00D9808F06E
:1017F00024FB384A384BCDE9020108F0FEF9CDE967
:101800000601109808F019FBCDE90401DDE9062373
:1018100008F065FACDE9080108F0F6FA0C902149C4
:101820000C9848600A9808720B98401C40B20B90C4
:101830000A98401E40B20A900B980828BCDB9BE730
:10184000109808F0FAFA254A254BCDE9080108F06E
:101850001FFB7DD2109808F0F0FA204A204BCDE90A
:10186000060108F03CFACDE9080108F029FB0E90CA
:1018700017480D9000200B901C200A9074E0000087
:10188000A0A60108C8000020AC000020D80000205D
:101890007C01002007000020080000200600002036
:1018A0000000F0BFE8000020ECCFC55FFFFF0F385D
:1018B000824DC7726142334700007A4400002440E1
:1018C00021D7E6FAE031F44581121F2FE727C04502
:1018D0008096184B92D54D06CFF0804450EFE2D65B
:1018E000E41A4B44DDE90D1008F049F94FF07E5140
:1018F000099008F001FB0ED20D9808F09EFA002224
:10190000F74BCDE9060108F0EAF9CDE9080108F046
:10191000D7FA0D9000E02AE00D9808F08EFAF14A0F
:10192000F14BCDE9020108F068F9CDE90601109804
:1019300008F083FACDE90401DDE9062308F0CFF9C8
:10194000CDE9080108F060FA0C90E8490C9800E035
:101950000EE048600A9808720B98401C40B20B9049
:101960000A98401E40B20A900B980828BADBA0E300
:10197000109808F062FADE4ADE4BCDE9080108F063
:1019800087FA58D2109808F058FAD94AD94BCDE9BD
:10199000060108F0A4F9CDE9080108F091FA0E90CB
:1019A000D5480D9000200B9015200A903FE0DDE90E
:1019B0000D1008F0E4F84FF07E51099008F09CFA01
:1019C0000ED20D9808F039FA0022C54BCDE9060178
:1019D00008F085F9CDE9080108F072FA0D9000E0F1
:1019E00028E00D9808F029FA0022C44BCDE9020145
:1019F00008F003F9CDE90601109808F01EFACDE9C8
:101A00000401DDE9062308F06AF9CDE9080108F0D0
:101A1000FBF90C90B5490C9848600A9808720B982D
:101A2000401C40B20B900A98401E40B20A900B989E
:101A30000828BCDB3DE3109808F0FFF90022B04B0A
:101A4000CDE9080108F024FA58D2109808F0F5F909
:101A50000022AB4BCDE9060108F041F9CDE90801C0
:101A600008F02EFA0E90A4480D9000200B900D2047
:101A70000A903FE0DDE90D1008F081F84FF07E514B
:101A8000099008F039FA0ED20D9808F0D6F9002224
:101A9000934BCDE9060108F022F9CDE9080108F0E1
:101AA0000FFA0D9000E028E00D9808F0C6F900222A
:101AB0008B4BCDE9020108F0A0F8CDE906011098A2
:101AC00008F0BBF9CDE90401DDE9062308F007F9C8
:101AD000CDE9080108F098F90C9084490C98486009
:101AE0000A9808720B98401C40B20B900A98401E4E
:101AF00040B20A900B980828BCDBDAE24FF07E5126
:101B0000109808F003FA4DD210980E907A480D9074
:101B100000200B9007200A9021E0DDE90D1008F06D
:101B20002EF84FF07E51099008F0E6F90ED20D988C
:101B300008F083F900226A4BCDE9060108F0CFF8DE
:101B4000CDE9080108F0BCF90D9000E00AE00B981F
:101B5000401C40B20B900A98401E40B20A900B986D
:101B60000828DADB00BF0D9808F067F9654A664B74
:101B7000CDE9020108F041F8CDE90601109808F01E
:101B80005CF9CDE90401DDE9062308F0A8F8CDE908
:101B9000080108F039F90C9054490C9848600A98EB
:101BA000087286E2109808F048F9584A584BCDE977
:101BB000080108F06DF959D2109808F03EF900229A
:101BC0004F4BCDE9060108F018F8CDE9080108F0FF
:101BD00077F90E9048480D9000200B900A9041E054
:101BE000DDE90D1007F0CBFF4FF07E51099008F0B2
:101BF00083F90ED20D9808F020F90022384BCDE978
:101C0000060108F06CF8CDE9080108F059F90D90CB
:101C100000E02AE00D9808F010F902460B46CDE9E5
:101C200002013C483C4908F05AF8CDE906011098F9
:101C300008F003F9CDE90401DDE9062307F0DDFF33
:101C4000CDE9080108F0E0F80C9028490C984860AC
:101C50000A9808720B98401C40B20B900A98401EDC
:101C600040B20A900B980828BADB22E2109808F0DC
:101C7000E4F82A4A2A4BCDE9080108F009F97ED296
:101C8000109808F0DAF81A4A1A4BCDE9060107F065
:101C9000B4FFCDE9080108F013F90E9016480D9035
:101CA00000200B90C01F0A9064E0DDE90D1007F0E2
:101CB00066FF4FF07E51099008F01EF90ED20D9884
:101CC00008F0BBF80022064BCDE9060108F007F842
:101CD000CDE9080108F0F4F80D9023E04DE0000094
:101CE0000000244000003426F56B0C43E80000207F
:101CF0000000901EC4BCD6428096184B84D79741F2
:101D0000D01263418DEDB5A0F7C6B03E48AFBC9A86
:101D1000F2D77A3E000040E59C30A2429B2BA18680
:101D20009B84063D0D9808F088F802460B46CDE9E5
:101D30000201F748F74907F0D2FFCDE906011098F4
:101D400008F07BF8CDE90401DDE9062307F055FF33
:101D5000CDE9080108F058F80C90EF490C9848605C
:101D60000A9808720B98401C40B20B900A98401ECB
:101D700040B20A900B98082897DB9AE1FFE7109889
:101D800008F05BF8E54AE64BCDE9080108F080F879
:101D90005BD2109808F051F8E24AE34BCDE9060116
:101DA00007F02BFFCDE9080108F08AF80E90DF4814
:101DB0000D9000200B906FF00D000A9041E0DDE9DE
:101DC0000D1007F0DCFE4FF07E51099008F094F8FA
:101DD0000ED20D9808F031F80022D54BCDE906015E
:101DE00007F07DFFCDE9080108F06AF80D9000E0EA
:101DF0002AE00D9808F021F802460B46CDE90201D1
:101E0000CC48CD4907F06BFFCDE90601109808F0EA
:101E100014F8CDE90401DDE9062307F0EEFECDE973
:101E2000080107F0F1FF0C90BB490C9848600A9834
:101E300008720B98401C40B20B900A98401E40B2AA
:101E40000A900B980828BADB33E1109807F0F5FFE9
:101E5000BA4ABB4BCDE9080108F01AF85BD21098DA
:101E600007F0EBFFB74AB84BCDE9060107F0C5FE16
:101E7000CDE9080108F024F80E90AC480D90002040
:101E80000B906FF014000A9041E0DDE90D1007F0AF
:101E900076FE4FF07E51099008F02EF80ED20D9884
:101EA00007F0CBFF0022A24BCDE9060107F017FF98
:101EB000CDE9080108F004F80D9000E02AE00D9843
:101EC00007F0BBFF02460B46CDE902019F48A0493F
:101ED00007F005FFCDE90601109807F0AEFFCDE948
:101EE0000401DDE9062307F088FECDE9080107F0CB
:101EF0008BFF0C9088490C9848600A9808720B98E0
:101F0000401C40B20B900A98401E40B20A900B98B9
:101F10000828BADBCDE0109807F08FFF8D4A8E4B72
:101F2000CDE9080107F0B4FF61D2109807F085FFF2
:101F30008A4A8B4BCDE9060107F05FFECDE9080127
:101F400007F0BEFF0E9079480D9000200B906FF0C7
:101F50001B000A9047E0DDE90D1007F010FE4FF07E
:101F60007E51099007F0C8FF0ED20D9807F065FF6B
:101F700000226F4BCDE9060107F0B1FECDE9080163
:101F800007F09EFF0D9000E030E00D9807F055FF40
:101F900002460B46CDE900017048714907F09FFEEB
:101FA000CDE90401109807F048FFCDE90201DDE911
:101FB000042307F022FE00226A4BCDE9060107F058
:101FC0001CFECDE9080107F01FFF0C9052490C9848
:101FD00048600A9808720B98401C40B20B900A980F
:101FE000401E40B20A900B980828B4DB61E01098BC
:101FF00007F023FF5C4A5D4BCDE9060107F0FDFDCC
:10200000CDE9080107F05CFF0E9059480D900020C3
:102010000B906FF022000A9047E0DDE90D1007F009
:10202000AEFD4FF07E51099007F066FF0ED20D987D
:1020300007F003FF00223E4BCDE9060107F04FFEFB
:10204000CDE9080107F03CFF0D9000E030E00D986D
:1020500007F0F3FE02460B46CDE900014248434932
:1020600007F03DFECDE90401109807F0E6FECDE94A
:102070000201DDE9042307F0C0FD0022394BCDE960
:10208000060107F0BAFDCDE9080107F0BDFE0C908E
:1020900021490C9848600A9808720B98401C40B27D
:1020A0000B900A98401E40B20A900B980428B4DBAB
:1020B00000BF00BFFFF7FCBA70B500252D480078BF
:1020C000401C2C4908702C48C08949F64041884280
:1020D00004DC2948C089B0F5FA6F06DA2748007891
:1020E000042802D000202349087025498A68254920
:1020F0000888411C234B1980234941F820201846A9
:1021000000880C2802DB002019460880002446E0E5
:10211000408CB5781DAF1544E80000204F9B0E0A97
:10212000B4E3923B50EFE2D6E41A4B448096184B4E
:10213000000024400284FEE471D98945196050BE34
:10214000F6B01F3A81121F2FE727C045037CD8EA5B
:102150009BD0FE460F7AF8B7A595AA38824DC77274
:102160006142334780842E41B1A1162AD3CED24793
:1021700000007A4407000020D8000020060000205C
:102180006C010020080000207C010020FE4850F86F
:102190002410284607F069FC0546601CC4B20C2CCC
:1021A000F4DBFA4800780C2808DBF949284607F0E8
:1021B000E6FCF84988600C20F4490870F549886805
:1021C000FFF754FAF44840684FF47A71B0FBF1F02D
:1021D000F149486070BD70B5EE49C86807F0EEFD82
:1021E0000546EC480168284607F097FC0446E94894
:1021F0004168204607F0C3FCE649886070BD10B511
:10220000E648C0890A2802DA0A20E449C881E3497D
:10221000C88907F0D3FDDF494860E148E149097802
:1022200050F82100DB49C860FFF7D5FF10BD2DE94C
:10223000F0410024012717E2012FFCD100270E2CCA
:1022400015D2DFE804F0071524494A4B4C4D9F4E48
:10225000BFC0C1C2D44D2888401CD4498880092001
:102260000881012048810020887101208881CEE00A
:10227000CD4DAD1CCE48CD4908602888888003200C
:10228000088100204881887101208881BFE0C6480C
:10229000408838B1012804D0022805D0032819D17C
:1022A00001E017E000BF00BFBF488088012802DDC1
:1022B0000021BD488180BC4D2D1DBE48BB49086032
:1022C00028888880012008810020488188710120A9
:1022D000888100BF00BF9AE000BF00BF00BF00BF01
:1022E00000BFB148408838B1012804D0022805D089
:1022F000032845D101E043E000BF00BFAA48801D8C
:1023000000EB4400851FA8488088E0B9AA48A74987
:10231000086028888880601EA84931F82000A349F9
:102320000881601EA54901EB800040889F494881D3
:10233000E01EA34911F810009C498871A14830F8AB
:10234000140088811BE09C48984908602888888090
:10235000601E9D4931F8200094490881601E9A4909
:1023600001EB8000408891494881E01E944911F8B2
:1023700010008E498871934830F81400888100BF9E
:1023800000BF44E08848008A012802DD0021864819
:102390000182854D10358D488449086028888880E1
:1023A000601E864931F8200080490881601E8349FB
:1023B00001EB800040887D49488100208871012020
:1023C000888124E000BF00BF00BF7748801D00EB7C
:1023D0004400851F7E487549086028888880601EF3
:1023E000764931F8200071490881601E734901EB7C
:1023F000800040886D494881E01E714911F8100045
:102400006A4988716F4830F81400888100BF00BFA6
:102410002046FEF72FFE0E2C76D2DFE804F00711DF
:102420001B252F39434D57616B7677780A20694910
:102430000870002048705D48FEF7F5FE804671E0A8
:10244000082064490870002048705848FEF724FDB1
:10245000804667E00A205F490870002048705348B2
:10246000FEF71AFD80465DE00A205A4908700020F8
:1024700048704E48FEF7D7FE804653E00720554986
:102480000870002048704948FEF7CDFE804649E0BC
:10249000072050490870002048704448FEF7C3FEEA
:1024A00080463FE007204B490870002048703F48B5
:1024B000FEF7B9FE804635E0082046490870002046
:1024C00048703A48FEF7AFFE80462BE007204149AE
:1024D0000870002048703548FEF7DEFC804621E099
:1024E00007203C490870002048703048FEF79BFEEA
:1024F000804617E00A2037490870002048702B48B2
:10250000FEF791FE80460DE00BE000BF00BF082003
:1025100030490870002048702448FEF784FE804649
:1025200000E000BF00BF44B920488088401E2880DA
:1025300006F043FEFEF735FA02E01C48808828804A
:10254000B8F1680F72D009DCA8F1610007286ED2DB
:10255000DFE800F00E6E708888728300A8F1E10059
:1025600008287FD2DFE800F00565677E7E7E7A78F6
:1025700000BF0D484088012802D1012C00D1092458
:1025800009488088012827E07C01002007000020FE
:10259000000040416C010020E8000020D80000202D
:1025A000A8A6010806000020F4000020C8000020B2
:1025B0002DA701081FA70108B2A7010840AD010817
:1025C000A8AD0108BEAD01080CAD010827A70108A0
:1025D000CBA80108B200002006D1072C04D1601C52
:1025E000C4B2601CC4B201E0601CC4B2012C1BDD8B
:1025F0005048408840B1012804D0022807D0032861
:1026000007D103E00E2606E00A2604E000BF0E26EE
:1026100001E00E2600BF00BFB44205DB002403200A
:102620004549087006F0B8FD01271CE013E019E0E9
:1026300000BF18E000BF16E03E48C088012802D164
:1026400002213C48C18003203B49087006F0A4FDEC
:1026500006F070FD07E000BF05E000BF032036492B
:10266000087000E000BF00BF3348007804283FF442
:10267000E3ADBDE8F081704702460B4688B2704773
:1026800010B54FF480732D4A2D492E4803F0CAF837
:102690002C4803F0F1F810BDF0B50446059D27461F
:1026A0000E4602B9012207FB06FCBCFBF5FC0CFB45
:1026B00003FCBCFBF2F0F0BD30B50246002006E0A2
:1026C000145C0A2594FBF5F4E3B2441CE0B28842A2
:1026D000F6DB30BD70B502460C46002012E0135CFC
:1026E000DD1703EB15752911135CDD1703EB157569
:1026F0002D11A3EB051501EB810605EB46051554DD
:10270000431CD8B2A042EADB70BD30B50B4601468F
:10271000C41700EB1474C4F30712C41700EB14744D
:102720002411A0EB041402EB820504EB4504E0B293
:1027300030BD0000F400002003000020A0A5010827
:102740000C1001401C00024070B506F0FFFE06F0C0
:1027500092FE00214FF0804004F060FEFEF713F976
:1027600006F0EFFC06F0EDFC06F027FD06F0F9FCA4
:1027700006F034FDFEF715F9F8480078082802DD68
:102780000020F649087006F067FF06F06FFDFEF7BF
:10279000ABF90020F2490870002438E0601CC4B294
:1027A000142C02DD0320EF4908700A2006F055FBC7
:1027B0000546682D25D009DCA5F16100072824D243
:1027C000DFE800F01517190E1B1D2000A5F1E10030
:1027D00007281AD2DFE800F00C0E100512141700BB
:1027E00000BF0920DF49087006F03DFF0EE000BF82
:1027F0000CE000BF0AE000BF08E000BF06E000BF39
:1028000004E003E000BF142400E000BF00BFD5488F
:1028100000780228C2D006F015FE70BD2DE9F04107
:1028200090B0FF260027D04890F82B00A0B1CE48EA
:1028300090F83000C94981F848001E21CA482E305E
:1028400007F0F5F80020C84981F82B000021C648A0
:1028500080F82C1006F07CFCC04890F84800002856
:1028600070D1C24890F82B0000286CD01C2101A820
:1028700007F0DDF81C22BD49303101A807F0BEF891
:10288000BA4890F82F6090F830500020B74981F88E
:102890002B000021B54880F82C10DE2E7ED006DCFF
:1028A000CC2E7CD0CE2E09D0DD2E79D1A6E1EE2E15
:1028B00077D0F22E76D0F32EF7D1B0E1AC48007885
:1028C0000B2841D2DFE800F00640400D14301B22F7
:1028D00029403700A748A8A10A6802600979017158
:1028E00039E0A448A4A10A6802600979017132E0C4
:1028F000A048A3A10A680260097901712BE09D48F4
:10290000A1A10A6802600979017124E09948A0A197
:102910000A680260097901711DE096489EA10A6863
:1029200002600979017116E092489DA10A6802606F
:10293000097901710FE08F4893A10A680260097953
:10294000017108E0C9E2C7E28A4897A10A680260FB
:102950000979017100BF00BF80484088022803D078
:102960007E48408803287DD19148007800287AD19C
:1029700001208F49087028217C48C01C07F057F8B7
:102980007B48007878B98B497848C01C07F05AF822
:1029900078497648C01C07F055F85BE041E126E134
:1029A00099E25FE13CE184480078012818D181492F
:1029B0006E48C01C07F046F868484088022805D1D8
:1029C0006C496A48C01C07F03DF843E06348408802
:1029D00003283FD168A16548C01C07F033F839E0EF
:1029E0005E484088022819D17248407B3B2805D1B7
:1029F000704863A10968C0F80E1008E06D48807B3C
:102A00003B2804D16B485EA10968C0F80F10122260
:102A100068495648C01C06F0F1FF1BE04F4840884B
:102A2000032817D16348407B3B2805D161485149B1
:102A30000968C0F80E1008E05E48807B3B2804D18E
:102A40005C484C490968C0F80F105A494748C01CF7
:102A500006F0F8FF59A14548C01C06F0F3FF58499D
:102A6000424801E063E04AE0C01C06F0EBFF524838
:102A70000078012813D139484088022805D13EA1A9
:102A80003A48C01C06F0DEFF1CE0344840880328AA
:102A900018D138493548C01C06F0D4FF12E02F4841
:102AA0004088022805D133493048C01C06F0CAFFCF
:102AB00008E02A484088032804D131A12B48C01CD3
:102AC00006F0C0FF3F492948C01C06F0BBFF0024A8
:102AD0000EE02648C01C015D3B4805F0B9F800BF78
:102AE0008021394805F022F90028F9D0601CC4B2D1
:102AF000272CEEDB00201D4981F82B0076E0002416
:102B00000EE01A48C01C015D2F4805F0A1F800BF77
:102B100080212D4805F00AF90028F9D0601CC4B2C4
:102B2000272CEEDB0020114981F82B005EE02821E4
:102B30000E48C01C06F07BFF0E221E490B48C01C2D
:102B400006F05CFF0B490948C01C06F07BFF1D49DD
:102B50000648C01C06F076FF002445E0F400002083
:102B600005000020030000201A030020800200203E
:102B700004000020400000202D2D2D2D000000001D
:102B800050415353000000004849474800000000EE
:102B90004C4F57200000000042524B200000000024
:102BA00041524320000000005445535400000000EF
:102BB0004A00002002020020490000203B000000E3
:102BC000160200204B00002000380140FE48015D45
:102BD000FE4805F03DF800BF8021FC4805F0A6F84E
:102BE0000028F9D0601CC4B2142CEFDB74E1002083
:102BF000F74908700520F74908706DE1F54800783D
:102C0000062808D10320F44908700720F14908700C
:102C100006F013FC02E00320EE4908705CE15BE182
:102C20005AE135B1012D08D0102D0AD0112D10D147
:102C30000BE00020E94948800CE00120E74948808A
:102C400008E00220E549488004E00320E349488089
:102C500000E000BF00BF06F06DFA06F09DFAFDF738
:102C600060FF39E19DF80500401EDC490870AC2D7D
:102C700004D0AD2D6FD0DC2D6ED172E00021D7488D
:102C800081809DF807000121FFF73FFD80469DF8F8
:102C900006000121FFF739FD00EBC00101EB001038
:102CA00008EB8001CD48C1809DF809000121FFF7A4
:102CB0002CFD80469DF808000121FFF726FD00EB62
:102CC000C00101EB001008EB8001C44801819DF8B0
:102CD0000B000121FFF719FD80469DF80A00012134
:102CE000FFF713FD00EBC00101EB001008EB8001C2
:102CF000BA4841819DF80D000121FFF706FD80468D
:102D00009DF80C000121FFF700FD00EBC00101EB75
:102D1000001008EB8001B14881819DF80F0001216E
:102D2000FFF7F3FC80469DF80E000121FFF7EDFC54
:102D300000EBC00101EB001008EB8001A748C18146
:102D40009DF8101041829DF81100502805D10021F6
:102D5000A248018204E069E0B5E001219F480182B8
:102D6000B1E001219D4881809DF80700FFF7CDFC6F
:102D700080469DF806000121FFF7C7FC00EBC0016B
:102D800001EB001008EB80019448C1809DF8090018
:102D90000121FFF7BAFC80469DF808000121FFF7EA
:102DA000B4FC00EBC00101EB001008EB80018B4884
:102DB00001819DF80B000121FFF7A7FC80469DF8DB
:102DC0000A000121FFF7A1FC00EBC00101EB00109C
:102DD00008EB8001814841819DF80D000121FFF73A
:102DE00094FC80469DF80C000121FFF78EFC00EB5F
:102DF000C00101EB001008EB8001784881819DF84B
:102E00000F000121FFF781FC80469DF80E00012193
:102E1000FFF77BFC00EBC00101EB001008EB800129
:102E20006E48C1819DF8101041824CE09DF807006A
:102E30000121FFF76AFC80469DF806000121FFF79B
:102E400064FC00EBC00101EB001008EB800163485B
:102E500081829DF809000121FFF757FC80469DF80B
:102E600008000121FFF751FC00EBC00101EB00104D
:102E700008EB80015948C1829DF80B000121FFF742
:102E800044FC80469DF80A000121FFF73EFC00EB60
:102E9000C00101EB001008EB8001504801839DF850
:102EA0000D000121FFF731FC80469DF80C00012147
:102EB000FFF72BFC00EBC00101EB001008EB8001D9
:102EC0004648418300BF00BF06F034F906F064F9BC
:102ED000FDF727FE00E000BFF2E0404890F8480010
:102EE0000128F9D13848C01E90F82B0098B11E2255
:102EF00035492B3108A806F081FD9DF822709DF818
:102F0000236000203049C91E81F82B0000212E4883
:102F1000C01E80F82C1026B1012E44D0022E41D1C3
:102F200060E0022F25D19DF82400542809D100200B
:102F30002749087005202749087001202849087092
:102F400030E09DF8240052282CD122480078062831
:102F50000BD103202049087007201E49087006F095
:102F60006CFA01201E4908701CE003201949087002
:102F700018E0032F16D19DF82400742812D10020E8
:102F8000134908709DF825001449087006F0D2F81E
:102F900003201049087006F010F9FDF702FD052026
:102FA0000C4908708BE09DF824000C49087006F06D
:102FB000C1F803200749087006F0FFF8FDF7F1FC9F
:102FC000FDF7AFFD7BE000008302002000380140E8
:102FD0002F0000200300002004000020F400002047
:102FE000480000209DF82400F94908700846007840
:102FF0008009F8494880F6480078C0F34011F54848
:103000008180F3480078C0F30011F2480182F04853
:10301000007800F00F01EF4841829DF82510818271
:103020009DF827009DF8261000EB012081B2E948A9
:10303000C1809DF829009DF8281000EB012081B285
:10304000E44801819DF82B009DF82A1000EB012037
:1030500081B2E04841819DF82D009DF82C1000EBD5
:10306000012081B2DB4881819DF82F009DF82E1050
:1030700000EB012081B2D748C1819DF831009DF855
:10308000301000EB012081B2D248C1829DF833009C
:103090009DF8321000EB012081B2CE4801839DF8EB
:1030A00035009DF8341000EB012081B2C9484183FE
:1030B00006F040F806F070F8FDF733FD00BF00BFE2
:1030C00010B0BDE8F08170B50020C3490870FDF76D
:1030D00028FD06F0E3F806F090F90020BF490870DB
:1030E0008AE0BF4890F82B0018B9BE4890F82B0032
:1030F00008B1FFF793FB0A2005F0AFFE0446662CEB
:103100006ED008DCA4F16100052873D2DFE800F07E
:1031100010142D475300E62C63D004DC672C61D0DB
:10312000682C67D154E0E72C5DD0E82C62D150E0E8
:103130000420AD4908705EE0AC480078A0B9A5480D
:103140000078401CA349087008460078082801DD73
:103150000020087006F031F8FDF723FC05F0EAFFC7
:1031600005F0BAFFFDF7DDFC45E0A0480078A8B9FE
:103170009848007828B197480078401E9549087013
:1031800002E008209349087006F017F8FDF709FCE3
:1031900005F0D0FF05F0A0FFFDF7C3FC2BE093483E
:1031A000007818B191480078401E00E00320C5B2B5
:1031B0008E4805701FE08D480078032803DA8B489D
:1031C0000078401C00E00020C5B28848057012E07D
:1031D00000BF0520844908700020854908700AE076
:1031E00000BF00BF00BF0020804908708049087000
:1031F00001E0FFE700BF00BF7B48007803283FF4F1
:1032000070AF70BD10B5FFF712F810BD10B513E028
:10321000002078490870784908707549087005F0F1
:10322000F1FF00214FF0804004F0F8F801206A49D6
:10323000087006206C4908706B4800780528E7D0B4
:1032400010BD10B5002005F0DDFF00214FF08040DB
:1032500004F0E4F86420FDF72CF806F069F810BDDE
:103260002DE9FC5F01205C4908705A48B0F80280E3
:103270008088C0B20090574880885549097860F32B
:103280004511534801705348408AC0B20190002054
:1032900005F0BFFFB8F1000F2ED10020574908708C
:1032A0004C48C08800EB80004FF6FF7101EA4005F2
:1032B00048488089012801D1022601E045488689D5
:1032C0002C460327F0204E49088040F6D8604D492F
:1032D00008809DF8000038B94B48008844433D48B9
:1032E000808BB4FBF0F4E9E0474840884443394818
:1032F000008CB4FBF0F4E1E0B8F1010F1DD14FF404
:10330000B4703F49088040F6D8603E4908800120EB
:103310003A49087000262F48808A00EB80004FF65B
:10332000FF7101EA40052C46052737488088444351
:103330002848808CB4FBF0F4C0E0B8F1030F6DD1E5
:103340002448808A00EB80004FF6FF7101EA4005B7
:1033500020488089012801D1022601E01D48868984
:103360002C461E480078A0B94FF4B4702449088058
:1033700040F6D860234908800120204908700527BD
:1033800000262148808844431248808CB4FBF0F426
:1033900094E0F0201A49088040F6D8601949088066
:1033A0000020164908700B48C08800EB80004FF6DB
:1033B000FF7101EA40052C4603279DF8000028BB59
:1033C0001148008844430348808BB4FBF0F475E057
:1033D00054000020F4000020040000202F000020F2
:1033E000800200201A0300200300002005000020B6
:1033F000000000201B0000201C0000202E000020E8
:10340000300000203200002034000020FE484088B8
:103410004443FE48008CB4FBF0F44FE0FC480078D5
:1034200070BBF020FB49088040F6D860FA4908805C
:10343000F6488089012801D1022601E0F3488689F7
:10344000F248C08800EB80004FF6FF7101EA4005AA
:103450002C4603270020F14908709DF8000038B978
:10346000E94800884443E948808BB4FBF0F425E048
:10347000E54840884443E548008CB4FBF0F41DE087
:103480004FF4B470E349088040F6D860E249088000
:103490000026DE48808A00EB80004FF6FF7101EACB
:1034A00040052C4605270120DC490870D648808855
:1034B0004443D648808CB4FBF0F400BFDFF84C9353
:1034C00009F11C094FF00B0BDFF854A34FF02C0B44
:1034D000002705E019F8010B0AF8010B781CC7B2A8
:1034E0005F45F7DB0020CF490860CF490880CF490E
:1034F0000860CF490880CF490870CF490880CF497C
:103500000880CF490870CF490880CF490880CF494B
:103510000870002708E00020CD4921F81700CD49A8
:1035200021F81700781CC7B2082FF4DBC6490C80BD
:10353000002E45D00120C2490870C3480488B4FB5E
:10354000F6F4BE490C800488B4FBF6F006FB104488
:10355000B9490C80B9480088012831DA0A20B849F5
:103560000870B948048804EB84004400B4FBF6F406
:10357000B2490C80B448048804EB84004400B4FBD6
:10358000F6F006FB1044AC490C80AC4800880128DA
:1035900016DA6420AA490870AB48048804EB84005A
:1035A0004400B4FBF6F4A5490C80A748048804EB5A
:1035B00084004400B4FBF6F006FB10449E490C80E6
:1035C000B8F1000F12D0B8F1010F06D0B8F1020F18
:1035D00054D0B8F1030F7CD126E005F065FF02203E
:1035E00005F09BFF02209C49087077E09DF80000E1
:1035F00048B105F059FF022005F08FFF9DF8040047
:1036000005F007FE0FE005F06BFF8048008A18B157
:10361000012005F082FF02E0002005F07EFF9DF80A
:10362000040005F0F6FD59E07948007840B905F04E
:103630003BFF022005F071FF0220874908701CE063
:103640009DF8000048B105F02FFF022005F065FF4E
:103650009DF8040005F0DDFD0FE005F041FF6B482B
:10366000008A18B1012005F058FF02E0002005F0A3
:1036700054FF9DF8040005F0CCFD2FE0644800786D
:10368000F0B99DF8000048B105F00EFF022005F0EA
:1036900044FF9DF8040005F0BCFD19E005F020FF93
:1036A0005A48008A18B1012005F037FF02E00020D7
:1036B00005F033FF9DF8040005F0ABFD08E008E0DD
:1036C00005F0F2FE022005F028FF02206249087092
:1036D00004E0072061490870BDE8FC9F00BF00209E
:1036E00005F090FD0121880703F098FE05F0A0FE8B
:1036F00000205B49087008460078FDF77EFB05F066
:103700007CFE05F0CBFD05F0FBFD08205549087057
:1037100002204870162008700220487000200870AF
:103720005148007800EB4000202101EBC0004D49DA
:103730004870002008704C48007800EB4000C00042
:1037400020304870B8F1000F09D0B8F1010F07D050
:10375000B8F1020F05D0B8F1030F04D102E000BFA9
:1037600002E001E000E000BF00BF00203D4908701A
:10377000FDF7CDF900BFAFE738B52A480068B0F5CE
:10378000805F03D340F6FF70264908602648008812
:10379000B0F5805F03DB40F6FF70234908803348B3
:1037A000008800287ED0012804D002287BD003287E
:1037B0007AD1CFE11A4840891A4A0090126893B230
:1037C000274A1278D21D164D05EB82025188244AF1
:1037D0001278D21D35F82200134A1288FEF75CFFDA
:1037E000044612490C6008460068B0F5617F42D972
:1037F000284640890B4A0090126893B22A46518DA0
:10380000108D094A128833E034000020F4000020B3
:103810002F00002030000020320000202E00002069
:10382000D60100200C0000201E0000201400002003
:10383000200000202200002024000020260000207C
:10384000280000202A0000202C0000200100002079
:10385000AC010020BC010020040000200300002077
:1038600006000020B20000201C000020CC01002037
:10387000FEF712FF0446FD480460FD48006800EBB7
:1038800080004400FB4800894443FA484089B4FB67
:10389000F0F40A20B4FBF0F100FB1140042800D939
:1038A0000A3402E00BE087E033E20A20B4FBF0F4D4
:1038B000A0B20A2190FBF1F0ED4908602AE2EE483F
:1038C000008800EB80004400EC488088C8BBEC48CE
:1038D0000078C01CE74931F820004443E8480078EC
:1038E000C01C01EB80004088B4FBF0F40A20B4FB5C
:1038F000F0F100FB1140042800D90A340A20B4FB7F
:10390000F0F4E049CC81DA48006800EB8000440024
:10391000D84800884443D7484088B4FBF0F40A20D4
:10392000B4FBF0F100FB1140042800D90A340A204E
:10393000B4FBF0F4A0B20A2190FBF1F0CC4908608E
:1039400039E0FFE7CE480078401DCA4931F8200031
:103950004443CB480078401D01EB80004088B4FB15
:10396000F0F40A20B4FBF0F100FB1140042800D968
:103970000A340A20B4FBF0F4C249CC81BC48006888
:1039800000EB80004400BB4880884443B948C088AD
:10399000B4FBF0F40A20B4FBF0F100FB1140042862
:1039A00000D90A340A20B4FBF0F4A0B20A2190FB3B
:1039B000F1F0AF490860ADE1B348007800287DD14F
:1039C000AD48008800EB80004400AC488088C8BB4C
:1039D000AB480078C01CA74931F820004443A848F0
:1039E0000078C01C01EB80004088B4FBF0F40A2092
:1039F000B4FBF0F100FB1140042800D90A340A207E
:103A0000B4FBF0F49F49CC819948006800EB80003A
:103A1000440098480088444396484088B4FBF0F43A
:103A20000A20B4FBF0F100FB1140042800D90A344D
:103A30000A20B4FBF0F4A0B20A2190FBF1F08C490B
:103A4000086086E0FFE78E480078401D894931F81C
:103A5000200044438A480078401D01EB80004088E4
:103A6000B4FBF0F40A20B4FBF0F100FB1140042891
:103A700000D90A340A20B4FBF0F48249CC817C4896
:103A8000006800EB800044007A488088444379480D
:103A9000C088B4FBF0F40A20B4FBF0F100FB114045
:103AA000042800D90A340A20B4FBF0F4A0B20A2199
:103AB00090FBF1F06E4908604BE0FFE76D484089EC
:103AC0006B4A0090126893B26D4A1278D21D694D0C
:103AD00005EB820251886A4A1278D21D35F822001D
:103AE000654A1288FEF7D8FD044660490C60084616
:103AF0000068B0F5617F0DD9284640895C4A009086
:103B0000126893B22A46518D108D5B4A1288FEF7D7
:103B1000C3FD0446554804605548006800EB80002A
:103B2000440054480089444352484089B4FBF0F4AF
:103B30000A20B4FBF0F100FB1140042800D90A343C
:103B40000A20B4FBF0F4A0B20A2190FBF1F048493E
:103B50000860DFE04C480078E8BB46484089444AAA
:103B60000090126893B2464A1278D21D414D05EB7F
:103B700082025188424A1278D21D35F822003E4A0C
:103B80001288FEF789FD044638490C600846006833
:103B9000B0F5617F0DD928464089354A00901268FA
:103BA00093B22A46518D108D334A1288FEF774FD68
:103BB00004462E4804602E48006800EB8000440054
:103BC0002C48008944432B484089B4FBF0F40A2078
:103BD000B4FBF0F100E00EE000FB1140042800D936
:103BE0000A340A20B4FBF0F4A0B20A2190FBF1F0F1
:103BF0001F4908608CE02048008800EB80004400EA
:103C00001E48808888BB1E480078C01C194931F8BE
:103C1000200044431A480078C01C01EB8000408813
:103C2000B4FBF0F40A20B4FBF0F100FB11400428CF
:103C300000D90A340A20B4FBF0F41249CC810C48B4
:103C4000006800EB800044000A48008844430948AB
:103C50004088B4FBF0F40A20B4FBF0F100FB114003
:103C6000042800D90A340A2010E018E014000020CB
:103C70000C000020D60100201E000020F4000020CF
:103C800006000020D80000202F000020B4FBF0F434
:103C9000A0B20A2190FBF1F0F749086038E0F7483C
:103CA0000078401DF64931F820004443F34800787D
:103CB000401D01EB80004088B4FBF0F40A20B4FB07
:103CC000F0F100FB1140042800D90A340A20B4FBAB
:103CD000F0F4EC49CC81E848006800EB8000440037
:103CE000E74880884443E648C088B4FBF0F40A20E3
:103CF000B4FBF0F100FB1140042800D90A340A207B
:103D0000B4FBF0F4A0B20A2190FBF1F0DA490860AC
:103D100000E000BF00BF38BD0CB5DB4800780828C4
:103D200004DAD9480078401CD74908700720019070
:103D30000EE09DF80400401ED44931F810009DF8B3
:103D4000042021F812009DF80400401EC0B201902A
:103D50009DF804000028ECDCC7480068CB490880C7
:103D600000200090C8480078019007E0C7489DF8FF
:103D7000041030F811000099084400909DF80400E8
:103D8000411EC9B201910028F0D1BF4909780098BD
:103D9000B0FBF1F00090009880B2B74908600720AE
:103DA00001900EE09DF80400401EB94931F8100062
:103DB0009DF8042021F812009DF80400401EC0B2B6
:103DC00001909DF804000028ECDCB2480088B0495E
:103DD000088000200090AC480078019007E0AC48D3
:103DE0009DF8041030F811000099084400909DF8E7
:103DF0000400411EC9B201910028F0D1A2490978FE
:103E00000098B0FBF1F00090A249009808800CBD2A
:103E10000EB500200190009002900EE005F002FA2D
:103E200001990844019005F003FA009908440090B4
:103E30009DF80800401CC0B202909DF808001028B0
:103E4000ECDB0198C0F30F108B4908600098C0F3B9
:103E50000F10904908800EBD2DE9F04F8BB04FF048
:103E6000000B0020049003900290019082468A4843
:103E700040888A4908800846008805287ED2DFE805
:103E800000F01703673898008548007820F0C000DC
:103E90004030834908708048C08A8049C8807E4885
:103EA000008B08817C48408B48800220099087E085
:103EB0007B48007820F0C000794908707648008976
:103EC0007649C8807448408908817348C089488011
:103ED00071488089012802D10220888003E06E4861
:103EE00080896E4988806C48808800900120099004
:103EF00066E06B48007820F0C000C0306849087068
:103F00006848007860B96448C08A6449C8806248DB
:103F1000008B08816048408B48800220099016E0A1
:103F2000012009905C4800895C49C8805A48408952
:103F300008815948C089488057488089012802D1A2
:103F40000220888003E0544880895449888037E003
:103F50005348007820F0C000803051490870514823
:103F60000078C8B9012009904B4800894B49C880A6
:103F70004948408908814848C08900E01AE04880E3
:103F800045488089012802D10220888010E04248FB
:103F90008089424988800BE0022009903E48C08A0F
:103FA0003E49C8803C48008B08813B48408B488094
:103FB00006E005E007203C4908700BB0BDE8F08F33
:103FC00000BFFFF74DF90020079008900690374991
:103FD00008602C490881364908809DF8240027494B
:103FE00008700978334A12781144C8B2FCF705FF0B
:103FF00001F054B900203049087030480078012899
:104000007ED100202D4908704FF0010BBDF8200033
:1040100042F20F71884204DABDF82000401C80B2E1
:10402000089027480078012852D19DF81C00401CB8
:10403000C0B207909DF81C0022490978884208DB2D
:10404000002007901A4800881F4909880844184929
:1040500008800C4800891149898888420BDB0020C0
:10406000084908811948008811490880022014492C
:104070000870012004909AE00C0000200600002047
:10408000D6010020D800002022000020AC01002032
:10409000BC0100201E000020F4000020CC01002004
:1040A000540000202F0000200300002010000020FA
:1040B0002A0000202E0000204A00002001000020DD
:1040C0000400002028000020260000202C000020F2
:1040D000FD480088FD490880FD484088002866DDCD
:1040E000FC480089FA494988884260DBF848008822
:1040F00080B1F7480088022804D1F748007800E032
:1041000072E038B1F248008803282AD1F2480078DA
:10411000012826D1F149C88805F055FE8046F04AAD
:10412000F04B05F06AFD04460D46EF48006805F0C7
:104130004AFE064622462B4605F092FE08D2012092
:1041400003900720E94908700320E94988702EE0B0
:104150000720E84908700420E44908700120049011
:1041600025E0DE49888A05F02EFE0646DC4ADD4B56
:1041700005F043FD04460D46DB48006805F023FECC
:10418000804622462B4605F06BFE08D201200390A4
:104190000720D64908700320D549887007E007201A
:1041A000D44908700420D149087001200490C74800
:1041B000008805F027F89DF81800401CC0B2069052
:1041C0009DF81800092190FBF1F201FB1200C0B22A
:1041D00006909DF81800052802DA04F0D8FC01E0EA
:1041E00004F0D1FCFCF7E4FAFFF712FEFFF794FDB0
:1041F000FFF7C2FAC0480088C0490988884204DD38
:1042000001200290002001900DE0BB480088BC49CD
:104210000988884204DA012001900020029002E01F
:104220000020029001904FF0000AB64800789DF8F7
:104230002410884209DA0198012806D1B148007893
:10424000401CB04908704FF0010AAE4800780028C1
:1042500009DD0298012806D1AA480078401EA94924
:1042600008704FF0010ABAF1010F1FD10020A649D2
:1042700008700A900AE00020A4499DF8282021F83F
:1042800012009DF82800401CC0B20A909DF828003A
:104290000828F0DB9B4909789D4A12781144C8B27E
:1042A000FCF7ABFD3220FCF704F8C4E08848008836
:1042B00030B1012824D002287CD0032879D138E0FD
:1042C00090480078012806D18248C0890A2190FBD5
:1042D000F1F08049C881BDF80000012803D140F207
:1042E0002620059002E04FF4966005907948C08939
:1042F0000599884203D948F29F607649C88199E0C0
:104300007D48008840B1834800688349884206D9C7
:1043100008468049086002E07F487E490860BAF19B
:10432000000F05D16B480089062801DB01200390AE
:1043300080E069480078C0B96F48008840B175488E
:1043400000687549884206D908467249086002E04B
:10435000714870490860BAF1000F28D15D480089A2
:10436000062824DB0120039021E06648007801281C
:1043700006D15848C0890A2190FBF1F05549C881FF
:104380004FF496600590BDF80000012803D140F27B
:104390002620059002E04FF4966005904D48C089B4
:1043A0000599884203D948F29F604A49C88141E093
:1043B00000E03EE04848007810BB524800780128F1
:1043C00006D14448C0890A2190FBF1F04149C881D7
:1043D0004FF496600590BDF80000012803D140F22B
:1043E0002620059002E04FF4966005903948C08978
:1043F000059988421CD948F29F603649C88117E068
:104400003D48008840B1434800684349884206D986
:1044100008464049086002E03F483E490860BAF15A
:10442000000F05D12B480089062801DB01200390ED
:1044300000E000BF00BF2D48007802286ED103982D
:104440000128FBD1BAF1000FF8D12148008830B122
:10445000012864D0022874D0032873D19BE01D4842
:10446000C08905901A48C0880599884220D21B4807
:10447000808850B90598B0F5966F03D90A201B497A
:10448000087002E006201949087014488088012845
:104490000BD141F288310598884203D90A2013498B
:1044A000087002E006201149087002201049887047
:1044B000074800890599884205D907200B490870EB
:1044C00003200B4988705DE12C0000202A000020A9
:1044D000CC010020D80000202F000020F400002094
:1044E0009A9999999999E93F0C00002004000020BD
:1044F0002A020020030000201E00002032000020BD
:10450000300000200600002022000020BC01002016
:104510002E000020140000209F86010033E1FE4899
:1045200000680590FD48007820B101280BD00228D2
:1045300015D10EE04FF47A710598B0FBF1F00590BB
:104540000EE0A3E01DE164210598B0FBF1F00590B9
:1045500006E00A210598B0FBF1F0059000E000BFED
:1045600000BFEF48C0880599884208D2EC48C0884F
:1045700028B10620EB4908700820EB498870E8480C
:1045800000890599884205D90720E6490870092065
:10459000E5498870F6E0E548007870BBDE480068C1
:1045A0000590DE48007820B1012809D0022813D1F7
:1045B0000CE04FF47A710598B0FBF1F005900CE037
:1045C00064210598B0FBF1F0059006E00A210598FA
:1045D000B0FBF1F0059000E000BF00BFD048C088FC
:1045E000059988420AD2CE48C08838B10620CD4904
:1045F00008700820CC49887003E012E00620CA4900
:104600008870C74800890599884206D90720C5499E
:1046100008700920C449887037E00620C2498870B4
:1046200033E0C348C0890590BD48C08805998842D9
:1046300020D2C048808850B90598B0F5966F03D94C
:104640000A20B849087002E00620B6490870B94847
:10465000808801280BD141F288310598884203D91E
:104660000A20B049087002E00620AE490870022016
:10467000B1498870AA4800890599884205D9072060
:10468000A84908700320AC4988707BE0A7480078EF
:10469000C0BBA748C0890590A148C0880599884239
:1046A00021D2A448808850B90598B0F5966F03D9F7
:1046B0000A209C49087002E006209A4908709D482B
:1046C000808801280BD141F288310598884203D9AE
:1046D0000A209449087002E00620924908700220DE
:1046E0009149887002E000208F4988708C480089C9
:1046F0000599884207D907208A49087003208A490A
:1047000088703DE003E000208749887038E08248E7
:10471000006805908148007820B1012809D002285E
:1047200013D10CE04FF47A710598B0FBF1F00590CD
:104730000CE064210598B0FBF1F0059006E00A2139
:104740000598B0FBF1F0059000E000BF00BF744891
:10475000C0880599884208D27148C08828B10620CF
:10476000704908700820744988706D48008905995F
:10477000884205D907206B49087009206E49887066
:1047800000E000BF00BF6748007806280FD06548EA
:10479000007807280BD063480078052807D06148C7
:1047A0000078082803D05F4800780A2809D1012042
:1047B000624908700720624908704FF0010B012020
:1047C0000490BBF1010F7DD14FF0000B00205D493B
:1047D0000870012048705248008830B1012872D01A
:1047E000022871D0032870D1ECE05248C0885649A5
:1047F000096888420DD94F48C08853490968401A52
:10480000022813D84B48C0884F4908600120039004
:104810000CE04848C0884C490968081A022805D8A5
:104820004448C08848490860012003904649096807
:1048300088B2012303220221FCF7C9F8434804F09F
:1048400070FC1421424805F0F2F841483F490968DC
:10485000016040A105F0F6F83B480068000A3249C3
:104860000871394800684871092036490870304994
:10487000C889002304220221FCF7A9F82C48C0892A
:10488000B0F57A7F0EDA3148407830490870084632
:10489000807848700846C078887008460079C870EB
:1048A0000020087129492A4805F0CCF81D480078F5
:1048B000082859D01B4800780A2855D0234804F00E
:1048C00030FC03E0FEE310E2F5E2FCE31F4805F0F4
:1048D00052FE044605F0F4FA1F4908601448C089E6
:1048E000B0F57A7F03DA1DA004F008FC02E01CA0FA
:1048F00004F004FC184800780B4988711648407889
:10490000C8711548807808721348C078487215A19C
:104910000F4805F097F84CE0140000200600002036
:10492000CC010020040000202A0200202F000020DB
:10493000D8000020F40000203E02002000000020EB
:1049400003000020B20000200C000020B400002072
:10495000020200206B563B0050000020206D4100F9
:104960006D4100006D413B00FE4800780A280BD1E4
:10497000FD48FEA10A6802600979017104F0D1FBCB
:10498000FCA004F0BBFB0EE0F648007808280AD132
:10499000F548F9490A6802600979017104F0C1FB20
:1049A000F4A004F0ABFBFF20F4498871C8710872D1
:1049B0004872F34800890012F0498872F048008973
:1049C000C87277E2EF480078F0BB0120EE4908702A
:1049D000EE48808AEE49096888420BD9EB48808A04
:1049E000EB490968401A02280FD8E848808AE8494C
:1049F00008600AE0E548808AE5490968081A022843
:104A000003D8E248808AE2490860E149096888B22F
:104A1000012303220221FBF7DAFFD34804F081FBD4
:104A20001421DC4805F003F8DA48CF490968016031
:104A3000AFF2E00105F006F8D5480068000ACF495A
:104A40000871D348006800E076E048710920D24937
:104A50000870D248006842F20F71884225D9D048C8
:104A60000078022810D1CD4800680A21B0FBF1F08F
:104A700084B2CC4ACA480078401C115C012305224C
:104A80002046FBF7A4FF1BE0C44800680A21B0FBE6
:104A9000F1F084B2C34AC2480078401C115C012383
:104AA00004222046FBF793FF0AE0BE4ABC4B1B786A
:104AB000D15CBA4A126890B201230422FBF787FF47
:104AC000B6480068B84988421CD0A74804F029FBC2
:104AD000A549B04804F0B6FFA34805F04CFD0446D4
:104AE00005F0EEF9B149086008460078A3498871DD
:104AF000AE484078C871AD4880780872AB48C0783D
:104B000048720CE0AAA004F00CFBA9A1A14804F093
:104B100099FFFF2099498871C87108724872A6A14F
:104B20009C4804F08FFF96480089001293498872D0
:104B300093480089C872D7E00220934908709348CF
:104B4000C0889349096888420DD99048C088904927
:104B50000968401A022813D88C48C0888C4908601C
:104B6000012003900CE08948C08889490968081A27
:104B7000022805D88548C08885490860012003902F
:104B80008349096888B2012303220221FBF71FFF32
:104B9000754804F0C6FA1421884804F048FF874895
:104BA000714909680160AFF2542104F04BFF784865
:104BB0000068000A82490871754800684871092038
:104BC000754908706E49C889012304220221FBF748
:104BD000FEFE6B48C089B0F57A7F0EDA62484078F5
:104BE000614908700846807848700846C078887027
:104BF00008460079C870002008715B496F4804F0CE
:104C000021FF5848007808282FD0564800780A28F5
:104C10002BD0554804F085FA534805F0ACFC044607
:104C200005F04EF9614908605548C089B0F57A7FB2
:104C300004DAAFF2D82004F061FA03E0AFF2E0202A
:104C400004F05CFA594800785D498871574840780B
:104C5000C8715648807808725448C0784872AFF2DC
:104C6000FC21564804F0EEFE2EE03E4800780A286B
:104C700010D13D483DA10A6802600979017104F034
:104C800050FA3CA004F03AFAAFF228314B4804F055
:104C9000D9FE13E03348007808280FD1324836494E
:104CA0000A6802600979017104F03BFA31A004F04E
:104CB00025FAAFF25031414804F0C4FEFF204049CC
:104CC0008871C87108724872274805F054FC044680
:104CD00005F0F6F83549086029480089001238497E
:104CE000887227480089C87295E22848808A284936
:104CF000096888420BD92548808A25490968401AE5
:104D000002280FD82148808A214908600AE01F48FC
:104D1000808A1F490968081A022803D81B48808A1C
:104D20001B4908601A49096888B20123032202213D
:104D3000FBF74DFE0C4804F0F4F914211F4804F071
:104D400076FE1E48084909680160AFF2F83104F0A8
:104D500079FE0F480068000A084908710C4800688D
:104D600048712FE004000020B40000204F464C2082
:104D70000000000020200000982B01082A020020DB
:104D8000D80000202F00002049000020F40000205F
:104D90000C00002016020020B200002014000020A9
:104DA0000600002031AF01089F860100500000205E
:104DB0003E393939390000004D3B00000202002025
:104DC0003E0200200920FE490870FE48006842F2B9
:104DD0000F71884225D9FC480078022810D1F94883
:104DE00000680A21B0FBF1F084B2F84AF648007876
:104DF000401C115C002305222046FBF7E8FD1BE068
:104E0000F04800680A21B0FBF1F084B2EF4AEE48A6
:104E10000078401C115C002304222046FBF7D7FDDC
:104E20000AE0EA4AE84B1B78D15CE64A126890B285
:104E300001230422FBF7CBFDE2480068E4498842E5
:104E40001CD0E44804F06DF9E249E34804F0FAFDAF
:104E5000E04805F090FB044605F032F8DF490860B1
:104E600008460078DE498871DC484078C871DB4824
:104E700080780872D948C07848720EE0AFF2D0004E
:104E800004F04FF9AFF2D801D34804F0DBFDFF2066
:104E9000D3498871C87108724872AFF2E401CE48F4
:104EA00004F0D0FDCF4800890012CD498872CD486A
:104EB0000089C872AFE1CC480078E8BB0120CB493B
:104EC0000870CB48C088CB49096888420DD9C848CA
:104ED000C088C8490968401A022813D8C448C08845
:104EE000C4490860012003900CE0C148C088C14952
:104EF0000968081A022805D8BD48C088BD4908605D
:104F000001200390BB49096888B2012303220221D2
:104F1000FBF75DFDAF4804F004F91421AE4804F03E
:104F200086FDAD48AB4909680160AFF2D85104F085
:104F300089FDB048006800E08CE0000AA8490871CB
:104F4000AC480068487109209D490870A549C88986
:104F5000012304220221FBF73AFDA248C089B0F5E3
:104F60007A7F0EDA9B4840789A4908700846807824
:104F700048700846C078887008460079C8700020DC
:104F800008719449944804F05DFDAFF2286192489D
:104F900004F058FD9848007808282AD096480078F0
:104FA0000A2826D08B4804F0BCF88A4805F0E3FABA
:104FB000044604F085FF894908608A48C089B0F535
:104FC0007A7F04DAAFF26C6004F098F803E0AFF295
:104FD000706004F093F881480078814988717F48B7
:104FE0004078C8717D48807808727C48C0784872E3
:104FF00027E0814800780A280DD17648AFF2942145
:105000000A6802600979017104F08BF8AFF29C2004
:1050100004F074F80FE07848007808280BD16D4848
:1050200076490A6802600979017104F07AF8AFF2F2
:10503000BC2004F063F8FF2069498871C8710872C8
:10504000487268480089001265498872654800897D
:10505000C872DEE00220654908706548808A6549AB
:10506000096888420BD96248808A62490968401AF7
:1050700002280FD85E48808A5E4908600AE05C48D2
:10508000808A5C490968081A022803D85848808A2F
:10509000584908605749096888B201230322022150
:1050A000FBF795FC4B4804F03CF81421544804F0FD
:1050B000BEFC5348474909680160AFF2687104F0CB
:1050C000C1FC01E0B8E0A5E04A480068000A4D498B
:1050D0000871484800684871092039490870394802
:1050E000006842F20F71884225D9374800780228BB
:1050F00010D1344800680A21B0FBF1F084B2334A81
:1051000031480078401C115C002305222046FBF743
:105110005EFC1BE02B4800680A21B0FBF1F084B272
:105120002A4A29480078401C115C002304222046AA
:10513000FBF74DFC0AE0254A234B1B78D15C214A42
:10514000126890B201230422FBF741FC1D4800685D
:105150001F4988421CD01F4803F0E3FF1D4928481F
:1051600004F070FC1B4805F006FA044604F0A8FEA3
:105170001A49086008460078224988711748407823
:10518000C8711648807808721448C07848720EE0DA
:10519000AFF2E43003F0C5FFAFF2EC31184804F091
:1051A00051FCFF2017498871C87108724872AFF22C
:1051B000F831134804F046FC0A480089001223E045
:1051C000B2000020140000200600002031AF0108CA
:1051D0009F860100B4000020020200205000002041
:1051E0002A020020D80000202F00002049000020C3
:1051F000F40000200C00002004000020982B01087F
:10520000160200203E020020FE498872FE480089F6
:10521000C87200E000BF00BF0A20FC4908700020EF
:105220004870F9490889002304220121FBF7CFFBCC
:10523000F74803F076FF00BFF64890F82B000128EE
:1052400001D1FDF7EBFA03F0FDFD0A909DF828006F
:10525000662814D008DC62280DD063280CD064289E
:105260000BD0652818D109E067280AD0E62807D0B6
:10527000E72811D106E010E00FE00EE00DE000BFDE
:1052800000BF00BF0320E44908700720E34908700D
:1052900004F0D3F8FEF791BE00BF00BFDF480078EE
:1052A00006283EF4A7AEDE480078401CDC490870B2
:1052B00004F0C3F800BFEDE710B55A20D9490870D3
:1052C000592048705A20CF49087059204870D64854
:1052D000008AD649097860F30411D4480170D24895
:1052E000408AD249097860F30301D0480170007800
:1052F000CC49C870CD480078C249C870CC48007805
:10530000002867D1CB48008870B9C34800780328CB
:1053100005D0042807D10020C249887003E001208D
:10532000C049887000BF55E0C248008801280ED1EE
:10533000B9480078032805D0042807D10620B949C8
:10534000887003E00720B749887000BF42E0B94881
:10535000008803281DD1B0480078032808D004280D
:1053600016D10620AF4988700020A64988700FE04A
:10537000AB480078012803D10720AA49887006E0CD
:10538000A7480078022802D101209E49887000BFFA
:1053900020E0A848008802281CD19F4800780328F4
:1053A00008D0042815D100209E4988700620954910
:1053B00088700EE09A480078012802D199498870D7
:1053C00006E097480078022802D107208D498870AE
:1053D00000BF00BF9648007820B39648008810BBF5
:1053E0008D480078C01E06281CD2DFE800F00F03AD
:1053F00013070B1700208B49887013E0022089499E
:1054000088700FE00320874988700BE001208549F0
:10541000887007E004208349887003E005208149F3
:10542000887000BF1FE08348008801281BD17A489C
:105430000078032812D0042804D0062806D00728B4
:1054400010D107E00620774988700BE008207549E5
:10545000887007E009207349887003E007207149CC
:10546000887000BF00BF00240DE06E48015D7248E7
:1054700002F0EEFB00BF80216F4802F057FC0028CD
:10548000F9D0601CC4B20C2CEFDB6A4800880328FA
:1054900003D068480088022811D100240DE0594843
:1054A000015D654802F0D4FB00BF8021624802F034
:1054B0003DFC0028F9D0601CC4B20C2CEFDB10BD01
:1054C0002DE9F041002758484088C5B2FDF7B9FEE4
:1054D00051480078032827D0052D1FD2DFE805F0BA
:1054E000040309081D0000BF08204C4908701AE099
:1054F00000BF4B48007801280BD1474800780428AA
:1055000003D106204549087006E008204349087089
:1055100002E008204149087005E004E007203F4907
:105520000870BDE8F0812CE0052D1CD2DFE805F005
:10553000040306051A001AE019E018E0384800785C
:1055400001280BD134480078042803D106203349C0
:10555000087006E008203149087002E008202F4951
:10556000087004E003E007202C490870D9E700BF69
:1055700032480078012804D1FFF79EFE00202F4911
:1055800008700020214908704870FBF7C0FA04F049
:105590006AF821480078032807D108201B490870C1
:1055A0000220487048F29F640CE025480078401CB7
:1055B0002349087023480078032803DB0820174993
:1055C0000870AEE786E08FB100270E200F49087003
:1055D000042048700123042219462046FBF7F7F9FE
:1055E0000B4803F08BFD732003F07AFD0120FAF7DE
:1055F0007FFE58B30848007803282FD01248844211
:105600002CD024E03E020020D8000020B200002070
:10561000B4000020800200200400002003000020CD
:105620002F0000202A020020F40000205400002057
:1056300000000020CC01002000380140480000207C
:105640001C0000201B0000209F86010006E00127AF
:105650000A210120FAF749FE601E84B2012C02DA09
:10566000062068490870684890F82B00012801D18D
:10567000FDF7D4F8052003F0F0FB0646672E0CD0AA
:1056800004DC642E07D0652E22D105E0682E18D0E8
:10569000E72E1DD102E01CE01BE000BF5B48007854
:1056A00003280AD05A48844203D103205549087080
:1056B00006E003205549087002E0032051490870B4
:1056C00007E000205349087006204E49087000E0AA
:1056D00000BF00BF4B48007807283FF474AF00BFFD
:1056E0001FE770B5012503F023FE4B480078012821
:1056F00004D1FFF7E1FD0020474908704BE0012D80
:1057000019D10025162045490870022048704448E8
:10571000007830B103F092FD03F06FFE03F0D7FD87
:1057200009E003F0A7FF39480078042803D103F00B
:10573000B5FD03F047FE344890F82B00012801D155
:10574000FDF76CF8022003F088FB0446672C19D0A3
:1057500006DC642C0BD0652C0AD0662C19D10FE026
:10576000682C06D0E62C0CD0E72C12D10BE011E00F
:1057700010E000202749087005202249087009E040
:1057800000BF07E000BF03201E49087003F06EFD54
:1057900000E000BF00BF1B4800780828AFD0002001
:1057A0001F49087070BD10B506E003F0CFFE03F08E
:1057B00015FD032013490870124800780128F4D021
:1057C00010BD10B518E00A20144908700220487076
:1057D0000420087032204870002406E003F04AFFDD
:1057E0000320FAF766FD601CC4B20A2CF6DB012028
:1057F0000449087003F0D2FE024800780028E2D085
:1058000010BD0000030000208002002004000020E2
:105810009F8601002F00002048000020B2000020D9
:10582000000000202DE9F04107460D4616461C46B3
:105830000121084601F051F8384602F0BFFD124838
:1058400004801248056046601020104988600846B0
:10585000C460002008618020486100208861C86120
:10586000202008624FF44050486200208862384689
:1058700002F046FEBDE8F08110B504460121204645
:1058800002F069FE10BD0000560000205402002006
:1058900070B504460020FD49087048700B20B4FB29
:1058A000F0F100FB114000EB0010F94945182846C3
:1058B00003F037FC0920F54908700020487003F018
:1058C0008AFB0020F149087001204870F14803F07C
:1058D00028FC70BD2DE9FF5F04464FF0000A03F07D
:1058E000FBFBED4830F825000190EB4800EB85000C
:1058F000408800900B25E94FDFF8A483A8000390AF
:10590000002505E017F8010B08F8010B681CC5B26B
:105910009DF80C008542F5DB0020E2490860E24971
:105920000880E2490860E2490870E249087003F023
:1059300064FD03F0B3FC03F0E3FC03F094FE0026E7
:105940000220DD4908700A210120FAF7CEFC01206F
:10595000CE49487002200870D84803F0E2FB0020CE
:10596000CA494870087004EB0411D54A881803F03E
:10597000D8FB002003F046FC0B2C6CD2DFE804F0CF
:105980000616263637475758595A5B0003F0A8FDCC
:10599000002003F0C2FD0121880701F03FFD03F064
:1059A00047FDC849088803F02DFC58E003F07CFD52
:1059B000022003F0B2FD0121880701F02FFD03F062
:1059C00037FDC049488803F01DFC48E003F06CFD3A
:1059D000022003F0A2FD0121880701F01FFD03F062
:1059E00027FDB849888803F00DFC38E000BF03F0BC
:1059F00077FD002003F091FD0121880701F00EFDE5
:105A000003F016FDAF49888803F0FCFB27E003F0A4
:105A10004BFD022003F081FD0121880701F0FEFC0F
:105A200003F006FD4FF4B47003F0ECFB17E000BF89
:105A300000BF00BF00BF03F037FD022003F06DFD83
:105A40000121880701F0EAFC03F0F2FC9D498888F7
:105A500003F0D8FB03E0002003F0D4FB00BF00BF3D
:105A6000A0E10120FAF744FC28B101209149087017
:105A70000A21FAF73AFC8F480078012817D1002054
:105A80008C4908704FF0010A09F1010000F0FF098C
:105A9000092099FBF0F100FB119000F0FF09B9F12A
:105AA000050F02DA03F02CFC01E003F041FC03F0E7
:105AB000BFFB8549C88103F0B5FB834908601CB171
:105AC000012C01D0022C06D17F480068744901EBFB
:105AD000840148804DE0032C0DD0062C0BD0042C03
