:020000040800F2
:100000003007002045010008F902000849050008F2
:100010004D050008510500085505000800000000C6
:10002000000000000000000000000000590500086A
:100030005B050008000000005D0500085F05000882
:100040005F0100085F0100085F0100085F01000810
:100050005F0100085F010008E905000809060008C3
:10006000290600086D0600085F0100085F0100080E
:100070005F0100085F0100085F0100085F010008E0
:100080005F0100085F0100085F0100085F010008D0
:100090005F0100085F0100085F010008E705000834
:1000A0005F0100085F0100085F0100085F010008B0
:1000B0005F010008610500085F0100085F0100089A
:1000C0005F0100085F0100085F0100085F01000890
:1000D0005F010008FB0200085F0100085F010008E3
:1000E0005F0100085F0100085F0100085F01000870
:1000F0005F0100085F0100085F0100085F01000860
:100100005F0100085F0100085F0100085F0100084F
:100110005F0100085F0100085F0100085F0100083F
:100120005F0100085F0100085F0100085F0100082F
:10013000DFF80CD009F08AFC00480047890100086C
:10014000300700200648804706480047FEE7FEE7E4
:10015000FEE7FEE7FEE7FEE7FEE7FEE7FEE7FEE777
:100160004F8000083101000870B504460D46E1B229
:10017000234807F01DFA00BF8021214807F086FAC6
:100180000028F9D0204670BD02201E49087036E0D4
:100190001C4800780A282CD2DFE800F02B2805083C
:1001A0000D121A1D202302F013FA27E008F044FC78
:1001B00002F00CFE22E008F03FFC02F0B2FE1DE06F
:1001C00008F03AFC00201049087002F0AEFE15E07D
:1001D00003F089FC12E004F049FE0FE004F02DFF6B
:1001E0000CE008F029FC05F046FC07E004F0A1FF54
:1001F00004E008F021FC04F0AAFF00BF00BFC7E73D
:1002000000380140030000200200002010B505F076
:10021000B3FE4FF4803005F0CFFE05F00CFF01284F
:1002200020D1002005F04DFF002005F05CFF4FF4C9
:10023000806005F04FFF4FF4E0114FF4803005F07F
:1002400023FF012005F02CFF00BF392005F0D7FE69
:100250000028FAD0022005F026FF00BF05F02CFF91
:100260000828FBD110BD00E0401E0028FCD17047DB
:10027000014601EBC1024FF0E0235A6100229A616E
:1002800001221A6100BF4FF0E022106900F0010264
:100290001AB100F48032002AF5D000224FF0E0239A
:1002A0001A619A617047014642F228324A434FF080
:1002B000E0235A6100229A6101221A6100BF4FF0C7
:1002C000E022106900F001021AB100F48032002A25
:1002D000F5D000224FF0E0231A619A617047054A79
:1002E0001154704701460348405C08B9012070472B
:1002F0000020FCE719000020704710B540F225519E
:10030000E64807F0D9F9002873D02021E34807F028
:10031000CAF9E34890F84800002846D1E148007E39
:1003200000280FD10621DF4880F83910DB4807F09C
:1003300043F9C4B2AA2C10D1DA48407E18B100218A
:10034000D84841768FE0D748417E407E401CC2B2FB
:10035000D44842761B30445485E0BB2C13D1D1489D
:10036000417E407E401CC2B2CE4842761B3044548F
:100370000120CC4908760846417E817600214176ED
:1003800080F839106FE0C748407E1E2803DB00214B
:10039000C448417667E0C348417E407E401CC2B2FB
:1003A000C04842761B3044545DE0BD4890F8480098
:1003B000012858D1BB48007E002854D10621B948F5
:1003C00080F83910B54807F0F7F8C4B2B548407E58
:1003D00080B9112C03D00021B248417643E0B148E6
:1003E000417E407E401CC2B2AE4842761B3044542F
:1003F00039E04CE0AB48407E01280FD1082C03D0F7
:100400000021A84841762EE0A648417E407E401C4F
:10041000C2B2A44842761B30445424E0A148407E36
:100420001E2803DB00219F4841761CE09D48417E49
:10043000407E401CC2B29B4842761B3044541B385D
:10044000407E02280FDD9748417E407FC01C8142DC
:1004500009D10120934908760846417E8176002122
:10046000417680F839109048007E00285DD1062141
:100470008C4880F83910894807F09EF8C4B2FF2CE8
:1004800010D18948407E18B10021874841764CE060
:100490008548417E407E401CC2B2834842761B3074
:1004A000445442E0EE2C11D17F48407E012803D015
:1004B00000217D48417638E07B48417E407E401CEB
:1004C000C2B2794842761B3044542EE0DD2C1BD159
:1004D0007548407E042803D000217348417624E00B
:1004E0007148417E407E401CC2B26F4842761B304C
:1004F000445401206C4908760846417E81760021EB
:10050000417680F8391010E06748407E1E2803DBF2
:1005100000216548417608E06348417E407E401CEA
:10052000C2B2614842761B3044544FF458715B4864
:1005300007F0C2F838B10821584807F0B4F8574816
:1005400007F03AF8C4B210BD00BFFEE700BFFEE7F7
:1005500000BFFEE700BFFEE7704770477047704777
:1005600010B50121514806F0E3FE08F038F9504873
:10057000007806281DD14F480078401C4D4908706E
:100580000846007809281ADD0020087001204A4931
:1005900008704A480089401C48490881484800685A
:1005A000401C4749086047480068401C45490860AE
:1005B00005E04048007810B100203E490870002452
:1005C00009E04148005D20B13F48005D401E3E49C2
:1005D0000855601CC4B2022CF3DB3C48007808B913
:1005E00008F0A7FC10BD704710B50121384805F090
:1005F00008FC28B92A48408A10B1052035490870FE
:10060000012005F082FF10BD10B50120FFF74BFE61
:1006100002212F4805F0F5FB10B908202D4908707C
:10062000022005F072FF10BD10B50520FFF73BFE5C
:100630000421274805F0E5FBA0B91D4800780328F0
:1006400007D01B480078072803D0194800780828ED
:1006500006D105201649087000201F49087001E0E6
:1006600013480078042005F050FF10BD10B501209C
:10067000FFF719FE0821164805F0C3FB50B90C48D6
:100680000078062803D107200949087002E00320FA
:1006900007490870082005F038FF10BD00380140F8
:1006A000F00000207C020020F00200200004004046
:1006B000030000203C00002001000020D4000020A6
:1006C000A4000020100000201900002000000020DD
:1006D00000140140040000202F00002010B500206D
:1006E000FE490870487008F026F9FD484088E8B1D6
:1006F000012804D002287DD003286ED13AE0F948C1
:1007000008F0ACF90620F549087001204870F6A001
:1007100008F0B7F90E20F149087001204870F3A0E5
:1007200008F0AFF9F42008F049F9A2E0F0480078A9
:10073000012803D1EF4808F091F903E0ED48C01D0E
:1007400008F08CF90620E549087001204870E4485B
:10075000808818B1E4A008F094F902E0E6A008F05F
:1007600090F90E20DD49087001204870E3A008F0E0
:1007700088F97EE0E2480078B0B9DA4808F06EF90E
:100780000620D649087001204870D7A008F079F9F2
:100790000E20D249087001204870D4A008F071F9E9
:1007A000F42008F00BF924E0D1480078012803D1A7
:1007B000D04808F053F903E0CE48C01D08F04EF9C8
:1007C0000620C649087001204870C548808828B1B5
:1007D000C5A008F056F904E00CE049E0C6A008F016
:1007E00050F90E20BD49087001204870C3A008F0E0
:1007F00048F93EE0C248007818BBBD48007801289F
:1008000003D1BC4808F02AF903E0BA48C01D08F03B
:1008100025F90620B149087001204870B048808849
:1008200018B1B1A008F02DF902E0B3A008F029F941
:100830000E20AA49087001204870B0A008F021F9E4
:1008400015E0A84808F00AF90620A449087001201C
:100850004870A5A008F015F90E20A04908700120E5
:100860004870A2A008F00DF9F42008F0A7F800E005
:1008700000BF00BF072099490870002048709BA066
:1008800008F0FFF8964909783131C8B208F0D8F875
:100890000F209249087000204870732008F0D6F8A5
:1008A00004208E4908700120487096A008F0E9F8ED
:1008B00010BD8B484A2102E000220270401C0A1E33
:1008C000A1F1010399B2F7D18F4B1A707047002044
:1008D00010E0834A921C02EB40010A888B4B33F8EC
:1008E00020309A4204DD894A02EB800252880A8055
:1008F000421CD0B20D28ECDB7047F0B504461D4613
:10090000052A00DD052202B90122042900DD0421A7
:10091000914200DD1146002004E020267C4F3E5429
:10092000461CF0B20828F8D3104611E00A2694FBC2
:10093000F6F706FB17463036F7B2461EDFF8D0C191
:100940000CF806700A2694FBF6F6B4B2461EF0B216
:100950000028EBDC81B11346084605E05E1E6C4FB3
:10096000BE5DFE545E1EF3B2061EA0F10107F8B292
:10097000F4D12E26664FFE54A5B900200EE0644E39
:10098000365C302E07D1624F461CBE5D2E2E02D043
:1009900020263E5400E004E0461CF0B2561E86427B
:1009A000EDDC00BF09B1561CF2B2104604E000268F
:1009B000574F3E54461CF0B20828F8D3F0BD10B58E
:1009C000474890F8480018B9524808F047F807E03F
:1009D000434890F84800012802D14F4808F03EF8FB
:1009E00010BD10B53E4890F8480020B94948153070
:1009F00008F034F808E03A4890F84800012803D19C
:100A00004548153008F02AF810BD10B543A008F08D
:100A100025F810BD10B5002030490870487007F067
:100A20008AFFFFF7CCFF00202C4908700120487096
:100A300007F081FFFFF7D5FF10BD10B52C490978ED
:100A4000C1EBC101384A881808F01BF810BD10B579
:100A500023484088032802DD0020214948800020E7
:100A60001E490870487007F066FF1D49498801EB70
:100A700041012E4A02EB410008F003F80720174914
:100A800008700020487016490978481C01231A464E
:100A90000021FFF732FF15A007F0F3FF1C4807F015
:100AA000DDFF0F484088012803DD21A007F0D6FFB5
:100AB00002E020A007F0D2FF0A2008490870084889
:100AC0004088032803D006484088012837D10449CC
:100AD000488B0023042201212EE00000AE000020FC
:100AE000F00000200BA00008444300004D0000006F
:100AF0000400002019A00008414300006D410000DF
:100B00002F0000206B56000002000020BCA6000849
:100B1000B0000020CEA7000865A70008536570202C
:100B2000323320323032300026A700088DA0000872
:100B30005F00000020000000FFF7DFFE06E0F9493B
:100B4000C889002304220121FFF7D7FEF64807F0E9
:100B500098FFF6A007F082FF0020F54908700120F9
:100B60004870F048808840B9EE48C088B0F5167FDC
:100B700003DD4FF41671EB48C180EA484088032832
:100B800003D0E848408801280AD1E649888A002332
:100B900003220221FFF7B1FE0121E248818006E035
:100BA000E049C888002303220221FFF7A6FEDE48A1
:100BB00007F067FFAFF2B40007F050FF1421DD48E3
:100BC00008F0E5FBDB48D84909680160DAA108F0C4
:100BD000E9FBD448808840B9D2484088032804D033
:100BE000AFF2EC0007F03AFF03E0AFF2041007F0B9
:100BF00035FFCC484088032803D0CA4840880128E4
:100C00001CD10A20CA490870C649C88A0023042298
:100C10001946FFF772FEC44807F033FFAFF23410F5
:100C200007F01CFFF42007F0C9FEBF49C14808F0D7
:100C3000B9FBC2A1BF4808F0B5FB18E00920BC49C8
:100C40000870B8490889002304220221FFF755FEE5
:100C5000B54807F016FFAFF25C1007F0FFFEB2498F
:100C6000B44808F09FFBB7A1B24808F09BFB10BD49
:100C700070B50546B448047804F03F0475B1012D01
:100C800009D0022D04D0032D09D144F0C00409E09D
:100C900044F0800406E044F0400403E002E044F045
:100CA000C00400BF00BFA84804700020A749086026
:100CB000A5480078C0430006A349097840EA01200E
:100CC000A34908600120A349C1F890016420FFF7FF
:100CD000EAFA70BD70B50446002095490870487066
:100CE000254604EBD5714910A4EB4101C1EBC101CC
:100CF00001EB4101984A881807F0C3FE00208C4997
:100D0000087001204870954807F0BBFE70BDF8B52B
:100D100004460127864800788DF800008448407812
:100D20008DF80100206808F049FBC6B2701CC6B2FD
:100D3000082E00DD082652E067B19DF800007C49CE
:100D400008709DF801004870A288216806FB021017
:100D500007F097FE0A2007F030FD0546E12D15D07B
:100D600009DCA5F16100082837D2DFE800F00E2089
:100D70001136362E3331A5F1E20007282DD2DFE8F7
:100D800000F017082C2C252A280000BF6120F8BD90
:100D900000BF0127A0886189884203DDA088401E2A
:100DA000A08003E06089A08008F014F916E000BF7D
:100DB0000127A088401CA080A0882189884203DDEB
:100DC0002089A08008F006F908E000BF6620DEE771
:100DD00000BF00BF00BF6720D9E700BF00BFABE77F
:100DE00010B50446002052490870487004EB840195
:100DF00001EBC4015A4A881807F043FE00204C4911
:100E0000087001204870574807F03BFE10BD10B530
:100E100004460A2094FBF0F100FB1140C4B234B147
:100E2000012C11D0022C19D0032C31D123E03E48E3
:100E300007F027FE202007F003FE562007F000FEF3
:100E4000202007F0FDFD24E0374807F01AFE20209F
:100E500007F0F6FD732007F0F3FD1AE0324807F0C3
:100E600010FE202007F0ECFD4D2007F0E9FDF420F6
:100E700007F0E6FD0DE02C4807F003FE202007F008
:100E8000DFFD4D2007F0DCFDF42007F0D9FD00E088
:100E900000BF00BF10BD10B50446002024490870F3
:100EA00048700E2C13D2DFE804F007131FA5A6A785
:100EB000A8A9AAABF0F1F2F32BA007F0E2FD002005
:100EC0001B490870012048702CA007F0DAFDFFE0F4
:100ED0002EA007F0D6FD00201549087001204870AB
:100EE0002E4807F0CEFDF3E00E484088C8B1012837
:100EF00004D0022858D0032879D154E0A11E284AF2
:100F000002EB011007F0BDFD002009490870012027
:100F10004870611E01EB0111204A881807F0B1FDED
:100F200066E03FE0F0000020B00000207300000009
:100F3000AE000020FE0100206B563B004DA6B83BE2
:100F4000000000006D413B00A10000209081224282
:100F50001014014000802242DAA400082EA50008E7
:100F6000ACA5000897A500084D656D6F72793D200E
:100F700020202020202020200000000052616E67E9
:100F8000653A312D392020202020200054657374CB
:100F900020203D202020202020202000A5A0000887
:100FA00027A0000800BF00BF0020FB490870487060
:100FB000A11EFA4A02EB011007F063FD0020F6497A
:100FC000087001204870F648808840B9A11E01EBE6
:100FD0000111F44A881807F054FD07E007E0A11E4C
:100FE00001EB0111F04A881807F04BFD00E000BF4B
:100FF00000BF6DE000BF00BF00BF00BF00BF00BF6B
:10100000E7484088C8B1012804D0022817D0032837
:1010100034D113E0A11EE54A02EB011007F031FDC7
:101020000020DD49087001204870611E01EB0111AC
:10103000DF4A881807F025FD21E000BF00BFA11E90
:1010400001EB0111DB4A881807F01BFD0020D24993
:10105000087001204870D248808838B9611E01EBC1
:101060000111D04A881807F00CFD06E0611E01EB63
:101070000111CD4A881807F004FD00E000BF00BF51
:1010800026E005E003E001E0FFE700BF00BF00BF8E
:10109000A11E01EB0111C74A881807F0F2FC0C2CC5
:1010A00001D00B2C07D10E20BB49087000204870DE
:1010B000F42007F0CBFC0020B749087001204870ED
:1010C000611E01EB0111BC4A881807F0DAFC00BF71
:1010D00000BF10BD2DE9F84304464FF00109AE48AA
:1010E00000788DF80000AC4840788DF801000027AA
:1010F000A07908B9032600E004268AE1B9F1000FBF
:1011000010D09DF80000A44908709DF801004870B7
:10111000A389DAB2A179A0880023FFF7EEFBA748E4
:1011200007F0AFFC0A2007F048FB8046B8F1E10F5A
:1011300015D009DCA8F16100082872D2DFE800F0C0
:101140000E9C127171FAF9F8A8F1E2000728F4D2A6
:10115000DFE800F0D13F6767F3F2F10000BF6120E4
:10116000BDE8F8834FF00109002795488079C0F168
:101170000300B04202DA701EC5B200E03546914865
:1011800030F8150061890844A188884206DCA088EF
:101190008C4931F81510401AA08019E060890528A3
:1011A00002D06089062813D16089062806D1A0885C
:1011B00010B10020A08001E007F00CFF6089052835
:1011C00006D1A08810B10020A08001E007F002FF46
:1011D0001EE14FF00109781CC7B279488079C0F14F
:1011E0000300B04202DA701EC5B200E035461C2F83
:1011F0000CDD002D01DD681EC5B2002D01DD681E6D
:10120000C5B2002D14DD681EC5B211E0132F09DD33
:10121000002D01DD681EC5B2002D09DD681EC5B2B6
:1012200006E0EFE00A2F03DD002D01DD681EC5B2E8
:10123000644830F8150061890844A188884206DCBA
:10124000A088604931F81510401AA08013E0608929
:10125000062806D1A08810B10020A08001E007F088
:10126000B9FE6089052806D1A08810B10020A080B1
:1012700001E007F0AFFECBE04FF001090027504836
:101280008079C0F10300B04202DA701EC5B200E0FE
:1012900035466089062802D0608905281CD16089FE
:1012A00006280AD1A08810B90620A08005E0A088F1
:1012B000444931F815100844A0806089052819D1E7
:1012C000A08810B90520A08014E0A0883D4931F81D
:1012D00015100844A0800DE0A0883A4931F8151097
:1012E0000844A080A0882189884203DD2089A0804D
:1012F00007F070FE8CE04FF00109781CC7B230484F
:101300008079C0F10300B04202DA701EC5B200E07D
:1013100035461C2F12DD002D01DD681EC5B2002DE3
:1013200001DD681EC5B2002D19DD681EC5B216E0CC
:1013300063E064E05EE061E062E05CE0132F08DD02
:10134000002D01DD681EC5B2002D08DD681EC5B286
:1013500005E00A2F03DD002D01DD681EC5B260899E
:10136000062802D06089052835D1608906280AD16F
:10137000A08810B90620A08005E0A088114931F8A6
:1013800015100844A0806089052832D1A088D8B9FA
:101390000520A0802DE00000AE000020FAA000088B
:1013A000F00000207AA10008BCA3000827A00008D4
:1013B000A5A0000813A20008DFA20008B0000020CA
:1013C000C4000020E89F0008A088FD4931F81510EE
:1013D0000844A0800DE0A088F94931F815100844B0
:1013E000A080A0882189884203DD2089A08007F0A1
:1013F000F1FD0DE000BF6620B2E600BF08E000BFCF
:101400006720ADE6EF488078012800D0002700BFB4
:1014100000BF73E62DE9F041002500260027EA48C9
:10142000C08940F6D861884211DD012500BF002443
:1014300005E00020E54941F82400601CC4B20C2CF2
:10144000F7DB0020E2490870E249088009E0DE4845
:10145000C089B0F5B47F02DA0126002501E000253D
:1014600000260027DC480078002816DD012D14D165
:10147000D9480078401ED84908700127002405E0AB
:101480000020D24941F82400601CC4B20C2CF7DBC8
:101490000020CF490870CF490880CF480078042841
:1014A00016DA012E14D1CC480078401CCA490870C5
:1014B0000127002405E00020C44941F82400601CF5
:1014C000C4B20C2CF7DB0020C1490870C149088068
:1014D000012F06D1C0480078FFF7CAFB3220FEF783
:1014E000E2FEBDE8F08101B590B00021109808F04F
:1014F000A7F910D2109808F043F90022B74BCDE9B4
:10150000060108F02AF8CDE9080108F07DF91090ED
:101510000120B3490870109808F032F9B14AB24B73
:10152000CDE9080108F040F901D211B000BD1098D2
:1015300008F026F9AD4AAE4BCDE9080108F04CF9A8
:1015400058D2109808F01CF9A84AA94BCDE9060119
:1015500008F075F8CDE9080108F056F90E90A54895
:101560000D9000200B9026200A903FE0DDE90D1041
:1015700007F0B5FF4FF07E51099008F061F90ED2E7
:101580000D9808F0FDF800229B4BCDE9060108F00C
:1015900056F8CDE9080108F037F90D9000E028E091
:1015A0000D9808F0EDF8954A954BCDE9020107F04A
:1015B000D4FFCDE90601109808F0E2F8CDE9040166
:1015C000DDE9062308F03BF8CDE9080108F0BFF893
:1015D0000C9083490C9848600A9808720B98401C3C
:1015E00040B20B900A98401E40B20A900B98042813
:1015F000BCDB19E2109808F0C3F8824A824BCDE9AF
:10160000080108F0E9F858D2109808F0B9F87D4AB6
:101610007D4BCDE9060108F012F8CDE9080108F08C
:10162000F3F80E9079480D9000200B9023200A903B
:101630003FE0DDE90D1007F052FF4FF07E510990B9
:1016400008F0FEF80ED20D9808F09AF800226A4BC6
:10165000CDE9060107F0F3FFCDE9080108F0D4F861
:101660000D9000E028E00D9808F08AF8684A694B70
:10167000CDE9020107F071FFCDE90601109808F0ED
:101680007FF8CDE90401DDE9062307F0D8FFCDE9B5
:10169000080108F05CF80C9051490C9848600A98D1
:1016A00008720B98401C40B20B900A98401E40B242
:1016B0000A900B980828BCDB9BE7109808F060F8AC
:1016C000554A564BCDE9080108F086F858D21098D3
:1016D00008F056F8504A514BCDE9060107F0AFFF2C
:1016E000CDE9080108F090F80E9048480D900020D0
:1016F0000B901C200A903FE0DDE90D1007F0EFFE93
:101700004FF07E51099008F09BF80ED20D9808F02A
:1017100037F80022384BCDE9060107F090FFCDE9FC
:10172000080108F071F80D9000E028E00D9808F02D
:1017300027F83B4A3B4BCDE9020107F00EFFCDE90C
:101740000601109808F01CF8CDE90401DDE9062334
:1017500007F075FFCDE9080107F0F9FF0C9020496B
:101760000C9848600A9808720B98401C40B20B9085
:101770000A98401E40B20A900B980828BCDBE4E3AC
:10178000109807F0FDFF284A284BCDE9080108F022
:1017900023F87CD2109807F0F3FF234A234BCDE9BE
:1017A000060107F04CFFCDE9080108F02DF80E9076
:1017B00016480D9000200B9015200A907AE000004A
:1017C000E89F0008A8000020D40000207801002035
:1017D0000700002008000020060000200000F0BFE5
:1017E000E4000020ECCFC55FFFFF0F38824DC772C9
:1017F0006142334700007A440000244021D7E6FAD2
:10180000E031F44581121F2FE727C0458096184B21
:1018100092D54D06CFF0804450EFE2D6E41A4B4407
:1018200000003426F56B0C430000901EC4BCD64269
:10183000DDE90D1007F053FE4FF07E51099007F0DF
:10184000FFFF0ED20D9807F09BFF0022F84BCDE969
:10185000060107F0F4FECDE9080107F0D5FF0D9071
:1018600000E02AE00D9807F08BFF0022F14BCDE954
:10187000020107F072FECDE90601109807F080FF23
:10188000CDE90401DDE9062307F0D9FE00E015E00B
:10189000CDE9080107F05BFF0C90E7490C98486020
:1018A0000A9808720B98401C40B20B900A98401E90
:1018B00040B20A900B980828BADB46E3109807F06C
:1018C0005FFF0022DD4BCDE9080107F085FF58D20C
:1018D000109807F055FF0022D84BCDE9060107F01C
:1018E000AEFECDE9080107F08FFF0E90D4480D90B1
:1018F00000200B900D200A903FE0DDE90D1007F06D
:10190000EEFD4FF07E51099007F09AFF0ED20D9830
:1019100007F036FF0022C64BCDE9060107F08FFE27
:10192000CDE9080107F070FF0D9000E028E00D9868
:1019300007F026FF0022BE4BCDE9020107F00DFEA5
:10194000CDE90601109807F01BFFCDE90401DDE9A0
:10195000062307F074FECDE9080107F0F8FE0C90AD
:10196000B5490C9848600A9808720B98401C40B220
:101970000B900A98401E40B20A900B980828BCDBD6
:10198000E3E24FF07E51109807F064FF4DD21098BB
:101990000E90AB480D9000200B9007200A9021E09C
:1019A000DDE90D1007F09BFD4FF07E51099007F027
:1019B00047FF0ED20D9807F0E3FE00229C4BCDE9C5
:1019C000060107F03CFECDE9080107F01DFF0D9070
:1019D00000E00AE00B98401C40B20B900A98401EB1
:1019E00040B20A900B980828DADB00BF0D9807F088
:1019F000C7FE944A944BCDE9020107F0AEFDCDE954
:101A00000601109807F0BCFECDE90401DDE90623CC
:101A100007F015FECDE9080107F099FE0C90864904
:101A20000C9848600A9808728FE2109807F0A8FE98
:101A3000864A874BCDE9080107F0CEFE59D21098AF
:101A400007F09EFE00227D4BCDE9060107F085FDE3
:101A5000CDE9080107F0D8FE0E9079480D900020DE
:101A60000B900A9041E0DDE90D1007F038FD4FF0D2
:101A70007E51099007F0E4FE0ED20D9807F080FE2B
:101A800000226B4BCDE9060107F0D9FDCDE9080135
:101A900007F0BAFE0D9000E02AE00D9807F070FE06
:101AA00002460B46CDE902016A486B4907F0C7FDC3
:101AB000CDE90601109807F063FECDE90401DDE9E8
:101AC000062307F04AFDCDE9080107F040FE0C901F
:101AD00059490C9848600A9808720B98401C40B20B
:101AE0000B900A98401E40B20A900B980828BADB67
:101AF0002BE2109807F044FE584A594BCDE90801F3
:101B000007F06AFE5AD2109807F03AFE554A564B33
:101B1000CDE9060107F021FDCDE9080107F074FECB
:101B20000E9047480D9000200B90C01F0A9041E096
:101B3000DDE90D1007F0D3FC4FF07E51099007F05E
:101B40007FFE0ED20D9807F01BFE0022384BCDE928
:101B5000060107F074FDCDE9080107F055FE0D9070
:101B600000E02AE00D9807F00BFE02460B46CDE997
:101B700002013E483E4907F062FDCDE9060110989A
:101B800007F0FEFDCDE90401DDE9062307F0E5FCE1
:101B9000CDE9080107F0DBFD0C9027490C9848605F
:101BA0000A9808720B98401C40B20B900A98401E8D
:101BB00040B20A900B980828BADBC6E1109807F0EB
:101BC000DFFD2C4A2C4BCDE9080107F005FE7DD244
:101BD000109807F0D5FD294A294BCDE9060107F0F9
:101BE000BCFCCDE9080107F00FFE0E9014480D90E3
:101BF00000200B906FF00D000A906EE0DDE90D10F3
:101C000007F06DFC4FF07E51099007F019FE39D2B4
:101C10000D9807F0B5FD0022054BCDE9060107F050
:101C20000EFDCDE9080107F0EFFD0D902BE000005F
:101C30000000244084D79741E4000020D012634183
:101C40008096184B8DEDB5A0F7C6B03E48AFBC9A54
:101C5000F2D77A3E000040E59C30A2429B2BA18641
:101C60009B84063D0000901EC4BCD642408CB578D3
:101C70001DAF15444F9B0E0AB4E3923B50EFE2D6E2
:101C8000E41A4B442CE00D9807F07AFD02460B460F
:101C9000CDE90201FD48FE4907F0D1FCCDE906017E
:101CA000109807F06DFDCDE90401DDE9062307F08A
:101CB00054FCCDE9080107F04AFD0C90F5490C9859
:101CC00048600A9808720B98401C00E009E040B296
:101CD0000B900A98401E40B20A900B9808288DDBA2
:101CE00033E1109807F04CFDEB4AEC4BCDE90801CD
:101CF00007F072FD5BD2109807F042FDE84AE94B0D
:101D0000CDE9060107F029FCCDE9080107F07CFDCB
:101D10000E90E5480D9000200B906FF014000A9093
:101D200041E0DDE90D1007F0DAFB4FF07E5109903C
:101D300007F086FD0ED20D9807F022FD0022DB4B46
:101D4000CDE9060107F07BFCCDE9080107F05CFD59
:101D50000D9000E02AE00D9807F012FD02460B46B8
:101D6000CDE90201D248D34907F069FCCDE906016B
:101D7000109807F005FDCDE90401DDE9062307F021
:101D8000ECFBCDE9080107F0E2FC0C90C1490C988E
:101D900048600A9808720B98401C40B20B900A9851
:101DA000401E40B20A900B980828BADBCDE010988C
:101DB00007F0E6FCC04AC14BCDE9080107F00CFD75
:101DC00061D2109807F0DCFCBD4ABE4BCDE906019C
:101DD00007F0C3FBCDE9080107F016FD0E90B248ED
:101DE0000D9000200B906FF01B000A9047E0DDE99A
:101DF0000D1007F074FB4FF07E51099007F020FDA5
:101E00000ED20D9807F0BCFC0022A84BCDE90601CC
:101E100007F015FCCDE9080107F0F6FC0D9000E095
:101E200030E00D9807F0ACFC02460B46CDE900010E
:101E3000A348A44907F003FCCDE90401109807F07A
:101E40009FFCCDE90201DDE9042307F086FB0022B7
:101E50009D4BCDE9060107F080FBCDE9080107F0B5
:101E600076FC0C908B490C9848600A9808720B9885
:101E7000401C40B20B900A98401E40B20A900B984A
:101E80000828B4DB61E0109807F07AFC8F4A904B89
:101E9000CDE9060107F061FBCDE9080107F0B4FCCC
:101EA0000E908C480D9000200B906FF022000A904D
:101EB00047E0DDE90D1007F012FB4FF07E5109906D
:101EC00007F0BEFC0ED20D9807F05AFC0022774BAB
:101ED000CDE9060107F0B3FBCDE9080107F094FC5A
:101EE0000D9000E030E00D9807F04AFC02460B46EA
:101EF000CDE900017548764907F0A1FBCDE9040161
:101F0000109807F03DFCCDE90201DDE9042307F05C
:101F100024FB00226C4BCDE9060107F01EFBCDE946
:101F2000080107F014FC0C905A490C9848600A9874
:101F300008720B98401C40B20B900A98401E40B2A9
:101F40000A900B980428B4DB00BF00BFFFF7EDBA7E
:101F500070B5002560480078401C5F4908705F48F4
:101F6000C08949F64041884204DC5C48C089B0F52C
:101F7000FA6F06DA5A480078042802D00020564941
:101F8000087058498A6858490888411C564B19807E
:101F9000564941F82020184600880C2802DB002012
:101FA00019460880002408E0504850F824102846BC
:101FB00007F00BFA0546601CC4B20C2CF4DB464853
:101FC00000780C2808DB4A49284607F088FA45497A
:101FD00088600C204049087042498868FFF783FAFE
:101FE0002C4840684FF47A71B0FBF1F02949486001
:101FF00070BD70B53B49C86807F090FB054639488D
:102000000168284607F039FA0446364841682046F8
:1020100007F065FA3349886070BD10B52F48C08954
:102020000A2802DA0A202D49C8812C49C88907F0FC
:1020300075FB2C4948602F482949097850F8210040
:102040002849C860FFF7D5FF10BD2DE9F0410024F5
:10205000012736E2012FFCD100270E2C15D2DFE834
:1020600004F0074F5D8586878889DD8AFEFDFCFBCD
:10207000214D2888401C21498880092008810120A1
:102080004881002088710120888113E10284FEE4E8
:1020900071D98945E4000020196050BEF6B01F3A9E
:1020A00081121F2FE727C0458096184B000024405F
:1020B000037CD8EA9BD0FE460F7AF8B7A595AA38DC
:1020C000824DC7726142334780842E41B1A1162AE6
:1020D000D3CED24700007A4407000020D40000206D
:1020E0000600002068010020080000207801002080
:1020F00000004041F09F0008F0000020C4000020D4
:10210000F64DF748F7490860288888800320088141
:1021100000204881887101208881CBE0EF48801E33
:10212000408838B1012804D0022805D003281BD1EB
:1021300001E019E000BF00BFE848801E8088012848
:1021400003DD0021E548801E8180E44DAD1CE6489A
:10215000E44908602888888001200881002048819F
:1021600088710120888100BF00BFA3E000BF00BFCD
:1021700000BF00BF00BFD948801E408838B1012889
:1021800004D0022805D0032846D101E044E000BF76
:1021900000BFD248001D00EB4400851FCF48801EC1
:1021A0008088E0B9D148CF49086028888880601EBF
:1021B000CF4931F82000CB490881601ECC4901EBA2
:1021C00080004088C7494881E01ECA4911F81000C4
:1021D000C4498871C84830F8140088811BE0C3489E
:1021E000C049086028888880601EC44931F82000F2
:1021F000BC490881601EC14901EB80004088B94993
:102200004881E01EBB4911F81000B6498871BA48F0
:1022100030F81400888100BF00BF4BE0AF48801E3B
:10222000008A012803DD0021AC48801E0182AB4DED
:102230000E35B348AB49086028888880601EAC49D9
:1022400031F82000A7490881601EA94901EB8000F0
:102250004088A449488103E00AE008E006E004E081
:10226000002088710120888124E000BF00BF00BFEA
:102270009A48001D00EB4400851FA2489949086058
:1022800028888880601E9A4931F820009549088185
:10229000601E974901EB8000408892494881E01E0A
:1022A000944911F810008F498871934830F8140050
:1022B000888100BF00BF2046FEF7EDFD0E2C76D2D0
:1022C000DFE804F007111B252F39434D57616B766A
:1022D00077780A208C490870002048708148FEF702
:1022E000F9FE804671E00820874908700020487098
:1022F0007C48FEF70CFD804667E00A2082490870A2
:10230000002048707748FEF702FD80465DE00A2015
:102310007D490870002048707248FEF7DBFE804659
:1023200053E0072078490870002048706D48FEF798
:10233000D1FE804649E007207349087000204870AC
:102340006848FEF7C7FE80463FE007206E490870E8
:10235000002048706348FEF7BDFE804635E0082047
:1023600069490870002048705E48FEF7B3FE804659
:102370002BE0072064490870002048705948FEF798
:10238000C6FC804621E007205F49087000204870A5
:102390005448FEF79FFE804617E00A205A4908700D
:1023A000002048704F48FEF795FE80460DE00BE098
:1023B00000BF00BF082054490870002048704948F9
:1023C000FEF788FE804600E000BF00BF44B94548E4
:1023D0008088401E288006F0A0FBFEF778FA02E015
:1023E000404880882880B8F1680F61D009DCA8F1E6
:1023F0006100072863D2DFE800F00E464862624AB7
:102400005D00A8F1E100082859D2DFE800F0053DA1
:102410003F585858545200BF3048801E4088012809
:1024200002D1012C00D109242C48801E808801286B
:1024300006D1072C04D1601CC4B2601CC4B201E0F8
:10244000601CC4B2012C1CDD2448801E408840B1B1
:10245000012804D0022807D0032807D103E00E2664
:1024600006E00A2604E000BF0E2601E00E2600BFAB
:1024700000BFB44205DB002403202449087006F0A5
:102480003BFB01271CE000BF1AE000BF18E0134827
:10249000801EC088012803D102211048801EC180FF
:1024A00003201A49087006F027FB06F0F3FA07E04C
:1024B00000BF05E000BF03201449087000E000BF22
:1024C00000BF1248007804283FF4C4ADBDE8F08195
:1024D000704702460B4688B270470000F2000020A9
:1024E00075A00008C400002067A00008FAA000083A
:1024F00088A60008F0A6000806A7000854A6000851
:102500006FA0000813A20008AE0000200300002006
:1025100010B54FF480732B4A2B492C4802F042FE31
:102520002A4802F069FE10BDF0B50446059D274615
:102530000E4602B9012207FB06FCBCFBF5FC0CFBB6
:1025400003FCBCFBF2F0F0BD30B50246002006E013
:10255000145C0A2594FBF5F4E3B2441CE0B2884213
:10256000F6DB30BD70B502460C46002012E0135C6D
:10257000DD1703EB15752911135CDD1703EB1575DA
:102580002D11A3EB051501EB810605EB460515544E
:10259000431CD8B2A042EADB70BD30B50B46014601
:1025A000C41700EB1474C4F30712C41700EB1474BF
:1025B0002411A0EB041402EB820504EB4504E0B205
:1025C00030BD0000E89E00080C1001401C000240D5
:1025D00070B506F06BFC06F0FEFB00214FF080406A
:1025E00004F0CCFBFEF765F906F05BFA06F059FA49
:1025F00006F093FA06F065FA06F0A0FAFEF767F91E
:10260000FE480078082802DD0020FC49087006F02A
:10261000D3FC06F0DBFAFEF7FDF90020F84908705C
:10262000002438E0601CC4B2142C02DD0320F549FC
:1026300008700A2006F0C1F80546682D25D009DC8F
:10264000A5F16100072824D2DFE800F01517190E64
:102650001B1D2000A5F1E10007281AD2DFE800F0D9
:102660000C0E10051214170000BF0920E549087070
:1026700006F0A9FC0EE000BF0CE000BF0AE000BFBE
:1026800008E000BF06E000BF04E003E000BF142440
:1026900000E000BF00BFDB4800780228C2D006F08F
:1026A00081FB70BD2DE9F04190B0FF260027D64890
:1026B000007E88B1D448407FD04981F848001E216F
:1026C000D1481B3006F063FE0020CF490876002178
:1026D000CD48417606F0ECF9C84890F8480000284B
:1026E0007ED1CA48007E00287BD01C2101A806F0BC
:1026F0004EFE1C22C5491D3101A806F02FFEC3481D
:10270000067F457F0020C14908760021BF484176F9
:10271000DE2E67D006DCCC2E7ED0CE2E09D0DD2E6C
:102720007BD1C8E0EE2E79D0F22E78D0F32EF7D1FF
:10273000D2E0B7480078092837D2DFE800F0053644
:10274000360C132F1A212800B248B3A10A68026080
:102750000979017130E0AF48B1A10A6802600979D6
:10276000017129E0AB48B0A10A68026009790171E2
:1027700022E0A848AEA10A680260097901711BE055
:10278000A448ADA10A6802600979017114E0A1486A
:10279000ABA10A680260097901710DE09D48AAA108
:1027A0000A6802600979017106E09A48A8A10A68DE
:1027B00002600979017100BF00BF15219348C01C58
:1027C00006F0E5FDAA209149C8700020087010228B
:1027D000A1498E48001D06F0C1FD8E498B4802E0DC
:1027E00013E211E27AE0C01C06F0DCFD00240EE0EA
:1027F0008648C01C015D994804F0DAFE00BF8021C4
:10280000964804F043FF0028F9D0601CC4B2152C90
:10281000EEDBBB21914803E046E0F4E17FE05CE0C1
:1028200004F0C6FE00BF80218C4804F02FFF002872
:10283000F9D08B480088022803D0894800880328F3
:1028400031D11521874806F0A2FDAA208549C91E6D
:10285000C87000200870102283498248401C06F08E
:102860007DFD6C497F4806F09DFD00240DE07D480C
:10287000015D7A4804F09CFE00BF8021774804F097
:1028800005FF0028F9D0601CC4B2152CEFDBBB217A
:10289000724804F08DFE00BF8021704804F0F6FEFF
:1028A0000028F9D0B0E1AFE10020704908700520A0
:1028B00054490870A8E153480078062808D103203D
:1028C0005349087007204F49087006F066FA02E085
:1028D00003204C49087097E196E195E135B1012D4F
:1028E00008D0102D0AD0112D10D10BE00020434943
:1028F00048800CE001204149488008E002203F491F
:10290000488004E003203D49488000E000BF00BF4C
:1029100006F0C0F806F0F0F8FEF799F874E19DF8BB
:102920000500401E35490870AC2D04D0AD2D63D094
:10293000DC2D62D1ADE00021304881809DF8070098
:102940000121FFF72AFE80469DF806000121FFF7CE
:1029500024FE00EBC00101EB001008EB80012748CA
:10296000C1809DF809000121FFF717FE80469DF800
:1029700008000121FFF711FE00EBC00101EB001080
:1029800008EB80011D4801819DF80B000121FFF734
:1029900004FE80469DF80A000121FFF7FEFD00EBD2
:1029A000C00101EB001008EB8001144841819DF843
:1029B0000D000121FFF7F1FD80469DF80C0001217B
:1029C000FFF7EBFD00EBC00101EB001008EB80010D
:1029D0000A4881819DF80F000121FFF7DEFD804646
:1029E0009DF80E000121FFF7D8FD00EBC00101EBBF
:1029F000001008EB80013BE0B0E0FCE0F0000020BC
:102A00000500002003000020F00200207C020020CE
:102A100004000020400000204944454C0000000014
:102A200053544F5000000000504153530000000029
:102A300048494748000000004C4F57200000000064
:102A40004F464C200000000041524320000000008F
:102A50005445535400000000FE010020003801409E
:102A6000C8010020B9020020120200202F0000201F
:102A7000FB48C1819DF8101041829DF8110050283B
:102A800003D10021F648018202E00121F4480182CD
:102A9000B1E00121F24881809DF80700FFF77DFD3C
:102AA00080469DF806000121FFF777FD00EBC0018D
:102AB00001EB001008EB8001E948C1809DF8090096
:102AC0000121FFF76AFD80469DF808000121FFF70C
:102AD00064FD00EBC00101EB001008EB8001E04851
:102AE00001819DF80B000121FFF757FD80469DF8FD
:102AF0000A000121FFF751FD00EBC00101EB0010BE
:102B000008EB8001D64841819DF80D000121FFF7B7
:102B100044FD80469DF80C000121FFF73EFD00EBCF
:102B2000C00101EB001008EB8001CD4881819DF8C8
:102B30000F000121FFF731FD80469DF80E000121B5
:102B4000FFF72BFD00EBC00101EB001008EB80014B
:102B5000C348C1819DF8101041824CE09DF80700E8
:102B60000121FFF71AFD80469DF806000121FFF7BD
:102B700014FD00EBC00101EB001008EB8001B84828
:102B800081829DF809000121FFF707FD80469DF82D
:102B900008000121FFF701FD00EBC00101EB00106F
:102BA00008EB8001AE48C1829DF80B000121FFF7C0
:102BB000F4FC80469DF80A000121FFF7EEFC00EBD3
:102BC000C00101EB001008EB8001A54801839DF8CE
:102BD0000D000121FFF7E1FC80469DF80C0001216A
:102BE000FFF7DBFC00EBC00101EB001008EB8001FC
:102BF0009B48418300BF00BF05F04CFF05F07CFF00
:102C0000FDF725FF00E000BFDDE0954890F84800A3
:102C10000128F9D19348007E78B11E2291491B31D9
:102C200008A806F09BFB9DF822709DF82360002009
:102C30008C49087600218B48417626B1012E44D07C
:102C4000022E41D151E0022F25D19DF824005428B5
:102C500009D10020844908700520844908700120AA
:102C60008349087030E09DF8240052282CD17F4819
:102C7000007806280BD103207E49087007207B4985
:102C8000087006F08AF80120794908701CE00320DA
:102C90007649087018E0032F16D19DF82400742897
:102CA00012D10020704908709DF825006C49087009
:102CB00005F0F0FE03206D49087005F02EFFFDF7CA
:102CC00006FE0520694908707CE09DF824006449EF
:102CD000087005F0DFFE03206449087005F01DFF51
:102CE000FDF7F5FDFDF7B3FE6CE09DF824006249A9
:102CF0000870084600788009594948805E48007885
:102D0000C0F34011564881805B480078C0F3001141
:102D1000534801825848007800F00F015048418222
:102D20009DF8251081829DF827009DF8261000EB64
:102D3000012081B24A48C1809DF829009DF82810E1
:102D400000EB012081B2464801819DF82B009DF8DF
:102D50002A1000EB012081B2414841819DF82D00ED
:102D60009DF82C1000EB012081B23D4881819DF837
:102D70002F009DF82E1000EB012081B23848C18150
:102D80009DF831009DF8301000EB012081B23448ED
:102D9000C1829DF833009DF8321000EB012081B212
:102DA0002F4801839DF835009DF8341000EB012079
:102DB00081B22B48418305F06DFE05F09DFEFDF7C5
:102DC00046FE00BF00BF10B0BDE8F08170B5002026
:102DD00028490870FDF73BFE05F010FF05F0BDFF28
:102DE00000202149087096E0FFF75CFC0A2005F0FE
:102DF000E4FC0446662C71D008DCA4F161000528CF
:102E00006DD2DFE800F010143D576300E62C78D057
:102E100004DC672C76D0682C7BD167E0E72C72D07D
:102E2000E82C76D163E004201049087072E0134862
:102E30000078A0B90A480078401C09490870084683
:102E40000078082801DD0020087005F066FEFDF717
:102E50003EFD05F01FFE05F0EFFDFDF7F8FD59E022
:102E6000F00000207C0200202F0000200300002042
:102E70004800002004000020500000200500002031
:102E8000FE480078A8B9FE48007828B1FC480078D0
:102E9000401EFB49087002E00820F949087005F05F
:102EA0003CFEFDF714FD05F0F5FD05F0C5FDFDF751
:102EB000CEFD2FE0F148007818B1F0480078401EB0
:102EC00000E00320C5B2ED48057023E0EB48007830
:102ED000032806DAE9480078401C03E010E018E017
:102EE0000FE00020C5B2E548057013E000BF0520E3
:102EF000E44908700020E44908700BE002E002E0B9
:102F000000BF00BF00BF0020DC490870DE49087028
:102F100000E000BF00BFDB48007803283FF464AF47
:102F200070BD10B5FFF791F810BD10B513E000208B
:102F3000D6490870D6490870D349087005F012FECA
:102F400000214FF0804003F019FF0120D1490870A3
:102F50000620CC490870CB4800780528E7D010BD82
:102F600010B5002005F0FEFD00214FF0804003F079
:102F700005FF6420FDF797F905F08AFE10BD2DE9E5
:102F8000FC5F0120C3490870BD48B0F8028080880A
:102F9000C0B20090BA488088BF49097860F34511F3
:102FA000BD480170B648408AC0B20190002005F0CB
:102FB000E0FDB8F1000F2ED10020B8490870B048EC
:102FC000C08800EB80004FF6FF7101EA4005AC4875
:102FD0008089012801D1022601E0A94886892C4672
:102FE0000327F020AE49088040F6D860AD4908803C
:102FF0009DF8000038B9AC4800884443A048808B55
:10300000B4FBF0F4CCE0A848408844439C48008CD2
:10301000B4FBF0F4C4E0B8F1010F1DD14FF4B4706B
:103020009F49088040F6D8609E49088001209B494E
:10303000087000269248808A00EB80004FF6FF71EE
:1030400001EA40052C4605279748808844438C4870
:10305000808CB4FBF0F4A3E0B8F1030F4FD18848A3
:10306000808A00EB80004FF6FF7101EA400584483A
:103070008089012801D1022601E0814886892C46F9
:103080008A480078A0B94FF4B4708549088040F6AA
:10309000D8608449088001208049087005270026EF
:1030A0008148808844437648808CB4FBF0F477E014
:1030B000F0207B49088040F6D8607A4908800020DB
:1030C000764908706E48C08800EB80004FF6FF71AB
:1030D00001EA40052C4603279DF8000038B97248E4
:1030E000008844436648808BB4FBF0F458E06E4897
:1030F000408844436248008CB4FBF0F450E06B48D5
:10310000007870BBF0206649088040F6D8606549B9
:1031100008805B488089012801D1022601E05848D7
:1031200086895748C08800EB80004FF6FF7101EA9E
:1031300040052C4603270020584908709DF80000E0
:1031400038B95948008844434D48808BB4FBF0F4AB
:1031500026E05548408844434948008CB4FBF0F4CD
:103160001EE0FFE74FF4B4704D49088040F6D86088
:103170004C49088000264248808A00EB80004FF6C8
:10318000FF7101EA40052C460527012043490870DC
:103190004548808844433A48808CB4FBF0F400BF33
:1031A000DFF8DC9009F11C094FF00B0BDFF800A1F0
:1031B0004FF02C0B002705E019F8010B0AF8010B62
:1031C000781CC7B25F45F7DB00203A4908603A49EE
:1031D00008803A4908603A4908803A4908703A49F3
:1031E00008803A4908803A4908703A4908803A49C3
:1031F00008803A490870002708E00020384921F883
:103200001700384921F81700781CC7B2082FF4DBE3
:1032100031490C80002E7DD001202D4908702E48A8
:103220000488B4FBF6F429490C800488B4FBF6F05A
:1032300006FB104424490C8024480088012869DAE0
:103240000A20234908702448048804EB84004400C1
:10325000B4FBF6F41D490C801F48048804EB84007D
:103260004400B4FBF6F006FB104417490C801748E5
:10327000008801284EDA6420154936E00500002058
:10328000F000002003000020000000201B000020B0
:103290001C00002004000020500000202E00002010
:1032A0003000002032000020340000202F000020D9
:1032B000D20100200C0000201E000020140000207D
:1032C00020000020220000202400002026000020F2
:1032D000280000202A0000202C00002001000020EF
:1032E000A8010020B801002014E00870FD480488FF
:1032F00004EB84004400B4FBF6F4FB490C80F9486D
:10330000048804EB84004400B4FBF6F006FB104490
:10331000F6490C80B8F1000F12D0B8F1010F06D0B9
:10332000B8F1020F54D0B8F1030F7CD126E005F0BC
:103330006BFD022005F0A1FD0220ED49087077E049
:103340009DF8000048B105F05FFD022005F095FDF5
:103350009DF8040005F00DFC0FE005F071FDE54857
:10336000008A18B1012005F088FD02E0002005F078
:1033700084FD9DF8040005F0FCFB59E0DE48007870
:1033800040B905F041FD022005F077FD0220D84943
:1033900008701CE09DF8000048B105F035FD0220E2
:1033A00005F06BFD9DF8040005F0E3FB0FE005F070
:1033B00047FDD048008A18B1012005F05EFD02E00B
:1033C000002005F05AFD9DF8040005F0D2FB2FE027
:1033D000C9480078F0B99DF8000048B105F014FD27
:1033E000022005F04AFD9DF8040005F0C2FB19E03B
:1033F00005F026FDBF48008A18B1012005F03DFD0B
:1034000002E0002005F039FD9DF8040005F0B1FB55
:1034100008E008E005F0F8FC022005F02EFD02208F
:10342000B349087004E00720B4490870BDE8FC9F68
:1034300000BF002005F096FB0121880703F09EFCE9
:1034400005F0A6FC0020AE49087008460078FDF79C
:103450000FFC05F082FC05F0D1FB05F001FC082013
:10346000A849087002204870162008700220487091
:1034700000200870A448007800EB4000202101EBF8
:10348000C000A0494870002008709F48007800EBF9
:103490004000C00020304870B8F1000F09D0B8F1EA
:1034A000010F07D0B8F1020F05D0B8F1030F04D116
:1034B00002E000BF02E001E000E000BF00BF00202A
:1034C00090490870FDF7B9FA00BFAFE738B58F48EB
:1034D0000068B0F5805F03D340F6FF708B49086049
:1034E0008B480088B0F5805F03DB40F6FF708849A9
:1034F00008808848008800283ED0012804D002288F
:103500007CD003287BD192E1834840897F4A009098
:10351000126893B27A4A1278D21D7F4D05EB82026F
:103520005188774A1278D21D35F82200784A1288DD
:10353000FEF7FAFF0446A0B27849086073480068B5
:1035400000EB800044002846008944432846408917
:10355000B4FBF0F40A20B4FBF0F100FB11400428A6
:1035600000D90A340A20B4FBF0F4A0B20A2190FB7F
:10357000F1F06649086014E26548008800EB8000BD
:1035800044005C488088D8BB5D480078C01C624914
:1035900031F8200044435A480078C01C01EB8000F9
:1035A0004088B4FBF0F40A20B4FBF0F100FB1140BA
:1035B000042800D90A340A20B4FBF0F45849CC811D
:1035C0005248006800EB80004400534800884443A0
:1035D00051484088B4FBF0F40A20B4FBF0F100FB42
:1035E0001140042800D90A340A20B4FBF0F4A0B238
:1035F0000A2190FBF1F0454908603BE03BE0CFE158
:10360000FFE73F480078401D434931F8200044431C
:103610003B480078401D01EB80004088B4FBF0F48B
:103620000A20B4FBF0F100FB1140042800D90A3451
:103630000A20B4FBF0F43A49CC813448006800EB2E
:10364000800044003448808844433348C088B4FB39
:10365000F0F40A20B4FBF0F100FB1140042800D97B
:103660000A340A20B4FBF0F4A0B20A2190FBF1F076
:103670002649086095E12048007800287ED124483A
:10368000008800EB800044001A48808848BB1C4832
:103690000078C01C204931F82000444318480078C5
:1036A000C01C01EB80004088B4FBF0F40A20B4FB9E
:1036B000F0F100FB1140042800D90A340A20B4FBC1
:1036C000F0F41749CC811148006800EB80004400F9
:1036D00011480088444310484088B4FBF0F40A20A5
:1036E00020E030E02C0000202600002024000020F4
:1036F00004000020F00000202F0000200300002024
:1037000006000020AE0000201C0000200C0000205D
:103710001E000020C8010020D2010020140000205B
:10372000D4000020B4FBF0F100FB1140042800D9C4
:103730000A340A20B4FBF0F4A0B20A2190FBF1F0A5
:10374000FE49086072E0FE480078401DFD4931F8EE
:1037500020004443FA480078401D01EB8000408877
:10376000B4FBF0F40A20B4FBF0F100FB1140042894
:1037700000D90A340A20B4FBF0F400E01FE0F2495B
:10378000CC81EE48006800EB80004400ED48808862
:103790004443EC48C088B4FBF0F40A20B4FBF0F1D9
:1037A00000FB1140042800D90A340A20B4FBF0F4CD
:1037B000A0B20A2190FBF1F0E049086036E0E14850
:1037C0004089DE4A0090126893B2DD4A1278D21D19
:1037D000DC4D05EB82025188D94A1278D21D35F8AA
:1037E0002200DA4A1288FEF79FFE0446A0B2D849AA
:1037F0000860D248006800EB800044002846008939
:10380000444328464089B4FBF0F40A20B4FBF0F1AD
:1038100000FB1140042800D90A340A20B4FBF0F45C
:10382000A0B20A2190FBF1F0C4490860B9E0C94890
:103830000078B8BBC3484089C04A0090126893B270
:10384000BF4A1278D21DBF4D05EB82025188BC4A97
:103850001278D21D35F82200BC4A1288FEF764FEA9
:103860000446A0B2BA490860B448006800EB800082
:10387000440028460089444328464089B4FBF0F4BC
:103880000A20B4FBF0F100FB1140042800D90A34EF
:103890000A20B4FBF0F4A0B20A2190FBF1F0A74992
:1038A00008607CE0FFE7A948008800EB8000440046
:1038B000A9488088C8BBA2480078C01CA14931F83B
:1038C000200044439E480078C01C01EB80004088E3
:1038D000B4FBF0F40A20B4FBF0F100FB1140042823
:1038E00000D90A340A20B4FBF0F49749CC819348FC
:1038F000006800EB800044009248008844439148EF
:103900004088B4FBF0F40A20B4FBF0F100FB114056
:10391000042800D90A340A20B4FBF0F4A0B20A212A
:1039200090FBF1F08549086039E0FFE784480078B2
:10393000401D844931F82000444381480078401DEF
:1039400001EB80004088B4FBF0F40A20B4FBF0F1F6
:1039500000FB1140042800D90A340A20B4FBF0F41B
:103960007949CC817548006800EB800044007548B7
:10397000808844437348C088B4FBF0F40A20B4FB49
:10398000F0F100FB1140042800D90A340A20B4FBEE
:10399000F0F4A0B20A2190FBF1F06849086000E061
:1039A00000BF00BF38BD0CB56C480078082804DAA9
:1039B0006A480078401C69490870072001900EE0B1
:1039C0009DF80400401E664931F810009DF804205F
:1039D00021F812009DF80400401EC0B201909DF82D
:1039E00004000028ECDC554800685D490880002090
:1039F00000905A480078019007E059489DF804105B
:103A000030F811000099084400909DF80400411E10
:103A1000C9B201910028F0D1504909780098B0FB53
:103A2000F1F00090009880B24449086007200190AE
:103A30000EE09DF80400401E4A4931F810009DF840
:103A4000042021F812009DF80400401EC0B201902D
:103A50009DF804000028ECDC3C48008841490880BF
:103A6000002000903D480078019007E03D489DF817
:103A7000041030F811000099084400909DF80400EB
:103A8000411EC9B201910028F0D13449097800984B
:103A9000B0FBF1F000902D49009808800CBD0EB5E8
:103AA00000200190009002900EE005F06BF8019963
:103AB0000844019005F06CF80099084400909DF8C6
:103AC0000800401CC0B202909DF808001028ECDBF2
:103AD0000198C0F30F10194908600098C0F30F1047
:103AE0001A4908800EBD2DE9F04F87B00025AB467E
:103AF0000026A946AA460024174840881A4908808B
:103B00000846008805287DD2DFE800F032038453A0
:103B1000B3001648007820F0C00040301349087008
:103B20000D48C08A1049C8800B48008B08810A489C
:103B3000408B488002200590A2E000000C0000208D
:103B400006000020D2010020D40000201E0000202A
:103B5000140000202F000020F00000202200002090
:103B6000A8010020B8010020C8010020500000205A
:103B7000F648007820F0C000F4490870F448008945
:103B8000F449C880F24840890881F148C0894880DA
:103B9000EF488089012802D10220888003E0EC48A8
:103BA0008089EC498880EA4880880090012005904F
:103BB00066E0E648007820F0C000C030E3490870B5
:103BC000E548007860B9E248C08AE249C880E04828
:103BD000008B0881DE48408B48800220059018E069
:103BE00001200590DA480089DA49C880D848408920
:103BF0000881D748C0894880D5488089012804D1E8
:103C0000022000E036E0888003E0D1488089D14975
:103C1000888035E0CD48007820F0C0008030CB4966
:103C20000870CD480078B8B901200590C8480089CF
:103C3000C849C880C64840890881C548C0894880AD
:103C4000C3488089012802D10220888010E0C04842
:103C50008089C04988800BE002200590BC48C08A5A
:103C6000BC49C880BA48008B0881B948408B48805D
:103C700006E005E00720B949087007B0BDE8F08FFD
:103C800000BFFFF77CF90020039004900290B44934
:103C90000860B4490881B4490880B44908700978BB
:103CA000B34A12781144C8B2FCF7E2FF00F0ACBF8F
:103CB000B048007801286CD10020AE490870012579
:103CC000BDF8100042F20F71884204DABDF810000E
:103CD000401C80B20490A8480078012826D19DF8A5
:103CE0000C00401CC0B203909DF80C00A349097859
:103CF000884208DB002003909B480088A04909887F
:103D000008449949088097480089924989888842DF
:103D100022DB0020934908819A4800889249088054
:103D20000220954908704FF0010B15E09548008876
:103D30008D4908808748408800280DDD8948008922
:103D400084494988884207DB072084490870042099
:103D5000894908704FF0010B8348008804F002FF86
:103D60009DF80800401CC0B202909DF8080009218F
:103D700090FBF1F201FB1200C0B202909DF8080026
:103D8000052802DA04F0B3FB01E004F0ACFBFCF719
:103D9000A5FCFFF784FEFFF706FEFFF797FB7A48C6
:103DA00000887A490988884204DD4FF001094FF004
:103DB000000A0DE07448008875490988884204DAD1
:103DC0004FF0010A4FF0000902E04FF00009CA4627
:103DD0000024664800789DF81410884208DABAF189
:103DE000010F05D161480078401C6049087001242A
:103DF0005E480078002808DDB9F1010F05D15B4865
:103E00000078401E594908700124012C1FD1002060
:103E10006049087006900AE000205F499DF818206C
:103E200021F812009DF81800401CC0B206909DF8C1
:103E300018000828F0DB4D4909784D4A12781144E2
:103E4000C8B2FCF715FF3220FCF72DFA09E1414812
:103E5000008830B101282DD0022874D0032873D1F6
:103E600040E042480078012806D13E48C0890A2136
:103E700090FBF1F03B49C881BDF80000012803D157
:103E800040F22620019002E04FF496600190354800
:103E9000C089BDF80410884203DD4FF6FF70314938
:103EA000C88134B92B488088BDF81010884200DCE6
:103EB0000126D5E03448008848B1384800683849C0
:103EC000884208D94FF6FF703449086003E04FF686
:103ED000FF703249086024B9BDF81000022800DBE9
:103EE0000126BDE01C480078B8B92748008848B1D1
:103EF0002A4800682A49884208D94FF6FF702749A6
:103F0000086003E04FF6FF7024490860ECB9BDF883
:103F1000100002285BDB012659E0144800780128D4
:103F200006D11048C0890A2190FBF1F00D49C881E3
:103F30004FF496600190BDF80000012832D140F2A4
:103F40002620019031E043E089E040E0500000206D
:103F5000F0000020C80100202F00002003000020F6
:103F600010000020D40000202A00002006000020BD
:103F70002E00002001000020040000202800002066
:103F8000260000202C0000201E000020320000200F
:103F90003000002022000020B80100201400002082
:103FA0009F8601004FF496600190FE48C089BDF8DD
:103FB0000410884203DD4FF6FF70FA49C88134B916
:103FC000F9488088BDF81010884200DC012647E0DF
:103FD000F648007858BBF6480078012806D1F14829
:103FE000C0890A2190FBF1F0EE49C8814FF4966038
:103FF0000190BDF80000012803D140F22620019075
:1040000002E04FF496600190E648C089BDF80410C4
:10401000884203DD4FF6FF70E249C881F4B9E248F7
:104020008088BDF81010884218DC012616E0E148AF
:10403000008848B1E0480068E049884208D94FF656
:10404000FF70DD49086003E04FF6FF70DA49086051
:1040500024B9BDF81000022800DB012600E000BFF3
:1040600000BFD748007802287BD1012EFCD1002C5C
:10407000FAD1CD48008830B1012820D0022871D073
:10408000032870D15EE0C748C0890190C648C08847
:10409000BDF80410884205DA0620C94908700220DC
:1040A000C8498870C0480089BDF80410884205DD01
:1040B0000720C34908700320C24988701BE1BE482D
:1040C000006880B20190BA48007820B101280BD076
:1040D000022819D110E0BDF804004FF47A7190FB6A
:1040E000F1F080B2019010E0BDF80400642190FB73
:1040F000F1F080B2019008E0BDF804000A2190FBC5
:10410000F1F080B2019000E000BF00BFA648C08877
:10411000BDF80410884208DAA348C08828B10620F8
:10412000A74908700820A74988709F480089BDF8F2
:104130000410884205DD0720A14908700920A14923
:104140008870D8E099480078C8BB9B48006880B266
:1041500001909748007838B101280ED002281CD170
:1041600013E0C9E05CE0C5E0BDF804004FF47A71EB
:1041700090FBF1F080B2019010E0BDF804006421E2
:1041800090FBF1F080B2019008E0BDF804000A2134
:1041900090FBF1F080B2019000E000BF00BF8248C8
:1041A000C088BDF8041088420ADA7F48C08838B158
:1041B00006208349087008208249887003E013E0D4
:1041C00006208049887078480089BDF8041088422C
:1041D00006DD07207A49087009207A4988701EE0B8
:1041E0000620784988701AE06E48C08901906E48B0
:1041F000C088BDF80410884205DA062070490870AE
:1042000002207149887068480089BDF8041088420E
:1042100005DD07206A49087003206B4988706AE051
:104220006248007818BB5F48C08901905E48C0882A
:10423000BDF80410884206DA0620614908700220A1
:104240006049887002E000205E4988705648008905
:10425000BDF80410884206DD072059490870032084
:104260005849887045E000205649887041E052481E
:10427000006880B201904E48007820B101280BD030
:10428000022819D110E0BDF804004FF47A7190FBB8
:10429000F1F080B2019010E0BDF80400642190FBC1
:1042A000F1F080B2019008E0BDF804000A2190FB13
:1042B000F1F080B2019000E000BF00BF3A48C08832
:1042C000BDF80410884208DA3748C08828B10620B3
:1042D0003B49087008203C49887033480089BDF884
:1042E0000410884205DD0720354908700920364949
:1042F000887000E000BF00BF3148007806280BD06E
:104300002F480078072807D02D480078052803D0CB
:104310002B480078082808D101202C490870072074
:104320002B49087001254FF0010B012D7DD100258F
:10433000002028490870012048701B48008830B1CF
:10434000012873D0022872D0032871D1AEE0224830
:10435000C0882249096888420BD91F48C0881F4974
:104360000968401A02280FD81B48C0881B490860FA
:104370000AE01948C08819490968081A022803D8B0
:104380001548C088154908601449096888B2012396
:1043900003220221FCF7B1FA114804F072FB142148
:1043A000104821E0D4000020C80100202F00002088
:1043B000060000201E000020140000209F8601003F
:1043C00004000020260200203A0200200000002005
:1043D00003000020AE000020F00000200C000020B0
:1043E000B0000020FE01002004F0D1FFFC48FD4990
:1043F00009680160FCA104F0D5FFFC480068000AD0
:10440000FB490871F948006848710920F9490870AA
:10441000F949C889002304220221FCF76EFAF74803
:104420000078082824D0EF4803E0C0E37FE165E28C
:10443000ABE304F026FBEB4805F041FD074605F031
:10444000E3F9EF490860EFA004F008FBEC480078BE
:10445000E7498871EA484078C871E948807808726D
:10446000E748C0784872E8A1DD4804F09BFF10E0FF
:10447000DC48E6A10A6802600979017104F001FBD9
:10448000E4A004F0EBFAFF20D9498871C8710872E2
:104490004872D449D24804F085FFD74800890012F9
:1044A000D3498872D4480089C8726FE3DA4800782B
:1044B00000287CD1D948808ACC49096888420BD928
:1044C000D648808AC9490968401A02280FD8D348BB
:1044D000808AC64908600AE0D048808AC3490968D2
:1044E000081A022803D8CD48808AC0490860BF490D
:1044F000096888B2012303220221FCF7FEF9B948BA
:1045000004F0BFFA1421B64804F041FFB448B5499D
:1045100009680160B4A104F045FFB4480068000ACE
:10452000B3490871B148006848710920B149087061
:10453000BB48006842F20F71884225D9B94800781B
:10454000022810D1B64800680A21B0FBF1F087B20A
:10455000B54AB4480078401C115C01230522384656
:10456000FCF7CBF91BE0AE4800680A21B0FBF1F084
:1045700087B2AD4AAB480078401C115C012304228D
:104580003846FCF7BAF90AE0A74AA64B1B78D15C7B
:10459000A34A126890B201230422FCF7AEF9A048A6
:1045A00000684FF6FF7188421ED08E4800E035E06B
:1045B00004F067FA8B498A4804F0F4FE894805F054
:1045C0007EFC074605F020F98D4908600846007812
:1045D000874988718A484078C8718948807808720C
:1045E0008748C07848720CE090A004F04AFA8FA186
:1045F0007B4804F0D7FEFF207D498871C87108729E
:1046000048728CA1764804F0CDFE7B4800890012E8
:104610007749887278480089C87287E07F48C088E7
:104620007249096888420BD97C48C0886F4909687B
:10463000401A02280FD87948C0886C4908600AE0FF
:104640007648C08869490968081A022803D873485F
:10465000C088664908606549096888B20123032259
:104660000221FCF74AF95F4804F00BFA1421734861
:1046700004F08DFE71485B49096801605AA104F09D
:1046800091FE5A480068000A6D4908715748006851
:1046900048710920574908705749C88901230422E5
:1046A0000221FCF72AF95548007808281CD04D480B
:1046B00004F0E7F94B4805F002FC074605F0A4F8C2
:1046C0004F490860084600785D4988714C48407839
:1046D000C8714B48807808724948C07848724AA12E
:1046E0003F4804F05FFE0DE03E4848A10A680260C2
:1046F0000979017104F0C5F9FF2051498871C87129
:10470000087248723749364804F04CFE354805F0C7
:10471000D6FB074605F078F8394908603648008925
:1047200000124749887234480089C8722EE23B481B
:10473000808A2E49096888420BD93848808A2B49DB
:104740000968401A02280FD83448808A274908602F
:104750000AE03248808A25490968081A022803D8E5
:104760002E48808A214908602049096888B20123BF
:1047700003220221FCF7C1F81A4804F082F914213F
:10478000174804F004FE164816490968016016A18E
:1047900004F008FE15480068000A1549087113481E
:1047A000006848710920134908701D48006842F2EA
:1047B0000F71884257D91B480078022842D1184807
:1047C00000680A21B0FBF1F087B2174A154800785B
:1047D000401C115C002305223846FCF78EF84DE0A2
:1047E000FE010020B00000206B563B000C000020B2
:1047F00026020020AE000020D4000020040000208B
:104800004C0000206D4100006D413B004F464C4183
:1048100020000000202000002F000020F0000020D9
:1048200014000020060000206BA800082D2D2D2D5F
:104830002D0000004DA6B83B000000001202002031
:104840003A020020F74800680A21B0FBF1F087B275
:10485000F54AF6480078401C115C002304223846D3
:10486000FCF74BF80AE0F04AF04B1B78D15CED4ABC
:10487000126890B201230422FCF73FF8E94800686F
:104880004FF6FF7188421CD0E94804F0FAF8E84975
:10489000E84804F087FDE64805F011FB074604F000
:1048A000B3FFE549086008460078E4498871E248AA
:1048B0004078C871E04880780872DF48C078487254
:1048C0000EE0AFF2980004F0DCF8AFF2A001D94896
:1048D00004F068FDFF20D9498871C87108724872D8
:1048E000AFF2B001D34804F05DFDD5480089001255
:1048F000D2498872D2480089C87247E1D14800780D
:10490000F0BBD148C088D149096888420BD9CE484C
:10491000C088CE490968401A02280FD8CA48C08802
:10492000CA4908600AE0C848C088C8490968081A26
:10493000022803D8C448C088C4490860C34909682C
:1049400088B2012303220221FBF7D7FFB84804F005
:1049500098F81421B74804F01AFDB648B44909681C
:104960000160AFF27C1104F01DFDB8480068000A38
:10497000B2490871B548006848710920B44900E09F
:104980004DE00870AE49C889012304220221FBF7DB
:10499000B4FFB0480078082821D0A54804F071F889
:1049A000A34805F08CFA074604F02EFFA2490860E0
:1049B000AFF2B01004F052F89F4800789F49887118
:1049C0009D484078C8719C48807808729A48C078A1
:1049D0004872AFF2CC11974804F0E4FC12E094481E
:1049E000AFF2D8110A6802600979017104F049F840
:1049F000AFF2E01004F032F8FF2090498871C871DE
:104A0000087248728A498B4804F0CCFC8C480089B3
:104A100000128A4988728A480089C872B4E08A48BC
:104A2000808A8A49096888420BD98748808A8749E1
:104A30000968401A02280FD88348808A8349086091
:104A40000AE08148808A81490968081A022803D847
:104A50007D48808A7D4908607C49096888B20123C5
:104A600003220221FBF749FF714804F00AF81421E0
:104A7000794804F08CFC78486D4909680160AFF210
:104A8000982104F08FFC71480068000A734908718E
:104A90006E480068487109206D49087061480068D7
:104AA00042F20F71884225D960480078022810D15F
:104AB0005C4800680A21B0FBF1F087B25A4A5B48B3
:104AC0000078401C115C002305223846FBF715FFD7
:104AD0001BE0544800680A21B0FBF1F087B2524A4B
:104AE00052480078401C115C002304223846FBF732
:104AF00004FF0AE04C4A4D4B1B78D15C494A1268CE
:104B000090B201230422FBF7F8FE464800684FF6F6
:104B1000FF7188421CD0464803F0B3FF4449454822
:104B200004F040FC424805F0CAF9074604F06CFE68
:104B30004149086008460078484988713E484078F5
:104B4000C8713D48807808723B48C07848720EE0D2
:104B5000AFF2283003F095FFAFF230313E4804F059
:104B600021FCFF203D498871C87108724872AFF27C
:104B70003C31394804F016FC3148008900123749AD
:104B800088722F480089C87200E000BF00BF0A2069
:104B90002F49087000204870294908890023042201
:104BA0000121FBF7AAFE224803F06BFF00BFFDF7CF
:104BB00079FD03F0F7FD06909DF81800662814D0E3
:104BC00008DC62280DD063280CD064280BD065283F
:104BD00018D109E067280AD0E62807D0E72811D1C4
:104BE00006E010E00FE00EE00DE000BF00BF00BFE8
:104BF00003201849087007201949087004F0CDF8FF
:104C0000FFF73BB800BF00BF1548007806283FF407
:104C10004FA80C480078401C0A49087004F0BDF801
:104C200000BFEDE7140000206BA80008060000207C
:104C3000B0000020FE0100204C00002026020020D1
:104C4000D40000202F000020F00000200C000020E5
:104C5000AE00002004000020120200203A020020D2
:104C60000300002010B55A20FB49087059204870F5
:104C70005A20FA49087059204870F948008AF949C1
:104C8000097860F30411F7480170F548408AF54946
:104C9000097860F30301F34801700078EE49C870A9
:104CA000F0480078ED49C870EF480078002867D1D7
:104CB000EE48008870B9EE480078032805D0042833
:104CC00007D10020E449887003E00120E2498870A0
:104CD00000BF55E0E548008801280ED1E44800787F
:104CE000032805D0042807D10620DB49887003E09B
:104CF0000720D949887000BF42E0DC4800880328BB
:104D00001DD1DB480078032808D0042816D10620DE
:104D1000D14988700020D14988700FE0D5480078CB
:104D2000012803D10720CC49887006E0D1480078DB
:104D3000022802D10120C949887000BF20E0CB4879
:104D4000008802281CD1CA480078032808D004280B
:104D500015D10020C04988700620C04988700EE037
:104D6000C4480078012802D1BB49887006E0C148D8
:104D70000078022802D10720B849887000BF00BF20
:104D8000B948007820B3B948008810BBB84800780B
:104D9000C01E06281CD2DFE800F00F0313070B1714
:104DA0000020AD49887013E00220AB4988700FE005
:104DB0000320A94988700BE00120A749887007E00B
:104DC0000420A549887003E00520A349887000BF2E
:104DD0001FE0A648008801281BD1A54800780328B9
:104DE00012D0042804D0062806D0072810D107E0E6
:104DF0000620994988700BE008209749887007E0E1
:104E000009209549887003E007209349887000BF06
:104E100000BF00240DE09048015D974802F0C8FBF8
:104E200000BF8021944802F031FC0028F9D0601CBA
:104E3000C4B20C2CEFDB8D480088032803D08B48CC
:104E40000088022811D100240DE08448015D8A48C1
:104E500002F0AEFB00BF8021874802F017FC00285B
:104E6000F9D0601CC4B20C2CEFDB10BD2DE9F04171
:104E700000277B484088C5B2FEF772F87C4800786E
:104E8000032827D0052D1FD2DFE805F00403090809
:104E90001D0000BF0820794908701AE000BF75485E
:104EA000007801280BD172480078042803D106202D
:104EB0007249087006E008207049087002E0082076
:104EC0006E49087005E004E007206C490870BDE8F1
:104ED000F0812CE0052D1CD2DFE805F00403060567
:104EE0001A001AE019E018E06248007801280BD196
:104EF0005F480078042803D106206049087006E066
:104F000008205E49087002E008205C49087004E04F
:104F100003E0072059490870D9E700BF58480078D6
:104F2000012804D1FFF79EFE00205549087000209B
:104F3000544908704870FBF780FD04F044F84C4871
:104F40000078032807D108204E49087002204870D5
:104F50004FF6FF740CE04C480078401C4A4908703A
:104F60004A480078032803DB082044490870AEE76C
:104F70005DE08FB100270E20424908700420487080
:104F80000123042219462046FBF7B7FC404803F0F2
:104F900065FD732003F054FD0120FBF7A3F970B108
:104FA0003348007803280AD04FF6FF70844206D0B9
:104FB00001270A210120FBF792F9601E84B2012C1F
:104FC00002DA06202D490870FDF76CFB052003F07E
:104FD000F4FB0646672E0CD004DC642E07D0652E49
:104FE00023D105E0682E19D0E72E1ED102E01DE086
:104FF0001CE000BF1E48007803280BD04FF6FF705E
:10500000844203D103201D49087006E0032018499B
:10501000087002E003201949087007E000201549D4
:10502000087006201549087000E000BF00BF134853
:10503000007807289DD000BF49E770B5012503F02F
:1050400027FE0F480078012804D1FFF70BFE00204F
:105050000B49087065E00000260200203A0200209B
:10506000F00000205000002000000020C8010020B7
:10507000040000202F000020003801400300002021
:1050800048000020AE0000201C0000201B00002073
:10509000B0000020012D19D1002516203C490870D0
:1050A000022048703B48007830B103F077FD03F0F0
:1050B00054FE03F0BCFD09E003F08CFF3648007895
:1050C000042803D103F09AFD03F02CFEFDF7EAFA61
:1050D000022003F072FB0446672C19D006DC642C16
:1050E0000BD0652C0AD0662C19D10FE0682C06D0A5
:1050F000E62C0CD0E72C12D10BE011E010E00020E0
:105100002649087005202649087009E000BF07E01D
:1051100000BF03202249087003F058FD00E000BFE3
:1051200000BF1F4800780828B4D000201949087033
:1051300070BD10B506E003F0B9FE03F0FFFC0320DC
:1051400017490870164800780128F4D010BD10B532
:1051500018E00A200E4908700220487004200870E8
:1051600032204870002406E003F034FF0320FBF7F0
:105170009AF8601CC4B20A2CF6DB012008490870BA
:1051800003F0BCFE064800780028E2D010BD000005
:10519000AE00002000000020040000202F000020AE
:1051A000030000202DE9F04107460D4616461C4637
:1051B0000121084601F041F8384602F0AFFD1248DF
:1051C0000480124805604660102010498860084637
:1051D000C460002008618020486100208861C861A7
:1051E000202008624FF44050486200208862384610
:1051F00002F036FEBDE8F08110B5044601212046DC
:1052000002F059FE10BD00005200002050020020A4
:1052100070B504460020F949087048700A20B4FBB4
:10522000F0F100FB114000EB0010F549451828464D
:1052300003F027FC0920F14908700020487003F0B2
:105240007AFB0020ED49087001204870ED4803F01A
:1052500018FC70BD2DE9FF4704464FF0000A03F02B
:10526000EBFBE94830F825000190E74800EB8500AA
:10527000408800900B25E54FDFF89483A800039049
:10528000002505E017F8010B08F8010B681CC5B2F2
:105290009DF80C008542F5DB0020DE490860DE4900
:1052A0000880DE490860DE490870DE49087003F0B6
:1052B00054FD03F0A3FC03F0D3FC03F084FE0026AE
:1052C0000220D94908700A210120FBF708F80120C3
:1052D000CA49487002200870D44803F0D2FB00206D
:1052E000C6494870087004EB0411D14A881803F0CD
:1052F000C8FB002003F036FC0B2C6CD2DFE804F076
:105300000616263637475758595A5B0003F098FD62
:10531000002003F0B2FD0121880701F02FFD03F00A
:1053200037FDC449088803F01DFC58E003F06CFD0C
:10533000022003F0A2FD0121880701F01FFD03F008
:1053400027FDBC49488803F00DFC48E003F05CFDF4
:10535000022003F092FD0121880701F00FFD03F008
:1053600017FDB449888803F0FDFB38E000BF03F067
:1053700067FD002003F081FD0121880701F0FEFC9C
:1053800003F006FDAB49888803F0ECFB27E003F04F
:105390003BFD022003F071FD0121880701F0EEFCC6
:1053A00003F0F6FC4FF4B47003F0DCFB17E000BF31
:1053B00000BF00BF00BF03F027FD022003F05DFD2A
:1053C0000121880701F0DAFC03F0E2FC99498888A2
:1053D00003F0C8FB03E0002003F0C4FB00BF00BFE4
:1053E0008FE10120FAF77EFF28B101208D49087076
:1053F0000A21FAF774FF8B480078012817D10020A2
:10540000884908704FF0010A09F1010000F0FF0916
:10541000092099FBF0F100FB119000F0FF09B9F1B0
:10542000050F02DA03F01CFC01E003F031FC03F08D
:10543000AFFB8149C88103F0A5FB7F4908601CB11F
:10544000012C01D0022C06D17B480068704901EB89
:10545000840148803EE0032C0DD0062C0BD0042C98
:1054600001D1012000E00020052C01D1012100E044
:105470000021084330B17048C089654901EB8401BF
:10548000488027E06C49096801EB8101480004F07D
:1054900045F96A4908606848C0890A2802DA0A2082
:1054A0006549C8816449C88904F038F9634948608E
:1054B000E01F634951F820006049C860FCF799FD7E
:1054C000FCF746FD5D49486804F02DF9504901EBB1
:1054D00084014880BDF80800BDF80410884205DC4E
:1054E000BDF8080000BFBDF8000000BFBAF1010F11
:1054F00012D14FF0000A0A2040490870002048707D
:10550000504A115D424A32F8240001230422FBF77D
:10551000F4F94D4803F0B5FA03F044F903909DF80F
:105520000C00672865D008DCA0F16200052861D274
:10553000DFE800F00C47AFB1B300E2281ED0E3284B
:1055400059D0E62858D0E72854D1CBE0002630487F
:1055500030F82400401C2E4921F82400084630F879
:105560002400294931F82410884206DD264800EB42
:1055700084004088264921F82400C1E0701CC6B28E
:105580000A2E07DD224830F824000A30204921F88D
:10559000240006E01E4830F82400401C1C4921F875
:1055A00024001B4830F82400174931F824108842A1
:1055B00006DD154800EB84004088154921F82400D9
:1055C0009EE00026124830F82400401E104921F8C1
:1055D0002400084630F824000B4931F82410884292
:1055E00006DD094800EB84004088094921F82400C1
:1055F00086E076E083E029E050E00000AE00002085
:10560000B0A80008D2AA000870A800080C01002069
:10561000D20100200C0000201E00002014000020F9
:105620000600002001000020040000206BA90008F3
:1056300028AA000834000020D400002068010020BF
:10564000F09F0008E3AA0008B0000020701CC6B25A
:105650000A2E07DDF94830F824000A38F74921F806
:10566000240006E0F54830F82400401EF34921F8F4
:105670002400F24830F82400F14931F8241088421F
:1056800006DDEF4800EB84004088EC4921F8240057
:1056900036E0002634E0002632E000BF00214FF063
:1056A000804001F06BFB03F078FB002003F05AFA16
:1056B00003F0EEFAE34FDFF88483282003900025FF
:1056C00005E018F8010B07F8010B681CC5B29DF83E
:1056D0000C008542F5DB03F03AFA03F0D9FABDE895
:1056E000FF8700BF00214FF0804001F047FB03F02F
:1056F00054FB002003F036FA03F0CAFAEFE700BFCC
:1057000000BFD148007809283FF46BAE00BFE6E740
:105710002DE9FC5F0446012000903220FAF7C3FD1A
:105720000020CA494870087004EB0411C84A881860
:1057300003F0A7F90120C549487000200870C5484A
:1057400003F09FF9002718E0BC4830F82700BC4957
:1057500031F82410884208DCB84830F82700B849EE
:1057600001EB84014988884205DABB4830F817000C
:10577000B24921F82700781CC7B20A2FE4D3DFF81A
:10578000C492DFF8B8A24FF02808002705E019F806
:10579000010B0AF8010B781CC7B24745F7DBA84894
:1057A00030F8245000EB840046880B2C76D2DFE8DA
:1057B00004F0063F76192C4F628699ACC100002098
:1057C000FBF756FA9F481C38808BA84204DC9D48A2
:1057D0001C38808BB04204DA4FF47A60974921F884
:1057E0002400BDE00020FBF743FA96481C38008DEA
:1057F000A84204DC93481C38008DB04204DA4FF410
:105800007A708E4921F82400AAE00120FBF730FAD3
:105810008C481C38008CA84204DC8A481C38008C58
:10582000B04204DA4FF47A70844921F8240097E0FA
:1058300084481C38008CA84204DC82481C38008C48
:10584000B04204DA4FF47A607C4921F8240087E002
:105850000020FBF70DFA7B481C38008EA84204DCC0
:1058600078481C38008EB04204DA4FF4FA7073495D
:1058700021F8240074E00120FBF7FAF971481C3884
:10588000808EA84204DC6F481C38808EB04204DA57
:105890004FF47A70694921F8240061E05FE06948BB
:1058A0001C38808CA84204DC66481C38808CB042CE
:1058B00004DA4FF47A70614921F8240050E00120A5
:1058C000FBF7D6F95F481C38008FA84204DC5D481E
:1058D0001C38008FB04204DA4FF47A70574921F82F
:1058E00024003DE00220FBF7C3F956481C38808FA6
:1058F000A84204DC53481C38808FB04204DA4FF4CD
:105900007A704E4921F824002AE00320FBF7B0F911
:105910004C481C38B0F84000A84205DC49481C3807
:10592000B0F84000B04204DA4FF47A70434921F8ED
:10593000240015E00320FBF79BF942481C38B0F81F
:105940004400A84205DC3F481C38B0F84400B0428F
:1059500004DA4FF47A70394921F8240000E000BFDE
:1059600000BF012782E00098012828D10020009084
:105970003A4810F804B004200190304931F824006E
:1059800000235946019AFAF7B8FF00202F494870C2
:105990000A200870324803F074F800202B49487040
:1059A000087004EB04112A4A881803F06AF80120F1
:1059B0002649487000200870264803F062F80A2043
:1059C00002F0FBFE8046B8F1680F2DD009DCA8F18B
:1059D0006100072848D2DFE800F00E181E47472470
:1059E0004500A8F1E10007283ED2DFE800F00511EC
:1059F000173D3D1B3C0000BF2046FFF72BFC03F08A
:105A00001BF80120009000272FE0012000902CE0DF
:105A10000120009029E00120009026E00120009064
:105A200023E000BFBDE8FC9F2046FFF713FC03F016
:105A300003F801200090002717E00000D2010020A9
:105A400070A800080C01002003000020AE00002018
:105A5000B0A800085AA900089CA80008E3AA0008FA
:105A6000B000002000BFDDE700BF00BF002F7FF4C3
:105A70007AAF00BFD6E72DE9FC4100200090012756
:105A800065E0012F04D100279DF80000FFF7C0FB5F
:105A90000A2002F092FE01909DF8040066283AD098
:105AA00006DC61280BD0622811D063284DD120E09C
:105AB000672848D0E6282FD0E72846D144E002F0F6
:105AC000BBFF9DF80000FFF723FE01273EE09DF895
:105AD0000000092805D29DF80000401CC0B20090CB
