:020000040800F2
:100000003007002045010008F90200084F050008EC
:1000100053050008570500085B05000800000000B4
:100020000000000000000000000000005F05000864
:100030006105000800000000630500086505000870
:100040005F0100085F0100085F0100085F01000810
:100050005F0100085F010008EF0500080F060008B7
:100060002F060008730600085F0100085F01000802
:100070005F0100085F0100085F0100085F010008E0
:100080005F0100085F0100085F0100085F010008D0
:100090005F0100085F0100085F010008ED0500082E
:1000A0005F0100085F0100085F0100085F010008B0
:1000B0005F010008670500085F0100085F01000894
:1000C0005F0100085F0100085F0100085F01000890
:1000D0005F010008FB0200085F0100085F010008E3
:1000E0005F0100085F0100085F0100085F01000870
:1000F0005F0100085F0100085F0100085F01000860
:100100005F0100085F0100085F0100085F0100084F
:100110005F0100085F0100085F0100085F0100083F
:100120005F0100085F0100085F0100085F0100082F
:10013000DFF80CD009F09AFC00480047890100085C
:10014000300700200648804706480047FEE7FEE7E4
:10015000FEE7FEE7FEE7FEE7FEE7FEE7FEE7FEE777
:100160006F8000083101000870B504460D46E1B209
:10017000234807F02DFA00BF8021214807F096FAA6
:100180000028F9D0204670BD02201E49087036E0D4
:100190001C4800780A282CD2DFE800F02B2805083C
:1001A0000D121A1D202302F017FA27E008F054FC64
:1001B00002F018FE22E008F04FFC02F0BEFE1DE047
:1001C00008F04AFC00201049087002F0BAFE15E061
:1001D00003F095FC12E004F059FE0FE004F03DFF3F
:1001E0000CE008F039FC05F056FC07E004F0B1FF24
:1001F00004E008F031FC04F0BAFF00BF00BFC7E71D
:1002000000380140030000200200002010B505F076
:10021000C3FE4FF4803005F0DFFE05F01CFF01281F
:1002200020D1002005F05DFF002005F06CFF4FF4A9
:10023000806005F05FFF4FF4E0114FF4803005F06F
:1002400033FF012005F03CFF00BF392005F0E7FE39
:100250000028FAD0022005F036FF00BF05F03CFF71
:100260000828FBD110BD00E0401E0028FCD17047DB
:10027000014601EBC1024FF0E0235A6100229A616E
:1002800001221A6100BF4FF0E022106900F0010264
:100290001AB100F48032002AF5D000224FF0E0239A
:1002A0001A619A617047014642F228324A434FF080
:1002B000E0235A6100229A6101221A6100BF4FF0C7
:1002C000E022106900F001021AB100F48032002A25
:1002D000F5D000224FF0E0231A619A617047054A79
:1002E0001154704701460348405C08B9012070472B
:1002F0000020FCE719000020704710B540F225519E
:10030000E84807F0E9F9002873D02021E54807F014
:10031000DAF9E54890F84800002846D1E348007E25
:1003200000280FD10621E14880F83910DD4807F098
:1003300053F9C4B2AA2C10D1DC48407E18B1002178
:10034000DA48417692E0D948417E407E401CC2B2F4
:10035000D64842761B30445488E0BB2C13D1D34896
:10036000417E407E401CC2B2D04842761B3044548D
:100370000120CE4908760846417E817600214176EB
:1003800080F8391072E0C948407E1E2803DB002146
:10039000C64841766AE0C548417E407E401CC2B2F4
:1003A000C24842761B30445460E0BF4890F8480091
:1003B00001285BD1BD48007E002857D10621BB48EB
:1003C00080F83910B74807F007F9C4B2B748407E43
:1003D00080B9112C03D00021B448417646E0B348DF
:1003E000417E407E401CC2B2B04842761B3044542D
:1003F0003CE04FE0AD48407E012812D1AA4890F879
:100400004900A04203D00021A84841762EE0A74829
:10041000417E407E401CC2B2A44842761B30445408
:1004200024E0A248407E1E2803DB00219F4841763D
:100430001CE09E48417E407E401CC2B29B484276F2
:100440001B3044541B38407E02280FDD9748417E04
:10045000407FC01C814209D101209449087608469A
:10046000417E81760021417680F839109048007EE7
:1004700000285DD106218D4880F83910894807F0A1
:10048000ABF8C4B2FF2C10D18948407E18B10021CE
:10049000874841764CE08648417E407E401CC2B28F
:1004A000834842761B30445442E0EE2C11D1804800
:1004B000407E012803D000217D48417638E07C4809
:1004C000417E407E401CC2B2794842761B30445483
:1004D0002EE0DD2C1BD17648407E042803D000217D
:1004E0007348417624E07248417E407E401CC2B28F
:1004F0006F4842761B30445401206D490876084607
:10050000417E81760021417680F8391010E06848FC
:10051000407E1E2803DB00216548417608E06448E0
:10052000417E407E401CC2B2614842761B3044543A
:100530004FF458715B4807F0CFF838B1082159489B
:1005400007F0C1F8574807F047F8C4B210BD00BF24
:10055000FEE700BFFEE700BFFEE700BFFEE7704713
:1005600070477047704710B50121524806F0F0FE01
:1005700008F045F95048007806281DD14F4800780A
:10058000401C4E4908700846007809281ADD0020F2
:10059000087001204A4908704A480089401C4949AE
:1005A000088149480068401C47490860474800687E
:1005B000401C4649086005E04048007810B1002022
:1005C0003E490870002409E04148005D20B14048E0
:1005D000005D401E3E490855601CC4B2022CF3DB8E
:1005E0003C48007808B908F0B4FC10BD704710B55D
:1005F0000121394805F015FC28B92B48408A10B173
:10060000052036490870012005F08FFF10BD10B598
:100610000120FFF748FE02212F4805F002FC10B927
:1006200008202E490870022005F07FFF10BD10B58C
:100630000520FFF738FE0421274805F0F2FBA0B99A
:100640001D480078032807D01B480078072803D0EE
:1006500019480078082806D105201749087000209D
:100660001F49087001E014480078042005F05DFF80
:1006700010BD10B50120FFF716FE0821164805F041
:10068000D0FB50B90C480078062803D107200A494E
:10069000087002E0032008490870082005F045FFB3
:1006A00010BD000000380140F00000207C02002056
:1006B000F002002000040040030000203C00002065
:1006C00001000020D4000020A40000201000002021
:1006D0001900002000000020001401400400002048
:1006E0002F00002010B50020FE490870487008F067
:1006F00032F9FD484088E8B1012804D002287DD0B5
:1007000003286ED13AE0F94808F0B8F90620F54917
:10071000087001204870F6A008F0C3F90E20F149D6
:10072000087001204870F3A008F0BBF9F42008F02D
:1007300055F9A2E0F0480078012803D1EF4808F00D
:100740009DF903E0ED48C01D08F098F90620E54941
:10075000087001204870E448808818B1E4A008F0CF
:10076000A0F902E0E6A008F09CF90E20DD4908702F
:1007700001204870E3A008F094F97EE0E248007898
:10078000B0B9DA4808F07AF90620D6490870012095
:100790004870D7A008F085F90E20D24908700120D2
:1007A0004870D4A008F07DF9F42008F017F924E08F
:1007B000D1480078012803D1D04808F05FF903E060
:1007C000CE48C01D08F05AF90620C649087001201D
:1007D0004870C548808828B1C5A008F062F904E0D7
:1007E0000CE049E0C6A008F05CF90E20BD49087095
:1007F00001204870C3A008F054F93EE0C2480078D8
:1008000018BBBD480078012803D1BC4808F036F970
:1008100003E0BA48C01D08F031F90620B14908705C
:1008200001204870B048808818B1B1A008F039F9AB
:1008300002E0B3A008F035F90E20AA4908700120A3
:100840004870B0A008F02DF915E0A84808F016F996
:100850000620A449087001204870A5A008F021F9DD
:100860000E20A049087001204870A2A008F019F9D4
:10087000F42008F0B3F800E000BF00BF072099495A
:100880000870002048709BA008F00BF99649097881
:100890003131C8B208F0E4F80F2092490870002006
:1008A0004870732008F0E2F804208E490870012097
:1008B000487096A008F0F5F810BD8B484A2102E078
:1008C00000220270401C0A1EA1F1010399B2F7D167
:1008D0008F4B1A707047002010E0834A921C02EB85
:1008E00040010A888B4B33F820309A4204DD894A54
:1008F00002EB800252880A80421CD0B20D28ECDB49
:100900007047F0B504461D46052A00DD052202B9F0
:100910000122042900DD0421914200DD114600205E
:1009200004E020267C4F3E54461CF0B20828F8D341
:10093000104611E00A2694FBF6F706FB1746303600
:10094000F7B2461EDFF8D0C10CF806700A2694FBF9
:10095000F6F6B4B2461EF0B20028EBDC81B11346C5
:10096000084605E05E1E6C4FBE5DFE545E1EF3B28F
:10097000061EA0F10107F8B2F4D12E26664FFE54F0
:10098000A5B900200EE0644E365C302E07D1624FD0
:10099000461CBE5D2E2E02D020263E5400E004E010
:1009A000461CF0B2561E8642EDDC00BF09B1561C53
:1009B000F2B2104604E00026574F3E54461CF0B2F7
:1009C0000828F8D3F0BD10B5474890F8480018B98A
:1009D000524808F053F807E0434890F848000128CF
:1009E00002D14F4808F04AF810BD10B53E4890F8C3
:1009F000480020B94948153008F040F808E03A4866
:100A000090F84800012803D14548153008F036F821
:100A100010BD10B543A008F031F810BD10B500208E
:100A200030490870487007F096FFFFF7CCFF0020B0
:100A30002C4908700120487007F08DFFFFF7D5FFA3
:100A400010BD10B52C490978C1EBC101384A88188E
:100A500008F027F810BD10B523484088032802DDB0
:100A600000202149488000201E490870487007F086
:100A700072FF1D49498801EB41012E4A02EB4100FA
:100A800008F00FF807201749087000204870164931
:100A90000978481C01231A460021FFF732FF15A0F0
:100AA00007F0FFFF1C4807F0E9FF0F4840880128C6
:100AB00003DD21A007F0E2FF02E020A007F0DEFF47
:100AC0000A200849087008484088032803D00648CF
:100AD0004088012837D10449488B00230422012192
:100AE0002EE00000AE000020F00000202BA0000847
:100AF000444300004D0000000400002039A000081D
:100B0000414300006D4100002F0000206B560000A3
:100B100002000020DCA60008B0000020EEA70008BC
:100B200085A7000853657020323320323032300000
:100B300046A70008ADA000085F00000020000000EC
:100B4000FFF7DFFE06E0F949C889002304220121EE
:100B5000FFF7D7FEF64807F0A4FFF6A007F08EFFD8
:100B60000020F549087001204870F048808840B99D
:100B7000EE48C088B0F5167F03DD4FF41671EB48E0
:100B8000C180EA484088032803D0E848408801280B
:100B90000AD1E649888A002303220221FFF7B1FE29
:100BA0000121E248818006E0E049C8880023032251
:100BB0000221FFF7A6FEDE4807F073FFAFF2B40094
:100BC00007F05CFF1421DD4808F0F1FBDB48D84951
:100BD00009680160DAA108F0F5FBD448808840B9C3
:100BE000D2484088032804D0AFF2EC0007F046FF5B
:100BF00003E0AFF2041007F041FFCC48408803281F
:100C000003D0CA48408801281CD10A20CA4908706C
:100C1000C649C88A002304221946FFF772FEC44859
:100C200007F03FFFAFF2341007F028FFF42007F081
:100C3000D5FEBF49C14808F0C5FBC2A1BF4808F0B6
:100C4000C1FB18E00920BC490870B8490889002395
:100C500004220221FFF755FEB54807F022FFAFF24C
:100C60005C1007F00BFFB249B44808F0ABFBB7A12A
:100C7000B24808F0A7FB10BD70B50546B44804782B
:100C800004F03F0475B1012D09D0022D04D0032DCD
:100C900009D144F0C00409E044F0800406E044F0C7
:100CA000400403E002E044F0C00400BF00BFA848D5
:100CB00004700020A7490860A5480078C0430006DA
:100CC000A349097840EA0120A34908600120A3490B
:100CD000C1F890016420FFF7E6FA70BD70B50446D4
:100CE0000020954908704870254604EBD5714910DD
:100CF000A4EB4101C1EBC10101EB4101984A881805
:100D000007F0CFFE00208C490870012048709548FC
:100D100007F0C7FE70BDF8B5044601278648007885
:100D20008DF80000844840788DF80100206808F0B4
:100D300055FBC6B2701CC6B2082E00DD082652E074
:100D400067B19DF800007C4908709DF8010048706B
:100D5000A288216806FB021007F0A3FE0A2007F014
:100D60003CFD0546E12D15D009DCA5F16100082800
:100D700037D2DFE800F00E201136362E3331A5F1E0
:100D8000E20007282DD2DFE800F017082C2C252AD6
:100D9000280000BF6120F8BD00BF0127A08861893D
:100DA000884203DDA088401EA08003E06089A08007
:100DB00008F020F916E000BF0127A088401CA080A1
:100DC000A0882189884203DD2089A08008F012F9DB
:100DD00008E000BF6620DEE700BF00BF00BF67205D
:100DE000D9E700BF00BFABE710B504460020524969
:100DF0000870487004EB840101EBC4015A4A88185A
:100E000007F04FFE00204C490870012048705748F9
:100E100007F047FE10BD10B504460A2094FBF0F120
:100E200000FB1140C4B234B1012C11D0022C19D0F6
:100E3000032C31D123E03E4807F033FE202007F099
:100E40000FFE562007F00CFE202007F009FE24E0DC
:100E5000374807F026FE202007F002FE732007F037
:100E6000FFFD1AE0324807F01CFE202007F0F8FDD5
:100E70004D2007F0F5FDF42007F0F2FD0DE02C48C1
:100E800007F00FFE202007F0EBFD4D2007F0E8FDF6
:100E9000F42007F0E5FD00E000BF00BF10BD10B575
:100EA000044600202449087048700E2C13D2DFE855
:100EB00004F007131FA5A6A7A8A9AAABF0F1F2F3A7
:100EC0002BA007F0EEFD00201B49087001204870A0
:100ED0002CA007F0E6FDFFE02EA007F0E2FD0020C9
:100EE00015490870012048702E4807F0DAFDF3E03C
:100EF0000E484088C8B1012804D0022858D00328E1
:100F000079D154E0A11E284A02EB011007F0C9FD77
:100F100000200949087001204870611E01EB011191
:100F2000204A881807F0BDFD66E03FE0F000002091
:100F3000B000002073000000AE000020FE01002081
:100F40006B563B004DA6B83B000000006D413B00D6
:100F5000A100002090812242101401400080224212
:100F6000FAA400084EA50008CCA50008B7A5000803
:100F70004D656D6F72793D2020202020202020209B
:100F80000000000052616E67653A312D3920202043
:100F9000202020005465737420203D202020202034
:100FA00020202000C5A0000847A0000800BF00BF07
:100FB0000020FB4908704870A11EFA4A02EB01109C
:100FC00007F06FFD0020F649087001204870F648D0
:100FD000808840B9A11E01EB0111F44A881807F07E
:100FE00060FD07E007E0A11E01EB0111F04A88183F
:100FF00007F057FD00E000BF00BF6DE000BF00BF7D
:1010000000BF00BF00BF00BFE7484088C8B101284B
:1010100004D0022817D0032834D113E0A11EE54ADA
:1010200002EB011007F03DFD0020DD4908700120B2
:101030004870611E01EB0111DF4A881807F031FD8D
:1010400021E000BF00BFA11E01EB0111DB4A88189F
:1010500007F027FD0020D249087001204870D248CF
:10106000808838B9611E01EB0111D04A881807F059
:1010700018FD06E0611E01EB0111CD4A881807F04A
:1010800010FD00E000BF00BF26E005E003E001E046
:10109000FFE700BF00BF00BFA11E01EB0111C74A5F
:1010A000881807F0FEFC0C2C01D00B2C07D10E2069
:1010B000BB49087000204870F42007F0D7FC0020DE
:1010C000B749087001204870611E01EB0111BC4A4C
:1010D000881807F0E6FC00BF00BF10BD2DE9F843FB
:1010E00004464FF00109AE4800788DF80000AC4886
:1010F00040788DF801000027A07908B9032600E0A8
:1011000004268BE1B9F1000F10D09DF80000A4492E
:1011100008709DF801004870A389DAB2A179A0880F
:101120000023FFF7EEFBA74807F0BBFC0A2007F0FF
:1011300054FB8046B8F1E10F15D009DCA8F161003D
:10114000082872D2DFE800F00E9C127171FBFAF9E8
:10115000A8F1E2000728F4D2DFE800F0D23F676789
:10116000F4F3F20000BF6120BDE8F8834FF00109FD
:10117000002795488079C0F10300B04202DA701E62
:10118000C5B200E03546914830F815006189084441
:10119000A188884206DCA0888C4931F81510401AD5
:1011A000A08019E06089052802D06089062813D143
:1011B0006089062806D1A08810B10020A08001E037
:1011C00007F018FF6089052806D1A08810B100201B
:1011D000A08001E007F00EFF1FE14FF00109781C2D
:1011E000C7B279488079C0F10300B04202DA701EBC
:1011F000C5B200E035461C2F0CDD002D01DD681E58
:10120000C5B2002D01DD681EC5B2002D14DD681EBB
:10121000C5B211E0132F09DD002D01DD681EC5B236
:10122000002D09DD681EC5B206E0F0E00A2F03DDDF
:10123000002D01DD681EC5B2644830F815006189D3
:101240000844A188884206DCA088604931F815105E
:10125000401AA08013E06089062806D1A08810B14A
:101260000020A08001E007F0C5FE6089052806D1B6
:10127000A08810B10020A08001E007F0BBFECCE008
:101280004FF00109002750488079C0F10300B042B7
:1012900002DA701EC5B200E035466089062802D029
:1012A000608905281CD1608906280AD1A08810B958
:1012B0000620A08005E0A088444931F815100844B4
:1012C000A080608905281AD1A08810B90520A080C7
:1012D00015E0A0883D4931F815100844A0800EE0C3
:1012E000A0882189884204DD2089A08007F082FE41
:1012F00005E0A088354931F815100844A0808CE03D
:101300004FF00109781CC7B22F488079C0F1030063
:10131000B04202DA701EC5B200E035461C2F12DD65
:10132000002D01DD681EC5B2002D01DD681EC5B2AD
:10133000002D19DD681EC5B216E063E064E05EE0D2
:1013400061E062E05CE0132F08DD002D01DD681E26
:10135000C5B2002D08DD681EC5B205E00A2F03DD09
:10136000002D01DD681EC5B26089062802D06089A3
:10137000052834D1608906280AD1A08810B9062032
:10138000A08005E0A088114931F815100844A0801C
:101390006089052832D1A088D0B90520A0802DE031
:1013A000AE0000201AA10008F00000209AA1000859
:1013B000DCA3000847A00008C5A0000833A200086D
:1013C000FFA20008B0000020C400002008A0000810
:1013D000A088FD4931F815100844A0800EE0A088CF
:1013E0002189884204DD2089A08007F003FE05E002
:1013F000A088F54931F815100844A0800DE000BF21
:101400006620B1E600BF08E000BF6720ACE6EF4809
:101410008078012800D0002700BF00BF72E62DE9C8
:10142000F041002500260027E948C08940F6D86130
:10143000884211DD012500BF002405E00020E549B8
:1014400041F82400601CC4B20C2CF7DB0020E249F8
:101450000870E249088009E0DD48C089B0F5B47F32
:1014600002DA0126002501E0002500260027DC48DD
:101470000078002816DD012D14D1D9480078401ECF
:10148000D74908700127002405E00020D14941F820
:101490002400601CC4B20C2CF7DB0020CE4908707D
:1014A000CE490880CE480078042816DA012E14D1DF
:1014B000CB480078401CCA4908700127002405E089
:1014C0000020C44941F82400601CC4B20C2CF7DB96
:1014D0000020C1490870C1490880012F06D1C048C9
:1014E0000078FFF7C9FB3220FEF7DDFEBDE8F08192
:1014F00001B590B00021109808F0B2F910D2109800
:1015000008F04EF90022B74BCDE9060108F035F896
:10151000CDE9080108F088F910900120B24908705F
:10152000109808F03DF9B14AB14BCDE9080108F037
:101530004BF901D211B000BD109808F031F9AD4A55
:10154000AD4BCDE9080108F057F958D2109808F0D2
:1015500027F9A84AA84BCDE9060108F080F8CDE9A3
:10156000080108F061F90E90A4480D9000200B903E
:1015700026200A903FE0DDE90D1007F0C0FF4FF094
:101580007E51099008F06CF90ED20D9808F008F918
:1015900000229B4BCDE9060108F061F8CDE9080176
:1015A00008F042F90D9000E028E00D9808F0F8F8F6
:1015B000944A954BCDE9020107F0DFFFCDE9060122
:1015C000109808F0EDF8CDE90401DDE9062308F0F4
:1015D00046F8CDE9080108F0CAF80C9082490C9849
:1015E00048600A9808720B98401C40B20B900A9809
:1015F000401E40B20A900B980428BCDB18E21098F9
:1016000008F0CEF8814A824BCDE9080108F0F4F8E1
:1016100058D2109808F0C4F87C4A7D4BCDE90601F9
:1016200008F01DF8CDE9080108F0FEF80E907948A1
:101630000D9000200B9023200A903FE0DDE90D1073
:1016400007F05DFF4FF07E51099008F009F90ED2C6
:101650000D9808F0A5F80022694BCDE9060107F0C6
:10166000FEFFCDE9080108F0DFF80D9000E028E06A
:101670000D9808F095F8684A684BCDE9020107F02B
:101680007CFFCDE90601109808F08AF8CDE9040145
:10169000DDE9062307F0E3FFCDE9080108F067F86C
:1016A0000C9051490C9848600A9808720B98401C9D
:1016B00040B20B900A98401E40B20A900B9808283E
:1016C000BCDB9BE7109808F06BF8554A554BCDE909
:1016D000080108F091F858D2109808F061F8504AC3
:1016E000504BCDE9060107F0BAFFCDE9080108F03B
:1016F0009BF80E9047480D9000200B901C200A90FC
:101700003FE0DDE90D1007F0FAFE4FF07E51099041
:1017100008F0A6F80ED20D9808F042F80022384BD7
:10172000CDE9060107F09BFFCDE9080108F07CF840
:101730000D9000E028E00D9808F032F83A4A3B4B53
:10174000CDE9020107F019FFCDE90601109808F074
:1017500027F8CDE90401DDE9062307F080FFCDE994
:10176000080108F004F80C901F490C9848600A988A
:1017700008720B98401C40B20B900A98401E40B271
:101780000A900B980828BCDBE3E3109808F008F8EF
:10179000274A284BCDE9080108F02EF87DD2109891
:1017A00007F0FEFF224A234BCDE9060107F057FF61
:1017B000CDE9080108F038F80E9016480D90002089
:1017C0000B9015200A9079E008A00008A8000020DE
:1017D000D40000207801002007000020080000202D
:1017E000060000200000F0BFE4000020ECCFC55F41
:1017F000FFFF0F38824DC7726142334700007A44C1
:101800000000244021D7E6FAE031F44581121F2F71
:10181000E727C0458096184B92D54D06CFF08044FF
:1018200050EFE2D6E41A4B4400003426F56B0C432B
:101830000000901EC4BCD642DDE90D1007F05FFE2B
:101840004FF07E51099008F00BF80ED20D9807F07A
:10185000A7FF0022F84BCDE9060107F000FFCDE914
:10186000080107F0E1FF0D9000E02AE00D9807F075
:1018700097FF0022F14BCDE9020107F07EFECDE992
:101880000601109807F08CFFCDE90401DDE906237D
:1018900007F0E5FECDE9080100E013E007F067FF7F
:1018A0000C90E7490C9848600A9808720B98401C05
:1018B00040B20B900A98401E40B20A900B9808283C
:1018C000BADB46E3109807F06BFF0022DD4BCDE951
:1018D000080107F091FF58D2109807F061FF00222D
:1018E000D84BCDE9060107F0BAFECDE9080107F0B3
:1018F0009BFF0E90D4480D9000200B900D200A9075
:101900003FE0DDE90D1007F0FAFD4FF07E51099040
:1019100007F0A6FF0ED20D9807F042FF0022C64B3B
:10192000CDE9060107F09BFECDE9080107F07CFF39
:101930000D9000E028E00D9807F032FF0022BE4B2A
:10194000CDE9020107F019FECDE90601109807F074
:1019500027FFCDE90401DDE9062307F080FECDE98C
:10196000080107F004FF0C90B5490C9848600A98EC
:1019700008720B98401C40B20B900A98401E40B26F
:101980000A900B980828BCDBE3E24FF07E511098D8
:1019900007F070FF4DD210980E90AB480D900020CC
:1019A0000B9007200A9021E0DDE90D1007F0A7FD5C
:1019B0004FF07E51099007F053FF0ED20D9807F0BB
:1019C000EFFE00229C4BCDE9060107F048FECDE971
:1019D000080107F029FF0D9000E00AE00B98401C79
:1019E00040B20B900A98401E40B20A900B9808280B
:1019F000DADB00BF0D9807F0D3FE944A944BCDE993
:101A0000020107F0BAFDCDE90601109807F0C8FE03
:101A1000CDE90401DDE9062307F021FECDE9080147
:101A200007F0A5FE0C9086490C9848600A98087249
:101A30008FE2109807F0B4FE864A874BCDE9080183
:101A400007F0DAFE59D2109807F0AAFE00227D4B6B
:101A5000CDE9060107F091FDCDE9080107F0E4FEAC
:101A60000E9079480D9000200B900A9041E0DDE93E
:101A70000D1007F044FD4FF07E51099007F0F0FE85
:101A80000ED20D9807F08CFE00226B4BCDE90601BB
:101A900007F0E5FDCDE9080107F0C6FE0D9000E076
:101AA0002AE00D9807F07CFE02460B46CDE90201C4
:101AB0006A486B4907F0D3FDCDE90601109807F09D
:101AC0006FFECDE90401DDE9062307F056FDCDE9FF
:101AD000080107F04CFE0C9059490C9848600A9890
:101AE00008720B98401C40B20B900A98401E40B2FE
:101AF0000A900B980828BADB2BE2109807F050FEEA
:101B0000584A594BCDE9080107F076FE5AD2109891
:101B100007F046FE554A564BCDE9060107F02DFD6C
:101B2000CDE9080107F080FE0E9047480D90002097
:101B30000B90C01F0A9041E0DDE90D1007F0DFFCBB
:101B40004FF07E51099007F08BFE0ED20D9807F0F2
:101B500027FE0022384BCDE9060107F080FDCDE9D4
:101B6000080107F061FE0D9000E02AE00D9807F0F3
:101B700017FE02460B46CDE902013E483E4907F0FA
:101B80006EFDCDE90601109807F00AFECDE90401CB
:101B9000DDE9062307F0F1FCCDE9080107F0E7FDD8
:101BA0000C9027490C9848600A9808720B98401CC2
:101BB00040B20B900A98401E40B20A900B98082839
:101BC000BADBC6E1109807F0EBFD2C4A2C4BCDE9AF
:101BD000080107F011FE7DD2109807F0E1FD294AB7
:101BE000294BCDE9060107F0C8FCCDE9080107F053
:101BF0001BFE0E9014480D9000200B906FF00D000E
:101C00000A906EE0DDE90D1007F079FC4FF07E518F
:101C1000099007F025FE39D20D9807F0C1FD00228A
:101C2000054BCDE9060107F01AFDCDE9080107F0E3
:101C3000FBFD0D902BE000000000244084D797416D
:101C4000E4000020D01263418096184B8DEDB5A0C2
:101C5000F7C6B03E48AFBC9AF2D77A3E000040E5E6
:101C60009C30A2429B2BA1869B84063D0000901EC7
:101C7000C4BCD642408CB5781DAF15444F9B0E0AAC
:101C8000B4E3923B50EFE2D6E41A4B442CE00D98BB
:101C900007F086FD02460B46CDE90201FD48FE49EC
:101CA00007F0DDFCCDE90601109807F079FDCDE9DC
:101CB0000401DDE9062307F060FCCDE9080107F027
:101CC00056FD0C90F5490C9848600A9808720B98DC
:101CD000401C00E009E040B20B900A98401E40B260
:101CE0000A900B9808288DDB33E1109807F058FD17
:101CF000EB4AEC4BCDE9080107F07EFD5BD2109872
:101D000007F04EFDE84AE94BCDE9060107F035FC46
:101D1000CDE9080107F088FD0E90E5480D90002000
:101D20000B906FF014000A9041E0DDE90D1007F010
:101D3000E6FB4FF07E51099007F092FD0ED20D9810
:101D400007F02EFD0022DB4BCDE9060107F087FCF2
:101D5000CDE9080107F068FD0D9000E02AE00D983C
:101D600007F01EFD02460B46CDE90201D248D349D9
:101D700007F075FCCDE90601109807F011FDCDE9DB
:101D80000401DDE9062307F0F8FBCDE9080107F0BF
:101D9000EEFC0C90C1490C9848600A9808720B98A8
:101DA000401C40B20B900A98401E40B20A900B981B
:101DB0000828BADBCDE0109807F0F2FCC04AC14B0E
:101DC000CDE9080107F018FD61D2109807F0E8FC92
:101DD000BD4ABE4BCDE9060107F0CFFBCDE90801B6
:101DE00007F022FD0E90B2480D9000200B906FF08E
:101DF0001B000A9047E0DDE90D1007F080FB4FF073
:101E00007E51099007F02CFD0ED20D9807F0C8FC0A
:101E10000022A84BCDE9060107F021FCCDE908011D
:101E200007F002FD0D9000E030E00D9807F0B8FCDF
:101E300002460B46CDE90001A348A44907F00FFC78
:101E4000CDE90401109807F0ABFCCDE90201DDE912
:101E5000042307F092FB00229D4BCDE9060107F019
:101E60008CFBCDE9080107F082FC0C908B490C98A3
:101E700048600A9808720B98401C40B20B900A9870
:101E8000401E40B20A900B980828B4DB61E010981D
:101E900007F086FC8F4A904BCDE9060107F06DFBF9
:101EA000CDE9080107F0C0FC0E908C480D90002091
:101EB0000B906FF022000A9047E0DDE90D1007F06B
:101EC0001EFB4FF07E51099007F0CAFC0ED20D9810
:101ED00007F066FC0022774BCDE9060107F0BFFB57
:101EE000CDE9080107F0A0FC0D9000E030E00D986E
:101EF00007F056FC02460B46CDE9000175487649CD
:101F000007F0ADFBCDE90401109807F049FCCDE9DD
:101F10000201DDE9042307F030FB00226C4BCDE920
:101F2000060107F02AFBCDE9080107F020FC0C9020
:101F30005A490C9848600A9808720B98401C40B2A5
:101F40000B900A98401E40B20A900B980428B4DB0C
:101F500000BF00BFFFF7EEBA70B5002560480078FB
:101F6000401C5F4908705F48C08949F6404188427B
:101F700004DC5C48C089B0F5FA6F06DA5A4800788C
:101F8000042802D000205649087058498A685849E8
:101F90000888411C564B1980564941F820201846A4
:101FA00000880C2802DB002019460880002408E085
:101FB000504850F82410284607F017FA0546601CD0
:101FC000C4B20C2CF4DB464800780C2808DB4A49E4
:101FD000284607F094FA454988600C20404908706B
:101FE00042498868FFF784FA2C4840684FF47A71B8
:101FF000B0FBF1F02949486070BD70B53B49C86835
:1020000007F09CFB054639480168284607F045FA69
:10201000044636484168204607F071FA3349886023
:1020200070BD10B52F48C0890A2802DA0A202D4950
:10203000C8812C49C88907F081FB2C4948602F488A
:102040002949097850F821002849C860FFF7D5FFD1
:1020500010BD2DE9F0410024012736E2012FFCD10B
:1020600000270E2C15D2DFE804F0074F5D85868728
:102070008889DD8AFEFDFCFB214D2888401C214912
:102080008880092008810120488100208871012072
:10209000888113E10284FEE471D98945E4000020BF
:1020A000196050BEF6B01F3A81121F2FE727C045B6
:1020B0008096184B00002440037CD8EA9BD0FE4653
:1020C0000F7AF8B7A595AA38824DC7726142334797
:1020D00080842E41B1A1162AD3CED24700007A4483
:1020E00007000020D4000020060000206801002026
:1020F00008000020780100200000404110A00008E6
:10210000F0000020C4000020F64DF748F7490860B1
:102110002888888003200881002048818871012058
:102120008881CBE0EF48801E408838B1012804D078
:10213000022805D003281BD101E019E000BF00BF31
:10214000E848801E8088012803DD0021E548801EC4
:102150008180E44DAD1CE648E44908602888888009
:10216000012008810020488188710120888100BFFA
:1021700000BFA3E000BF00BF00BF00BF00BFD94841
:10218000801E408838B1012804D0022805D00328D9
:1021900046D101E044E000BF00BFD248001D00EB83
:1021A0004400851FCF48801E8088E0B9D148CF49C0
:1021B000086028888880601ECF4931F82000CB490C
:1021C0000881601ECC4901EB80004088C7494881E6
:1021D000E01ECA4911F81000C4498871C84830F897
:1021E000140088811BE0C348C049086028888880A3
:1021F000601EC44931F82000BC490881601EC149F5
:1022000001EB80004088B9494881E01EBB4911F8C4
:102210001000B6498871BA4830F81400888100BFB0
:1022200000BF4BE0AF48801E008A012803DD00217B
:10223000AC48801E0182AB4D0E35B348AB490860F7
:1022400028888880601EAC4931F82000A7490881A1
:10225000601EA94901EB80004088A449488103E041
:102260000AE008E006E004E000208871012088818F
:1022700024E000BF00BF00BF9A48001D00EB4400EF
:10228000851FA2489949086028888880601E9A495D
:1022900031F8200095490881601E974901EB8000C4
:1022A000408892494881E01E944911F810008F49F6
:1022B0008871934830F81400888100BF00BF204621
:1022C000FEF7EDFD0E2C76D2DFE804F007111B259A
:1022D0002F39434D57616B7677780A208C49087007
:1022E000002048708148FEF7F9FE804671E0082022
:1022F00087490870002048707C48FEF70CFD804636
:1023000067E00A2082490870002048707748FEF78D
:1023100002FD80465DE00A207D490870002048707B
:102320007248FEF7DBFE804653E0072078490870CC
:10233000002048706D48FEF7D1FE804649E0072036
:1023400073490870002048706848FEF7C7FE804651
:102350003FE007206E490870002048706348FEF790
:10236000BDFE804635E008206949087000204870AD
:102370005E48FEF7B3FE80462BE0072064490870F4
:10238000002048705948FEF7C6FC804621E007202F
:102390005F490870002048705448FEF79FFE804651
:1023A00017E00A205A490870002048704F48FEF78D
:1023B00095FE80460DE00BE000BF00BF08205449A9
:1023C0000870002048704948FEF788FE804600E00B
:1023D00000BF00BF44B945488088401E288006F0F1
:1023E000ACFBFEF778FA02E0404880882880B8F11C
:1023F000680F61D009DCA8F16100072863D2DFE82B
:1024000000F00E464862624A5D00A8F1E10008282B
:1024100059D2DFE800F0053D3F585858545200BFEC
:102420003048801E4088012802D1012C00D10924A7
:102430002C48801E8088012806D1072C04D1601CFE
:10244000C4B2601CC4B201E0601CC4B2012C1CDD2B
:102450002448801E408840B1012804D0022807D0BB
:10246000032807D103E00E2606E00A2604E000BF99
:102470000E2601E00E2600BF00BFB44205DB00249B
:1024800003202449087006F047FB01271CE000BF29
:102490001AE000BF18E01348801EC088012803D14D
:1024A00002211048801EC18003201A49087006F0DE
:1024B00033FB06F0FFFA07E000BF05E000BF032092
:1024C0001449087000E000BF00BF124800780428DB
:1024D0003FF4C4ADBDE8F081704702460B4688B2B8
:1024E00070470000F200002095A00008C400002002
:1024F00087A000081AA10008A8A6000810A70008D5
:1025000026A7000874A600088FA0000833A20008C0
:10251000AE0000200300002010B54FF480732B4A5A
:102520002B492C4802F04EFE2A4802F075FE10BDE1
:10253000F0B50446059D27460E4602B9012207FB69
:1025400006FCBCFBF5FC0CFB03FCBCFBF2F0F0BD95
:1025500030B50246002006E0145C0A2594FBF5F431
:10256000E3B2441CE0B28842F6DB30BD70B50246EF
:102570000C46002012E0135CDD1703EB15752911E2
:10258000135CDD1703EB15752D11A3EB051501EB9E
:10259000810605EB46051554431CD8B2A042EADB80
:1025A00070BD30B50B460146C41700EB1474C4F37C
:1025B0000712C41700EB14742411A0EB041402EBEF
:1025C000820504EB4504E0B230BD0000089F00081E
:1025D0000C1001401C00024070B506F077FC06F0BC
:1025E0000AFC00214FF0804004F0D8FBFEF765F9AB
:1025F00006F067FA06F065FA06F09FFA06F071FA3F
:1026000006F081FA06F0AAFAFEF765F9FE480078AE
:10261000082802DD0020FC49087006F0DDFC06F009
:10262000E5FAFEF7FBF90020F8490870002438E0CD
:10263000601CC4B2142C02DD0320F54908700A2086
:1026400006F0CBF80546682D25D009DCA5F1610020
:10265000072824D2DFE800F01517190E1B1D2000F3
:10266000A5F1E10007281AD2DFE800F00C0E1005F2
:102670001214170000BF0920E549087006F0B3FCEA
:102680000EE000BF0CE000BF0AE000BF08E000BFA2
:1026900006E000BF04E003E000BF142400E000BF38
:1026A00000BFDB4800780228C2D006F08BFB70BD6B
:1026B0002DE9F04190B0FF260027D648007EB8B142
:1026C000D448407FD04981F84800D248807F81F8C3
:1026D00049001E21CF481B3006F069FE0020CD497D
:1026E00008760021CB48417606F0F2F906F002FAAE
:1026F000C54890F8480000287ED1C748007E0028D1
:102700007BD01C2101A806F052FE1C22C2491D31BB
:1027100001A806F033FEC048067F457F0020BE4971
:1027200008760021BC484176DE2E67D006DCCC2E30
:102730007ED0CE2E09D0DD2E7BD1C8E0EE2E79D012
:10274000F22E78D0F32EF7D1D2E0B44800780928E1
:1027500037D2DFE800F00536360C132F1A21280097
:10276000AF48B0A10A6802600979017130E0AC4855
:10277000AEA10A6802600979017129E0A848ADA1FB
:102780000A6802600979017122E0A548ABA10A68D4
:102790000260097901711BE0A148AAA10A680260E0
:1027A0000979017114E09E48A8A10A6802600979BC
:1027B00001710DE09A48A7A10A68026009790171C8
:1027C00006E09748A5A10A6802600979017100BF77
:1027D00000BF15219048C01C06F0E9FDAA208E49D3
:1027E000C8700020087010229E498B48001D06F01A
:1027F000C5FD8B49884802E013E211E27AE0C01C73
:1028000006F0E0FD00240EE08348C01C015D964800
:1028100004F0DEFE00BF8021934804F047FF00284B
:10282000F9D0601CC4B2152CEEDBBB218E4803E04E
:1028300046E0F4E17FE05CE004F0CAFE00BF8021E6
:10284000894804F033FF0028F9D08848008802281E
:1028500003D086480088032831D11521844806F02A
:10286000A6FDAA208249C91EC87000200870102247
:1028700080497F48401C06F081FD69497C4806F08C
:10288000A1FD00240DE07A48015D774804F0A0FE28
:1028900000BF8021744804F009FF0028F9D0601CB3
:1028A000C4B2152CEFDBBB216F4804F091FE00BFD2
:1028B00080216D4804F0FAFE0028F9D0B0E1AFE1C4
:1028C00000206D490870052051490870A8E1504862
:1028D0000078062808D103205049087007204C4989
:1028E000087006F06AFA02E003204949087097E18F
:1028F00096E195E135B1012D08D0102D0AD0112DAA
:1029000010D10BE00020404948800CE001203E49F6
:10291000488008E002203C49488004E003203A490E
:10292000488000E000BF00BF06F0C4F806F0F4F8ED
:10293000FEF791F874E19DF80500401E32490870D9
:10294000AC2D04D0AD2D5DD0DC2D5CD1ADE00021EF
:102950002D4881809DF807000121FFF722FE804667
:102960009DF806000121FFF71CFE00EBC00101EB02
:10297000001008EB80012448C1809DF80900012166
:10298000FFF70FFE80469DF808000121FFF709FEC2
:1029900000EBC00101EB001008EB80011A48018137
:1029A0009DF80B000121FFF7FCFD80469DF80A0011
:1029B0000121FFF7F6FD00EBC00101EB001008EB71
:1029C0008001114841819DF80D000121FFF7E9FDCB
:1029D00080469DF80C000121FFF7E3FD00EBC001EC
:1029E00001EB001008EB8001074881819DF80F0082
:1029F0000121FFF7D6FD80469DF80E000121FFF76B
:102A0000D0FD3BE0B6E002E1F00000200500002030
:102A100003000020F00200207C02002004000020BF
:102A2000400000204944454C0000000053544F50E2
:102A3000000000005041535300000000484947483F
:102A4000000000004C4F5720000000004F464C2073
:102A50000000000041524320000000005445535440
:102A600000000000FE01002000380140C8010020E5
:102A7000B9020020120200202F00002000EBC0014C
:102A800001EB001008EB8001FB48C1819DF810109C
:102A900041829DF81100502803D10021F64801829F
:102AA00002E00121F4480182B1E00121F248818075
:102AB0009DF80700FFF775FD80469DF8060001218F
:102AC000FFF76FFD00EBC00101EB001008EB800188
:102AD000E948C1809DF809000121FFF762FD8046A9
:102AE0009DF808000121FFF75CFD00EBC00101EB40
:102AF000001008EB8001E04801819DF80B000121E6
:102B0000FFF74FFD80469DF80A000121FFF749FDC0
:102B100000EBC00101EB001008EB8001D6484181B9
:102B20009DF80D000121FFF73CFD80469DF80C004B
:102B30000121FFF736FD00EBC00101EB001008EBAF
:102B40008001CD4881819DF80F000121FFF729FD0B
:102B500080469DF80E000121FFF723FD00EBC00128
:102B600001EB001008EB8001C348C1819DF81010F3
:102B700041824CE09DF807000121FFF712FD8046DD
:102B80009DF806000121FFF70CFD00EBC00101EBF1
:102B9000001008EB8001B84881829DF809000121EE
:102BA000FFF7FFFC80469DF808000121FFF7F9FCC4
:102BB00000EBC00101EB001008EB8001AE48C182C0
:102BC0009DF80B000121FFF7ECFC80469DF80A0000
:102BD0000121FFF7E6FC00EBC00101EB001008EB60
:102BE0008001A54801839DF80D000121FFF7D9FC64
:102BF00080469DF80C000121FFF7D3FC00EBC001DB
:102C000001EB001008EB80019B48418300BF00BF2F
:102C100005F050FF05F080FFFDF71DFF00E000BF4D
:102C2000DDE0954890F848000128F9D19348007EEE
:102C300078B11E2291491B3108A806F09FFB9DF830
:102C400022709DF8236000208C49087600218B4873
:102C5000417626B1012E44D0022E41D151E0022FFF
:102C600025D19DF82400542809D1002084490870FA
:102C700005208449087001208349087030E09DF8E0
:102C8000240052282CD17F48007806280BD103203D
:102C90007E49087007207B49087006F08EF80120F5
:102CA000794908701CE003207649087018E0032F6A
:102CB00016D19DF82400742812D1002070490870A4
:102CC0009DF825006C49087005F0F4FE03206D495D
:102CD000087005F032FFFDF7FEFD05206949087018
:102CE0007CE09DF824006449087005F0E3FE0320B1
:102CF0006449087005F021FFFDF7EDFDFDF7ABFE1F
:102D00006CE09DF82400624908700846007880094C
:102D1000594948805E480078C0F340115648818088
:102D20005B480078C0F3001153480182584800788E
:102D300000F00F01504841829DF8251081829DF8D6
:102D400027009DF8261000EB012081B24A48C1807F
:102D50009DF829009DF8281000EB012081B246481B
:102D600001819DF82B009DF82A1000EB012081B213
:102D7000414841819DF82D009DF82C1000EB012069
:102D800081B23D4881819DF82F009DF82E1000EB07
:102D9000012081B23848C1819DF831009DF8301082
:102DA00000EB012081B23448C1829DF833009DF8C8
:102DB000321000EB012081B22F4801839DF83500CD
:102DC0009DF8341000EB012081B22B48418305F0BF
:102DD00071FE05F0A1FEFDF73EFE00BF00BF10B082
:102DE000BDE8F08170B5002028490870FDF733FE7A
:102DF00005F014FF05F0C1FF00202149087096E09E
:102E0000FFF756FC0A2005F0E8FC0446662C71D05A
:102E100008DCA4F1610005286DD2DFE800F0101491
:102E20003D576300E62C78D004DC672C76D0682C04
:102E30007BD167E0E72C72D0E82C76D163E00420E8
:102E40001049087072E013480078A0B90A48007869
:102E5000401C0949087008460078082801DD002058
:102E6000087005F06AFEFDF736FD05F023FE05F05B
:102E7000F3FDFDF7F0FD59E0F00000207C0200209A
:102E80002F00002003000020480000200400002044
:102E90005000002005000020FE480078A8B9FE4838
:102EA000007828B1FC480078401EFB49087002E019
:102EB0000820F949087005F040FEFDF70CFD05F00B
:102EC000F9FD05F0C9FDFDF7C6FD2FE0F1480078DA
:102ED00018B1F0480078401E00E00320C5B2ED486C
:102EE000057023E0EB480078032806DAE94800780B
:102EF000401C03E010E018E00FE00020C5B2E548F8
:102F0000057013E000BF0520E44908700020E44983
:102F100008700BE002E002E000BF00BF00BF00202D
:102F2000DC490870DE49087000E000BF00BFDB48E4
:102F3000007803283FF464AF70BD10B5FFF789F83F
:102F400010BD10B513E00020D6490870D6490870AE
:102F5000D349087005F016FE00214FF0804003F0C1
:102F60001DFF0120D14908700620CC490870CB48CC
:102F700000780528E7D010BD10B5002005F002FE4E
:102F800000214FF0804003F009FF6420FDF78BF92A
:102F900005F08EFE10BD2DE9FC5F0120C3490870CD
:102FA000BD48B0F802808088C0B20090BA488088DE
:102FB000BF49097860F34511BD480170B648408AA1
:102FC000C0B20190002005F0E4FDB8F1000F2ED151
:102FD0000020B8490870B048C08800EB80004FF668
:102FE000FF7101EA4005AC488089012801D1022621
:102FF00001E0A94886892C460327F020AE490880C5
:1030000040F6D860AD4908809DF8000038B9AC485A
:1030100000884443A048808BB4FBF0F4CCE0A8487F
:10302000408844439C48008CB4FBF0F4C4E0B8F101
:10303000010F1DD14FF4B4709F49088040F6D8604D
:103040009E49088001209B49087000269248808A8A
:1030500000EB80004FF6FF7101EA40052C46052782
:103060009748808844438C48808CB4FBF0F4A3E0FC
:10307000B8F1030F4FD18848808A00EB80004FF6EB
:10308000FF7101EA400584488089012801D10226A8
:1030900001E0814886892C468A480078A0B94FF41F
:1030A000B4708549088040F6D860844908800120C2
:1030B0008049087005270026814880884443764867
:1030C000808CB4FBF0F477E0F0207B49088040F678
:1030D000D8607A4908800020764908706E48C08818
:1030E00000EB80004FF6FF7101EA40052C460327F4
:1030F0009DF8000038B97248008844436648808BC8
:10310000B4FBF0F458E06E48408844436248008CB9
:10311000B4FBF0F450E06B48007870BBF0206649D7
:10312000088040F6D860654908805B48808901289E
:1031300001D1022601E0584886895748C08800EB33
:1031400080004FF6FF7101EA40052C46032700205E
:10315000584908709DF8000038B959480088444320
:103160004D48808BB4FBF0F426E05548408844433A
:103170004948008CB4FBF0F41EE0FFE74FF4B47054
:103180004D49088040F6D8604C49088000264248E6
:10319000808A00EB80004FF6FF7101EA40052C4663
:1031A00005270120434908704548808844433A4830
:1031B000808CB4FBF0F400BFDFF8DC9009F11C094F
:1031C0004FF00B0BDFF800A14FF02C0B002705E0B0
:1031D00019F8010B0AF8010B781CC7B25F45F7DB41
:1031E00000203A4908603A4908803A4908603A495B
:1031F00008803A4908703A4908803A4908803A49B3
:1032000008703A4908803A4908803A49087000270E
:1032100008E00020384921F81700384921F8170044
:10322000781CC7B2082FF4DB31490C80002E7DD00A
:1032300001202D4908702E480488B4FBF6F4294972
:103240000C800488B4FBF6F006FB104424490C8083
:1032500024480088012869DA0A2023490870244894
:10326000048804EB84004400B4FBF6F41D490C8090
:103270001F48048804EB84004400B4FBF6F006FB0E
:10328000104417490C801748008801284EDA642042
:10329000154936E005000020F00000200300002062
:1032A000000000201B0000201C0000200400002063
:1032B000500000202E0000203000002032000020AE
:1032C000340000202F000020D20100200C0000203C
:1032D0001E000020140000202000002022000020FA
:1032E0002400002026000020280000202A000020C2
:1032F0002C00002001000020A8010020B8010020BF
:1033000014E00870FD48048804EB84004400B4FB1A
:10331000F6F4FB490C80F948048804EB840044006F
:10332000B4FBF6F006FB1044F6490C80B8F1000F30
:1033300012D0B8F1010F06D0B8F1020F54D0B8F195
:10334000030F7CD126E005F06FFD022005F0A5FDFE
:103350000220ED49087077E09DF8000048B105F0C3
:1033600063FD022005F099FD9DF8040005F011FCB5
:103370000FE005F075FDE548008A18B1012005F061
:103380008CFD02E0002005F088FD9DF8040005F0AA
:1033900000FC59E0DE48007840B905F045FD022008
:1033A00005F07BFD0220D84908701CE09DF8000064
:1033B00048B105F039FD022005F06FFD9DF80400CD
:1033C00005F0E7FB0FE005F04BFDD048008A18B18F
:1033D000012005F062FD02E0002005F05EFD9DF891
:1033E000040005F0D6FB2FE0C9480078F0B99DF83D
:1033F000000048B105F018FD022005F04EFD9DF8D3
:10340000040005F0C6FB19E005F02AFDBF48008A5C
:1034100018B1012005F041FD02E0002005F03DFD5E
:103420009DF8040005F0B5FB08E008E005F0FCFCA1
:10343000022005F032FD0220B349087004E00720A5
:10344000B4490870BDE8FC9F00BF002005F09AFB5E
:103450000121880703F0A2FC05F0AAFC0020AE4978
:10346000087008460078FDF707FC05F086FC05F0BB
:10347000D5FB05F005FC0820A8490870022048701B
:10348000162008700220487000200870A4480078B8
:1034900000EB4000202101EBC000A0494870002053
:1034A00008709F48007800EB4000C0002030487052
:1034B000B8F1000F09D0B8F1010F07D0B8F1020F31
:1034C00005D0B8F1030F04D102E000BF02E001E033
:1034D00000E000BF00BF002090490870FDF7B1FA7E
:1034E00000BFAFE738B58F480068B0F5805F03D301
:1034F00040F6FF708B4908608B480088B0F5805F0C
:1035000003DB40F6FF70884908808848008800285F
:103510003ED0012804D002287CD003287BD192E140
:10352000834840897F4A0090126893B27A4A1278A1
:10353000D21D7F4D05EB82025188774A1278D21D49
:1035400035F82200784A1288FEF7F2FF0446A0B24E
:10355000784908607348006800EB80004400284602
:103560000089444328464089B4FBF0F40A20B4FBA8
:10357000F0F100FB1140042800D90A340A20B4FB02
:10358000F0F4A0B20A2190FBF1F06649086014E261
:103590006548008800EB800044005C488088D8BB08
:1035A0005D480078C01C624931F8200044435A4805
:1035B0000078C01C01EB80004088B4FBF0F40A20C6
:1035C000B4FBF0F100FB1140042800D90A340A20B2
:1035D000B4FBF0F45849CC815248006800EB8000FD
:1035E000440053480088444351484088B4FBF0F4F9
:1035F0000A20B4FBF0F100FB1140042800D90A3482
:103600000A20B4FBF0F4A0B20A2190FBF1F0454986
:1036100008603BE03BE0CFE1FFE73F480078401D1A
:10362000434931F8200044433B480078401D01EBFA
:1036300080004088B4FBF0F40A20B4FBF0F100FBFA
:103640001140042800D90A340A20B4FBF0F43A49A6
:10365000CC813448006800EB800044003448808806
:1036600044433348C088B4FBF0F40A20B4FBF0F1C3
:1036700000FB1140042800D90A340A20B4FBF0F4FE
:10368000A0B20A2190FBF1F02649086095E120489C
:10369000007800287ED12448008800EB8000440098
:1036A0001A48808848BB1C480078C01C204931F863
:1036B0002000444318480078C01C01EB800040887B
:1036C000B4FBF0F40A20B4FBF0F100FB1140042835
:1036D00000D90A340A20B4FBF0F41749CC81114810
:1036E000006800EB80004400114800884443104803
:1036F0004088B4FBF0F40A2020E030E02C000020E9
:10370000260000202400002004000020F0000020FB
:103710002F0000200300002006000020AE00002043
:103720001C0000200C0000201E000020C80100200A
:10373000D201002014000020D4000020B4FBF0F1DE
:1037400000FB1140042800D90A340A20B4FBF0F42D
:10375000A0B20A2190FBF1F0FE49086072E0FE4839
:103760000078401DFD4931F820004443FA480078B4
:10377000401D01EB80004088B4FBF0F40A20B4FB4C
:10378000F0F100FB1140042800D90A340A20B4FBF0
:10379000F0F400E01FE0F249CC81EE48006800EB55
:1037A00080004400ED4880884443EC48C088B4FB66
:1037B000F0F40A20B4FBF0F100FB1140042800D91A
:1037C0000A340A20B4FBF0F4A0B20A2190FBF1F015
:1037D000E049086036E0E1484089DE4A009012681E
:1037E00093B2DD4A1278D21DDC4D05EB820251887E
:1037F000D94A1278D21D35F82200DA4A1288FEF72B
:1038000097FE0446A0B2D8490860D248006800EB91
:103810008000440028460089444328464089B4FB80
:10382000F0F40A20B4FBF0F100FB1140042800D9A9
:103830000A340A20B4FBF0F4A0B20A2190FBF1F0A4
:10384000C4490860B9E0C9480078B8BBC34840899A
:10385000C04A0090126893B2BF4A1278D21DBF4D81
:1038600005EB82025188BC4A1278D21D35F822003D
:10387000BC4A1288FEF75CFE0446A0B2BA49086052
:10388000B448006800EB80004400284600894443A7
:1038900028464089B4FBF0F40A20B4FBF0F100FBA9
:1038A0001140042800D90A340A20B4FBF0F4A0B275
:1038B0000A2190FBF1F0A74908607CE0FFE7A948E6
:1038C000008800EB80004400A9488088C8BBA2485B
:1038D0000078C01CA14931F8200044439E4800787C
:1038E000C01C01EB80004088B4FBF0F40A20B4FB5C
:1038F000F0F100FB1140042800D90A340A20B4FB7F
:10390000F0F49749CC819348006800EB80004400B4
:1039100092480088444391484088B4FBF0F40A2060
:10392000B4FBF0F100FB1140042800D90A340A204E
:10393000B4FBF0F4A0B20A2190FBF1F085490860D5
:1039400039E0FFE784480078401D844931F82000C1
:10395000444381480078401D01EB80004088B4FB5F
:10396000F0F40A20B4FBF0F100FB1140042800D968
:103970000A340A20B4FBF0F47949CC817548006818
:1039800000EB800044007548808844437348C08839
:10399000B4FBF0F40A20B4FBF0F100FB1140042862
:1039A00000D90A340A20B4FBF0F4A0B20A2190FB3B
:1039B000F1F06849086000E000BF00BF38BD0CB5F9
:1039C0006C480078082804DA6A480078401C694985
:1039D0000870072001900EE09DF80400401E664923
:1039E00031F810009DF8042021F812009DF8040021
:1039F000401EC0B201909DF804000028ECDC554840
:103A000000685D490880002000905A4800780190C5
:103A100007E059489DF8041030F811000099084457
:103A200000909DF80400411EC9B201910028F0D118
:103A3000504909780098B0FBF1F00090009880B2EE
:103A400044490860072001900EE09DF80400401EE4
:103A50004A4931F810009DF8042021F812009DF821
:103A60000400401EC0B201909DF804000028ECDC68
:103A70003C48008841490880002000903D4800787B
:103A8000019007E03D489DF8041030F811000099BE
:103A9000084400909DF80400411EC9B2019100281D
:103AA000F0D1344909780098B0FBF1F000902D492D
:103AB000009808800CBD0EB5002001900090029087
:103AC0000EE005F06FF801990844019005F070F8D8
:103AD0000099084400909DF80800401CC0B2029074
:103AE0009DF808001028ECDB0198C0F30F1019496D
:103AF00008600098C0F30F101A4908800EBD2DE928
:103B0000F04F87B00025AB460026A946AA46002400
:103B1000174840881A4908800846008805287DD241
:103B2000DFE800F032038453B3001648007820F039
:103B3000C0004030134908700D48C08A1049C88041
:103B40000B48008B08810A48408B48800220059072
:103B5000A2E000000C00002006000020D20100209E
:103B6000D40000201E000020140000202F000020A0
:103B7000F000002022000020A8010020B801002051
:103B8000C801002050000020F648007820F0C00056
:103B9000F4490870F4480089F449C880F248408923
:103BA0000881F148C0894880EF488089012802D106
:103BB0000220888003E0EC488089EC498880EA484C
:103BC000808800900120059066E0E648007820F0AB
:103BD000C000C030E3490870E548007860B9E248A9
:103BE000C08AE249C880E048008B0881DE48408BEB
:103BF00048800220059018E001200590DA480089ED
:103C0000DA49C880D84840890881D748C0894880A7
:103C1000D5488089012804D1022000E036E0888060
:103C200003E0D1488089D149888035E0CD480078CB
:103C300020F0C0008030CB490870CD480078B8B97A
:103C400001200590C8480089C849C880C6484089F5
:103C50000881C548C0894880C3488089012802D1AD
:103C60000220888010E0C0488089C04988800BE02D
:103C700002200590BC48C08ABC49C880BA48008B65
:103C80000881B948408B488006E005E00720B94923
:103C9000087007B0BDE8F08F00BFFFF77CF9002087
:103CA000039004900290B4490860B4490881B44973
:103CB0000880B44908700978B34A12781144C8B230
:103CC000FCF7DAFF00F0ACBFB048007801286CD1F7
:103CD0000020AE4908700125BDF8100042F20F71B6
:103CE000884204DABDF81000401C80B20490A84855
:103CF0000078012826D19DF80C00401CC0B203902A
:103D00009DF80C00A3490978884208DB0020039045
:103D10009B480088A0490988084499490880974829
:103D2000008992498988884222DB002093490881D2
:103D30009A480088924908800220954908704FF0FF
:103D4000010B15E0954800888D4908808748408818
:103D500000280DDD8948008984494988884207DBAD
:103D60000720844908700420894908704FF0010B2E
:103D70008348008804F006FF9DF80800401CC0B28C
:103D800002909DF80800092190FBF1F201FB12005E
:103D9000C0B202909DF80800052802DA04F0B7FBD3
:103DA00001E004F0B0FBFCF79DFCFFF784FEFFF799
:103DB00006FEFFF797FB7A4800887A49098888420F
:103DC00004DD4FF001094FF0000A0DE0744800884F
:103DD00075490988884204DA4FF0010A4FF000095A
:103DE00002E04FF00009CA460024664800789DF8BA
:103DF0001410884208DABAF1010F05D16148007841
:103E0000401C6049087001245E480078002808DDE5
:103E1000B9F1010F05D15B480078401E594908707F
:103E20000124012C1FD100206049087006900AE08F
:103E300000205F499DF8182021F812009DF8180015
:103E4000401CC0B206909DF818000828F0DB4D49D0
:103E500009784D4A12781144C8B2FCF70DFF3220A0
:103E6000FCF721FA09E14148008830B101282DD042
:103E7000022874D0032873D140E04248007801281A
:103E800006D13E48C0890A2190FBF1F03B49C88128
:103E9000BDF80000012803D140F22620019002E085
:103EA0004FF4966001903548C089BDF804108842EF
:103EB00003DD4FF6FF703149C88134B92B48808843
:103EC000BDF81010884200DC0126D5E03448008897
:103ED00048B1384800683849884208D94FF6FF7021
:103EE0003449086003E04FF6FF703249086024B996
:103EF000BDF81000022800DB0126BDE01C48007858
:103F0000B8B92748008848B12A4800682A49884239
:103F100008D94FF6FF702749086003E04FF6FF709D
:103F200024490860ECB9BDF8100002285BDB0126CB
:103F300059E014480078012806D11048C0890A21A8
:103F400090FBF1F00D49C8814FF496600190BDF8E7
:103F50000000012832D140F22620019031E043E0F8
:103F600089E040E050000020F0000020C80100205F
:103F70002F0000200300002010000020D4000020AB
:103F80002A000020060000202E0000200100002052
:103F90000400002028000020260000202C00002023
:103FA0001E000020320000203000002022000020EF
:103FB000B8010020140000209F8601004FF4966095
:103FC0000190FE48C089BDF80410884203DD4FF619
:103FD000FF70FA49C88134B9F9488088BDF81010DB
:103FE000884200DC012647E0F648007858BBF648D6
:103FF0000078012806D1F148C0890A2190FBF1F030
:10400000EE49C8814FF496600190BDF80000012888
:1040100003D140F22620019002E04FF49660019017
:10402000E648C089BDF80410884203DD4FF6FF70F2
:10403000E249C881F4B9E2488088BDF8101088428E
:1040400018DC012616E0E148008848B1E048006825
:10405000E049884208D94FF6FF70DD49086003E067
:104060004FF6FF70DA49086024B9BDF81000022845
:1040700000DB012600E000BF00BFD748007802281F
:104080007BD1012EFCD1002CFAD1CD48008830B173
:10409000012820D0022871D0032870D15EE0C748E3
:1040A000C0890190C648C088BDF80410884205DA6E
:1040B0000620C94908700220C8498870C048008994
:1040C000BDF80410884205DD0720C34908700320AD
:1040D000C24988701BE1BE48006880B20190BA48AE
:1040E000007820B101280BD0022819D110E0BDF8CA
:1040F00004004FF47A7190FBF1F080B2019010E06F
:10410000BDF80400642190FBF1F080B2019008E05A
:10411000BDF804000A2190FBF1F080B2019000E0AC
:1041200000BF00BFA648C088BDF80410884208DA66
:10413000A348C08828B10620A74908700820A749CD
:1041400088709F480089BDF80410884205DD07206B
:10415000A14908700920A1498870D8E099480078E1
:10416000C8BB9B48006880B201909748007838B17E
:1041700001280ED002281CD113E0C9E05CE0C5E0A4
:10418000BDF804004FF47A7190FBF1F080B2019019
:1041900010E0BDF80400642190FBF1F080B20190C2
:1041A00008E0BDF804000A2190FBF1F080B2019014
:1041B00000E000BF00BF8248C088BDF804108842FC
:1041C0000ADA7F48C08838B1062083490870082081
:1041D0008249887003E013E006208049887078489F
:1041E0000089BDF80410884206DD07207A4908706E
:1041F00009207A4988701EE00620784988701AE004
:104200006E48C08901906E48C088BDF8041088428D
:1042100005DA0620704908700220714988706848E4
:104220000089BDF80410884205DD07206A4908703E
:1042300003206B4988706AE06248007818BB5F48C9
:10424000C08901905E48C088BDF80410884206DA33
:1042500006206149087002206049887002E0002051
:104260005E49887056480089BDF80410884206DD12
:1042700007205949087003205849887045E00020FC
:104280005649887041E05248006880B201904E481B
:10429000007820B101280BD0022819D110E0BDF818
:1042A00004004FF47A7190FBF1F080B2019010E0BD
:1042B000BDF80400642190FBF1F080B2019008E0A9
:1042C000BDF804000A2190FBF1F080B2019000E0FB
:1042D00000BF00BF3A48C088BDF80410884208DA21
:1042E0003748C08828B106203B49087008203C495F
:1042F000887033480089BDF80410884205DD072026
:104300003549087009203649887000E000BF00BFB9
:104310003148007806280BD02F480078072807D0AE
:104320002D480078052803D02B480078082808D1AC
:1043300001202C49087007202B49087001254FF0F7
:10434000010B012D7DD10025002028490870012096
:1043500048701B48008830B1012873D0022872D001
:10436000032871D1AEE02248C088224909688842FA
:104370000BD91F48C0881F490968401A02280FD866
:104380001B48C0881B4908600AE01948C0881949C1
:104390000968081A022803D81548C088154908601A
:1043A0001449096888B2012303220221FCF7A9FA03
:1043B000114804F076FB1421104821E0D4000020BD
:1043C000C80100202F000020060000201E00002051
:1043D000140000209F860100040000202602002017
:1043E0003A0200200000002003000020AE00002060
:1043F000F00000200C000020B0000020FE01002092
:1044000004F0D5FFFC48FD4909680160FCA104F0F7
:10441000D9FFFC480068000AFB490871F9480068A8
:1044200048710920F9490870F949C8890023042214
:104430000221FCF766FAF7480078082824D0EF48F4
:1044400003E0C0E37FE165E2ABE304F02AFBEB4865
:1044500005F045FD074605F0E7F9EF490860EFA0D4
:1044600004F00CFBEC480078E7498871EA48407892
:10447000C871E94880780872E748C0784872E8A1B6
:10448000DD4804F09FFF10E0DC48E6A10A68026006
:104490000979017104F005FBE4A004F0EFFAFF20B4
:1044A000D9498871C87108724872D449D24804F059
:1044B00089FFD74800890012D3498872D4480089FF
:1044C000C8726FE3DA48007800287CD1D948808A26
:1044D000CC49096888420BD9D648808AC9490968FD
:1044E000401A02280FD8D348808AC64908600AE0DB
:1044F000D048808AC3490968081A022803D8CD48E1
:10450000808AC0490860BF49096888B20123032234
:104510000221FCF7F6F9B94804F0C3FA1421B648B1
:1045200004F045FFB448B54909680160B4A104F03E
:1045300049FFB4480068000AB3490871B1480068EF
:1045400048710920B1490870BB48006842F20F71F8
:10455000884225D9B9480078022810D1B6480068A9
:104560000A21B0FBF1F087B2B54AB4480078401C8C
:10457000115C012305223846FCF7C3F91BE0AE4865
:1045800000680A21B0FBF1F087B2AD4AAB48007871
:10459000401C115C012304223846FCF7B2F90AE002
:1045A000A74AA64B1B78D15CA34A126890B201239C
:1045B0000422FCF7A6F9A04800684FF6FF71884274
:1045C0001ED08E4800E035E004F06BFA8B498A4833
:1045D00004F0F8FE894805F082FC074605F024F94E
:1045E0008D49086008460078874988718A48407874
:1045F000C8718948807808728748C07848720CE092
:1046000090A004F04EFA8FA17B4804F0DBFEFF205F
:104610007D498871C871087248728CA1764804F08F
:10462000D1FE7B480089001277498872784800895A
:10463000C87287E07F48C0887249096888420BD9F0
:104640007C48C0886F490968401A02280FD8794809
:10465000C0886C4908600AE07648C08869490968E2
:10466000081A022803D87348C0886649086065495B
:10467000096888B2012303220221FCF742F95F484E
:1046800004F00FFA1421734804F091FE71485B495D
:10469000096801605AA104F095FE5A480068000AB2
:1046A0006D490871574800684871092057490870DA
:1046B0005749C889012304220221FCF722F95548F1
:1046C000007808281CD04D4804F0EBF94B4805F061
:1046D00006FC074605F0A8F84F4908600846007830
:1046E0005D4988714C484078C8714B4880780872A1
:1046F0004948C07848724AA13F4804F063FE0DE083
:104700003E4848A10A6802600979017104F0C9F9BC
:10471000FF2051498871C87108724872374936487C
:1047200004F050FE354805F0DAFB074605F07CF84A
:104730003949086036480089001247498872344870
:104740000089C8722EE23B48808A2E490968884257
:104750000BD93848808A2B490968401A02280FD89B
:104760003448808A274908600AE03248808A25490F
:104770000968081A022803D82E48808A214908604F
:104780002049096888B2012303220221FCF7B9F805
:104790001A4804F086F91421174804F008FE164858
:1047A00016490968016016A104F00CFE154800685E
:1047B000000A154908711348006848710920134917
:1047C00008701D48006842F20F71884257D91B4893
:1047D0000078022842D1184800680A21B0FBF1F0A5
:1047E00087B2174A15480078401C115C0023052247
:1047F0003846FCF786F84DE0FE010020B0000020AE
:104800006B563B000C00002026020020AE0000206A
:10481000D4000020040000204C0000206D41000066
:104820006D413B004F464C4120000000202000001D
:104830002F000020F00000201400002006000020BF
:104840008BA800082D2D2D2D2D0000004DA6B83B66
:1048500000000000120200203A020020F748006821
:104860000A21B0FBF1F087B2F54AF6480078401C07
:10487000115C002304223846FCF743F80AE0F04AB2
:10488000F04B1B78D15CED4A126890B201230422F0
:10489000FCF737F8E94800684FF6FF7188421CD0F2
:1048A000E94804F0FEF8E849E84804F08BFDE648E2
:1048B00005F015FB074604F0B7FFE5490860084618
:1048C0000078E4498871E2484078C871E04880780F
:1048D0000872DF48C07848720EE0AFF2980004F02A
:1048E000E0F8AFF2A001D94804F06CFDFF20D949EF
:1048F0008871C87108724872AFF2B001D34804F0F1
:1049000061FDD54800890012D2498872D2480089D9
:10491000C87247E1D1480078F0BBD148C088D1497E
:10492000096888420BD9CE48C088CE490968401A28
:1049300002280FD8CA48C088CA4908600AE0C84897
:10494000C088C8490968081A022803D8C448C08822
:10495000C4490860C349096888B2012303220221BF
:10496000FBF7CFFFB84804F09CF81421B74804F0D7
:104970001EFDB648B44909680160AFF27C1104F02D
:1049800021FDB8480068000AB2490871B5480068BE
:1049900048710920B44900E04DE00870AE49C8896B
:1049A000012304220221FBF7ACFFB048007808285D
:1049B00021D0A54804F075F8A34805F090FA074601
:1049C00004F032FFA2490860AFF2B01004F056F8CC
:1049D0009F4800789F4988719D484078C8719C48DD
:1049E000807808729A48C0784872AFF2CC11974824
:1049F00004F0E8FC12E09448AFF2D8110A680260B3
:104A00000979017104F04DF8AFF2E01004F036F8C6
:104A1000FF2090498871C871087248728A498B4892
:104A200004F0D0FC8C48008900128A4988728A48B8
:104A30000089C872B4E08A48808A8A490968884235
:104A40000BD98748808A87490968401A02280FD8FD
:104A50008348808A834908600AE08148808A8149C6
:104A60000968081A022803D87D48808A7D490860B1
:104A70007C49096888B2012303220221FBF741FF28
:104A8000714804F00EF81421794804F090FC78483D
:104A90006D4909680160AFF2982104F093FC7148F8
:104AA0000068000A734908716E480068487109205F
:104AB0006D4908706148006842F20F71884225D93B
:104AC00060480078022810D15C4800680A21B0FBD9
:104AD000F1F087B25A4A5B480078401C115C002311
:104AE00005223846FBF70DFF1BE0544800680A21F9
:104AF000B0FBF1F087B2524A52480078401C115C7A
:104B0000002304223846FBF7FCFE0AE04C4A4D4BDA
:104B10001B78D15C494A126890B201230422FBF74A
:104B2000F0FE464800684FF6FF7188421CD04648A8
:104B300003F0B7FF4449454804F044FC424805F0FF
:104B4000CEF9074604F070FE414908600846007837
:104B5000484988713E484078C8713D48807808725D
:104B60003B48C07848720EE0AFF2283003F099FF5E
:104B7000AFF230313E4804F025FCFF203D498871FA
:104B8000C87108724872AFF23C31394804F01AFC1F
:104B9000314800890012374988722F480089C8724D
:104BA00000E000BF00BF0A202F49087000204870B5
:104BB00029490889002304220121FBF7A2FE22488B
:104BC00003F06FFF00BFFDF773FD03F0FBFD0690E0
:104BD0009DF81800662814D008DC62280DD06328E0
:104BE0000CD064280BD0652818D109E067280AD0BA
:104BF000E62807D0E72811D106E010E00FE00EE02C
:104C00000DE000BF00BF00BF032018490870072057
:104C10001949087004F0D1F8FFF73BB800BF00BF96
:104C20001548007806283FF44FA80C480078401C2F
:104C30000A49087004F0C1F800BFEDE71400002035
:104C40008BA8000806000020B0000020FE01002014
:104C50004C00002026020020D40000202F0000205D
:104C6000F00000200C000020AE0000200400002016
:104C7000120200203A0200200300002010B55A2042
:104C8000FD490870FD4890F8490048705A20FC49D9
:104C90000870FA4890F849004870F848008AF949C5
:104CA000097860F30411F7480170F448408AF54927
:104CB000097860F30301F34801700078EE49C87089
:104CC000F0480078EE49C870EF480078002867D1B6
:104CD000EE48008870B9EE480078032805D0042813
:104CE00007D10020E449887003E00120E249887080
:104CF00000BF55E0E548008801280ED1E44800785F
:104D0000032805D0042807D10620DB49887003E07A
:104D10000720D949887000BF42E0DC48008803289A
:104D20001DD1DB480078032808D0042816D10620BE
:104D3000D14988700020D24988700FE0D5480078AA
:104D4000012803D10720CC49887006E0D1480078BB
:104D5000022802D10120CA49887000BF20E0CB4858
:104D6000008802281CD1CA480078032808D00428EB
:104D700015D10020C04988700620C14988700EE016
:104D8000C4480078012802D1BB49887006E0C148B8
:104D90000078022802D10720B949887000BF00BFFF
:104DA000B948007820B3B948008810BBB8480078EB
:104DB000C01E06281CD2DFE800F00F0313070B17F4
:104DC0000020AD49887013E00220AB4988700FE0E5
:104DD0000320A94988700BE00120A749887007E0EB
:104DE0000420A549887003E00520A349887000BF0E
:104DF0001FE0A648008801281BD1A5480078032899
:104E000012D0042804D0062806D0072810D107E0C5
:104E10000620994988700BE008209749887007E0C0
:104E200009209549887003E007209349887000BFE6
:104E300000BF00240DE09048015D974802F0C8FBD8
:104E400000BF8021944802F031FC0028F9D0601C9A
:104E5000C4B20C2CEFDB8D480088032803D08B48AC
:104E60000088022811D100240DE08548015D8A48A0
:104E700002F0AEFB00BF8021874802F017FC00283B
:104E8000F9D0601CC4B20C2CEFDB10BD2DE9F04151
:104E900000277A484088C5B2FEF76EF87C48007853
:104EA000032827D0052D1FD2DFE805F004030908E9
:104EB0001D0000BF0820794908701AE000BF75483E
:104EC000007801280BD172480078042803D106200D
:104ED0007249087006E008207049087002E0082056
:104EE0006E49087005E004E007206C490870BDE8D1
:104EF000F0812CE0052D1CD2DFE805F00403060547
:104F00001A001AE019E018E06248007801280BD175
:104F10005F480078042803D106206049087006E045
:104F200008205E49087002E008205C49087004E02F
:104F300003E0072059490870D9E700BF58480078B6
:104F4000012804D1FFF79AFE00205549087000207F
:104F5000544908704870FBF774FD04F044F84C485D
:104F60000078032807D108204E49087002204870B5
:104F70004FF6FF740CE04C480078401C4A4908701A
:104F80004A480078032803DB082044490870AEE74C
:104F90005DE08FB100270E20424908700420487060
:104FA0000123042219462046FBF7ABFC404803F0DE
:104FB00065FD732003F054FD0120FBF793F970B1F8
:104FC0003348007803280AD04FF6FF70844206D099
:104FD00001270A210120FBF782F9601E84B2012C0F
:104FE00002DA06202D490870FDF762FB052003F068
:104FF000F4FB0646672E0CD004DC642E07D0652E29
:1050000023D105E0682E19D0E72E1ED102E01DE065
:105010001CE000BF1E48007803280BD04FF6FF703D
:10502000844203D103201D49087006E0032018497B
:10503000087002E003201949087007E000201549B4
:10504000087006201549087000E000BF00BF134833
:10505000007807289DD000BF49E770B5012503F00F
:1050600027FE0F480078012804D1FFF707FE002033
:105070000B49087065E0000026020020F0000020C7
:105080003A0200205000002000000020C80100204B
:10509000040000202F000020003801400300002001
:1050A00048000020AE0000201C0000201B00002053
:1050B000B0000020012D19D1002516203C490870B0
:1050C000022048703B48007830B103F077FD03F0D0
:1050D00054FE03F0BCFD09E003F08CFF3648007875
:1050E000042803D103F09AFD03F02CFEFDF7E0FA4B
:1050F000022003F072FB0446672C19D006DC642CF6
:105100000BD0652C0AD0662C19D10FE0682C06D084
:10511000E62C0CD0E72C12D10BE011E010E00020BF
:105120002649087005202649087009E000BF07E0FD
:1051300000BF03202249087003F058FD00E000BFC3
:1051400000BF1F4800780828B4D000201949087013
:1051500070BD10B506E003F0B9FE03F0FFFC0320BC
:1051600017490870164800780128F4D010BD10B512
:1051700018E00A200E4908700220487004200870C8
:1051800032204870002406E003F034FF0320FBF7D0
:105190008AF8601CC4B20A2CF6DB012008490870AA
:1051A00003F0BCFE064800780028E2D010BD0000E5
:1051B000AE00002000000020040000202F0000208E
:1051C000030000202DE9F04107460D4616461C4617
:1051D0000121084601F041F8384602F0AFFD1248BF
:1051E0000480124805604660102010498860084617
:1051F000C460002008618020486100208861C86187
:10520000202008624FF440504862002088623846EF
:1052100002F036FEBDE8F08110B5044601212046BB
:1052200002F059FE10BD0000520000205002002084
:1052300070B504460020F949087048700A20B4FB94
:10524000F0F100FB114000EB0010F549451828462D
:1052500003F027FC0920F14908700020487003F092
:105260007AFB0020ED49087001204870ED4803F0FA
:1052700018FC70BD2DE9FF4704464FF0000A03F00B
:10528000EBFBE94830F825000190E74800EB85008A
:10529000408800900B25E54FDFF89483A800039029
:1052A000002505E017F8010B08F8010B681CC5B2D2
:1052B0009DF80C008542F5DB0020DE490860DE49E0
:1052C0000880DE490860DE490870DE49087003F096
:1052D00054FD03F0A3FC03F0D3FC03F084FE00268E
:1052E0000220D94908700A210120FAF7F8FF0120AD
:1052F000CA49487002200870D44803F0D2FB00204D
:10530000C6494870087004EB0411D14A881803F0AC
:10531000C8FB002003F036FC0B2C6CD2DFE804F055
:105320000616263637475758595A5B0003F098FD42
:10533000002003F0B2FD0121880701F02FFD03F0EA
:1053400037FDC449088803F01DFC58E003F06CFDEC
:10535000022003F0A2FD0121880701F01FFD03F0E8
:1053600027FDBC49488803F00DFC48E003F05CFDD4
:10537000022003F092FD0121880701F00FFD03F0E8
:1053800017FDB449888803F0FDFB38E000BF03F047
:1053900067FD002003F081FD0121880701F0FEFC7C
:1053A00003F006FDAB49888803F0ECFB27E003F02F
:1053B0003BFD022003F071FD0121880701F0EEFCA6
:1053C00003F0F6FC4FF4B47003F0DCFB17E000BF11
:1053D00000BF00BF00BF03F027FD022003F05DFD0A
:1053E0000121880701F0DAFC03F0E2FC9949888882
:1053F00003F0C8FB03E0002003F0C4FB00BF00BFC4
:105400008FE10120FAF76EFF28B101208D49087065
:105410000A21FAF764FF8B480078012817D1002091
:10542000884908704FF0010A09F1010000F0FF09F6
:10543000092099FBF0F100FB119000F0FF09B9F190
:10544000050F02DA03F01CFC01E003F031FC03F06D
:10545000AFFB8149C88103F0A5FB7F4908601CB1FF
:10546000012C01D0022C06D17B480068704901EB69
:10547000840148803EE0032C0DD0062C0BD0042C78
:1054800001D1012000E00020052C01D1012100E024
:105490000021084330B17048C089654901EB84019F
:1054A000488027E06C49096801EB8101480004F05D
:1054B00045F96A4908606848C0890A2802DA0A2062
:1054C0006549C8816449C88904F038F9634948606E
:1054D000E01F634951F820006049C860FCF78DFD6A
:1054E000FCF73AFD5D49486804F02DF9504901EB9D
:1054F00084014880BDF80800BDF80410884205DC2E
:10550000BDF8080000BFBDF8000000BFBAF1010FF0
:1055100012D14FF0000A0A2040490870002048705C
:10552000504A115D424A32F8240001230422FBF75D
:10553000E8F94D4803F0B5FA03F044F903909DF8FB
:105540000C00672865D008DCA0F16200052861D254
:10555000DFE800F00C47AFB1B300E2281ED0E3282B
:1055600059D0E62858D0E72854D1CBE0002630485F
:1055700030F82400401C2E4921F82400084630F859
:105580002400294931F82410884206DD264800EB22
:1055900084004088264921F82400C1E0701CC6B26E
:1055A0000A2E07DD224830F824000A30204921F86D
:1055B000240006E01E4830F82400401C1C4921F855
:1055C00024001B4830F82400174931F82410884281
:1055D00006DD154800EB84004088154921F82400B9
:1055E0009EE00026124830F82400401E104921F8A1
:1055F0002400084630F824000B4931F82410884272
:1056000006DD094800EB84004088094921F82400A0
:1056100086E076E083E029E050E00000AE00002064
:10562000D0A80008F2AA000890A800080C010020E9
:10563000D20100200C0000201E00002014000020D9
:105640000600002001000020040000208BA90008B3
:1056500048AA000834000020D4000020680100207F
:1056600010A0000803AB0008B0000020701CC6B2F8
:105670000A2E07DDF94830F824000A38F74921F8E6
:10568000240006E0F54830F82400401EF34921F8D4
:105690002400F24830F82400F14931F824108842FF
:1056A00006DDEF4800EB84004088EC4921F8240037
:1056B00036E0002634E0002632E000BF00214FF043
:1056C000804001F06BFB03F078FB002003F05AFAF6
:1056D00003F0EEFAE34FDFF88483282003900025DF
:1056E00005E018F8010B07F8010B681CC5B29DF81E
:1056F0000C008542F5DB03F03AFA03F0D9FABDE875
:10570000FF8700BF00214FF0804001F047FB03F00E
:1057100054FB002003F036FA03F0CAFAEFE700BFAB
:1057200000BFD148007809283FF46BAE00BFE6E720
:105730002DE9FC5F0446012000903220FAF7B3FD0A
:105740000020CA494870087004EB0411C84A881840
:1057500003F0A7F90120C549487000200870C5482A
:1057600003F09FF9002718E0BC4830F82700BC4937
:1057700031F82410884208DCB84830F82700B849CE
:1057800001EB84014988884205DABB4830F81700EC
:10579000B24921F82700781CC7B20A2FE4D3DFF8FA
:1057A000C492DFF8B8A24FF02808002705E019F8E6
:1057B000010B0AF8010B781CC7B24745F7DBA84874
:1057C00030F8245000EB840046880B2C76D2DFE8BA
:1057D00004F0063F76192C4F628699ACC100002078
:1057E000FBF74AFA9F481C38808BA84204DC9D488E
:1057F0001C38808BB04204DA4FF47A60974921F864
:105800002400BDE00020FBF737FA96481C38008DD5
:10581000A84204DC93481C38008DB04204DA4FF4EF
:105820007A708E4921F82400AAE00120FBF724FABF
:105830008C481C38008CA84204DC8A481C38008C38
:10584000B04204DA4FF47A70844921F8240097E0DA
:1058500084481C38008CA84204DC82481C38008C28
:10586000B04204DA4FF47A607C4921F8240087E0E2
:105870000020FBF701FA7B481C38008EA84204DCAC
:1058800078481C38008EB04204DA4FF4FA7073493D
:1058900021F8240074E00120FBF7EEF971481C3870
:1058A000808EA84204DC6F481C38808EB04204DA37
:1058B0004FF47A70694921F8240061E05FE069489B
:1058C0001C38808CA84204DC66481C38808CB042AE
:1058D00004DA4FF47A70614921F8240050E0012085
:1058E000FBF7CAF95F481C38008FA84204DC5D480A
:1058F0001C38008FB04204DA4FF47A70574921F80F
:1059000024003DE00220FBF7B7F956481C38808F91
:10591000A84204DC53481C38808FB04204DA4FF4AC
:105920007A704E4921F824002AE00320FBF7A4F9FD
:105930004C481C38B0F84000A84205DC49481C38E7
:10594000B0F84000B04204DA4FF47A70434921F8CD
:10595000240015E00320FBF78FF942481C38B0F80B
:105960004400A84205DC3F481C38B0F84400B0426F
:1059700004DA4FF47A70394921F8240000E000BFBE
:1059800000BF012782E00098012828D10020009064
:105990003A4810F804B004200190304931F824004E
:1059A00000235946019AFAF7ACFF00202F494870AE
:1059B0000A200870324803F074F800202B49487020
:1059C000087004EB04112A4A881803F06AF80120D1
:1059D0002649487000200870264803F062F80A2023
:1059E00002F0FBFE8046B8F1680F2DD009DCA8F16B
:1059F0006100072848D2DFE800F00E181E47472450
:105A00004500A8F1E10007283ED2DFE800F00511CB
:105A1000173D3D1B3C0000BF2046FFF72BFC03F069
:105A20001BF80120009000272FE0012000902CE0BF
:105A30000120009029E00120009026E00120009044
:105A400023E000BFBDE8FC9F2046FFF713FC03F0F6
:105A500003F801200090002717E00000D201002089
:105A600090A800080C01002003000020AE000020D8
:105A7000D0A800087AA90008BCA8000803AB000859
:105A8000B000002000BFDDE700BF00BF002F7FF4A3
:105A90007AAF00BFD6E72DE9FC4100200090012736
:105AA00065E0012F04D100279DF80000FFF7C0FB3F
:105AB0000A2002F092FE01909DF8040066283AD078
:105AC00006DC61280BD0622811D063284DD120E07C
:105AD000672848D0E6282FD0E72846D144E002F0D6
