:020000040800F2
:100000006807002045010008F9020008CD05000836
:10001000D1050008D5050008D9050008000000003A
:10002000000000000000000000000000DD050008E6
:10003000DF05000800000000E1050008E3050008F6
:100040005F0100085F0100085F0100085F01000810
:100050005F0100085F0100086D0600088D060008BA
:10006000AD060008330700085F0100085F010008C3
:100070005F0100085F0100085F0100085F010008E0
:100080005F0100085F0100085F0100085F010008D0
:100090005F0100085F0100085F0100086B060008AF
:1000A0005F0100085F0100085F0100085F010008B0
:1000B0005F010008E50500085F0100085F01000816
:1000C0005F0100085F0100085F0100085F01000890
:1000D0005F010008FB0200085F0100085F010008E3
:1000E0005F0100085F0100085F0100085F01000870
:1000F0005F0100085F0100085F0100085F01000860
:100100005F0100085F0100085F0100085F0100084F
:100110005F0100085F0100085F0100085F0100083F
:100120005F0100085F0100085F0100085F0100082F
:10013000DFF80CD009F044FD0048004789010008B1
:10014000680700200648804706480047FEE7FEE7AC
:10015000FEE7FEE7FEE7FEE7FEE7FEE7FEE7FEE777
:10016000C38100083101000870B504460D46E1B2B4
:10017000234807F0D7FA00BF8021214807F040FB51
:100180000028F9D0204670BD02201E49087036E0D4
:100190001C4800780A282CD2DFE800F02B2805083C
:1001A0000D121A1D202302F063FA27E008F0FEFC6E
:1001B00002F056FE22E008F0F9FC02F0FCFE1DE021
:1001C00008F0F4FC00201049087002F0F8FE15E079
:1001D00003F024FD12E004F0EEFE0FE004F0F4FF63
:1001E0000CE008F0E3FC05F000FD07E005F049F83D
:1001F00004E008F0DBFC05F052F800BF00BFC7E7E1
:1002000000380140030000200200002010B505F076
:100210006DFF4FF4803005F089FF05F0C6FF01281F
:1002200020D1002006F007F8002006F016F84FF461
:10023000806006F009F84FF4E0114FF4803005F0CB
:10024000DDFF012005F0E6FF00BF392005F091FF3A
:100250000028FAD0022005F0E0FF00BF05F0E6FF1D
:100260000828FBD110BD00E0401E0028FCD17047DB
:10027000014601EBC1024FF0E0235A6100229A616E
:1002800001221A6100BF4FF0E022106900F0010264
:100290001AB100F48032002AF5D000224FF0E0239A
:1002A0001A619A617047014642F228324A434FF080
:1002B000E0235A6100229A6101221A6100BF4FF0C7
:1002C000E022106900F001021AB100F48032002A25
:1002D000F5D000224FF0E0231A619A617047054A79
:1002E0001154704701460348405C08B9012070472B
:1002F0000020FCE719000020704710B540F225519E
:10030000F84807F093FA00287ED02021F54807F03E
:1003100084FAF54890F84800002858D1F34890F83E
:100320002B00002811D10621F04880F84C10ED4830
:1003300007F0FCF9C4B2ED4890F82C0098B9AA2C4B
:1003400004D00021E94880F82C10B5E0E74890F887
:100350002C1090F82C00401CC2B2E44880F82C20ED
:100360002E304454A8E0BB2C1AD1E04890F82C1051
:1003700090F82C00401CC2B2DC4880F82C202E30B3
:1003800044540120D94981F82B00084690F82C10DC
:1003900080F82D10002180F82C1080F84C108BE094
:1003A000D24890F82C001E2804DB0021CF4880F8AA
:1003B0002C1081E0CD4890F82C1090F82C00401CB7
:1003C000C2B2CA4880F82C202E30445474E0C6488B
:1003D00090F8480001286FD1C44890F82B000028FD
:1003E0006AD10621C14880F84C10BE4807F09EF93A
:1003F000C4B2BE4890F82C00A0B9112C05D0002141
:10040000BA4880F82C1057E06DE0B84890F82C10EE
:1004100090F82C00401CC2B2B44880F82C202E303A
:10042000445449E0B14890F82C00012813D1082C1D
:1004300004D00021AD4880F82C103DE0AB4890F886
:100440002C1090F82C00401CC2B2A84880F82C2038
:100450002E30445430E0A54890F82C001E2804DBD0
:100460000021A24880F82C1026E0A04890F82C101B
:1004700090F82C00401CC2B29C4880F82C202E30F2
:1004800044542E3890F82C00022815DD974890F837
:100490002C1090F83000C01C81420DD101209349EE
:1004A00081F82B00084690F82C1080F82D100021C0
:1004B00080F82C1080F84C108D4890F82B00002804
:1004C00075D10621894880F84C10864807F02EF92E
:1004D000C4B2874890F82C0098B9FF2C04D00021B2
:1004E000834880F82C1062E0814890F82C1090F836
:1004F0002C00401CC2B27E4880F82C202E30445480
:1005000055E07B4890F82C00012813D1EE2C04D044
:100510000021774880F82C1049E0754890F82C109D
:1005200090F82C00401CC2B2714880F82C202E306C
:1005300044543CE06E4890F82C00042821D1DD2C76
:1005400004D000216A4880F82C1030E0684890F808
:100550002C1090F82C00401CC2B2654880F82C206A
:100560002E3044540120624981F82B00084690F84F
:100570002C1080F82D10002180F82C1080F84C10E1
:1005800015E05B4890F82C001E2804DB0021584839
:1005900080F82C100BE0564890F82C1090F82C00A6
:1005A000401CC2B2524880F82C202E3044544FF4E4
:1005B00058714C4807F03AF938B10821494807F01A
:1005C0002CF9484807F0B2F8C4B210BD00BFFEE7EE
:1005D00000BFFEE700BFFEE700BFFEE770477047C1
:1005E0007047704710B50121424806F05BFF08F0E4
:1005F000B0F94148007806281DD140480078401CD9
:100600003E4908700846007809281ADD0020087065
:1006100001203B4908703B480089401C394908814A
:1006200039480068401C3849086038480068401C58
:100630003649086005E03148007810B100202F49A4
:100640000870002409E03248005D20B13048005DA8
:10065000401E2F490855601CC4B2022CF3DB2D4804
:10066000007808B908F01FFD10BD704710B50121D2
:10067000294805F080FC28B91B48408A10B10520A4
:1006800026490870012005F0FAFF10BD10B50120C1
:10069000FFF709FE0221204805F06DFC10B9082083
:1006A0001E490870022005F0EAFF10BD10B50520B4
:1006B000FFF7F9FD0421184805F05DFC90BB0E48DA
:1006C0000078032807D00C480078072803D00A4890
:1006D0000078082827D10520074908700020104914
:1006E000087022E000380140F00000207C02002069
:1006F0001603002000040040030000203C000020FE
:1007000001000020D4000020A400002010000020E0
:100710001900002000000020001401400400002007
:100720002F00002001E00F480078042005F0A7FF0B
:1007300010BD10B50120FFF7B6FD08210A4805F0ED
:100740001AFC50B907480078062803D1072005494C
:10075000087002E0032003490870082005F08FFFAD
:1007600010BD0000030000200014014010B500205F
:10077000FE490870487008F098F9FD484088E8B1D3
:10078000012804D002287DD003286ED13AE0F94830
:1007900008F01EFA0620F549087001204870F6A0FE
:1007A00008F029FA0E20F149087001204870F3A0E2
:1007B00008F021FAF42008F0BBF9A2E0F048007834
:1007C000012803D1EF4808F003FA03E0ED48C01D0B
:1007D00008F0FEF90620E549087001204870E44859
:1007E000808818B1E4A008F006FA02E0E6A008F05C
:1007F00002FA0E20DD49087001204870E3A008F0DD
:10080000FAF97EE0E2480078B0B9DA4808F0E0F999
:100810000620D649087001204870D7A008F0EBF9EF
:100820000E20D249087001204870D4A008F0E3F9E6
:10083000F42008F07DF924E0D1480078012803D1A4
:10084000D04808F0C5F903E0CE48C01D08F0C0F953
:100850000620C649087001204870C548808828B124
:10086000C5A008F0C8F904E00CE049E0C6A008F013
:10087000C2F90E20BD49087001204870C3A008F0DD
:10088000BAF93EE0C248007818BBBD48007801289C
:1008900003D1BC4808F09CF903E0BA48C01D08F039
:1008A00097F90620B149087001204870B048808847
:1008B00018B1B1A008F09FF902E0B3A008F09BF9CD
:1008C0000E20AA49087001204870B0A008F093F9E2
:1008D00015E0A84808F07CF90620A449087001201A
:1008E0004870A5A008F087F90E20A04908700120E3
:1008F0004870A2A008F07FF9F42008F019F900E090
:1009000000BF00BF072099490870002048709BA0D5
:1009100008F071F9964909783131C8B208F04AF9FE
:100920000F209249087000204870732008F048F9A1
:1009300004208E4908700120487096A008F05BF9E9
:1009400010BD8B484A2102E000220270401C0A1EA2
:10095000A1F1010399B2F7D18F4B1A7070470020B3
:1009600010E0834A921C02EB40010A888B4B33F85B
:1009700020309A4204DD894A02EB800252880A80C4
:10098000421CD0B20D28ECDB7047F0B504461D4682
:10099000052A00DD052202B90122042900DD042117
:1009A000914200DD1146002004E020267C4F3E5499
:1009B000461CF0B20828F8D3104611E00A2694FB32
:1009C000F6F706FB17463036F7B2461EDFF8D0C101
:1009D0000CF806700A2694FBF6F6B4B2461EF0B286
:1009E0000028EBDC81B11346084605E05E1E6C4F23
:1009F000BE5DFE545E1EF3B2061EA0F10107F8B202
:100A0000F4D12E26664FFE54A5B900200EE0644EA8
:100A1000365C302E07D1624F461CBE5D2E2E02D0B2
:100A200020263E5400E004E0461CF0B2561E8642EA
:100A3000EDDC00BF09B1561CF2B2104604E00026FE
:100A4000574F3E54461CF0B20828F8D3F0BD10B5FD
:100A5000474890F8480018B9524808F0B9F807E03C
:100A6000434890F84800012802D14F4808F0B0F8F8
:100A700010BD10B53E4890F8480020B949481530DF
:100A800008F0A6F808E03A4890F84800012803D199
:100A90004548153008F09CF810BD10B543A008F08B
:100AA00097F810BD10B5002030490870487007F065
:100AB000FCFFFFF7CCFF00202C4908700120487094
:100AC00007F0F3FFFFF7D5FF10BD10B52C490978EB
:100AD000C1EBC101384A881808F08DF810BD10B577
:100AE00023484088032802DD002021494880002057
:100AF0001E490870487007F0D8FF1D49498801EB6E
:100B000041012E4A02EB410008F075F80720174911
:100B100008700020487016490978481C01231A46BD
:100B20000021FFF732FF15A008F065F81C4808F017
:100B30004FF80F484088012803DD21A008F048F84D
:100B400002E020A008F044F80A200849087008488C
:100B50004088032803D006484088012837D104493B
:100B6000488B0023042201212EE00000AE0000206B
:100B7000F00000207FA10008444300004D00000069
:100B8000040000208DA10008414300006D410000D9
:100B90002F0000206B5600000200002030A8000843
:100BA000B0000020EEA80008D9A800084F63742008
:100BB00032312032303230009AA8000801A20008F9
:100BC0005F00000020000000FFF7DFFE06E0FD49A7
:100BD000C889002304220121FFF7D7FEFA4808F054
:100BE0000AF8FAA007F0F4FF0020F9490870012084
:100BF0004870F448808840B9F248C088B0F5167F44
:100C000003DD4FF41671EF48C180EE48408801289B
:100C10000AD1EC49888A002303220221FFF7B5FE9E
:100C20000121E848818012E0E6484088032807D186
:100C3000E449888A002303220221FFF7A6FE06E08A
:100C4000E049C888002303220221FFF79EFEDE4808
:100C500007F0D1FFAFF2C40007F0BAFF1421DD485E
:100C600008F04FFCDB48D84909680160DAA108F0B8
:100C700053FCD448808840B9D2484088032804D027
:100C8000AFF2FC0007F0A4FF03E0AFF2141007F08E
:100C90009FFFCC484088032803D0CA4840880128D9
:100CA0001CD10A20CA490870C649C88A00230422F8
:100CB0001946FFF76AFEC44807F09DFFAFF24410E3
:100CC00007F086FFF42007F033FFBF49C14808F062
:100CD00023FCC2A1BF4808F01FFC18E00920BC4952
:100CE0000870B8490889002304220221FFF74DFE4D
:100CF000B54807F080FFAFF26C1007F069FFB2490A
:100D0000B44808F009FCB7A1B24808F005FC10BDD2
:100D100070B50546B448047804F03F0475B1012D60
:100D200009D0022D04D0032D09D144F0C00409E0FC
:100D300044F0800406E044F0400403E002E044F0A4
:100D4000C00400BF00BFA84804700020A749086085
:100D5000A5480078C0430006A349097840EA01206D
:100D6000A34908600120A349C1F890016420FFF75E
:100D70009AFA70BD70B50446002095490870487015
:100D8000254604EBD5714910A4EB4101C1EBC1012B
:100D900001EB4101984A881807F02DFF00208C498B
:100DA000087001204870954807F025FF70BDF8B520
:100DB00004460127864800788DF800008448407872
:100DC0008DF80100206808F0B3FBC6B2701CC6B2F3
:100DD000082E00DD082652E067B19DF800007C492E
:100DE00008709DF801004870A288216806FB021077
:100DF00007F001FF0A2007F09AFD0546E12D15D006
:100E000009DCA5F16100082837D2DFE800F00E20E8
:100E10001136362E3331A5F1E20007282DD2DFE856
:100E200000F017082C2C252A280000BF6120F8BDEF
:100E300000BF0127A0886189884203DDA088401E89
:100E4000A08003E06089A08008F07EF916E000BF72
:100E50000127A088401CA080A0882189884203DD4A
:100E60002089A08008F070F908E000BF6620DEE766
:100E700000BF00BF00BF6720D9E700BF00BFABE7DE
:100E800010B50446002052490870487004EB8401F4
:100E900001EBC4015A4A881807F0ADFE00204C4906
:100EA000087001204870574807F0A5FE10BD10B526
:100EB00004460A2094FBF0F100FB1140C4B234B1A7
:100EC000012C11D0022C19D0032C31D123E03E4843
:100ED00007F091FE202007F06DFE562007F06AFE15
:100EE000202007F067FE24E0374807F084FE20202A
:100EF00007F060FE732007F05DFE1AE0324807F04D
:100F00007AFE202007F056FE4D2007F053FEF42015
:100F100007F050FE0DE02C4807F06DFE202007F092
:100F200049FE4D2007F046FEF42007F043FE00E0A6
:100F300000BF00BF10BD10B5044600202449087052
:100F400048700E2C13D2DFE804F007131FA5A6A7E4
:100F5000A8A9AAABF0F1F2F32BA007F04CFE0020F9
:100F60001B490870012048702CA007F044FEFFE0E8
:100F70002EA007F040FE002015490870012048709F
:100F80002E4807F038FEF3E00E484088C8B101282B
:100F900004D0022858D0032879D154E0A11E284A51
:100FA00002EB011007F027FE00200949087001201C
:100FB0004870611E01EB0111204A881807F01BFEE2
:100FC00066E03FE0F0000020B00000207300000069
:100FD000AE000020FE0100206B563B004DA6B83B42
:100FE000000000006D413B00A100002090812242E2
:100FF00010140140008022424EA60008A2A600085C
:1010000020A700080BA700084D656D6F72793D2081
:1010100020202020202020200000000052616E6748
:10102000653A312D3920202020202000546573742A
:1010300020203D20202020202020200019A2000870
:101040009BA1000800BF00BF0020FB49087048704A
:10105000A11EFA4A02EB011007F0CDFD0020F6496F
:10106000087001204870F648808840B9A11E01EB45
:101070000111F44A881807F0BEFD07E007E0A11E41
:1010800001EB0111F04A881807F0B5FD00E000BF40
:1010900000BF6DE000BF00BF00BF00BF00BF00BFCA
:1010A000E7484088C8B1012804D0022817D0032897
:1010B00034D113E0A11EE54A02EB011007F09BFDBD
:1010C0000020DD49087001204870611E01EB01110C
:1010D000DF4A881807F08FFD21E000BF00BFA11E86
:1010E00001EB0111DB4A881807F085FD0020D24989
:1010F000087001204870D248808838B9611E01EB21
:101100000111D04A881807F076FD06E0611E01EB58
:101110000111CD4A881807F06EFD00E000BF00BF46
:1011200026E005E003E001E0FFE700BF00BF00BFED
:10113000A11E01EB0111C74A881807F05CFD0C2CB9
:1011400001D00B2C07D10E20BB490870002048703D
:10115000F42007F035FD0020B749087001204870E1
:10116000611E01EB0111BC4A881807F044FD00BF65
:1011700000BF10BD2DE9F84304464FF00109AE4809
:1011800000788DF80000AC4840788DF80100002709
:10119000A07908B9032600E004268AE1B9F1000F1E
:1011A00010D09DF80000A44908709DF80100487017
:1011B000A389DAB2A179A0880023FFF7E6FBA7484C
:1011C00007F019FD0A2007F0B2FB8046B8F1E10FE5
:1011D00015D009DCA8F16100082872D2DFE800F020
:1011E0000E9C127171FAF9F8A8F1E2000728F4D206
:1011F000DFE800F0D13F6767F3F2F10000BF612044
:10120000BDE8F8834FF00109002795488079C0F1C7
:101210000300B04202DA701EC5B200E035469148C4
:1012200030F8150061890844A188884206DCA0884E
:101230008C4931F81510401AA08019E06089052802
:1012400002D06089062813D16089062806D1A088BB
:1012500010B10020A08001E007F076FF608905282A
:1012600006D1A08810B10020A08001E007F06CFF3B
:101270001EE14FF00109781CC7B279488079C0F1AE
:101280000300B04202DA701EC5B200E035461C2FE2
:101290000CDD002D01DD681EC5B2002D01DD681ECC
:1012A000C5B2002D14DD681EC5B211E0132F09DD93
:1012B000002D01DD681EC5B2002D09DD681EC5B216
:1012C00006E0EFE00A2F03DD002D01DD681EC5B248
:1012D000644830F8150061890844A188884206DC1A
:1012E000A088604931F81510401AA08013E0608989
:1012F000062806D1A08810B10020A08001E007F0E8
:1013000023FF6089052806D1A08810B10020A080A5
:1013100001E007F019FFCBE04FF00109002750482A
:101320008079C0F10300B04202DA701EC5B200E05D
:1013300035466089062802D0608905281CD160895D
:1013400006280AD1A08810B90620A08005E0A08850
:10135000444931F815100844A0806089052819D146
:10136000A08810B90520A08014E0A0883D4931F87C
:1013700015100844A0800DE0A0883A4931F81510F6
:101380000844A080A0882189884203DD2089A080AC
:1013900007F0DAFE8CE04FF00109781CC7B2304844
:1013A0008079C0F10300B04202DA701EC5B200E0DD
:1013B00035461C2F12DD002D01DD681EC5B2002D43
:1013C00001DD681EC5B2002D19DD681EC5B216E02C
:1013D00063E064E05EE061E062E05CE0132F08DD62
:1013E000002D01DD681EC5B2002D08DD681EC5B2E6
:1013F00005E00A2F03DD002D01DD681EC5B26089FE
:10140000062802D06089052835D1608906280AD1CE
:10141000A08810B90620A08005E0A088114931F805
:1014200015100844A0806089052832D1A088D8B959
:101430000520A0802DE00000AE0000206EA2000874
:10144000F0000020EEA2000830A500089BA10008D3
:1014500019A2000887A3000853A40008B0000020C8
:10146000C40000205CA10008A088FD4931F81510D7
:101470000844A0800DE0A088F94931F8151008440F
:10148000A080A0882189884203DD2089A08007F000
:101490005BFE0DE000BF6620B2E600BF08E000BFC3
:1014A0006720ADE6EF488078012800D0002700BF14
:1014B00000BF73E62DE9F041002500260027EA4829
:1014C000C08940F6D861884211DD012500BF0024A3
:1014D00005E00020E54941F82400601CC4B20C2C52
:1014E000F7DB0020E2490870E249088009E0DE48A5
:1014F000C089B0F5B47F02DA0126002501E000259D
:1015000000260027DC480078002816DD012D14D1C4
:10151000D9480078401ED84908700127002405E00A
:101520000020D24941F82400601CC4B20C2CF7DB27
:101530000020CF490870CF490880CF4800780428A0
:1015400016DA012E14D1CC480078401CCA49087024
:101550000127002405E00020C44941F82400601C54
:10156000C4B20C2CF7DB0020C1490870C1490880C7
:10157000012F06D1C0480078FFF7CAFB3220FEF7E2
:1015800092FEBDE8F08101B590B00021109808F0FE
:1015900011FA10D2109808F0ADF90022B74BCDE93E
:1015A000060108F094F8CDE9080108F0E7F9109079
:1015B0000120B3490870109808F09CF9B14AB24B69
:1015C000CDE9080108F0AAF901D211B000BD1098C8
:1015D00008F090F9AD4AAE4BCDE9080108F0B6F934
:1015E00058D2109808F086F9A84AA94BCDE906010F
:1015F00008F0DFF8CDE9080108F0C0F90E90A54821
:101600000D9000200B9026200A903FE0DDE90D10A0
:1016100008F01FF84FF07E51099008F0CBF90ED278
:101620000D9808F067F900229B4BCDE9060108F000
:10163000C0F8CDE9080108F0A1F90D9000E028E01C
:101640000D9808F057F9954A954BCDE9020108F03D
:101650003EF8CDE90601109808F04CF9CDE90401F7
:10166000DDE9062308F0A5F8CDE9080108F029F91D
:101670000C9083490C9848600A9808720B98401C9B
:1016800040B20B900A98401E40B20A900B98042872
:10169000BCDB19E2109808F02DF9824A824BCDE9A3
:1016A000080108F053F958D2109808F023F97D4A40
:1016B0007D4BCDE9060108F07CF8CDE9080108F082
:1016C0005DF90E9079480D9000200B9023200A9030
:1016D0003FE0DDE90D1007F0BCFF4FF07E510990AF
:1016E00008F068F90ED20D9808F004F900226A4B50
:1016F000CDE9060108F05DF8CDE9080108F03EF9F2
:101700000D9000E028E00D9808F0F4F8684A694B65
:10171000CDE9020107F0DBFFCDE90601109808F0E2
:10172000E9F8CDE90401DDE9062308F042F8CDE946
:10173000080108F0C6F80C9051490C9848600A98C6
:1017400008720B98401C40B20B900A98401E40B2A1
:101750000A900B980828BCDB9BE7109808F0CAF8A1
:10176000554A564BCDE9080108F0F0F858D21098C8
:1017700008F0C0F8504A514BCDE9060108F019F8BD
:10178000CDE9080108F0FAF80E9048480D900020C5
:101790000B901C200A903FE0DDE90D1007F059FF87
:1017A0004FF07E51099008F005F90ED20D9808F01F
:1017B000A1F80022384BCDE9060107F0FAFFCDE988
:1017C000080108F0DBF80D9000E028E00D9808F023
:1017D00091F83B4A3B4BCDE9020107F078FFCDE998
:1017E0000601109808F086F8CDE90401DDE906232A
:1017F00007F0DFFFCDE9080108F063F80C902049FD
:101800000C9848600A9808720B98401C40B20B90E4
:101810000A98401E40B20A900B980828BCDBE4E30B
:10182000109808F067F8284A284BCDE9080108F01D
:101830008DF87CD2109808F05DF8234A234BCDE94F
:10184000060107F0B6FFCDE9080108F097F80E9001
:1018500016480D9000200B9015200A907AE00000A9
:101860005CA10008A8000020D4000020780100201E
:101870000700002008000020060000200000F0BF44
:10188000E4000020ECCFC55FFFFF0F38824DC77228
:101890006142334700007A440000244021D7E6FA31
:1018A000E031F44581121F2FE727C0458096184B81
:1018B00092D54D06CFF0804450EFE2D6E41A4B4467
:1018C00000003426F56B0C430000901EC4BCD642C9
:1018D000DDE90D1007F0BDFE4FF07E51099008F0D4
:1018E00069F80ED20D9808F005F80022F84BCDE902
:1018F000060107F05EFFCDE9080108F03FF80D9002
:1019000000E02AE00D9807F0F5FF0022F14BCDE949
:10191000020107F0DCFECDE90601109807F0EAFFAE
:10192000CDE90401DDE9062307F043FF00E015E0FF
:10193000CDE9080107F0C5FF0C90E7490C98486015
:101940000A9808720B98401C40B20B900A98401EEF
:1019500040B20A900B980828BADB46E3109807F0CB
:10196000C9FF0022DD4BCDE9080107F0EFFF58D297
:10197000109807F0BFFF0022D84BCDE9060107F011
:1019800018FFCDE9080107F0F9FF0E90D4480D903B
:1019900000200B900D200A903FE0DDE90D1007F0CC
:1019A00058FE4FF07E51099008F004F80ED20D98C1
:1019B00007F0A0FF0022C64BCDE9060107F0F9FEB3
:1019C000CDE9080107F0DAFF0D9000E028E00D985E
:1019D00007F090FF0022BE4BCDE9020107F077FE31
:1019E000CDE90601109807F085FFCDE90401DDE996
:1019F000062307F0DEFECDE9080107F062FF0C9038
:101A0000B5490C9848600A9808720B98401C40B27F
:101A10000B900A98401E40B20A900B980828BCDB35
:101A2000E3E24FF07E51109807F0CEFF4DD21098B0
:101A30000E90AB480D9000200B9007200A9021E0FB
:101A4000DDE90D1007F005FE4FF07E51099007F01B
:101A5000B1FF0ED20D9807F04DFF00229C4BCDE94F
:101A6000060107F0A6FECDE9080107F087FF0D90FB
:101A700000E00AE00B98401C40B20B900A98401E10
:101A800040B20A900B980828DADB00BF0D9807F0E7
:101A900031FF944A944BCDE9020107F018FECDE9DD
:101AA0000601109807F026FFCDE90401DDE90623C1
:101AB00007F07FFECDE9080107F003FF0C9086498F
:101AC0000C9848600A9808728FE2109807F012FF8D
:101AD000864A874BCDE9080107F038FF59D21098A4
:101AE00007F008FF00227D4BCDE9060107F0EFFD6E
:101AF000CDE9080107F042FF0E9079480D900020D3
:101B00000B900A9041E0DDE90D1007F0A2FD4FF0C7
:101B10007E51099007F04EFF0ED20D9807F0EAFEB5
:101B200000226B4BCDE9060107F043FECDE9080129
:101B300007F024FF0D9000E02AE00D9807F0DAFE90
:101B400002460B46CDE902016A486B4907F031FEB7
:101B5000CDE90601109807F0CDFECDE90401DDE9DD
:101B6000062307F0B4FDCDE9080107F0AAFE0C90AA
:101B700059490C9848600A9808720B98401C40B26A
:101B80000B900A98401E40B20A900B980828BADBC6
:101B90002BE2109807F0AEFE584A594BCDE90801E8
:101BA00007F0D4FE5AD2109807F0A4FE554A564BBF
:101BB000CDE9060107F08BFDCDE9080107F0DEFE57
:101BC0000E9047480D9000200B90C01F0A9041E0F6
:101BD000DDE90D1007F03DFD4FF07E51099007F053
:101BE000E9FE0ED20D9807F085FE0022384BCDE9B4
:101BF000060107F0DEFDCDE9080107F0BFFE0D90FC
:101C000000E02AE00D9807F075FE02460B46CDE98C
:101C100002013E483E4907F0CCFDCDE9060110988F
:101C200007F068FECDE90401DDE9062307F04FFD6A
:101C3000CDE9080107F045FE0C9027490C98486053
:101C40000A9808720B98401C40B20B900A98401EEC
:101C500040B20A900B980828BADBC6E1109807F04A
:101C600049FE2C4A2C4BCDE9080107F06FFE7DD2CE
:101C7000109807F03FFE294A294BCDE9060107F0ED
:101C800026FDCDE9080107F079FE0E9014480D906D
:101C900000200B906FF00D000A906EE0DDE90D1052
:101CA00007F0D7FC4FF07E51099007F083FE39D240
:101CB0000D9807F01FFE0022054BCDE9060107F045
:101CC00078FDCDE9080107F059FE0D902BE00000EA
:101CD0000000244084D79741E4000020D0126341E3
:101CE0008096184B8DEDB5A0F7C6B03E48AFBC9AB4
:101CF000F2D77A3E000040E59C30A2429B2BA186A1
:101D00009B84063D0000901EC4BCD642408CB57832
:101D10001DAF15444F9B0E0AB4E3923B50EFE2D641
:101D2000E41A4B442CE00D9807F0E4FD02460B4604
:101D3000CDE90201FD48FE4907F03BFDCDE9060172
:101D4000109807F0D7FDCDE90401DDE9062307F07F
:101D5000BEFCCDE9080107F0B4FD0C90F5490C98E4
:101D600048600A9808720B98401C00E009E040B2F5
:101D70000B900A98401E40B20A900B9808288DDB01
:101D800033E1109807F0B6FDEB4AEC4BCDE90801C2
:101D900007F0DCFD5BD2109807F0ACFDE84AE94B98
:101DA000CDE9060107F093FCCDE9080107F0E6FD57
:101DB0000E90E5480D9000200B906FF014000A90F3
:101DC00041E0DDE90D1007F044FC4FF07E51099031
:101DD00007F0F0FD0ED20D9807F08CFD0022DB4BD2
:101DE000CDE9060107F0E5FCCDE9080107F0C6FDE5
:101DF0000D9000E02AE00D9807F07CFD02460B46AE
:101E0000CDE90201D248D34907F0D3FCCDE9060160
:101E1000109807F06FFDCDE90401DDE9062307F016
:101E200056FCCDE9080107F04CFD0C90C1490C9817
:101E300048600A9808720B98401C40B20B900A98B0
:101E4000401E40B20A900B980828BADBCDE01098EB
:101E500007F050FDC04AC14BCDE9080107F076FDFF
:101E600061D2109807F046FDBD4ABE4BCDE9060190
:101E700007F02DFCCDE9080107F080FD0E90B24877
:101E80000D9000200B906FF01B000A9047E0DDE9F9
:101E90000D1007F0DEFB4FF07E51099007F08AFD30
:101EA0000ED20D9807F026FD0022A84BCDE90601C1
:101EB00007F07FFCCDE9080107F060FD0D9000E020
:101EC00030E00D9807F016FD02460B46CDE9000103
:101ED000A348A44907F06DFCCDE90401109807F070
:101EE00009FDCDE90201DDE9042307F0F0FB002242
:101EF0009D4BCDE9060107F0EAFBCDE9080107F0AB
:101F0000E0FC0C908B490C9848600A9808720B987A
:101F1000401C40B20B900A98401E40B20A900B98A9
:101F20000828B4DB61E0109807F0E4FC8F4A904B7E
:101F3000CDE9060107F0CBFBCDE9080107F01EFD56
:101F40000E908C480D9000200B906FF022000A90AC
:101F500047E0DDE90D1007F07CFB4FF07E51099062
:101F600007F028FD0ED20D9807F0C4FC0022774B35
:101F7000CDE9060107F01DFCCDE9080107F0FEFCE4
:101F80000D9000E030E00D9807F0B4FC02460B46DF
:101F9000CDE900017548764907F00BFCCDE9040155
:101FA000109807F0A7FCCDE90201DDE9042307F052
:101FB0008EFB00226C4BCDE9060107F088FBCDE9D2
:101FC000080107F07EFC0C905A490C9848600A986A
:101FD00008720B98401C40B20B900A98401E40B209
:101FE0000A900B980428B4DB00BF00BFFFF7EDBADE
:101FF00070B5002560480078401C5F4908705F4854
:10200000C08949F64041884204DC5C48C089B0F58B
:10201000FA6F06DA5A480078042802D000205649A0
:10202000087058498A6858490888411C564B1980DD
:10203000564941F82020184600880C2802DB002071
:1020400019460880002408E0504850F8241028461B
:1020500007F075FA0546601CC4B20C2CF4DB464848
:1020600000780C2808DB4A49284607F0F2FA45496F
:1020700088600C204049087042498868FFF783FA5D
:102080002C4840684FF47A71B0FBF1F02949486060
:1020900070BD70B53B49C86807F0FAFB0546394882
:1020A0000168284607F0A3FA0446364841682046EE
:1020B00007F0CFFA3349886070BD10B52F48C0894A
:1020C0000A2802DA0A202D49C8812C49C88907F05C
:1020D000DFFB2C4948602F482949097850F8210036
:1020E0002849C860FFF7D5FF10BD2DE9F041002455
:1020F000012736E2012FFCD100270E2C15D2DFE894
:1021000004F0074F5D8586878889DD8AFEFDFCFB2C
:10211000214D2888401C2149888009200881012000
:102120004881002088710120888113E10284FEE447
:1021300071D98945E4000020196050BEF6B01F3AFD
:1021400081121F2FE727C0458096184B00002440BE
:10215000037CD8EA9BD0FE460F7AF8B7A595AA383B
:10216000824DC7726142334780842E41B1A1162A45
:10217000D3CED24700007A4407000020D4000020CC
:1021800006000020680100200800002078010020DF
:102190000000404164A10008F0000020C4000020BD
:1021A000F64DF748F74908602888888003200881A1
:1021B00000204881887101208881CBE0EF48801E93
:1021C000408838B1012804D0022805D003281BD14B
:1021D00001E019E000BF00BFE848801E80880128A8
:1021E00003DD0021E548801E8180E44DAD1CE648FA
:1021F000E4490860288888800120088100204881FF
:1022000088710120888100BF00BFA3E000BF00BF2C
:1022100000BF00BF00BFD948801E408838B10128E8
:1022200004D0022805D0032846D101E044E000BFD5
:1022300000BFD248001D00EB4400851FCF48801E20
:102240008088E0B9D148CF49086028888880601E1E
:10225000CF4931F82000CB490881601ECC4901EB01
:1022600080004088C7494881E01ECA4911F8100023
:10227000C4498871C84830F8140088811BE0C348FD
:10228000C049086028888880601EC44931F8200051
:10229000BC490881601EC14901EB80004088B949F2
:1022A0004881E01EBB4911F81000B6498871BA4850
:1022B00030F81400888100BF00BF4BE0AF48801E9B
:1022C000008A012803DD0021AC48801E0182AB4D4D
:1022D0000E35B348AB49086028888880601EAC4939
:1022E00031F82000A7490881601EA94901EB800050
:1022F0004088A449488103E00AE008E006E004E0E1
:10230000002088710120888124E000BF00BF00BF49
:102310009A48001D00EB4400851FA24899490860B7
:1023200028888880601E9A4931F8200095490881E4
:10233000601E974901EB8000408892494881E01E69
:10234000944911F810008F498871934830F81400AF
:10235000888100BF00BF2046FEF7EDFD0E2C76D22F
:10236000DFE804F007111B252F39434D57616B76C9
:1023700077780A208C490870002048708148FEF761
:10238000F9FE804671E008208749087000204870F7
:102390007C48FEF70CFD804667E00A208249087001
:1023A000002048707748FEF702FD80465DE00A2075
:1023B0007D490870002048707248FEF7DBFE8046B9
:1023C00053E0072078490870002048706D48FEF7F8
:1023D000D1FE804649E0072073490870002048700C
:1023E0006848FEF7C7FE80463FE007206E49087048
:1023F000002048706348FEF7BDFE804635E00820A7
:1024000069490870002048705E48FEF7B3FE8046B8
:102410002BE0072064490870002048705948FEF7F7
:10242000C6FC804621E007205F4908700020487004
:102430005448FEF79FFE804617E00A205A4908706C
:10244000002048704F48FEF795FE80460DE00BE0F7
:1024500000BF00BF08205449087000204870494858
:10246000FEF788FE804600E000BF00BF44B9454843
:102470008088401E288006F00AFCFEF770FA02E011
:10248000404880882880B8F1680F61D009DCA8F145
:102490006100072863D2DFE800F00E464862624A16
:1024A0005D00A8F1E100082859D2DFE800F0053D01
:1024B0003F585858545200BF3048801E4088012869
:1024C00002D1012C00D109242C48801E80880128CB
:1024D00006D1072C04D1601CC4B2601CC4B201E058
:1024E000601CC4B2012C1CDD2448801E408840B111
:1024F000012804D0022807D0032807D103E00E26C4
:1025000006E00A2604E000BF0E2601E00E2600BF0A
:1025100000BFB44205DB002403202449087006F004
:10252000A5FB01271CE000BF1AE000BF18E013481C
:10253000801EC088012803D102211048801EC1805E
:1025400003201A49087006F091FB06F05DFB07E0D6
:1025500000BF05E000BF03201449087000E000BF81
:1025600000BF1248007804283FF4C4ADBDE8F081F4
:10257000704702460B4688B270470000F200002008
:10258000E9A10008C4000020DBA100086EA2000839
:10259000FCA7000864A800087AA80008C8A70008DB
:1025A000E3A1000887A30008AE000020030000207C
:1025B00010B54FF480732B4A2B492C4802F09CFE37
:1025C0002A4802F0C3FE10BDF0B50446059D27461B
:1025D0000E4602B9012207FB06FCBCFBF5FC0CFB16
:1025E00003FCBCFBF2F0F0BD30B50246002006E073
:1025F000145C0A2594FBF5F4E3B2441CE0B2884273
:10260000F6DB30BD70B502460C46002012E0135CCC
:10261000DD1703EB15752911135CDD1703EB157539
:102620002D11A3EB051501EB810605EB46051554AD
:10263000431CD8B2A042EADB70BD30B50B46014660
:10264000C41700EB1474C4F30712C41700EB14741E
:102650002411A0EB041402EB820504EB4504E0B264
:1026600030BD00005CA000080C1001401C000240BE
:1026700070B506F0D5FC06F068FC00214FF08040F4
:1026800004F036FCFEF75DF906F0C5FA06F0C3FA71
:1026900006F0FDFA06F0CFFA06F00AFBFEF75FF946
:1026A000FE480078082802DD0020FC49087006F08A
:1026B0003DFD06F045FBFEF7F5F90020F8490870EE
:1026C000002438E0601CC4B2142C02DD0320F5495C
:1026D00008700A2006F02BF90546682D25D009DC84
:1026E000A5F16100072824D2DFE800F01517190EC4
:1026F0001B1D2000A5F1E10007281AD2DFE800F039
:102700000C0E10051214170000BF0920E5490870CF
:1027100006F013FD0EE000BF0CE000BF0AE000BFB2
:1027200008E000BF06E000BF04E003E000BF14249F
:1027300000E000BF00BFDB4800780228C2D006F0EE
:10274000EBFB70BD2DE9F04190B0FF260027D64885
:1027500090F82B00A0B1D44890F83000CF4981F810
:1027600048001E21D0482E3006F0CBFE0020CE4976
:1027700081F82B000021CC4880F82C1006F052FA8A
:10278000C64890F8480000287ED1C84890F82B0031
:1027900000287AD01C2101A806F0B3FE1C22C349F0
:1027A000303101A806F094FEC04890F82F6090F8F0
:1027B00030500020BD4981F82B000021BB4880F833
:1027C0002C10DE2E7ED006DCCC2E7CD0CE2E09D076
:1027D000DD2E79D1B4E0EE2E77D0F22E76D0F32E26
:1027E000F7D1BEE0B2480078092837D2DFE800F020
:1027F0000536360C132F1A212800AE48AEA10A6800
:1028000002600979017130E0AA48ADA10A6802604E
:102810000979017129E0A748ABA10A68026009792A
:10282000017122E0A348AAA10A6802600979017136
:102830001BE0A048A8A10A6802600979017114E0B0
:102840009C48A7A10A680260097901710DE09948C6
:10285000A5A10A6802600979017106E09548A4A162
:102860000A6802600979017100BF00BF28218F4802
:10287000C01C06F046FE10229F498C48C01C06F082
:1028800027FE8C49894801E006E204E2C01C06F0FC
:1028900043FE9A498548C01C06F03EFE00240EE027
:1028A0008248C01C015D964804F03CFF00BF8021B7
:1028B000934804F0A5FF0028F9D0601CC4B2142C82
:1028C000EEDB04E04FE034E0E4E16DE04AE08D4807
:1028D0000088022803D08B480088032828D18A4921
:1028E0007248C01C06F018FE72497048C01C06F001
:1028F00013FE82496D48C01C06F00EFE00240DE058
:102900008248015D7E4804F00DFF00BF80217C48B5
:1029100004F076FF0028F9D0601CC4B2272CEFDB4E
:1029200000BF8021764804F06BFF0028F9D0B2E1A7
:10293000B1E100207649087005205A490870AAE1E3
:1029400058480078062808D1032059490870072004
:102950005449087006F0DBFA02E003205149087080
:1029600099E198E197E135B1012D08D0102D0AD0F9
:10297000112D10D10BE00020484948800CE00120C7
:102980004649488008E002204449488004E003208A
:102990004249488000E000BF00BF06F035F906F06C
:1029A00065F9FEF79CF876E19DF80500401E3B496D
:1029B0000870AC2D04D0AD2D6ED0DC2D6DD1AFE004
:1029C0000021364881809DF807000121FFF735FE80
:1029D00080469DF806000121FFF72FFE00EBC001A5
:1029E00001EB001008EB80012C48C1809DF8090024
:1029F0000121FFF722FE80469DF808000121FFF724
:102A00001CFE00EBC00101EB001008EB8001234825
:102A100001819DF80B000121FFF70FFE80469DF814
:102A20000A000121FFF709FE00EBC00101EB0010D5
:102A300008EB8001194841819DF80D000121FFF745
:102A4000FCFD80469DF80C000121FFF7F6FD00EB30
:102A5000C00101EB001008EB8001104881819DF856
:102A60000F000121FFF7E9FD80469DF80E000121CE
:102A7000FFF7E3FD00EBC00101EB001008EB800164
:102A80000648C1819DF8101041829DF81100502820
:102A900042D1002101483DE0A7E0F3E0F000002032
:102AA0000500002003000020160300207C02002007
:102AB00004000020400000204944454C0000000074
:102AC00053544F5000000000504153530000000089
:102AD00048494748000000004C4F572000000000C4
:102AE00042524B20000000004152432000000000F1
:102AF0005445535400000000FE010020490000200E
:102B000000380140C801002012020020CC02002041
:102B10002F000020018202E00121FC480182B1E087
:102B20000121FA4881809DF80700FFF786FD804665
:102B30009DF806000121FFF780FD00EBC00101EBCD
:102B4000001008EB8001F148C1809DF809000121C7
:102B5000FFF773FD80469DF808000121FFF76DFD2A
:102B600000EBC00101EB001008EB8001E748018198
:102B70009DF80B000121FFF760FD80469DF80A00DB
:102B80000121FFF75AFD00EBC00101EB001008EB3B
:102B90008001DE4841819DF80D000121FFF74DFDC8
:102BA00080469DF80C000121FFF747FD00EBC001B6
:102BB00001EB001008EB8001D44881819DF80F00E3
:102BC0000121FFF73AFD80469DF80E000121FFF735
:102BD00034FD00EBC00101EB001008EB8001CB4895
:102BE000C1819DF8101041824CE09DF80700012141
:102BF000FFF723FD80469DF806000121FFF71DFD2C
:102C000000EBC00101EB001008EB8001BF4881829E
:102C10009DF809000121FFF710FD80469DF808008E
:102C20000121FFF70AFD00EBC00101EB001008EBEA
:102C30008001B648C1829DF80B000121FFF7FDFC21
:102C400080469DF80A000121FFF7F7FC00EBC00168
:102C500001EB001008EB8001AC4801839DF80D00EA
:102C60000121FFF7EAFC80469DF80C000121FFF7E7
:102C7000E4FC00EBC00101EB001008EB8001A3486D
:102C8000418300BF00BF05F0BFFF05F0EFFFFDF778
:102C900026FF00E000BFE0E09C4890F848000128D3
:102CA000F9D19B4890F82B0088B11E2298492E310B
:102CB00008A806F00DFC9DF822709DF82360002006
:102CC000934981F82B000021914880F82C1026B1FF
:102CD000012E44D0022E41D151E0022F25D19DF882
:102CE0002400542809D100208A49087005208A4907
:102CF000087001208949087030E09DF824005228AE
:102D00002CD18548007806280BD10320844908700F
:102D100007208149087006F0FAF801207F49087001
:102D20001CE003207C49087018E0032F16D19DF8A1
:102D30002400742812D10020764908709DF82500DF
:102D40007249087005F060FF03207349087005F0B0
:102D50009EFFFDF704FE05206F4908707CE09DF89A
:102D600024006A49087005F04FFF03206A49087083
:102D700005F08DFFFDF7F3FDFDF7B1FE6CE09DF86A
:102D80002400684908700846007880095F49488037
:102D900064480078C0F340115C4881806148007845
:102DA000C0F30011594801825E48007800F00F011D
:102DB000564841829DF8251081829DF827009DF894
:102DC000261000EB012081B25048C1809DF82900F7
:102DD0009DF8281000EB012081B24C4801819DF83C
:102DE0002B009DF82A1000EB012081B24748418159
:102DF0009DF82D009DF82C1000EB012081B2434876
:102E000081819DF82F009DF82E1000EB012081B2EA
:102E10003E48C1819DF831009DF8301000EB012043
:102E200081B23A48C1829DF833009DF8321000EB20
:102E3000012081B2354801839DF835009DF834109A
:102E400000EB012081B23148418305F0DDFE05F041
:102E50000DFFFDF744FE00BF00BF10B0BDE8F081DC
:102E600070B500202E490870FDF739FE05F080FF8F
:102E700006F02DF800202749087096E0FFF762FC65
:102E80000A2005F054FD0446662C71D008DCA4F13C
:102E9000610005286DD2DFE800F010142D576300A3
:102EA000E62C78D004DC672C76D0682C7BD167E0E8
:102EB000E72C72D0E82C76D163E004201649087024
:102EC00072E019480078A0B910480078401C0F49FA
:102ED000087008460078082801DD0020087005F019
:102EE000D6FEFDF73CFD05F08FFE05F05FFEFDF719
:102EF000F6FD59E00C48007828BB04480078A8B1DA
:102F000002480078401E0149087012E0F0000020DD
:102F10007C0200202F000020030000204800002039
:102F20000400002050000020050000200820FE4979
:102F3000087005F0ACFEFDF712FD05F065FE05F02A
:102F400035FEFDF7CCFD2FE0F848007818B1F748C2
:102F50000078401E00E00320C5B2F448057023E06D
:102F6000F2480078032806DAF0480078401C03E0B5
:102F700010E018E00FE00020C5B2EC48057013E047
:102F800000BF0520EA4908700020EA4908700BE0FC
:102F900002E002E000BF00BF00BF0020E34908706C
:102FA000E449087000E000BF00BFE1480078032852
:102FB0003FF464AF70BD10B5FFF797F810BD10B5C2
:102FC00013E00020DC490870DC490870D94908701A
:102FD00005F082FE00214FF0804003F089FF0120C0
:102FE000D74908700620D2490870D14800780528D2
:102FF000E7D010BD10B5002005F06EFE00214FF0A7
:10300000804003F075FF6420FDF74DF905F0FAFEEE
:1030100010BD2DE9FC5F0120C9490870C248B0F815
:1030200002808088C0B20090BF488088C549097876
:1030300060F34511C3480170BB48408AC0B201909B
:10304000002005F050FEB8F1000F2ED10020BE493F
:103050000870B548C08800EB80004FF6FF7101EAA8
:103060004005B1488089012801D1022601E0AE481F
:1030700086892C460327F020B449088040F6D860A2
:10308000B34908809DF8000038B9B248008844432D
:10309000A548808BB4FBF0F4CCE0AE4840884443B4
:1030A000A148008CB4FBF0F4C4E0B8F1010F1DD1CD
:1030B0004FF4B470A549088040F6D860A449088050
:1030C0000120A149087000269748808A00EB800003
:1030D0004FF6FF7101EA40052C4605279D48808880
:1030E00044439148808CB4FBF0F4A3E0B8F1030FA3
:1030F0004FD18D48808A00EB80004FF6FF7101EAC6
:10310000400589488089012801D1022601E08648CE
:1031100086892C4690480078A0B94FF4B4708B494A
:10312000088040F6D8608A490880012086490870E6
:10313000052700268748808844437B48808CB4FB61
:10314000F0F477E0F0208149088040F6D8608049AB
:10315000088000207C4908707348C08800EB80001C
:103160004FF6FF7101EA40052C4603279DF8000049
:1031700038B97848008844436B48808BB4FBF0F43E
:1031800058E07448408844436748008CB4FBF0F42E
:1031900050E07148007870BBF0206C49088040F620
:1031A000D8606B49088060488089012801D10226D7
:1031B00001E05D4886895C48C08800EB80004FF6DE
:1031C000FF7101EA40052C46032700205E49087084
:1031D0009DF8000038B95F48008844435248808B0E
:1031E000B4FBF0F426E05B48408844434E48008C32
:1031F000B4FBF0F41EE0FFE74FF4B47053490880CD
:1032000040F6D8605249088000264748808A00EB83
:1032100080004FF6FF7101EA40052C46052701208A
:10322000494908704B48808844433F48808CB4FB30
:10323000F0F400BFDFF8F09009F11C094FF00B0B20
:10324000DFF818A14FF02C0B002705E019F8010B4F
:103250000AF8010B781CC7B25F45F7DB0020404934
:10326000086040490880404908604049088040495A
:10327000087040490880404908804049087040492A
:1032800008804049088040490870002708E0002075
:103290003E4921F817003E4921F81700781CC7B2B3
:1032A000082FF4DB37490C80002E7DD001203349F4
:1032B000087034480488B4FBF6F42F490C80048865
:1032C000B4FBF6F006FB10442A490C802A4800881B
:1032D000012869DA0A20294908702A48048804EB81
:1032E00084004400B4FBF6F423490C80254804888C
:1032F00004EB84004400B4FBF6F006FB10441D49C7
:103300000C801D48008801284EDA64201B49087093
:103310001C48048804EB84004400B4FBF6F416490E
:103320000C801848048836E0F000002005000020DA
:1033300003000020000000201B0000201C000020D3
:1033400004000020500000202E000020300000204B
:1033500032000020340000202F000020D201002085
:103360000C0000201E00002014000020200000207F
:103370002200002024000020260000202800002039
:103380002A0000202C00002001000020A8010020BD
:10339000B801002008E004EB84004400B4FBF6F020
:1033A00006FB1044FD490C80B8F1000F12D0B8F1B3
:1033B000010F06D0B8F1020F54D0B8F1030F7CD141
:1033C00026E005F0DBFD022005F011FE0220F449A5
:1033D000087077E09DF8000048B105F0CFFD0220AD
:1033E00005F005FE9DF8040005F07DFC0FE005F0FA
:1033F000E1FDEC48008A18B1012005F0F8FD02E07B
:10340000002005F0F4FD9DF8040005F06CFC59E087
:10341000E548007840B905F0B1FD022005F0E7FD70
:103420000220DF4908701CE09DF8000048B105F05B
:10343000A5FD022005F0DBFD9DF8040005F053FC1E
:103440000FE005F0B7FDD748008A18B1012005F05C
:10345000CEFD02E0002005F0CAFD9DF8040005F055
:1034600042FC2FE0D0480078F0B99DF8000048B148
:1034700005F084FD022005F0BAFD9DF8040005F07A
:1034800032FC19E005F096FDC648008A18B101200B
:1034900005F0ADFD02E0002005F0A9FD9DF8040057
:1034A00005F021FC08E008E005F068FD022005F0C9
:1034B0009EFD0220BA49087004E00720BB4908704D
:1034C000BDE8FC9F00BF002005F006FC0121880735
:1034D00003F00EFD05F016FD0020B5490870084602
:1034E0000078FDF715FC05F0F2FC05F041FC05F055
:1034F00071FC0820AF49087002204870162008703F
:103500000220487000200870AB48007800EB4000B3
:10351000202101EBC000A749487000200870A64890
:10352000007800EB4000C00020304870B8F1000F78
:1035300009D0B8F1010F07D0B8F1020F05D0B8F1EA
:10354000030F04D102E000BF02E001E000E000BF91
:1035500000BF002097490870FDF7B7FA00BFAFE73A
:1035600038B596480068B0F5805F03D340F6FF7029
:103570009249086092480088B0F5805F03DB40F60E
:10358000FF708F4908808F480088002852D001289A
:1035900004D002287DD003287CD1B7E18A48408935
:1035A000864A0090126893B2814A1278D21D864DE5
:1035B00005EB820251887E4A1278D21D35F822002E
:1035C0007F4A1288FFF700F8044680490C600846DD
:1035D0000068B0F5617F0DD928464089774A009090
:1035E000126893B22A46518D108D754A1288FEF7E3
:1035F000EBFF0446754804607048006800EB8000EB
:1036000044007148008944436F484089B4FBF0F49A
:103610000A20B4FBF0F100FB1140042800D90A3461
:103620000A20B4FBF0F4A0B20A2190FBF1F0634948
:1036300008603AE26248008800EB80004400594884
:10364000808840BB5A480078C01C5F4931F8200090
:10365000444357480078C01C01EB80004088B4FB0D
:10366000F0F40A20B4FBF0F100FB1140042800D96B
:103670000A340A20B4FBF0F45549CC814F48006865
:1036800000EB800044005048008844434E48408886
:1036900002E04FE008E213E0B4FBF0F40A20B4FBD0
:1036A000F0F100FB1140042800D90A340A20B4FBD1
:1036B000F0F4A0B20A2190FBF1F04049086038E034
:1036C0003B480078401D404931F8200044433848C9
:1036D0000078401D01EB80004088B4FBF0F40A2024
:1036E000B4FBF0F100FB1140042800D90A340A2091
:1036F000B4FBF0F43649CC813048006800EB800020
:1037000044003148808844432F48C088B4FBF0F41B
:103710000A20B4FBF0F100FB1140042800D90A3460
:103720000A20B4FBF0F4A0B20A2190FBF1F0234987
:103730000860BAE11C48007800287DD12048008844
:1037400000EB800044001748808830BB18480078A0
:10375000C01C1D4931F82000444315480078C01CA6
:1037600001EB80004088B4FBF0F40A20B4FBF0F1D8
:1037700000FB1140042800D90A340A20B4FBF0F4FD
:103780001349CC810D48006800EB800044000E48CE
:10379000008844430C4840881CE02FE024000020AF
:1037A00004000020F00000202F0000200300002073
:1037B00006000020AE0000201C0000200C000020AD
:1037C0001E000020C8010020D201002014000020AB
:1037D000D4000020B4FBF0F40A20B4FBF0F100FBAD
:1037E0001140042800D90A340A20B4FBF0F4A0B236
:1037F0000A2190FBF1F0FE49086086E0FD48007860
:10380000401DFD4931F820004443FA480078401D2E
:1038100001EB80004088B4FBF0F40A20B4FBF0F127
:1038200000FB1140042800D90A340A20B4FBF0F44C
:10383000F249CC81EE4800E01CE0006800EB80001B
:103840004400ED4880884443EB48C088B4FBF0F462
:103850000A20B4FBF0F100FB1140042800D90A341F
:103860000A20B4FBF0F4A0B20A2190FBF1F0E04989
:1038700008604AE0E0484089DD4A0090126893B24F
:10388000DC4A1278D21DDC4D05EB82025188D94A00
:103890001278D21D35F82200D94A1288FEF794FE1C
:1038A0000446D8490C6008460068B0F5617F0DD920
:1038B00028464089CE4A0090126893B22A46518D1C
:1038C000108DCF4A1288FEF77FFE0446CD48046073
:1038D000C748006800EB80004400C74800894443A3
:1038E000C5484089B4FBF0F40A20B4FBF0F100FBBA
:1038F0001140042800D90A340A20B4FBF0F4A0B225
:103900000A2190FBF1F0BA490860CEE0BE48007889
:10391000E8BBB9484089B64A0090126893B2B54AEC
:103920001278D21DB44D05EB82025188B14A12784B
:10393000D21D35F82200B24A1288FEF745FE044631
:10394000B0490C6008460068B0F5617F0DD9284683
:103950004089A74A0090126893B22A46518D108D73
:10396000A74A1288FEF730FE0446A6480460A04825
:10397000006800EB800044009F48008944439E4853
:103980004089B4FBF0F40A20B4FBF0F100E00EE053
:1039900000FB1140042800D90A340A20B4FBF0F4DB
:1039A000A0B20A2190FBF1F0914908607BE09448B5
:1039B000008800EB8000440094488088C8BB8D4894
:1039C0000078C01C8C4931F82000444389480078B5
:1039D000C01C01EB80004088B4FBF0F40A20B4FB6B
:1039E000F0F100FB1140042800D90A340A20B4FB8E
:1039F000F0F48249CC817E48006800EB80004400EE
:103A00007D48008844437C484088B4FBF0F40A2099
:103A1000B4FBF0F100FB1140042800D90A340A205D
:103A2000B4FBF0F4A0B20A2190FBF1F070490860F9
:103A300039E0FFE76F480078401D6F4931F82000FA
:103A400044436C480078401D01EB80004088B4FB83
:103A5000F0F40A20B4FBF0F100FB1140042800D977
:103A60000A340A20B4FBF0F46449CC816048006851
:103A700000EB800044006048808844435E48C08872
:103A8000B4FBF0F40A20B4FBF0F100FB1140042871
:103A900000D90A340A20B4FBF0F4A0B20A2190FB4A
:103AA000F1F05349086000E000BF00BF38BD0CB51D
:103AB00057480078082804DA55480078401C5449D3
:103AC0000870072001900EE09DF80400401E514947
:103AD00031F810009DF8042021F812009DF8040030
:103AE000401EC0B201909DF804000028ECDC404864
:103AF00000684849088000200090454800780190FF
:103B000007E044489DF8041030F81100009908447B
:103B100000909DF80400411EC9B201910028F0D127
:103B20003B4909780098B0FBF1F00090009880B212
:103B30002F490860072001900EE09DF80400401E08
:103B4000354931F810009DF8042021F812009DF845
:103B50000400401EC0B201909DF804000028ECDC77
:103B6000274800882C4908800020009028480078C9
:103B7000019007E028489DF8041030F811000099E2
:103B8000084400909DF80400411EC9B2019100282C
:103B9000F0D11F4909780098B0FBF1F00090184966
:103BA000009808800CBD0EB5002001900090029096
:103BB0000EE005F0A1F801990844019005F0A2F883
:103BC0000099084400909DF80800401CC0B2029083
:103BD0009DF808001028ECDB0198C0F30F10044991
:103BE00008600098C0F30F10054908800EBD000062
:103BF0000C00002006000020D2010020D40000208C
:103C00001E000020140000202F000020F0000020E3
:103C100022000020A8010020B80100202DE9F04F6B
:103C200087B00025AB460026A946AA460024F548E1
:103C30004088F54908800846008805287ED2DFE8DC
:103C400000F0170367389800F048007820F0C000B3
:103C50004030EE490870EB48C08AEB49C880E9481B
:103C6000008B0881E748408B48800220059087E060
:103C7000E648007820F0C000E4490870E148008977
:103C8000E149C880DF4840890881DE48C089488012
:103C9000DC488089012802D10220888003E0D948CD
:103CA0008089D9498880D748808800900120059074
:103CB00066E0D648007820F0C000C030D3490870D4
:103CC000D348007860B9CF48C08ACF49C880CD4872
:103CD000008B0881CB48408B48800220059016E07D
:103CE00001200590C7480089C749C880C548408958
:103CF0000881C448C0894880C2488089012802D10F
:103D00000220888003E0BF488089BF49888037E06F
:103D1000BE48007820F0C0008030BC490870BC4824
:103D20000078C8B901200590B6480089B649C88016
:103D3000B44840890881B348C08900E01AE048804F
:103D4000B0488089012802D10220888010E0AD4867
:103D50008089AD4988800BE002200590A948C08A7F
:103D6000A949C880A748008B0881A648408B488095
:103D700006E005E00720A749087007B0BDE8F08F0E
:103D800000BFFFF746F90020039004900290A2497B
:103D90000860A2490881A2490880A24908700978F0
:103DA000A14A12781144C8B2FCF7B2FF00F0F1BF8B
:103DB0009E48007801286CD100209C49087001259C
:103DC000BDF8100042F20F71884204DABDF810000D
:103DD000401C80B2049096480078012826D19DF8B6
:103DE0000C00401CC0B203909DF80C00914909786A
:103DF000884208DB00200390894800888E490988A2
:103E0000084487490880854800897F498988884215
:103E100022DB002081490881884800888049088089
:103E20000220834908704FF0010B15E08348008899
:103E30007B4908807448408800280DDD7748008958
:103E400071494988884207DB0720724908700420BD
:103E5000774908704FF0010B7148008804F03CFF6F
:103E60009DF80800401CC0B202909DF8080009218E
:103E700090FBF1F201FB1200C0B202909DF8080025
:103E8000052802DA04F0EDFB01E004F0E6FBFCF7A4
:103E90006DFCFFF788FEFFF70AFEFFF761FB68483D
:103EA000008868490988884204DD4FF001094FF015
:103EB000000A0DE06248008863490988884204DAF4
:103EC0004FF0010A4FF0000902E04FF00009CA4626
:103ED0000024544800789DF81410884208DABAF19A
:103EE000010F05D14F480078401C4E49087001244D
:103EF0004C480078002808DDB9F1010F05D1494888
:103F00000078401E474908700124012C1FD1002071
:103F10004E49087006900AE000204D499DF818208F
:103F200021F812009DF81800401CC0B206909DF8C0
:103F300018000828F0DB3B4909783B4A1278114405
:103F4000C8B2FCF7E5FE3220FCF7ADF90AE12E48D5
:103F5000008830B101282DD002287FD003287ED1DF
:103F600040E030480078012806D12C48C0890A2159
:103F700090FBF1F02949C881BDF80000012803D168
:103F800040F22620019002E04FF496600190234811
:103F9000C089BDF80410884203DD4FF6FF701F4949
:103FA000C88134B918488088BDF81010884200DCF8
:103FB0000126D6E02248008848B1264800682649F4
:103FC000884208D94FF6FF702249086003E04FF697
:103FD000FF702049086024B9BDF81000022800DBFA
:103FE0000126BEE00A480078D0BB15480088C0B35F
:103FF000184800681849884238D94FF6FF701549AB
:10400000086033E0F0000020C801002050000020CC
:104010002F0000200300002010000020D40000200A
:104020002A000020060000202E00002001000020B1
:104030000400002028000020260000202C00002082
:104040001E0000203200002030000020220000204E
:10405000B8010020140000209F86010039E07FE0B5
:104060000BE0FFE74FF6FF70F949086084BBBDF82D
:10407000100002282CDB01262AE0F64800780128EF
:1040800006D1F548C0890A2190FBF1F0F249C881B8
:104090004FF496600190BDF80000012803D140F272
:1040A0002620019002E04FF496600190EA48C08912
:1040B000BDF80410884203DD4FF6FF70E649C88161
:1040C00034B9E6488088BDF81010884200DC01262B
:1040D00047E0E348007858BBDE480078012806D165
:1040E000DD48C0890A2190FBF1F0DB49C8814FF41B
:1040F00096600190BDF80000012803D140F226200F
:10410000019002E04FF496600190D348C089BDF859
:104110000410884203DD4FF6FF70CF49C881F4B91F
:10412000CE488088BDF81010884218DC012616E0C1
:10413000CC48008848B1C6480068CB49884208D9B5
:104140004FF6FF70C249086003E04FF6FF70C049A8
:10415000086024B9BDF81000022800DB012600E049
:1041600000BF00BFC148007802287BD1012EFCD1DE
:10417000002CFAD1B948008830B1012820D002289B
:1041800071D0032870D15EE0B348C0890190B34874
:10419000C088BDF80410884205DA0620B3490870CB
:1041A0000220B3498870AD480089BDF804108842E8
:1041B00005DD0720AD4908700320AD4988701BE17B
:1041C000A348006880B20190A248007820B101287D
:1041D0000BD0022819D110E0BDF804004FF47A7119
:1041E00090FBF1F080B2019010E0BDF80400642172
:1041F00090FBF1F080B2019008E0BDF804000A21C4
:1042000090FBF1F080B2019000E000BF00BF934846
:10421000C088BDF80410884208DA9048C08828B1E8
:104220000620924908700820914988708B480089BF
:10423000BDF80410884205DD07208C49087009206C
:104240008B498870D8E086480078C8BB80480068F1
:1042500080B201907F48007838B101280ED0022842
:104260001CD113E0C9E05CE0C5E0BDF804004FF4E8
:104270007A7190FBF1F080B2019010E0BDF804007B
:10428000642190FBF1F080B2019008E0BDF80400D9
:104290000A2190FBF1F080B2019000E000BF00BF66
:1042A0006E48C088BDF8041088420ADA6B48C0889E
:1042B00038B106206D49087008206D49887003E008
:1042C00013E006206A49887064480089BDF804102C
:1042D000884206DD07206549087009206449887016
:1042E0001EE00620624988701AE05B48C089019090
:1042F0005A48C088BDF80410884205DA06205B4998
:10430000087002205B49887054480089BDF8041089
:10431000884205DD072055490870032055498870FB
:104320006AE04F48007818BB4B48C08901904B4861
:10433000C088BDF80410884206DA06204B49087090
:1043400002204B49887002E00020494988704348A8
:104350000089BDF80410884206DD07204349087033
:1043600003204349887045E000204149887041E0BE
:104370003748006880B201903648007820B10128A3
:104380000BD0022819D110E0BDF804004FF47A7167
:1043900090FBF1F080B2019010E0BDF804006421C0
:1043A00090FBF1F080B2019008E0BDF804000A2112
:1043B00090FBF1F080B2019000E000BF00BF274801
:1043C000C088BDF80410884208DA2448C08828B1A3
:1043D0000620264908700820264988701F48008951
:1043E000BDF80410884205DD072020490870092027
:1043F0002049887000E000BF00BF1C4800780628F4
:104400000BD01A480078072807D0184800780528EC
:1044100003D016480078082808D1012016490870F2
:1044200007201649087001254FF0010B012D7DD1A1
:1044300000250020124908700120487007480088B4
:1044400000B3012873D0022872D0032871D1B3E0E1
:104450001400002006000020D4000020C801002025
:104460002F0000201E0000209F8601000400002075
:10447000260200203A020020000000200300002055
:10448000AE000020FD48C088FD49096888420BD96C
:10449000FA48C088FA490968401A02280FD8F74834
:1044A000C088F74908600AE0F448C088F449096800
:1044B000081A022803D8F148C088F1490860F04979
:1044C000096888B2012303220221FCF75EFAED4855
:1044D00004F091FB1421EC4805F013F8EA48E9498F
:1044E00009680160E9A105F017F8E5480068000ACD
:1044F000E7490871E248006848710920E5490870F9
:10450000E549C889002304220221FCF73EFADD4870
:104510004078DC4908700846807848700846C078C2
:10452000887008460079C870002003E0F0E393E14A
:104530007AE2EEE30871D44804F0EEFFD748007841
:1045400008281FD0CF4804F056FBCE4805F071FD77
:10455000074605F013FAD2490860D2A004F038FBF0
:10456000CF480078CA498871CD484078C871CC4896
:1045700080780872CA48C0784872CBA1C24804F05B
:10458000CBFF10E0BF48C9A10A6802600979017138
:1045900004F031FBC7A004F01BFBFF20BC4988716D
:1045A000C87108724872BC4800890012B849887204
:1045B000B9480089C872AEE3BF48007800287CD1B2
:1045C000AE48808AAE49096888420BD9AB48808AD8
:1045D000AB490968401A02280FD8A848808AA84920
:1045E00008600AE0A548808AA5490968081A0228D7
:1045F00003D8A248808AA2490860A149096888B204
:10460000012303220221FCF7C0F99E4804F0F3FACB
:1046100014219D4804F075FF9B489A490968016080
:104620009AA104F079FF96480068000A9849087139
:104630009348006848710920964908709F480068AF
:1046400042F20F71884225D99D480078022810D186
:104650009A4800680A21B0FBF1F087B2994A98485D
:104660000078401C115C012305223846FCF78DF9C7
:104670001BE0924800680A21B0FBF1F087B2914A32
:104680008F480078401C115C012304223846FCF757
:104690007CF90AE08B4A8A4B1B78D15C874A126806
:1046A00090B201230422FCF770F9844800684FF6A9
:1046B000FF7188421ED0734800E035E004F09BFA99
:1046C0007049714804F028FF6E4805F0B2FC0746B7
:1046D00005F054F972490860084600786C49887101
:1046E0006F484078C8716E48807808726C48C0780E
:1046F00048720CE074A004F07EFA73A1624804F0E2
:104700000BFFFF2062498871C8710872487270A15E
:104710005D4804F001FF6048008900125C4988721E
:104720005D480089C87296E05448C08854490968B9
:1047300088420BD95148C08851490968401A02285B
:104740000FD84E48C0884E4908600AE04B48C088E0
:104750004B490968081A022803D84848C0884849C4
:1047600008604749096888B2012303220221FCF747
:104770000CF9444804F03FFA1421574804F0C1FEF4
:10478000554840490968016040A104F0C5FE3C4815
:104790000068000A514908713948006848710920C9
:1047A0003C4908703C49C889012304220221FCF7D6
:1047B000ECF83449344804F0AFFE324840783149CF
:1047C00008700846807848700846C07888700846A7
:1047D0000079C870002008713048007808281CD083
:1047E000084604F008FA274805F023FC074605F0C0
:1047F000C5F82B4908600846007838498871284870
:104800004078C8712648807808722548C078487278
:1048100025A11D4804F080FE0DE01A4823A10A6876
:1048200002600979017104F0E6F9FF202B498871D3
:10483000C87108724872134805F0FBFB074605F083
:104840009DF81749086014480089001223498872AE
:1048500011480089C8725EE20848808A08490968E0
:1048600088423DD90548808A05490968401A0228CE
:1048700041D80248808A024908603CE0F0000020EC
:104880000C000020B0000020FE0100206B563B0011
:1048900026020020AE000020D400002004000020EA
:1048A0004C0000206D4100006D413B004F464C41E3
:1048B00020000000202000002F0000201400002015
:1048C0000600002037A900082D2D2D2D2D000000F9
:1048D0004DA6B83B00000000120200203A02002062
:1048E000FC48808AFC490968081A022803D8F9485C
:1048F000808AF9490860F849096888B201230322CF
:104900000221FCF742F8F54804F075F91421F44847
:1049100004F0F7FDF248F14909680160AFF2940133
:1049200004F0FAFDEC480068000AEE490871EA4814
:10493000006848710920EC490870EC48006842F2B0
:104940000F71884225D9EA480078022810D1E7483B
:1049500000680A21B0FBF1F087B2E64AE44800782B
:10496000401C115C002305223846FCF70EF81BE0C2
:10497000DE4800680A21B0FBF1F087B2DD4ADC486E
:104980000078401C115C002304223846FBF7FDFF31
:104990000AE0D84AD64B1B78D15CD44A126890B250
:1049A00001230422FBF7F1FFD04800684FF6FF71A6
:1049B00088421CD0C94804F01EF9C849C84804F010
:1049C000ABFDC64805F035FB074604F0D7FFCA49E2
:1049D000086008460078C3498871C7484078C871A4
:1049E000C54880780872C448C07848720EE0AFF2BB
:1049F000281004F000F9AFF23011B94804F08CFD32
:104A0000FF20B8498871C87108724872AFF240112E
:104A1000B34804F081FDB94800890012B149887299
:104A2000B6480089C87276E1B5480078F0BBA9485D
:104A3000C088A949096888420BD9A648C088A649F8
:104A40000968401A02280FD8A248C088A249086005
:104A50000AE0A048C088A0490968081A022803D8BB
:104A60009C48C0889C4908609B49096888B201231A
:104A700003220221FBF789FF984804F0BCF81421B7
:104A8000974804F03EFD9648944909680160AFF2EA
:104A9000042104F041FD90480068000A9149087122
:104AA0008D480068487109208F4900E05CE008707B
:104AB0009249C889012304220221FBF766FF874936
:104AC000874804F029FD85484078844908700846E5
:104AD000807848700846C078887008460079C870A9
:104AE0000020087187480078082821D0084604F083
:104AF00082F87A4805F09DFA074604F03FFF7E49A8
:104B00000860AFF2602004F063F87B4800787549D4
:104B1000887179484078C8717748807808727648FB
:104B2000C0784872AFF280216D4804F0F5FC12E0C5
:104B30006A48AFF288210A6802600979017104F0BD
:104B40005AF8AFF2902004F043F8FF2065498871CD
:104B5000C8710872487269480089001261498872F8
:104B600066480089C872B4E05A48808A5A49096880
:104B700088420BD95748808A57490968401A022849
:104B80000FD85448808A544908600AE05148808A06
:104B900051490968081A022803D84E48808A4E49AC
:104BA00008604D49096888B2012303220221FBF7FE
:104BB000ECFE4A4804F01FF81421534804F0A1FC0D
:104BC0005148464909680160AFF2403104F0A4FC45
:104BD00041480068000A4D4908713F480068487123
:104BE0000920414908704148006842F20F7188422B
:104BF00025D93F480078022810D13C4800680A2196
:104C0000B0FBF1F087B23B4A39480078401C115C98
:104C1000002305223846FBF7B8FE1BE03348006846
:104C20000A21B0FBF1F087B2324A31480078401CCB
:104C3000115C002304223846FBF7A7FE0AE02D4A48
:104C40002B4B1B78D15C294A126890B201230422B5
:104C5000FBF79BFE254800684FF6FF7188421CD089
:104C60001E4803F0C8FF1D491D4804F055FC1B48B1
:104C700005F0DFF9074604F081FE1F490860084689
:104C80000078224988711C484078C8711A48807899
:104C900008721948C07848720EE0AFF2D43003F0C1
:104CA000AAFFAFF2DC31184804F036FCFF201749A8
:104CB0008871C87108724872AFF2EC31124804F082
:104CC0002BFC0E4800890012104988720B4800899D
:104CD000C87220E0F00000200C000020B00000208E
:104CE000FE01002026020020AE000020140000205B
:104CF0000600002037A900084C000020D400002046
:104D00002F00002004000020120200203A020020A0
:104D100012E0FFE700BF00BF0A20FE490870002034
:104D20004870FD490889002304220121FBF72DFE6C
:104D3000FA4803F060FF00BFFDF704FD03F0ECFD4F
:104D400006909DF81800662814D008DC62280DD063
:104D500063280CD064280BD0652818D109E0672897
:104D60000AD0E62807D0E72811D106E010E00FE0CE
:104D70000EE00DE000BF00BF00BF0320E84908704F
:104D80000720E849087004F0C2F8FEF7F6BF00BF3C
:104D900000BFE448007806283FF40AA8E2480078FB
:104DA000401CE149087004F0B2F800BFEDE710B50F
:104DB0005A20DE490870592048705A20DC49087092
:104DC00059204870DB48008ADB49097860F30411F8
:104DD000D9480170D748408AD749097860F3030160
:104DE000D54801700078D149C870D3480078D049BF
:104DF000C870D2480078002867D1D148008870B9BF
:104E0000C7480078032805D0042807D10020C749E7
:104E1000887003E00120C549887000BF55E0C8488C
:104E2000008801280ED1BE480078032805D0042848
:104E300007D10620BD49887003E00720BB49887070
:104E400000BF42E0BE48008803281DD1B448007866
:104E5000032808D0042816D10620B4498870002001
:104E6000B34988700FE0B0480078012803D10720CB
:104E7000AE49887006E0AC480078022802D10120D3
:104E8000AB49887000BF20E0AD48008802281CD1E3
:104E9000A3480078032808D0042815D10020A3498E
:104EA00088700620A24988700EE09F48007801288B
:104EB00002D19E49887006E09B480078022802D102
:104EC00007209B49887000BF00BF9C48007820B332
:104ED0009B48008810BB92480078C01E06281CD250
:104EE000DFE800F00F0313070B1700208F498870CD
:104EF00013E002208D4988700FE003208B498870F1
:104F00000BE001208949887007E0042087498870F8
:104F100003E005208549887000BF1FE088480088AD
:104F200001281BD17E480078032812D0042804D021
:104F3000062806D0072810D107E006207B49887094
:104F40000BE008207949887007E0092077498870CC
:104F500003E007207549887000BF00BF00240DE002
:104F60007248015D774802F0DDFB00BF8021754883
:104F700002F046FC0028F9D0601CC4B20C2CEFDB18
:104F80006F480088032803D06D480088022811D19B
:104F900000240DE06648015D6A4802F0C3FB00BFD3
:104FA0008021684802F02CFC0028F9D0601CC4B2B3
:104FB0000C2CEFDB10BD2DE9F04100275D48408847
:104FC000C5B2FEF717F856480078032827D0052DFC
:104FD0001FD2DFE805F0040309081D0000BF082008
:104FE000504908701AE000BF4F48007801280BD1E3
:104FF0004B480078042803D106204A49087006E08F
:1050000008204849087002E008204649087005E079
:1050100004E0072043490870BDE8F0812CE0052D2D
:105020001CD2DFE805F0040306051A001AE019E0B7
:1050300018E03D48007801280BD139480078042851
:1050400003D106203749087006E00820354908706A
:1050500002E008203349087004E003E007203149EA
:105060000870D9E700BF38480078012804D1FFF75D
:105070009EFE0020344908700020264908704870C0
:10508000FBF723FD04F059F825480078032807D1E1
:10509000082020490870022048704FF6FF740CE089
:1050A0002A480078401C29490870294800780328BC
:1050B00003DB08201B490870AEE77EE08FB10027B4
:1050C0000E20144908700420487001230422194658
:1050D0002046FBF75AFC114803F07AFD732003F0D9
:1050E00069FD0120FBF7FEF870B10D480078032838
:1050F0000AD04FF6FF70844206D001270A21012012
:10510000FBF7EDF8601E84B2012C02DA0620054997
:1051100008701FE0AE000020D4000020B000002086
:1051200004000020030000202F00002026020020A1
:105130003A020020F0000020500000200000002073
:10514000C801002000380140480000201C00002059
:105150001B000020FDF7F6FA052003F0E8FB0646E9
:10516000672E0CD004DC642E07D0652E23D105E019
:10517000682E19D0E72E1ED102E01DE01CE000BF12
:105180005748007803280BD04FF6FF70844203D1B4
:1051900003205449087006E003205149087002E0DA
:1051A00003205049087007E000204F49087006208E
:1051B0004C49087000E000BF00BF4A48007807284B
:1051C0003FF47CAF00BF27E770B5012503F01AFE5E
:1051D00046480078012804D1FFF7E9FD0020434943
:1051E000087046E0012D19D10025162040490870AD
:1051F000022048703F48007830B103F089FD03F089
:1052000066FE03F0CEFD09E003F09EFF344800780F
:10521000042803D103F0ACFD03F03EFEFDF792FA43
:10522000022003F084FB0446672C19D006DC642CB2
:105230000BD0652C0AD0662C19D10FE0682C06D053
:10524000E62C0CD0E72C12D10BE011E010E000208E
:105250002549087005202349087009E000BF07E0D0
:1052600000BF03201F49087003F06AFD00E000BF83
:1052700000BF1C4800780828B4D000201D490870E1
:1052800070BD10B506E003F0CBFE03F011FD032066
:1052900014490870134800780128F4D010BD10B5E7
:1052A00018E00A2012490870022048700420087093
:1052B00032204870002406E003F046FF0320FAF78E
:1052C000F2FF601CC4B20A2CF6DB0120054908700D
:1052D00003F0CEFE034800780028E2D010BD0000A5
:1052E00004000020030000202F00002048000020C0
:1052F000AE000020000000202DE9F04107460D46D9
:1053000016461C460121084601F051F8384602F0C5
:10531000BFFD124804801248056046601020104905
:1053200088600846C4600020086180204861002031
:105330008861C861202008624FF440504862002014
:105340008862384602F046FEBDE8F08110B504469A
:105350000121204602F069FE10BD0000520000202D
:105360005002002070B504460020FD4908704870C6
:105370000B20B4FBF0F100FB114000EB0010F949E9
:105380004518284603F037FC0920F549087000202D
:10539000487003F08AFB0020F14908700120487032
:1053A000F14803F028FC70BD2DE9FF5F04464FF083
:1053B000000A03F0FBFBED4830F825000190EB48B4
:1053C00000EB8500408800900B25E94FDFF8A483AF
:1053D000A8000390002505E017F8010B08F8010B61
:1053E000681CC5B29DF80C008542F5DB0020E2493F
:1053F0000860E2490880E2490860E2490870E24931
:10540000087003F064FD03F0B3FC03F0E3FC03F069
:1054100094FE00260220DD4908700A210120FAF7D7
:105420005EFF0120CE49487002200870D84803F082
:10543000E2FB0020CA494870087004EB0411D54A09
:10544000881803F0D8FB002003F046FC0B2C6CD22C
:10545000DFE804F00616263637475758595A5B00DE
:1054600003F0A8FD002003F0C2FD0121880701F030
:105470003FFD03F047FDC849088803F02DFC58E0C4
:1054800003F07CFD022003F0B2FD0121880701F04A
:105490002FFD03F037FDC049488803F01DFC48E0AC
:1054A00003F06CFD022003F0A2FD0121880701F04A
:1054B0001FFD03F027FDB849888803F00DFC38E094
:1054C00000BF03F077FD002003F091FD0121880764
:1054D00001F00EFD03F016FDAF49888803F0FCFBD8
:1054E00027E003F04BFD022003F081FD0121880736
:1054F00001F0FEFC03F006FD4FF4B47003F0ECFB8A
:1055000017E000BF00BF00BF00BF03F037FD02205F
:1055100003F06DFD0121880701F0EAFC03F0F2FCC5
:105520009D49888803F0D8FB03E0002003F0D4FBFA
:1055300000BF00BFA0E10120FAF7D4FE28B101208E
:10554000914908700A21FAF7CAFE8F4800780128AD
:1055500017D100208C4908704FF0010A09F10100B1
:1055600000F0FF09092099FBF0F100FB119000F019
:10557000FF09B9F1050F02DA03F02CFC01E003F09A
:1055800041FC03F0BFFB8549C88103F0B5FB8349AB
:1055900008601CB1012C01D0022C06D17F480068A4
:1055A000744901EB840148804DE0032C0DD0062C9A
:1055B0000BD0042C01D1012000E00020052C01D1EA
:1055C000012100E00021084330B17448C0896949D5
:1055D00001EB8401488036E07049096801EB8101E4
:1055E000480004F055F96E4908606C48C0890A28E3
:1055F00002DA0A206949C8816849C88904F048F973
:1056000067494860E01F674951F820006449C86055
:10561000FCF73FFDFCF7ECFC0A2C0CD16049486814
:10562000614903F0E4FF834604F037F9514901EB87
:105630008401488007E05A49486804F02EF94D4932
:1056400001EB84014880BDF80800BDF804108842D1
:1056500005DCBDF8080000BFBDF8000000BFBAF1CE
:10566000010F12D14FF0000A0A203D4908700020B6
:1056700048704E4A115D3F4A32F82400012304224B
:10568000FBF783F94A4803F0B6FA03F045F90390B3
:105690009DF80C00672861D008DCA0F162000528A5
:1056A0005DD2DFE800F00C47B1B3B500E2281ED0B0
:1056B000E3287FD0E6287ED0E72850D1CDE0002631
:1056C0002C4830F82400401C2A4921F824000846C0
:1056D00030F82400254931F82410884206DD23489B
:1056E00000EB84004088234921F82400C3E0701CAB
:1056F000C6B20A2E07DD1F4830F824000A301D49C3
:1057000021F8240006E01B4830F82400401C194909
:1057100021F82400174830F82400144931F82410E7
:10572000884206DD114800EB84004088114921F8C9
:105730002400A0E000260F4830F82400401E0D4948
:1057400021F82400084630F82400084931F82410D4
:10575000884235DD054800EB84002DE07CE089E0DF
:10576000AE0000207CA90008C0AB00083CA90008DE
:105770000C010020D20100200C0000201E0000209F
:10578000140000200600002001000020040000207A
:1057900048AA000805AB000834000020D40000200F
:1057A0006801002064A1000800002041D1AB00087E
:1057B000B000002005E02CE04088F74921F82400E3
:1057C00059E0701CC6B20A2E07DDF34830F82400F9
:1057D0000A38F14921F8240006E0EF4830F82400A7
:1057E000401EED4921F82400EB4830F82400EB4935
:1057F00031F82410884206DDE84800EB8400408838
:10580000E54921F8240036E0002634E0002632E0A5
:1058100000BF00214FF0804001F06AFB03F077FBEE
:10582000002003F059FA03F0EDFADD4FDFF868834A
:105830002C200390002505E018F8010B07F8010B58
:10584000681CC5B29DF80C008542F5DB03F039FAFF
:1058500003F0D8FABDE8FF9F00BF00214FF0804061
:1058600001F046FB03F053FB002003F035FA03F090
:10587000C9FAEFE700BF00BFCA48007809283FF423
:105880005AAE00BFE6E72DE9FC5F04460120009018
:105890003220FAF708FD0020C3494870087004EB75
:1058A0000411C24A881803F0A6F90120BE494870C5
:1058B00000200870BE4803F09EF9002718E0B648A3
:1058C00030F82700B54931F82410884208DCB24886
:1058D00030F82700B14901EB84014988884205DA94
:1058E000B44830F81700AC4921F82700781CC7B23B
:1058F0000B2FE4D3DFF8A892DFF89CA24FF02C081E
:10590000002705E019F8010B0AF8010B781CC7B253
:105910004745F7DBA14830F8245000EB8400468867
:105920000B2C76D2DFE804F0063F76192C4F628606
:1059300099ACC1000020FBF7EBF999481C38808B2B
:10594000A84204DC96481C38808BB04204DA4FF43D
:105950007A60914921F82400BDE00020FBF7D8F9D6
:105960008F481C38008DA84204DC8D481C38008DFF
:10597000B04204DA4FF47A70874921F82400AAE093
:105980000120FBF7C5F986481C38008CA84204DCCE
:1059900083481C38008CB04204DA4FF47A707E4998
:1059A00021F8240097E07E481C38008CA84204DCD3
:1059B0007B481C38008CB04204DA4FF47A60764998
:1059C00021F8240087E00020FBF7A2F974481C3876
:1059D000008EA84204DC72481C38008EB04204DA03
:1059E0004FF4FA706C4921F8240074E00120FBF7B1
:1059F0008FF96B481C38808EA84204DC68481C383C
:105A0000808EB04204DA4FF47A70634921F82400A2
:105A100061E05FE062481C38808CA84204DC60488A
:105A20001C38808CB04204DA4FF47A705A4921F85D
:105A3000240050E00120FBF76BF959481C38008F17
:105A4000A84204DC56481C38008FB04204DA4FF4F8
:105A50007A70514921F824003DE00220FBF758F903
:105A60004F481C38808FA84204DC4D481C38808F7A
:105A7000B04204DA4FF47A70474921F824002AE052
:105A80000320FBF745F946481C38B0F84000A8420F
:105A900005DC43481C38B0F84000B04204DA4FF44B
:105AA0007A703D4921F8240015E00320FBF730F916
:105AB0003B481C38B0F84400A84205DC38481C3884
:105AC000B0F84400B04204DA4FF47A70324921F859
:105AD000240000E000BF00BF012781E000980128FA
