:020000040801F1
:10000000C80700204501010805030108E7050108AC
:10001000EB050108EF050108F305010800000000E9
:10002000000000000000000000000000F7050108CB
:10003000F905010800000000FB050108FD050108A5
:100040005F0101085F0101085F0101085F0101080C
:100050005F0101085F01010887060108AF0601087A
:10006000BF060108450701085F0101085F0101089B
:100070005F0101085F0101085F0101085F010108DC
:100080005F0101085F0101085F0101085F010108CC
:100090005F0101085F0101085F0101088506010891
:1000A0005F0101085F0101085F0101085F010108AC
:1000B0005F010108FF0501085F0101085F010108F8
:1000C0005F0101085F0101085F0101085F0101088C
:1000D0005F010108070301085F0101085F010108D2
:1000E0005F0101085F0101085F0101085F0101086C
:1000F0005F0101085F0101085F0101085F0101085C
:100100005F0101085F0101085F0101085F0101084B
:100110005F0101085F0101085F0101085F0101083B
:100120005F0101085F0101085F0101085F0101082B
:10013000DFF80CD00AF0AAF800480047890101084E
:10014000C80700200648804706480047FEE7FEE74C
:10015000FEE7FEE7FEE7FEE7FEE7FEE7FEE7FEE777
:10016000778801083101010870B504460D46E1B2F7
:10017000264807F031FE00BF8021244807F09AFE90
:100180000028F9D0204670BD4FF48031C80206F037
:1001900014FD62B602201E49087036E01C48007843
:1001A0000A282CD2DFE800F02B2805080D121A1DB2
:1001B000202302F0ADFA27E009F052F803F09CF892
:1001C00022E009F04DF803F048F91DE009F048F885
:1001D00000201049087003F044F915E004F05AF8C3
:1001E00012E005F04BFA0FE005F02BFB0CE009F0F4
:1001F00037F806F054F807E005F094FB04E009F046
:100200002FF805F09DFB00BF00BFC7E70038014095
:10021000030000200200002010B506F0C1FA4FF4E0
:10022000803006F0DDFA06F01AFB012820D100200C
:1002300006F05BFB002006F06AFB4FF4806006F0DE
:100240005DFB4FF4E0114FF4803006F031FB0120EC
:1002500006F03AFB00BF392006F0E5FA0028FAD094
:10026000022006F034FB00BF06F03AFB0828FBD161
:1002700010BD00E0401E0028FCD17047014601EB94
:10028000C1024FF0E0235A6100229A6101221A61F3
:1002900000BF4FF0E022106900F001021AB100F433
:1002A0008032002AF5D000224FF0E0231A619A61D3
:1002B0007047014642F228324A434FF0E0235A6128
:1002C00000229A6101221A6100BF4FF0E0221069FA
:1002D00000F001021AB100F48032002AF5D00022A9
:1002E0004FF0E0231A619A617047054A1154704734
:1002F00001460348405C08B9012070470020FCE734
:1003000019000020704710B540F22551FA4807F057
:10031000E7FD00287ED02021F74807F0D8FDF748F8
:1003200090F84800002858D1F54890F82B00002894
:1003300011D10621F24880F84C10EF4807F050FD2B
:10034000C4B2EF4890F82C0098B9AA2C04D0002130
:10035000EB4880F82C10B5E0E94890F82C1090F8A4
:100360002C00401CC2B2E64880F82C202E304454A9
:10037000A8E0BB2C1AD1E24890F82C1090F82C0081
:10038000401CC2B2DE4880F82C202E30445401209C
:10039000DB4981F82B00084690F82C1080F82D10CE
:1003A000002180F82C1080F84C108BE0D44890F895
:1003B0002C001E2804DB0021D14880F82C1081E09D
:1003C000CF4890F82C1090F82C00401CC2B2CC48BA
:1003D00080F82C202E30445474E0C84890F848002F
:1003E00001286FD1C64890F82B0000286AD1062159
:1003F000C34880F84C10C04807F0F2FCC4B2C048B3
:1004000090F82C00A0B9112C05D00021BC4880F830
:100410002C1057E074E0BA4890F82C1090F82C009B
:10042000401CC2B2B64880F82C202E30445449E01B
:10043000B34890F82C00012813D1082C04D00021D7
:10044000AF4880F82C103DE0AD4890F82C1090F8A3
:100450002C00401CC2B2AA4880F82C202E304454F4
:1004600030E0A74890F82C001E2804DB0021A448A7
:1004700080F82C1026E0A24890F82C1090F82C0060
:10048000401CC2B29E4880F82C202E3044542E3896
:1004900090F82C00022815DD994890F82C1090F85F
:1004A0003000C01C81420DD10120954981F82B00FC
:1004B000084690F82C1080F82D10002180F82C10A0
:1004C00080F84C108E4890F82B00012801D102F0E2
:1004D0008EFA8C4890F82B00002875D106218848A8
:1004E00080F84C10844807F07BFCC4B2854890F833
:1004F0002C0098B9FF2C04D00021824880F82C10E1
:1005000062E0804890F82C1090F82C00401CC2B299
:100510007C4880F82C202E30445455E0794890F8DF
:100520002C00012813D1EE2C04D00021754880F84E
:100530002C1049E0734890F82C1090F82C00401CC7
:10054000C2B2704880F82C202E3044543CE06D48F4
:1005500090F82C00042821D1DD2C04D0002169481A
:1005600080F82C1030E0674890F82C1090F82C00A0
:10057000401CC2B2634880F82C202E304454012025
:10058000604981F82B00084690F82C1080F82D1057
:10059000002180F82C1080F84C1015E0594890F894
:1005A0002C001E2804DB0021564880F82C100BE09C
:1005B000544890F82C1090F82C00401CC2B25148BE
:1005C00080F82C202E3044544FF458714A4807F0DC
:1005D00087FC38B10821484807F079FC464807F005
:1005E000FFFBC4B210BD00BFFEE700BFFEE700BFC7
:1005F000FEE700BFFEE7704770477047704710B5D1
:100600000121414807F0A8FA08F0FDFC3F480078B6
:1006100006281DD13E480078401C3D490870084618
:10062000007809281ADD0020087001203949087077
:1006300039480089401C3849088138480068401C06
:100640003649086036480068401C3549086005E0B6
:100650002F48007810B100202D490870002409E0CF
:100660003048005D20B12F48005D401E2D490855DF
:10067000601CC4B2022CF3DB2B48007808B909F0E7
:100680006CF810BD704710B50121284805F0CDFF6A
:1006900048B91A48408A30B11C480078062802D16F
:1006A000052023490870012006F043FB10BD10B55A
:1006B0000120FFF7FEFD022006F03BFB10BD10B548
:1006C0000520FFF7F6FD0421184805F0AEFF90B9AC
:1006D0000E480078032807D00C480078072803D07C
:1006E0000A480078082827D105200849087000200A
:1006F0001049087022E021E000380140F400002099
:10070000940200207B03002000040040030000202E
:100710003E00002001000020D8000020A80000209A
:1007200010000020190000200000002000140140EB
:10073000040000202F0000200E480078042006F05E
:10074000F8FA10BD10B50120FFF7B3FD08210A48E3
:1007500005F06BFF50B907480078062803D1072041
:100760000449087002E0032002490870082006F0DE
:10077000E0FA10BD030000200014014010B5002075
:10078000FE490870487008F0EAFCFD484088E8B16E
:10079000012804D002287DD003286ED13AE0F94820
:1007A00008F070FD0620F549087001204870F6A099
:1007B00008F07BFD0E20F149087001204870F3A07D
:1007C00008F073FDF42008F00DFDA2E0F048007879
:1007D000012803D1EF4808F055FD03E0ED48C01DA6
:1007E00008F050FD0620E549087001204870E448F3
:1007F000808818B1E4A008F058FD02E0E6A008F0F7
:1008000054FD0E20DD49087001204870E3A008F077
:100810004CFD7EE0E2480078B0B9DA4808F032FDDD
:100820000620D649087001204870D7A008F03DFD89
:100830000E20D249087001204870D4A008F035FD80
:10084000F42008F0CFFC24E0D1480078012803D13F
:10085000D04808F017FD03E0CE48C01D08F012FD97
:100860000620C649087001204870C548808828B114
:10087000C5A008F01AFD04E00CE049E0C6A008F0AD
:1008800014FD0E20BD49087001204870C3A008F077
:100890000CFD3EE0C248007818BBBD480078012836
:1008A00003D1BC4808F0EEFC03E0BA48C01D08F0D4
:1008B000E9FC0620B149087001204870B0488088E2
:1008C00018B1B1A008F0F1FC02E0B3A008F0EDFC13
:1008D0000E20AA49087001204870B0A008F0E5FC7D
:1008E00015E0A84808F0CEFC0620A44908700120B5
:1008F0004870A5A008F0D9FC0E20A049087001207E
:100900004870A2A008F0D1FCF42008F06BFC00E0D5
:1009100000BF00BF072099490870002048709BA0C5
:1009200008F0C3FC964909783131C8B208F09CFC44
:100930000F209249087000204870732008F09AFC3C
:1009400004208E4908700120487096A008F0ADFC84
:1009500010BD8B484A2102E000220270401C0A1E92
:10096000A1F1010399B2F7D18F4B1A7070470020A3
:1009700010E0834A921C02EB40010A888B4B33F84B
:1009800020309A4204DD894A02EB800252880A80B4
:10099000421CD0B20D28ECDB7047F0B504461D4672
:1009A000052A00DD052202B90122042900DD042107
:1009B000914200DD1146002004E020267C4F3E5489
:1009C000461CF0B20828F8D3104611E00A2694FB22
:1009D000F6F706FB17463036F7B2461EDFF8D0C1F1
:1009E0000CF806700A2694FBF6F6B4B2461EF0B276
:1009F0000028EBDC81B11346084605E05E1E6C4F13
:100A0000BE5DFE545E1EF3B2061EA0F10107F8B2F1
:100A1000F4D12E26664FFE54A5B900200EE0644E98
:100A2000365C302E07D1624F461CBE5D2E2E02D0A2
:100A300020263E5400E004E0461CF0B2561E8642DA
:100A4000EDDC00BF09B1561CF2B2104604E00026EE
:100A5000574F3E54461CF0B20828F8D3F0BD10B5ED
:100A6000474890F8480018B9524808F00BFC07E0D6
:100A7000434890F84800012802D14F4808F002FC92
:100A800010BD10B53E4890F8480020B949481530CF
:100A900008F0F8FB08E03A4890F84800012803D134
:100AA0004548153008F0EEFB10BD10B543A008F026
:100AB000E9FB10BD10B5002030490870487008F0FF
:100AC0004EFBFFF7CCFF00202C4908700120487036
:100AD00008F045FBFFF7D5FF10BD10B52C4909788C
:100AE000C1EBC101384A881808F0DFFB10BD10B512
:100AF00023484088032802DD002021494880002047
:100B00001E490870487008F02AFB1D49498801EB0E
:100B100041012E4A02EB410008F0C7FB07201749AC
:100B200008700020487016490978481C01231A46AD
:100B30000021FFF732FF15A008F0B7FB1C4808F0B2
:100B4000A1FB0F484088012803DD21A008F09AFB93
:100B500002E020A008F096FB0A2008490870084827
:100B60004088032803D006484088012837D104492B
:100B7000488B0023042201212EE00000B200002057
:100B8000F40000204BA80108444300004D00000081
:100B90000400002059A80108414300006D410000F5
:100BA0002F0000206B56000002000020FCAE010860
:100BB000B40000201CB00108B3AF01084E6F7620CE
:100BC000323220323032310066AF0108CDA8010840
:100BD0005F00000020000000FFF7DFFE06E0FB4999
:100BE000C889002304220121FFF7D7FEF84808F046
:100BF0005CFBF8A008F046FB0020F74908700120D4
:100C00004870F248808840B9F048C088B0F5167F37
:100C100003DD4FF41671ED48C180EC48408801288F
:100C20000AD1EA49888A002303220221FFF7B5FE90
:100C30000121E648818012E0E4484088032807D17A
:100C4000E249888A002303220221FFF7A6FE06E07C
:100C5000DE49C888002303220221FFF79EFEDC48FC
:100C600008F023FBAFF2C40008F00CFB1421DB48B2
:100C700008F0A1FFD948DAA109680160DAA108F0FB
:100C8000A5FFD2484088032812D1D049C888002344
:100C900003220221FFF781FE1421D44808F08BFFC4
:100CA000D248CFA109680160CFA108F08FFF15E0FD
:100CB000C6484088022811D1C449888A00230322EB
:100CC0000221FFF76AFE1421C84808F074FFC748E4
:100CD000C3A109680160C4A108F078FFBB488088FF
:100CE00040B9BA484088032804D0AFF2541008F045
:100CF000C9FA03E0AFF2701008F0C4FAB3484088B4
:100D0000032803D0B148408801282FD10A20B249D6
:100D10000870AE49C88A002304221946FFF73DFE39
:100D2000AB4808F0C2FAAFF29C1008F0ABFAF4201E
:100D300008F058FAAEA1AD4808F048FFAEA1AB48A4
:100D400008F044FFA148408803283BD19F49088907
:100D5000002304220221FFF720FEA1A19F4808F0F2
:100D600035FFA6A19D4808F031FF2BE009209A49E4
:100D7000087096490889002304220221FFF70DFE1E
:100D8000934808F092FAAFF2EC1008F07BFA94A1C5
:100D9000924808F01BFF99A1904808F017FF8B4874
:100DA000408802280ED18949C88A002304220221E2
:100DB000FFF7F3FD8EA18D4808F008FF8EA18B4848
:100DC00008F004FF10BD70B505468D48047804F0A6
:100DD0003F0475B1012D09D0022D04D0032D09D196
:100DE00044F0C00409E044F0800406E044F040040C
:100DF00003E002E044F0C00400BF00BF804804707C
:100E00000020804908607E480078C04300067C4985
:100E1000097840EA01207C49086001207B49C1F83B
:100E200090016420FFF745FA70BD70B504460020BC
:100E3000694908704870254604EBD5714910A4EB48
:100E40004101C1EBC10101EB4101714A881808F071
:100E50002CFA002060490870012048706D4808F0A5
:100E600024FA70BDF8B5044601275B4800788DF878
:100E70000000594840788DF80100206808F0B2FE63
:100E8000C6B2701CC6B2082E00DD082652E067B15B
:100E90009DF80000504908709DF801004870A28834
:100EA000216806FB021008F000FA0A2008F099F801
:100EB0000546E12D15D009DCA5F16100082837D2DF
:100EC000DFE800F00E201136362E3331A5F1E200B6
:100ED00007282DD2DFE800F017082C2C252A28003F
:100EE00000BF6120F8BD00BF0127A088618988424A
:100EF00003DDA088401EA08003E06089A08008F088
:100F00007DFC16E000BF0127A088401CA080A088BF
:100F10002189884203DD2089A08008F06FFC08E069
:100F200000BF6620DEE700BF00BF00BF6720D9E733
:100F300000BF00BFABE710B504460020264908708B
:100F4000487004EB840101EBC401334A881808F0AF
:100F5000ACF9002020490870012048702F4808F0A3
:100F6000A4F910BD10B504460A2094FBF0F100FB73
:100F70001140C4B234B1012C11D0022C19D0032C71
:100F80005BD14DE0124808F090F9202008F06CF990
:100F9000562008F069F9202008F066F94EE00C4868
:100FA00008F083F9202008F05FF9732008F05CF95D
:100FB00044E0074808F079F9202008F055F94D2061
:100FC00008F052F9F42008F04FF937E0F40000205F
:100FD000B400002073000000B200002002020020D4
:100FE000302E3030000000006B563B002A020020FB
:100FF0002020302E300000004D3B00006D413B00B2
:10100000A50000209081224210140140008022425D
:101010001AAD01086EAD0108ECAD0108D7AD0108AD
:10102000F64808F042F9202008F01EF94D2008F09B
:101030001BF9F42008F018F900E000BF00BF10BD54
:1010400010B504460020EE49087048700E2C13D2EB
:10105000DFE804F007131F63646566676869AAAB7D
:10106000ACADE8A008F021F90020E54908700120A6
:101070004870E9A008F019F9B9E0EBA008F015F9FB
:101080000020DF49087001204870EB4808F00DF996
:10109000ADE0EA484088C8B1012804D0022817D042
:1010A000032837D113E0A11EE54A02EB011008F036
:1010B000FCF80020D249087001204870611E01EB45
:1010C0000111DD4A881808F0F0F824E000BF00BFE5
:1010D0000020CB4908704870A11EDA4A02EB0110CB
:1010E00008F0E3F80020C649087001204870D34892
:1010F000808838B9A11E01EB0111D34A881808F085
:10110000D4F806E0A11E01EB0111D04A881808F0BE
:10111000CCF800E000BF00BF69E000BF00BF00BF27
:1011200000BF00BF00BFC5484088C8B1012804D037
:10113000022817D0032834D113E0A11EC04A02EBC5
:10114000011008F0B2F80020AD4908700120487085
:10115000611E01EB0111B84A881808F0A6F821E0D9
:1011600000BF00BFA11E01EB0111B94A881808F0A9
:101170009CF80020A249087001204870AF48808880
:1011800038B9611E01EB0111AF4A881808F08DF8DB
:1011900006E0611E01EB0111AC4A881808F085F8E1
:1011A00000E000BF00BF22E000BF00BF00BFA11EE3
:1011B00001EB0111A64A881808F077F80C2C01D031
:1011C0000B2C07D10E208E49087000204870F420A7
:1011D00008F050F800208A49087001204870611E0C
:1011E00001EB01119B4A881808F05FF800BF00BFAF
:1011F00010BD2DE9F84304464FF0010980480078FE
:101200008DF800007E4840788DF801000027A07915
:1012100008B9032600E00426A4E1B9F1000F10D0BC
:101220009DF80000764908709DF801004870A38978
:10123000DAB2A179A0880023FFF7AFFB6F4808F06E
:1012400034F80A2007F0CDFE8046B8F1E10F15D042
:1012500009DCA8F16100082872D2DFE800F00E9CDA
:10126000127171CECDCCA8F1E2000728F4D2DFE8EC
:1012700000F0FA3F6767F9F8F70000BF6120BDE8AA
:10128000F8834FF00109002773488079C0F103000B
:10129000B04202DA701EC5B200E035466F4830F841
:1012A000150061890844A188884206DCA0886B4942
:1012B00031F81510401AA08019E06089052802D085
:1012C0006089062813D16089062806D1A08810B14C
:1012D0000020A08001E008F091FA6089052806D17D
:1012E000A08810B10020A08001E008F087FA38E162
:1012F0004FF00109781CC7B257488079C0F103004C
:10130000B04202DA701EC5B200E035461C2F0CDD7B
:10131000002D01DD681EC5B2002D01DD681EC5B2BD
:10132000002D14DD681EC5B211E0132F09DD002D5C
:1013300001DD681EC5B2002D09DD681EC5B206E0DC
:1013400009E10A2F03DD002D01DD681EC5B2434807
:1013500030F8150061890844A188884206DCA0881D
:101360003E4931F81510401AA08013E06089062824
:1013700006D1A08810B10020A08001E008F03EFA5C
:101380006089052806D1A08810B10020A08001E066
:1013900008F034FAE5E04FF0010900272E48807983
:1013A000C0F10300B04202DA701EC5B200E035465B
:1013B0006089062802D06089052855D160890628F1
:1013C0000AD1A08810B90620A08005E0A088234992
:1013D00031F815100844A0806089052852D1A088F2
:1013E00010B90520A0804DE0A0881C4931F81510E7
:1013F0000844A08046E0A9E0AAE0A4E0B4000020F0
:10140000B20000204D656D6F72793D2020202020B4
:10141000202020200000000052616E67653A312DC7
:1014200039202020202020005465737420203D2086
:101430002020202020202000E5A80108F400002022
:1014400067A801083AA90108BAA90108FCAB01087C
:1014500053AA01081FAB0108C800002028A80108F2
:1014600075E076E070E00EE0A088F84931F81510DC
:101470000844A080A0882189884203DD2089A080BB
:1014800008F0BCF96DE04FF00109781CC7B2F048D4
:101490008079C0F10300B04202DA701EC5B200E0EC
:1014A00035461C2F0CDD002D01DD681EC5B2002D58
:1014B00001DD681EC5B2002D13DD681EC5B210E047
:1014C000132F08DD002D01DD681EC5B2002D08DDDB
:1014D000681EC5B205E00A2F03DD002D01DD681E80
:1014E000C5B26089062802D0608905281CD16089B0
:1014F00006280AD1A08810B90620A08005E0A0889F
:10150000D24931F815100844A0806089052819D106
:10151000A08810B90520A08014E0A088CB4931F83C
:1015200015100844A0800DE0A088C84931F81510B6
:101530000844A080A0882189884203DD2089A080FA
:1015400008F05CF90DE000BF662098E600BF08E0F7
:1015500000BF672093E6BF488078012800D00027AD
:1015600000BF00BF59E62DE9F04100250026002705
:10157000B948C08940F6D861884211DD012500BF15
:10158000002405E00020B54941F82400601CC4B2E5
:101590000C2CF7DB0020B2490870B249088009E042
:1015A000AD48C089B0F5B47F02DA0126002501E01C
:1015B000002500260027AC480078002816DD012D04
:1015C00014D1A9480078401EA749087001270024BB
:1015D00005E00020A14941F82400601CC4B20C2C95
:1015E000F7DB00209E4908709E4908809E480078DD
:1015F000042816DA012E14D19B480078401C9A4921
:1016000008700127002405E00020944941F82400D7
:10161000601CC4B20C2CF7DB002091490870914982
:101620000880012F06D190480078FFF7CCFB3220CC
:10163000FEF73FFEBDE8F08101B590B000211098A3
:1016400008F01EFD10D2109808F0BBFC0022874B5A
:10165000CDE9060108F095FBCDE9080108F0F4FC9E
:101660001090012082490870109808F0AAFC814A65
:10167000814BCDE9080108F0B7FC01D211B000BDE3
:10168000109808F09EFC7D4A7D4BCDE9080108F0DA
:10169000C3FC58D2109808F094FC784A784BCDE9F6
:1016A000060108F0E0FBCDE9080108F0CDFC0E9042
:1016B00074480D9000200B9026200A903FE0DDE951
:1016C0000D1008F020FB4FF07E51099008F0D8FC77
:1016D0000ED20D9808F075FC00226B4BCDE9060187
:1016E00008F0C1FBCDE9080108F0AEFC0D9000E068
:1016F00028E00D9808F065FC644A654BCDE90201CD
:1017000008F03FFBCDE90601109808F05AFCCDE93E
:101710000401DDE9062308F0A6FBCDE9080108F085
:1017200037FC0C9052490C9848600A9808720B9844
:10173000401C40B20B900A98401E40B20A900B9891
:101740000428BCDB13E2109808F03BFC514A524BD2
:10175000CDE9080108F060FC58D2109808F031FC7F
:101760004C4A4D4BCDE9060108F07DFBCDE908015F
:1017700008F06AFC0E9049480D9000200B90232041
:101780000A903FE0DDE90D1008F0BDFA4FF07E5100
:10179000099008F075FC0ED20D9808F012FC00229A
:1017A000394BCDE9060108F05EFBCDE9080108F0F0
:1017B0004BFC0D9000E028E00D9808F002FC384A40
:1017C000384BCDE9020108F0DCFACDE906011098AA
:1017D00008F0F7FBCDE90401DDE9062308F043FB3F
:1017E000CDE9080108F0D4FB0C9021490C98486021
:1017F0000A9808720B98401C40B20B900A98401E41
:1018000040B20A900B980828BCDB9BE7109808F0C0
:10181000D8FB254A254BCDE9080108F0FDFB7DD218
:10182000109808F0CEFB204A204BCDE9060108F0C5
:101830001AFBCDE9080108F007FC0E9017480D903F
:1018400000200B901C200A9074E0000028A80108DA
:10185000C8000020AC000020D80000207C0100203F
:101860000700002008000020060000200000F0BF54
:10187000E8000020ECCFC55FFFFF0F38824DC77234
:101880006142334700007A440000244021D7E6FA41
:10189000E031F44581121F2FE727C0458096184B91
:1018A00092D54D06CFF0804450EFE2D6E41A4B4477
:1018B000DDE90D1008F027FA4FF07E51099008F08D
:1018C000DFFB0ED20D9808F07CFB0022F74BCDE930
:1018D000060108F0C8FACDE9080108F0B5FB0D9043
:1018E00000E02AE00D9808F06CFBF14AF14BCDE9DD
:1018F000020108F046FACDE90601109808F061FBF4
:10190000CDE90401DDE9062308F0ADFACDE90801CF
:1019100008F03EFB0C90E8490C9800E00EE04860AF
:101920000A9808720B98401C40B20B900A98401E0F
:1019300040B20A900B980828BADBA0E3109808F090
:1019400040FBDE4ADE4BCDE9080108F065FB58D2CA
:10195000109808F036FBD94AD94BCDE9060108F0BA
:1019600082FACDE9080108F06FFB0E90D5480D9082
:1019700000200B9015200A903FE0DDE90D1008F0E3
:10198000C2F94FF07E51099008F07AFB0ED20D9803
:1019900008F017FB0022C54BCDE9060108F063FAF9
:1019A000CDE9080108F050FB0D9000E028E00D980B
:1019B00008F007FB0022C44BCDE9020108F0E1F971
:1019C000CDE90601109808F0FCFACDE90401DDE943
:1019D000062308F048FACDE9080108F0D9FA0C907E
:1019E000B5490C9848600A9808720B98401C40B2A0
:1019F0000B900A98401E40B20A900B980828BCDB56
:101A00003DE3109808F0DDFA0022B04BCDE9080163
:101A100008F002FB58D2109808F0D3FA0022AB4B22
:101A2000CDE9060108F01FFACDE9080108F00CFB2A
:101A30000E90A4480D9000200B900D200A903FE0DE
:101A4000DDE90D1008F05FF94FF07E51099008F0C4
:101A500017FB0ED20D9808F0B4FA0022934BCDE993
:101A6000060108F000FACDE9080108F0EDFA0D9042
:101A700000E028E00D9808F0A4FA00228B4BCDE995
:101A8000020108F07EF9CDE90601109808F099FAF4
:101A9000CDE90401DDE9062308F0E5F9CDE9080107
:101AA00008F076FA0C9084490C9848600A980872FD
:101AB0000B98401C40B20B900A98401E40B20A900E
:101AC0000B980828BCDBDAE24FF07E51109808F042
:101AD000E1FA4DD210980E907A480D9000200B90AC
:101AE00007200A9021E0DDE90D1008F00CF94FF015
:101AF0007E51099008F0C4FA0ED20D9808F061FAF0
:101B000000226A4BCDE9060108F0ADF9CDE90801E4
:101B100008F09AFA0D9000E00AE00B98401C40B2E1
:101B20000B900A98401E40B20A900B980828DADB06
:101B300000BF0D9808F045FA654A664BCDE90201F1
:101B400008F01FF9CDE90601109808F03AFACDE93E
:101B50000401DDE9062308F086F9CDE9080108F063
:101B600017FA0C9054490C9848600A98087286E25B
:101B7000109808F026FA584A584BCDE9080108F0A9
:101B80004BFA59D2109808F01CFA00224F4BCDE9BD
:101B9000060108F0F6F8CDE9080108F055FA0E90B4
:101BA00048480D9000200B900A9041E0DDE90D10AF
:101BB00008F0A9F84FF07E51099008F061FA0ED2B2
:101BC0000D9808F0FEF90022384BCDE9060108F027
:101BD0004AF9CDE9080108F037FA0D9000E02AE053
:101BE0000D9808F0EEF902460B46CDE902013C489B
:101BF0003C4908F038F9CDE90601109808F0E1F900
:101C0000CDE90401DDE9062308F0BBF8CDE90801C0
:101C100008F0BEF90C9028490C9848600A980872A0
:101C20000B98401C40B20B900A98401E40B20A909C
:101C30000B980828BADB22E2109808F0C2F92A4A69
:101C40002A4BCDE9080108F0E7F97ED2109808F098
:101C5000B8F91A4A1A4BCDE9060108F092F8CDE915
:101C6000080108F0F1F90E9016480D9000200B9035
:101C7000C01F0A9064E0DDE90D1008F044F84FF051
:101C80007E51099008F0FCF90ED20D9808F099F9F0
:101C90000022064BCDE9060108F0E5F8CDE9080180
:101CA00008F0D2F90D9023E04DE000000000244040
:101CB00000003426F56B0C43E80000200000901E65
:101CC000C4BCD6428096184B84D79741D01263414A
:101CD0008DEDB5A0F7C6B03E48AFBC9AF2D77A3EBC
:101CE000000040E59C30A2429B2BA1869B84063DD0
:101CF0000D9808F066F902460B46CDE90201F74857
:101D0000F74908F0B0F8CDE90601109808F059F944
:101D1000CDE90401DDE9062308F033F8CDE9080137
:101D200008F036F90C90EF490C9848600A98087250
:101D30000B98401C40B20B900A98401E40B20A908B
:101D40000B98082897DB9AE1FFE7109808F039F91B
:101D5000E54AE64BCDE9080108F05EF95BD2109840
:101D600008F02FF9E24AE34BCDE9060108F009F843
:101D7000CDE9080108F068F90E90DF480D900020C9
:101D80000B906FF00D000A9041E0DDE90D1007F0B7
:101D9000BAFF4FF07E51099008F072F90ED20D98FB
:101DA00008F00FF90022D54BCDE9060108F05BF8E9
:101DB000CDE9080108F048F90D9000E02AE00D98FF
:101DC00008F0FFF802460B46CDE90201CC48CD49A8
:101DD00008F049F8CDE90601109808F0F2F8CDE9CD
:101DE0000401DDE9062307F0CCFFCDE9080108F086
:101DF000CFF80C90BB490C9848600A9808720B9871
:101E0000401C40B20B900A98401E40B20A900B98BA
:101E10000828BADB33E1109808F0D3F8BA4ABB4B74
:101E2000CDE9080108F0F8F85BD2109808F0C9F87D
:101E3000B74AB84BCDE9060107F0A3FFCDE9080189
:101E400008F002F90E90AC480D9000200B906FF056
:101E500014000A9041E0DDE90D1007F054FF4FF047
:101E60007E51099008F00CF90ED20D9808F0A9F8EF
:101E70000022A24BCDE9060107F0F5FFCDE90801EC
:101E800008F0E2F80D9000E02AE00D9808F099F8CB
:101E900002460B46CDE902019F48A04907F0E3FF47
:101EA000CDE90601109808F08CF8CDE90401DDE9D0
:101EB000062307F066FFCDE9080108F069F80C90E9
:101EC00088490C9848600A9808720B98401C40B2E8
:101ED0000B900A98401E40B20A900B980828BADB73
:101EE000CDE0109808F06DF88D4A8E4BCDE90801D1
:101EF00008F092F861D2109808F063F88A4A8B4B88
:101F0000CDE9060107F03DFFCDE9080108F09CF896
:101F10000E9079480D9000200B906FF01B000A90F6
:101F200047E0DDE90D1007F0EEFE4FF07E5109901D
:101F300008F0A6F80ED20D9808F043F800226F4B77
:101F4000CDE9060107F08FFFCDE9080108F07CF824
:101F50000D9000E030E00D9808F033F802460B4693
:101F6000CDE900017048714907F07DFFCDE904011A
:101F7000109808F026F8CDE90201DDE9042307F006
:101F800000FF00226A4BCDE9060107F0FAFECDE919
:101F9000080107F0FDFF0C9052490C9848600A9820
:101FA00008720B98401C40B20B900A98401E40B239
:101FB0000A900B980828B4DB61E0109808F001F84B
:101FC0005C4A5D4BCDE9060107F0DBFECDE9080177
:101FD00008F03AF80E9059480D9000200B906FF0E1
:101FE00022000A9047E0DDE90D1007F08CFE4FF06B
:101FF0007E51099008F044F80ED20D9807F0E1FFE9
:1020000000223E4BCDE9060107F02DFFCDE9080186
:1020100008F01AF80D9000E030E00D9807F0D1FFBD
:1020200002460B46CDE900014248434907F01BFF39
:10203000CDE90401109807F0C4FFCDE90201DDE904
:10204000042307F09EFE0022394BCDE9060107F07C
:1020500098FECDE9080107F09BFF0C9021490C98F0
:1020600048600A9808720B98401C40B20B900A987E
:10207000401E40B20A900B980428B4DB00BF00BF9A
:10208000FFF7FCBA70B500252D480078401C2C499C
:1020900008702C48C08949F64041884204DC294830
:1020A000C089B0F5FA6F06DA27480078042802D014
:1020B00000202349087025498A6825490888411C61
:1020C000234B1980234941F82020184600880C280A
:1020D00002DB002019460880002446E0408CB578D9
:1020E0001DAF1544E80000204F9B0E0AB4E3923B5D
:1020F00050EFE2D6E41A4B448096184B000024407F
:102100000284FEE471D98945196050BEF6B01F3AC9
:1021100081121F2FE727C045037CD8EA9BD0FE46DB
:102120000F7AF8B7A595AA38824DC7726142334736
:1021300080842E41B1A1162AD3CED24700007A4422
:1021400007000020D8000020060000206C010020BD
:10215000080000207C010020FE4850F8241028468A
:1021600007F047FD0546601CC4B20C2CF4DBFA48AE
:1021700000780C2808DBF949284607F0C4FDF84927
:1021800088600C20F4490870F5498868FFF754FA14
:10219000F44840684FF47A71B0FBF1F0F1494860BF
:1021A00070BD70B5EE49C86807F0CCFE0546EC4836
:1021B0000168284607F075FD0446E9484168204655
:1021C00007F0A1FDE649886070BD10B5E648C089FA
:1021D0000A2802DA0A20E449C881E349C88907F0DD
:1021E000B1FEDF494860E148E149097850F8210033
:1021F000DB49C860FFF7D5FF10BD2DE9F041002491
:10220000012715E2012FFCD100270E2C15D2DFE8A3
:1022100004F00715234748494A4B9D4CBDBEBFC03B
:10222000D44D2888401CD449888009200881012089
:1022300048810020887101208881CCE0CD4DAD1C03
:10224000CE48CD49086028888880002008814881D0
:10225000887101208881BEE0C648408838B10128D5
:1022600004D0022805D0032818D101E016E000BFF1
:1022700000BFC0488088002802DD0021BD48818061
:10228000BC4D2D1DBE48BC490860288888800020B0
:102290000881488188710120888100BF00BF9AE0D1
:1022A00000BF00BF00BF00BF00BFB248408838B1C8
:1022B000012804D0022805D0032845D101E043E0DD
:1022C00000BF00BFAB48801D00EB4400851FA9483C
:1022D0008088E0B9AB48A849086028888880601EDB
:1022E000A94931F82000A4490881601EA64901EBE4
:1022F00080004088A0494881E01EA44911F81000E0
:102300009D498871A24830F8140088811BE09D48DF
:102310009949086028888880601E9E4931F820000D
:1023200095490881601E9B4901EB800040889249D5
:102330004881E01E954911F810008F498871944832
:1023400030F81400888100BF00BF44E08948008A4B
:10235000012802DD002187480182864D10358E4814
:102360008549086028888880601E874931F82000E8
:1023700081490881601E844901EB800040887E49C4
:102380004881002088710120888124E000BF00BFBF
:1023900000BF7848801D00EB4400851F7F487649C8
:1023A000086028888880601E774931F820007249CB
:1023B0000881601E744901EB800040886E494881A5
:1023C000E01E724911F810006B498871704830F8AE
:1023D0001400888100BF00BF2046FEF731FE0E2C9E
:1023E00076D2DFE804F007111B252F39434D5761E2
:1023F0006B7677780A206A490870002048705E483A
:10240000FEF7F7FE804671E008206549087000205D
:1024100048705948FEF726FD804667E00A2060496B
:102420000870002048705448FEF71CFD80465DE0AF
:102430000A205B490870002048704F48FEF7D9FE1B
:10244000804653E0072056490870002048704A48EB
:10245000FEF7CFFE804649E0072051490870002072
:1024600048704548FEF7C5FE80463FE007204C49CE
:102470000870002048704048FEF7BBFE804635E0FB
:10248000082047490870002048703B48FEF7B1FE1D
:1024900080462BE0072042490870002048703648EB
:1024A000FEF7E0FC804621E007203D49087000204F
:1024B00048703148FEF79DFE804617E00A203849F3
:1024C0000870002048702C48FEF793FE80460DE00F
:1024D0000BE000BF00BF08203149087000204870A1
:1024E0002548FEF786FE804600E000BF00BF44B9E5
:1024F00021488088401E288006F023FFFEF737FA27
:1025000002E01D4880882880B8F1680F72D009DC8D
:10251000A8F1610007286ED2DFE800F00E6E708827
:1025200088728300A8F1E10008287FD2DFE800F07C
:102530000565677E7E7E7A7800BF0E484088012858
:1025400002D1012C00D109240A48808801282FD10A
:10255000072C27E07C0100200700002000004041FC
:102560006C010020E8000020D800002030A80108FD
:1025700006000020F4000020C8000020B5A80108D3
:10258000A7A801083AA90108C8AE010830AF0108A0
:1025900046AF010894AE0108AFA8010853AA01088C
:1025A000B200002004D1601CC4B2601CC4B201E0BF
:1025B000601CC4B2012C1BDD5048408840B101288A
:1025C00004D0022807D0032807D103E00E2606E036
:1025D0000A2604E000BF0E2601E00E2600BF00BF61
:1025E000B44205DB002403204549087006F098FE3C
:1025F00001271CE013E019E000BF18E000BF16E05F
:102600003E48C088012802D102213C48C1800320F5
:102610003B49087006F084FE06F050FE07E000BF5C
:1026200005E000BF03203649087000E000BF00BF8E
:102630003348007804283FF4E5ADBDE8F0817047E9
:1026400002460B4688B2704710B54FF480732D4A8E
:102650002D492E4803F0AAF92C4803F0D1F910BDFA
:10266000F0B50446059D27460E4602B9012207FB38
:1026700006FCBCFBF5FC0CFB03FCBCFBF2F0F0BD64
:1026800030B50246002006E0145C0A2594FBF5F400
:10269000E3B2441CE0B28842F6DB30BD70B50246BE
:1026A0000C46002012E0135CDD1703EB15752911B1
:1026B000135CDD1703EB15752D11A3EB051501EB6D
:1026C000810605EB46051554431CD8B2A042EADB4F
:1026D00070BD30B50B460146C41700EB1474C4F34B
:1026E0000712C41700EB14742411A0EB041402EBBE
:1026F000820504EB4504E0B230BD0000F400002088
:102700000300002028A701080C1001401C00024013
:1027100070B506F0DFFF06F072FF00214FF0804039
:1027200004F040FFFEF715F906F0CFFD06F0CDFDF1
:1027300006F007FE06F0D9FD06F014FEFEF717F9C5
:10274000F4480078082802DD0020F249087007F0FC
:1027500047F806F04FFEFEF7ADF90020EE4908708D
:10276000002438E0601CC4B2142C02DD0320EB49C5
:1027700008700A2006F035FC0546682D25D009DCD6
:10278000A5F16100072824D2DFE800F01517190E23
:102790001B1D2000A5F1E10007281AD2DFE800F098
:1027A0000C0E10051214170000BF0920DB49087039
:1027B00007F01DF80EE000BF0CE000BF0AE000BF0C
:1027C00008E000BF06E000BF04E003E000BF1424FF
:1027D00000E000BF00BFD14800780228C2D006F058
:1027E000F5FE70BD10B55A20CD49087059204870CB
:1027F0005A20CC49087059204870C648008ACA49F6
:10280000097860F30411C8480170C248408AC6497B
:10281000097860F30301C44801700078C049C870AA
:10282000C1480078BF49C870C0480078002867D107
:10283000BF48008870B9BF480078032805D0042835
:1028400007D10020B649887003E00120B4498870A0
:1028500000BF55E0B648008801280ED1B548007881
:10286000032805D0042807D10620AD49887003E06D
:102870000720AB49887000BF42E0AD4800880328BC
:102880001DD1AC480078032808D0042816D10620B2
:10289000A34988700020A34988700FE0A6480078FB
:1028A000012803D107209E49887006E0A2480078DD
:1028B000022802D101209B49887000BF20E09C487B
:1028C000008802281CD19B480078032808D00428DF
:1028D00015D10020924988700620924988700EE038
:1028E00095480078012802D18D49887006E0924809
:1028F0000078022802D107208A49887000BF00BFF3
:102900008A48007820B38A48008810BB894800783C
:10291000C01E06281CD2DFE800F00F0313070B17B8
:1029200000207F49887013E002207D4988700FE005
:1029300003207B4988700BE001207949887007E00B
:1029400004207749887003E005207549887000BF2E
:102950001FE07748008801281BD1764800780328BB
:1029600012D0042804D0062806D0072810D107E08A
:1029700006206B4988700BE008206949887007E0E1
:1029800009206749887003E007206549887000BF07
:1029900000BF67480088032803D0654800880228E4
:1029A00012D100240DE05F48015D644805F014FA7F
:1029B00000BF8021614805F07DFA0028F9D0601C35
:1029C000C4B20C2CEFDB11E000240DE05448015D93
:1029D0005A4805F001FA00BF8021584805F06AFA0C
:1029E0000028F9D0601CC4B20C2CEFDB10BD2DE91F
:1029F000F04190B0FF260027514890F82B00A0B17D
:102A00004F4890F83000434981F848001E214C4857
:102A10002E3007F0D0F80020494981F82B00002122
:102A2000474880F82C1006F057FC3A4890F84800C8
:102A300000286BD1434890F82B00002867D01C2158
:102A400001A807F0B8F81C223E49303101A807F070
:102A500099F83C4890F82F6090F8305000203949A0
:102A600081F82B000021374880F82C10EE2E4FD033
:102A700008DCCC2E4DD0CE2E0BD0DD2E7ED0DE2E1F
:102A80007DD1C3E1F22E7BD0F32E7AD0F42EF7D194
:102A900036E3284800780B287DD2DFE800F0067C7A
:102AA0007C0D14301B22297C7400274827A10A685A
:102AB00002600979017175E0234824A10A68026067
:102AC000097901716EE0204822A10A680260097943
:102AD000017167E01C4821A10A680260097901714F
:102AE00060E019481FA10A6802600979017159E084
:102AF00015481EA10A6802600979017152E0124866
:102B00001CA10A680260097901714BE009E307E33F
:102B10009DE161E1F4000020050000200300002099
:102B20003E0200205202002054000020000000203D
:102B3000CC010020040000202F00002000380140BC
:102B40007B03002094020020400000202D2D2D2D1D
:102B5000000000005041535300000000484947481E
:102B6000000000004C4F57200000000042524B2054
:102B700000000000415243200000000033E1CEE29B
:102B800043E141E107E0FE48AFF230010A6802602C
:102B90000979017106E0FA48FAA10A680260097928
:102BA000017100BF00BFF9484088022803D0F748F0
:102BB000408803287ED1F648007800287BD1012088
:102BC000F34908702821F34806F0F5FFF248007831
:102BD00040B9F249EF4806F0F9FFE949ED4806F03F
:102BE000F5FF54E0EE480078012816D1EB49E9489A
:102BF00006F0ECFFE5484088022804D1E049E548AA
:102C000006F0E4FF43E0E148408803283FD1AFF2FB
:102C1000C401E04806F0DAFF39E0DC4840880228C9
:102C20001AD1DE48407B3B2806D1DC48AFF2DC01FC
:102C30000968C0F80E1009E0D848807B3B2805D110
:102C4000D648AFF2F0010968C0F80F101222D3493C
:102C5000D04806F097FF1AE0CC484088032816D1E8
:102C6000CE48407B3B2805D1CC48C5490968C0F80F
:102C70000E1008E0C948807B3B2804D1C748C049F2
:102C80000968C0F80F10C549C24806F09FFFC5A1EA
:102C9000C04806F09BFFC449BE4806F097FFC048F5
:102CA0000078012815D1B9484088022808D1AFF230
:102CB000641101E053E03AE0B64806F087FF1AE0FD
:102CC000B2484088032816D1AD49B24806F07EFFCD
:102CD00011E0AE484088022804D1A949AD4806F069
:102CE00075FF08E0A9484088032804D1AFF29C1181
:102CF000A84806F06BFFAD49A64806F067FF002420
:102D00000DE0A448015DAA4805F066F800BF8021E7
:102D1000A74805F0CFF80028F9D0601CC4B2272CD2
:102D2000EFDB00209B49C91E81F82B0053E00024F3
:102D30000DE09848015D9E4805F04EF800BF8021E7
:102D40009B4805F0B7F80028F9D0601CC4B2272CC6
:102D5000EFDB00208F49C91E81F82B003BE08C4837
:102D6000007830BB01208A4908702821894806F084
:102D700022FF0E228949874806F004FF80498548D2
:102D800006F024FF8949834806F020FF00240DE067
:102D90008048015D864805F01FF800BF8021844807
:102DA00005F088F80028F9D0601CC4B2142CEFDBC1
:102DB00011E000240DE07748015D7D4805F00CF836
:102DC00000BF80217A4805F075F80028F9D0601C12
:102DD000C4B2142CEFDBA3E1002076490870052073
:102DE000754908709CE174480078062808D10320D2
:102DF0006949087007207049087006F0E2FB02E09C
:102E000003206D4908708BE18AE189E135B1012D1C
:102E100008D0102D0AD0112D10D10BE000205B49F5
:102E200048800CE001205949488008E002205749B9
:102E3000488004E003205549488000E000BF00BFFF
:102E400006F03CFA06F06CFAFDF751FE68E19DF8D9
:102E50000500401E4D490870AC2D04D0AD2D6FD03B
:102E6000DC2D6ED172E00021484881809DF807007A
:102E70000121FFF72EFC80469DF806000121FFF797
:102E800028FC00EBC00101EB001008EB80013F487B
:102E9000C1809DF809000121FFF71BFC80469DF8C9
:102EA00008000121FFF715FC00EBC00101EB001049
:102EB00008EB8001354801819DF80B000121FFF7E7
:102EC00008FC80469DF80A000121FFF702FC00EB98
:102ED000C00101EB001008EB80012C4841819DF8F6
:102EE0000D000121FFF7F5FB80469DF80C00012144
:102EF000FFF7EFFB00EBC00101EB001008EB8001D6
:102F0000224881819DF80F000121FFF7E2FB8046F6
:102F10009DF80E000121FFF7DCFB00EBC00101EB87
:102F2000001008EB80011948C1819DF81010418202
:102F30009DF81100502805D100211448018204E0B9
:102F400089E0D5E0012111480182D1E001210F483B
:102F500081809DF80700FFF7BCFB80469DF80600C6
:102F60000121FFF7B6FB00EBC00101EB001008EBFD
:102F700080010648C1809DF8090001211EE0000083
:102F8000400000205445535400000000F40000208D
:102F90004A000020970200200400002002020020C6
:102FA000490000203B0000002A0200204C000020C5
:102FB000003801402F00002003000020FFF789FBAC
:102FC00080469DF808000121FFF783FB00EBC0015C
:102FD00001EB001008EB8001FB4801819DF80B001C
:102FE0000121FFF776FB80469DF80A000121FFF7DB
:102FF00070FB00EBC00101EB001008EB8001F24810
:1030000041819DF80D000121FFF763FB80469DF88B
:103010000C000121FFF75DFB00EBC00101EB00108C
:1030200008EB8001E84881819DF80F000121FFF73E
:1030300050FB80469DF80E000121FFF74AFB00EB94
:10304000C00101EB001008EB8001DF48C1819DF851
:10305000101041824CE09DF807000121FFF739FB79
:1030600080469DF806000121FFF733FB00EBC0010D
:1030700001EB001008EB8001D34881829DF8090024
:103080000121FFF726FB80469DF808000121FFF78C
:1030900020FB00EBC00101EB001008EB8001CA48E7
:1030A000C1829DF80B000121FFF713FB80469DF8BC
:1030B0000A000121FFF70DFB00EBC00101EB00103E
:1030C00008EB8001C04801839DF80D000121FFF746
:1030D00000FB80469DF80C000121FFF7FAFA00EB97
:1030E000C00101EB001008EB8001B748418300BF2D
:1030F00000BF06F0E3F806F013F9FDF7F8FC0FE067
:10310000681EB149087006F0D9F80320AF4908706D
:1031100006F017F9FDF72BFCFDF7E9FC00E000BF16
:10312000E7E0A94890F848000128F9D1A84890F8AC
:103130002B0088B11E22A6492E3108A806F022FDD8
:103140009DF822709DF823600020A14981F82B0092
:1031500000219F4880F82C1026B1012E4BD0022E62
:1031600048D158E0022F2CD19DF82400542809D1D1
:10317000002098490870052094490870012096495C
:10318000087037E09DF82400522813D18F4800784A
:1031900006280BD103209149087007208B4908703D
:1031A00006F00FFA01208C49087023E003208749BC
:1031B00008701FE09DF8240053281BD1FFF712FB75
:1031C00018E0032F16D19DF82400742812D1002096
:1031D000804908709DF825007B49087006F06EF85C
:1031E00003207A49087006F0ACF8FDF7C0FB052013
:1031F000764908707CE09DF824007349087006F059
:103200005DF803207149087006F09BF8FDF7AFFBED
:10321000FDF76DFC6CE09DF82400714908700846CC
:1032200000788009684948806D480078C0F34011F3
:10323000654881806A480078C0F3001162480182C5
:103240006748007800F00F015F4841829DF8251023
:1032500081829DF827009DF8261000EB012081B2A5
:103260005948C1809DF829009DF8281000EB0120E5
:1032700081B2554801819DF82B009DF82A1000EB82
:10328000012081B2504841819DF82D009DF82C10FD
:1032900000EB012081B24C4881819DF82F009DF800
:1032A0002E1000EB012081B24748C1819DF831000A
:1032B0009DF8301000EB012081B24348C1829DF897
:1032C00033009DF8321000EB012081B23E480183AB
:1032D0009DF835009DF8341000EB012081B23A488A
:1032E000418305F0EBFF06F01BF8FDF700FC00BF83
:1032F00000BF10B0BDE8F08170B5002037490870FC
:10330000FDF7F5FB06F08EF806F03BF90020314999
:1033100008709CE0334890F82B0008B1FFF767FB7A
:103320000A2005F05EFE0446662C73D008DCA4F18A
:10333000610005286FD2DFE800F010142D596500F8
:10334000E62C7AD004DC672C78D0682C7DD16AE03A
:10335000E72C74D0E82C78D166E004201B49087073
:1033600074E021480078A0B917480078401C16493D
:10337000087008460078082801DD0020087005F074
:10338000E0FFFDF7F4FA05F099FF05F069FFFDF79E
:10339000AEFB5BE014480078A8B90B48007828B170
:1033A00009480078401E0849087002E008200649D4
:1033B000087005F0C6FFFDF7DAFA05F07FFF05F0AB
:1033C0004FFFFDF794FB41E0F400002003000020D4
:1033D000940200202F00002048000020040000205C
:1033E000540000207B03002005000020FE480078E8
:1033F00018B1FD480078401E00E00320C5B2FA482D
:10340000057023E0F8480078032807DAF6480078CA
:10341000401C04E010E018E00FE00FE00020C5B20F
:10342000F148057012E000BF0520F0490870002047
:10343000EF4908700AE002E000BF00BF00BF0020B3
:10344000E9490870EA49087000E000BF00BFE7489A
:10345000007803283FF45EAF70BD10B5FEF7CDFED7
:1034600010BD10B513E00020E2490870E249087071
:10347000DF49087005F08AFF00214FF0804004F01A
:1034800091F80120DD4908700620D8490870D74816
:1034900000780528E7D010BD10B5002005F076FFB4
:1034A00000214FF0804004F07DF86420FCF701FF1C
:1034B00006F002F810BD2DE9FC5F0120CF4908702D
:1034C000CF48B0F802808088C0B20090CC48808895
:1034D000CC49097860F34511CA480170C848408A50
:1034E000C0B20190002005F058FFB8F1000F2ED1B6
:1034F0000020C5490870C248C08800EB80004FF624
:10350000FF7101EA4005BE488089012801D10226E9
:1035100001E0BB4886892C460327F020BB49088080
:1035200040F6D860BA4908809DF8000038B9B9481B
:1035300000884443B248808BB4FBF0F4CCE0B5483B
:1035400040884443AE48008CB4FBF0F4C4E0B8F1CA
:10355000010F1DD14FF4B470AC49088040F6D8601B
:10356000AB4908800120A84908700026A448808A39
:1035700000EB80004FF6FF7101EA40052C4605275D
:10358000A448808844439E48808CB4FBF0F4A3E0B8
:10359000B8F1030F4FD19A48808A00EB80004FF6B4
:1035A000FF7101EA400596488089012801D1022671
:1035B00001E0934886892C4697480078A0B94FF4DB
:1035C000B4709249088040F6D86091490880012083
:1035D0008D490870052700268E4880884443884816
:1035E000808CB4FBF0F477E0F0208849088040F646
:1035F000D860874908800020834908708048C088C7
:1036000000EB80004FF6FF7101EA40052C460327CE
:103610009DF8000038B97F48008844437848808B83
:10362000B4FBF0F458E07B48408844437448008C75
:10363000B4FBF0F450E07848007870BBF020734998
:10364000088040F6D860724908806D48808901285A
:1036500001D1022601E06A4886896948C08800EBEA
:1036600080004FF6FF7101EA40052C460327002039
:10367000654908709DF8000038B9664800884443E1
:103680005F48808BB4FBF0F426E0624840884443F6
:103690005B48008CB4FBF0F41EE0FFE74FF4B4701D
:1036A0005A49088040F6D860594908800026544895
:1036B000808A00EB80004FF6FF7101EA40052C463E
:1036C00005270120504908705248808844434C48DF
:1036D000808CB4FBF0F400BFDFF8249109F11C09E1
:1036E0004FF00B0BDFF834A14FF02C0B002705E057
:1036F00019F8010B0AF8010B781CC7B25F45F7DB1C
:103700000020474908604749088047490860474901
:103710000880474908704749088047490880474959
:1037200008704749088047490880474908700027C2
:1037300008E00020454921F81700454921F8170005
:10374000781CC7B2082FF4DB3E490C80002E45D010
:1037500001203A4908703B480488B4FBF6F4364926
:103760000C800488B4FBF6F006FB104431490C8051
:1037700031480088012831DA0A2030490870314880
:10378000048804EB84004400B4FBF6F42A490C805E
:103790002C48048804EB84004400B4FBF6F006FBDC
:1037A000104424490C8024480088012816DA64203B
:1037B000224908702348048804EB84004400B4FBC9
:1037C000F6F41D490C801F48048804EB8400440073
:1037D000B4FBF6F006FB104416490C80B8F1000F5C
:1037E00049D0B8F1010F35E00500002003000020AA
:1037F000000000201B0000201C000020040000200E
:10380000F4000020540000202E0000203000002092
:1038100032000020360000202F000020D6010020BA
:103820000C0000201E0000201400002020000020BA
:103830002200002024000020260000202800002074
:103840002A0000202C00002001000020AC010020F4
:10385000BC01002006D0B8F1020F54D0B8F1030F1C
:103860007CD126E005F0E4FE022005F01AFF0220DC
:10387000FE49087077E09DF8000048B105F0D8FED9
:10388000022005F00EFF9DF8040005F086FD0FE014
:1038900005F0EAFEF648008A18B1012005F001FFA4
:1038A00002E0002005F0FDFE9DF8040005F075FD26
:1038B00059E0F048007840B905F0BAFE022005F062
:1038C000F0FE0220E94908701CE09DF8000048B1B4
:1038D00005F0AEFE022005F0E4FE9DF8040005F0C0
:1038E0005CFD0FE005F0C0FEE148008A18B1012040
:1038F00005F0D7FE02E0002005F0D3FE9DF804009D
:1039000005F04BFD2FE0DB480078F0B99DF8000092
:1039100048B105F08DFE022005F0C3FE9DF80400BD
:1039200005F03BFD19E005F09FFED148008A18B173
:10393000012005F0B6FE02E0002005F0B2FE9DF881
:10394000040005F02AFD08E008E005F071FE022001
:1039500005F0A7FE0220C549087004E00720C6490B
:103960000870BDE8FC9F00BF002005F00FFD01219D
:10397000880703F017FE05F01FFE0020BF490870FE
:1039800008460078FDF71FFA05F0FBFD05F04AFD3B
:1039900005F07AFD0820BA49087002204870162008
:1039A00008700220487000200870B648007800EBCC
:1039B0004000202101EBC000B14948700020087090
:1039C000B048007800EB4000C00020304870B8F1EB
:1039D000000F09D0B8F1010F07D0B8F1020F05D0E0
:1039E000B8F1030F04D102E000BF02E001E000E003
:1039F00000BF00BF0020A2490870FDF76EF800BFAD
:103A0000AFE710B55A20A0490870592048705A20D5
:103A10009E490870592048709548008A9C49097849
:103A200060F304119A4801709148408A98490978D6
:103A300060F303019648017000789349C870944878
:103A400000789249C87093480078002867D192485E
:103A5000008870B985480078032805D0042807D16C
:103A600000208949887003E001208749887000BFE1
:103A700055E08948008801280ED17C480078032849
:103A800005D0042807D106207F49887003E007206D
:103A90007D49887000BF42E07F48008803281DD11F
:103AA00072480078032808D0042816D106207649E9
:103AB00088700020754988700FE06E4800780128F2
:103AC00003D107207049887006E06A480078022810
:103AD00002D101206D49887000BF20E06E48008847
:103AE00002281CD161480078032808D0042815D189
:103AF0000020654988700620644988700EE05D48A2
:103B00000078012802D16049887006E059480078A1
:103B1000022802D107205D49887000BF00BF5D48C0
:103B2000007828B35C480088022822D14F480078EA
:103B3000C01E06281CD2DFE800F00F0313070B1786
:103B400000205149887013E002204F4988700FE02F
:103B500003204D4988700BE001204B49887007E035
:103B600004204949887003E005204749887000BF58
:103B70001FE04948008803281BD13C4800780328EF
:103B800012D0042804D0062806D0072810D107E058
:103B900006203D4988700BE008203B49887007E00B
:103BA00009203949887003E007203749887000BF31
:103BB00000BF00240DE03448015D384804F00CF9E2
:103BC00000BF8021354804F075F90028F9D0601C49
:103BD000C4B20C2CEFDB10BD38B531480068B0F52D
:103BE000805F03D340F6FF702D4908602D480088A0
:103BF000B0F5805F03DB40F6FF702A490880264855
:103C00000088002878D0012804D0022872D0032828
:103C100071D1BCE124484089214A0090126893B2D6
:103C2000164A1278D21D204D05EB82025188134AA4
:103C30001278D21D35F822001A4A1288FEF710FDBC
:103C400004461A490C6008460068B0F5617F30D917
:103C500028464089124A0090126893B22A46518D34
:103C6000108D104A1288FEF7FBFC21E004000020B2
:103C7000F40000202F000020030000200600002098
:103C8000B20000201C0000203E0200205202002052
:103C90005400002000000020CC010020003801402A
:103CA0000C0000201E000020D6010020140000207F
:103CB0000446FE480460FE48006800EB80004400B3
:103CC000FC4800894443FB484089B4FBF0F40A20D7
:103CD000B4FBF0F100FB1140042800D90A340A209B
:103CE000B4FBF0F4A0B20A2190FBF1F0F0490860B7
:103CF0002EE201E07DE02AE2EF48008800EB800040
:103D00004400EE488088C8BBED480078C01CE949F3
:103D100031F820004443EA480078C01C01EB8000E1
:103D20004088B4FBF0F40A20B4FBF0F100FB114032
:103D3000042800D90A340A20B4FBF0F4E149CC810C
:103D4000DB48006800EB80004400DA480088444308
:103D5000D8484088B4FBF0F40A20B4FBF0F100FB33
:103D60001140042800D90A340A20B4FBF0F4A0B2B0
:103D70000A2190FBF1F0CE49086039E0FFE7D04816
:103D80000078401DCB4931F820004443CC480078EE
:103D9000401D01EB80004088B4FBF0F40A20B4FB26
:103DA000F0F100FB1140042800D90A340A20B4FBCA
:103DB000F0F4C449CC81BE48006800EB80004400A8
:103DC000BC4880884443BB48C088B4FBF0F40A2058
:103DD000B4FBF0F100FB1140042800D90A340A209A
:103DE000B4FBF0F4A0B20A2190FBF1F0B0490860F6
:103DF000AEE1B548007800287DD1AF48008800EBDF
:103E000080004400AD488088C8BBAD480078C01C25
:103E1000A84931F820004443A9480078C01C01EBB0
:103E200080004088B4FBF0F40A20B4FBF0F100FB02
:103E30001140042800D90A340A20B4FBF0F4A14947
:103E4000CC819B48006800EB8000440099480088C2
:103E5000444398484088B4FBF0F40A20B4FBF0F1E6
:103E600000FB1140042800D90A340A20B4FBF0F406
:103E7000A0B20A2190FBF1F08D49086086E0FFE7CF
:103E80008F480078401D8B4931F8200044438C480E
:103E90000078401D01EB80004088B4FBF0F40A205C
:103EA000B4FBF0F100FB1140042800D90A340A20C9
:103EB000B4FBF0F48349CC817D48006800EB8000BE
:103EC00044007C48808844437A48C088B4FBF0F4BE
:103ED0000A20B4FBF0F100FB1140042800D90A3499
:103EE0000A20B4FBF0F4A0B20A2190FBF1F0704973
:103EF00008604BE0FFE76F4840896D4A0090126808
:103F000093B26F4A1278D21D6A4D05EB8202518836
:103F10006B4A1278D21D35F82200674A1288FEF7E4
:103F20009FFB044661490C6008460068B0F5617F5C
:103F30000DD9284640895E4A0090126893B22A46FD
:103F4000518D108D5C4A1288FEF78AFB0446574853
:103F500004605748006800EB800044005548008921
:103F6000444354484089B4FBF0F40A20B4FBF0F118
:103F700000FB1140042800D90A340A20B4FBF0F4F5
:103F8000A0B20A2190FBF1F049490860E0E04E48F8
:103F90000078E8BB47484089454A0090126893B2D0
:103FA000474A1278D21D434D05EB82025188444A9C
:103FB0001278D21D35F822003F4A1288FEF750FBD6
:103FC00004463A490C6008460068B0F5617F0DD997
:103FD00028464089364A0090126893B22A46518D8D
:103FE000108D354A1288FEF73BFB04462F480460CB
:103FF0002F48006800EB800044002E4800894443AD
:104000002C484089B4FBF0F40A20B4FBF0F100E046
:104010000EE000FB1140042800D90A340A20B4FB4A
:10402000F0F4A0B20A2190FBF1F0214908608DE084
:104030002148008800EB800044002048808898BB1D
:104040001F480078C01C1B4931F8200044431C481D
:104050000078C01C01EB80004088B4FBF0F40A201B
:10406000B4FBF0F100FB1140042800D90A340A2007
:10407000B4FBF0F41349CC810D48006800EB8000DC
:1040800044000C48008844430A484088B4FBF0F4DC
:104090000A20B4FBF0F100FB1140042800D90A34D7
:1040A0000A20B4FBF0F411E017E000001400002037
:1040B0000C000020D60100201E000020F40000208B
:1040C00006000020D80000202F000020A0B20A2106
:1040D00090FBF1F0F749086038E0F7480078401DA0
:1040E000F64931F820004443F3480078401D01EBC5
:1040F00080004088B4FBF0F40A20B4FBF0F100FB30
:104100001140042800D90A340A20B4FBF0F4EC4929
:10411000CC81E848006800EB80004400E7488088D4
:104120004443E648C088B4FBF0F40A20B4FBF0F145
:1041300000FB1140042800D90A340A20B4FBF0F433
:10414000A0B20A2190FBF1F0DA49086000E000BF5C
:1041500000BF38BD0CB5DB480078082804DAD94820
:104160000078401CD7490870072001900EE09DF8A8
:104170000400401ED44931F810009DF8042021F8B5
:1041800012009DF80400401EC0B201909DF804008A
:104190000028ECDCC7480068CB490880002000906C
:1041A000C8480078019007E0C7489DF8041030F82F
:1041B00011000099084400909DF80400411EC9B206
:1041C00001910028F0D1BF4909780098B0FBF1F0C7
:1041D0000090009880B2B7490860072001900EE077
:1041E0009DF80400401EB94931F810009DF80420E4
:1041F00021F812009DF80400401EC0B201909DF805
:1042000004000028ECDCB2480088B0490880002097
:104210000090AC480078019007E0AC489DF804108D
:1042200030F811000099084400909DF80400411EE8
:10423000C9B201910028F0D1A24909780098B0FBD9
:10424000F1F00090A249009808800CBD0EB5002046
:104250000190009002900EE005F0A8F80199084442
:10426000019005F0A9F80099084400909DF8080015
:10427000401CC0B202909DF808001028ECDB0198A9
:10428000C0F30F108B4908600098C0F30F109049DD
:1042900008800EBD2DE9F04F8BB04FF0000B0020D1
:1042A000049003900290019082468A4840888A498F
:1042B00008800846008805287ED2DFE800F0170352
:1042C000673898008548007820F0C0004030834966
:1042D00008708048C08A8049C8807E48008B088169
:1042E0007C48408B48800220099087E07B4800781A
:1042F00020F0C00079490870764800897649C88066
:104300007448408908817348C08948807148808911
:10431000012802D10220888003E06E4880896E491E
:1043200088806C48808800900120099066E06B4886
:10433000007820F0C000C0306849087068480078F4
:1043400060B96448C08A6449C8806248008B0881AB
:104350006048408B48800220099016E001200990B7
:104360005C4800895C49C8805A484089088159489E
:10437000C089488057488089012802D1022088805E
:1043800003E0544880895449888037E053480078D6
:1043900020F0C00080305149087051480078C8B9F9
:1043A000012009904B4800894B49C8804948408901
:1043B00008814848C08900E01AE048804548808963
:1043C000012802D10220888010E0424880894249B9
:1043D00088800BE0022009903E48C08A3E49C88090
:1043E0003C48008B08813B48408B488006E005E054
:1043F00007203C4908700BB0BDE8F08F00BFFFF705
:104400005AF80020079008900690374908602C4918
:104410000881364908809DF82400274908700978EA
:10442000334A12781144C8B2FCF7CDFC01F0D4B87D
:104430000020304908703048007801287ED10020E3
:104440002D4908704FF0010BBDF8200042F20F71AA
:10445000884204DABDF82000401C80B2089027484A
:104460000078012852D19DF81C00401CC0B2079072
:104470009DF81C0022490978884208DB002007903B
:104480001A4800881F4909880844184908800C48C0
:1044900000891149898888420BDB0020084908817E
:1044A0001948008811490880022014490870012029
:1044B00004909AE00C00002006000020D6010020A5
:1044C000D800002022000020AC010020BC01002008
:1044D0001E000020F4000020CC0100205400002029
:1044E0002F00002003000020100000202A000020E0
:1044F0002E0000204A0000200100002004000020BF
:1045000028000020260000202C000020FE48008803
:10451000FE490880FE484088002866DDFD48008985
:10452000FB494988884260DBF948008880B1F84837
:104530000088022804D1F848007800E072E038B121
:10454000F348008803282AD1F3480078012826D1AF
:10455000F249C88805F0FBFC8046F14AF14B05F0B2
:1045600010FC04460D46F048006805F0F0FC0646D5
:1045700022462B4605F038FD08D201200390072083
:10458000EA4908700320EA4988702EE00720E949CB
:1045900008700420E54908700120049025E0DF49F7
:1045A000888A05F0D4FC0646DD4ADE4B05F0E9FBBF
:1045B00004460D46DC48006805F0C9FC80462246EA
:1045C0002B4605F011FD08D2012003900720D749A2
:1045D00008700320D649887007E00720D549087085
:1045E0000420D249087001200490C848008804F0D3
:1045F000CDFE9DF81800401CC0B206909DF8180032
:10460000092190FBF1F201FB1200C0B206909DF867
:104610001800052802DA04F07EFB01E004F077FBC5
:10462000FCF7ACF8FFF712FEFFF794FDFFF7D4FAA2
:10463000C1480088C1490988884204DD01200290F0
:10464000002001900DE0BC480088BD4909888842DF
:1046500004DA012001900020029002E00020029084
:1046600001904FF0000AB74800789DF82410884266
:1046700009DA0198012806D1B2480078401CB149F6
:1046800008704FF0010AAF480078002809DD029851
:10469000012806D1AB480078401EAA4908704FF0A7
:1046A000010ABAF1010F1FD10020A74908700A9032
:1046B0000AE00020A5499DF8282021F812009DF865
:1046C0002800401CC0B20A909DF828000828F0DBA2
:1046D0009C4909789E4A12781144C8B2FCF773FBD2
:1046E0003220FBF7E6FDC4E08948008830B101289C
:1046F00024D002287CD0032879D138E09148007872
:10470000012806D18348C0890A2190FBF1F0814934
:10471000C881BDF80000012803D140F22620059091
:1047200002E04FF4966005907A48C0890599884266
:1047300003D948F29F607749C88199E07E48008894
:1047400040B1844800688449884206D908468149B6
:10475000086002E080487F490860BAF1000F05D187
:104760006C480089062801DB0120039080E06A483C
:104770000078C0B97048008840B176480068764932
:10478000884206D908467349086002E072487149B8
:104790000860BAF1000F28D15E480089062824DBA2
:1047A0000120039021E067480078012806D159488C
:1047B000C0890A2190FBF1F05649C8814FF49660F8
:1047C0000590BDF80000012803D140F22620059095
:1047D00002E04FF4966005904E48C08905998842E2
:1047E00003D948F29F604B49C88141E000E03EE0B8
:1047F0004948007810BB53480078012806D1454845
:10480000C0890A2190FBF1F04249C8814FF49660BB
:104810000590BDF80000012803D140F22620059044
:1048200002E04FF4966005903A48C08905998842A5
:104830001CD948F29F603749C88117E03E4800887C
:1048400040B1444800684449884206D90846414975
:10485000086002E040483F490860BAF1000F05D106
:104860002C480089062801DB0120039000E000BFEE
:1048700000BF2E480078022845D10398012842D174
:10488000BAF1000F3FD12248008830B1012865D02D
:1048900002286ED003286DD183E01E48C0890590A0
:1048A0001B48C0880599884221D21C48808858B985
:1048B0004EF660210598884203D90A201B490870EA
:1048C00002E00620194908701448808801280BD19D
:1048D00041F288310598884203D90A2013490870AB
:1048E00002E006201149087002201149887008482A
:1048F00000890599884205D907200C4908700320D2
:104900000B4988709DE09DE02C0000202A000020CB
:10491000CC010020D80000202F000020F40000204F
:104920009A9999999999E93F0C0000200400002078
:104930003E020020030000201E0000203200002064
:10494000300000200600002022000020BC010020D2
:104950002E000020140000209F860100FE48006801
:104960000590FE48007830B101280BD0022815D1FF
:104970000EE03DE064E04FF47A710598B0FBF1F091
:1049800005900CE064210598B0FBF1F0059006E07D
:104990000A210598B0FBF1F0059000E000BF00BFD0
:1049A0004FE0EF480078F8B9EB4800680590EB4815
:1049B000007820B1012809D0022813D10CE04FF46F
:1049C0007A710598B0FBF1F005900CE06421059830
:1049D000B0FBF1F0059006E00A210598B0FBF1F07C
:1049E000059000E000BF02E0DE48C089059028E0A5
:1049F000DB48007818B9DB48C08905901FE0D6482D
:104A000000680590D548007820B1012809D0022817
:104A100013D10CE04FF47A710598B0FBF1F00590DA
:104A20000CE064210598B0FBF1F0059006E00A2146
:104A30000598B0FBF1F0059000E000BF00BF00E07A
:104A400000BF00BFC848007806280FD0C6480078CD
:104A500007280BD0C4480078052807D0C248007842
:104A6000082803D0C04800780A2809D10120BF498E
:104A700008700720BE4908704FF0010B0120049018
:104A8000BBF1010F7ED14FF0000B0020B949087037
:104A900001204870B848008830B1012873D002283E
:104AA00072D0032871D1CFE0B448C088B4490968F6
:104AB00088420DD9B148C088B1490968401A022816
:104AC00013D8AE48C088AE490860012003900CE0BE
:104AD000AA48C088AA490968081A022805D8A74820
:104AE000C088A749086001200390A549096888B2D9
:104AF000012303220221FBF750FFA24804F0D5FB5B
:104B00001421A14805F057F80120A04908709E48DB
:104B10009C49096801609EA105F058F89848006812
:104B2000000A9C490871964800684871092091491B
:104B300008708C49C889002304220221FBF72DFF4D
:104B40008848C089B0F57A7F0EDA8E4840788D4962
:104B500008700846807848700846C0788870084613
:104B60000079C870002008718649874805F02EF842
:104B70007D480078082836D07B4800780A2832D053
:104B8000804803E0F0E351E244E3EEE304F08DFB00
:104B90007C4805F0B4FD064600227F4B05F0F1F895
:104BA000044605F051FA7D4908606E48C089B0F5A9
:104BB0007A7F03DA7AA004F065FB02E079A004F0C2
:104BC00061FB764800787349887174484078C871F1
:104BD0007248807808727148C078487272A16A4839
:104BE00004F0F4FF24E0604800780A280BD16548FF
:104BF0006EA10A6802600979017104F056FB6DA08C
:104C000004F040FB0EE05848007808280AD15D48BF
:104C100069490A6802600979017104F046FB65A0E0
:104C200004F030FB00205B498871C871087248723B
:104C30000020564908704B48008900125549887277
:104C400048480089C872B2E24548007800286FD110
:104C500001205A4908704948808A494909688842B0
:104C60000BD94648808A46490968401A02280FD85D
:104C70004248808A424908600AE04048808A4049A8
:104C80000968081A022803D83C48808A3C49086011
:104C90003B49096888B2012303220221FBF77DFE0C
:104CA000384804F002FB1421454804F084FF012039
:104CB00036490870424833490968016034A104F05C
:104CC00085FF2F480068000A324908712C480068A7
:104CD00048710920274908701F48006842F20F7187
:104CE000884226D91D480078022810D11A48006849
:104CF0000A21B0FBF1F084B2324A18480078401C17
:104D0000115C012305222046FBF747FE1CE01248F8
:104D100000680A21B0FBF1F084B22A4A0F480078FB
:104D2000401C115C012304222046FBF736FE0BE0F9
:104D30008FE0244A094B1B78D15C074A126890B275
:104D400001230422FBF729FE034800681E4988421C
:104D500058D00C483AE00000140000200600002063
:104D60002F000020D80000200400002000000020B8
:104D700003000020B2000020CC010020F40000203D
:104D80000C000020B4000020020200204A00002095
:104D90006B563B003E0200200000594050000020AE
:104DA000206D41006D4100006D413B004F464C209D
:104DB00000000000202000006C2B010849000020AA
:104DC0002A020020B9B001089F86010004F06DFAA4
:104DD000F749F84804F0FAFEF54805F090FC04465F
:104DE00005F032F9F449086008460078F349887103
:104DF000F1484078C871F04880780872EE48C07871
:104E0000487216E0EEA004F050FAEFA1E94804F071
:104E1000DDFEEF48E849086008460078E7498871F8
:104E2000E5484078C871E44880780872E248C07864
:104E30004872E8A1DF4804F0C9FEE7480089001283
:104E4000DE498872E4480089C8720020E34908708E
:104E5000EBE00220E2490870E248C088E2490968B4
:104E600088420DD9DF48C088DF490968401A022806
:104E700013D8DC48C088DC490860012003900CE0AE
:104E8000D848C088D8490968081A022805D8D548E2
:104E9000C088D549086001200390D349096888B2C9
:104EA000012303220221FBF778FDC14804F0FDF93C
:104EB0001421CE4804F07FFE0120C8490870CB4879
:104EC000BB4909680160AFF2381104F07FFEC648A3
:104ED0000068000AC6490871C34800684871092083
:104EE000C4490870BC49C889012304220221FBF788
:104EF00054FDB948C089B0F57A7F0EDAAC484078E5
:104F0000AB4908700846807848700846C0788870B9
:104F100008460079C87000200871A549B34804F01C
:104F200055FEB5480078082837D0B34800780A28DD
:104F300033D09F4804F0B9F99D4805F0E0FB0646E0
:104F40000022AE4B04F01DFF044605F07DF89A499F
:104F50000860A148C089B0F57A7F04DAAFF2C010CA
:104F600004F090F903E0AFF2C41004F08BF992481A
:104F700000789F49887190484078C8718E48807841
:104F800008728D48C0784872AFF2E411974804F077
:104F90001DFE00209149087037E0974800780A28E4
:104FA00015D18348AFF2FC110A68026009790171DA
:104FB00004F07BF9AFF2042004F064F9AFF2182199
:104FC0008A4804F003FE00208449087017E08A48EC
:104FD0000078082813D1764889490A68026009795F
:104FE000017104F062F9AFF2342004F04BF9AFF232
:104FF00048217E4804F0EAFD00207849087000202E
:105000007B498871C87108724872694805F077FB5E
:10501000044605F019F8684908606F4800890012D5
:10502000734988726C480089C87299E26D48808A19
:105030006D49096888420BD96A48808A6A490968BB
:10504000401A02280FD86748808A674908600AE03A
:105050006448808A64490968081A022803D86148AC
:10506000808A614908606049096888B20123032287
:105070000221FBF792FC4E4804F017F914215B481B
:1050800004F099FD012055490870584848490968BD
:105090000160AFF2043104F099FD53480068000A42
:1050A0004649087150480068487109205149087004
:1050B0005448006842F20F71884225D9524800785E
:1050C000022810D14F4800680A21B0FBF1F084B2E9
:1050D0004E4A4D480078401C115C002305222046B2
:1050E000FBF75BFC1BE0474800680A21B0FBF1F0CE
:1050F00084B2464A44480078401C115C00230422D4
:105100002046FBF74AFC0AE0404A3F4B1B78D15C43
:105110003C4A126890B201230422FBF73EFC394856
:1051200000683B4988421CD0214804F0BEF8204961
:105130002E4804F04BFD1E4805F0E1FA044604F049
:1051400083FF1D490860084600781C4988711A4889
:105150004078C8711848807808721748C07848723B
:1051600016E017A004F0A1F815A1204804F02EFDC8
:1051700017481149086008460078104988710E48A0
:105180004078C8710C48807808720B48C078487223
:1051900010A1164804F01AFD0020104908700E48AE
:1051A00000890012054988720B480089C872D7E14E
:1051B000B40000202A020020500000203E020020FF
:1051C0003E393939390000003E39393900000000D4
:1051D00000401C464D3B0000D80000204A00002043
:1051E00049000020F40000200C00002002020020F2
:1051F00052020020B20000200400002000005940AC
:105200006C2B01081400002006000020B9B0010832
:105210009F860100FE48007800287CD10120FD49CE
:105220000870FD48C088FD49096888420DD9FA48D0
:10523000C088FA490968401A022813D8F648C0887D
:10524000F6490860012003900CE0F348C088F34958
:105250000968081A022805D8EF48C088EF49086095
:1052600001200390ED49096888B20123032202213D
:10527000FBF793FBEA4804F018F81421E94804F01E
:105280009AFC0120E8490870E648E5490968016090
:10529000AFF2045104F09AFCE0480068000AE349C8
:1052A0000871DE48006848710920E1490870E14949
:1052B000C889012304220221FBF76FFBDD48C08966
:1052C000B0F57A7F0EDAD6484078D549087008469E
:1052D000807848700846C078887008460079C870A1
:1052E00000200871CE49CF4804F070FCAFF248515D
:1052F000CC4804F06BFC0020CB490870CE48007805
:10530000082833D0CC4800780A282FD0C44803F0AE
:10531000CCFFC34800E05AE005F0F1F90646002250
:10532000C64B04F02EFD044604F08EFEC44908600E
:10533000C048C089B0F57A7F04DAAFF29C5003F020
:10534000A1FF03E0AFF2A45003F09CFFBC4800783B
:10535000B6498871BA484078C871B94880780872EF
:10536000B748C078487229E00BE1F8E0B24800780D
:105370000A280DD1AA48AFF2CC510A680260097917
:10538000017103F092FFAFF2D45003F07BFF0FE006
:10539000A948007808280BD1A148AA490A680260E8
:1053A0000979017103F081FFAFF2F85003F06AFF51
:1053B00000209E498871C871087248729D48008912
:1053C00000129A4988729B480089C872C6E0022080
:1053D000904908709048808A9049096888420BD9A2
:1053E0008D48808A8D490968401A02280FD88A485A
:1053F000808A8A4908600AE08748808A8749096864
:10540000081A022803D88448808A8449086083499E
:10541000096888B2012303220221FBF7BEFA804803
:1054200003F043FF1421884804F0C5FB01207E49A6
:10543000087085487A4909680160AFF2AC6104F0F0
:10544000C5FB76480068000A804908717348006807
:1054500048710920764908707D48006842F20F7152
:10546000884225D97B480078022810D17848006806
:105470000A21B0FBF1F084B2774A76480078401CEC
:10548000115C002305222046FBF787FA1BE07048D9
:1054900000680A21B0FBF1F084B26F4A6D480078D1
:1054A000401C115C002304222046FBF776FA0AE038
:1054B000694A684B1B78D15C654A126890B2012337
:1054C0000422FBF76AFA62480068644988421CD0EB
:1054D000534803F0EAFE52495B4804F077FB50481A
:1054E00005F00DF9044604F0AFFD55490860084683
:1054F00000785649887152484078C8715048807881
:1055000008724F48C078487218E0AFF24C3003F090
:10551000CCFEAFF254314C4804F058FB5048484997
:105520000860084600784949887145484078C87144
:105530004348807808724248C0784872AFF26C31B4
:10554000414804F043FB3B48008900123F49887200
:1055500038480089C87200203349087000E000BF55
:1055600000BF0A203249087000204870314908897C
:10557000002304220121FBF710FA294803F095FECD
:1055800000BF03F023FD0A909DF82800662814D080
:1055900008DC62280DD063280CD064280BD0652865
:1055A00018D109E067280AD0E62807D0E72811D1EA
:1055B00006E010E00FE00EE00DE000BF00BF00BF0E
:1055C00003201D49087007202649087003F0F9FFE1
:1055D000FEF711BF00BF00BF2248007806283EF446
:1055E00027AF0B480078401C09490870084600782E
:1055F00001283FD11C48007801283BD11B48008876
:10560000022803D019480088032833D130E0000075
:105610002F00002049000020F40000200C00002092
:10562000B4000020020200204A0000203E020020B8
:10563000B2000020D80000200400002000005940E3
:10564000500000206C2B01082A020020520200208A
:105650001400002006000020B9B001089F86010058
:1056600000401C460300002048000020CC01002020
:10567000FEF7C7F903F0A5FF00BFA9E72DE9F04148
:105680000027BF484088C5B2FDF706FFBD48007837
:10569000032827D0052D1FD2DFE805F004030908F1
:1056A0001D0000BF0820B84908701AE000BFB748C5
:1056B000007801280BD1B3480078042803D10620D4
:1056C000B149087006E00820AF49087002E00820E0
:1056D000AD49087005E004E00720AB490870BDE85B
:1056E000F0812CE0052D1CD2DFE805F0040306054F
:1056F0001A001AE019E018E0A448007801280BD13C
:10570000A0480078042803D106209F49087006E0CD
:1057100008209D49087002E008209B49087004E0B9
:1057200003E0072098490870D9E700BF984800783F
:10573000012804D1FDF756F8002095490870002093
:10574000944908704870FBF7C8F904F050F88D4888
:105750000078032807D108208E490870022048707D
:1057600048F29F640CE08C480078401C8A4908701D
:105770008A480078032803DB082083490870AEE7D5
:1057800059E08FB100270E2082490870042048702C
:105790000123042219462046FBF7FFF8804803F056
:1057A00071FD732003F060FD0120FAF7A1FD68B1DF
:1057B00074480078032809D07A48844206D001272B
:1057C0000A210120FAF791FD601E84B2012C02DA51
:1057D00006206D490870052003F003FC0646672E7D
:1057E0000CD004DC642E07D0652E22D105E0682E93
:1057F00018D0E72E1DD102E01CE01BE000BF61487D
:10580000007803280AD06748844203D103205E4908
:10581000087006E003205B49087002E003205A4943
:10582000087007E0002059490870062056490870A2
:1058300000E000BF00BF544800780728A1D000BF97
:105840004DE770B5012503F037FE4D48408802282A
:1058500003D04B48408803280DD14D4800780128DB
:1058600012D14A48007802280ED1FCF7BBFF002075
:105870004749087008E046480078012804D1FCF741
:10588000B1FF00204249087044E0012D19D10025E4
:10589000162040490870022048704348007830B113
:1058A00003F090FD03F06DFE03F0D5FD09E003F079
:1058B000A5FF34480078042803D103F0B3FD03F0BA
:1058C00045FE022003F08DFB0446672C19D006DC50
:1058D000642C0BD0652C0AD0662C19D10FE0682CF3
:1058E00006D0E62C0CD0E72C12D10BE011E010E032
:1058F00000202649087005202349087009E000BFF0
:1059000007E000BF03202049087003F073FD00E0AA
:1059100000BF00BF1C4800780828B6D000202249EC
:10592000087070BD10B506E003F0D4FE03F01AFD58
:10593000032015490870144800780128F4D010BDE0
:1059400010B518E00A20134908700220487004209E
:10595000087032204870002406E003F04FFF032057
:10596000FAF7A7FC601CC4B20A2CF6DB012006493A
:10597000087003F0D7FE044800780028E2D010BD7C
:10598000F400002004000020030000202F0000206D
:1059900048000020B20000201C0000201B00002056
:1059A000B40000209F860100000000202DE9F04196
:1059B00007460D4616461C460121084601F051F8DF
:1059C000384602F0BFFD1248048012480560466068
:1059D0001020104988600846C460002008618020BB
:1059E000486100208861C861202008624FF440505F
:1059F000486200208862384602F046FEBDE8F08129
:105A000010B504460121204602F069FE10BD0000D9
:105A1000560000206802002070B504460020FD49B1
:105A2000087048700B20B4FBF0F100FB114000EB54
:105A30000010F9494518284603F037FC0920F549BC
:105A400008700020487003F08AFB0020F1490870BC
:105A500001204870F14803F028FC70BD2DE9FF5F7C
:105A600004464FF0000A03F0FBFBED4830F8250038
:105A70000190EB4800EB8500408800900B25E94F32
:105A8000DFF8A483A8000390002505E017F8010BB8
:105A900008F8010B681CC5B29DF80C008542F5DBC7
:105AA0000020E2490860E2490880E2490860E249D2
:105AB0000870E249087003F064FD03F0B3FC03F0E2
:105AC000E3FC03F094FE00260220DD4908700A2161
:105AD0000120FAF70AFC0120CE4948700220087024
