:020000040801F1
:10000000D00700204501010805030108E7050108A4
:10001000EB050108EF050108F305010800000000E9
:10002000000000000000000000000000F7050108CB
:10003000F905010800000000FB050108FD050108A5
:100040005F0101085F0101085F0101085F0101080C
:100050005F0101085F01010899060108B90601085E
:10006000570701089B0701085F0101085F010108AC
:100070005F0101085F0101085F0101085F010108DC
:100080005F0101085F0101085F0101085F010108CC
:100090005F0101085F0101085F010108970601087F
:1000A0005F0101085F0101085F0101085F010108AC
:1000B0005F010108FF0501085F0101085F010108F8
:1000C0005F0101085F0101085F0101085F0101088C
:1000D0005F010108070301085F0101085F010108D2
:1000E0005F0101085F0101085F0101085F0101086C
:1000F0005F0101085F0101085F0101085F0101085C
:100100005F0101085F0101085F0101085F0101084B
:100110005F0101085F0101085F0101085F0101083B
:100120005F0101085F0101085F0101085F0101082B
:10013000DFF80CD00AF0B8F900480047890101083F
:10014000D00700200648804706480047FEE7FEE744
:10015000FEE7FEE7FEE7FEE7FEE7FEE7FEE7FEE777
:10016000938A01083101010870B504460D46E1B2D9
:10017000264807F03FFF00BF8021244807F0A8FF72
:100180000028F9D0204670BD4FF48031C80206F037
:1001900022FE62B602201E49087036E01C48007834
:1001A0000A282CD2DFE800F02B2805080D121A1DB2
:1001B000202302F0DFFA27E009F060F903F0BBF832
:1001C00022E009F05BF903F067F91DE009F056F948
:1001D00000201049087003F063F915E004F084F87A
:1001E00012E005F03AFB0FE005F01AFC0CE009F014
:1001F00045F906F062F907E005F0AEFC04E009F00D
:100200003DF905F0B7FC00BF00BFC7E7003801406B
:10021000030000200200002010B506F0CFFB4FF4D1
:10022000803006F0EBFB06F028FC012820D10020EE
:1002300006F069FC002006F078FC4FF4806006F0C0
:100240006BFC4FF4E0114FF4803006F03FFC0120CE
:1002500006F048FC00BF392006F0F3FB0028FAD076
:10026000022006F042FC00BF06F048FC0828FBD143
:1002700010BD00E0401E0028FCD17047014601EB94
:10028000C1024FF0E0235A6100229A6101221A61F3
:1002900000BF4FF0E022106900F001021AB100F433
:1002A0008032002AF5D000224FF0E0231A619A61D3
:1002B0007047014642F228324A434FF0E0235A6128
:1002C00000229A6101221A6100BF4FF0E0221069FA
:1002D00000F001021AB100F48032002AF5D00022A9
:1002E0004FF0E0231A619A617047054A1154704734
:1002F00001460348405C08B9012070470020FCE734
:1003000019000020704710B540F22551FA4807F057
:10031000F5FE00287ED02021F74807F0E6FEF748DA
:1003200090F84800002858D1F54890F82B00002894
:1003300011D10621F24880F84C10EF4807F05EFE1C
:10034000C4B2EF4890F82C0098B9AA2C04D0002130
:10035000EB4880F82C10B5E0E94890F82C1090F8A4
:100360002C00401CC2B2E64880F82C202E304454A9
:10037000A8E0BB2C1AD1E24890F82C1090F82C0081
:10038000401CC2B2DE4880F82C202E30445401209C
:10039000DB4981F82B00084690F82C1080F82D10CE
:1003A000002180F82C1080F84C108BE0D44890F895
:1003B0002C001E2804DB0021D14880F82C1081E09D
:1003C000CF4890F82C1090F82C00401CC2B2CC48BA
:1003D00080F82C202E30445474E0C84890F848002F
:1003E00001286FD1C64890F82B0000286AD1062159
:1003F000C34880F84C10C04807F000FEC4B2C048A3
:1004000090F82C00A0B9112C05D00021BC4880F830
:100410002C1057E074E0BA4890F82C1090F82C009B
:10042000401CC2B2B64880F82C202E30445449E01B
:10043000B34890F82C00012813D1082C04D00021D7
:10044000AF4880F82C103DE0AD4890F82C1090F8A3
:100450002C00401CC2B2AA4880F82C202E304454F4
:1004600030E0A74890F82C001E2804DB0021A448A7
:1004700080F82C1026E0A24890F82C1090F82C0060
:10048000401CC2B29E4880F82C202E3044542E3896
:1004900090F82C00022815DD994890F82C1090F85F
:1004A0003000C01C81420DD10120954981F82B00FC
:1004B000084690F82C1080F82D10002180F82C10A0
:1004C00080F84C108E4890F82B00012801D102F0E2
:1004D000C0FA8C4890F82B00002875D10621884876
:1004E00080F84C10844807F089FDC4B2854890F824
:1004F0002C0098B9FF2C04D00021824880F82C10E1
:1005000062E0804890F82C1090F82C00401CC2B299
:100510007C4880F82C202E30445455E0794890F8DF
:100520002C00012813D1EE2C04D00021754880F84E
:100530002C1049E0734890F82C1090F82C00401CC7
:10054000C2B2704880F82C202E3044543CE06D48F4
:1005500090F82C00042821D1DD2C04D0002169481A
:1005600080F82C1030E0674890F82C1090F82C00A0
:10057000401CC2B2634880F82C202E304454012025
:10058000604981F82B00084690F82C1080F82D1057
:10059000002180F82C1080F84C1015E0594890F894
:1005A0002C001E2804DB0021564880F82C100BE09C
:1005B000544890F82C1090F82C00401CC2B25148BE
:1005C00080F82C202E3044544FF458714A4807F0DC
:1005D00095FD38B10821484807F087FD464807F0E7
:1005E0000DFDC4B210BD00BFFEE700BFFEE700BFB7
:1005F000FEE700BFFEE7704770477047704710B5D1
:100600000121414807F0B6FB08F00BFE3F48007897
:10061000012804D13E480068401C3D4908603D481F
:10062000007806281DD13C480078401C3A490870E3
:100630000846007809281ADD002008700120374993
:10064000087037480089401C3549088135480068E2
:10065000401C3449086034480068401C3249086036
:1006600005E02D48007810B100202B4908700024C7
:1006700009E02E48005D20B12C48005D401E2B494A
:100680000855601CC4B2022CF3DB2948007808B975
:1006900009F071F910BD704710B50121254806F029
:1006A000D2F828B91548408A10B1052022490870AF
:1006B000012006F04CFC10BD10B50120FFF7F9FD3C
:1006C00002211C4806F0BFF8E0BB1C480088022845
:1006D00007D11B480078012803D10720164908706C
:1006E00035E01648008803282ED11548007850BB05
:1006F0000720114908702AE000380140FC00002062
:100700009C020020830300200004004044000020DD
:1007100040000020030000204500002001000020D0
:10072000E0000020B0000020100000201900002090
:10073000000000200014014004000020D40100202B
:100740002F00002003E0FFE7082020490870022066
:1007500006F0FDFB10BD10B50520FFF7AAFD042132
:100760001B4806F070F8A0B91A480078032807D093
:1007700018480078072803D016480078082806D1C2
:1007800005201449087000201349087001E0114841
:100790000078042006F0DBFB10BD10B50120FFF748
:1007A00088FD08210A4806F04EF850B9094800783B
:1007B000062803D107200749087002E003200549F5
:1007C0000870082006F0C3FB10BD000004000020E4
:1007D00000140140030000202F00002010B500206D
:1007E000FE490870487008F0C8FDFD484088E8B12F
:1007F000012804D002287DD003286ED13AE0F948C0
:1008000008F04EFE0620F549087001204870F6A059
:1008100008F059FE0E20F149087001204870F3A03D
:1008200008F051FEF42008F0EBFDA2E0F04800785B
:10083000012803D1EF4808F033FE03E0ED48C01D66
:1008400008F02EFE0620E549087001204870E448B3
:10085000808818B1E4A008F036FE02E0E6A008F0B7
:1008600032FE0E20DD49087001204870E3A008F038
:100870002AFE7EE0E2480078B0B9DA4808F010FEBF
:100880000620D649087001204870D7A008F01BFE4A
:100890000E20D249087001204870D4A008F013FE41
:1008A000F42008F0ADFD24E0D1480078012803D100
:1008B000D04808F0F5FD03E0CE48C01D08F0F0FD7B
:1008C0000620C649087001204870C548808828B1B4
:1008D000C5A008F0F8FD04E00CE049E0C6A008F06F
:1008E000F2FD0E20BD49087001204870C3A008F039
:1008F000EAFD3EE0C248007818BBBD4800780128F8
:1009000003D1BC4808F0CCFD03E0BA48C01D08F094
:10091000C7FD0620B149087001204870B0488088A2
:1009200018B1B1A008F0CFFD02E0B3A008F0CBFDF4
:100930000E20AA49087001204870B0A008F0C3FD3D
:1009400015E0A84808F0ACFD0620A4490870012075
:100950004870A5A008F0B7FD0E20A049087001203E
:100960004870A2A008F0AFFDF42008F049FD00E0B7
:1009700000BF00BF072099490870002048709BA065
:1009800008F0A1FD964909783131C8B208F07AFD26
:100990000F209249087000204870732008F078FDFD
:1009A00004208E4908700120487096A008F08BFD45
:1009B00010BD8B484A2102E000220270401C0A1E32
:1009C000A1F1010399B2F7D18F4B1A707047002043
:1009D00010E0834A921C02EB40010A888B4B33F8EB
:1009E00020309A4204DD894A02EB800252880A8054
:1009F000421CD0B20D28ECDB7047F0B504461D4612
:100A0000052A00DD052202B90122042900DD0421A6
:100A1000914200DD1146002004E020267C4F3E5428
:100A2000461CF0B20828F8D3104611E00A2694FBC1
:100A3000F6F706FB17463036F7B2461EDFF8D0C190
:100A40000CF806700A2694FBF6F6B4B2461EF0B215
:100A50000028EBDC81B11346084605E05E1E6C4FB2
:100A6000BE5DFE545E1EF3B2061EA0F10107F8B291
:100A7000F4D12E26664FFE54A5B900200EE0644E38
:100A8000365C302E07D1624F461CBE5D2E2E02D042
:100A900020263E5400E004E0461CF0B2561E86427A
:100AA000EDDC00BF09B1561CF2B2104604E000268E
:100AB000574F3E54461CF0B20828F8D3F0BD10B58D
:100AC000474890F8480018B9524808F0E9FC07E098
:100AD000434890F84800012802D14F4808F0E0FC54
:100AE00010BD10B53E4890F8480020B9494815306F
:100AF00008F0D6FC08E03A4890F84800012803D1F5
:100B00004548153008F0CCFC10BD10B543A008F0E6
:100B1000C7FC10BD10B5002030490870487008F0BF
:100B20002CFCFFF7CCFF00202C49087001204870F6
:100B300008F023FCFFF7D5FF10BD10B52C4909784C
:100B4000C1EBC101384A881808F0BDFC10BD10B5D2
:100B500023484088032802DD0020214948800020E6
:100B60001E490870487008F008FC1D49498801EBCF
:100B700041012E4A02EB410008F0A5FC072017496D
:100B800008700020487016490978481C01231A464D
:100B90000021FFF732FF15A008F095FC1C4808F073
:100BA0007FFC0F484088012803DD21A008F078FC75
:100BB00002E020A008F074FC0A20084908700848E8
:100BC0004088032803D006484088012837D10449CB
:100BD000488B0023042201212EE00000BA000020EF
:100BE000FC0000203FAA0108444300004D00000023
:100BF000040000204DAA0108414300006D4100009F
:100C00002F0000206B56000002000020F0B0010809
:100C1000BC000020E6B10108A7B101084A616E20BE
:100C200032352032303234005AB10108C1AA0108ED
:100C30005F00000020000000FFF7DFFE06E0FB4938
:100C4000C889002304220121FFF7D7FEF84808F0E5
:100C50003AFCF8A008F024FC0020F74908700120B5
:100C60004870F248808840B9F048C088B0F5167FD7
:100C700003DD4FF41671ED48C180EC48408801282F
:100C80000AD1EA49888A002303220221FFF7B5FE30
:100C90000121E648818012E0E4484088032807D11A
:100CA000E249888A002303220221FFF7A6FE06E01C
:100CB000DE49C888002303220221FFF79EFEDC489C
:100CC00008F001FCAFF2C40008F0EAFB1421DB4895
:100CD00009F07FF8D948DAA109680160DAA109F0C2
:100CE00083F8D2484088032812D1D049C88800230D
:100CF00003220221FFF781FE1421D44809F069F88C
:100D0000D248CFA109680160CFA109F06DF815E0C4
:100D1000C6484088022811D1C449888A002303228A
:100D20000221FFF76AFE1421C84809F052F8C748AB
:100D3000C3A109680160C4A109F056F8BB488088C6
:100D400040B9BA484088032804D0AFF2541008F0E4
:100D5000A7FB03E0AFF2701008F0A2FBB348408895
:100D6000032803D0B148408801282FD10A20B24976
:100D70000870AE49C88A002304221946FFF73DFED9
:100D8000AB4808F0A0FBAFF29C1008F089FBF42000
:100D900008F036FBAEA1AD4809F026F8AEA1AB488D
:100DA00009F022F8A148408803283BD19F490889CF
:100DB000002304220221FFF720FEA1A19F4809F091
:100DC00013F8A6A19D4809F00FF82BE009209A49D5
:100DD000087096490889002304220221FFF70DFEBE
:100DE000934808F070FBAFF2EC1008F059FB94A1A7
:100DF000924808F0F9FF99A1904808F0F5FF8B4858
:100E0000408802280ED18949C88A00230422022181
:100E1000FFF7F3FD8EA18D4808F0E6FF8EA18B4809
:100E200008F0E2FF10BD70B505468D48047804F067
:100E30003F0475B1012D09D0022D04D0032D09D135
:100E400044F0C00409E044F0800406E044F04004AB
:100E500003E002E044F0C00400BF00BF804804701B
:100E60000020804908607E480078C04300067C4925
:100E7000097840EA01207C49086001207B49C1F8DB
:100E800090016420FFF715FA70BD70B5044600208C
:100E9000694908704870254604EBD5714910A4EBE8
:100EA0004101C1EBC10101EB4101714A881808F011
:100EB0000AFB002060490870012048706D4808F066
:100EC00002FB70BDF8B5044601275B4800788DF839
:100ED0000000594840788DF80100206808F090FF24
:100EE000C6B2701CC6B2082E00DD082652E067B1FB
:100EF0009DF80000504908709DF801004870A288D4
:100F0000216806FB021008F0DEFA0A2008F077F9E3
:100F10000546E12D15D009DCA5F16100082837D27E
:100F2000DFE800F00E201136362E3331A5F1E20055
:100F300007282DD2DFE800F017082C2C252A2800DE
:100F400000BF6120F8BD00BF0127A08861898842E9
:100F500003DDA088401EA08003E06089A08008F027
:100F60005BFD16E000BF0127A088401CA080A08880
:100F70002189884203DD2089A08008F04DFD08E02A
:100F800000BF6620DEE700BF00BF00BF6720D9E7D3
:100F900000BF00BFABE710B504460020264908702B
:100FA000487004EB840101EBC401334A881808F04F
:100FB0008AFA002020490870012048702F4808F064
:100FC00082FA10BD10B504460A2094FBF0F100FB34
:100FD0001140C4B234B1012C11D0022C19D0032C11
:100FE0005BD14DE0124808F06EFA202008F04AFA72
:100FF000562008F047FA202008F044FA4EE00C484A
:1010000008F061FA202008F03DFA732008F03AFA5F
:1010100044E0074808F057FA202008F033FA4D2042
:1010200008F030FAF42008F02DFA37E0FC00002038
:10103000BC00002073000000BA0000200A0200205B
:10104000302E3030000000006B563B003202002092
:101050002020302E300000004D3B00006D413B0051
:10106000AD000020908122421014014000802242F5
:101070000EAF010862AF0108E0AF0108CBAF010875
:10108000F64808F020FA202008F0FCF94D2008F07E
:10109000F9F9F42008F0F6F900E000BF00BF10BD38
:1010A00010B504460020EE49087048700E2C13D28B
:1010B000DFE804F007131F63646566676869AAAB1D
:1010C000ACADE8A008F0FFF90020E5490870012068
:1010D0004870E9A008F0F7F9B9E0EBA008F0F3F9DF
:1010E0000020DF49087001204870EB4808F0EBF958
:1010F000ADE0EA484088C8B1012804D0022817D0E2
:10110000032837D113E0A11EE54A02EB011008F0D5
:10111000DAF90020D249087001204870611E01EB05
:101120000111DD4A881808F0CEF924E000BF00BFA5
:101130000020CB4908704870A11EDA4A02EB01106A
:1011400008F0C1F90020C649087001204870D34852
:10115000808838B9A11E01EB0111D34A881808F024
:10116000B2F906E0A11E01EB0111D04A881808F07F
:10117000AAF900E000BF00BF69E000BF00BF00BFE8
:1011800000BF00BF00BFC5484088C8B1012804D0D7
:10119000022817D0032834D113E0A11EC04A02EB65
:1011A000011008F090F90020AD4908700120487046
:1011B000611E01EB0111B84A881808F084F921E09A
:1011C00000BF00BFA11E01EB0111B94A881808F049
:1011D0007AF90020A249087001204870AF48808841
:1011E00038B9611E01EB0111AF4A881808F06BF99C
:1011F00006E0611E01EB0111AC4A881808F063F9A2
:1012000000E000BF00BF22E000BF00BF00BFA11E82
:1012100001EB0111A64A881808F055F90C2C01D0F1
:101220000B2C07D10E208E49087000204870F42046
:1012300008F02EF900208A49087001204870611ECC
:1012400001EB01119B4A881808F03DF900BF00BF6F
:1012500010BD2DE9F84304464FF00109804800789D
:101260008DF800007E4840788DF801000027A079B5
:1012700008B9032600E00426A4E1B9F1000F10D05C
:101280009DF80000764908709DF801004870A38918
:10129000DAB2A179A0880023FFF7AFFB6F4808F00E
:1012A00012F90A2007F0ABFF8046B8F1E10F15D024
:1012B00009DCA8F16100082872D2DFE800F00E9C7A
:1012C000127171CECDCCA8F1E2000728F4D2DFE88C
:1012D00000F0FA3F6767F9F8F70000BF6120BDE84A
:1012E000F8834FF00109002773488079C0F10300AB
:1012F000B04202DA701EC5B200E035466F4830F8E1
:10130000150061890844A188884206DCA0886B49E1
:1013100031F81510401AA08019E06089022802D027
:101320006089062813D16089062806D1A08810B1EB
:101330000020A08001E008F06FFB6089022806D140
:10134000A08810B10020A08001E008F065FB38E122
:101350004FF00109781CC7B257488079C0F10300EB
:10136000B04202DA701EC5B200E035461C2F0CDD1B
:10137000002D01DD681EC5B2002D01DD681EC5B25D
:10138000002D14DD681EC5B211E0132F09DD002DFC
:1013900001DD681EC5B2002D09DD681EC5B206E07C
:1013A00009E10A2F03DD002D01DD681EC5B24348A7
:1013B00030F8150061890844A188884206DCA088BD
:1013C0003E4931F81510401AA08013E060890628C4
:1013D00006D1A08810B10020A08001E008F01CFB1D
:1013E0006089022806D1A08810B10020A08001E009
:1013F00008F012FBE5E04FF0010900272E48807944
:10140000C0F10300B04202DA701EC5B200E03546FA
:101410006089062802D06089022855D16089062893
:101420000AD1A08810B90620A08005E0A088234931
:1014300031F815100844A0806089022852D1A08894
:1014400010B90220A0804DE0A0881C4931F8151089
:101450000844A08046E0A9E0AAE0A4E0BC00002087
:10146000BA0000204D656D6F72793D20202020204C
:10147000202020200000000052616E67653A312D67
:1014800039202020202020005465737420203D2026
:101490002020202020202000D9AA0108FC000020C4
:1014A0005BAA01082EAB0108AEAB0108F0AD010844
:1014B00047AC010813AD0108D00000201CAA0108A8
:1014C00075E076E070E00EE0A088F84931F815107C
:1014D0000844A080A0882189884203DD2089A0805B
:1014E00008F09AFA6DE04FF00109781CC7B2F04895
:1014F0008079C0F10300B04202DA701EC5B200E08C
:1015000035461C2F0CDD002D01DD681EC5B2002DF7
:1015100001DD681EC5B2002D13DD681EC5B210E0E6
:10152000132F08DD002D01DD681EC5B2002D08DD7A
:10153000681EC5B205E00A2F03DD002D01DD681E1F
:10154000C5B26089062802D0608902281CD1608952
:1015500006280AD1A08810B90620A08005E0A0883E
:10156000D24931F815100844A0806089022819D1A9
:10157000A08810B90220A08014E0A088CB4931F8DF
:1015800015100844A0800DE0A088C84931F8151056
:101590000844A080A0882189884203DD2089A0809A
:1015A00008F03AFA0DE000BF662098E600BF08E0B8
:1015B00000BF672093E6BF488078012800D000274D
:1015C00000BF00BF59E62DE9F041002500260027A5
:1015D000B948C08940F6D861884211DD012500BFB5
:1015E000002405E00020B54941F82400601CC4B285
:1015F0000C2CF7DB0020B2490870B249088009E0E2
:10160000AD48C089B0F5B47F02DA0126002501E0BB
:10161000002500260027AC480078002816DD012DA3
:1016200014D1A9480078401EA7490870012700245A
:1016300005E00020A14941F82400601CC4B20C2C34
:10164000F7DB00209E4908709E4908809E4800787C
:10165000042816DA012E14D19B480078401C9A49C0
:1016600008700127002405E00020944941F8240077
:10167000601CC4B20C2CF7DB002091490870914922
:101680000880012F06D190480078FFF7CCFB32206C
:10169000FEF70FFEBDE8F08101B590B00021109873
:1016A00008F0FCFD10D2109808F099FD0022874B3D
:1016B000CDE9060108F073FCCDE9080108F0D2FD80
:1016C0001090012082490870109808F088FD814A26
:1016D000814BCDE9080108F095FD01D211B000BDA4
:1016E000109808F07CFD7D4A7D4BCDE9080108F09B
:1016F000A1FD58D2109808F072FD784A784BCDE9D8
:10170000060108F0BEFCCDE9080108F0ABFD0E9023
:1017100074480D9000200B9026200A903FE0DDE9F0
:101720000D1008F0FEFB4FF07E51099008F0B6FD59
:101730000ED20D9808F053FD00226B4BCDE9060147
:1017400008F09FFCCDE9080108F08CFD0D9000E049
:1017500028E00D9808F043FD644A654BCDE902018D
:1017600008F01DFCCDE90601109808F038FDCDE920
:101770000401DDE9062308F084FCCDE9080108F046
:1017800015FD0C9052490C9848600A9808720B9805
:10179000401C40B20B900A98401E40B20A900B9831
:1017A0000428BCDB13E2109808F019FD514A524B93
:1017B000CDE9080108F03EFD58D2109808F00FFD61
:1017C0004C4A4D4BCDE9060108F05BFCCDE9080120
:1017D00008F048FD0E9049480D9000200B90232002
:1017E0000A903FE0DDE90D1008F09BFB4FF07E51C1
:1017F000099008F053FD0ED20D9808F0F0FC00227D
:10180000394BCDE9060108F03CFCCDE9080108F0B0
:1018100029FD0D9000E028E00D9808F0E0FC384A22
:10182000384BCDE9020108F0BAFBCDE9060110986A
:1018300008F0D5FCCDE90401DDE9062308F021FC20
:10184000CDE9080108F0B2FC0C9021490C984860E1
:101850000A9808720B98401C40B20B900A98401EE0
:1018600040B20A900B980828BCDB9BE7109808F060
:10187000B6FC254A254BCDE9080108F0DBFC7DD2FA
:10188000109808F0ACFC204A204BCDE9060108F086
:10189000F8FBCDE9080108F0E5FC0E9017480D9023
:1018A00000200B901C200A9074E000001CAA010884
:1018B000D0000020B4000020E000002084010020BF
:1018C0000700002008000020060000200000F0BFF4
:1018D000F0000020ECCFC55FFFFF0F38824DC772CC
:1018E0006142334700007A440000244021D7E6FAE1
:1018F000E031F44581121F2FE727C0458096184B31
:1019000092D54D06CFF0804450EFE2D6E41A4B4416
:10191000DDE90D1008F005FB4FF07E51099008F04D
:10192000BDFC0ED20D9808F05AFC0022F74BCDE911
:10193000060108F0A6FBCDE9080108F093FC0D9024
:1019400000E02AE00D9808F04AFCF14AF14BCDE99D
:10195000020108F024FBCDE90601109808F03FFCD5
:10196000CDE90401DDE9062308F08BFBCDE9080190
:1019700008F01CFC0C90E8490C9800E00EE0486070
:101980000A9808720B98401C40B20B900A98401EAF
:1019900040B20A900B980828BADBA0E3109808F030
:1019A0001EFCDE4ADE4BCDE9080108F043FC58D2AC
:1019B000109808F014FCD94AD94BCDE9060108F07B
:1019C00060FBCDE9080108F04DFC0E90D5480D9064
:1019D00000200B9015200A903FE0DDE90D1008F083
:1019E000A0FA4FF07E51099008F058FC0ED20D98E5
:1019F00008F0F5FB0022C54BCDE9060108F041FBDC
:101A0000CDE9080108F02EFC0D9000E028E00D98CB
:101A100008F0E5FB0022C44BCDE9020108F0BFFA53
:101A2000CDE90601109808F0DAFBCDE90401DDE903
:101A3000062308F026FBCDE9080108F0B7FB0C905F
:101A4000B5490C9848600A9808720B98401C40B23F
:101A50000B900A98401E40B20A900B980828BCDBF5
:101A60003DE3109808F0BBFB0022B04BCDE9080124
:101A700008F0E0FB58D2109808F0B1FB0022AB4B05
:101A8000CDE9060108F0FDFACDE9080108F0EAFB0E
:101A90000E90A4480D9000200B900D200A903FE07E
:101AA000DDE90D1008F03DFA4FF07E51099008F085
:101AB000F5FB0ED20D9808F092FB0022934BCDE976
:101AC000060108F0DEFACDE9080108F0CBFB0D9025
:101AD00000E028E00D9808F082FB00228B4BCDE956
:101AE000020108F05CFACDE90601109808F077FBD6
:101AF000CDE90401DDE9062308F0C3FACDE90801C8
:101B000008F054FB0C9084490C9848600A980872BD
:101B10000B98401C40B20B900A98401E40B20A90AD
:101B20000B980828BCDBDAE24FF07E51109808F0E1
:101B3000BFFB4DD210980E907A480D9000200B906C
:101B400007200A9021E0DDE90D1008F0EAF94FF0D6
:101B50007E51099008F0A2FB0ED20D9808F03FFBD1
:101B600000226A4BCDE9060108F08BFACDE90801A5
:101B700008F078FB0D9000E00AE00B98401C40B2A2
:101B80000B900A98401E40B20A900B980828DADBA6
:101B900000BF0D9808F023FB654A664BCDE90201B2
:101BA00008F0FDF9CDE90601109808F018FBCDE921
:101BB0000401DDE9062308F064FACDE9080108F024
:101BC000F5FA0C9054490C9848600A98087286E21D
:101BD000109808F004FB584A584BCDE9080108F06A
:101BE00029FB59D2109808F0FAFA00224F4BCDE9A0
:101BF000060108F0D4F9CDE9080108F033FB0E9096
:101C000048480D9000200B900A9041E0DDE90D104E
:101C100008F087F94FF07E51099008F03FFB0ED293
:101C20000D9808F0DCFA0022384BCDE9060108F0E7
:101C300028FACDE9080108F015FB0D9000E02AE034
:101C40000D9808F0CCFA02460B46CDE902013C485B
:101C50003C4908F016FACDE90601109808F0BFFAE1
:101C6000CDE90401DDE9062308F099F9CDE9080181
:101C700008F09CFA0C9028490C9848600A98087261
:101C80000B98401C40B20B900A98401E40B20A903C
:101C90000B980828BADB22E2109808F0A0FA2A4A2A
:101CA0002A4BCDE9080108F0C5FA7ED2109808F059
:101CB00096FA1A4A1A4BCDE9060108F070F9CDE9F7
:101CC000080108F0CFFA0E9016480D9000200B90F6
:101CD000C01F0A9064E0DDE90D1008F022F94FF012
:101CE0007E51099008F0DAFA0ED20D9808F077FAD2
:101CF0000022064BCDE9060108F0C3F9CDE9080141
:101D000008F0B0FA0D9023E04DE000000000244000
:101D100000003426F56B0C43F00000200000901EFC
:101D2000C4BCD6428096184B84D79741D0126341E9
:101D30008DEDB5A0F7C6B03E48AFBC9AF2D77A3E5B
:101D4000000040E59C30A2429B2BA1869B84063D6F
:101D50000D9808F044FA02460B46CDE90201F74817
:101D6000F74908F08EF9CDE90601109808F037FA26
:101D7000CDE90401DDE9062308F011F9CDE90801F8
:101D800008F014FA0C90EF490C9848600A98087211
:101D90000B98401C40B20B900A98401E40B20A902B
:101DA0000B98082897DB9AE1FFE7109808F017FADC
:101DB000E54AE64BCDE9080108F03CFA5BD2109801
:101DC00008F00DFAE24AE34BCDE9060108F0E7F826
:101DD000CDE9080108F046FA0E90DF480D9000208A
:101DE0000B906FF00D000A9041E0DDE90D1008F056
:101DF00098F84FF07E51099008F050FA0ED20D98E5
:101E000008F0EDF90022D54BCDE9060108F039F9CB
:101E1000CDE9080108F026FA0D9000E02AE00D98BF
:101E200008F0DDF902460B46CDE90201CC48CD4968
:101E300008F027F9CDE90601109808F0D0F9CDE9AE
:101E40000401DDE9062308F0AAF8CDE9080108F04D
:101E5000ADF90C90BB490C9848600A9808720B9831
:101E6000401C40B20B900A98401E40B20A900B985A
:101E70000828BADB33E1109808F0B1F9BA4ABB4B35
:101E8000CDE9080108F0D6F95BD2109808F0A7F95F
:101E9000B74AB84BCDE9060108F081F8CDE9080151
:101EA00008F0E0F90E90AC480D9000200B906FF018
:101EB00014000A9041E0DDE90D1008F032F84FF00F
:101EC0007E51099008F0EAF90ED20D9808F087F9D2
:101ED0000022A24BCDE9060108F0D3F8CDE90801B4
:101EE00008F0C0F90D9000E02AE00D9808F077F9AD
:101EF00002460B46CDE902019F48A04908F0C1F80F
:101F0000CDE90601109808F06AF9CDE90401DDE990
:101F1000062308F044F8CDE9080108F047F90C90D1
:101F200088490C9848600A9808720B98401C40B287
:101F30000B900A98401E40B20A900B980828BADB12
:101F4000CDE0109808F04BF98D4A8E4BCDE9080191
:101F500008F070F961D2109808F041F98A4A8B4B69
:101F6000CDE9060108F01BF8CDE9080108F07AF97F
:101F70000E9079480D9000200B906FF01B000A9096
:101F800047E0DDE90D1007F0CCFF4FF07E510990DE
:101F900008F084F90ED20D9808F021F900226F4B59
:101FA000CDE9060108F06DF8CDE9080108F05AF90D
:101FB0000D9000E030E00D9808F011F902460B4654
:101FC000CDE900017048714908F05BF8CDE90401E2
:101FD000109808F004F9CDE90201DDE9042307F0C7
:101FE000DEFF00226A4BCDE9060107F0D8FFCDE9FC
:101FF000080108F0DBF80C9052490C9848600A98E8
:1020000008720B98401C40B20B900A98401E40B2D8
:102010000A900B980828B4DB61E0109808F0DFF80C
:102020005C4A5D4BCDE9060107F0B9FFCDE9080137
:1020300008F018F90E9059480D9000200B906FF0A1
:1020400022000A9047E0DDE90D1007F06AFF4FF02B
:102050007E51099008F022F90ED20D9808F0BFF8D1
:1020600000223E4BCDE9060108F00BF8CDE908014E
:1020700008F0F8F80D9000E030E00D9808F0AFF8A7
:1020800002460B46CDE900014248434907F0F9FFFB
:10209000CDE90401109808F0A2F8CDE90201DDE9CC
:1020A000042307F07CFF0022394BCDE9060107F03D
:1020B00076FFCDE9080108F079F80C9021490C98D9
:1020C00048600A9808720B98401C40B20B900A981E
:1020D000401E40B20A900B980428B4DB00BF00BF3A
:1020E000FFF7FCBA70B500252D480078401C2C493C
:1020F00008702C48C08949F64041884204DC2948D0
:10210000C089B0F5FA6F06DA27480078042802D0B3
:1021100000202349087025498A6825490888411C00
:10212000234B1980234941F82020184600880C28A9
:1021300002DB002019460880002446E0408CB57878
:102140001DAF1544F00000204F9B0E0AB4E3923BF4
:1021500050EFE2D6E41A4B448096184B000024401E
:102160000284FEE471D98945196050BEF6B01F3A69
:1021700081121F2FE727C045037CD8EA9BD0FE467B
:102180000F7AF8B7A595AA38824DC77261423347D6
:1021900080842E41B1A1162AD3CED24700007A44C2
:1021A00007000020E000002006000020740100204D
:1021B0000800002084010020FE4850F82410284622
:1021C00007F025FE0546601CC4B20C2CF4DBFA486F
:1021D00000780C2808DBF949284607F0A2FEF849E8
:1021E00088600C20F4490870F5498868FFF754FAB4
:1021F000F44840684FF47A71B0FBF1F0F14948605F
:1022000070BD70B5EE49C86807F0AAFF0546EC48F6
:102210000168284607F053FE0446E9484168204615
:1022200007F07FFEE649886070BD10B5E648C089BA
:102230000A2802DA0A20E449C881E349C88907F07C
:102240008FFFDF494860E148E149097850F82100F3
:10225000DB49C860FFF7D5FF10BD2DE9F041002430
:10226000012717E2012FFCD100270E2C15D2DFE841
:1022700004F0071524494A4B4C4D9F4EBFC0C1C2C4
:10228000D44D2888401CD449888009200881012029
:1022900048810020887101208881CEE0CD4DAD1CA1
:1022A000CE48CD4908602888888003200881002016
:1022B0004881887101208881BFE0C648408838B1D4
:1022C000012804D0022805D0032819D101E017E025
:1022D00000BF00BFBF488088012802DD0021BD4843
:1022E0008180BC4D2D1DBE48BB4908602888888070
:1022F000012008810020488188710120888100BF69
:1023000000BF9AE000BF00BF00BF00BF00BFB148E0
:10231000408838B1012804D0022805D0032845D1CF
:1023200001E043E000BF00BFAA48801D00EB44006D
:10233000851FA8488088E0B9AA48A749086028886E
:102340008880601EA84931F82000A3490881601EDA
:10235000A54901EB800040889F494881E01EA349C0
:1023600011F810009C498871A14830F81400888148
:102370001BE09C489849086028888880601E9D4919
:1023800031F8200094490881601E9A4901EB8000D1
:10239000408891494881E01E944911F810008E4907
:1023A0008871934830F81400888100BF00BF44E072
:1023B0008848008A012802DD002186480182854D77
:1023C00010358D488449086028888880601E8649B9
:1023D00031F8200080490881601E834901EB8000AC
:1023E00040887D494881002088710120888124E04F
:1023F00000BF00BF00BF7748801D00EB4400851F71
:102400007E487549086028888880601E764931F8C2
:10241000200071490881601E734901EB80004088EB
:102420006D494881E01E714911F810006A498871B0
:102430006F4830F81400888100BF00BF2046FEF7C7
:102440002FFE0E2C76D2DFE804F007111B252F3962
:10245000434D57616B7677780A20694908700020F0
:1024600048705D48FEF7F5FE804671E0082064493B
:102470000870002048705848FEF724FD804667E049
:102480000A205F490870002048705348FEF71AFD83
:1024900080465DE00A205A490870002048704E4886
:1024A000FEF7D7FE804653E007205549087000200C
:1024B00048704948FEF7CDFE804649E00720504964
:1024C0000870002048704448FEF7C3FE80463FE095
:1024D00007204B490870002048703F48FEF7B9FEBE
:1024E000804635E0082046490870002048703A4888
:1024F000FEF7AFFE80462BE0072041490870002020
:1025000048703548FEF7DEFC804621E007203C4954
:102510000870002048703048FEF79BFE804617E0A8
:102520000A2037490870002048702B48FEF791FEBA
:1025300080460DE00BE000BF00BF08203049087066
:10254000002048702448FEF784FE804600E000BF6B
:1025500000BF44B920488088401E288006F0FFFF55
:10256000FEF735FA02E01C4880882880B8F1680F31
:1025700072D009DCA8F1610007286ED2DFE800F014
:102580000E6E708888728300A8F1E10008287FD25F
:10259000DFE800F00565677E7E7E7A7800BF0D4833
:1025A0004088012802D1012C00D1092409488088E3
:1025B000012827E08401002007000020000040419E
:1025C00074010020F0000020E000002024AA01088F
:1025D00006000020FC000020D0000020A9AA01086D
:1025E0009BAA01082EAB0108BCB0010824B1010868
:1025F0003AB1010888B00108A3AA010847AC010854
:10260000BA00002006D1072C04D1601CC4B2601CA3
:10261000C4B201E0601CC4B2012C1BDD50484088EC
:1026200040B1012804D0022807D0032807D103E0D5
:102630000E2606E00A2604E000BF0E2601E00E2664
:1026400000BF00BFB44205DB0024032045490870E9
:1026500006F074FF01271CE013E019E000BF18E04A
:1026600000BF16E03E48C088012802D102213C4844
:10267000C18003203B49087006F060FF06F02CFF84
:1026800007E000BF05E000BF03203649087000E006
:1026900000BF00BF3348007804283FF4E3ADBDE835
:1026A000F081704702460B4688B2704710B54FF470
:1026B00080732D4A2D492E4803F086FA2C4803F0EA
:1026C000ADFA10BDF0B50446059D27460E4602B989
:1026D000012207FB06FCBCFBF5FC0CFB03FCBCFB6E
:1026E000F2F0F0BD30B50246002006E0145C0A2589
:1026F00094FBF5F4E3B2441CE0B28842F6DB30BD53
:1027000070B502460C46002012E0135CDD1703EBA7
:1027100015752911135CDD1703EB15752D11A3EB4E
:10272000051501EB810605EB46051554431CD8B28F
:10273000A042EADB70BD30B50B460146C41700EB82
:102740001474C4F30712C41700EB14742411A0EB23
:10275000041402EB820504EB4504E0B230BD000036
:10276000FC000020030000201CA901080C100140FF
:102770001C00024070B507F0BBF807F04EF80021CE
:102780004FF0804005F01CF8FEF713F906F0ABFEA1
:1027900006F0A9FE06F0E3FE06F0B5FE06F0F0FE38
:1027A000FEF715F9F4480078082802DD0020F24908
:1027B000087007F023F906F02BFFFEF7ABF90020B5
:1027C000EE490870002438E0601CC4B2142C02DD0D
:1027D0000320EB4908700A2006F011FD0546682D1C
:1027E00025D009DCA5F16100072824D2DFE800F03C
:1027F0001517190E1B1D2000A5F1E10007281AD29C
:10280000DFE800F00C0E10051214170000BF0920BD
:10281000DB49087007F0F9F80EE000BF0CE000BFDC
:102820000AE000BF08E000BF06E000BF04E003E0EC
:1028300000BF142400E000BF00BFD1480078022888
:10284000C2D006F0D1FF70BD10B55A20CD49087036
:10285000592048705A20CC49087059204870C64801
:10286000008ACA49097860F30411C8480170C24857
:10287000408AC649097860F30301C44801700078B2
:10288000C049C870C1480078BF49C870C0480078C6
:10289000002867D1BF48008870B9BF480078032876
:1028A00005D0042807D10020B649887003E0012034
:1028B000B449887000BF55E0B648008801280ED1A1
:1028C000B5480078032805D0042807D10620AD4973
:1028D000887003E00720AB49887000BF42E0AD4834
:1028E000008803281DD1AC480078032808D00428AC
:1028F00016D10620A34988700020A34988700FE0F4
:10290000A6480078012803D107209E49887006E078
:10291000A2480078022802D101209B49887000BF9C
:1029200020E09C48008802281CD19B48007803289E
:1029300008D0042815D100209249887006209249B9
:1029400088700EE095480078012802D18D49887082
:1029500006E092480078022802D107208A49887050
:1029600000BF00BF8A48007820B38A48008810BBA7
:1029700089480078C01E06281CD2DFE800F00F034B
:1029800013070B1700207F49887013E002207D4950
:1029900088700FE003207B4988700BE001207949A3
:1029A000887007E004207749887003E005207549A6
:1029B000887000BF1FE07748008801281BD1764847
:1029C0000078032812D0042804D0062806D007284F
:1029D00010D107E006206B4988700BE00820694998
:1029E000887007E009206749887003E0072065497F
:1029F000887000BF00BF67480088032803D065487F
:102A00000088022812D100240DE05F48015D64486F
:102A100005F0F0FA00BF8021614805F059FB00285D
:102A2000F9D0601CC4B20C2CEFDB11E000240DE0E7
:102A30005448015D5A4805F0DDFA00BF802158482E
:102A400005F046FB0028F9D0601CC4B20C2CEFDB6B
:102A500010BD2DE9F04190B0FF260027514890F8B5
:102A60002B00A0B14F4890F83000434981F848004E
:102A70001E214C482E3007F0ACF90020494981F85E
:102A80002B000021474880F82C1006F033FD3A480F
:102A900090F8480000286BD1434890F82B0000289C
:102AA00067D01C2101A807F094F91C223E4930315F
:102AB00001A807F075F93C4890F82F6090F8305065
:102AC0000020394981F82B000021374880F82C106C
:102AD000EE2E4FD008DCCC2E4DD0CE2E0BD0DD2EDE
:102AE0007ED0DE2E7DD1C3E1F22E7BD0F32E7AD0C4
:102AF000F42EF7D12DE3284800780B287DD2DFE8AB
:102B000000F0067C7C0D14301B22297C74002748C1
:102B100027A10A6802600979017175E0234824A1A0
:102B20000A680260097901716EE0204822A10A68F2
:102B300002600979017167E01C4821A10A680260FE
:102B40000979017160E019481FA10A6802600979DA
:102B5000017159E015481EA10A68026009790171E6
:102B600052E012481CA10A680260097901714BE029
:102B7000FEE2FCE299E161E1FC000020050000209A
:102B800003000020460200205A0200205C000020C2
:102B900000000020D4010020040000202F000020AD
:102BA00000380140830300209C02002048000020E0
:102BB0002D2D2D2D0000000050415353000000002A
:102BC00048494748000000004C4F572000000000D3
:102BD00042524B2000000000415243200000000000
:102BE00033E1C3E243E141E107E0FE48AFF23001E7
:102BF0000A6802600979017106E0FA48FAA10A68D8
:102C000002600979017100BF00BFF94840880228BD
:102C100003D0F748408803287ED1F6480078002882
:102C20007BD10120F34908702821F34807F0D1F83F
:102C3000F248007840B9F249EF4807F0D5F8E94981
:102C4000ED4807F0D1F854E0EE480078012816D19D
:102C5000EB49E94807F0C8F8E5484088022804D164
:102C6000E049E54807F0C0F843E0E1484088032820
:102C70003FD1AFF2C401E04807F0B6F839E0DC48D4
:102C8000408802281AD1DE48407B3B2806D1DC4828
:102C9000AFF2DC010968C0F80E1009E0D848807B6B
:102CA0003B2805D1D648AFF2F0010968C0F80F10F3
:102CB0001222D349D04807F073F81AE0CC48408874
:102CC000032816D1CE48407B3B2805D1CC48C549C6
:102CD0000968C0F80E1008E0C948807B3B2804D181
:102CE000C748C0490968C0F80F10C549C24807F075
:102CF0007BF8C5A1C04807F077F8C449BE4807F083
:102D000073F8C0480078012815D1B94840880228D6
:102D100008D1AFF2641101E053E03AE0B64807F0A1
:102D200063F81AE0B2484088032816D1AD49B2488A
:102D300007F05AF811E0AE484088022804D1A949AA
:102D4000AD4807F051F808E0A9484088032804D1AD
:102D5000AFF29C11A84807F047F8AD49A64807F024
:102D600043F800240DE0A448015DAA4805F042F9AB
:102D700000BF8021A74805F0ABF90028F9D0601CFE
:102D8000C4B2272CEFDB00209B49C91E81F82B0021
:102D900053E000240DE09848015D9E4805F02AF9B3
:102DA00000BF80219B4805F093F90028F9D0601CF2
:102DB000C4B2272CEFDB00208F49C91E81F82B00FD
:102DC0003BE08C48007830BB01208A4908702821FC
:102DD000894806F0FEFF0E228949874806F0E0FF89
:102DE0008049854807F000F88949834806F0FCFFD0
:102DF00000240DE08048015D864805F0FBF800BF27
:102E00008021844805F064F90028F9D0601CC4B220
:102E1000142CEFDB11E000240DE07748015D7D48C4
:102E200005F0E8F800BF80217A4805F051F9002844
:102E3000F9D0601CC4B2142CEFDB98E10020764975
:102E4000087005207549087091E1744800780628DB
:102E500008D103206949087007207049087006F0FE
:102E6000BEFC02E003206D49087080E17FE17EE155
:102E700035B1012D08D0102D0AD0112D10D10BE045
:102E800000205B4948800CE001205949488008E057
:102E900002205749488004E003205549488000E05B
:102EA00000BF00BFFDF753FE61E19DF80500401E25
:102EB0004F490870AC2D04D0AD2D6FD0DC2D6ED1F4
:102EC00072E000214A4881809DF807000121FFF748
:102ED00032FC80469DF806000121FFF72CFC00EB38
:102EE000C00101EB001008EB80014148C1809DF852
:102EF00009000121FFF71FFC80469DF80800012111
:102F0000FFF719FC00EBC00101EB001008EB80019A
:102F1000374801819DF80B000121FFF70CFC80462A
:102F20009DF80A000121FFF706FC00EBC00101EB50
:102F3000001008EB80012E4841819DF80D00012111
:102F4000FFF7F9FB80469DF80C000121FFF7F3FB2A
:102F500000EBC00101EB001008EB800124488181E7
:102F60009DF80F000121FFF7E6FB80469DF80E005B
:102F70000121FFF7E0FB00EBC00101EB001008EBC3
:102F800080011B48C1819DF8101041829DF81100FD
:102F9000502805D100211648018204E088E0D4E0E1
:102FA000012113480182D0E00121114881809DF860
:102FB0000700FFF7C0FB80469DF806000121FFF7E0
:102FC000BAFB00EBC00101EB001008EB80010848E0
:102FD000C1809DF809000121FFF7ADFB80469DF8F7
:102FE00008001DE048000020544553540000000034
:102FF000FC000020520000209F020020040000205E
:103000000A020020510000203B0000003202002094
:1030100054000020003801402F0000200300002051
:103020000121FFF788FB00EBC00101EB001008EB6A
:103030008001F84801819DF80B000121FFF77BFB1F
:1030400080469DF80A000121FFF775FB00EBC001E7
:1030500001EB001008EB8001EE4841819DF80D0066
:103060000121FFF768FB80469DF80C000121FFF766
:1030700062FB00EBC00101EB001008EB8001E548AA
:1030800081819DF80F000121FFF755FB80469DF8D7
:103090000E000121FFF74FFB00EBC00101EB001018
:1030A00008EB8001DB48C1819DF8101041824CE0A3
:1030B0009DF807000121FFF73EFB80469DF80600C2
:1030C0000121FFF738FB00EBC00101EB001008EB1A
:1030D0008001D04881829DF809000121FFF72BFB78
:1030E00080469DF808000121FFF725FB00EBC00199
:1030F00001EB001008EB8001C648C1829DF80B006F
:103100000121FFF718FB80469DF80A000121FFF717
:1031100012FB00EBC00101EB001008EB8001BD4881
:1031200001839DF80D000121FFF705FB80469DF806
:103130000C000121FFF7FFFA00EBC00101EB0010CA
:1031400008EB8001B348418300BF00BFFDF7FFFCDF
:103150000DE0681EAF4908700320AF49087006F003
:10316000FEF9FDF734FCFDF7F2FC00E000BFDFE004
:10317000A84890F848000128F9D1A84890F82B00F9
:1031800088B11E22A5492E3108A806F009FE9DF837
:1031900022709DF823600020A04981F82B000021B7
:1031A0009E4880F82C1026B1012E49D0022E46D11F
:1031B00054E0022F2CD19DF82400542809D100207E
:1031C00097490870052094490870012095490870B6
:1031D00035E09DF82400522813D18F480078062846
:1031E0000BD103209049087007208B49087006F026
:1031F000F6FA01208B49087021E003208649087007
:103200001DE09DF82400532819D1FFF71DFB16E09F
:10321000032F14D19DF82400742810D10020804978
:1032200008709DF825007B49087003207A490870D2
:1032300006F095F9FDF7CBFB05207749087076E09D
:103240009DF824007349087003207349087006F044
:1032500086F9FDF7BCFBFDF77AFC68E09DF82400D9
:10326000724908700846007880096A4948806F48AA
:103270000078C0F34011674881806C480078C0F343
:103280000011644801826948007800F00F0161482C
:1032900041829DF8251081829DF827009DF8261017
:1032A00000EB012081B25B48C1809DF829009DF8A8
:1032B000281000EB012081B2564801819DF82B00B7
:1032C0009DF82A1000EB012081B2524841819DF8FF
:1032D0002D009DF82C1000EB012081B24D4881811A
:1032E0009DF82F009DF82E1000EB012081B2494877
:1032F000C1819DF831009DF8301000EB012081B2B2
:103300004448C1829DF833009DF8321000EB012043
:1033100081B2404801839DF835009DF8341000EBE0
:10332000012081B23B484183FDF711FC00BF00BF83
:1033300010B0BDE8F08170B500203B490870FDF782
:1033400006FC06F07DF906F02AFA002034490870E0
:103350009CE0374890F82B0008B1FFF77AFB0A2071
:1033600005F04DFF0446662C73D008DCA4F1610023
:1033700005286FD2DFE800F010142D476500E62C19
:103380007AD004DC672C78D0682C7DD16AE0E72CF9
:1033900074D0E82C78D166E004201F49087074E0EE
:1033A00024480078A0B91B480078401C19490870CF
:1033B00008460078082801DD0020087006F0CFF8E4
:1033C000FDF705FB06F088F806F058F8FDF7BFFB9F
:1033D0005BE018480078A8B90E48007828B10D487D
:1033E0000078401E0B49087002E008200949087067
:1033F00006F0B5F8FDF7EBFA06F06EF806F03EF8C9
:10340000FDF7A5FB41E00B480078A8B1094800781A
:10341000401E12E0FC000020030000209C0200205F
:103420002F00002050000020040000205C0000203D
:1034300083030020050000200320C5B2FE4805706C
:1034400023E0FD480078032807DAFB480078401C99
:1034500004E010E018E00FE00FE00020C5B2F648ED
:10346000057012E000BF0520F44908700020F449FF
:1034700008700AE002E000BF00BF00BF0020EE4974
:103480000870EF49087000E000BF00BFEB4800780B
:1034900003283FF45EAF70BD10B5FEF7DEFE10BD31
:1034A00010B513E00020E7490870E7490870E449C7
:1034B000087006F079F800214FF0804004F080F9A0
:1034C0000120E24908700620DC490870DB480078DA
:1034D0000528E7D010BD10B5002006F065F80021E2
:1034E0004FF0804004F06CF96420FCF7E2FE06F037
:1034F000F1F810BD2DE9FC5F0120D4490870D448D3
:10350000B0F802808088C0B20090D1488088D1494C
:10351000097860F34511CF480170CD48408AC0B2A8
:103520000190002006F047F8B8F1000F30D10020DC
:10353000C9490870C9490870C548C08800EB8000B7
:103540004FF6FF7101EA4005C1488089012801D189
:10355000022601E0BE4886892C460327F020C04998
:10356000088040F6D860BF4908809DF8000038B94F
:10357000BD4800884443B648808BB4FBF0F4D2E0E9
:10358000B94840884443B248008CB4FBF0F4CAE028
:10359000B8F1010F1DD14FF4B470B149088040F665
:1035A000D860B04908800120AC4908700026A848BE
:1035B000808A00EB80004FF6FF7101EA40052C463F
:1035C0000527A94880884443A148808CB4FBF0F4C7
:1035D000A9E0B8F1030F52D19D48808A00EB80002A
:1035E0004FF6FF7101EA400599488089012801D111
:1035F000022601E0964886892C469C480078A0B9AE
:103600004FF4B4709649088040F6D8609549088018
:10361000012092490870052700269348808844437A
:103620008B48808CB4FBF0F47DE000208A49087060
:10363000F0208B49088040F6D8608A490880002035
:10364000864908708248C08800EB80004FF6FF7101
:1036500001EA40052C4603279DF8000038B982484E
:10366000008844437A48808BB4FBF0F45BE07E48EA
:10367000408844437648008CB4FBF0F453E07B4828
:10368000007888BB002074490870F02074490880D5
:1036900040F6D860734908806D488089012801D1BF
:1036A000022601E06A4886896948C08800EB8000EC
:1036B0004FF6FF7101EA40052C46032700206749B9
:1036C00008709DF8000038B9674800884443604896
:1036D000808BB4FBF0F426E06348408844435C48A8
:1036E000008CB4FBF0F41EE0FFE74FF4B4705C49CB
:1036F000088040F6D8605B49088000265448808ADC
:1037000000EB80004FF6FF7101EA40052C460527CB
:103710000120524908705448808844434C48808CAA
:10372000B4FBF0F400BFDFF8289109F11C094FF059
:103730000B0BDFF83CA14FF02C0B002705E019F82C
:10374000010B0AF8010B781CC7B25F45F7DB0020BC
:103750004849086048490880484908604849088045
:103760004849087048490880484908804849087015
:10377000484908804849088048490870002708E0FF
:103780000020474921F81700464921F81700781C06
:10379000C7B2082FF4DB40490C80002E45D0012031
:1037A0003B4908703C480488B4FBF6F437490C8068
:1037B0000488B4FBF6F006FB104433490C80334810
:1037C0000088012831DA0A2031490870324804881B
:1037D00004EB84004400B4FBF6F42C490C802E4822
:1037E000048804EB84004400B4FBF6F006FB1044AC
:1037F00025490C8025480088012816DA64202449D0
:1038000008702548048804EB84004400B4FBF6F4F7
:103810001E490C802048048804EB84004400B4FB5B
:10382000F6F006FB104418490C80B8F1000F4BD09D
:10383000B8F1010F3FD037E0050000200300002061
:10384000000000201B0000201C00002004000020BD
:10385000FC0000205C000020060000202E0000205C
:103860003000002032000020360000202F00002011
:10387000DE0100200C0000201E00002014000020AB
:10388000200000202200002024000020260000202C
:10389000280000202A0000202C0000200100002029
:1038A000B4010020C4010020B8F1020F54D0B8F1D7
:1038B000030F7CD126E005F0C9FF022005F0FFFFD1
:1038C0000220FE49087077E09DF8000048B105F03D
:1038D000BDFF022005F0F3FF9DF8040005F06BFE2C
:1038E0000FE005F0CFFFF648008A18B1012005F07F
:1038F000E6FF02E0002005F0E2FF9DF8040005F07D
:103900005AFE59E0EF48007840B905F09FFF0220C9
:1039100005F0D5FF0220E94908701CE09DF8000081
:1039200048B105F093FF022005F0C9FF9DF804009F
:1039300005F041FE0FE005F0A5FFE148008A18B14F
:10394000012005F0BCFF02E0002005F0B8FF9DF863
:10395000040005F030FE2FE0DA480078F0B99DF859
:10396000000048B105F072FF022005F0A8FF9DF8A5
:10397000040005F020FE19E005F084FFD048008A1D
:1039800018B1012005F09BFF02E0002005F097FF31
:103990009DF8040005F00FFE08E008E005F056FF72
:1039A000022005F08CFF0220C449087004E00720C3
:1039B000C5490870BDE8FC9F00BF002005F0F4FD7C
:1039C0000121880703F0FCFE05F004FF0020BF4939
:1039D000087008460078FDF726FA05F0E0FE05F0CD
:1039E0002FFE05F05FFE0820B949087002204870DC
:1039F000162008700220487000200870B548007832
:103A000000EB4000202101EBC000B14948700020CC
:103A10000870B048007800EB4000C00020304870CB
:103A2000B8F1000F09D0B8F1010F07D0B8F1020FBB
:103A300005D0B8F1030F04D102E000BF02E001E0BD
:103A400000E000BF00BF0020A1490870FDF775F835
:103A500000BFAFE710B55A209F4908705920487041
:103A60005A209E490870592048709548008A9C4900
:103A7000097860F304119A4801709148408A984986
:103A8000097860F303019648017000789249C87084
:103A9000934800789149C87092480078002867D10F
:103AA0009148008870B985480078032805D004281B
:103AB00007D100208849887003E00120864988707A
:103AC00000BF55E08848008801280ED17B48007867
:103AD000032805D0042807D106207F49887003E019
:103AE00007207D49887000BF42E07F480088032896
:103AF0001DD172480078032808D0042816D106206A
:103B0000754988700020754988700FE06D4800780D
:103B1000012803D107207049887006E069480078C1
:103B2000022802D101206D49887000BF20E06E4854
:103B3000008802281CD161480078032808D0042896
:103B400015D10020644988700620644988700EE011
:103B50005C480078012802D15F49887006E0594826
:103B60000078022802D107205C49887000BF00BF9E
:103B70005C48007828B35C480088022822D14F486E
:103B80000078C01E06281CD2DFE800F00F031307E0
:103B90000B1700205049887013E002204E498870AE
:103BA0000FE003204C4988700BE001204A498870DF
:103BB00007E004204849887003E0052046498870E2
:103BC00000BF1FE04848008803281BD13B4800780D
:103BD000032812D0042804D0062806D0072810D1C4
:103BE00007E006203C4988700BE008203A498870BD
:103BF00007E009203849887003E0072036498870BB
:103C000000BF00BF00240DE03348015D374804F0D9
:103C1000F1F900BF8021354804F05AFA0028F9D0A4
:103C2000601CC4B20C2CEFDB10BD38B53048006806
:103C3000B0F5805F03D340F6FF702D4908602D4832
:103C40000088B0F5805F03DB40F6FF7029490880EB
:103C500025480088002879D0012804D0022873D094
:103C6000032872D1BDE124484089214A009012689E
:103C700093B2164A1278D21D1F4D05EB820251886D
:103C8000124A1278D21D35F822001A4A1288FEF71D
:103C900019FD044619490C6008460068B0F5617FBB
:103CA00031D928464089124A0090126893B22A46B8
:103CB000518D108D0F4A128822E000000400002070
:103CC000FC0000202F000020030000200600002040
:103CD000BA0000201C000020460200205A020020EA
:103CE0005C00002000000020D401002000380140CA
:103CF0000C0000201E000020DE0100201400002027
:103D0000FEF7E0FC0446FE480460FE48006800EB55
:103D100080004400FC4800894443FB484089B4FBD0
:103D2000F0F40A20B4FBF0F100FB1140042800D9A4
:103D30000A340A20B4FBF0F4A0B20A2190FBF1F09F
:103D4000F04908602EE201E07DE02AE2EF480088B9
:103D500000EB80004400EE488088C8BBED48007846
:103D6000C01CE94931F820004443EA480078C01CEF
:103D700001EB80004088B4FBF0F40A20B4FBF0F1C2
:103D800000FB1140042800D90A340A20B4FBF0F4E7
:103D9000E149CC81DB48006800EB80004400DA4850
:103DA00000884443D8484088B4FBF0F40A20B4FBB0
:103DB000F0F100FB1140042800D90A340A20B4FBBA
:103DC000F0F4A0B20A2190FBF1F0CE49086039E08E
:103DD000FFE7D0480078401DCB4931F8200044432C
:103DE000CC480078401D01EB80004088B4FBF0F423
:103DF0000A20B4FBF0F100FB1140042800D90A347A
:103E00000A20B4FBF0F4C449CC81BE48006800EB42
:103E100080004400BC4880884443BB48C088B4FB51
:103E2000F0F40A20B4FBF0F100FB1140042800D9A3
:103E30000A340A20B4FBF0F4A0B20A2190FBF1F09E
:103E4000B0490860AEE1B548007800287DD1AF48A0
:103E5000008800EB80004400AD488088C8BBAD48B6
:103E60000078C01CA84931F820004443A9480078D4
:103E7000C01C01EB80004088B4FBF0F40A20B4FBC6
:103E8000F0F100FB1140042800D90A340A20B4FBE9
:103E9000F0F4A149CC819B48006800EB800044000D
:103EA00099480088444398484088B4FBF0F40A20BD
:103EB000B4FBF0F100FB1140042800D90A340A20B9
:103EC000B4FBF0F4A0B20A2190FBF1F08D49086038
:103ED00086E0FFE78F480078401D8B4931F82000CD
:103EE00044438C480078401D01EB80004088B4FBBF
:103EF000F0F40A20B4FBF0F100FB1140042800D9D3
:103F00000A340A20B4FBF0F48349CC817D48006870
:103F100000EB800044007C48808844437A48C08895
:103F2000B4FBF0F40A20B4FBF0F100FB11400428CC
:103F300000D90A340A20B4FBF0F4A0B20A2190FBA5
:103F4000F1F0704908604BE0FFE76F4840896D4A27
:103F50000090126893B26F4A1278D21D6A4D05EB39
:103F6000820251886B4A1278D21D35F82200674AC6
:103F70001288FEF7A7FB044661490C6008460068FA
:103F8000B0F5617F0DD9284640895E4A00901268DD
:103F900093B22A46518D108D5C4A1288FEF792FB2F
:103FA0000446574804605748006800EB800044000E
:103FB00055480089444354484089B4FBF0F40A2032
:103FC000B4FBF0F100FB1140042800D90A340A20A8
:103FD000B4FBF0F4A0B20A2190FBF1F0494908606B
:103FE000E0E04E480078E8BB47484089454A0090E9
:103FF000126893B2474A1278D21D434D05EB8202F4
:104000005188444A1278D21D35F822003F4A12885E
:10401000FEF758FB04463A490C6008460068B0F5C4
:10402000617F0DD928464089364A0090126893B2C4
:104030002A46518D108D354A1288FEF743FB0446FF
:104040002F4804602F48006800EB800044002E4891
:10405000008944432C484089B4FBF0F40A20B4FBA7
:10406000F0F100E00EE000FB1140042800D90A3412
:104070000A20B4FBF0F4A0B20A2190FBF1F0214930
:1040800008608DE02148008800EB80004400204853
:10409000808898BB1F480078C01C1B4931F820005D
:1040A00044431C480078C01C01EB80004088B4FBEE
:1040B000F0F40A20B4FBF0F100FB1140042800D911
:1040C0000A340A20B4FBF0F41349CC810D4800688F
:1040D00000EB800044000C48008844430A484088B4
:1040E000B4FBF0F40A20B4FBF0F100FB114004280B
:1040F00000D90A340A20B4FBF0F411E017E0000004
:10410000140000200C000020DE0100201E00002012
:10411000FC00002006000020E00000202F0000200E
:10412000A0B20A2190FBF1F0F749086038E0F748A7
:104130000078401DF64931F820004443F3480078E8
:10414000401D01EB80004088B4FBF0F40A20B4FB72
:10415000F0F100FB1140042800D90A340A20B4FB16
:10416000F0F4EC49CC81E848006800EB80004400A2
:10417000E74880884443E648C088B4FBF0F40A204E
:10418000B4FBF0F100FB1140042800D90A340A20E6
:10419000B4FBF0F4A0B20A2190FBF1F0DA49086018
:1041A00000E000BF00BF38BD0CB5DB480078082830
:1041B00004DAD9480078401CD749087007200190DC
:1041C0000EE09DF80400401ED44931F810009DF81F
:1041D000042021F812009DF80400401EC0B2019096
:1041E0009DF804000028ECDCC7480068CB49088033
:1041F00000200090C8480078019007E0C7489DF86B
:10420000041030F811000099084400909DF8040053
:10421000411EC9B201910028F0D1BF490978009828
:10422000B0FBF1F00090009880B2B7490860072019
:1042300001900EE09DF80400401EB94931F81000CD
:104240009DF8042021F812009DF80400401EC0B221
:1042500001909DF804000028ECDCB2480088B049C9
:10426000088000200090AC480078019007E0AC483E
:104270009DF8041030F811000099084400909DF852
:104280000400411EC9B201910028F0D1A249097869
:104290000098B0FBF1F00090A249009808800CBD96
:1042A0000EB500200190009002900EE005F08CF910
:1042B00001990844019005F08DF900990844009097
:1042C0009DF80800401CC0B202909DF8080010281C
:1042D000ECDB0198C0F30F108B4908600098C0F325
:1042E0000F10904908800EBD2DE9F04F8BB04FF0B4
:1042F000000B0020049003900290019082468A48AF
:1043000040888A4908800846008805287ED2DFE870
:1043100000F01703673898008548007820F0C00047
:104320004030834908708048C08A8049C8807E48F0
:10433000008B08817C48408B48800220099087E0F0
:104340007B48007820F0C0007949087076480089E1
:104350007649C8807448408908817348C08948807C
:1043600071488089012802D10220888003E06E48CC
:1043700080896E4988806C48808800900020099070
:1043800066E06B48007820F0C000C03068490870D3
:104390006848007860B96448C08A6449C880624847
:1043A000008B08816048408B48800220099016E00D
:1043B000002009905C4800895C49C8805A484089BF
:1043C00008815948C089488057488089012802D10E
:1043D0000220888003E0544880895449888037E06F
:1043E0005348007820F0C00080305149087051488F
:1043F0000078C8B9002009904B4800894B49C88013
:104400004948408908814848C08900E01AE048804E
:1044100045488089012802D10220888010E0424866
:104420008089424988800BE0022009903E48C08A7A
:104430003E49C8803C48008B08813B48408B4880FF
:1044400006E005E007203C4908700BB0BDE8F08F9E
:1044500000BFFFF74FF800200790089006903749FB
:1044600008602C490881364908809DF824002749B6
:1044700008700978334A12781144C8B2FCF7D3FCAB
:1044800001F0CBB90020304908703048007801288D
:104490007ED100202D4908704FF0010BBDF820009F
:1044A00042F20F71884204DABDF82000401C80B24D
:1044B000089027480078012852D19DF81C00401C24
:1044C000C0B207909DF81C0022490978884208DB99
:1044D000002007901A4800881F4909880844184995
:1044E00008800C4800891149898888420BDB00202C
:1044F0000849088119480088114908800220144998
:104500000870012004909AE00C00002006000020B2
:10451000DE010020E000002022000020B401002085
:10452000C40100201E000020FC000020D401002057
:104530005C0000202F00002003000020100000205D
:104540002A0000202E000020520000200100002040
:104550000400002028000020260000202C0000205D
:10456000FA480088FA490880FA484088002866DD41
:10457000F9480089F7494988884260DBF548008896
:1045800080B1F4480088022804D1F448007800E0A3
:1045900072E038B1EF48008803282AD1EF4800784C
:1045A000012826D1EE49C88805F0DFFD8046ED4A96
:1045B000ED4B05F0F4FC04460D46EC48006805F0B0
:1045C000D4FD064622462B4605F01CFE08D20120EB
:1045D00003900720E64908700320E64988702EE022
:1045E0000720E54908700420E14908700120049083
:1045F00025E0DB49888A05F0B8FD0646D94ADA4B42
:1046000005F0CDFC04460D46D848006805F0ADFD28
:10461000804622462B4605F0F5FD08D20120039086
:104620000720D34908700320D249887007E007208B
:10463000D14908700420CE49087001200490C44874
:10464000008804F0B1FF9DF81800401CC0B206902D
:104650009DF81800092190FBF1F201FB1200C0B295
:1046600006909DF81800052802DA04F062FC01E0CB
:1046700004F05BFCFCF7B2F8FFF712FEFFF794FDC5
:10468000FFF7D3FAB3480088012816D0B148008854
:10469000022803D1B148007801280ED0AD48008827
:1046A000022803D1AD480078012806D0A948008827
:1046B00003283BD1A9480078C0BBB0480088B04966
:1046C0000988884204DD01200290002001900DE05D
:1046D000AA480088AB490988884204DA0120019081
:1046E0000020029002E00020029001904FF0000AAA
:1046F000A54800789DF82410884209DA019801281D
:1047000006D1A1480078401C9F4908704FF0010A6B
:104710009D480078002809DD0298012806D19A48B2
:104720000078401E984908704FF0010ABAF1010F55
:104730001FD10020954908700A900AE00020944992
:104740009DF8282021F812009DF82800401CC0B2D6
:104750000A909DF828000828F0DB8B4909788D4ADB
:1047600012781144C8B2FCF75EFB3220FBF7A1FDC2
:10477000C4E07848008830B1012824D002287CD0D9
:10478000032879D138E080480078012806D17248A2
:10479000C0890A2190FBF1F06F49C881BDF8000083
:1047A000012803D140F22620059002E04FF49660E4
:1047B00005906948C0890599884203D948F29F60ED
:1047C0006549C88199E06D48008840B17248006829
:1047D0007249884206D908466F49086002E06F486E
:1047E0006D490860BAF1000F05D15B4800890628C1
:1047F00001DB0120039080E058480078C0B95F4891
:10480000008840B1644800686449884206D9084677
:104810006149086002E061485F490860BAF1000F31
:1048200028D14D480089062824DB0120039021E08F
:1048300055480078012806D14748C0890A2190FBD5
:10484000F1F04549C8814FF496600590BDF800002D
:10485000012803D140F22620059002E04FF4966033
:1048600005903D48C0890599884203D948F29F6068
:104870003949C88141E000E03EE03848007810BB8B
:1048800041480078012806D13348C0890A2190FBAD
:10489000F1F03149C8814FF496600590BDF80000F1
:1048A000012803D140F22620059002E04FF49660E3
:1048B00005902948C089059988421CD948F29F6013
:1048C0002549C88117E02D48008840B1324800686A
:1048D0003249884206D908462F49086002E02F482D
:1048E0002D490860BAF1000F05D11B480089062840
:1048F00001DB0120039000E000BF00BF1C480078EE
:1049000002286FD103980128FBD1BAF1000FF8D12A
:104910001048008830B1012865D0022875D00328DE
:1049200074D19CE00C48C08905900A48C08805995C
:1049300088424BD20A48808838B90598B0F5966FFE
:104940002ED90A200A4908702DE02CE02C00002006
:104950002A000020D4010020E00000202F000020C9
:10496000FC0000209A9999999999E93F0C00002040
:104970000400002046020020030000201E0000204A
:10498000320000203000002006000020220000201D
:10499000C40100202E000020140000209F8601008A
:1049A0000620FC490870FC48808801280BD141F2A0
:1049B00088310598884203D90A20F649087002E038
:1049C0000620F44908700220F4498870F4480089F0
:1049D0000599884205D90720EE4908700320EF4960
:1049E000887033E133E1EF4800680590EE480078C5
:1049F00020B101280BD0022815D10EE04FF47A71B6
:104A00000598B0FBF1F005900EE0A3E01DE16421F4
:104A10000598B0FBF1F0059006E00A210598B0FB7F
:104A2000F1F0059000E000BF00BFDD48C0880599A7
:104A3000884208D2DA48C08828B10620D5490870D3
:104A40000820D6498870D64800890599884205D93A
:104A50000720D04908700920D0498870F6E0D34873
:104A6000007870BBCF4800680590CF48007820B12F
:104A7000012809D0022813D10CE04FF47A7105986F
:104A8000B0FBF1F005900CE064210598B0FBF1F06B
:104A9000059006E00A210598B0FBF1F0059000E0D2
:104AA00000BF00BFBE48C088059988420AD2BC48F2
:104AB000C08838B10620B74908700820B749887007
:104AC00003E012E00620B5498870B54800890599D1
:104AD000884206D90720AF4908700920AF4988707D
:104AE00037E00620AD49887033E0B148C0890590B1
:104AF000AB48C0880599884220D2A748808850B921
:104B00000598B0F5966F03D90A20A249087002E013
:104B10000620A0490870A048808801280BD141F2E6
:104B200088310598884203D90A209A49087002E022
:104B300006209849087002209E498870984800898C
:104B40000599884205D907209249087003209949A0
:104B500088707BE095480078C0BB9548C089059077
:104B60008F48C0880599884221D28B48808850B9E7
:104B70000598B0F5966F03D90A208649087002E0BF
:104B80000620844908708448808801280BD141F2AE
:104B900088310598884203D90A207E49087002E0CE
:104BA00006207C49087002207C49887002E00020C1
:104BB0007A4988707A4800890599884207D9072080
:104BC000744908700320754988703DE003E00020B7
:104BD0007249887038E07348006805907248007820
:104BE00020B1012809D0022813D10CE04FF47A71CA
:104BF0000598B0FBF1F005900CE064210598B0FB3E
:104C0000F1F0059006E00A210598B0FBF1F005905F
:104C100000E000BF00BF6248C0880599884208D202
:104C20005F48C08828B106205A49087008206149A9
:104C300088705B4800890599884205D90720554945
:104C4000087009205B49887000E000BF00BF514830
:104C5000007806280FD04F48007807280BD04D4821
:104C60000078052807D04B480078082803D0494829
:104C700000780A2809D101204F49087007204F49C0
:104C800008704FF0010B01200490BBF1010F7DD1A2
:104C90004FF0000B00204A4908700120487040483E
:104CA000008830B1012872D0022871D0032870D159
:104CB000F1E03948C0884349096888420DD936482F
:104CC000C08840490968401A032813D83248C08870
:104CD0003C490860012003900CE02F48C088394906
:104CE0000968081A032805D82B48C0883549086088
:104CF000012003903349096888B20123032202216D
:104D0000FBF77BFE304804F0DEFB14212F4805F052
:104D100060F801202E4908702C482B490968016071
:104D20002CA105F061F827480068000A1B490871AA
:104D30002448006848710920214908701C49C88925
:104D4000002304220221FBF758FE1948C089B0F560
:104D50007A7F0EDA1C4840781B4908700846807834
:104D600048700846C078887008460079C8700020EE
:104D700008711549154805F037F8064800780828E5
:104D800058D0044800780A2854D025E0F4E372E2B1
:104D900036E3F2E304000020FC000020460200207D
:104DA000D401002014000020060000202F00002065
:104DB000E00000205A020020000000200300002034
:104DC000BA0000200C000020BC0000200A020020D5
:104DD000520000206B563B00FE4804F074FBFD4877
:104DE00005F087FD06460022FB4B05F0D8F8044687
:104DF00005F038FAF9490860F948C089B0F57A7FBA
:104E000003DAF8A004F04CFB02E0F7A004F048FB42
:104E1000F2480078F5498871F0484078C871EF4849
:104E200080780872ED48C0784872F1A1F14804F02A
:104E3000DBFF24E0F04800780A280BD1E548EFA119
:104E40000A6802600979017104F03DFBEDA004F0ED
:104E500027FB0EE0E848007808280AD1DD48EA4937
:104E60000A6802600979017104F02DFBE5A004F0E5
:104E700017FB0020DD498871C87108724872002054
:104E8000E2490870D64800890012D8498872D4488F
:104E90000089C872B3E2DE480078002870D1012092
:104EA000DC490870DC48808ADC49096888420BD9F3
:104EB000D948808AD9490968401A03280FD8D648AA
:104EC000808AD64908600AE0D348808AD3490968B5
:104ED000081A032803D8D048808AD0490860CF49EF
:104EE000096888B2012303220221FBF786FDB94835
:104EF00004F0E9FA1421CA4804F06BFF0120C34909
:104F00000870C748B34909680160AFF2381104F06E
:104F10006BFFC2480068000AB4490871BF480068C6
:104F200048710920BF490870BF48006842F20F71FC
:104F3000884226D9BD480078022810D1BA480068B6
:104F40000A21B0FBF1F084B2B94AB8480078401C9D
:104F5000115C012305222046FBF74FFD1CE0B248FF
:104F600000680A21B0FBF1F084B2B14AAF48007882
:104F7000401C115C012304222046FBF73EFD0BE0A0
:104F800053E0AB4AA94B1B78D15CA74A126890B298
:104F900001230422FBF731FDA3480068A54988429C
:104FA0001CD08C4804F08FFA8A499D4804F01CFFFD
:104FB000884805F09EFC044605F054F987490860CE
:104FC000084600788949887184484078C8718348C8
:104FD000807808728148C078487216E096A004F084
:104FE00072FA97A18E4804F0FFFE97487B4908604B
:104FF000084600787D49887178484078C8717748BC
:10500000807808727548C078487290A1844804F08E
:10501000EBFE734800890012744988727048008959
:10502000C87200207949087024E10220794908708B
:105030007948C0887949096888420DD97648C0887E
:1050400076490968401A032813D87348C088734901
:105050000860012003900CE06F48C0886F49096820
:10506000081A032805D86C48C0886C4908600120DC
:1050700003906A49096888B2012303220221FBF7E1
:10508000BCFC544804F01FFA14215A4804F0A1FE55
:1050900001205E49087057484E4909680160AFF227
:1050A000CC2104F0A1FE5D480068000A684908713F
:1050B0005A480068487109205A4908704849C88907
:1050C000012304220221FBF798FC4548C089B0F572
:1050D0007A7F0EDA3F4840783E490870084680786B
:1050E00048700846C078887008460079C87000206B
:1050F000087138493F4804F077FE3F480078082897
:1051000034D03D4800780A2830D0324804F0DBF92A
:10511000304805F0EEFB064600222F4B04F03FFF1F
:10512000044605F09FF82D4908602D48C089B0F568
:105130007A7F03DA2BA004F0B3F902E02AA004F08E
:10514000AFF9264800784249887124484078C871F0
:105150002248807808722148C078487224A12548E6
:1051600004F042FE00202949087032E0224800780D
:105170000A2812D1174821A10A6802600979017131
:1051800004F0A1F91FA004F08BF919A1194804F04B
:105190002BFE00201D49087015E0174800780828EC
:1051A00011D10C4818490A6802600979017104F0AC
:1051B0008AF914A004F074F90DA10E4804F014FE4D
:1051C000002012490870002021498871C8710872B6
:1051D00048723FE0BC000020000059405800002009
:1051E000E0000020206D41006D41000046020020DB
:1051F0006D413B000A020020040000204F464C2075
:105200000000000020200000D02B010852000020E8
:105210002F00002051000020FC0000200C00002086
:1052200032020020BA0000201400002006000020F6
:1052300059B201089F8601003E3939393900000012
:105240003E3939390000000000401C464D3B00004B
:105250005A020020FE4805F04CFB044605F002F817
:10526000FC490860FC4800890012FC498872FA4831
:105270000089C87295E2FA48808AFA49096888422A
:105280000BD9F748808AF7490968401A03280FD8D4
:10529000F348808AF34908600AE0F148808AF149BE
:1052A0000968081A032803D8ED48808AED49086088
:1052B000EC49096888B2012303220221FBF79DFB18
:1052C000E34804F000F91421E74804F082FD0120CE
:1052D000E6490870E448DE4909680160AFF20C5104
:1052E00004F082FDDF480068000AE1490871DD48EA
:1052F000006848710920DF490870DF48006842F201
:105300000F71884225D9DD480078022810D1DA488B
:1053100000680A21B0FBF1F084B2D94AD74800787E
:10532000401C115C002305222046FBF766FB1BE0B6
:10533000D14800680A21B0FBF1F084B2D04ACF48CE
:105340000078401C115C002304222046FBF755FB2B
:105350000AE0CB4AC94B1B78D15CC74A126890B2AD
:1053600001230422FBF749FBC3480068C549884272
:105370001CD0B74804F0A7F8B549BB4804F034FD89
:10538000B34805F0B6FA044604F06CFFB149086072
:1053900008460078B6498871AE484078C871AD4873
:1053A00080780872AB48C078487218E0AFF2781085
:1053B00004F089F8AFF28011AB4804F015FDB24853
:1053C000A449086008460078A9498871A148407836
:1053D000C871A048807808729E48C0784872AFF2C1
:1053E0009411A14804F000FD0020A04908709A48DB
:1053F000008900129E49887297480089C872D0E1DE
:10540000A248007800287CD10120A1490870944866
:10541000C0889449096888420DD99148C08891494B
:105420000968401A032813D88D48C0888D49086040
:10543000012003900CE08A48C0888A490968081A4C
:10544000032805D88648C088864908600120039053
:105450008449096888B2012303220221FBF7CDFAAF
:105460007B4804F030F814217F4804F0B2FC01209E
:105470007E4908707C48764909680160AFF2AC61EA
:1054800004F0B2FC77480068000A79490871754851
:10549000006848710920774908706F49C88901235D
:1054A00004220221FBF7A9FA6B48C089B0F57A7F84
:1054B0000EDA674840786649087008468078487078
:1054C0000846C078887008460079C87000200871C6
:1054D0005F49654804F088FCAFF2EC21624804F0B3
:1054E00083FC0020614908706A480078082831D0A0
:1054F000684800780A282DD0554803F0E4FF544846
:1055000000E05AE005F0F5F906460022624B04F08F
:1055100046FD044604F0A6FE4E4908604E48C08988
:10552000B0F57A7F04DAAFF2443003F0B9FF03E05C
:10553000AFF24C3003F0B4FF464800784C49887114
:1055400044484078C8714348807808724148C07820
:10555000487229E04F4800780A280FD13C48AFF242
:1055600064310A6802600979017103F0ACFFAFF29F
:105570006C3003F095FF11E024E111E1454800781B
:1055800008280BD1324845490A680260097901713F
:1055900003F099FFAFF2943003F082FF002034490A
:1055A0008871C871087248722B480089001230490E
:1055B000887229480089C872F1E0022034490870D5
:1055C0002748808A2749096888420BD92448808A5D
:1055D00024490968401A03280FD82148808A2149A4
:1055E00008600AE01E48808A1E490968081A0328D4
:1055F00003D81B48808A1B4908601A49096888B289
:10560000012303220221FBF7F8F9114803F05BFFA5
:105610001421234804F0DDFB0120144908702048C0
:105620000B4909680160AFF6540104F0DDFB0D4839
:105630000068000A094908710A4800684871092091
:105640000C4908700C48006842F20F71884229E04A
:10565000BC00002058000020E00000205A0200207A
:10566000FC0000200C0000200A0200205200002054
:1056700046020020BA00002014000020060000208E
:1056800059B201089F86010000401C462F000020EF
:10569000510000200400002000005940D02B0108D8
:1056A0003202002025D9F9480078022810D1F848A4
:1056B00000680A21B0FBF1F084B2F64AF3480078A2
:1056C000401C115C002305222046FBF796F91BE0E5
:1056D000EF4800680A21B0FBF1F084B2ED4AEB48D4
:1056E0000078401C115C002304222046FBF785F95A
:1056F0000AE0E84AE54B1B78D15CE54A126890B2B3
:1057000001230422FBF779F9E1480068E249884265
:105710001CD0E24803F0D7FEE049E14804F064FB06
:10572000DE4805F0E6F8044604F09CFDDD4908601B
:1057300008460078DC498871DA484078C871D94851
:1057400080780872D748C078487218E0AFF21850D5
:1057500003F0B9FEAFF22051D14804F045FBD34825
:10576000D049086008460078CF498871CD48407814
:10577000C871CC4880780872CA48C0784872AFF2C5
:105780003451C74804F030FBC94800890012C649AB
:105790008872C7480089C8720020C649087000E0B6
:1057A00000BF00BF0A20C449087000204870C049EB
:1057B0000889002304220121FBF71FF9B74803F0F1
:1057C00082FE00BF03F010FD0A909DF828006628B5
:1057D00014D008DC62280DD063280CD064280BD0CC
:1057E000652818D109E067280AD0E62807D0E728FD
:1057F00011D106E010E00FE00EE00DE000BF00BFA9
:1058000000BF0320AD4908700720AD49087003F0C0
:10581000E6FFFEF71ABE00BF00BFA94800780628C1
:105820003EF430AEA7480078401CA64908700846F0
:10583000007801280DD1A4480078012809D1A34897
:105840000088022803D0A1480088032801D1FEF770
:1058500001F903F0C4FF00BFDBE72DE9F0410027A9
:105860009B484088C5B2FDF736FE9448007803286F
:1058700027D0052D1FD2DFE805F0040309081D001D
:1058800000BF08208E4908701AE000BF8D480078DC
:1058900001280BD189480078042803D106208849C3
:1058A000087006E008208649087002E00820844954
:1058B000087005E004E0072081490870BDE8F08128
:1058C0002CE0052D1CD2DFE805F0040306051A00C4
:1058D0001AE019E018E07B48007801280BD17748DE
:1058E0000078042803D106207549087006E00820D6
:1058F0007349087002E008207149087004E003E071
:1059000007206F490870D9E700BF6F480078012869
:1059100004D1FCF799FF00206B490870002066490C
:1059200008704870FBF709F904F06FF863480078D5
:10593000032807D10820604908700220487048F207
:105940009F640CE063480078401C6249087062481C
:105950000078032803DB082059490870AEE759E0B6
:105960008FB100270E20544908700420487001238D
:10597000042219462046FBF740F8484803F090FD02
:10598000732003F07FFD0120FAF7B2FC68B14B48A9
:105990000078032809D04048844206D001270A2114
:1059A0000120FAF7A2FC601E84B2012C02DA062064
:1059B00043490870052003F022FC0646672E0CD0F0
:1059C00004DC642E07D0652E22D105E0682E18D0A5
:1059D000E72E1DD102E01CE01BE000BF3748007835
:1059E00003280AD02C48844203D10320344908708C
:1059F00006E003203149087002E0032030490870B6
:105A000007E000202F49087006202D49087000E0AB
:105A100000BF00BF2A4800780728A1D000BF4DE78B
:105A200070B5012503F056FE29484088022803D0AE
:105A30002748408803280DD123480078012812D137
:105A40002048007802280ED1FCF7FEFE00201E49F7
:105A5000087008E01C480078012804D1FCF7F4FE27
:105A60000020194908706FE0012D44D1002516204F
:105A700011490870022048701848007880B303F07C
:105A8000AFFD03F08CFE03F0F4FD34E006000020CF
:105A90001400002059B201089F860100BC000020BC
:105AA00032020020580000205A02002000401C460C
:105AB000E000002052000020BA0000200400002076
:105AC000030000202F00002050000020D4010020FF
:105AD000FC0000201C0000201B0000200000002013
