:020000040801F1
:10000000C80700204501010805030108E7050108AC
:10001000EB050108EF050108F305010800000000E9
:10002000000000000000000000000000F7050108CB
:10003000F905010800000000FB050108FD050108A5
:100040005F0101085F0101085F0101085F0101080C
:100050005F0101085F01010887060108A706010882
:100060003B0701087F0701085F0101085F010108E4
:100070005F0101085F0101085F0101085F010108DC
:100080005F0101085F0101085F0101085F010108CC
:100090005F0101085F0101085F0101088506010891
:1000A0005F0101085F0101085F0101085F010108AC
:1000B0005F010108FF0501085F0101085F010108F8
:1000C0005F0101085F0101085F0101085F0101088C
:1000D0005F010108070301085F0101085F010108D2
:1000E0005F0101085F0101085F0101085F0101086C
:1000F0005F0101085F0101085F0101085F0101085C
:100100005F0101085F0101085F0101085F0101084B
:100110005F0101085F0101085F0101085F0101083B
:100120005F0101085F0101085F0101085F0101082B
:10013000DFF80CD00AF088F900480047890101086F
:10014000C80700200648804706480047FEE7FEE74C
:10015000FEE7FEE7FEE7FEE7FEE7FEE7FEE7FEE777
:10016000338A01083101010870B504460D46E1B239
:10017000264807F00FFF00BF8021244807F078FFD2
:100180000028F9D0204670BD4FF48031C80206F037
:10019000F2FD62B602201E49087036E01C48007865
:1001A0000A282CD2DFE800F02B2805080D121A1DB2
:1001B000202302F0D1FA27E009F030F903F0ADF87E
:1001C00022E009F02BF903F059F91DE009F026F9B6
:1001D00000201049087003F055F915E004F06CF8A0
:1001E00012E005F00BFB0FE005F0EBFB0CE009F073
:1001F00015F906F032F907E005F07FFC04E009F09C
:100200000DF905F088FC00BF00BFC7E700380140CA
:10021000030000200200002010B506F09FFB4FF401
:10022000803006F0BBFB06F0F8FB012820D100204F
:1002300006F039FC002006F048FC4FF4806006F020
:100240003BFC4FF4E0114FF4803006F00FFC01202E
:1002500006F018FC00BF392006F0C3FB0028FAD0D6
:10026000022006F012FC00BF06F018FC0828FBD1A3
:1002700010BD00E0401E0028FCD17047014601EB94
:10028000C1024FF0E0235A6100229A6101221A61F3
:1002900000BF4FF0E022106900F001021AB100F433
:1002A0008032002AF5D000224FF0E0231A619A61D3
:1002B0007047014642F228324A434FF0E0235A6128
:1002C00000229A6101221A6100BF4FF0E0221069FA
:1002D00000F001021AB100F48032002AF5D00022A9
:1002E0004FF0E0231A619A617047054A1154704734
:1002F00001460348405C08B9012070470020FCE734
:1003000019000020704710B540F22551F64807F05B
:10031000C5FE00287ED02021F34807F0B6FEF34842
:1003200090F84800002858D1F14890F82B00002898
:1003300011D10621EE4880F84C10EB4807F02EFE54
:10034000C4B2EB4890F82C0098B9AA2C04D0002134
:10035000E74880F82C10B5E0E54890F82C1090F8AC
:100360002C00401CC2B2E24880F82C202E304454AD
:10037000A8E0BB2C1AD1DE4890F82C1090F82C0085
:10038000401CC2B2DA4880F82C202E3044540120A0
:10039000D74981F82B00084690F82C1080F82D10D2
:1003A000002180F82C1080F84C108BE0D04890F899
:1003B0002C001E2804DB0021CD4880F82C1081E0A1
:1003C000CB4890F82C1090F82C00401CC2B2C848C2
:1003D00080F82C202E30445474E0C44890F8480033
:1003E00001286FD1C24890F82B0000286AD106215D
:1003F000BF4880F84C10BC4807F0D0FDC4B2BC48E0
:1004000090F82C00A0B9112C05D00021B84880F834
:100410002C1057E074E0B64890F82C1090F82C009F
:10042000401CC2B2B24880F82C202E30445449E01F
:10043000AF4890F82C00012813D1082C04D00021DB
:10044000AB4880F82C103DE0A94890F82C1090F8AB
:100450002C00401CC2B2A64880F82C202E304454F8
:1004600030E0A34890F82C001E2804DB0021A048AF
:1004700080F82C1026E09E4890F82C1090F82C0064
:10048000401CC2B29A4880F82C202E3044542E389A
:1004900090F82C00022815DD954890F82C1090F863
:1004A0003000C01C81420DD10120914981F82B0000
:1004B000084690F82C1080F82D10002180F82C10A0
:1004C00080F84C108A4890F82B00012801D102F0E6
:1004D000B2FA884890F82B00002875D1062184488C
:1004E00080F84C10804807F059FDC4B2814890F85C
:1004F0002C0098B9FF2C04D000217E4880F82C10E5
:1005000062E07C4890F82C1090F82C00401CC2B29D
:10051000784880F82C202E30445455E0754890F8E7
:100520002C00012813D1EE2C04D00021714880F852
:100530002C1049E06F4890F82C1090F82C00401CCB
:10054000C2B26C4880F82C202E3044543CE06948FC
:1005500090F82C00042821D1DD2C04D0002165481E
:1005600080F82C1030E0634890F82C1090F82C00A4
:10057000401CC2B25F4880F82C202E304454012029
:100580005C4981F82B00084690F82C1080F82D105B
:10059000002180F82C1080F84C1015E0554890F898
:1005A0002C001E2804DB0021524880F82C100BE0A0
:1005B000504890F82C1090F82C00401CC2B24D48C6
:1005C00080F82C202E3044544FF45871464807F0E0
:1005D00065FD38B10821444807F057FD424807F04F
:1005E000DDFCC4B210BD00BFFEE700BFFEE700BFE8
:1005F000FEE700BFFEE7704770477047704710B5D1
:1006000001213D4807F086FB08F0DBFD3B48007800
:1006100006281DD13A480078401C39490870084620
:10062000007809281ADD002008700120354908707B
:1006300035480089401C3449088134480068401C12
:100640003249086032480068401C3149086005E0C2
:100650002B48007810B1002029490870002409E0D7
:100660002C48005D20B12B48005D401E29490855EB
:10067000601CC4B2022CF3DB2748007808B909F0EB
:100680004AF910BD704710B50121244806F0ABF8B7
:1006900028B91648408A10B1052021490870012068
:1006A00006F025FC10BD10B50120FFF702FE022167
:1006B0001A4806F098F8B0B91A480088022807D1FD
:1006C00019480078012803D107201549087030E047
:1006D00014480088032829D11348007830BB07202C
:1006E0000F49087025E024E000380140F4000020A4
:1006F000940200207B03002000040040030000203F
:100700003C00002001000020D8000020A8000020AC
:1007100010000020190000200000002000140140FB
:1007200004000020CC0100202F00002008202049D8
:100730000870022006F0DBFB10BD10B50520FFF7A6
:10074000B8FD04211B4806F04EF8A0B91A480078FD
:10075000032807D018480078072803D016480078E7
:10076000082806D105201449087000201349087094
:1007700001E011480078042006F0B9FB10BD10B567
:100780000120FFF796FD08210A4806F02CF850B921
:1007900009480078062803D107200749087002E0BD
:1007A000032005490870082006F0A1FB10BD0000D9
:1007B0000400002000140140030000202F0000204E
:1007C00010B50020FE490870487008F0A6FDFD48ED
:1007D0004088E8B1012804D002287DD003286ED1DA
:1007E0003AE0F94808F02CFE0620F549087001208F
:1007F0004870F6A008F037FE0E20F149087001207D
:100800004870F3A008F02FFEF42008F0C9FDA2E024
:10081000F0480078012803D1EF4808F011FE03E00A
:10082000ED48C01D08F00CFE0620E54908700120C7
:100830004870E448808818B1E4A008F014FE02E093
:10084000E6A008F010FE0E20DD4908700120487077
:10085000E3A008F008FE7EE0E2480078B0B9DA488C
:1008600008F0EEFD0620D649087001204870D7A098
:1008700008F0F9FD0E20D249087001204870D4A07C
:1008800008F0F1FDF42008F08BFD24E0D148007859
:10089000012803D1D04808F0D3FD03E0CE48C01DA5
:1008A00008F0CEFD0620C649087001204870C548F2
:1008B000808828B1C5A008F0D6FD04E00CE049E02E
:1008C000C6A008F0D0FD0E20BD4908700120487078
:1008D000C3A008F0C8FD3EE0C248007818BBBD4880
:1008E0000078012803D1BC4808F0AAFD03E0BA480B
:1008F000C01D08F0A5FD0620B14908700120487010
:10090000B048808818B1B1A008F0ADFD02E0B3A0F6
:1009100008F0A9FD0E20AA49087001204870B0A077
:1009200008F0A1FD15E0A84808F08AFD0620A449BA
:10093000087001204870A5A008F095FD0E20A04980
:10094000087001204870A2A008F08DFDF42008F086
:1009500027FD00E000BF00BF072099490870002074
:1009600048709BA008F07FFD964909783131C8B2E4
:1009700008F058FD0F20924908700020487073203D
:1009800008F056FD04208E4908700120487096A09A
:1009900008F069FD10BD8B484A2102E00022027078
:1009A000401C0A1EA1F1010399B2F7D18F4B1A70B6
:1009B0007047002010E0834A921C02EB40010A8835
:1009C0008B4B33F820309A4204DD894A02EB8002D7
:1009D00052880A80421CD0B20D28ECDB7047F0B57B
:1009E00004461D46052A00DD052202B9012204291C
:1009F00000DD0421914200DD1146002004E02026A4
:100A00007C4F3E54461CF0B20828F8D3104611E043
:100A10000A2694FBF6F706FB17463036F7B2461E59
:100A2000DFF8D0C10CF806700A2694FBF6F6B4B2D3
:100A3000461EF0B20028EBDC81B11346084605E003
:100A40005E1E6C4FBE5DFE545E1EF3B2061EA0F12C
:100A50000107F8B2F4D12E26664FFE54A5B9002046
:100A60000EE0644E365C302E07D1624F461CBE5DF0
:100A70002E2E02D020263E5400E004E0461CF0B2A8
:100A8000561E8642EDDC00BF09B1561CF2B210467C
:100A900004E00026574F3E54461CF0B20828F8D315
:100AA000F0BD10B5474890F8480018B9524808F012
:100AB000C7FC07E0434890F84800012802D14F489E
:100AC00008F0BEFC10BD10B53E4890F8480020B9B3
:100AD0004948153008F0B4FC08E03A4890F848005E
:100AE000012803D14548153008F0AAFC10BD10B507
:100AF00043A008F0A5FC10BD10B5002030490870D7
:100B0000487008F00AFCFFF7CCFF00202C49087061
:100B10000120487008F001FCFFF7D5FF10BD10B5AB
:100B20002C490978C1EBC101384A881808F09BFCB0
:100B300010BD10B523484088032802DD002021495C
:100B4000488000201E490870487008F0E6FB1D49E7
:100B5000498801EB41012E4A02EB410008F083FC79
:100B60000720174908700020487016490978481C6A
:100B700001231A460021FFF732FF15A008F073FC8D
:100B80001C4808F05DFC0F484088012803DD21A0C7
:100B900008F056FC02E020A008F052FC0A200849A8
:100BA000087008484088032803D006484088012878
:100BB00037D10449488B0023042201212EE0000094
:100BC000B2000020F400002007AA010844430000FE
:100BD0004D0000000400002015AA01084143000058
:100BE0006D4100002F0000206B5600000200002025
:100BF000B8B00108B4000020D8B101086FB10108F5
:100C000041707220323820323032310022B1010876
:100C100089AA01085F00000020000000FFF7DFFE46
:100C200006E0FB49C889002304220121FFF7D7FE13
:100C3000F84808F018FCF8A008F002FC0020F7497A
:100C4000087001204870F248808840B9F048C08898
:100C5000B0F5167F03DD4FF41671ED48C180EC4806
:100C6000408801280AD1EA49888A00230322022108
:100C7000FFF7B5FE0121E648818012E0E448408894
:100C8000032807D1E249888A002303220221FFF7C3
:100C9000A6FE06E0DE49C888002303220221FFF7F2
:100CA0009EFEDC4808F0DFFBAFF2C40008F0C8FB92
:100CB0001421DB4809F05DF8D948DAA10968016020
:100CC000DAA109F061F8D2484088032812D1D0494E
:100CD000C888002303220221FFF781FE1421D44893
:100CE00009F047F8D248CFA109680160CFA109F007
:100CF0004BF815E0C6484088022811D1C449888ABB
:100D0000002303220221FFF76AFE1421C84809F0DC
:100D100030F8C748C3A109680160C4A109F034F8DC
:100D2000BB48808840B9BA484088032804D0AFF255
:100D3000541008F085FB03E0AFF2701008F080FB60
:100D4000B3484088032803D0B148408801282FD1F8
:100D50000A20B2490870AE49C88A00230422194605
:100D6000FFF73DFEAB4808F07EFBAFF29C1008F0A9
:100D700067FBF42008F014FBAEA1AD4809F004F8BD
:100D8000AEA1AB4809F000F8A148408803283BD148
:100D90009F490889002304220221FFF720FEA1A118
:100DA0009F4808F0F1FFA6A19D4808F0EDFF2BE059
:100DB00009209A49087096490889002304220221D3
:100DC000FFF70DFE934808F04EFBAFF2EC1008F071
:100DD00037FB94A1924808F0D7FF99A1904808F0FA
:100DE000D3FF8B48408802280ED18949C88A002346
:100DF00004220221FFF7F3FD8EA18D4808F0C4FF05
:100E00008EA18B4808F0C0FF10BD70B505468D4817
:100E1000047804F03F0475B1012D09D0022D04D0EF
:100E2000032D09D144F0C00409E044F0800406E039
:100E300044F0400403E002E044F0C00400BF00BFFF
:100E4000804804700020804908607E480078C043D4
:100E500000067C49097840EA01207C4908600120AD
:100E60007B49C1F890016420FFF723FA70BD70B58B
:100E700004460020694908704870254604EBD57186
:100E80004910A4EB4101C1EBC10101EB4101714AE1
:100E9000881808F0E8FA00206049087001204870BE
:100EA0006D4808F0E0FA70BDF8B5044601275B48CC
:100EB00000788DF80000594840788DF801002068CE
:100EC00008F06EFFC6B2701CC6B2082E00DD082600
:100ED00052E067B19DF80000504908709DF801008C
:100EE0004870A288216806FB021008F0BCFA0A20AC
:100EF00008F055F90546E12D15D009DCA5F1610092
:100F0000082837D2DFE800F00E201136362E3331B4
:100F1000A5F1E20007282DD2DFE800F017082C2CFD
:100F2000252A280000BF6120F8BD00BF0127A08846
:100F30006189884203DDA088401EA08003E06089AB
:100F4000A08008F039FD16E000BF0127A088401CF2
:100F5000A080A0882189884203DD2089A08008F034
:100F60002BFD08E000BF6620DEE700BF00BF00BF2A
:100F70006720D9E700BF00BFABE710B504460020EB
:100F800026490870487004EB840101EBC401334A20
:100F9000881808F068FA002020490870012048707D
:100FA0002F4808F060FA10BD10B504460A2094FBE3
:100FB000F0F100FB1140C4B234B1012C11D0022C6D
:100FC00019D0032C5BD14DE0124808F04CFA2020D8
:100FD00008F028FA562008F025FA202008F022FA16
:100FE0004EE00C4808F03FFA202008F01BFA73206E
:100FF00008F018FA44E0074808F035FA202008F015
:1010000011FA4D2008F00EFAF42008F00BFA37E040
:10101000F4000020B400002073000000B2000020A3
:1010200002020020302E3030000000006B563B00E2
:101030002A0200202020302E300000004D3B00000E
:101040006D413B00A5000020908122421014014018
:1010500000802242D6AE01082AAF0108A8AF0108DD
:1010600093AF0108F64808F0FEF9202008F0DAF9FD
:101070004D2008F0D7F9F42008F0D4F900E000BFC3
:1010800000BF10BD10B504460020EE49087048703E
:101090000E2C13D2DFE804F007131F636465666744
:1010A0006869AAABACADE8A008F0DDF90020E5491D
:1010B000087001204870E9A008F0D5F9B9E0EBA06C
:1010C00008F0D1F90020DF49087001204870EB4892
:1010D00008F0C9F9ADE0EA484088C8B1012804D059
:1010E000022817D0032837D113E0A11EE54A02EBEE
:1010F000011008F0B8F90020D249087001204870AA
:10110000611E01EB0111DD4A881808F0ACF924E0FA
:1011100000BF00BF0020CB4908704870A11EDA4A0A
:1011200002EB011008F09FF90020C6490870012069
:101130004870D348808838B9A11E01EB0111D34A09
:10114000881808F090F906E0A11E01EB0111D04AC1
:10115000881808F088F900E000BF00BF69E000BF10
:1011600000BF00BF00BF00BF00BFC5484088C8B176
:10117000012804D0022817D0032834D113E0A11E7F
:10118000C04A02EB011008F06EF90020AD4908706A
:1011900001204870611E01EB0111B84A881808F05F
:1011A00062F921E000BF00BFA11E01EB0111B94AA5
:1011B000881808F058F90020A249087001204870EA
:1011C000AF48808838B9611E01EB0111AF4A881819
:1011D00008F049F906E0611E01EB0111AC4A8818DC
:1011E00008F041F900E000BF00BF22E000BF00BFEF
:1011F00000BFA11E01EB0111A64A881808F033F9BF
:101200000C2C01D00B2C07D10E208E490870002029
:101210004870F42008F00CF900208A490870012079
:101220004870611E01EB01119B4A881808F01BF9F8
:1012300000BF00BF10BD2DE9F84304464FF001097F
:10124000804800788DF800007E4840788DF80100D5
:101250000027A07908B9032600E00426A4E1B9F12B
:10126000000F10D09DF80000764908709DF801002D
:101270004870A389DAB2A179A0880023FFF7AFFBF9
:101280006F4808F0F0F80A2007F089FF8046B8F1AF
:10129000E10F15D009DCA8F16100082872D2DFE85F
:1012A00000F00E9C127171CECDCCA8F1E20007289F
:1012B000F4D2DFE800F0FA3F6767F9F8F70000BF03
:1012C0006120BDE8F8834FF0010900277348807959
:1012D000C0F10300B04202DA701EC5B200E035462C
:1012E0006F4830F8150061890844A188884206DCFF
:1012F000A0886B4931F81510401AA08019E0608968
:10130000052802D06089062813D16089062806D1F5
:10131000A08810B10020A08001E008F04DFB60899A
:10132000052806D1A08810B10020A08001E008F0B7
:1013300043FB38E14FF00109781CC7B25748807968
:10134000C0F10300B04202DA701EC5B200E03546BB
:101350001C2F0CDD002D01DD681EC5B2002D01DD46
:10136000681EC5B2002D14DD681EC5B211E0132F32
:1013700009DD002D01DD681EC5B2002D09DD681EE6
:10138000C5B206E009E10A2F03DD002D01DD681E6C
:10139000C5B2434830F8150061890844A1888842E5
:1013A00006DCA0883E4931F81510401AA08013E0F1
:1013B0006089062806D1A08810B10020A08001E035
:1013C00008F0FAFA6089052806D1A08810B100203B
:1013D000A08001E008F0F0FAE5E04FF001090027F5
:1013E0002E488079C0F10300B04202DA701EC5B207
:1013F00000E035466089062802D06089052855D16D
:10140000608906280AD1A08810B90620A08005E0CE
:10141000A088234931F815100844A0806089052868
:1014200052D1A08810B90520A0804DE0A0881C49A9
:1014300031F815100844A08046E0A9E0AAE0A4E035
:10144000B4000020B20000204D656D6F72793D2020
:1014500020202020202020200000000052616E6704
:10146000653A312D392020202020200054657374E6
:1014700020203D202020202020202000A1AA01089B
:10148000F400002023AA0108F6AA010876AB01089F
:10149000B8AD01080FAC0108DBAC0108C8000020A2
:1014A000E4A9010875E076E070E00EE0A088F84954
:1014B00031F815100844A080A0882189884203DDF6
:1014C0002089A08008F078FA6DE04FF00109781CBF
:1014D000C7B2F0488079C0F10300B04202DA701E52
:1014E000C5B200E035461C2F0CDD002D01DD681E65
:1014F000C5B2002D01DD681EC5B2002D13DD681ECA
:10150000C5B210E0132F08DD002D01DD681EC5B245
:10151000002D08DD681EC5B205E00A2F03DD002D91
:1015200001DD681EC5B26089062802D060890528E1
:101530001CD1608906280AD1A08810B90620A08095
:1015400005E0A088D24931F815100844A0806089D0
:10155000052819D1A08810B90520A08014E0A08822
:10156000CB4931F815100844A0800DE0A088C84987
:1015700031F815100844A080A0882189884203DD35
:101580002089A08008F018FA0DE000BF662098E6D8
:1015900000BF08E000BF672093E6BF4880780128BD
:1015A00000D0002700BF00BF59E62DE9F04100251B
:1015B00000260027B948C08940F6D861884211DD6D
:1015C000012500BF002405E00020B54941F82400B2
:1015D000601CC4B20C2CF7DB0020B2490870B24981
:1015E000088009E0AD48C089B0F5B47F02DA012671
:1015F000002501E0002500260027AC4800780028DF
:1016000016DD012D14D1A9480078401EA7490870A5
:101610000127002405E00020A14941F82400601CB6
:10162000C4B20C2CF7DB00209E4908709E4908804C
:101630009E480078042816DA012E14D19B480078C1
:10164000401C9A4908700127002405E000209449B5
:1016500041F82400601CC4B20C2CF7DB0020914937
:10166000087091490880012F06D190480078FFF753
:10167000CCFB3220FEF71DFEBDE8F08101B590B035
:101680000021109808F0DAFD10D2109808F077FDCC
:101690000022874BCDE9060108F051FCCDE9080195
:1016A00008F0B0FD1090012082490870109808F0F1
:1016B00066FD814A814BCDE9080108F073FD01D236
:1016C00011B000BD109808F05AFD7D4A7D4BCDE960
:1016D000080108F07FFD58D2109808F050FD784AB4
:1016E000784BCDE9060108F09CFCCDE9080108F033
:1016F00089FD0E9074480D9000200B9026200A90D2
:101700003FE0DDE90D1008F0DCFB4FF07E51099061
:1017100008F094FD0ED20D9808F031FD00226B4BBD
:10172000CDE9060108F07DFCCDE9080108F06AFD6D
:101730000D9000E028E00D9808F021FD644A654B0B
:10174000CDE9020108F0FBFBCDE90601109808F095
:1017500016FDCDE90401DDE9062308F062FCCDE9C0
:10176000080108F0F3FC0C9052490C9848600A9864
:1017700008720B98401C40B20B900A98401E40B271
:101780000A900B980428BCDB13E2109808F0F7FCD1
:10179000514A524BCDE9080108F01CFD58D210986F
:1017A00008F0EDFC4C4A4D4BCDE9060108F039FC40
:1017B000CDE9080108F026FD0E9049480D90002063
:1017C0000B9023200A903FE0DDE90D1008F079FB33
:1017D0004FF07E51099008F031FD0ED20D9808F0BF
:1017E000CEFC0022394BCDE9060108F01AFCCDE908
:1017F000080108F007FD0D9000E028E00D9808F0C2
:10180000BEFC384A384BCDE9020108F098FBCDE91F
:101810000601109808F0B3FCCDE90401DDE90623C8
:1018200008F0FFFBCDE9080108F090FC0C9021497D
:101830000C9848600A9808720B98401C40B20B90B4
:101840000A98401E40B20A900B980828BCDB9BE720
:10185000109808F094FC254A254BCDE9080108F0C2
:10186000B9FC7DD2109808F08AFC204A204BCDE9C3
:10187000060108F0D6FBCDE9080108F0C3FC0E9084
:1018800017480D9000200B901C200A9074E0000077
:10189000E4A90108C8000020AC000020D800002006
:1018A0007C01002007000020080000200600002026
:1018B0000000F0BFE8000020ECCFC55FFFFF0F384D
:1018C000824DC7726142334700007A4400002440D1
:1018D00021D7E6FAE031F44581121F2FE727C045F2
:1018E0008096184B92D54D06CFF0804450EFE2D64B
:1018F000E41A4B44DDE90D1008F0E3FA4FF07E5195
:10190000099008F09BFC0ED20D9808F038FC0022DC
:10191000F74BCDE9060108F084FBCDE9080108F09A
:1019200071FC0D9000E02AE00D9808F028FCF14AC7
:10193000F14BCDE9020108F002FBCDE90601109858
:1019400008F01DFCCDE90401DDE9062308F069FB80
:10195000CDE9080108F0FAFB0C90E8490C9800E08A
:101960000EE048600A9808720B98401C40B20B9039
:101970000A98401E40B20A900B980828BADBA0E3F0
:10198000109808F0FCFBDE4ADE4BCDE9080108F0B8
:1019900021FC58D2109808F0F2FBD94AD94BCDE976
:1019A000060108F03EFBCDE9080108F02BFC0E9083
:1019B000D5480D9000200B9015200A903FE0DDE9FE
:1019C0000D1008F07EFA4FF07E51099008F036FCB9
:1019D0000ED20D9808F0D3FB0022C54BCDE90601CD
:1019E00008F01FFBCDE9080108F00CFC0D9000E0A9
:1019F00028E00D9808F0C3FB0022C44BCDE902019A
:101A000008F09DFACDE90601109808F0B8FBCDE981
:101A10000401DDE9062308F004FBCDE9080108F024
:101A200095FB0C90B5490C9848600A9808720B9881
:101A3000401C40B20B900A98401E40B20A900B988E
:101A40000828BCDB3DE3109808F099FB0022B04B5E
:101A5000CDE9080108F0BEFB58D2109808F08FFBC2
:101A60000022AB4BCDE9060108F0DBFACDE9080115
:101A700008F0C8FB0E90A4480D9000200B900D209C
:101A80000A903FE0DDE90D1008F01BFA4FF07E519F
:101A9000099008F0D3FB0ED20D9808F070FB0022DD
:101AA000934BCDE9060108F0BCFACDE9080108F036
:101AB000A9FB0D9000E028E00D9808F060FB0022E3
:101AC0008B4BCDE9020108F03AFACDE906011098F6
:101AD00008F055FBCDE90401DDE9062308F0A1FA81
:101AE000CDE9080108F032FB0C9084490C9848605D
:101AF0000A9808720B98401C40B20B900A98401E3E
:101B000040B20A900B980828BCDBDAE24FF07E5115
:101B1000109808F09DFB4DD210980E907A480D90C9
:101B200000200B9007200A9021E0DDE90D1008F05D
:101B3000C8F94FF07E51099008F080FB0ED20D9845
:101B400008F01DFB00226A4BCDE9060108F069FA96
:101B5000CDE9080108F056FB0D9000E00AE00B9873
:101B6000401C40B20B900A98401E40B20A900B985D
:101B70000828DADB00BF0D9808F001FB654A664BC8
:101B8000CDE9020108F0DBF9CDE90601109808F073
:101B9000F6FACDE90401DDE9062308F042FACDE9C1
:101BA000080108F0D3FA0C9054490C9848600A9840
:101BB000087286E2109808F0E2FA584A584BCDE9CC
:101BC000080108F007FB59D2109808F0D8FA002253
:101BD0004F4BCDE9060108F0B2F9CDE9080108F054
:101BE00011FB0E9048480D9000200B900A9041E0A8
:101BF000DDE90D1008F065F94FF07E51099008F00D
:101C00001DFB0ED20D9808F0BAFA0022384BCDE930
:101C1000060108F006FACDE9080108F0F3FA0D9084
:101C200000E02AE00D9808F0AAFA02460B46CDE93A
:101C300002013C483C4908F0F4F9CDE9060110984E
:101C400008F09DFACDE90401DDE9062308F077F9F3
:101C5000CDE9080108F07AFA0C9028490C98486000
:101C60000A9808720B98401C40B20B900A98401ECC
:101C700040B20A900B980828BADB22E2109808F0CC
:101C80007EFA2A4A2A4BCDE9080108F0A3FA7ED24F
:101C9000109808F074FA1A4A1A4BCDE9060108F0B8
:101CA0004EF9CDE9080108F0ADFA0E9016480D90F6
:101CB00000200B90C01F0A9064E0DDE90D1008F0D1
:101CC00000F94FF07E51099008F0B8FA0ED20D9845
:101CD00008F055FA0022064BCDE9060108F0A1F9FB
:101CE000CDE9080108F08EFA0D9023E04DE00000E8
:101CF0000000244000003426F56B0C43E80000206F
:101D00000000901EC4BCD6428096184B84D79741E1
:101D1000D01263418DEDB5A0F7C6B03E48AFBC9A76
:101D2000F2D77A3E000040E59C30A2429B2BA18670
:101D30009B84063D0D9808F022FA02460B46CDE939
:101D40000201F748F74908F06CF9CDE9060110984F
:101D500008F015FACDE90401DDE9062308F0EFF8F3
:101D6000CDE9080108F0F2F90C90EF490C984860B1
:101D70000A9808720B98401C40B20B900A98401EBB
:101D800040B20A900B98082897DB9AE1FFE7109879
:101D900008F0F5F9E54AE64BCDE9080108F01AFA32
:101DA0005BD2109808F0EBF9E24AE34BCDE906016B
:101DB00008F0C5F8CDE9080108F024FA0E90DF48D4
:101DC0000D9000200B906FF00D000A9041E0DDE9CE
:101DD0000D1008F076F84FF07E51099008F02EFAB9
:101DE0000ED20D9808F0CBF90022D54BCDE90601B3
:101DF00008F017F9CDE9080108F004FA0D9000E0A9
:101E00002AE00D9808F0BBF902460B46CDE9020125
:101E1000CC48CD4908F005F9CDE90601109808F045
:101E2000AEF9CDE90401DDE9062308F088F8CDE933
:101E3000080108F08BF90C90BB490C9848600A988F
:101E400008720B98401C40B20B900A98401E40B29A
:101E50000A900B980828BADB33E1109808F08FF944
:101E6000BA4ABB4BCDE9080108F0B4F95BD210982F
:101E700008F085F9B74AB84BCDE9060108F05FF8DC
:101E8000CDE9080108F0BEF90E90AC480D90002095
:101E90000B906FF014000A9041E0DDE90D1008F09E
:101EA00010F84FF07E51099008F0C8F90ED20D9845
:101EB00008F065F90022A24BCDE9060108F0B1F85F
:101EC000CDE9080108F09EF90D9000E02AE00D9898
:101ED00008F055F902460B46CDE902019F48A0499A
:101EE00008F09FF8CDE90601109808F048F9CDE90F
:101EF0000401DDE9062308F022F8CDE9080108F025
:101F000025F90C9088490C9848600A9808720B983B
:101F1000401C40B20B900A98401E40B20A900B98A9
:101F20000828BADBCDE0109808F029F98D4A8E4BCD
:101F3000CDE9080108F04EF961D2109808F01FF9B8
:101F40008A4A8B4BCDE9060107F0F9FFCDE908017C
:101F500008F058F90E9079480D9000200B906FF022
:101F60001B000A9047E0DDE90D1007F0AAFF4FF0D3
:101F70007E51099008F062F90ED20D9808F0FFF832
:101F800000226F4BCDE9060108F04BF8CDE90801BE
:101F900008F038F90D9000E030E00D9808F0EFF807
:101FA00002460B46CDE900017048714908F039F846
:101FB000CDE90401109808F0E2F8CDE90201DDE96D
:101FC000042307F0BCFF00226A4BCDE9060107F0AD
:101FD000B6FFCDE9080108F0B9F80C9052490C9809
:101FE00048600A9808720B98401C40B20B900A98FF
:101FF000401E40B20A900B980828B4DB61E01098AC
:1020000008F0BDF85C4A5D4BCDE9060107F097FF8B
:10201000CDE9080108F0F6F80E9059480D9000201F
:102020000B906FF022000A9047E0DDE90D1007F0F9
:1020300048FF4FF07E51099008F000F90ED20D983C
:1020400008F09DF800223E4BCDE9060107F0E9FFBC
:10205000CDE9080108F0D6F80D9000E030E00D98C9
:1020600008F08DF802460B46CDE90001424843498D
:1020700007F0D7FFCDE90401109808F080F8CDE90A
:102080000201DDE9042307F05AFF0022394BCDE9B4
:10209000060107F054FFCDE9080108F057F80C904D
:1020A00021490C9848600A9808720B98401C40B26D
:1020B0000B900A98401E40B20A900B980428B4DB9B
:1020C00000BF00BFFFF7FCBA70B500252D480078AF
:1020D000401C2C4908702C48C08949F64041884270
:1020E00004DC2948C089B0F5FA6F06DA2748007881
:1020F000042802D000202349087025498A68254910
:102100000888411C234B1980234941F82020184698
:1021100000880C2802DB002019460880002446E0D5
:10212000408CB5781DAF1544E80000204F9B0E0A87
:10213000B4E3923B50EFE2D6E41A4B448096184B3E
:10214000000024400284FEE471D98945196050BE24
:10215000F6B01F3A81121F2FE727C045037CD8EA4B
:102160009BD0FE460F7AF8B7A595AA38824DC77264
:102170006142334780842E41B1A1162AD3CED24783
:1021800000007A4407000020D8000020060000204C
:102190006C010020080000207C010020FE4850F85F
:1021A0002410284607F003FE0546601CC4B20C2C20
:1021B000F4DBFA4800780C2808DBF949284607F0D8
:1021C00080FEF84988600C20F4490870F549886859
:1021D000FFF754FAF44840684FF47A71B0FBF1F01D
:1021E000F149486070BD70B5EE49C86807F088FFD6
:1021F0000546EC480168284607F031FE0446E948E8
:102200004168204607F05DFEE649886070BD10B564
:10221000E648C0890A2802DA0A20E449C881E3496D
:10222000C88907F06DFFDF494860E148E149097856
:1022300050F82100DB49C860FFF7D5FF10BD2DE93C
:10224000F0410024012717E2012FFCD100270E2CBA
:1022500015D2DFE804F0071524494A4B4C4D9F4E38
:10226000BFC0C1C2D44D2888401CD44988800920F1
:102270000881012048810020887101208881CEE0FA
:10228000CD4DAD1CCE48CD490860288888800320FC
:10229000088100204881887101208881BFE0C648FC
:1022A000408838B1012804D0022805D0032819D16C
:1022B00001E017E000BF00BFBF488088012802DDB1
:1022C0000021BD488180BC4D2D1DBE48BB49086022
:1022D0002888888001200881002048818871012099
:1022E000888100BF00BF9AE000BF00BF00BF00BFF1
:1022F00000BFB148408838B1012804D0022805D079
:10230000032845D101E043E000BF00BFAA48801D7B
:1023100000EB4400851FA8488088E0B9AA48A74977
:10232000086028888880601EA84931F82000A349E9
:102330000881601EA54901EB800040889F494881C3
:10234000E01EA34911F810009C498871A14830F89B
:10235000140088811BE09C48984908602888888080
:10236000601E9D4931F8200094490881601E9A49F9
:1023700001EB8000408891494881E01E944911F8A2
:1023800010008E498871934830F81400888100BF8E
:1023900000BF44E08848008A012802DD0021864809
:1023A0000182854D10358D488449086028888880D1
:1023B000601E864931F8200080490881601E8349EB
:1023C00001EB800040887D49488100208871012010
:1023D000888124E000BF00BF00BF7748801D00EB6C
:1023E0004400851F7E487549086028888880601EE3
:1023F000764931F8200071490881601E734901EB6C
:10240000800040886D494881E01E714911F8100034
:102410006A4988716F4830F81400888100BF00BF96
:102420002046FEF72FFE0E2C76D2DFE804F00711CF
:102430001B252F39434D57616B7677780A20694900
:102440000870002048705D48FEF7F5FE804671E098
:10245000082064490870002048705848FEF724FDA1
:10246000804667E00A205F490870002048705348A2
:10247000FEF71AFD80465DE00A205A4908700020E8
:1024800048704E48FEF7D7FE804653E00720554976
:102490000870002048704948FEF7CDFE804649E0AC
:1024A000072050490870002048704448FEF7C3FEDA
:1024B00080463FE007204B490870002048703F48A5
:1024C000FEF7B9FE804635E0082046490870002036
:1024D00048703A48FEF7AFFE80462BE0072041499E
:1024E0000870002048703548FEF7DEFC804621E089
:1024F00007203C490870002048703048FEF79BFEDA
:10250000804617E00A2037490870002048702B48A1
:10251000FEF791FE80460DE00BE000BF00BF0820F3
:1025200030490870002048702448FEF784FE804639
:1025300000E000BF00BF44B920488088401E2880CA
:1025400006F0DDFFFEF735FA02E01C48808828809F
:10255000B8F1680F72D009DCA8F1610007286ED2CB
:10256000DFE800F00E6E708888728300A8F1E10049
:1025700008287FD2DFE800F00565677E7E7E7A78E6
:1025800000BF0D484088012802D1012C00D1092448
:1025900009488088012827E07C01002007000020EE
:1025A000000040416C010020E8000020D80000201D
:1025B000ECA9010806000020F4000020C80000205B
:1025C00071AA010863AA0108F6AA010884B00108EB
:1025D000ECB0010802B1010850B001086BAA010873
:1025E0000FAC0108B200002006D1072C04D1601CFA
:1025F000C4B2601CC4B201E0601CC4B2012C1BDD7B
:102600005048408840B1012804D0022807D0032850
:1026100007D103E00E2606E00A2604E000BF0E26DE
:1026200001E00E2600BF00BFB44205DB00240320FA
:102630004549087006F052FF01271CE013E019E03D
:1026400000BF18E000BF16E03E48C088012802D154
:1026500002213C48C18003203B49087006F03EFF40
:1026600006F00AFF07E000BF05E000BF032036497F
:10267000087000E000BF00BF3348007804283FF432
:10268000E3ADBDE8F081704702460B4688B2704763
:1026900010B54FF480732D4A2D492E4803F064FA8B
:1026A0002C4803F08BFA10BDF0B50446059D274673
:1026B0000E4602B9012207FB06FCBCFBF5FC0CFB35
:1026C00003FCBCFBF2F0F0BD30B50246002006E092
:1026D000145C0A2594FBF5F4E3B2441CE0B2884292
:1026E000F6DB30BD70B502460C46002012E0135CEC
:1026F000DD1703EB15752911135CDD1703EB157559
:102700002D11A3EB051501EB810605EB46051554CC
:10271000431CD8B2A042EADB70BD30B50B4601467F
:10272000C41700EB1474C4F30712C41700EB14743D
:102730002411A0EB041402EB820504EB4504E0B283
:1027400030BD0000F400002003000020E4A80108D0
:102750000C1001401C00024070B507F099F807F01A
:102760002CF800214FF0804004F0FAFFFEF713F937
:1027700006F089FE06F087FE06F0C1FE06F093FE25
:1027800006F0CEFEFEF715F9F8480078082802DDBD
:102790000020F649087007F001F906F009FFFEF77E
:1027A000ABF90020F2490870002438E0601CC4B284
:1027B000142C02DD0320EF4908700A2006F0EFFC1C
:1027C0000546682D25D009DCA5F16100072824D233
:1027D000DFE800F01517190E1B1D2000A5F1E10020
:1027E00007281AD2DFE800F00C0E100512141700AB
:1027F00000BF0920DF49087007F0D7F80EE000BFDE
:102800000CE000BF0AE000BF08E000BF06E000BF28
:1028100004E003E000BF142400E000BF00BFD5487F
:1028200000780228C2D006F0AFFF70BD10B55A2064
:10283000D1490870592048705A20D0490870592051
:102840004870CA48008ACE49097860F30411CC4820
:102850000170C648408ACA49097860F30301C84834
:1028600001700078C449C870C5480078C349C87071
:10287000C4480078002867D1C348008870B9C348AD
:102880000078032805D0042807D10020BA498870B1
:1028900003E00120B849887000BF55E0BA480088BD
:1028A00001280ED1B9480078032805D0042807D1A3
:1028B0000620B149887003E00720AF49887000BF47
:1028C00042E0B148008803281DD1B04800780328B1
:1028D00008D0042816D10620A74988700020A749EF
:1028E00088700FE0AA480078012803D10720A24988
:1028F000887006E0A6480078022802D101209F498E
:10290000887000BF20E0A048008802281CD19F48A2
:102910000078032808D0042815D100209649887033
:102920000620964988700EE099480078012802D167
:102930009149887006E096480078022802D1072065
:102940008E49887000BF00BF8E48007820B38E4843
:10295000008810BB8D480078C01E06281CD2DFE816
:1029600000F00F0313070B1700208349887013E052
:102970000220814988700FE003207F4988700BE0B6
:1029800001207D49887007E004207B49887003E0BE
:1029900005207949887000BF1FE07B480088012826
:1029A0001BD17A480078032812D0042804D00628C6
:1029B00006D0072810D107E006206F4988700BE089
:1029C00008206D49887007E009206B49887003E092
:1029D00007206949887000BF00BF6B480088032842
:1029E00003D069480088022812D100240DE0634812
:1029F000015D684805F0CEFA00BF8021654805F00A
:102A000037FB0028F9D0601CC4B20C2CEFDB11E0BE
:102A100000240DE05848015D5E4805F0BBFA00BF98
:102A200080215C4805F024FB0028F9D0601CC4B26A
:102A30000C2CEFDB10BD2DE9F04190B0FF260027F4
:102A4000554890F82B00A0B1534890F83000474902
:102A500081F848001E2150482E3007F08AF90020E6
:102A60004D4981F82B0000214B4880F82C1006F0CE
:102A700011FD3E4890F84800002870D1474890F872
:102A80002B0000286CD01C2101A807F072F91C2231
:102A90004249303101A807F053F9404890F82F60BF
:102AA00090F8305000203D4981F82B0000213B4830
:102AB00080F82C10DE2E54D006DCCC2E52D0CE2E38
:102AC00009D0DD2E4FD1AEE1EE2E4DD0F22E4CD0FE
:102AD000F32EF7D1B8E12D4800780B287BD2DFE840
:102AE00000F0067A7A0D14301B22297A37002C4820
:102AF0002CA10A6802600979017173E0284829A1B4
:102B00000A680260097901716CE0254827A10A680A
:102B100002600979017165E0214826A10A68026016
:102B2000097901715EE01E4824A10A6802600979F2
:102B3000017157E01A4823A10A68026009790171FE
:102B400050E0174821A10A6802600979017149E043
:102B5000134818A10A6802600979017142E0F1E2A4
:102B6000EFE273E158E1EBE291E16EE1F400002065
:102B700005000020030000203E0200205202002039
:102B80005400002000000020CC01002004000020A0
:102B90002F000020003801407B0300209402002019
:102BA000400000202D2D2D2D0000000050415353DA
:102BB0000000000048494748000000004C4F5720E3
:102BC0000000000042524B20000000004152432010
:102BD00000000000FFE7FE48FEA10A6802600979D4
:102BE000017100BF00BFFD484088022803D0FB48A8
:102BF000408803287ED1FA48007800287BD1012044
:102C0000F74908702821F74807F0B3F8F64800782C
:102C100040B9F649F34807F0B7F8ED49F14807F035
:102C2000B3F854E0F2480078012816D1EF49ED4896
:102C300007F0AAF8E9484088022804D1E449E948A5
:102C400007F0A2F843E0E548408803283FD1AFF2FF
:102C5000AC01E44807F098F839E0E04840880228E1
:102C60001AD1E248407B3B2806D1E048AFF2C401CC
:102C70000968C0F80E1009E0DC48807B3B2805D1CC
:102C8000DA48AFF2D8010968C0F80F101222D7490C
:102C9000D44807F055F81AE0D0484088032816D1E8
:102CA000D248407B3B2805D1D048C9490968C0F8C3
:102CB0000E1008E0CD48807B3B2804D1CB48C449A6
:102CC0000968C0F80F10C949C64807F05DF8C9A1E6
:102CD000C44807F059F8C849C24807F055F8C44835
:102CE0000078012815D1BD484088022808D1AFF2EC
:102CF0004C1101E053E03AE0BA4807F045F81AE019
:102D0000B6484088032816D1B149B64807F03CF8C8
:102D100011E0B2484088022804D1AD49B14807F01B
:102D200033F808E0AD484088032804D1AFF284119D
:102D3000AC4807F029F8B149AA4807F025F8002463
:102D40000DE0A848015DAE4805F024F900BF8021E0
:102D5000AB4805F08DF90028F9D0601CC4B2272CCF
:102D6000EFDB00209F49C91E81F82B0053E00024AF
:102D70000DE09C48015DA24805F00CF900BF8021E0
:102D80009F4805F075F90028F9D0601CC4B2272CC3
:102D9000EFDB00209349C91E81F82B003BE09048EF
:102DA000007830BB01208E49087028218D4806F03C
:102DB000E0FF0E228D498B4806F0C2FF8449894806
:102DC00006F0E2FF8D49874806F0DEFF00240DE0A3
:102DD0008448015D8A4805F0DDF800BF80218848FD
:102DE00005F046F90028F9D0601CC4B2142CEFDBC2
:102DF00011E000240DE07B48015D814805F0CAF830
:102E000000BF80217E4805F033F90028F9D0601C0E
:102E1000C4B2142CEFDB94E100207A49087005203D
:102E2000794908708DE178480078062808D1032098
:102E30006D49087007207449087006F0A0FC02E094
:102E40000320714908707CE17BE17AE135B1012D05
:102E500008D0102D0AD0112D10D10BE000205F49B1
:102E600048800CE001205D49488008E002205B4971
:102E7000488004E003205949488000E000BF00BFBB
:102E800006F0FAFA06F02AFBFDF753FE59E19DF829
:102E90000500401E51490870AC2D04D0AD2D6FD0F7
:102EA000DC2D6ED172E000214C4881809DF8070036
:102EB0000121FFF732FC80469DF806000121FFF753
:102EC0002CFC00EBC00101EB001008EB8001434833
:102ED000C1809DF809000121FFF71FFC80469DF885
:102EE00008000121FFF719FC00EBC00101EB001005
:102EF00008EB8001394801819DF80B000121FFF7A3
:102F00000CFC80469DF80A000121FFF706FC00EB4F
:102F1000C00101EB001008EB8001304841819DF8B1
:102F20000D000121FFF7F9FB80469DF80C000121FF
:102F3000FFF7F3FB00EBC00101EB001008EB800191
:102F4000264881819DF80F000121FFF7E6FB8046AE
:102F50009DF80E000121FFF7E0FB00EBC00101EB43
:102F6000001008EB80011D48C1819DF810104182BE
:102F70009DF81100502805D100211848018204E075
:102F800089E0D5E0012115480182D1E001211348F3
:102F900081809DF80700FFF7C0FB80469DF8060082
:102FA0000121FFF7BAFB00EBC00101EB001008EBB9
:102FB00080010A48C1809DF809000121FFF7ADFB9F
:102FC00080469DF808000121FFF7A7FB1EE00000E6
:102FD000400000205445535400000000F40000203D
:102FE0004A00002097020020040000200202002076
:102FF000490000203B0000002A0200204C00002075
:10300000003801402F0000200300002000EBC00129
:1030100001EB001008EB8001F74801819DF80B00DF
:103020000121FFF77AFB80469DF80A000121FFF796
:1030300074FB00EBC00101EB001008EB8001EE48CF
:1030400041819DF80D000121FFF767FB80469DF847
:103050000C000121FFF761FB00EBC00101EB001048
:1030600008EB8001E44881819DF80F000121FFF702
:1030700054FB80469DF80E000121FFF74EFB00EB4C
:10308000C00101EB001008EB8001DB48C1819DF815
:10309000101041824CE09DF807000121FFF73DFB35
:1030A00080469DF806000121FFF737FB00EBC001C9
:1030B00001EB001008EB8001CF4881829DF80900E8
:1030C0000121FFF72AFB80469DF808000121FFF748
:1030D00024FB00EBC00101EB001008EB8001C648A7
:1030E000C1829DF80B000121FFF717FB80469DF878
:1030F0000A000121FFF711FB00EBC00101EB0010FA
:1031000008EB8001BC4801839DF80D000121FFF709
:1031100004FB80469DF80C000121FFF7FEFA00EB4E
:10312000C00101EB001008EB8001B348418300BFF0
:1031300000BF06F0A1F906F0D1F9FDF7FAFC00E0B6
:1031400000BFE7E0AC4890F848000128F9D1AB484F
:1031500090F82B0088B11E22A8492E3108A806F04D
:10316000EFFD9DF822709DF823600020A34981F8AF
:103170002B000021A14880F82C1026B1012E4BD045
:10318000022E48D158E0022F2CD19DF8240054285B
:1031900009D100209A49087005209A490870012039
:1031A0009949087037E09DF82400522813D19548BA
:1031B000007806280BD10320944908700720914914
:1031C000087006F0DCFA01208F49087023E0032024
:1031D0008C4908701FE09DF8240053281BD1FFF78D
:1031E00025FB18E0032F16D19DF82400742812D176
:1031F0000020834908709DF825007F49087006F07B
:103200003BF903207F49087006F079F9FDF7D1FBFF
:1032100005207C4908707CE09DF824007649087000
:1032200006F02AF903207749087006F068F9FDF7DF
:10323000C0FBFDF77EFC6CE09DF82400744908702B
:103240000846007880096C49488071480078C0F3CE
:103250004011694881806E480078C0F300116648CB
:1032600001826B48007800F00F01634841829DF8AD
:10327000251081829DF827009DF8261000EB012083
:1032800081B25D48C1809DF829009DF8281000EBAF
:10329000012081B2584801819DF82B009DF82A1029
:1032A00000EB012081B2544841819DF82D009DF82A
:1032B0002C1000EB012081B24F4881819DF82F0036
:1032C0009DF82E1000EB012081B24B48C1819DF882
:1032D00031009DF8301000EB012081B24648C182D8
:1032E0009DF833009DF8321000EB012081B2424876
:1032F00001839DF835009DF8341000EB012081B268
:103300003D48418306F0B8F806F0E8F8FDF711FCF7
:1033100000BF00BF10B0BDE8F08170B500203B4990
:103320000870FDF706FC06F05BF906F008FA0020CD
:10333000334908709CE0374890F82B0008B1FFF73C
:103340007AFB0A2005F02BFF0446662C73D008DCBC
:10335000A4F1610005286FD2DFE800F010142D47BA
:103360006500E62C7AD004DC672C78D0682C7DD1FF
:103370006AE0E72C74D0E82C78D166E0042021497B
:10338000087074E024480078A0B91B480078401CFD
:103390001949087008460078082801DD00200870E7
:1033A00006F0ADF8FDF705FB06F066F806F036F816
:1033B000FDF7BFFB5BE018480078A8B90E4800781D
:1033C00028B10D480078401E0B49087002E0082023
:1033D0000949087006F093F8FDF7EBFA06F04CF88F
:1033E00006F01CF8FDF7A5FB41E00B480078A8B1FA
:1033F00009480078401E12E0F400002094020020EA
:103400002F000020030000204800002004000020BE
:10341000540000207B030020050000200320C5B2DB
:10342000FD48057023E0FC480078032807DAFA48D5
:103430000078401C04E010E018E00FE00FE00020EE
:10344000C5B2F548057012E000BF0520F3490870C9
:103450000020F34908700AE002E000BF00BF00BF8F
:103460000020ED490870EE49087000E000BF00BF81
:10347000EA48007803283FF45EAF70BD10B5FEF750
:10348000DEFE10BD10B513E00020E6490870E649E5
:103490000870E349087006F057F800214FF08040AB
:1034A00004F05EF90120E14908700620DB4908704C
:1034B000DA4800780528E7D010BD10B5002006F0E6
:1034C00043F800214FF0804004F04AF96420FCF7F3
:1034D000F0FE06F0CFF810BD2DE9FC5F0120D349C6
:1034E0000870D348B0F802808088C0B20090D048FD
:1034F0008088D049097860F34511CE480170CC48E6
:10350000408AC0B20190002006F025F8B8F1000F03
:103510002ED10020C8490870C548C08800EB800043
:103520004FF6FF7101EA4005C1488089012801D1A9
:10353000022601E0BE4886892C460327F020BF49B9
:10354000088040F6D860BE4908809DF8000038B970
:10355000BC4800884443B648808BB4FBF0F4CBE011
:10356000B84840884443B248008CB4FBF0F4C3E050
:10357000B8F1010F1DD14FF4B470B049088040F686
:10358000D860AF4908800120AB4908700026A848E0
:10359000808A00EB80004FF6FF7101EA40052C465F
:1035A0000527A84880884443A148808CB4FBF0F4E8
:1035B000A2E0B8F1030F4FD19D48808A00EB800054
:1035C0004FF6FF7101EA400599488089012801D131
:1035D000022601E0964886892C469B480078A0B9CF
:1035E0004FF4B4709549088040F6D860944908803B
:1035F000012091490870052700269248808844439D
:103600008B48808CB4FBF0F476E0F0208B49088086
:1036100040F6D8608A4908800020874908708448AD
:10362000C08800EB80004FF6FF7101EA40052C4690
:1036300003279DF8000038B98248008844437C483D
:10364000808BB4FBF0F457E07E48408844437848D0
:10365000008CB4FBF0F44FE07B48007870BBF020A6
:103660007649088040F6D86075490880704880899E
:10367000012801D1022601E06D4886896C48C08886
:1036800000EB80004FF6FF7101EA40052C4603274E
:103690000020694908709DF8000038B96948008821
:1036A00044436348808BB4FBF0F425E065484088D0
:1036B00044435F48008CB4FBF0F41DE04FF4B47059
:1036C0005E49088040F6D8605D4908800026584869
:1036D000808A00EB80004FF6FF7101EA40052C461E
:1036E00005270120544908705648808844435048B3
:1036F000808CB4FBF0F400BFDFF8349109F11C09B1
:103700004FF00B0BDFF844A14FF02C0B002705E026
:1037100019F8010B0AF8010B781CC7B25F45F7DBFB
:1037200000204B4908604B4908804B4908604B49D1
:1037300008804B4908704B4908804B4908804B4929
:1037400008704B4908804B4908804B490870002796
:1037500008E00020494921F81700494921F81700DD
:10376000781CC7B2082FF4DB42490C80002E45D0EC
:1037700001203E4908703F480488B4FBF6F43A49FA
:103780000C800488B4FBF6F006FB104435490C802D
:1037900035480088012831DA0A2034490870354854
:1037A000048804EB84004400B4FBF6F42E490C803A
:1037B0003048048804EB84004400B4FBF6F006FBB8
:1037C000104428490C8028480088012816DA642013
:1037D000264908702748048804EB84004400B4FBA1
:1037E000F6F421490C802348048804EB840044004B
:1037F000B4FBF6F006FB10441A490C80B8F1000F38
:1038000049D0B8F1010F3DD0B8F1020F7AD0B8F12C
:10381000030F78D15DE000000500002003000020C8
:10382000000000201B0000201C00002004000020DD
:10383000F4000020540000202E0000203000002062
:1038400032000020340000202F000020D60100208C
:103850000C0000201E00002014000020200000208A
:103860002200002024000020260000202800002044
:103870002A0000202C00002001000020AC010020C4
:10388000BC01002005F0B2FF022005F0E8FF022095
:10389000FE49087078E09DF8000048B105F0A6FFE9
:1038A000022005F0DCFF9DF8040005F054FE0FE057
:1038B00005F0B8FFF648008A18B1012005F0CFFFE7
:1038C00002E0002005F0CBFF9DF8040005F043FE68
:1038D0005AE0F048007840B905F088FF022005F072
:1038E000BEFF0220E94908701EE09DF8000058B1B3
:1038F00005F07CFF022005F0B2FF9DF8040005F002
:103900002AFE11E011E03AE005F08CFFE048008A61
:1039100018B1012005F0A3FF02E0002005F09FFF91
:103920009DF8040005F017FE2EE0DA480078E8B9AB
:103930009DF8000048B105F059FF022005F08FFF07
:103940009DF8040005F007FE18E005F06BFFD04875
:10395000008A18B1012005F082FF02E0002005F086
:103960007EFF9DF8040005F0F6FD07E005F03EFF40
:10397000022005F074FF0220C449087004E007200B
:10398000C5490870BDE8FC9F00BF002005F0DCFDC4
:103990000121880703F0E4FE05F0ECFE0020BF499A
:1039A000087008460078FDF730FA05F0C8FE05F00B
:1039B00017FE05F047FE0820B9490870022048703C
:1039C000162008700220487000200870B548007862
:1039D00000EB4000202101EBC000B14948700020FD
:1039E0000870B048007800EB4000C00020304870FC
:1039F000B8F1000F09D0B8F1010F07D0B8F1020FEC
:103A000005D0B8F1030F04D102E000BF02E001E0ED
:103A100000E000BF00BF0020A1490870FDF77FF85B
:103A200000BFAFE710B55A209F4908705920487071
:103A30005A209E490870592048709548008A9C4930
:103A4000097860F304119A4801709148408A9849B6
:103A5000097860F303019648017000789249C870B4
:103A6000934800789149C87092480078002867D13F
:103A70009148008870B985480078032805D004284B
:103A800007D100208849887003E0012086498870AA
:103A900000BF55E08848008801280ED17B48007897
:103AA000032805D0042807D106207F49887003E049
:103AB00007207D49887000BF42E07F4800880328C6
:103AC0001DD172480078032808D0042816D106209A
:103AD000754988700020754988700FE06D4800783E
:103AE000012803D107207049887006E069480078F2
:103AF000022802D101206D49887000BF20E06E4885
:103B0000008802281CD161480078032808D00428C6
:103B100015D10020644988700620644988700EE041
:103B20005C480078012802D15F49887006E0594856
:103B30000078022802D107205C49887000BF00BFCE
:103B40005C48007828B35C480088022822D14F489E
:103B50000078C01E06281CD2DFE800F00F03130710
:103B60000B1700205049887013E002204E498870DE
:103B70000FE003204C4988700BE001204A4988700F
:103B800007E004204849887003E005204649887012
:103B900000BF1FE04848008803281BD13B4800783D
:103BA000032812D0042804D0062806D0072810D1F4
:103BB00007E006203C4988700BE008203A498870ED
:103BC00007E009203849887003E0072036498870EB
:103BD00000BF00BF00240DE03348015D374804F00A
:103BE000D9F900BF8021354804F042FA0028F9D005
:103BF000601CC4B20C2CEFDB10BD38B53048006837
:103C0000B0F5805F03D340F6FF702D4908602D4862
:103C10000088B0F5805F03DB40F6FF70294908801B
:103C200025480088002879D0012804D0022873D0C4
:103C3000032872D1BDE124484089214A00901268CE
:103C400093B2164A1278D21D1F4D05EB820251889D
:103C5000124A1278D21D35F822001A4A1288FEF74D
:103C600023FD044619490C6008460068B0F5617FE1
:103C700031D928464089124A0090126893B22A46E8
:103C8000518D108D0F4A128822E0000004000020A0
:103C9000F40000202F000020030000200600002078
:103CA000B20000201C0000203E0200205202002032
:103CB0005400002000000020CC010020003801400A
:103CC0000C0000201E000020D6010020140000205F
:103CD000FEF7EAFC0446FE480460FE48006800EB7C
:103CE00080004400FC4800894443FB484089B4FB01
:103CF000F0F40A20B4FBF0F100FB1140042800D9D5
:103D00000A340A20B4FBF0F4A0B20A2190FBF1F0CF
:103D1000F04908602EE201E07DE02AE2EF480088E9
:103D200000EB80004400EE488088C8BBED48007876
:103D3000C01CE94931F820004443EA480078C01C1F
:103D400001EB80004088B4FBF0F40A20B4FBF0F1F2
:103D500000FB1140042800D90A340A20B4FBF0F417
:103D6000E149CC81DB48006800EB80004400DA4880
:103D700000884443D8484088B4FBF0F40A20B4FBE0
:103D8000F0F100FB1140042800D90A340A20B4FBEA
:103D9000F0F4A0B20A2190FBF1F0CE49086039E0BE
:103DA000FFE7D0480078401DCB4931F8200044435C
:103DB000CC480078401D01EB80004088B4FBF0F453
:103DC0000A20B4FBF0F100FB1140042800D90A34AA
:103DD0000A20B4FBF0F4C449CC81BE48006800EB73
:103DE00080004400BC4880884443BB48C088B4FB82
:103DF000F0F40A20B4FBF0F100FB1140042800D9D4
:103E00000A340A20B4FBF0F4A0B20A2190FBF1F0CE
:103E1000B0490860AEE1B548007800287DD1AF48D0
:103E2000008800EB80004400AD488088C8BBAD48E6
:103E30000078C01CA84931F820004443A948007804
:103E4000C01C01EB80004088B4FBF0F40A20B4FBF6
:103E5000F0F100FB1140042800D90A340A20B4FB19
:103E6000F0F4A149CC819B48006800EB800044003D
:103E700099480088444398484088B4FBF0F40A20ED
:103E8000B4FBF0F100FB1140042800D90A340A20E9
:103E9000B4FBF0F4A0B20A2190FBF1F08D49086068
:103EA00086E0FFE78F480078401D8B4931F82000FD
:103EB00044438C480078401D01EB80004088B4FBEF
:103EC000F0F40A20B4FBF0F100FB1140042800D903
:103ED0000A340A20B4FBF0F48349CC817D480068A1
:103EE00000EB800044007C48808844437A48C088C6
:103EF000B4FBF0F40A20B4FBF0F100FB11400428FD
:103F000000D90A340A20B4FBF0F4A0B20A2190FBD5
:103F1000F1F0704908604BE0FFE76F4840896D4A57
:103F20000090126893B26F4A1278D21D6A4D05EB69
:103F3000820251886B4A1278D21D35F82200674AF6
:103F40001288FEF7B1FB044661490C600846006820
:103F5000B0F5617F0DD9284640895E4A009012680D
:103F600093B22A46518D108D5C4A1288FEF79CFB55
:103F70000446574804605748006800EB800044003E
:103F800055480089444354484089B4FBF0F40A2062
:103F9000B4FBF0F100FB1140042800D90A340A20D8
:103FA000B4FBF0F4A0B20A2190FBF1F0494908609B
:103FB000E0E04E480078E8BB47484089454A009019
:103FC000126893B2474A1278D21D434D05EB820224
:103FD0005188444A1278D21D35F822003F4A12888F
:103FE000FEF762FB04463A490C6008460068B0F5EB
:103FF000617F0DD928464089364A0090126893B2F5
:104000002A46518D108D354A1288FEF74DFB044625
:104010002F4804602F48006800EB800044002E48C1
:10402000008944432C484089B4FBF0F40A20B4FBD7
:10403000F0F100E00EE000FB1140042800D90A3442
:104040000A20B4FBF0F4A0B20A2190FBF1F0214960
:1040500008608DE02148008800EB80004400204883
:10406000808898BB1F480078C01C1B4931F820008D
:1040700044431C480078C01C01EB80004088B4FB1E
:10408000F0F40A20B4FBF0F100FB1140042800D941
:104090000A340A20B4FBF0F41349CC810D480068BF
:1040A00000EB800044000C48008844430A484088E4
:1040B000B4FBF0F40A20B4FBF0F100FB114004283B
:1040C00000D90A340A20B4FBF0F411E017E0000034
:1040D000140000200C000020D60100201E0000204B
:1040E000F400002006000020D80000202F0000204F
:1040F000A0B20A2190FBF1F0F749086038E0F748D8
:104100000078401DF64931F820004443F348007818
:10411000401D01EB80004088B4FBF0F40A20B4FBA2
:10412000F0F100FB1140042800D90A340A20B4FB46
:10413000F0F4EC49CC81E848006800EB80004400D2
:10414000E74880884443E648C088B4FBF0F40A207E
:10415000B4FBF0F100FB1140042800D90A340A2016
:10416000B4FBF0F4A0B20A2190FBF1F0DA49086048
:1041700000E000BF00BF38BD0CB5DB480078082860
:1041800004DAD9480078401CD7490870072001900C
:104190000EE09DF80400401ED44931F810009DF84F
:1041A000042021F812009DF80400401EC0B20190C6
:1041B0009DF804000028ECDCC7480068CB49088063
:1041C00000200090C8480078019007E0C7489DF89B
:1041D000041030F811000099084400909DF8040084
:1041E000411EC9B201910028F0D1BF490978009859
:1041F000B0FBF1F00090009880B2B749086007204A
:1042000001900EE09DF80400401EB94931F81000FD
:104210009DF8042021F812009DF80400401EC0B251
:1042200001909DF804000028ECDCB2480088B049F9
:10423000088000200090AC480078019007E0AC486E
:104240009DF8041030F811000099084400909DF882
:104250000400411EC9B201910028F0D1A249097899
:104260000098B0FBF1F00090A249009808800CBDC6
:104270000EB500200190009002900EE005F074F958
:1042800001990844019005F075F9009908440090DF
:104290009DF80800401CC0B202909DF8080010284C
:1042A000ECDB0198C0F30F108B4908600098C0F355
:1042B0000F10904908800EBD2DE9F04F8BB04FF0E4
:1042C000000B0020049003900290019082468A48DF
:1042D00040888A4908800846008805287ED2DFE8A1
:1042E00000F01703673898008548007820F0C00078
:1042F0004030834908708048C08A8049C8807E4821
:10430000008B08817C48408B48800220099087E020
:104310007B48007820F0C000794908707648008911
:104320007649C8807448408908817348C0894880AC
:1043300071488089012802D10220888003E06E48FC
:1043400080896E4988806C4880880090012009909F
:1043500066E06B48007820F0C000C0306849087003
:104360006848007860B96448C08A6449C880624877
:10437000008B08816048408B48800220099016E03D
:10438000012009905C4800895C49C8805A484089EE
:1043900008815948C089488057488089012802D13E
:1043A0000220888003E0544880895449888037E09F
:1043B0005348007820F0C0008030514908705148BF
:1043C0000078C8B9012009904B4800894B49C88042
:1043D0004948408908814848C08900E01AE048807F
:1043E00045488089012802D10220888010E0424897
:1043F0008089424988800BE0022009903E48C08AAB
:104400003E49C8803C48008B08813B48408B48802F
:1044100006E005E007203C4908700BB0BDE8F08FCE
:1044200000BFFFF759F80020079008900690374921
:1044300008602C490881364908809DF824002749E6
:1044400008700978334A12781144C8B2FCF7DDFCD1
:1044500001F0B4B9002030490870304800780128D4
:104460007ED100202D4908704FF0010BBDF82000CF
:1044700042F20F71884204DABDF82000401C80B27D
:10448000089027480078012852D19DF81C00401C54
:10449000C0B207909DF81C0022490978884208DBC9
:1044A000002007901A4800881F49098808441849C5
:1044B00008800C4800891149898888420BDB00205C
:1044C00008490881194800881149088002201449C8
:1044D0000870012004909AE00C00002006000020E3
:1044E000D6010020D800002022000020AC010020CE
:1044F000BC0100201E000020F4000020CC010020A0
:10450000540000202F000020030000201000002095
:104510002A0000202E0000204A0000200100002078
:104520000400002028000020260000202C0000208D
:10453000FD480088FD490880FD484088002866DD68
:10454000FC480089FA494988884260DBF8480088BD
:1045500080B1F7480088022804D1F748007800E0CD
:1045600072E038B1F248008803282AD1F248007876
:10457000012826D1F149C88805F0C7FD0646F04A52
:10458000F04B05F0DCFC04460D46EF48006805F0F2
:10459000BCFD804622462B4605F004FE08D20120D1
:1045A00003900720E94908700320E94988702EE04C
:1045B0000720E84908700420E449087001200490AD
:1045C00025E0DE49888A05F0A0FD0646DC4ADD4B81
:1045D00005F0B5FC04460D46DB48006805F095FD86
:1045E000804622462B4605F0DDFD08D201200390CF
:1045F0000720D64908700320D549887007E00720B6
:10460000D44908700420D149087001200490C7489B
:10461000008804F099FF9DF81800401CC0B2069075
:104620009DF81800092190FBF1F201FB1200C0B2C5
:1046300006909DF81800052802DA04F04AFC01E013
:1046400004F043FCFCF7BCF8FFF712FEFFF794FD03
:10465000FFF7D3FAC0480088C0490988884204DDC2
:1046600001200290002001900DE0BB480088BC4969
:104670000988884204DA012001900020029002E0BB
:104680000020029001904FF0000AB64800789DF893
:104690002410884209DA0198012806D1B14800782F
:1046A000401CB04908704FF0010AAE48007800285D
:1046B00009DD0298012806D1AA480078401EA949C0
:1046C00008704FF0010ABAF1010F1FD10020A6496E
:1046D00008700A900AE00020A4499DF8282021F8DB
:1046E00012009DF82800401CC0B20A909DF82800D6
:1046F0000828F0DB9B4909789D4A12781144C8B21A
:10470000FCF783FB3220FBF7D4FDC4E08848008827
:1047100030B1012824D002287CD0032879D138E098
:1047200090480078012806D18248C0890A2190FB70
:10473000F1F08049C881BDF80000012803D140F2A2
:104740002620059002E04FF4966005907948C089D4
:104750000599884203D948F29F607649C88199E05B
:104760007D48008840B1834800688349884206D963
:1047700008468049086002E07F487E490860BAF137
:10478000000F05D16B480089062801DB012003904A
:1047900080E069480078C0B96F48008840B175482A
:1047A00000687549884206D908467249086002E0E7
:1047B000714870490860BAF1000F28D15D4800893E
:1047C000062824DB0120039021E0664800780128B8
:1047D00006D15848C0890A2190FBF1F05549C8819B
:1047E0004FF496600590BDF80000012803D140F217
:1047F0002620059002E04FF4966005904D48C08950
:104800000599884203D948F29F604A49C88141E02E
:1048100000E03EE04848007810BB5248007801288C
:1048200006D14448C0890A2190FBF1F04149C88172
:104830004FF496600590BDF80000012803D140F2C6
:104840002620059002E04FF4966005903948C08913
:10485000059988421CD948F29F603649C88117E003
:104860003D48008840B1434800684349884206D922
:1048700008464049086002E03F483E490860BAF1F6
:10488000000F05D12B480089062801DB0120039089
:1048900000E000BF00BF2D48007802286ED10398C9
:1048A0000128FBD1BAF1000FF8D12148008830B1BE
:1048B000012864D0022874D0032873D19BE01D48DE
:1048C000C08905901A48C0880599884220D21B48A3
:1048D000808850B90598B0F5966F03D90A201B4916
:1048E000087002E0062019490870144880880128E1
:1048F0000BD141F288310598884203D90A20134927
:10490000087002E0062011490870022010498870E2
:10491000074800890599884205D907200B49087086
:1049200003200B4988705DE12C0000202A00002044
:10493000CC010020D80000202F000020F40000202F
:104940009A9999999999E93F0C0000200400002058
:104950003E020020030000201E0000203200002044
:10496000300000200600002022000020BC010020B2
:104970002E000020140000209F86010033E1F8483B
:1049800000680590F748007820B101280BD0022874
:1049900015D10EE04FF47A710598B0FBF1F0059057
:1049A0000EE0A3E01DE164210598B0FBF1F0059055
:1049B00006E00A210598B0FBF1F0059000E000BF89
:1049C00000BFE948C0880599884208D2E648C088F7
:1049D00028B10620E54908700820E5498870E248BA
:1049E00000890599884205D90720E0490870092007
:1049F000DF498870F6E0DF48007870BBD84800686F
:104A00000590D848007820B1012809D0022813D198
:104A10000CE04FF47A710598B0FBF1F005900CE0D2
:104A200064210598B0FBF1F0059006E00A21059895
:104A3000B0FBF1F0059000E000BF00BFCA48C0889D
:104A4000059988420AD2C848C08838B10620C749AB
:104A500008700820C649887003E012E00620C449A7
:104A60008870C14800890599884206D90720BF4946
:104A700008700920BE49887037E00620BC4988705C
:104A800033E0BD48C0890590B748C0880599884281
:104A900020D2BA48808850B90598B0F5966F03D9EE
:104AA0000A20B249087002E00620B0490870B348F5
:104AB000808801280BD141F288310598884203D9BA
:104AC0000A20AA49087002E00620A84908700220BE
:104AD000AB498870A44800890599884205D9072008
:104AE000A24908700320A64988707BE0A14800789D
:104AF000C0BBA148C08905909B48C08805998842E1
:104B000021D29E48808850B90598B0F5966F03D998
:104B10000A209649087002E00620944908709748D8
:104B2000808801280BD141F288310598884203D949
:104B30000A208E49087002E006208C490870022085
:104B40008B49887002E00020894988708648008976
:104B50000599884207D907208449087003208449B1
:104B600088703DE003E000208149887038E07C488F
:104B7000006805907B48007820B1012809D0022800
:104B800013D10CE04FF47A710598B0FBF1F0059069
:104B90000CE064210598B0FBF1F0059006E00A21D5
:104BA0000598B0FBF1F0059000E000BF00BF6E4833
:104BB000C0880599884208D26B48C08828B1062071
:104BC0006A49087008206E4988706748008905990D
:104BD000884205D90720654908700920684988700E
:104BE00000E000BF00BF6148007806280FD05F4892
:104BF000007807280BD05D480078052807D05B486F
:104C00000078082803D0594800780A2809D10120E3
:104C10005C49087007205C4908704FF0010B0120C7
:104C20000490BBF1010F7DD14FF0000B00205749DC
:104C30000870012048704C48008830B1012872D0BB
:104C4000022871D0032870D1F8E04C48C088504940
:104C5000096888420DD94948C0884D490968401AF9
:104C6000022813D84548C0884949086001200390AC
:104C70000CE04248C08846490968081A022805D84D
:104C80003E48C088424908600120039040490968B5
:104C900088B2012303220221FBF7A1FE3D4804F064
:104CA000E2FB14213C4805F064F801203B49087000
:104CB000394838490968016039A105F065F8344878
:104CC0000068000A2A4908713148006848710920C3
:104CD0002E4908702849C889002304220221FBF7C5
:104CE0007EFE2548C089B0F57A7F0EDA29484078E3
:104CF000284908700846807848700846C07888704F
:104D000008460079C870002008712249224805F041
:104D10003BF81648007808285FD0144800780A2825
:104D20005BD003E0F9E377E23BE3F7E3194804F0F3
:104D30009AFB184805F0C1FD06460022194B05F004
:104D4000FEF8044605F05EFA174908600A48C08973
:104D5000B0F57A7F2CDA15A004F072FB2BE000008E
:104D60001400002006000020CC01002004000020D8
:104D70003E0200202F000020D8000020F400002078
:104D8000520200200000002003000020B20000209A
:104D90000C000020B4000020020200204A00002085
:104DA0006B563B000000594050000020206D410030
:104DB000FAA004F045FBFA480078FA498871F848EF
:104DC0004078C871F64880780872F548C078487213
:104DD000F5A1F64804F0D8FF24E0F54800780A2849
:104DE0000BD1F448F4A10A6802600979017104F05A
:104DF0003AFBF3A004F024FB0EE0ED48007808280D
:104E00000AD1EC48EF490A6802600979017104F09F
:104E10002AFBEBA004F014FB0020E2498871C87162
:104E2000087248720020E8490870E84800890012BA
:104E3000DC498872E5480089C872B1E2E44800782C
:104E4000002870D10120E3490870E348808AE349D3
:104E5000096888420BD9E048808AE0490968401A0D
:104E600002280FD8DC48808ADC4908600AE0DA486A
:104E7000808ADA490968081A022803D8D648808A45
:104E8000D6490860D549096888B201230322022166
:104E9000FBF7A5FDC74804F0E6FA1421D04804F05A
:104EA00068FF0120C8490870CD48C24909680160FF
:104EB000AFF2141104F068FFC8480068000AB9494D
:104EC0000871C648006848710920C6490870C6487C
:104ED000006842F20F71884226D9C448007802283F
:104EE00010D1C14800680A21B0FBF1F084B2C04A79
:104EF000BE480078401C115C012305222046FBF7C8
:104F00006EFD1CE0B84800680A21B0FBF1F084B2E5
:104F1000B74AB6480078401C115C012304222046A1
:104F2000FBF75DFD0BE053E0B14AB04B1B78D15C61
:104F3000AD4A126890B201230422FBF750FDAA4843
:104F40000068AC4988421CD09A4804F08CFA994910
:104F5000A34804F019FF974805F0AFFC044605F09C
:104F600051F98F490860084600788E4988718C484D
:104F70004078C8718A48807808728948C078487239
:104F800016E09DA004F06FFA9DA1954804F0FCFE88
:104F90009D488349086008460078824988718048A6
:104FA0004078C8717E48807808727D48C078487221
:104FB00096A18B4804F0E8FE8448008900127949E4
:104FC000887282480089C87200207F490870E4E036
:104FD0000220804908708048C0888049096888425A
:104FE0000DD97D48C0887D490968401A022813D828
:104FF0007948C08879490860012003900CE0764820
:10500000C08876490968081A022805D87248C088FD
:1050100072490860012003907049096888B2012331
:1050200003220221FBF7DBFC624804F01CFA142186
:105030005E4804F09EFE0120634908705B485D49AC
:1050400009680160AFF2A82104F09EFE6348006881
:10505000000A6F4908716148006848710920614978
:1050600008705A49C889012304220221FBF7B7FCC2
:105070005648C089B0F57A7F0EDA4E4840784D49DF
:1050800008700846807848700846C07888700846DE
:105090000079C870002008714649444804F074FE45
:1050A00043480078082835D0414800780A2831D094
:1050B000404804F0D8F93F4805F0FFFB06460022BF
:1050C000544B04F03CFF044605F09CF8344908605A
:1050D0003E48C089B0F57A7F04DAAFF2303004F090
:1050E000AFF902E02DA004F0ABF92D480078484953
:1050F00088712B484078C871294880780872284800
:10510000C078487228A1294804F03EFE00202E49AC
:10511000087032E0264800780A2812D1254826A1D6
:105120000A6802600979017104F09DF924A004F075
:1051300087F91DA11D4804F027FE002022490870B0
:1051400015E01B480078082811D11A481D490A6843
:1051500002600979017104F086F919A004F070F970
:1051600011A1124804F010FE002017490870002019
:1051700027498871C871087248720E4805F09DFB76
:10518000044605F03FF806490860104800890012FF
:105190001F4988720D480089C872D3E26D41000032
:1051A000500000203E0200206D413B000202002022
:1051B00004000020B40000204F464C2000000000F6
:1051C00020200000C42B01084A000020D800002045
:1051D0002F00002049000020F40000200C000020D7
:1051E0002A020020B2000020140000200600002047
:1051F00075B201089F8601003E3939393900000037
:105200003E3939390000000000401C464D3B00008B
:105210005202002000005940FE48808AFE49096879
:1052200088420BD9FB48808AFB490968401A02284A
:105230000FD8F848808AF84908600AE0F548808A63
:10524000F5490968081A022803D8F248808AF24909
:105250000860F149096888B2012303220221FBF7A3
:10526000BEFBEE4804F0FFF81421ED4804F081FD88
:105270000120EC490870EA48E84909680160AFF28A
:10528000E04104F081FDE4480068000AE649087145
:10529000E148006848710920E4490870E448006862
:1052A00042F20F71884225D9E2480078022810D1D5
:1052B000DF4800680A21B0FBF1F084B2DE4ADD4825
:1052C0000078401C115C002305222046FBF787FB79
:1052D0001BE0D74800680A21B0FBF1F084B2D64A3F
:1052E000D4480078401C115C002304222046FBF7C0
:1052F00076FB0AE0D04ACF4B1B78D15CCC4A1268CF
:1053000090B201230422FBF76AFBC9480068CB492D
:1053100088421CD0C14804F0A6F8C049C04804F037
:1053200033FDBE4805F0C9FA044604F06BFFC449DA
:10533000086008460078BC498871C1484078C87147
:10534000BF4880780872BE48C078487218E0AFF253
:10535000581004F088F8AFF26011B14804F014FD61
:10536000B848B749086008460078AF498871B44822
:105370004078C871B24880780872B148C0784872E5
:10538000AFF27811A64804F0FFFC0020A549087090
:10539000AD4800890012A4498872AB480089C872E0
:1053A000D0E1AA48007800287ED10120A8490870E1
:1053B0009848C0889849096888420DD99548C0889E
:1053C00095490968401A022813D89248C088924922
:1053D0000860012003900CE08E48C0888E4909685F
:1053E000081A022805D88B48C0888B49086001201C
:1053F00003908949096888B2012303220221FBF73F
:10540000EEFA864804F02FF81421854804F0B1FC28
:105410000120844908708248804909680160AFF220
:10542000806104F0B1FC7C480068000A7E49087184
:1054300079480068487109207C4908708249C88908
:10544000012304220221FBF7CAFA7F48C089B0F584
:105450007A7F0EDA71484078704908700846807883
:1054600048700846C078887008460079C8700020E7
:1054700008716A496A4804F087FCAFF2D421684891
:1054800004F082FC00206749087072480078082800
:1054900031D0704800780A282DD0604803F0E3FF2F
:1054A0005E4805F00AFA00E058E0064600226A4B22
:1054B00004F045FD044604F0A5FE61490860624819
:1054C000C089B0F57A7F04DAAFF2207003F0B8FF3C
:1054D00003E0AFF2383003F0B3FF59480078524987
:1054E000887157484078C871554880780872544888
:1054F000C078487229E0574800780A280FD14748F9
:10550000AFF24C310A6802600979017103F0ABFF18
:10551000AFF2543003F094FF11E024E111E14D4863
:10552000007808280BD13D484C490A680260097987
:10553000017103F098FFAFF2783003F081FF002093
:1055400039498871C871087248723F480089001251
:10555000354988723C480089C872F1E002203C4914
:1055600008702C48808A2C49096888420BD9294840
:10557000808A29490968401A02280FD82548808A5C
:10558000254908600AE02348808A23490968081AE7
:10559000022803D81F48808A1F4908601E490968ED
:1055A00088B2012303220221FBF719FA1B4803F0FA
:1055B0005AFF14212A4804F0DCFB01201949087025
:1055C0002748164909680160AFF62C0104F0DCFB9E
:1055D00011480068000A234908710F4800684871A3
:1055E0000920124908701248006842F20F7188427F
:1055F00050D91048007802283BD10D4800680A2194
:10560000B0FBF1F084B20C4A0A480078401C115CEF
:10561000002329E0F40000200C000020B40000204A
:10562000020200204A0000203E020020B2000020BA
:10563000140000200600002075B201089F860100BA
:105640005000002000401C46D80000202F00002001
:10565000490000200400002000005940C42B01082C
:105660002A0200205202002005222046FBF7B7F94B
:105670001BE0FB4800680A21B0FBF1F084B2F94A54
:10568000F9480078401C115C002304222046FBF7F7
:10569000A6F90AE0F34AF44B1B78D15CF04A126891
:1056A00090B201230422FBF79AF9ED480068EF4914
:1056B00088421CD0EE4803F0D6FEED49ED4804F0D8
:1056C00063FBEB4805F0F9F8044604F09BFDEA495A
:1056D000086008460078E9498871E7484078C87151
:1056E000E54880780872E448C078487218E0AFF264
:1056F000F84003F0B8FEAFF20051DE4804F044FB7E
:10570000DF48DD49086008460078DC498871DA48DE
:105710004078C871D84880780872D748C0784872F5
:10572000AFF21851D34804F02FFBD648008900127D
:10573000D2498872D3480089C8720020D2490870C3
:1057400000E000BF00BF0A20D04908700020487068
:10575000CC490889002304220121FBF740F9C44801
:1057600003F081FE00BF03F00FFD0A909DF82800B2
:10577000662814D008DC62280DD063280CD0642879
:105780000BD0652818D109E067280AD0E62807D091
:10579000E72811D106E010E00FE00EE00DE000BFB9
:1057A00000BF00BF0320BA4908700720B94908703C
:1057B00003F0E5FFFEF731BE00BF00BFB54800783B
:1057C00006283EF447AEB4480078401CB249087041
:1057D0000846007801280DD1B0480078012809D189
:1057E000AF480088022803D0AD480088032801D1C3
:1057F000FEF718F903F0C3FF00BFDBE72DE9F04126
:105800000027A8484088C5B2FDF757FEA048007899
:10581000032827D0052D1FD2DFE805F0040309086F
:105820001D0000BF08209B4908701AE000BF9A487D
:10583000007801280BD196480078042803D106206F
:105840009449087006E008209249087002E0082098
:105850009049087005E004E007208E490870BDE813
:10586000F0812CE0052D1CD2DFE805F004030605CD
:105870001A001AE019E018E08748007801280BD1D7
:1058800083480078042803D106208249087006E086
:1058900008208049087002E008207E49087004E072
:1058A00003E007207B490870D9E700BF7B480078F8
:1058B000012804D1FCF7BAFF0020784908700020C5
:1058C000724908704870FBF72AF904F06EF87048C6
:1058D0000078032807D108206C490870022048701E
:1058E00048F29F640CE070480078401C6E490870D4
:1058F0006E480078032803DB082066490870AEE78D
:1059000059E08FB100270E206049087004204870CC
:105910000123042219462046FBF761F8544803F09E
:105920008FFD732003F07EFD0120FAF7E1FC68B1E2
:1059300057480078032809D04C48844206D00127F4
:105940000A210120FAF7D1FC601E84B2012C02DA90
:10595000062050490870052003F021FC0646672EFA
:105960000CD004DC642E07D0652E22D105E0682E11
:1059700018D0E72E1DD102E01CE01BE000BF444818
:10598000007803280AD03948844203D103204149D2
:10599000087006E003203E49087002E003203D49FC
:1059A000087007E000203C4908700620394908705B
:1059B00000E000BF00BF374800780728A1D000BF33
:1059C0004DE770B5012503F055FE364840880228A2
:1059D00003D03448408803280DD13048007801288E
:1059E00012D12D48007802280ED1FCF71FFF0020AD
:1059F0002A49087008E029480078012804D1FCF7FA
:105A000015FF0020254908706FE0012D19D10025F0
:105A100016201E490870022048702548007830B1D1
:105A200003F0AEFD03F08BFE03F0F3FD09E003F09D
:105A3000C3FF17480078042803D103F0D1FD03F019
:105A400063FE022003F0ABFB0446672C44D031DC3C
:105A5000642C36D0652C35D0662C44D13AE0000059
:105A60001400002075B20108060000209F86010086
:105A7000B40000202A020020500000205202002022
:105A800000401C46D80000204A000020B200002040
:105A900004000020030000202F0000204800002008
:105AA000CC010020F40000201C0000201B0000207E
:105AB00000000020682C06D0E62C0CD0E72C12D178
:105AC0000BE011E010E00020234908700520234975
:105AD000087009E000BF07E000BF03201F490870FD
