:020000040801F1
:10000000C80700204501010805030108E7050108AC
:10001000EB050108EF050108F305010800000000E9
:10002000000000000000000000000000F7050108CB
:10003000F905010800000000FB050108FD050108A5
:100040005F0101085F0101085F0101085F0101080C
:100050005F0101085F01010887060108AF0601087A
:10006000BF060108450701085F0101085F0101089B
:100070005F0101085F0101085F0101085F010108DC
:100080005F0101085F0101085F0101085F010108CC
:100090005F0101085F0101085F0101088506010891
:1000A0005F0101085F0101085F0101085F010108AC
:1000B0005F010108FF0501085F0101085F010108F8
:1000C0005F0101085F0101085F0101085F0101088C
:1000D0005F010108070301085F0101085F010108D2
:1000E0005F0101085F0101085F0101085F0101086C
:1000F0005F0101085F0101085F0101085F0101085C
:100100005F0101085F0101085F0101085F0101084B
:100110005F0101085F0101085F0101085F0101083B
:100120005F0101085F0101085F0101085F0101082B
:10013000DFF80CD00AF0CEF800480047890101082A
:10014000C80700200648804706480047FEE7FEE74C
:10015000FEE7FEE7FEE7FEE7FEE7FEE7FEE7FEE777
:10016000BF8801083101010870B504460D46E1B2AF
:10017000264807F055FE00BF8021244807F0BEFE48
:100180000028F9D0204670BD4FF48031C80206F037
:1001900038FD62B602201E49087036E01C4800781F
:1001A0000A282CD2DFE800F02B2805080D121A1DB2
:1001B000202302F0ADFA27E009F076F803F09CF86E
:1001C00022E009F071F803F048F91DE009F06CF83D
:1001D00000201049087003F044F915E004F064F8B9
:1001E00012E005F06DFA0FE005F04DFB0CE009F0B0
:1001F0005BF806F078F807E005F0B6FB04E009F0DC
:1002000053F805F0BFFB00BF00BFC7E7003801404F
:10021000030000200200002010B506F0E5FA4FF4BC
:10022000803006F001FB06F03EFB012820D10020C3
:1002300006F07FFB002006F08EFB4FF4806006F096
:1002400081FB4FF4E0114FF4803006F055FB0120A4
:1002500006F05EFB00BF392006F009FB0028FAD04B
:10026000022006F058FB00BF06F05EFB0828FBD119
:1002700010BD00E0401E0028FCD17047014601EB94
:10028000C1024FF0E0235A6100229A6101221A61F3
:1002900000BF4FF0E022106900F001021AB100F433
:1002A0008032002AF5D000224FF0E0231A619A61D3
:1002B0007047014642F228324A434FF0E0235A6128
:1002C00000229A6101221A6100BF4FF0E0221069FA
:1002D00000F001021AB100F48032002AF5D00022A9
:1002E0004FF0E0231A619A617047054A1154704734
:1002F00001460348405C08B9012070470020FCE734
:1003000019000020704710B540F22551FA4807F057
:100310000BFE00287ED02021F74807F0FCFDF748AF
:1003200090F84800002858D1F54890F82B00002894
:1003300011D10621F24880F84C10EF4807F074FD07
:10034000C4B2EF4890F82C0098B9AA2C04D0002130
:10035000EB4880F82C10B5E0E94890F82C1090F8A4
:100360002C00401CC2B2E64880F82C202E304454A9
:10037000A8E0BB2C1AD1E24890F82C1090F82C0081
:10038000401CC2B2DE4880F82C202E30445401209C
:10039000DB4981F82B00084690F82C1080F82D10CE
:1003A000002180F82C1080F84C108BE0D44890F895
:1003B0002C001E2804DB0021D14880F82C1081E09D
:1003C000CF4890F82C1090F82C00401CC2B2CC48BA
:1003D00080F82C202E30445474E0C84890F848002F
:1003E00001286FD1C64890F82B0000286AD1062159
:1003F000C34880F84C10C04807F016FDC4B2C0488E
:1004000090F82C00A0B9112C05D00021BC4880F830
:100410002C1057E074E0BA4890F82C1090F82C009B
:10042000401CC2B2B64880F82C202E30445449E01B
:10043000B34890F82C00012813D1082C04D00021D7
:10044000AF4880F82C103DE0AD4890F82C1090F8A3
:100450002C00401CC2B2AA4880F82C202E304454F4
:1004600030E0A74890F82C001E2804DB0021A448A7
:1004700080F82C1026E0A24890F82C1090F82C0060
:10048000401CC2B29E4880F82C202E3044542E3896
:1004900090F82C00022815DD994890F82C1090F85F
:1004A0003000C01C81420DD10120954981F82B00FC
:1004B000084690F82C1080F82D10002180F82C10A0
:1004C00080F84C108E4890F82B00012801D102F0E2
:1004D0008EFA8C4890F82B00002875D106218848A8
:1004E00080F84C10844807F09FFCC4B2854890F80F
:1004F0002C0098B9FF2C04D00021824880F82C10E1
:1005000062E0804890F82C1090F82C00401CC2B299
:100510007C4880F82C202E30445455E0794890F8DF
:100520002C00012813D1EE2C04D00021754880F84E
:100530002C1049E0734890F82C1090F82C00401CC7
:10054000C2B2704880F82C202E3044543CE06D48F4
:1005500090F82C00042821D1DD2C04D0002169481A
:1005600080F82C1030E0674890F82C1090F82C00A0
:10057000401CC2B2634880F82C202E304454012025
:10058000604981F82B00084690F82C1080F82D1057
:10059000002180F82C1080F84C1015E0594890F894
:1005A0002C001E2804DB0021564880F82C100BE09C
:1005B000544890F82C1090F82C00401CC2B25148BE
:1005C00080F82C202E3044544FF458714A4807F0DC
:1005D000ABFC38B10821484807F09DFC464807F0BD
:1005E00023FCC4B210BD00BFFEE700BFFEE700BFA2
:1005F000FEE700BFFEE7704770477047704710B5D1
:100600000121414807F0CCFA08F021FD3F4800786D
:1006100006281DD13E480078401C3D490870084618
:10062000007809281ADD0020087001203949087077
:1006300039480089401C3849088138480068401C06
:100640003649086036480068401C3549086005E0B6
:100650002F48007810B100202D490870002409E0CF
:100660003048005D20B12F48005D401E2D490855DF
:10067000601CC4B2022CF3DB2B48007808B909F0E7
:1006800090F810BD704710B50121284805F0F1FF22
:1006900048B91A48408A30B11C480078062802D16F
:1006A000052023490870012006F067FB10BD10B536
:1006B0000120FFF7FEFD022006F05FFB10BD10B524
:1006C0000520FFF7F6FD0421184805F0D2FF90B988
:1006D0000E480078032807D00C480078072803D07C
:1006E0000A480078082827D105200849087000200A
:1006F0001049087022E021E000380140F400002099
:10070000940200207B03002000040040030000202E
:100710003E00002001000020D8000020A80000209A
:1007200010000020190000200000002000140140EB
:10073000040000202F0000200E480078042006F05E
:100740001CFB10BD10B50120FFF7B3FD08210A48BE
:1007500005F08FFF50B907480078062803D107201D
:100760000449087002E0032002490870082006F0DE
:1007700004FB10BD030000200014014010B5002050
:10078000FE490870487008F00EFDFD484088E8B149
:10079000012804D002287DD003286ED13AE0F94820
:1007A00008F094FD0620F549087001204870F6A075
:1007B00008F09FFD0E20F149087001204870F3A059
:1007C00008F097FDF42008F031FDA2E0F048007831
:1007D000012803D1EF4808F079FD03E0ED48C01D82
:1007E00008F074FD0620E549087001204870E448CF
:1007F000808818B1E4A008F07CFD02E0E6A008F0D3
:1008000078FD0E20DD49087001204870E3A008F053
:1008100070FD7EE0E2480078B0B9DA4808F056FD95
:100820000620D649087001204870D7A008F061FD65
:100830000E20D249087001204870D4A008F059FD5C
:10084000F42008F0F3FC24E0D1480078012803D11B
:10085000D04808F03BFD03E0CE48C01D08F036FD4F
:100860000620C649087001204870C548808828B114
:10087000C5A008F03EFD04E00CE049E0C6A008F089
:1008800038FD0E20BD49087001204870C3A008F053
:1008900030FD3EE0C248007818BBBD480078012812
:1008A00003D1BC4808F012FD03E0BA48C01D08F0AF
:1008B0000DFD0620B149087001204870B0488088BD
:1008C00018B1B1A008F015FD02E0B3A008F011FDC9
:1008D0000E20AA49087001204870B0A008F009FD58
:1008E00015E0A84808F0F2FC0620A4490870012091
:1008F0004870A5A008F0FDFC0E20A049087001205A
:100900004870A2A008F0F5FCF42008F08FFC00E08D
:1009100000BF00BF072099490870002048709BA0C5
:1009200008F0E7FC964909783131C8B208F0C0FCFC
:100930000F209249087000204870732008F0BEFC18
:1009400004208E4908700120487096A008F0D1FC60
:1009500010BD8B484A2102E000220270401C0A1E92
:10096000A1F1010399B2F7D18F4B1A7070470020A3
:1009700010E0834A921C02EB40010A888B4B33F84B
:1009800020309A4204DD894A02EB800252880A80B4
:10099000421CD0B20D28ECDB7047F0B504461D4672
:1009A000052A00DD052202B90122042900DD042107
:1009B000914200DD1146002004E020267C4F3E5489
:1009C000461CF0B20828F8D3104611E00A2694FB22
:1009D000F6F706FB17463036F7B2461EDFF8D0C1F1
:1009E0000CF806700A2694FBF6F6B4B2461EF0B276
:1009F0000028EBDC81B11346084605E05E1E6C4F13
:100A0000BE5DFE545E1EF3B2061EA0F10107F8B2F1
:100A1000F4D12E26664FFE54A5B900200EE0644E98
:100A2000365C302E07D1624F461CBE5D2E2E02D0A2
:100A300020263E5400E004E0461CF0B2561E8642DA
:100A4000EDDC00BF09B1561CF2B2104604E00026EE
:100A5000574F3E54461CF0B20828F8D3F0BD10B5ED
:100A6000474890F8480018B9524808F02FFC07E0B2
:100A7000434890F84800012802D14F4808F026FC6E
:100A800010BD10B53E4890F8480020B949481530CF
:100A900008F01CFC08E03A4890F84800012803D10F
:100AA0004548153008F012FC10BD10B543A008F001
:100AB0000DFC10BD10B5002030490870487008F0DA
:100AC00072FBFFF7CCFF00202C4908700120487012
:100AD00008F069FBFFF7D5FF10BD10B52C49097868
:100AE000C1EBC101384A881808F003FC10BD10B5ED
:100AF00023484088032802DD002021494880002047
:100B00001E490870487008F04EFB1D49498801EBEA
:100B100041012E4A02EB410008F0EBFB0720174988
:100B200008700020487016490978481C01231A46AD
:100B30000021FFF732FF15A008F0DBFB1C4808F08E
:100B4000C5FB0F484088012803DD21A008F0BEFB4B
:100B500002E020A008F0BAFB0A2008490870084803
:100B60004088032803D006484088012837D104492B
:100B7000488B0023042201212EE00000B200002057
:100B8000F400002093A80108444300004D00000039
:100B900004000020A1A80108414300006D410000AD
:100BA0002F0000206B5600000200002044AF010817
:100BB000B400002010B00108FBAF01084A616E20AC
:100BC0003133203230323200AEAF010815A90108AE
:100BD0005F00000020000000FFF7DFFE06E0FB4999
:100BE000C889002304220121FFF7D7FEF84808F046
:100BF00080FBF8A008F06AFB0020F749087001208C
:100C00004870F248808840B9F048C088B0F5167F37
:100C100003DD4FF41671ED48C180EC48408801288F
:100C20000AD1EA49888A002303220221FFF7B5FE90
:100C30000121E648818012E0E4484088032807D17A
:100C4000E249888A002303220221FFF7A6FE06E07C
:100C5000DE49C888002303220221FFF79EFEDC48FC
:100C600008F047FBAFF2C40008F030FB1421DB486A
:100C700008F0C5FFD948DAA109680160DAA108F0D7
:100C8000C9FFD2484088032812D1D049C888002320
:100C900003220221FFF781FE1421D44808F0AFFFA0
:100CA000D248CFA109680160CFA108F0B3FF15E0D9
:100CB000C6484088022811D1C449888A00230322EB
:100CC0000221FFF76AFE1421C84808F098FFC748C0
:100CD000C3A109680160C4A108F09CFFBB488088DB
:100CE00040B9BA484088032804D0AFF2541008F045
:100CF000EDFA03E0AFF2701008F0E8FAB34840886C
:100D0000032803D0B148408801282FD10A20B249D6
:100D10000870AE49C88A002304221946FFF73DFE39
:100D2000AB4808F0E6FAAFF29C1008F0CFFAF420D6
:100D300008F07CFAAEA1AD4808F06CFFAEA1AB485C
:100D400008F068FFA148408803283BD19F490889E3
:100D5000002304220221FFF720FEA1A19F4808F0F2
:100D600059FFA6A19D4808F055FF2BE009209A499C
:100D7000087096490889002304220221FFF70DFE1E
:100D8000934808F0B6FAAFF2EC1008F09FFA94A17D
:100D9000924808F03FFF99A1904808F03BFF8B482C
:100DA000408802280ED18949C88A002304220221E2
:100DB000FFF7F3FD8EA18D4808F02CFF8EA18B4824
:100DC00008F028FF10BD70B505468D48047804F082
:100DD0003F0475B1012D09D0022D04D0032D09D196
:100DE00044F0C00409E044F0800406E044F040040C
:100DF00003E002E044F0C00400BF00BF804804707C
:100E00000020804908607E480078C04300067C4985
:100E1000097840EA01207C49086001207B49C1F83B
:100E200090016420FFF745FA70BD70B504460020BC
:100E3000694908704870254604EBD5714910A4EB48
:100E40004101C1EBC10101EB4101714A881808F071
:100E500050FA002060490870012048706D4808F081
:100E600048FA70BDF8B5044601275B4800788DF854
:100E70000000594840788DF80100206808F0D6FE3F
:100E8000C6B2701CC6B2082E00DD082652E067B15B
:100E90009DF80000504908709DF801004870A28834
:100EA000216806FB021008F024FA0A2008F0BDF8B9
:100EB0000546E12D15D009DCA5F16100082837D2DF
:100EC000DFE800F00E201136362E3331A5F1E200B6
:100ED00007282DD2DFE800F017082C2C252A28003F
:100EE00000BF6120F8BD00BF0127A088618988424A
:100EF00003DDA088401EA08003E06089A08008F088
:100F0000A1FC16E000BF0127A088401CA080A0889B
:100F10002189884203DD2089A08008F093FC08E045
:100F200000BF6620DEE700BF00BF00BF6720D9E733
:100F300000BF00BFABE710B504460020264908708B
:100F4000487004EB840101EBC401334A881808F0AF
:100F5000D0F9002020490870012048702F4808F07F
:100F6000C8F910BD10B504460A2094FBF0F100FB4F
:100F70001140C4B234B1012C11D0022C19D0032C71
:100F80005BD14DE0124808F0B4F9202008F090F948
:100F9000562008F08DF9202008F08AF94EE00C4820
:100FA00008F0A7F9202008F083F9732008F080F9F1
:100FB00044E0074808F09DF9202008F079F94D2019
:100FC00008F076F9F42008F073F937E0F400002017
:100FD000B400002073000000B200002002020020D4
:100FE000302E3030000000006B563B002A020020FB
:100FF0002020302E300000004D3B00006D413B00B2
:10100000A50000209081224210140140008022425D
:1010100062AD0108B6AD010834AE01081FAE01088B
:10102000F64808F066F9202008F042F94D2008F053
:101030003FF9F42008F03CF900E000BF00BF10BD0C
:1010400010B504460020EE49087048700E2C13D2EB
:10105000DFE804F007131F63646566676869AAAB7D
:10106000ACADE8A008F045F90020E5490870012082
:101070004870E9A008F03DF9B9E0EBA008F039F9B3
:101080000020DF49087001204870EB4808F031F972
:10109000ADE0EA484088C8B1012804D0022817D042
:1010A000032837D113E0A11EE54A02EB011008F036
:1010B00020F90020D249087001204870611E01EB20
:1010C0000111DD4A881808F014F924E000BF00BFC0
:1010D0000020CB4908704870A11EDA4A02EB0110CB
:1010E00008F007F90020C649087001204870D3486D
:1010F000808838B9A11E01EB0111D34A881808F085
:10110000F8F806E0A11E01EB0111D04A881808F09A
:10111000F0F800E000BF00BF69E000BF00BF00BF03
:1011200000BF00BF00BFC5484088C8B1012804D037
:10113000022817D0032834D113E0A11EC04A02EBC5
:10114000011008F0D6F80020AD4908700120487061
:10115000611E01EB0111B84A881808F0CAF821E0B5
:1011600000BF00BFA11E01EB0111B94A881808F0A9
:10117000C0F80020A249087001204870AF4880885C
:1011800038B9611E01EB0111AF4A881808F0B1F8B7
:1011900006E0611E01EB0111AC4A881808F0A9F8BD
:1011A00000E000BF00BF22E000BF00BF00BFA11EE3
:1011B00001EB0111A64A881808F09BF80C2C01D00D
:1011C0000B2C07D10E208E49087000204870F420A7
:1011D00008F074F800208A49087001204870611EE8
:1011E00001EB01119B4A881808F083F800BF00BF8B
:1011F00010BD2DE9F84304464FF0010980480078FE
:101200008DF800007E4840788DF801000027A07915
:1012100008B9032600E00426A4E1B9F1000F10D0BC
:101220009DF80000764908709DF801004870A38978
:10123000DAB2A179A0880023FFF7AFFB6F4808F06E
:1012400058F80A2007F0F1FE8046B8F1E10F15D0FA
:1012500009DCA8F16100082872D2DFE800F00E9CDA
:10126000127171CECDCCA8F1E2000728F4D2DFE8EC
:1012700000F0FA3F6767F9F8F70000BF6120BDE8AA
:10128000F8834FF00109002773488079C0F103000B
:10129000B04202DA701EC5B200E035466F4830F841
:1012A000150061890844A188884206DCA0886B4942
:1012B00031F81510401AA08019E06089052802D085
:1012C0006089062813D16089062806D1A08810B14C
:1012D0000020A08001E008F0B5FA6089052806D159
:1012E000A08810B10020A08001E008F0ABFA38E13E
:1012F0004FF00109781CC7B257488079C0F103004C
:10130000B04202DA701EC5B200E035461C2F0CDD7B
:10131000002D01DD681EC5B2002D01DD681EC5B2BD
:10132000002D14DD681EC5B211E0132F09DD002D5C
:1013300001DD681EC5B2002D09DD681EC5B206E0DC
:1013400009E10A2F03DD002D01DD681EC5B2434807
:1013500030F8150061890844A188884206DCA0881D
:101360003E4931F81510401AA08013E06089062824
:1013700006D1A08810B10020A08001E008F062FA38
:101380006089052806D1A08810B10020A08001E066
:1013900008F058FAE5E04FF0010900272E4880795F
:1013A000C0F10300B04202DA701EC5B200E035465B
:1013B0006089062802D06089052855D160890628F1
:1013C0000AD1A08810B90620A08005E0A088234992
:1013D00031F815100844A0806089052852D1A088F2
:1013E00010B90520A0804DE0A0881C4931F81510E7
:1013F0000844A08046E0A9E0AAE0A4E0B4000020F0
:10140000B20000204D656D6F72793D2020202020B4
:10141000202020200000000052616E67653A312DC7
:1014200039202020202020005465737420203D2086
:1014300020202020202020002DA90108F4000020D9
:10144000AFA8010882A9010802AA010844AC01085A
:101450009BAA010867AB0108C800002070A801081A
:1014600075E076E070E00EE0A088F84931F81510DC
:101470000844A080A0882189884203DD2089A080BB
:1014800008F0E0F96DE04FF00109781CC7B2F048B0
:101490008079C0F10300B04202DA701EC5B200E0EC
:1014A00035461C2F0CDD002D01DD681EC5B2002D58
:1014B00001DD681EC5B2002D13DD681EC5B210E047
:1014C000132F08DD002D01DD681EC5B2002D08DDDB
:1014D000681EC5B205E00A2F03DD002D01DD681E80
:1014E000C5B26089062802D0608905281CD16089B0
:1014F00006280AD1A08810B90620A08005E0A0889F
:10150000D24931F815100844A0806089052819D106
:10151000A08810B90520A08014E0A088CB4931F83C
:1015200015100844A0800DE0A088C84931F81510B6
:101530000844A080A0882189884203DD2089A080FA
:1015400008F080F90DE000BF662098E600BF08E0D3
:1015500000BF672093E6BF488078012800D00027AD
:1015600000BF00BF59E62DE9F04100250026002705
:10157000B948C08940F6D861884211DD012500BF15
:10158000002405E00020B54941F82400601CC4B2E5
:101590000C2CF7DB0020B2490870B249088009E042
:1015A000AD48C089B0F5B47F02DA0126002501E01C
:1015B000002500260027AC480078002816DD012D04
:1015C00014D1A9480078401EA749087001270024BB
:1015D00005E00020A14941F82400601CC4B20C2C95
:1015E000F7DB00209E4908709E4908809E480078DD
:1015F000042816DA012E14D19B480078401C9A4921
:1016000008700127002405E00020944941F82400D7
:10161000601CC4B20C2CF7DB002091490870914982
:101620000880012F06D190480078FFF7CCFB3220CC
:10163000FEF73FFEBDE8F08101B590B000211098A3
:1016400008F042FD10D2109808F0DFFC0022874B12
:10165000CDE9060108F0B9FBCDE9080108F018FD55
:101660001090012082490870109808F0CEFC814A41
:10167000814BCDE9080108F0DBFC01D211B000BDBF
:10168000109808F0C2FC7D4A7D4BCDE9080108F0B6
:10169000E7FC58D2109808F0B8FC784A784BCDE9AE
:1016A000060108F004FCCDE9080108F0F1FC0E90F9
:1016B00074480D9000200B9026200A903FE0DDE951
:1016C0000D1008F044FB4FF07E51099008F0FCFC2F
:1016D0000ED20D9808F099FC00226B4BCDE9060163
:1016E00008F0E5FBCDE9080108F0D2FC0D9000E020
:1016F00028E00D9808F089FC644A654BCDE90201A9
:1017000008F063FBCDE90601109808F07EFCCDE9F6
:101710000401DDE9062308F0CAFBCDE9080108F061
:101720005BFC0C9052490C9848600A9808720B9820
:10173000401C40B20B900A98401E40B20A900B9891
:101740000428BCDB13E2109808F05FFC514A524BAE
:10175000CDE9080108F084FC58D2109808F055FC37
:101760004C4A4D4BCDE9060108F0A1FBCDE908013B
:1017700008F08EFC0E9049480D9000200B9023201D
:101780000A903FE0DDE90D1008F0E1FA4FF07E51DC
:10179000099008F099FC0ED20D9808F036FC002252
:1017A000394BCDE9060108F082FBCDE9080108F0CC
:1017B0006FFC0D9000E028E00D9808F026FC384AF8
:1017C000384BCDE9020108F000FBCDE90601109885
:1017D00008F01BFCCDE90401DDE9062308F067FBF6
:1017E000CDE9080108F0F8FB0C9021490C984860FD
:1017F0000A9808720B98401C40B20B900A98401E41
:1018000040B20A900B980828BCDB9BE7109808F0C0
:10181000FCFB254A254BCDE9080108F021FC7DD2CF
:10182000109808F0F2FB204A204BCDE9060108F0A1
:101830003EFBCDE9080108F02BFC0E9017480D90F7
:1018400000200B901C200A9074E0000070A8010892
:10185000C8000020AC000020D80000207C0100203F
:101860000700002008000020060000200000F0BF54
:10187000E8000020ECCFC55FFFFF0F38824DC77234
:101880006142334700007A440000244021D7E6FA41
:10189000E031F44581121F2FE727C0458096184B91
:1018A00092D54D06CFF0804450EFE2D6E41A4B4477
:1018B000DDE90D1008F04BFA4FF07E51099008F069
:1018C00003FC0ED20D9808F0A0FB0022F74BCDE9E7
:1018D000060108F0ECFACDE9080108F0D9FB0D90FB
:1018E00000E02AE00D9808F090FBF14AF14BCDE9B9
:1018F000020108F06AFACDE90601109808F085FBAC
:10190000CDE90401DDE9062308F0D1FACDE90801AB
:1019100008F062FB0C90E8490C9800E00EE048608B
:101920000A9808720B98401C40B20B900A98401E0F
:1019300040B20A900B980828BADBA0E3109808F090
:1019400064FBDE4ADE4BCDE9080108F089FB58D282
:10195000109808F05AFBD94AD94BCDE9060108F096
:10196000A6FACDE9080108F093FB0E90D5480D903A
:1019700000200B9015200A903FE0DDE90D1008F0E3
:10198000E6F94FF07E51099008F09EFB0ED20D98BB
:1019900008F03BFB0022C54BCDE9060108F087FAB1
:1019A000CDE9080108F074FB0D9000E028E00D98E7
:1019B00008F02BFB0022C44BCDE9020108F005FA28
:1019C000CDE90601109808F020FBCDE90401DDE91E
:1019D000062308F06CFACDE9080108F0FDFA0C9036
:1019E000B5490C9848600A9808720B98401C40B2A0
:1019F0000B900A98401E40B20A900B980828BCDB56
:101A00003DE3109808F001FB0022B04BCDE908013E
:101A100008F026FB58D2109808F0F7FA0022AB4BDA
:101A2000CDE9060108F043FACDE9080108F030FBE2
:101A30000E90A4480D9000200B900D200A903FE0DE
:101A4000DDE90D1008F083F94FF07E51099008F0A0
:101A50003BFB0ED20D9808F0D8FA0022934BCDE94B
:101A6000060108F024FACDE9080108F011FB0D90F9
:101A700000E028E00D9808F0C8FA00228B4BCDE971
:101A8000020108F0A2F9CDE90601109808F0BDFAAC
:101A9000CDE90401DDE9062308F009FACDE90801E2
:101AA00008F09AFA0C9084490C9848600A980872D9
:101AB0000B98401C40B20B900A98401E40B20A900E
:101AC0000B980828BCDBDAE24FF07E51109808F042
:101AD00005FB4DD210980E907A480D9000200B9087
:101AE00007200A9021E0DDE90D1008F030F94FF0F1
:101AF0007E51099008F0E8FA0ED20D9808F085FAA8
:101B000000226A4BCDE9060108F0D1F9CDE90801C0
:101B100008F0BEFA0D9000E00AE00B98401C40B2BD
:101B20000B900A98401E40B20A900B980828DADB06
:101B300000BF0D9808F069FA654A664BCDE90201CD
:101B400008F043F9CDE90601109808F05EFACDE9F6
:101B50000401DDE9062308F0AAF9CDE9080108F03F
:101B60003BFA0C9054490C9848600A98087286E237
:101B7000109808F04AFA584A584BCDE9080108F085
:101B80006FFA59D2109808F040FA00224F4BCDE975
:101B9000060108F01AF9CDE9080108F079FA0E906B
:101BA00048480D9000200B900A9041E0DDE90D10AF
:101BB00008F0CDF84FF07E51099008F085FA0ED26A
:101BC0000D9808F022FA0022384BCDE9060108F002
:101BD0006EF9CDE9080108F05BFA0D9000E02AE00B
:101BE0000D9808F012FA02460B46CDE902013C4876
:101BF0003C4908F05CF9CDE90601109808F005FAB7
:101C0000CDE90401DDE9062308F0DFF8CDE908019C
:101C100008F0E2F90C9028490C9848600A9808727C
:101C20000B98401C40B20B900A98401E40B20A909C
:101C30000B980828BADB22E2109808F0E6F92A4A45
:101C40002A4BCDE9080108F00BFA7ED2109808F073
:101C5000DCF91A4A1A4BCDE9060108F0B6F8CDE9CD
:101C6000080108F015FA0E9016480D9000200B9010
:101C7000C01F0A9064E0DDE90D1008F068F84FF02D
:101C80007E51099008F020FA0ED20D9808F0BDF9A7
:101C90000022064BCDE9060108F009F9CDE908015B
:101CA00008F0F6F90D9023E04DE00000000024401C
:101CB00000003426F56B0C43E80000200000901E65
:101CC000C4BCD6428096184B84D79741D01263414A
:101CD0008DEDB5A0F7C6B03E48AFBC9AF2D77A3EBC
:101CE000000040E59C30A2429B2BA1869B84063DD0
:101CF0000D9808F08AF902460B46CDE90201F74833
:101D0000F74908F0D4F8CDE90601109808F07DF9FC
:101D1000CDE90401DDE9062308F057F8CDE9080113
:101D200008F05AF90C90EF490C9848600A9808722C
:101D30000B98401C40B20B900A98401E40B20A908B
:101D40000B98082897DB9AE1FFE7109808F05DF9F7
:101D5000E54AE64BCDE9080108F082F95BD210981C
:101D600008F053F9E24AE34BCDE9060108F02DF8FB
:101D7000CDE9080108F08CF90E90DF480D900020A5
:101D80000B906FF00D000A9041E0DDE90D1007F0B7
:101D9000DEFF4FF07E51099008F096F90ED20D98B3
:101DA00008F033F90022D54BCDE9060108F07FF8A1
:101DB000CDE9080108F06CF90D9000E02AE00D98DB
:101DC00008F023F902460B46CDE90201CC48CD4983
:101DD00008F06DF8CDE90601109808F016F9CDE984
:101DE0000401DDE9062307F0F0FFCDE9080108F062
:101DF000F3F80C90BB490C9848600A9808720B984D
:101E0000401C40B20B900A98401E40B20A900B98BA
:101E10000828BADB33E1109808F0F7F8BA4ABB4B50
:101E2000CDE9080108F01CF95BD2109808F0EDF834
:101E3000B74AB84BCDE9060107F0C7FFCDE9080165
:101E400008F026F90E90AC480D9000200B906FF032
:101E500014000A9041E0DDE90D1007F078FF4FF023
:101E60007E51099008F030F90ED20D9808F0CDF8A7
:101E70000022A24BCDE9060108F019F8CDE90801CE
:101E800008F006F90D9000E02AE00D9808F0BDF882
:101E900002460B46CDE902019F48A04908F007F829
:101EA000CDE90601109808F0B0F8CDE90401DDE9AC
:101EB000062307F08AFFCDE9080108F08DF80C90A1
:101EC00088490C9848600A9808720B98401C40B2E8
:101ED0000B900A98401E40B20A900B980828BADB73
:101EE000CDE0109808F091F88D4A8E4BCDE90801AD
:101EF00008F0B6F861D2109808F087F88A4A8B4B40
:101F0000CDE9060107F061FFCDE9080108F0C0F84E
:101F10000E9079480D9000200B906FF01B000A90F6
:101F200047E0DDE90D1007F012FF4FF07E510990F8
:101F300008F0CAF80ED20D9808F067F800226F4B2F
:101F4000CDE9060107F0B3FFCDE9080108F0A0F8DC
:101F50000D9000E030E00D9808F057F802460B466F
:101F6000CDE900017048714907F0A1FFCDE90401F6
:101F7000109808F04AF8CDE90201DDE9042307F0E2
:101F800024FF00226A4BCDE9060107F01EFFCDE9D0
:101F9000080108F021F80C9052490C9848600A9802
:101FA00008720B98401C40B20B900A98401E40B239
:101FB0000A900B980828B4DB61E0109808F025F827
:101FC0005C4A5D4BCDE9060107F0FFFECDE9080153
:101FD00008F05EF80E9059480D9000200B906FF0BD
:101FE00022000A9047E0DDE90D1007F0B0FE4FF047
:101FF0007E51099008F068F80ED20D9808F005F8A7
:1020000000223E4BCDE9060107F051FFCDE9080162
:1020100008F03EF80D9000E030E00D9807F0F5FF75
:1020200002460B46CDE900014248434907F03FFF15
:10203000CDE90401109807F0E8FFCDE90201DDE9E0
:10204000042307F0C2FE0022394BCDE9060107F058
:10205000BCFECDE9080107F0BFFF0C9021490C98A8
:1020600048600A9808720B98401C40B20B900A987E
:10207000401E40B20A900B980428B4DB00BF00BF9A
:10208000FFF7FCBA70B500252D480078401C2C499C
:1020900008702C48C08949F64041884204DC294830
:1020A000C089B0F5FA6F06DA27480078042802D014
:1020B00000202349087025498A6825490888411C61
:1020C000234B1980234941F82020184600880C280A
:1020D00002DB002019460880002446E0408CB578D9
:1020E0001DAF1544E80000204F9B0E0AB4E3923B5D
:1020F00050EFE2D6E41A4B448096184B000024407F
:102100000284FEE471D98945196050BEF6B01F3AC9
:1021100081121F2FE727C045037CD8EA9BD0FE46DB
:102120000F7AF8B7A595AA38824DC7726142334736
:1021300080842E41B1A1162AD3CED24700007A4422
:1021400007000020D8000020060000206C010020BD
:10215000080000207C010020FE4850F8241028468A
:1021600007F06BFD0546601CC4B20C2CF4DBFA488A
:1021700000780C2808DBF949284607F0E8FDF84903
:1021800088600C20F4490870F5498868FFF754FA14
:10219000F44840684FF47A71B0FBF1F0F1494860BF
:1021A00070BD70B5EE49C86807F0F0FE0546EC4812
:1021B0000168284607F099FD0446E9484168204631
:1021C00007F0C5FDE649886070BD10B5E648C089D6
:1021D0000A2802DA0A20E449C881E349C88907F0DD
:1021E000D5FEDF494860E148E149097850F821000F
:1021F000DB49C860FFF7D5FF10BD2DE9F041002491
:10220000012715E2012FFCD100270E2C15D2DFE8A3
:1022100004F00715234748494A4B9D4CBDBEBFC03B
:10222000D44D2888401CD449888009200881012089
:1022300048810020887101208881CCE0CD4DAD1C03
:10224000CE48CD49086028888880002008814881D0
:10225000887101208881BEE0C648408838B10128D5
:1022600004D0022805D0032818D101E016E000BFF1
:1022700000BFC0488088002802DD0021BD48818061
:10228000BC4D2D1DBE48BC490860288888800020B0
:102290000881488188710120888100BF00BF9AE0D1
:1022A00000BF00BF00BF00BF00BFB248408838B1C8
:1022B000012804D0022805D0032845D101E043E0DD
:1022C00000BF00BFAB48801D00EB4400851FA9483C
:1022D0008088E0B9AB48A849086028888880601EDB
:1022E000A94931F82000A4490881601EA64901EBE4
:1022F00080004088A0494881E01EA44911F81000E0
:102300009D498871A24830F8140088811BE09D48DF
:102310009949086028888880601E9E4931F820000D
:1023200095490881601E9B4901EB800040889249D5
:102330004881E01E954911F810008F498871944832
:1023400030F81400888100BF00BF44E08948008A4B
:10235000012802DD002187480182864D10358E4814
:102360008549086028888880601E874931F82000E8
:1023700081490881601E844901EB800040887E49C4
:102380004881002088710120888124E000BF00BFBF
:1023900000BF7848801D00EB4400851F7F487649C8
:1023A000086028888880601E774931F820007249CB
:1023B0000881601E744901EB800040886E494881A5
:1023C000E01E724911F810006B498871704830F8AE
:1023D0001400888100BF00BF2046FEF731FE0E2C9E
:1023E00076D2DFE804F007111B252F39434D5761E2
:1023F0006B7677780A206A490870002048705E483A
:10240000FEF7F7FE804671E008206549087000205D
:1024100048705948FEF726FD804667E00A2060496B
:102420000870002048705448FEF71CFD80465DE0AF
:102430000A205B490870002048704F48FEF7D9FE1B
:10244000804653E0072056490870002048704A48EB
:10245000FEF7CFFE804649E0072051490870002072
:1024600048704548FEF7C5FE80463FE007204C49CE
:102470000870002048704048FEF7BBFE804635E0FB
:10248000082047490870002048703B48FEF7B1FE1D
:1024900080462BE0072042490870002048703648EB
:1024A000FEF7E0FC804621E007203D49087000204F
:1024B00048703148FEF79DFE804617E00A203849F3
:1024C0000870002048702C48FEF793FE80460DE00F
:1024D0000BE000BF00BF08203149087000204870A1
:1024E0002548FEF786FE804600E000BF00BF44B9E5
:1024F00021488088401E288006F047FFFEF737FA03
:1025000002E01D4880882880B8F1680F72D009DC8D
:10251000A8F1610007286ED2DFE800F00E6E708827
:1025200088728300A8F1E10008287FD2DFE800F07C
:102530000565677E7E7E7A7800BF0E484088012858
:1025400002D1012C00D109240A48808801282FD10A
:10255000072C27E07C0100200700002000004041FC
:102560006C010020E8000020D800002078A80108B5
:1025700006000020F4000020C8000020FDA801088B
:10258000EFA8010882A9010810AF010878AF01087F
:102590008EAF0108DCAE0108F7A801089BAA01086C
:1025A000B200002004D1601CC4B2601CC4B201E0BF
:1025B000601CC4B2012C1BDD5048408840B101288A
:1025C00004D0022807D0032807D103E00E2606E036
:1025D0000A2604E000BF0E2601E00E2600BF00BF61
:1025E000B44205DB002403204549087006F0BCFE18
:1025F00001271CE013E019E000BF18E000BF16E05F
:102600003E48C088012802D102213C48C1800320F5
:102610003B49087006F0A8FE06F074FE07E000BF14
:1026200005E000BF03203649087000E000BF00BF8E
:102630003348007804283FF4E5ADBDE8F0817047E9
:1026400002460B4688B2704710B54FF480732D4A8E
:102650002D492E4803F0CEF92C4803F0F5F910BDB2
:10266000F0B50446059D27460E4602B9012207FB38
:1026700006FCBCFBF5FC0CFB03FCBCFBF2F0F0BD64
:1026800030B50246002006E0145C0A2594FBF5F400
:10269000E3B2441CE0B28842F6DB30BD70B50246BE
:1026A0000C46002012E0135CDD1703EB15752911B1
:1026B000135CDD1703EB15752D11A3EB051501EB6D
:1026C000810605EB46051554431CD8B2A042EADB4F
:1026D00070BD30B50B460146C41700EB1474C4F34B
:1026E0000712C41700EB14742411A0EB041402EBBE
:1026F000820504EB4504E0B230BD0000F400002088
:102700000300002070A701080C1001401C000240CB
:1027100070B507F003F806F096FF00214FF08040F7
:1027200004F064FFFEF715F906F0F3FD06F0F1FD85
:1027300006F02BFE06F0FDFD06F038FEFEF717F959
:10274000F4480078082802DD0020F249087007F0FC
:102750006BF806F073FEFEF7ADF90020EE49087045
:10276000002438E0601CC4B2142C02DD0320EB49C5
:1027700008700A2006F059FC0546682D25D009DCB2
:10278000A5F16100072824D2DFE800F01517190E23
:102790001B1D2000A5F1E10007281AD2DFE800F098
:1027A0000C0E10051214170000BF0920DB49087039
:1027B00007F041F80EE000BF0CE000BF0AE000BFE8
:1027C00008E000BF06E000BF04E003E000BF1424FF
:1027D00000E000BF00BFD14800780228C2D006F058
:1027E00019FF70BD10B55A20CD49087059204870A6
:1027F0005A20CC49087059204870C648008ACA49F6
:10280000097860F30411C8480170C248408AC6497B
:10281000097860F30301C44801700078C049C870AA
:10282000C1480078BF49C870C0480078002867D107
:10283000BF48008870B9BF480078032805D0042835
:1028400007D10020B649887003E00120B4498870A0
:1028500000BF55E0B648008801280ED1B548007881
:10286000032805D0042807D10620AD49887003E06D
:102870000720AB49887000BF42E0AD4800880328BC
:102880001DD1AC480078032808D0042816D10620B2
:10289000A34988700020A34988700FE0A6480078FB
:1028A000012803D107209E49887006E0A2480078DD
:1028B000022802D101209B49887000BF20E09C487B
:1028C000008802281CD19B480078032808D00428DF
:1028D00015D10020924988700620924988700EE038
:1028E00095480078012802D18D49887006E0924809
:1028F0000078022802D107208A49887000BF00BFF3
:102900008A48007820B38A48008810BB894800783C
:10291000C01E06281CD2DFE800F00F0313070B17B8
:1029200000207F49887013E002207D4988700FE005
:1029300003207B4988700BE001207949887007E00B
:1029400004207749887003E005207549887000BF2E
:102950001FE07748008801281BD1764800780328BB
:1029600012D0042804D0062806D0072810D107E08A
:1029700006206B4988700BE008206949887007E0E1
:1029800009206749887003E007206549887000BF07
:1029900000BF67480088032803D0654800880228E4
:1029A00012D100240DE05F48015D644805F038FA5B
:1029B00000BF8021614805F0A1FA0028F9D0601C11
:1029C000C4B20C2CEFDB11E000240DE05448015D93
:1029D0005A4805F025FA00BF8021584805F08EFAC4
:1029E0000028F9D0601CC4B20C2CEFDB10BD2DE91F
:1029F000F04190B0FF260027514890F82B00A0B17D
:102A00004F4890F83000434981F848001E214C4857
:102A10002E3007F0F4F80020494981F82B000021FE
:102A2000474880F82C1006F07BFC3A4890F84800A4
:102A300000286BD1434890F82B00002867D01C2158
:102A400001A807F0DCF81C223E49303101A807F04C
:102A5000BDF83C4890F82F6090F83050002039497C
:102A600081F82B000021374880F82C10EE2E4FD033
:102A700008DCCC2E4DD0CE2E0BD0DD2E7ED0DE2E1F
:102A80007DD1C3E1F22E7BD0F32E7AD0F42EF7D194
:102A900036E3284800780B287DD2DFE800F0067C7A
:102AA0007C0D14301B22297C7400274827A10A685A
:102AB00002600979017175E0234824A10A68026067
:102AC000097901716EE0204822A10A680260097943
:102AD000017167E01C4821A10A680260097901714F
:102AE00060E019481FA10A6802600979017159E084
:102AF00015481EA10A6802600979017152E0124866
:102B00001CA10A680260097901714BE009E307E33F
:102B10009DE161E1F4000020050000200300002099
:102B20003E0200205202002054000020000000203D
:102B3000CC010020040000202F00002000380140BC
:102B40007B03002094020020400000202D2D2D2D1D
:102B5000000000005041535300000000484947481E
:102B6000000000004C4F57200000000042524B2054
:102B700000000000415243200000000033E1CEE29B
:102B800043E141E107E0FE48AFF230010A6802602C
:102B90000979017106E0FA48FAA10A680260097928
:102BA000017100BF00BFF9484088022803D0F748F0
:102BB000408803287ED1F648007800287BD1012088
:102BC000F34908702821F34807F019F8F248007813
:102BD00040B9F249EF4807F01DF8E949ED4807F020
:102BE00019F854E0EE480078012816D1EB49E9487D
:102BF00007F010F8E5484088022804D1E049E5488C
:102C000007F008F843E0E148408803283FD1AFF2DD
:102C1000C401E04806F0FEFF39E0DC4840880228A5
:102C20001AD1DE48407B3B2806D1DC48AFF2DC01FC
:102C30000968C0F80E1009E0D848807B3B2805D110
:102C4000D648AFF2F0010968C0F80F101222D3493C
:102C5000D04806F0BBFF1AE0CC484088032816D1C4
:102C6000CE48407B3B2805D1CC48C5490968C0F80F
:102C70000E1008E0C948807B3B2804D1C748C049F2
:102C80000968C0F80F10C549C24806F0C3FFC5A1C6
:102C9000C04806F0BFFFC449BE4806F0BBFFC048AD
:102CA0000078012815D1B9484088022808D1AFF230
:102CB000641101E053E03AE0B64806F0ABFF1AE0D9
:102CC000B2484088032816D1AD49B24806F0A2FFA9
:102CD00011E0AE484088022804D1A949AD4806F069
:102CE00099FF08E0A9484088032804D1AFF29C115D
:102CF000A84806F08FFFAD49A64806F08BFF0024D8
:102D00000DE0A448015DAA4805F08AF800BF8021C3
:102D1000A74805F0F3F80028F9D0601CC4B2272CAE
:102D2000EFDB00209B49C91E81F82B0053E00024F3
:102D30000DE09848015D9E4805F072F800BF8021C3
:102D40009B4805F0DBF80028F9D0601CC4B2272CA2
:102D5000EFDB00208F49C91E81F82B003BE08C4837
:102D6000007830BB01208A4908702821894806F084
:102D700046FF0E228949874806F028FF804985488A
:102D800006F048FF8949834806F044FF00240DE01F
:102D90008048015D864805F043F800BF80218448E3
:102DA00005F0ACF80028F9D0601CC4B2142CEFDB9D
:102DB00011E000240DE07748015D7D4805F030F812
:102DC00000BF80217A4805F099F80028F9D0601CEE
:102DD000C4B2142CEFDBA3E1002076490870052073
:102DE000754908709CE174480078062808D10320D2
:102DF0006949087007207049087006F006FC02E077
:102E000003206D4908708BE18AE189E135B1012D1C
:102E100008D0102D0AD0112D10D10BE000205B49F5
:102E200048800CE001205949488008E002205749B9
:102E3000488004E003205549488000E000BF00BFFF
:102E400006F060FA06F090FAFDF751FE68E19DF891
:102E50000500401E4D490870AC2D04D0AD2D6FD03B
:102E6000DC2D6ED172E00021484881809DF807007A
:102E70000121FFF72EFC80469DF806000121FFF797
:102E800028FC00EBC00101EB001008EB80013F487B
:102E9000C1809DF809000121FFF71BFC80469DF8C9
:102EA00008000121FFF715FC00EBC00101EB001049
:102EB00008EB8001354801819DF80B000121FFF7E7
:102EC00008FC80469DF80A000121FFF702FC00EB98
:102ED000C00101EB001008EB80012C4841819DF8F6
:102EE0000D000121FFF7F5FB80469DF80C00012144
:102EF000FFF7EFFB00EBC00101EB001008EB8001D6
:102F0000224881819DF80F000121FFF7E2FB8046F6
:102F10009DF80E000121FFF7DCFB00EBC00101EB87
:102F2000001008EB80011948C1819DF81010418202
:102F30009DF81100502805D100211448018204E0B9
:102F400089E0D5E0012111480182D1E001210F483B
:102F500081809DF80700FFF7BCFB80469DF80600C6
:102F60000121FFF7B6FB00EBC00101EB001008EBFD
:102F700080010648C1809DF8090001211EE0000083
:102F8000400000205445535400000000F40000208D
:102F90004A000020970200200400002002020020C6
:102FA000490000203B0000002A0200204C000020C5
:102FB000003801402F00002003000020FFF789FBAC
:102FC00080469DF808000121FFF783FB00EBC0015C
:102FD00001EB001008EB8001FB4801819DF80B001C
:102FE0000121FFF776FB80469DF80A000121FFF7DB
:102FF00070FB00EBC00101EB001008EB8001F24810
:1030000041819DF80D000121FFF763FB80469DF88B
:103010000C000121FFF75DFB00EBC00101EB00108C
:1030200008EB8001E84881819DF80F000121FFF73E
:1030300050FB80469DF80E000121FFF74AFB00EB94
:10304000C00101EB001008EB8001DF48C1819DF851
:10305000101041824CE09DF807000121FFF739FB79
:1030600080469DF806000121FFF733FB00EBC0010D
:1030700001EB001008EB8001D34881829DF8090024
:103080000121FFF726FB80469DF808000121FFF78C
:1030900020FB00EBC00101EB001008EB8001CA48E7
:1030A000C1829DF80B000121FFF713FB80469DF8BC
:1030B0000A000121FFF70DFB00EBC00101EB00103E
:1030C00008EB8001C04801839DF80D000121FFF746
:1030D00000FB80469DF80C000121FFF7FAFA00EB97
:1030E000C00101EB001008EB8001B748418300BF2D
:1030F00000BF06F007F906F037F9FDF7F8FC0FE01E
:10310000681EB149087006F0FDF80320AF49087049
:1031100006F03BF9FDF72BFCFDF7E9FC00E000BFF2
:10312000E7E0A94890F848000128F9D1A84890F8AC
:103130002B0088B11E22A6492E3108A806F046FDB4
:103140009DF822709DF823600020A14981F82B0092
:1031500000219F4880F82C1026B1012E4BD0022E62
:1031600048D158E0022F2CD19DF82400542809D1D1
:10317000002098490870052094490870012096495C
:10318000087037E09DF82400522813D18F4800784A
:1031900006280BD103209149087007208B4908703D
:1031A00006F033FA01208C49087023E00320874998
:1031B00008701FE09DF8240053281BD1FFF712FB75
:1031C00018E0032F16D19DF82400742812D1002096
:1031D000804908709DF825007B49087006F092F838
:1031E00003207A49087006F0D0F8FDF7C0FB0520EF
:1031F000764908707CE09DF824007349087006F059
:1032000081F803207149087006F0BFF8FDF7AFFBA5
:10321000FDF76DFC6CE09DF82400714908700846CC
:1032200000788009684948806D480078C0F34011F3
:10323000654881806A480078C0F3001162480182C5
:103240006748007800F00F015F4841829DF8251023
:1032500081829DF827009DF8261000EB012081B2A5
:103260005948C1809DF829009DF8281000EB0120E5
:1032700081B2554801819DF82B009DF82A1000EB82
:10328000012081B2504841819DF82D009DF82C10FD
:1032900000EB012081B24C4881819DF82F009DF800
:1032A0002E1000EB012081B24748C1819DF831000A
:1032B0009DF8301000EB012081B24348C1829DF897
:1032C00033009DF8321000EB012081B23E480183AB
:1032D0009DF835009DF8341000EB012081B23A488A
:1032E000418306F00FF806F03FF8FDF700FC00BF41
:1032F00000BF10B0BDE8F08170B5002037490870FC
:10330000FDF7F5FB06F0B2F806F05FF90020314951
:1033100008709CE0334890F82B0008B1FFF767FB7A
:103320000A2005F082FE0446662C73D008DCA4F166
:10333000610005286FD2DFE800F010142D596500F8
:10334000E62C7AD004DC672C78D0682C7DD16AE03A
:10335000E72C74D0E82C78D166E004201B49087073
:1033600074E021480078A0B917480078401C16493D
:10337000087008460078082801DD0020087006F073
:1033800004F8FDF7F4FA05F0BDFF05F08DFFFDF739
:10339000AEFB5BE014480078A8B90B48007828B170
:1033A00009480078401E0849087002E008200649D4
:1033B000087005F0EAFFFDF7DAFA05F0A3FF05F063
:1033C00073FFFDF794FB41E0F400002003000020B0
:1033D000940200202F00002048000020040000205C
:1033E000540000207B03002005000020FE480078E8
:1033F00018B1FD480078401E00E00320C5B2FA482D
:10340000057023E0F8480078032807DAF6480078CA
:10341000401C04E010E018E00FE00FE00020C5B20F
:10342000F148057012E000BF0520F0490870002047
:10343000EF4908700AE002E000BF00BF00BF0020B3
:10344000E9490870EA49087000E000BF00BFE7489A
:10345000007803283FF45EAF70BD10B5FEF7CDFED7
:1034600010BD10B513E00020E2490870E249087071
:10347000DF49087005F0AEFF00214FF0804004F0F6
:10348000B5F80120DD4908700620D8490870D748F2
:1034900000780528E7D010BD10B5002005F09AFF90
:1034A00000214FF0804004F0A1F86420FCF701FFF8
:1034B00006F026F810BD2DE9FC5F0120CF49087009
:1034C000CF48B0F802808088C0B20090CC48808895
:1034D000CC49097860F34511CA480170C848408A50
:1034E000C0B20190002005F07CFFB8F1000F30D190
:1034F0000020C5490870C5490870C148C08800EB64
:1035000080004FF6FF7101EA4005BD48808901281F
:1035100001D1022601E0BA4886892C460327F02013
:10352000BB49088040F6D860BA4908809DF8000081
:1035300038B9B94800884443B148808BB4FBF0F4F3
:10354000D2E0B54840884443AD48008CB4FBF0F469
:10355000CAE0B8F1010F1DD14FF4B470AC49088036
:1035600040F6D860AB4908800120A84908700026C1
:10357000A348808A00EB80004FF6FF7101EA400506
:103580002C460527A448808844439D48808CB4FB82
:10359000F0F4A9E0B8F1030F52D19948808A00EB0A
:1035A00080004FF6FF7101EA4005954880890128A7
:1035B00001D1022601E0924886892C46974800787E
:1035C000A0B94FF4B4709249088040F6D860914990
:1035D000088001208D490870052700268E488088C4
:1035E00044438748808CB4FBF0F47DE0002086499A
:1035F0000870F0208649088040F6D8608549088028
:103600000020824908707E48C08800EB80004FF699
:10361000FF7101EA40052C4603279DF8000038B9E8
:103620007D48008844437648808BB4FBF0F45BE02F
:103630007948408844437248008CB4FBF0F453E06E
:103640007648007888BB00206F490870F0207049E8
:10365000088040F6D8606F49088069488089012851
:1036600001D1022601E0664886896548C08800EBE2
:1036700080004FF6FF7101EA40052C460327002029
:10368000624908709DF8000038B9634800884443D7
:103690005B48808BB4FBF0F426E05F4840884443ED
:1036A0005748008CB4FBF0F41EE0FFE74FF4B47011
:1036B0005749088040F6D86056490880002650488F
:1036C000808A00EB80004FF6FF7101EA40052C462E
:1036D000052701204D4908704F48808844434848D9
:1036E000808CB4FBF0F400BFDFF8149109F11C09E1
:1036F0004FF00B0BDFF828A14FF02C0B002705E053
:1037000019F8010B0AF8010B781CC7B25F45F7DB0B
:1037100000204449086044490880444908604449FD
:103720000880444908704449088044490880444955
:1037300008704449088044490880444908700027BB
:1037400008E00020424921F81700424921F81700FB
:10375000781CC7B2082FF4DB3B490C80002E7FD0C9
:1037600001203749087038480488B4FBF6F433491F
:103770000C800488B4FBF6F006FB10442E490C8044
:103780002E48008801286BDA0A202D4908702E483F
:10379000048804EB84004400B4FBF6F427490C8051
:1037A0002948048804EB84004400B4FBF6F006FBCF
:1037B000104421490C8021480088012850DA6420F7
:1037C0001F4908702048048804EB84004400B4FBBF
:1037D000F6F41A490C801C48048804EB8400440069
:1037E000B4FBF6F038E03BE00500002003000020C9
:1037F000000000201B0000201C000020040000200E
:10380000F400002054000020060000202E000020BC
:103810003000002032000020360000202F00002061
:10382000D60100200C0000201E0000201400002003
:10383000200000202200002024000020260000207C
:10384000280000202A0000202C0000200100002079
:10385000AC010020BC01002006FB1044FE490C8096
:10386000B8F1000F12D0B8F1010F06D0B8F1020F75
:1038700054D0B8F1030F7CD126E005F0FDFE022004
:1038800005F033FF0220F549087077E09DF800004D
:1038900048B105F0F1FE022005F027FF9DF8040075
:1038A00005F09FFD0FE005F003FFED48008A18B119
:1038B000012005F01AFF02E0002005F016FF9DF838
:1038C000040005F08EFD59E0E648007840B905F0A7
:1038D000D3FE022005F009FF0220E04908701CE039
:1038E0009DF8000048B105F0C7FE022005F0FDFE7E
:1038F0009DF8040005F075FD0FE005F0D9FED848ED
:10390000008A18B1012005F0F0FE02E0002005F069
:10391000ECFE9DF8040005F064FD2FE0D14800782E
:10392000F0B99DF8000048B105F0A6FE022005F0B0
:10393000DCFE9DF8040005F054FD19E005F0B8FE2A
:10394000C748008A18B1012005F0CFFE02E0002030
:1039500005F0CBFE9DF8040005F043FD08E008E00B
:1039600005F08AFE022005F0C0FE0220BB49087067
:1039700004E00720BC490870BDE8FC9F00BF0020A0
:1039800005F028FD0121880703F030FE05F038FE20
:103990000020B649087008460078FDF714FA05F0D3
:1039A00014FE05F063FD05F093FD0820B049087092
:1039B000022048701620087002204870002008700D
:1039C000AC48007800EB4000202101EBC000A84982
:1039D000487000200870A748007800EB4000C00045
:1039E00020304870B8F1000F09D0B8F1010F07D0AE
:1039F000B8F1020F05D0B8F1030F04D102E000BF07
:103A000002E001E000E000BF00BF0020984908701C
:103A1000FDF763F800BFAFE710B55A20964908706C
:103A2000592048705A2095490870592048708C4890
:103A3000008A9349097860F304119148017088481D
:103A4000408A8F49097860F303018D48017000783E
:103A50008949C8708A4800788849C87089480078C0
:103A6000002867D18848008870B97C48007803280E
:103A700005D0042807D100207F49887003E0012089
:103A80007D49887000BF55E07F48008801280ED12D
:103A900072480078032805D0042807D1062076490B
:103AA000887003E007207449887000BF42E07648C0
:103AB000008803281DD169480078032808D004280D
:103AC00016D106206C49887000206C4988700FE080
:103AD00064480078012803D107206749887006E010
:103AE00060480078022802D101206449887000BF34
:103AF00020E06548008802281CD158480078032837
:103B000008D0042815D100205B49887006205B4945
:103B100088700EE053480078012802D15649887019
:103B200006E050480078022802D1072053498870E7
:103B300000BF00BF5348007828B3534800880228CC
:103B400022D146480078C01E06281CD2DFE800F0CB
:103B50000F0313070B1700204749887013E002205A
:103B6000454988700FE00320434988700BE001202D
:103B70004149887007E004203F49887003E0052030
:103B80003D49887000BF1FE03F48008803281BD1D3
:103B900032480078032812D0042804D0062806D022
:103BA000072810D107E00620334988700BE0082071
:103BB0003149887007E009202F49887003E0072009
:103BC0002D49887000BF00BF00240DE02A48015D28
:103BD0002E4804F025F900BF80212C4804F08EF90E
:103BE0000028F9D0601CC4B20C2CEFDB10BD38B536
:103BF00027480068B0F5805F03D340F6FF70244982
:103C0000086024480088B0F5805F03DB40F6FF7051
:103C1000204908801C480088002878D0012804D05A
:103C2000022872D0032871D1BCE11B484089184A90
:103C30000090126893B20D4A1278D21D164D05EB12
:103C400082025188094A1278D21D35F82200114AA1
:103C50001288FEF705FD21E024000020040000206A
:103C6000F40000202F0000200300002006000020A8
:103C7000B20000201C0000203E0200205202002062
:103C80005400002000000020CC010020003801403A
:103C90000C0000201E000020D60100200446FE4932
:103CA0000C6008460068B0F5617F0DD92846408950
:103CB000FA4A0090126893B22A46518D108DF84A44
:103CC0001288FEF7CDFC0446F3480460F348006810
:103CD00000EB80004400F34800894443F1484089E8
:103CE000B4FBF0F40A20B4FBF0F100FB114004280F
:103CF00000D90A340A20B4FBF0F4A0B20A2190FBE8
:103D0000F1F0E64908602DE201E07DE029E2E448B7
:103D1000008800EB80004400E3488088C8BBE3488B
:103D20000078C01CDF4931F820004443DF480078A8
:103D3000C01C01EB80004088B4FBF0F40A20B4FB07
:103D4000F0F100FB1140042800D90A340A20B4FB2A
:103D5000F0F4D749CC81D148006800EB80004400E2
:103D6000D04800884443CF484088B4FBF0F40A2090
:103D7000B4FBF0F100FB1140042800D90A340A20FA
:103D8000B4FBF0F4A0B20A2190FBF1F0C349086043
:103D900039E0FFE7C5480078401DC24931F82000EE
:103DA0004443C2480078401D01EB80004088B4FBCA
:103DB000F0F40A20B4FBF0F100FB1140042800D914
:103DC0000A340A20B4FBF0F4B949CC81B348006846
:103DD00000EB80004400B34880884443B148C08869
:103DE000B4FBF0F40A20B4FBF0F100FB114004280E
:103DF00000D90A340A20B4FBF0F4A0B20A2190FBE7
:103E0000F1F0A6490860ADE1AA48007800287DD10C
:103E1000A348008800EB80004400A3488088C8BB0A
:103E2000A2480078C01C9F4931F8200044439F48B5
:103E30000078C01C01EB80004088B4FBF0F40A203D
:103E4000B4FBF0F100FB1140042800D90A340A2029
:103E5000B4FBF0F49649CC819048006800EB8000F8
:103E600044009048008844438E484088B4FBF0F4F6
:103E70000A20B4FBF0F100FB1140042800D90A34F9
:103E80000A20B4FBF0F4A0B20A2190FBF1F08349C0
:103E9000086086E0FFE785480078401D814931F8D9
:103EA0002000444381480078401D01EB8000408899
:103EB000B4FBF0F40A20B4FBF0F100FB114004283D
:103EC00000D90A340A20B4FBF0F47949CC81734854
:103ED000006800EB800044007248808844437148C9
:103EE000C088B4FBF0F40A20B4FBF0F100FB1140F1
:103EF000042800D90A340A20B4FBF0F4A0B20A2145
:103F000090FBF1F0654908604BE0FFE765484089A8
:103F1000624A0090126893B2644A1278D21D614DD1
:103F200005EB82025188614A1278D21D35F82200D1
:103F30005B4A1288FEF794FB044657490C6008461A
:103F40000068B0F5617F0DD928464089534A00903A
:103F5000126893B22A46518D108D514A1288FEF78D
:103F60007FFB04464C4804604C48006800EB80002E
:103F700044004C48008944434A484089B4FBF0F46B
:103F80000A20B4FBF0F100FB1140042800D90A34E8
:103F90000A20B4FBF0F4A0B20A2190FBF1F03F49F3
:103FA0000860DFE043480078E8BB3E4840893B4A70
:103FB0000090126893B23D4A1278D21D394D05EB3C
:103FC00082025188394A1278D21D35F82200344ACB
:103FD0001288FEF745FB04462F490C60084600682E
:103FE000B0F5617F0DD9284640892C4A00901268AF
:103FF00093B22A46518D108D294A1288FEF730FB64
:104000000446254804602548006800EB8000440011
:1040100024480089444323484089B4FBF0F40A2033
:10402000B4FBF0F100E00EE000FB1140042800D9E1
:104030000A340A20B4FBF0F4A0B20A2190FBF1F09C
:10404000164908608CE01648008800EB80004400A8
:104050001548808880BB15480078C01C114931F88C
:104060002000444311480078C01C01EB80004088C8
:10407000B4FBF0F40A20B4FBF0F100FB114004287B
:1040800000D90A340A20B4FBF0F40949CC81034872
:10409000006800EB800010E0140000200C000020FD
:1040A0001E000020D6010020F400002006000020A1
:1040B000D80000202F00002019E04400FE480088AE
:1040C0004443FD484088B4FBF0F40A20B4FBF0F10F
:1040D00000FB1140042800D90A340A20B4FBF0F494
:1040E000A0B20A2190FBF1F0F449086038E0F448EE
:1040F0000078401DF04931F820004443F048007832
:10410000401D01EB80004088B4FBF0F40A20B4FBB2
:10411000F0F100FB1140042800D90A340A20B4FB56
:10412000F0F4E849CC81E548006800EB80004400E9
:10413000E14880884443E048C088B4FBF0F40A209A
:10414000B4FBF0F100FB1140042800D90A340A2026
:10415000B4FBF0F4A0B20A2190FBF1F0D74908605B
:1041600000E000BF00BF38BD0CB5D7480078082874
:1041700004DAD5480078401CD34908700720019024
:104180000EE09DF80400401ED04931F810009DF863
:10419000042021F812009DF80400401EC0B20190D6
:1041A0009DF804000028ECDCC4480068C74908807A
:1041B00000200090C4480078019007E0C3489DF8B3
:1041C000041030F811000099084400909DF8040094
:1041D000411EC9B201910028F0D1BB49097800986D
:1041E000B0FBF1F00090009880B2B449086007205D
:1041F00001900EE09DF80400401EB54931F8100012
:104200009DF8042021F812009DF80400401EC0B261
:1042100001909DF804000028ECDCAE480088AC4911
:10422000088000200090A8480078019007E0A84886
:104230009DF8041030F811000099084400909DF892
:104240000400411EC9B201910028F0D19E490978AD
:104250000098B0FBF1F000909E49009808800CBDDA
:104260000EB500200190009002900EE005F0C2F81B
:1042700001990844019005F0C3F8009908440090A2
:104280009DF80800401CC0B202909DF8080010285C
:10429000ECDB0198C0F30F10884908600098C0F368
:1042A0000F108C4908800EBD2DE9F04F8BB04FF0F8
:1042B000000B0020049003900290019082468648F3
:1042C0004088864908800846008805287ED2DFE8B5
:1042D00000F01703673898008148007820F0C0008C
:1042E00040307F4908707C48C08A7C49C8807A4841
:1042F000008B08817848408B48800220099087E035
:104300007748007820F0C00075490870724800892D
:104310007249C8807048408908816F48C0894880C8
:104320006D488089012802D10220888003E06A4814
:1043300080896A49888068488088009000200990B8
:1043400066E06748007820F0C000C030644908701B
:104350006448007860B96048C08A6049C8805E4897
:10436000008B08815C48408B48800220099016E051
:1043700000200990584800895849C880564840890B
:1043800008815548C089488053488089012802D156
:104390000220888003E0504880895049888037E0B7
:1043A0004F48007820F0C00080304D4908704D48DB
:1043B0000078C8B900200990474800894749C8805B
:1043C0004548408908814448C08900E01AE0488097
:1043D00041488089012802D10220888010E03E48AF
:1043E00080893E4988800BE0022009903A48C08AC3
:1043F0003A49C8803848008B08813748408B48804C
:1044000006E005E00720384908700BB0BDE8F08FE2
:1044100000BFFFF750F8002007900890069033493E
:10442000086028490881324908809DF82400244901
:10443000087009782F4A12781144C8B2FCF7C3FCFF
:1044400001F01EB900202C4908702C480078012882
:104450007ED10020294908704FF0010BBDF82000E3
:1044600042F20F71884204DABDF82000401C80B28D
:10447000089023480078012853D19DF81C00401C67
:10448000C0B207909DF81C001E490978884208DBDD
:1044900000200790164800881B49098808441449E1
:1044A0000880084800890D498988884238DB002047
:1044B0000449088115482BE0D60100200C0000209B
:1044C00006000020D800002022000020AC010020BF
:1044D000BC0100201E000020F4000020CC010020C0
:1044E000540000202F0000200300002010000020B6
:1044F0002A0000202E0000204A0000200100002099
:104500000400002028000020260000202C000020AD
:104510000088FE4908800220FD49087001200490AF
:104520006EE0FC480088F9490880FB484088002874
:1045300066DDFA480089F8494988884260DBF64818
:10454000008880B1F4480088022804D1F44800E0D3
:1045500073E0007838B1F048008803282AD1F04889
:104560000078012826D1EF49C88805F014FD0646D9
:10457000ED4AEE4B05F029FC04460D46EC48006878
:1045800005F009FD804622462B4605F051FD08D274
:10459000012003900720DE4908700320E549887058
:1045A0002EE00720E44908700420D9490870012052
:1045B000049025E0DB49888A05F0EDFC0646DA4ADE
:1045C000DA4B05F002FC04460D46D948006805F0B8
:1045D000E2FC804622462B4605F02AFD08D2012047
:1045E00003900720CA4908700320D249887007E069
:1045F0000720D14908700420C549087001200490A3
:10460000C248008804F0E6FE9DF81800401CC0B2C5
:1046100006909DF81800092190FBF1F201FB1200B1
:10462000C0B206909DF81800052802DA04F097FB46
:1046300001E004F090FBFCF7A1F8FFF711FEFFF793
:1046400093FDFFF7D4FAB4480088012816D0B24889
:104650000088022803D1B248007801280ED0AE4865
:104660000088022803D1AE480078012806D0AA4865
:10467000008803283BD1AA480078C0BBAF48008817
:10468000AF490988884204DD012002900020019092
:104690000DE0AA480088AB490988884204DA012065
:1046A00001900020029002E00020029001904FF063
:1046B000000AA54800789DF82410884209DA01987C
:1046C000012806D1A0480078401C9F4908704FF08F
:1046D000010A9D480078002809DD0298012806D1CA
:1046E00099480078401E984908704FF0010ABAF1C5
:1046F000010F1FD10020954908700A900AE00020A0
:1047000093499DF8282021F812009DF82800401CAC
:10471000C0B20A909DF828000828F0DB8A49097881
:104720008C4A12781144C8B2FCF74DFB3220FBF7DB
:10473000C0FDC4E07848008830B1012824D00228A8
:104740007CD0032879D138E07F480078012806D151
:104750007248C0890A2190FBF1F07049C881BDF808
:104760000000012803D140F22620059002E04FF41A
:10477000966005906948C0890599884203D948F236
:104780009F606649C88199E06C48008840B17248D2
:1047900000687249884206D908466F49086002E0FD
:1047A0006E486D490860BAF1000F05D15B48008979
:1047B000062801DB0120039080E059480078C0B949
:1047C0005E48008840B1644800686449884206D960
:1047D00008466149086002E060485F490860BAF134
:1047E000000F28D14D480089062824DB01200390C2
:1047F00021E055480078012806D14848C0890A219F
:1048000090FBF1F04549C8814FF496600590BDF8E2
:104810000000012803D140F22620059002E04FF469
:10482000966005903D48C0890599884203D948F2B1
:104830009F603A49C88141E000E03EE03848007896
:1048400010BB41480078012806D13448C0890A21AC
:1048500090FBF1F03149C8814FF496600590BDF8A6
:104860000000012803D140F22620059002E04FF419
:10487000966005902948C089059988421CD948F25C
:104880009F602649C88117E02C48008840B1324813
:1048900000683249884206D908462F49086002E07C
:1048A0002E482D490860BAF1000F05D11B48008938
:1048B000062801DB0120039000E000BF00BF144880
:1048C0000078022871D1039801286ED1BAF1000F47
:1048D0006BD11148008830B1012868D0022871D00E
:1048E000032870D186E00D48C08905900A48C08829
:1048F000059988424DD20B48808888BB4EF66021CE
:10490000059888422FD90A2001492AE02A00002070
:10491000040000202C000020CC010020D800002042
:104920002F000020F40000209A9999999999E93F65
:104930000C0000203E020020030000201E0000208A
:10494000320000203000002006000020220000205D
:10495000BC0100202E000020140000209F860100D2
:1049600004E0087002E00620FE490870FE488088D6
:1049700001280BD141F288310598884203D90A20D9
:10498000F849087002E00620F64908700220F7494D
:104990008870F74800890599884205D90720F149B0
:1049A00008700320F149887074E074E0FFE7F14873
:1049B00000680590F048007830B101280BD002283B
:1049C00015D10EE03DE064E04FF47A710598B0FB3C
:1049D000F1F005900CE064210598B0FBF1F0059032
:1049E00006E00A210598B0FBF1F0059000E000BF59
:1049F00000BF4FE0E1480078F8B9DE480068059054
:104A0000DD48007820B1012809D0022813D10CE03C
:104A10004FF47A710598B0FBF1F005900CE0642139
:104A20000598B0FBF1F0059006E00A210598B0FB6F
:104A3000F1F0059000E000BF02E0D148C089059088
:104A400028E0CE48007818B9CD48C08905901FE00D
:104A5000C84800680590C848007820B1012809D0EE
:104A6000022813D10CE04FF47A710598B0FBF1F0F5
:104A700005900CE064210598B0FBF1F0059006E08C
:104A80000A210598B0FBF1F0059000E000BF00BFDF
:104A900000E000BF00BFB348007806280FD0B1483F
:104AA000007807280BD0AF480078052807D0AD481C
:104AB0000078082803D0AB4800780A2809D10120E3
:104AC000B04908700720B04908704FF0010B012071
:104AD0000490BBF1010F7DD14FF0000B0020AB49DA
:104AE000087001204870A248008830B1012872D0B7
:104AF000022871D0032870D1CFE09B48C088A44918
:104B0000096888420DD99848C088A1490968401AA7
:104B1000022813D89448C0889D490860012003905A
:104B20000CE09148C0889A490968081A022805D8FB
:104B30008D48C0889649086001200390944909680F
:104B400088B2012303220221FBF727FF914804F0DA
:104B5000D0FB1421904805F052F801208F490870CD
:104B60008D488C49096801608DA105F053F888488B
:104B70000068000A7D49087185480068487109206D
:104B8000824908707E49C889002304220221FBF76C
:104B900004FF7B48C089B0F57A7F0EDA7D48407803
:104BA0007C4908700846807848700846C07888704C
:104BB00008460079C870002008717649764805F0EB
:104BC00029F868480078082836D0664800780A280E
:104BD00032D003E0F0E34FE244E3EEE36D4804F04B
:104BE00088FB6C4805F0AFFD064600226D4B05F0D2
:104BF000ECF8044605F04CFA6B4908606048C0893F
:104C0000B0F57A7F03DA69A004F060FB02E068A0E7
:104C100004F05CFB6448007854498871624840782D
:104C2000C8716148807808725F48C078487261A195
:104C3000594804F0EFFF24E04A4800780A280BD1D5
:104C400054485DA10A6802600979017104F051FBC2
:104C50005BA004F03BFB0EE04248007808280AD134
:104C60004C4858490A6802600979017104F041FB17
:104C700053A004F02BFB00203C498871C8710872D6
:104C800048720020454908703D48008900123749A4
:104C900088723B480089C872E3E2384800780028EF
:104CA0005ED10120484908702F48808A3849096838
:104CB00088420BD92C48808A35490968401A022855
:104CC0000FD82948808A324908600AE02648808A3D
:104CD0002F490968081A022803D82348808A2C49DA
:104CE00008602B49096888B2012303220221FBF7DF
:104CF00054FE284804F0FDFA1421344804F07FFFE4
:104D0000012026490870314822490968016024A120
:104D100004F080FF1E480068000A144908711C480E
:104D2000006848710920194908701248006842F269
:104D30000F7188425FD91048007802284AD10D4887
:104D400000680A21B0FBF1F084B2214A0A480078D9
:104D5000401C115C012305222046FBF71EFE55E096
:104D60009DE0000004000020F40000203E0200202E
:104D7000CC01002014000020060000202F0000209D
:104D8000D80000200000002003000020B200002016
:104D90000C000020B4000020020200204A00002085
:104DA0006B563B000000594050000020206D410030
:104DB0006D4100006D413B004F464C20000000005B
:104DC000202000006C2B0108490000202A0200204E
:104DD00059B00108FE4800680A21B0FBF1F084B226
:104DE000FC4AFD480078401C115C01230422204647
:104DF000FBF7D3FD0AE0F74AF74B1B78D15CF44A86
:104E0000126890B201230422FBF7C7FDF048006846
:104E1000F24988421CD0F24804F06BFAF049F1489C
:104E200004F0F8FEEE4805F08EFC044605F030F97B
:104E3000ED49086008460078EC498871EA484078F6
:104E4000C871E94880780872E748C078487216E06F
:104E5000E7A004F04EFAE8A1E24804F0DBFEE848DF
:104E6000E149086008460078E0498871DE484078EA
:104E7000C871DD4880780872DB48C0784872E1A1CB
:104E8000D84804F0C7FEE04800890012D74988726C
:104E9000DD480089C8720020DC490870EBE0022080
:104EA000DB490870DB48C088DB49096888420DD9B6
:104EB000D848C088D8490968401A022813D8D5486C
:104EC000C088D5490860012003900CE0D148C08813
:104ED000D1490968081A022805D8CE48C088CE49A9
:104EE000086001200390CC49096888B2012303229D
:104EF0000221FBF752FDBA4804F0FBF91421C74820
:104F000004F07DFE0120C1490870C448B449096815
:104F10000160AFF2741104F07DFEBF480068000A22
:104F2000BF490871BC48006848710920BD49087034
:104F3000B549C889012304220221FBF72EFDB2489E
:104F4000C089B0F57A7F0EDAA5484078A449087088
:104F50000846807848700846C0788870084600790E
:104F6000C870002008719E49AC4804F053FEAE485A
:104F70000078082837D0AC4800780A2833D0984801
:104F800004F0B7F9964805F0DEFB06460022A74B71
:104F900004F01BFF044605F07BF8934908609A482B
:104FA000C089B0F57A7F04DAAFF2002004F08EF900
:104FB00003E0AFF2042004F089F98B4800789849A7
:104FC000887189484078C871874880780872864817
:104FD000C0784872AFF22421904804F01BFE0020F4
:104FE0008A49087037E0904800780A2815D17C4833
:104FF000AFF23C210A6802600979017104F079F985
:10500000AFF2442004F062F9AFF25821834804F073
:1050100001FE00207D49087017E0834800780828C9
:1050200013D16F4882490A6802600979017104F05E
:1050300060F9AFF2742004F049F9AFF288217748A3
:1050400004F0E8FD0020714908700020744988715F
:10505000C87108724872624805F075FB044605F095
:1050600017F8614908606848008900126C49887225
:1050700065480089C8729BE26648808A664909686B
:1050800088420BD96348808A63490968401A02281C
:105090000FD86048808A604908600AE05D48808ACD
:1050A0005D490968081A022803D85A48808A5A4973
:1050B00008605949096888B2012303220221FBF7DD
:1050C0006CFC474804F015F91421544804F097FD8E
:1050D00001204E4908705148414909680160AFF20A
:1050E000403104F097FD4C480068000A3F490871C0
:1050F00049480068487109204A49087034480068E6
:1051000042F20F71884225D933480078022810D125
:105110002F4800680A21B0FBF1F084B22D4A2E48D6
:105120000078401C115C002305222046FBF735FC6B
:105130001BE0274800680A21B0FBF1F084B2254A41
:1051400025480078401C115C002304222046FBF710
:1051500024FC0AE01F4A204B1B78D15C1C4A1268D1
:1051600090B201230422FBF718FC194800681B4980
:1051700088421CD01A4804F0BCF81949274804F0AA
:1051800049FD174805F0DFFA044604F081FF16498F
:105190000860084600781549887113484078C8713E
:1051A0001148807808721048C078487249E010A011
:1051B00004F09FF80EA1194804F02CFD10480A498C
:1051C000086008460078094988710748407831E04E
:1051D0001400002059B00108060000209F8601003D
:1051E000B40000202A020020500000203E020020CF
:1051F0003E393939390000003E39393900000000A4
:1052000000401C464D3B0000D80000204A00002012
:1052100049000020F40000200C00002002020020C1
:1052200052020020B200002004000020000059407B
:105230006C2B0108C871FB4880780872F948C07867
:105240004872AFF24001F84804F0E4FC0020F7494E
:105250000870F74800890012F6498872F4480089FE
:10526000C872A5E1F448007800287CD10120F349F8
:105270000870F348C088F349096888420DD9F0489E
:10528000C088F0490968401A022813D8EC48C08841
:10529000EC490860012003900CE0E948C088E94926
:1052A0000968081A022805D8E548C088E549086059
:1052B00001200390E349096888B2012303220221F7
:1052C000FBF76BFBE04804F014F81421D64804F017
:1052D00096FC0120D5490870D348DB490968016074
:1052E000AFF2445104F096FCD6480068000AD14958
:1052F0000871D448006848710920D4490870CC4925
:10530000C889012304220221FBF747FBC848C08952
:10531000B0F57A7F0EDACC484078CB490870084661
:10532000807848700846C078887008460079C87050
:1053300000200871C449BC4804F06CFCAFF28C51E9
:10534000B94804F067FC0020B8490870C0480078EC
:10535000082833D0BE4800780A282FD0BA4803F076
:10536000C8FFB94800E05AE005F0EDF90646002212
:10537000B84B04F02AFD044604F08AFEA9490860EF
:10538000AB48C089B0F57A7F04DAAFF2E05003F0A1
:105390009DFF03E0AFF2E85003F098FFA1480078CA
:1053A000A44988719F484078C8719E4880780872E7
:1053B0009C48C078487229E00BE1F8E0A4480078E6
:1053C0000A280DD1A048AFF210610A68026009797D
:1053D000017103F08EFFAFF2186003F077FF0FE06A
:1053E0009B48007808280BD197489B490A680260BF
:1053F0000979017103F07DFFAFF23C6003F066FFB5
:1054000000208C498871C8710872487288480089E8
:1054100000128849887286480089C872C6E0022056
:10542000864908708648808A8649096888420BD96F
:105430008348808A83490968401A02280FD8804827
:10544000808A804908600AE07D48808A7D49096831
:10545000081A022803D87A48808A7A49086079496C
:10546000096888B2012303220221FBF796FA7648E5
:1054700003F03FFF1421794804F0C1FB01206B4980
:1054800008707648704909680160AFF2EC6104F079
:10549000C1FB6C480068000A7149087169480068DE
:1054A00048710920694908706E48006842F20F711E
:1054B000884225D96C480078022810D169480068D4
:1054C0000A21B0FBF1F084B2684A67480078401CBA
:1054D000115C002305222046FBF75FFA1BE06148C0
:1054E00000680A21B0FBF1F084B2604A5E4800789F
:1054F000401C115C002304222046FBF74EFA0AE010
:105500005A4A594B1B78D15C564A126890B2012313
:105510000422FBF742FA53480068554988421CD0E0
:10552000494803F0E6FE48494C4804F073FB4648FE
:1055300005F009F9044604F0ABFD3A490860084655
:1055400000784749887137484078C8713548807875
:1055500008723448C078487218E0AFF26C3003F03B
:10556000C8FEAFF274313D4804F054FB41482D4968
:105570000860084600783A4988712A484078C8711E
:105580002848807808722748C0784872AFF28C317A
:10559000324804F03FFB26480089001230498872E7
:1055A00023480089C87200202049087000E000BF2D
:1055B00000BF0A2025490870002048701C4908894E
:1055C000002304220121FBF7E8F91F4803F091FEB4
:1055D00000BF03F01FFD0A909DF82800662814D034
:1055E00008DC62280DD063280CD064280BD0652815
:1055F00044D109E067280AD0E62807D0E7283DD142
:1056000006E03CE03BE03AE039E000BF00BF00BF0D
:1056100003200F49087007201749087003F0F5FFB1
:10562000FEF7F3BE50000020020200204A000020D6
:10563000D80000203E0200202F000020490000205A
:10564000F40000200C000020B4000020B200002074
:1056500004000020000059406C2B01082A020020A1
:1056600052020020140000200600002059B001085A
:105670009F86010000401C460300002000BF00BFC1
:10568000D048007806283EF4DDAECF480078401CB4
:10569000CD4908700846007801280DD1CB48007824
:1056A000012809D1CA480088022803D0C8480088C8
:1056B000032801D1FEF7B0F903F0A7FF00BFAFE761
:1056C0002DE9F0410027C3484088C5B2FDF7E4FE4C
:1056D000C1480078032827D0052D1FD2DFE805F048
:1056E000040309081D0000BF0820B64908701AE02D
:1056F00000BFB548007801280BD1B74800780428CE
:1057000003D10620AF49087006E00820AD490870B3
:1057100002E00820AB49087005E004E00720A94931
:105720000870BDE8F0812CE0052D1CD2DFE805F003
:10573000040306051A001AE019E018E0A2480078F0
:1057400001280BD1A4480078042803D106209D49E4
:10575000087006E008209B49087002E0082099497B
:10576000087004E003E0072096490870D9E700BFFD
:1057700096480078012804D1FDF734F800209349B9
:1057800008700020954908704870FBF7A6F904F0EE
:1057900052F891480078032807D108208F490870F3
:1057A0000220487048F29F640CE08D480078401C4D
:1057B0008B4908708B480078032803DB0820814957
:1057C0000870AEE759E08FB100270E2083490870BA
:1057D000042048700123042219462046FBF7DDF817
:1057E000814803F073FD732003F062FD0120FAF796
:1057F0007FFD68B178480078032809D07B4884424F
:1058000006D001270A210120FAF76FFD601E84B23D
:10581000012C02DA06206B490870052003F005FC14
:105820000646672E0CD004DC642E07D0652E22D1EC
:1058300005E0682E18D0E72E1DD102E01CE01BE029
:1058400000BF6548007803280AD06848844203D125
:1058500003205C49087006E003205F49087002E0FD
:1058600003205849087007E00020574908700620B7
:105870005449087000E000BF00BF52480078072874
:10588000A1D000BF4DE770B5012503F039FE5148A6
:105890004088022803D04F48408803280DD14B4848
:1058A0000078012812D14848007802280ED1FCF770
:1058B00099FF00204549087008E044480078012815
:1058C00004D1FCF78FFF00204049087044E0012D0F
:1058D00019D100251620414908700220487044481B
:1058E000007830B103F092FD03F06FFE03F0D7FDB6
:1058F00009E003F0A7FF38480078042803D103F03B
:10590000B5FD03F047FE022003F08FFB0446672C31
:1059100019D006DC642C0BD0652C0AD0662C19D16A
:105920000FE0682C06D0E62C0CD0E72C12D10BE04F
:1059300011E010E00020244908700520214908707A
:1059400009E000BF07E000BF03201E49087003F014
:1059500075FD00E000BF00BF1A4800780828B6D0E7
:1059600000202349087070BD10B506E003F0D6FE94
:1059700003F01CFD03201349087012480078012829
:10598000F4D010BD10B518E00A20144908700220A8
:1059900048700420087032204870002406E003F0AC
:1059A00051FF0320FAF785FC601CC4B20A2CF6DB19
:1059B00001200449087003F0D9FE0248007800284D
:1059C000E2D010BD030000202F000020480000207E
:1059D000CC010020F400002004000020B2000020D0
:1059E0001C0000201B000020B40000209F86010046
:1059F000000000202DE9F04107460D4616461C46E2
:105A00000121084601F051F8384602F0BFFD124866
:105A100004801248056046601020104988600846DE
:105A2000C460002008618020486100208861C8614E
:105A3000202008624FF440504862002088623846B7
:105A400002F046FEBDE8F08110B504460121204673
:105A500002F069FE10BD0000560000206802002020
:105A600070B504460020FD49087048700B20B4FB57
:105A7000F0F100FB114000EB0010F94945182846F1
:105A800003F037FC0920F54908700020487003F046
:105A90008AFB0020F149087001204870F14803F0AA
:105AA00028FC70BD2DE9FF5F04464FF0000A03F0AB
:105AB000FBFBED4830F825000190EB4800EB85003A
:105AC000408800900B25E94FDFF8A483A8000390DD
:105AD000002505E017F8010B08F8010B681CC5B29A
