:020000040801F1
:10000000C80700204501010805030108E7050108AC
:10001000EB050108EF050108F305010800000000E9
:10002000000000000000000000000000F7050108CB
:10003000F905010800000000FB050108FD050108A5
:100040005F0101085F0101085F0101085F0101080C
:100050005F0101085F01010887060108AF0601087A
:100060004B0701088F0701085F0101085F010108C4
:100070005F0101085F0101085F0101085F010108DC
:100080005F0101085F0101085F0101085F010108CC
:100090005F0101085F0101085F0101088506010891
:1000A0005F0101085F0101085F0101085F010108AC
:1000B0005F010108FF0501085F0101085F010108F8
:1000C0005F0101085F0101085F0101085F0101088C
:1000D0005F010108070301085F0101085F010108D2
:1000E0005F0101085F0101085F0101085F0101086C
:1000F0005F0101085F0101085F0101085F0101085C
:100100005F0101085F0101085F0101085F0101084B
:100110005F0101085F0101085F0101085F0101083B
:100120005F0101085F0101085F0101085F0101082B
:10013000DFF80CD00AF0A2F9004800478901010855
:10014000C80700200648804706480047FEE7FEE74C
:10015000FEE7FEE7FEE7FEE7FEE7FEE7FEE7FEE777
:10016000678A01083101010870B504460D46E1B205
:10017000264807F029FF00BF8021244807F092FF9E
:100180000028F9D0204670BD4FF48031C80206F037
:100190000CFE62B602201E49087036E01C4800784A
:1001A0000A282CD2DFE800F02B2805080D121A1DB2
:1001B000202302F0D9FA27E009F04AF903F0C8F841
:1001C00022E009F045F903F074F91DE009F040F967
:1001D00000201049087003F070F915E004F086F86B
:1001E00012E005F025FB0FE005F005FC0CE009F03E
:1001F0002FF906F04CF907E005F099FC04E009F04E
:1002000027F905F0A2FC00BF00BFC7E70038014096
:10021000030000200200002010B506F0B9FB4FF4E7
:10022000803006F0D5FB06F012FC012820D100201A
:1002300006F053FC002006F062FC4FF4806006F0EC
:1002400055FC4FF4E0114FF4803006F029FC0120FA
:1002500006F032FC00BF392006F0DDFB0028FAD0A2
:10026000022006F02CFC00BF06F032FC0828FBD16F
:1002700010BD00E0401E0028FCD17047014601EB94
:10028000C1024FF0E0235A6100229A6101221A61F3
:1002900000BF4FF0E022106900F001021AB100F433
:1002A0008032002AF5D000224FF0E0231A619A61D3
:1002B0007047014642F228324A434FF0E0235A6128
:1002C00000229A6101221A6100BF4FF0E0221069FA
:1002D00000F001021AB100F48032002AF5D00022A9
:1002E0004FF0E0231A619A617047054A1154704734
:1002F00001460348405C08B9012070470020FCE734
:1003000019000020704710B540F22551FA4807F057
:10031000DFFE00287ED02021F74807F0D0FEF74806
:1003200090F84800002858D1F54890F82B00002894
:1003300011D10621F24880F84C10EF4807F048FE32
:10034000C4B2EF4890F82C0098B9AA2C04D0002130
:10035000EB4880F82C10B5E0E94890F82C1090F8A4
:100360002C00401CC2B2E64880F82C202E304454A9
:10037000A8E0BB2C1AD1E24890F82C1090F82C0081
:10038000401CC2B2DE4880F82C202E30445401209C
:10039000DB4981F82B00084690F82C1080F82D10CE
:1003A000002180F82C1080F84C108BE0D44890F895
:1003B0002C001E2804DB0021D14880F82C1081E09D
:1003C000CF4890F82C1090F82C00401CC2B2CC48BA
:1003D00080F82C202E30445474E0C84890F848002F
:1003E00001286FD1C64890F82B0000286AD1062159
:1003F000C34880F84C10C04807F0EAFDC4B2C048BA
:1004000090F82C00A0B9112C05D00021BC4880F830
:100410002C1057E074E0BA4890F82C1090F82C009B
:10042000401CC2B2B64880F82C202E30445449E01B
:10043000B34890F82C00012813D1082C04D00021D7
:10044000AF4880F82C103DE0AD4890F82C1090F8A3
:100450002C00401CC2B2AA4880F82C202E304454F4
:1004600030E0A74890F82C001E2804DB0021A448A7
:1004700080F82C1026E0A24890F82C1090F82C0060
:10048000401CC2B29E4880F82C202E3044542E3896
:1004900090F82C00022815DD994890F82C1090F85F
:1004A0003000C01C81420DD10120954981F82B00FC
:1004B000084690F82C1080F82D10002180F82C10A0
:1004C00080F84C108E4890F82B00012801D102F0E2
:1004D000BAFA8C4890F82B00002875D1062188487C
:1004E00080F84C10844807F073FDC4B2854890F83A
:1004F0002C0098B9FF2C04D00021824880F82C10E1
:1005000062E0804890F82C1090F82C00401CC2B299
:100510007C4880F82C202E30445455E0794890F8DF
:100520002C00012813D1EE2C04D00021754880F84E
:100530002C1049E0734890F82C1090F82C00401CC7
:10054000C2B2704880F82C202E3044543CE06D48F4
:1005500090F82C00042821D1DD2C04D0002169481A
:1005600080F82C1030E0674890F82C1090F82C00A0
:10057000401CC2B2634880F82C202E304454012025
:10058000604981F82B00084690F82C1080F82D1057
:10059000002180F82C1080F84C1015E0594890F894
:1005A0002C001E2804DB0021564880F82C100BE09C
:1005B000544890F82C1090F82C00401CC2B25148BE
:1005C00080F82C202E3044544FF458714A4807F0DC
:1005D0007FFD38B10821484807F071FD464807F013
:1005E000F7FCC4B210BD00BFFEE700BFFEE700BFCE
:1005F000FEE700BFFEE7704770477047704710B5D1
:100600000121414807F0A0FB08F0F5FD3F480078C4
:1006100006281DD13E480078401C3D490870084618
:10062000007809281ADD0020087001203949087077
:1006300039480089401C3849088138480068401C06
:100640003649086036480068401C3549086005E0B6
:100650002F48007810B100202D490870002409E0CF
:100660003048005D20B12F48005D401E2D490855DF
:10067000601CC4B2022CF3DB2B48007808B909F0E7
:1006800064F910BD704710B50121284806F0C5F87F
:1006900048B91A48408A30B11C480078062802D16F
:1006A000052023490870012006F03BFC10BD10B561
:1006B0000120FFF7FEFD02211C4806F0AEF8D0B97C
:1006C0001248007806283CD11A480088022807D131
:1006D00019480078012803D107201549087030E037
:1006E00014480088032829D11348007830BB07201C
:1006F0000F49087025E024E000380140F400002094
:10070000940200207B03002000040040030000202E
:100710003E00002001000020D8000020A80000209A
:1007200010000020190000200000002000140140EB
:1007300004000020CC0100202F00002008202049C8
:100740000870022006F0EDFB10BD10B50520FFF784
:10075000B0FD04211B4806F060F8A0B91A480078E3
:10076000032807D018480078072803D016480078D7
:10077000082806D105201449087000201349087084
:1007800001E011480078042006F0CBFB10BD10B545
:100790000120FFF78EFD08210A4806F03EF850B907
:1007A00009480078062803D107200749087002E0AD
:1007B000032005490870082006F0B3FB10BD0000B7
:1007C0000400002000140140030000202F0000203E
:1007D00010B50020FE490870487008F0B8FDFD48CB
:1007E0004088E8B1012804D002287DD003286ED1CA
:1007F0003AE0F94808F03EFE0620F549087001206D
:100800004870F6A008F049FE0E20F149087001205A
:100810004870F3A008F041FEF42008F0DBFDA2E0F0
:10082000F0480078012803D1EF4808F023FE03E0E8
:10083000ED48C01D08F01EFE0620E54908700120A5
:100840004870E448808818B1E4A008F026FE02E071
:10085000E6A008F022FE0E20DD4908700120487055
:10086000E3A008F01AFE7EE0E2480078B0B9DA486A
:1008700008F000FE0620D649087001204870D7A075
:1008800008F00BFE0E20D249087001204870D4A059
:1008900008F003FEF42008F09DFD24E0D148007824
:1008A000012803D1D04808F0E5FD03E0CE48C01D83
:1008B00008F0E0FD0620C649087001204870C548D0
:1008C000808828B1C5A008F0E8FD04E00CE049E00C
:1008D000C6A008F0E2FD0E20BD4908700120487056
:1008E000C3A008F0DAFD3EE0C248007818BBBD485E
:1008F0000078012803D1BC4808F0BCFD03E0BA48E9
:10090000C01D08F0B7FD0620B149087001204870ED
:10091000B048808818B1B1A008F0BFFD02E0B3A0D4
:1009200008F0BBFD0E20AA49087001204870B0A055
:1009300008F0B3FD15E0A84808F09CFD0620A44986
:10094000087001204870A5A008F0A7FD0E20A0495E
:10095000087001204870A2A008F09FFDF42008F064
:1009600039FD00E000BF00BF072099490870002052
:1009700048709BA008F091FD964909783131C8B2C2
:1009800008F06AFD0F20924908700020487073201B
:1009900008F068FD04208E4908700120487096A078
:1009A00008F07BFD10BD8B484A2102E00022027056
:1009B000401C0A1EA1F1010399B2F7D18F4B1A70A6
:1009C0007047002010E0834A921C02EB40010A8825
:1009D0008B4B33F820309A4204DD894A02EB8002C7
:1009E00052880A80421CD0B20D28ECDB7047F0B56B
:1009F00004461D46052A00DD052202B9012204290C
:100A000000DD0421914200DD1146002004E0202693
:100A10007C4F3E54461CF0B20828F8D3104611E033
:100A20000A2694FBF6F706FB17463036F7B2461E49
:100A3000DFF8D0C10CF806700A2694FBF6F6B4B2C3
:100A4000461EF0B20028EBDC81B11346084605E0F3
:100A50005E1E6C4FBE5DFE545E1EF3B2061EA0F11C
:100A60000107F8B2F4D12E26664FFE54A5B9002036
:100A70000EE0644E365C302E07D1624F461CBE5DE0
:100A80002E2E02D020263E5400E004E0461CF0B298
:100A9000561E8642EDDC00BF09B1561CF2B210466C
:100AA00004E00026574F3E54461CF0B20828F8D305
:100AB000F0BD10B5474890F8480018B9524808F002
:100AC000D9FC07E0434890F84800012802D14F487C
:100AD00008F0D0FC10BD10B53E4890F8480020B991
:100AE0004948153008F0C6FC08E03A4890F848003C
:100AF000012803D14548153008F0BCFC10BD10B5E5
:100B000043A008F0B7FC10BD10B5002030490870B4
:100B1000487008F01CFCFFF7CCFF00202C4908703F
:100B20000120487008F013FCFFF7D5FF10BD10B589
:100B30002C490978C1EBC101384A881808F0ADFC8E
:100B400010BD10B523484088032802DD002021494C
:100B5000488000201E490870487008F0F8FB1D49C5
:100B6000498801EB41012E4A02EB410008F095FC57
:100B70000720174908700020487016490978481C5A
:100B800001231A460021FFF732FF15A008F085FC6B
:100B90001C4808F06FFC0F484088012803DD21A0A5
:100BA00008F068FC02E020A008F064FC0A20084974
:100BB000087008484088032803D006484088012868
:100BC00037D10449488B0023042201212EE0000084
:100BD000B2000020F40000203BAA010844430000BA
:100BE0004D0000000400002049AA01084143000014
:100BF0006D4100002F0000206B5600000200002015
:100C0000ECB00108B40000200CB20108A3B1010847
:100C10004A756E20203820323032310056B101083A
:100C2000BDAA01085F00000020000000FFF7DFFE02
:100C300006E0FB49C889002304220121FFF7D7FE03
:100C4000F84808F02AFCF8A008F014FC0020F74946
:100C5000087001204870F248808840B9F048C08888
:100C6000B0F5167F03DD4FF41671ED48C180EC48F6
:100C7000408801280AD1EA49888A002303220221F8
:100C8000FFF7B5FE0121E648818012E0E448408884
:100C9000032807D1E249888A002303220221FFF7B3
:100CA000A6FE06E0DE49C888002303220221FFF7E2
:100CB0009EFEDC4808F0F1FBAFF2C40008F0DAFB5E
:100CC0001421DB4809F06FF8D948DAA109680160FE
:100CD000DAA109F073F8D2484088032812D1D0492C
:100CE000C888002303220221FFF781FE1421D44883
:100CF00009F059F8D248CFA109680160CFA109F0E5
:100D00005DF815E0C6484088022811D1C449888A98
:100D1000002303220221FFF76AFE1421C84809F0CC
:100D200042F8C748C3A109680160C4A109F046F8A8
:100D3000BB48808840B9BA484088032804D0AFF245
:100D4000541008F097FB03E0AFF2701008F092FB2C
:100D5000B3484088032803D0B148408801282FD1E8
:100D60000A20B2490870AE49C88A002304221946F5
:100D7000FFF73DFEAB4808F090FBAFF29C1008F087
:100D800079FBF42008F026FBAEA1AD4809F016F877
:100D9000AEA1AB4809F012F8A148408803283BD126
:100DA0009F490889002304220221FFF720FEA1A108
:100DB0009F4809F003F8A6A19D4808F0FFFF2BE02B
:100DC00009209A49087096490889002304220221C3
:100DD000FFF70DFE934808F060FBAFF2EC1008F04F
:100DE00049FB94A1924808F0E9FF99A1904808F0C6
:100DF000E5FF8B48408802280ED18949C88A002324
:100E000004220221FFF7F3FD8EA18D4808F0D6FFE2
:100E10008EA18B4808F0D2FF10BD70B505468D48F5
:100E2000047804F03F0475B1012D09D0022D04D0DF
:100E3000032D09D144F0C00409E044F0800406E029
:100E400044F0400403E002E044F0C00400BF00BFEF
:100E5000804804700020804908607E480078C043C4
:100E600000067C49097840EA01207C49086001209D
:100E70007B49C1F890016420FFF71BFA70BD70B583
:100E800004460020694908704870254604EBD57176
:100E90004910A4EB4101C1EBC10101EB4101714AD1
:100EA000881808F0FAFA002060490870012048709C
:100EB0006D4808F0F2FA70BDF8B5044601275B48AA
:100EC00000788DF80000594840788DF801002068BE
:100ED00008F080FFC6B2701CC6B2082E00DD0826DE
:100EE00052E067B19DF80000504908709DF801007C
:100EF0004870A288216806FB021008F0CEFA0A208A
:100F000008F067F90546E12D15D009DCA5F161006F
:100F1000082837D2DFE800F00E201136362E3331A4
:100F2000A5F1E20007282DD2DFE800F017082C2CED
:100F3000252A280000BF6120F8BD00BF0127A08836
:100F40006189884203DDA088401EA08003E060899B
:100F5000A08008F04BFD16E000BF0127A088401CD0
:100F6000A080A0882189884203DD2089A08008F024
:100F70003DFD08E000BF6620DEE700BF00BF00BF08
:100F80006720D9E700BF00BFABE710B504460020DB
:100F900026490870487004EB840101EBC401334A10
:100FA000881808F07AFA002020490870012048705B
:100FB0002F4808F072FA10BD10B504460A2094FBC1
:100FC000F0F100FB1140C4B234B1012C11D0022C5D
:100FD00019D0032C5BD14DE0124808F05EFA2020B6
:100FE00008F03AFA562008F037FA202008F034FAD0
:100FF0004EE00C4808F051FA202008F02DFA73203A
:1010000008F02AFA44E0074808F047FA202008F0E0
:1010100023FA4D2008F020FAF42008F01DFA37E0FA
:10102000F4000020B400002073000000B200002093
:1010300002020020302E3030000000006B563B00D2
:101040002A0200202020302E300000004D3B0000FE
:101050006D413B00A5000020908122421014014008
:10106000008022420AAF01085EAF0108DCAF010830
:10107000C7AF0108F64808F010FA202008F0ECF994
:101080004D2008F0E9F9F42008F0E6F900E000BF8F
:1010900000BF10BD10B504460020EE49087048702E
:1010A0000E2C13D2DFE804F007131F636465666734
:1010B0006869AAABACADE8A008F0EFF90020E549FB
:1010C000087001204870E9A008F0E7F9B9E0EBA04A
:1010D00008F0E3F90020DF49087001204870EB4870
:1010E00008F0DBF9ADE0EA484088C8B1012804D037
:1010F000022817D0032837D113E0A11EE54A02EBDE
:10110000011008F0CAF90020D24908700120487087
:10111000611E01EB0111DD4A881808F0BEF924E0D8
:1011200000BF00BF0020CB4908704870A11EDA4AFA
:1011300002EB011008F0B1F90020C6490870012047
:101140004870D348808838B9A11E01EB0111D34AF9
:10115000881808F0A2F906E0A11E01EB0111D04A9F
:10116000881808F09AF900E000BF00BF69E000BFEE
:1011700000BF00BF00BF00BF00BFC5484088C8B166
:10118000012804D0022817D0032834D113E0A11E6F
:10119000C04A02EB011008F080F90020AD49087048
:1011A00001204870611E01EB0111B84A881808F04F
:1011B00074F921E000BF00BFA11E01EB0111B94A83
:1011C000881808F06AF90020A249087001204870C8
:1011D000AF48808838B9611E01EB0111AF4A881809
:1011E00008F05BF906E0611E01EB0111AC4A8818BA
:1011F00008F053F900E000BF00BF22E000BF00BFCD
:1012000000BFA11E01EB0111A64A881808F045F99C
:101210000C2C01D00B2C07D10E208E490870002019
:101220004870F42008F01EF900208A490870012057
:101230004870611E01EB01119B4A881808F02DF9D6
:1012400000BF00BF10BD2DE9F84304464FF001096F
:10125000804800788DF800007E4840788DF80100C5
:101260000027A07908B9032600E00426A4E1B9F11B
:10127000000F10D09DF80000764908709DF801001D
:101280004870A389DAB2A179A0880023FFF7AFFBE9
:101290006F4808F002F90A2007F09BFF8046B8F17A
:1012A000E10F15D009DCA8F16100082872D2DFE84F
:1012B00000F00E9C127171CECDCCA8F1E20007288F
:1012C000F4D2DFE800F0FA3F6767F9F8F70000BFF3
:1012D0006120BDE8F8834FF0010900277348807949
:1012E000C0F10300B04202DA701EC5B200E035461C
:1012F0006F4830F8150061890844A188884206DCEF
:10130000A0886B4931F81510401AA08019E0608957
:10131000052802D06089062813D16089062806D1E5
:10132000A08810B10020A08001E008F05FFB608978
:10133000052806D1A08810B10020A08001E008F0A7
:1013400055FB38E14FF00109781CC7B25748807946
:10135000C0F10300B04202DA701EC5B200E03546AB
:101360001C2F0CDD002D01DD681EC5B2002D01DD36
:10137000681EC5B2002D14DD681EC5B211E0132F22
:1013800009DD002D01DD681EC5B2002D09DD681ED6
:10139000C5B206E009E10A2F03DD002D01DD681E5C
:1013A000C5B2434830F8150061890844A1888842D5
:1013B00006DCA0883E4931F81510401AA08013E0E1
:1013C0006089062806D1A08810B10020A08001E025
:1013D00008F00CFB6089052806D1A08810B1002018
:1013E000A08001E008F002FBE5E04FF001090027D2
:1013F0002E488079C0F10300B04202DA701EC5B2F7
:1014000000E035466089062802D06089052855D15C
:10141000608906280AD1A08810B90620A08005E0BE
:10142000A088234931F815100844A0806089052858
:1014300052D1A08810B90520A0804DE0A0881C4999
:1014400031F815100844A08046E0A9E0AAE0A4E025
:10145000B4000020B20000204D656D6F72793D2010
:1014600020202020202020200000000052616E67F4
:10147000653A312D392020202020200054657374D6
:1014800020203D202020202020202000D5AA010857
:10149000F400002057AA01082AAB0108AAAB0108F2
:1014A000ECAD010843AC01080FAD0108C8000020F5
:1014B00018AA010875E076E070E00EE0A088F8490F
:1014C00031F815100844A080A0882189884203DDE6
:1014D0002089A08008F08AFA6DE04FF00109781C9D
:1014E000C7B2F0488079C0F10300B04202DA701E42
:1014F000C5B200E035461C2F0CDD002D01DD681E55
:10150000C5B2002D01DD681EC5B2002D13DD681EB9
:10151000C5B210E0132F08DD002D01DD681EC5B235
:10152000002D08DD681EC5B205E00A2F03DD002D81
:1015300001DD681EC5B26089062802D060890528D1
:101540001CD1608906280AD1A08810B90620A08085
:1015500005E0A088D24931F815100844A0806089C0
:10156000052819D1A08810B90520A08014E0A08812
:10157000CB4931F815100844A0800DE0A088C84977
:1015800031F815100844A080A0882189884203DD25
:101590002089A08008F02AFA0DE000BF662098E6B6
:1015A00000BF08E000BF672093E6BF4880780128AD
:1015B00000D0002700BF00BF59E62DE9F04100250B
:1015C00000260027B948C08940F6D861884211DD5D
:1015D000012500BF002405E00020B54941F82400A2
:1015E000601CC4B20C2CF7DB0020B2490870B24971
:1015F000088009E0AD48C089B0F5B47F02DA012661
:10160000002501E0002500260027AC4800780028CE
:1016100016DD012D14D1A9480078401EA749087095
:101620000127002405E00020A14941F82400601CA6
:10163000C4B20C2CF7DB00209E4908709E4908803C
:101640009E480078042816DA012E14D19B480078B1
:10165000401C9A4908700127002405E000209449A5
:1016600041F82400601CC4B20C2CF7DB0020914927
:10167000087091490880012F06D190480078FFF743
:10168000CCFB3220FEF715FEBDE8F08101B590B02D
:101690000021109808F0ECFD10D2109808F089FD98
:1016A0000022874BCDE9060108F063FCCDE9080173
:1016B00008F0C2FD1090012082490870109808F0CF
:1016C00078FD814A814BCDE9080108F085FD01D202
:1016D00011B000BD109808F06CFD7D4A7D4BCDE93E
:1016E000080108F091FD58D2109808F062FD784A80
:1016F000784BCDE9060108F0AEFCCDE9080108F011
:101700009BFD0E9074480D9000200B9026200A90AF
:101710003FE0DDE90D1008F0EEFB4FF07E5109903F
:1017200008F0A6FD0ED20D9808F043FD00226B4B89
:10173000CDE9060108F08FFCCDE9080108F07CFD39
:101740000D9000E028E00D9808F033FD644A654BE9
:10175000CDE9020108F00DFCCDE90601109808F072
:1017600028FDCDE90401DDE9062308F074FCCDE98C
:10177000080108F005FD0C9052490C9848600A9841
:1017800008720B98401C40B20B900A98401E40B261
:101790000A900B980428BCDB13E2109808F009FDAE
:1017A000514A524BCDE9080108F02EFD58D210984D
:1017B00008F0FFFC4C4A4D4BCDE9060108F04BFC0C
:1017C000CDE9080108F038FD0E9049480D90002041
:1017D0000B9023200A903FE0DDE90D1008F08BFB11
:1017E0004FF07E51099008F043FD0ED20D9808F09D
:1017F000E0FC0022394BCDE9060108F02CFCCDE9D4
:10180000080108F019FD0D9000E028E00D9808F09F
:10181000D0FC384A384BCDE9020108F0AAFBCDE9EB
:101820000601109808F0C5FCCDE90401DDE90623A6
:1018300008F011FCCDE9080108F0A2FC0C90214948
:101840000C9848600A9808720B98401C40B20B90A4
:101850000A98401E40B20A900B980828BCDB9BE710
:10186000109808F0A6FC254A254BCDE9080108F0A0
:10187000CBFC7DD2109808F09CFC204A204BCDE98F
:10188000060108F0E8FBCDE9080108F0D5FC0E9050
:1018900017480D9000200B901C200A9074E0000067
:1018A00018AA0108C8000020AC000020D8000020C1
:1018B0007C01002007000020080000200600002016
:1018C0000000F0BFE8000020ECCFC55FFFFF0F383D
:1018D000824DC7726142334700007A4400002440C1
:1018E00021D7E6FAE031F44581121F2FE727C045E2
:1018F0008096184B92D54D06CFF0804450EFE2D63B
:10190000E41A4B44DDE90D1008F0F5FA4FF07E5172
:10191000099008F0ADFC0ED20D9808F04AFC0022A8
:10192000F74BCDE9060108F096FBCDE9080108F078
:1019300083FC0D9000E02AE00D9808F03AFCF14A93
:10194000F14BCDE9020108F014FBCDE90601109836
:1019500008F02FFCCDE90401DDE9062308F07BFB4C
:10196000CDE9080108F00CFC0C90E8490C9800E067
:101970000EE048600A9808720B98401C40B20B9029
:101980000A98401E40B20A900B980828BADBA0E3E0
:10199000109808F00EFCDE4ADE4BCDE9080108F095
:1019A00033FC58D2109808F004FCD94AD94BCDE941
:1019B000060108F050FBCDE9080108F03DFC0E904F
:1019C000D5480D9000200B9015200A903FE0DDE9EE
:1019D0000D1008F090FA4FF07E51099008F048FC85
:1019E0000ED20D9808F0E5FB0022C54BCDE90601AB
:1019F00008F031FBCDE9080108F01EFC0D9000E075
:101A000028E00D9808F0D5FB0022C44BCDE9020177
:101A100008F0AFFACDE90601109808F0CAFBCDE94D
:101A20000401DDE9062308F016FBCDE9080108F002
:101A3000A7FB0C90B5490C9848600A9808720B985F
:101A4000401C40B20B900A98401E40B20A900B987E
:101A50000828BCDB3DE3109808F0ABFB0022B04B3C
:101A6000CDE9080108F0D0FB58D2109808F0A1FB8E
:101A70000022AB4BCDE9060108F0EDFACDE90801F3
:101A800008F0DAFB0E90A4480D9000200B900D207A
:101A90000A903FE0DDE90D1008F02DFA4FF07E517D
:101AA000099008F0E5FB0ED20D9808F082FB0022A9
:101AB000934BCDE9060108F0CEFACDE9080108F014
:101AC000BBFB0D9000E028E00D9808F072FB0022AF
:101AD0008B4BCDE9020108F04CFACDE906011098D4
:101AE00008F067FBCDE90401DDE9062308F0B3FA4D
:101AF000CDE9080108F044FB0C9084490C9848603B
:101B00000A9808720B98401C40B20B900A98401E2D
:101B100040B20A900B980828BCDBDAE24FF07E5105
:101B2000109808F0AFFB4DD210980E907A480D90A7
:101B300000200B9007200A9021E0DDE90D1008F04D
:101B4000DAF94FF07E51099008F092FB0ED20D9811
:101B500008F02FFB00226A4BCDE9060108F07BFA62
:101B6000CDE9080108F068FB0D9000E00AE00B9851
:101B7000401C40B20B900A98401E40B20A900B984D
:101B80000828DADB00BF0D9808F013FB654A664BA6
:101B9000CDE9020108F0EDF9CDE90601109808F051
:101BA00008FBCDE90401DDE9062308F054FACDE98C
:101BB000080108F0E5FA0C9054490C9848600A981E
:101BC000087286E2109808F0F4FA584A584BCDE9AA
:101BD000080108F019FB59D2109808F0EAFA00221F
:101BE0004F4BCDE9060108F0C4F9CDE9080108F032
:101BF00023FB0E9048480D9000200B900A9041E086
:101C0000DDE90D1008F077F94FF07E51099008F0EA
:101C10002FFB0ED20D9808F0CCFA0022384BCDE9FC
:101C2000060108F018FACDE9080108F005FB0D904F
:101C300000E02AE00D9808F0BCFA02460B46CDE918
:101C400002013C483C4908F006FACDE9060110982B
:101C500008F0AFFACDE90401DDE9062308F089F9BF
:101C6000CDE9080108F08CFA0C9028490C984860DE
:101C70000A9808720B98401C40B20B900A98401EBC
:101C800040B20A900B980828BADB22E2109808F0BC
:101C900090FA2A4A2A4BCDE9080108F0B5FA7ED21B
:101CA000109808F086FA1A4A1A4BCDE9060108F096
:101CB00060F9CDE9080108F0BFFA0E9016480D90C2
:101CC00000200B90C01F0A9064E0DDE90D1008F0C1
:101CD00012F94FF07E51099008F0CAFA0ED20D9811
:101CE00008F067FA0022064BCDE9060108F0B3F9C7
:101CF000CDE9080108F0A0FA0D9023E04DE00000C6
:101D00000000244000003426F56B0C43E80000205E
:101D10000000901EC4BCD6428096184B84D79741D1
:101D2000D01263418DEDB5A0F7C6B03E48AFBC9A66
:101D3000F2D77A3E000040E59C30A2429B2BA18660
:101D40009B84063D0D9808F034FA02460B46CDE917
:101D50000201F748F74908F07EF9CDE9060110982D
:101D600008F027FACDE90401DDE9062308F001F9BE
:101D7000CDE9080108F004FA0C90EF490C9848608E
:101D80000A9808720B98401C40B20B900A98401EAB
:101D900040B20A900B98082897DB9AE1FFE7109869
:101DA00008F007FAE54AE64BCDE9080108F02CFAFD
:101DB0005BD2109808F0FDF9E24AE34BCDE9060149
:101DC00008F0D7F8CDE9080108F036FA0E90DF48A0
:101DD0000D9000200B906FF00D000A9041E0DDE9BE
:101DE0000D1008F088F84FF07E51099008F040FA85
:101DF0000ED20D9808F0DDF90022D54BCDE9060191
:101E000008F029F9CDE9080108F016FA0D9000E074
:101E10002AE00D9808F0CDF902460B46CDE9020103
:101E2000CC48CD4908F017F9CDE90601109808F023
:101E3000C0F9CDE90401DDE9062308F09AF8CDE9FF
:101E4000080108F09DF90C90BB490C9848600A986D
:101E500008720B98401C40B20B900A98401E40B28A
:101E60000A900B980828BADB33E1109808F0A1F922
:101E7000BA4ABB4BCDE9080108F0C6F95BD210980D
:101E800008F097F9B74AB84BCDE9060108F071F8A8
:101E9000CDE9080108F0D0F90E90AC480D90002073
:101EA0000B906FF014000A9041E0DDE90D1008F08E
:101EB00022F84FF07E51099008F0DAF90ED20D9811
:101EC00008F077F90022A24BCDE9060108F0C3F82B
:101ED000CDE9080108F0B0F90D9000E02AE00D9876
:101EE00008F067F902460B46CDE902019F48A04978
:101EF00008F0B1F8CDE90601109808F05AF9CDE9DB
:101F00000401DDE9062308F034F8CDE9080108F002
:101F100037F90C9088490C9848600A9808720B9819
:101F2000401C40B20B900A98401E40B20A900B9899
:101F30000828BADBCDE0109808F03BF98D4A8E4BAB
:101F4000CDE9080108F060F961D2109808F031F984
:101F50008A4A8B4BCDE9060108F00BF8CDE9080160
:101F600008F06AF90E9079480D9000200B906FF000
:101F70001B000A9047E0DDE90D1007F0BCFF4FF0B1
:101F80007E51099008F074F90ED20D9808F011F9FD
:101F900000226F4BCDE9060108F05DF8CDE908019C
:101FA00008F04AF90D9000E030E00D9808F001F9D2
:101FB00002460B46CDE900017048714908F04BF824
:101FC000CDE90401109808F0F4F8CDE90201DDE94B
:101FD000042307F0CEFF00226A4BCDE9060107F08B
:101FE000C8FFCDE9080108F0CBF80C9052490C98D5
:101FF00048600A9808720B98401C40B20B900A98EF
:10200000401E40B20A900B980828B4DB61E010989B
:1020100008F0CFF85C4A5D4BCDE9060107F0A9FF57
:10202000CDE9080108F008F90E9059480D900020FC
:102030000B906FF022000A9047E0DDE90D1007F0E9
:102040005AFF4FF07E51099008F012F90ED20D9808
:1020500008F0AFF800223E4BCDE9060107F0FBFF88
:10206000CDE9080108F0E8F80D9000E030E00D98A7
:1020700008F09FF802460B46CDE90001424843496B
:1020800007F0E9FFCDE90401109808F092F8CDE9D6
:102090000201DDE9042307F06CFF0022394BCDE992
:1020A000060107F066FFCDE9080108F069F80C9019
:1020B00021490C9848600A9808720B98401C40B25D
:1020C0000B900A98401E40B20A900B980428B4DB8B
:1020D00000BF00BFFFF7FCBA70B500252D4800789F
:1020E000401C2C4908702C48C08949F64041884260
:1020F00004DC2948C089B0F5FA6F06DA2748007871
:10210000042802D000202349087025498A682549FF
:102110000888411C234B1980234941F82020184688
:1021200000880C2802DB002019460880002446E0C5
:10213000408CB5781DAF1544E80000204F9B0E0A77
:10214000B4E3923B50EFE2D6E41A4B448096184B2E
:10215000000024400284FEE471D98945196050BE14
:10216000F6B01F3A81121F2FE727C045037CD8EA3B
:102170009BD0FE460F7AF8B7A595AA38824DC77254
:102180006142334780842E41B1A1162AD3CED24773
:1021900000007A4407000020D8000020060000203C
:1021A0006C010020080000207C010020FE4850F84F
:1021B0002410284607F015FE0546601CC4B20C2CFE
:1021C000F4DBFA4800780C2808DBF949284607F0C8
:1021D00092FEF84988600C20F4490870F549886837
:1021E000FFF754FAF44840684FF47A71B0FBF1F00D
:1021F000F149486070BD70B5EE49C86807F09AFFB4
:102200000546EC480168284607F043FE0446E948C5
:102210004168204607F06FFEE649886070BD10B542
:10222000E648C0890A2802DA0A20E449C881E3495D
:10223000C88907F07FFFDF494860E148E149097834
:1022400050F82100DB49C860FFF7D5FF10BD2DE92C
:10225000F0410024012717E2012FFCD100270E2CAA
:1022600015D2DFE804F0071524494A4B4C4D9F4E28
:10227000BFC0C1C2D44D2888401CD44988800920E1
:102280000881012048810020887101208881CEE0EA
:10229000CD4DAD1CCE48CD490860288888800320EC
:1022A000088100204881887101208881BFE0C648EC
:1022B000408838B1012804D0022805D0032819D15C
:1022C00001E017E000BF00BFBF488088012802DDA1
:1022D0000021BD488180BC4D2D1DBE48BB49086012
:1022E0002888888001200881002048818871012089
:1022F000888100BF00BF9AE000BF00BF00BF00BFE1
:1023000000BFB148408838B1012804D0022805D068
:10231000032845D101E043E000BF00BFAA48801D6B
:1023200000EB4400851FA8488088E0B9AA48A74967
:10233000086028888880601EA84931F82000A349D9
:102340000881601EA54901EB800040889F494881B3
:10235000E01EA34911F810009C498871A14830F88B
:10236000140088811BE09C48984908602888888070
:10237000601E9D4931F8200094490881601E9A49E9
:1023800001EB8000408891494881E01E944911F892
:1023900010008E498871934830F81400888100BF7E
:1023A00000BF44E08848008A012802DD00218648F9
:1023B0000182854D10358D488449086028888880C1
:1023C000601E864931F8200080490881601E8349DB
:1023D00001EB800040887D49488100208871012000
:1023E000888124E000BF00BF00BF7748801D00EB5C
:1023F0004400851F7E487549086028888880601ED3
:10240000764931F8200071490881601E734901EB5B
:10241000800040886D494881E01E714911F8100024
:102420006A4988716F4830F81400888100BF00BF86
:102430002046FEF72FFE0E2C76D2DFE804F00711BF
:102440001B252F39434D57616B7677780A206949F0
:102450000870002048705D48FEF7F5FE804671E088
:10246000082064490870002048705848FEF724FD91
:10247000804667E00A205F49087000204870534892
:10248000FEF71AFD80465DE00A205A4908700020D8
:1024900048704E48FEF7D7FE804653E00720554966
:1024A0000870002048704948FEF7CDFE804649E09C
:1024B000072050490870002048704448FEF7C3FECA
:1024C00080463FE007204B490870002048703F4895
:1024D000FEF7B9FE804635E0082046490870002026
:1024E00048703A48FEF7AFFE80462BE0072041498E
:1024F0000870002048703548FEF7DEFC804621E079
:1025000007203C490870002048703048FEF79BFEC9
:10251000804617E00A2037490870002048702B4891
:10252000FEF791FE80460DE00BE000BF00BF0820E3
:1025300030490870002048702448FEF784FE804629
:1025400000E000BF00BF44B920488088401E2880BA
:1025500006F0EFFFFEF735FA02E01C48808828807D
:10256000B8F1680F72D009DCA8F1610007286ED2BB
:10257000DFE800F00E6E708888728300A8F1E10039
:1025800008287FD2DFE800F00565677E7E7E7A78D6
:1025900000BF0D484088012802D1012C00D1092438
:1025A00009488088012827E07C01002007000020DE
:1025B000000040416C010020E8000020D80000200D
:1025C00020AA010806000020F4000020C800002016
:1025D000A5AA010897AA01082AAB0108B8B001080A
:1025E00020B1010836B1010884B001089FAA010892
:1025F00043AC0108B200002006D1072C04D1601CB6
:10260000C4B2601CC4B201E0601CC4B2012C1BDD6A
:102610005048408840B1012804D0022807D0032840
:1026200007D103E00E2606E00A2604E000BF0E26CE
:1026300001E00E2600BF00BFB44205DB00240320EA
:102640004549087006F064FF01271CE013E019E01B
:1026500000BF18E000BF16E03E48C088012802D144
:1026600002213C48C18003203B49087006F050FF1E
:1026700006F01CFF07E000BF05E000BF032036495D
:10268000087000E000BF00BF3348007804283FF422
:10269000E3ADBDE8F081704702460B4688B2704753
:1026A00010B54FF480732D4A2D492E4803F076FA69
:1026B0002C4803F09DFA10BDF0B50446059D274651
:1026C0000E4602B9012207FB06FCBCFBF5FC0CFB25
:1026D00003FCBCFBF2F0F0BD30B50246002006E082
:1026E000145C0A2594FBF5F4E3B2441CE0B2884282
:1026F000F6DB30BD70B502460C46002012E0135CDC
:10270000DD1703EB15752911135CDD1703EB157548
:102710002D11A3EB051501EB810605EB46051554BC
:10272000431CD8B2A042EADB70BD30B50B4601466F
:10273000C41700EB1474C4F30712C41700EB14742D
:102740002411A0EB041402EB820504EB4504E0B273
:1027500030BD0000F40000200300002018A901088B
:102760000C1001401C00024070B507F0ABF807F0F8
:102770003EF800214FF0804005F00CF8FEF713F909
:1027800006F09BFE06F099FE06F0D3FE06F0A5FECD
:1027900006F0E0FEFEF715F9F4480078082802DD9F
:1027A0000020F249087007F013F906F01BFFFEF74E
:1027B000ABF90020EE490870002438E0601CC4B278
:1027C000142C02DD0320EB4908700A2006F001FDFD
:1027D0000546682D25D009DCA5F16100072824D223
:1027E000DFE800F01517190E1B1D2000A5F1E10010
:1027F00007281AD2DFE800F00C0E1005121417009B
:1028000000BF0920DB49087007F0E9F80EE000BFBF
:102810000CE000BF0AE000BF08E000BF06E000BF18
:1028200004E003E000BF142400E000BF00BFD14873
:1028300000780228C2D006F0C1FF70BD10B55A2042
:10284000CD490870592048705A20CC490870592049
:102850004870C648008ACA49097860F30411C8481C
:102860000170C248408AC649097860F30301C44830
:1028700001700078C049C870C1480078BF49C8706D
:10288000C0480078002867D1BF48008870B9BF48A9
:102890000078032805D0042807D10020B6498870A5
:1028A00003E00120B449887000BF55E0B6480088B5
:1028B00001280ED1B5480078032805D0042807D197
:1028C0000620AD49887003E00720AB49887000BF3F
:1028D00042E0AD48008803281DD1AC4800780328A9
:1028E00008D0042816D10620A34988700020A349E7
:1028F00088700FE0A6480078012803D107209E4980
:10290000887006E0A2480078022802D101209B4985
:10291000887000BF20E09C48008802281CD19B489A
:102920000078032808D0042815D100209249887027
:102930000620924988700EE095480078012802D15F
:102940008D49887006E092480078022802D107205D
:102950008A49887000BF00BF8A48007820B38A483F
:10296000008810BB89480078C01E06281CD2DFE80A
:1029700000F00F0313070B1700207F49887013E046
:1029800002207D4988700FE003207B4988700BE0AE
:1029900001207949887007E004207749887003E0B6
:1029A00005207549887000BF1FE07748008801281E
:1029B0001BD176480078032812D0042804D00628BA
:1029C00006D0072810D107E006206B4988700BE07D
:1029D00008206949887007E009206749887003E08A
:1029E00007206549887000BF00BF6748008803283A
:1029F00003D065480088022812D100240DE05F480A
:102A0000015D644805F0E0FA00BF8021614805F0EF
:102A100049FB0028F9D0601CC4B20C2CEFDB11E09C
:102A200000240DE05448015D5A4805F0CDFA00BF7E
:102A30008021584805F036FB0028F9D0601CC4B24C
:102A40000C2CEFDB10BD2DE9F04190B0FF260027E4
:102A5000514890F82B00A0B14F4890F830004349FE
:102A600081F848001E214C482E3007F09CF90020C8
:102A7000494981F82B000021474880F82C1006F0C6
:102A800023FD3A4890F8480000286BD1434890F85D
:102A90002B00002867D01C2101A807F084F91C2214
:102AA0003E49303101A807F065F93C4890F82F60A5
:102AB00090F830500020394981F82B000021374828
:102AC00080F82C10EE2E4FD008DCCC2E4DD0CE2E20
:102AD0000BD0DD2E7ED0DE2E7DD1C3E1F22E7BD059
:102AE000F32E7AD0F42EF7D136E3284800780B285D
:102AF0007DD2DFE800F0067C7C0D14301B22297C9F
:102B00007400274827A10A6802600979017175E0FD
:102B1000234824A10A680260097901716EE0204807
:102B200022A10A6802600979017167E01C4821A1AD
:102B30000A6802600979017160E019481FA10A68FA
:102B400002600979017159E015481EA10A68026006
:102B50000979017152E012481CA10A6802600979E2
:102B600001714BE009E307E39DE161E1F40000201E
:102B700005000020030000203E0200205202002039
:102B80005400002000000020CC01002004000020A0
:102B90002F000020003801407B0300209402002019
:102BA000400000202D2D2D2D0000000050415353DA
:102BB0000000000048494748000000004C4F5720E3
:102BC0000000000042524B20000000004152432010
:102BD0000000000033E1CEE243E141E107E0FE48BE
:102BE000AFF230010A6802600979017106E0FA4823
:102BF000FAA10A6802600979017100BF00BFF948B3
:102C00004088022803D0F748408803287ED1F64840
:102C1000007800287BD10120F34908702821F3486F
:102C200007F0C1F8F248007840B9F249EF4807F0E0
:102C3000C5F8E949ED4807F0C1F854E0EE480078DE
:102C4000012816D1EB49E94807F0B8F8E548408873
:102C5000022804D1E049E54807F0B0F843E0E14834
:102C6000408803283FD1AFF2C401E04807F0A6F83E
:102C700039E0DC48408802281AD1DE48407B3B28F6
:102C800006D1DC48AFF2DC010968C0F80E1009E09B
:102C9000D848807B3B2805D1D648AFF2F0010968BF
:102CA000C0F80F101222D349D04807F063F81AE099
:102CB000CC484088032816D1CE48407B3B2805D11C
:102CC000CC48C5490968C0F80E1008E0C948807BA7
:102CD0003B2804D1C748C0490968C0F80F10C5494E
:102CE000C24807F06BF8C5A1C04807F067F8C449AF
:102CF000BE4807F063F8C0480078012815D1B948EC
:102D00004088022808D1AFF2641101E053E03AE0B4
:102D1000B64807F053F81AE0B2484088032816D1A5
:102D2000AD49B24807F04AF811E0AE4840880228A1
:102D300004D1A949AD4807F041F808E0A948408806
:102D4000032804D1AFF29C11A84807F037F8AD4929
:102D5000A64807F033F800240DE0A448015DAA4816
:102D600005F032F900BF8021A74805F09BF9002843
:102D7000F9D0601CC4B2272CEFDB00209B49C91E90
:102D800081F82B0053E000240DE09848015D9E4837
:102D900005F01AF900BF80219B4805F083F900284F
:102DA000F9D0601CC4B2272CEFDB00208F49C91E6C
:102DB00081F82B003BE08C48007830BB01208A4929
:102DC00008702821894806F0EEFF0E2289498748BD
:102DD00006F0D0FF8049854806F0F0FF8949834816
:102DE00006F0ECFF00240DE08048015D864805F008
:102DF000EBF800BF8021844805F054F90028F9D091
:102E0000601CC4B2142CEFDB11E000240DE0774805
:102E1000015D7D4805F0D8F800BF80217A4805F0B3
:102E200041F90028F9D0601CC4B2142CEFDBA3E1F7
:102E30000020764908700520754908709CE17448A7
:102E40000078062808D103206949087007207049D6
:102E5000087006F0AEFC02E003206D4908708BE1BB
:102E60008AE189E135B1012D08D0102D0AD0112D4C
:102E700010D10BE000205B4948800CE0012059494B
:102E8000488008E002205749488004E00320554963
:102E9000488000E000BF00BF06F008FB06F038FBEA
:102EA000FDF74FFE68E19DF80500401E4D49087092
:102EB000AC2D04D0AD2D6FD0DC2D6ED172E0002191
:102EC000484881809DF807000121FFF72EFC8046CD
:102ED0009DF806000121FFF728FC00EBC00101EB83
:102EE000001008EB80013F48C1809DF809000121D6
:102EF000FFF71BFC80469DF808000121FFF715FC39
:102F000000EBC00101EB001008EB800135480181A6
:102F10009DF80B000121FFF708FC80469DF80A0090
:102F20000121FFF702FC00EBC00101EB001008EBF0
:102F300080012C4841819DF80D000121FFF7F5FB30
:102F400080469DF80C000121FFF7EFFB00EBC0016C
:102F500001EB001008EB8001224881819DF80F00F1
:102F60000121FFF7E2FB80469DF80E000121FFF7EB
:102F7000DCFB00EBC00101EB001008EB80011948FD
:102F8000C1819DF8101041829DF81100502805D193
:102F900000211448018204E089E0D5E001211148B4
:102FA0000182D1E001210F4881809DF80700FFF7E1
:102FB000BCFB80469DF806000121FFF7B6FB00EB45
:102FC000C00101EB001008EB80010648C1809DF8AC
:102FD000090001211EE00000400000205445535428
:102FE00000000000F40000204A00002097020020AA
:102FF0000400002002020020490000203B000000E5
:103000002A0200204C000020003801402F00002040
:1030100003000020FFF789FB80469DF8080001218E
:10302000FFF783FB00EBC00101EB001008EB800110
:10303000FB4801819DF80B000121FFF776FB8046DC
:103040009DF80A000121FFF770FB00EBC00101EBC6
:10305000001008EB8001F24841819DF80D0001212C
:10306000FFF763FB80469DF80C000121FFF75DFB35
:1030700000EBC00101EB001008EB8001E848818102
:103080009DF80F000121FFF750FB80469DF80E00D0
:103090000121FFF74AFB00EBC00101EB001008EB38
:1030A0008001DF48C1819DF8101041824CE09DF8FD
:1030B00007000121FFF739FB80469DF8060001213A
:1030C000FFF733FB00EBC00101EB001008EB8001C0
:1030D000D34881829DF809000121FFF726FB804635
:1030E0009DF808000121FFF720FB00EBC00101EB78
:1030F000001008EB8001CA48C1829DF80B00012135
:10310000FFF713FB80469DF80A000121FFF70DFB36
:1031100000EBC00101EB001008EB8001C048018307
:103120009DF80D000121FFF700FB80469DF80C0083
:103130000121FFF7FAFA00EBC00101EB001008EBE8
:103140008001B748418300BF00BF06F0AFF906F029
:10315000DFF9FDF7F6FC0FE0681EB149087006F0D4
:10316000A5F90320AF49087006F0E3F9FDF729FC43
:10317000FDF7E7FC00E000BFE7E0A94890F8480051
:103180000128F9D1A84890F82B0088B11E22A64941
:103190002E3108A806F0EEFD9DF822709DF8236000
:1031A0000020A14981F82B0000219F4880F82C10B5
:1031B00026B1012E4BD0022E48D158E0022F2CD13F
:1031C0009DF82400542809D1002098490870052052
:1031D0009449087001209649087037E09DF8240052
:1031E000522813D18F48007806280BD1032091492B
:1031F000087007208B49087006F0DBFA01208C4923
:10320000087023E00320874908701FE09DF8240020
:1032100053281BD1FFF712FB18E0032F16D19DF89E
:103220002400742812D10020804908709DF82500E0
:103230007B49087006F03AF903207A49087006F0D5
:1032400078F9FDF7BEFB0520764908707CE09DF813
:1032500024007349087006F029F9032071490870A9
:1032600006F067F9FDF7ADFBFDF76BFC6CE09DF830
:103270002400714908700846007880096849488030
:103280006D480078C0F34011654881806A48007835
:10329000C0F30011624801826748007800F00F0116
:1032A0005F4841829DF8251081829DF827009DF896
:1032B000261000EB012081B25948C1809DF82900F9
:1032C0009DF8281000EB012081B2554801819DF83E
:1032D0002B009DF82A1000EB012081B2504841815B
:1032E0009DF82D009DF82C1000EB012081B24C4878
:1032F00081819DF82F009DF82E1000EB012081B2F6
:103300004748C1819DF831009DF8301000EB012045
:1033100081B24348C1829DF833009DF8321000EB22
:10332000012081B23E4801839DF835009DF834109C
:1033300000EB012081B23A48418306F0B7F806F06D
:10334000E7F8FDF7FEFB00BF00BF10B0BDE8F0815D
:1033500070B5002037490870FDF7F3FB06F05AF905
:1033600006F007FA0020314908709CE0334890F8D5
:103370002B0008B1FFF767FB0A2005F02AFF04467F
:10338000662C73D008DCA4F1610005286FD2DFE859
:1033900000F010142D596500E62C7AD004DC672C5F
:1033A00078D0682C7DD16AE0E72C74D0E82C78D1F5
:1033B00066E004201B49087074E021480078A0B939
:1033C00017480078401C16490870084600780828FD
:1033D00001DD0020087006F0ACF8FDF7F2FA06F007
:1033E00065F806F035F8FDF7ACFB5BE014480078B3
:1033F000A8B90B48007828B109480078401E084950
:10340000087002E008200649087006F092F8FDF7FF
:10341000D8FA06F04BF806F01BF8FDF792FB41E0F6
:10342000F400002003000020940200202F00002060
:103430004800002004000020540000207B030020EE
:1034400005000020FE48007818B1FD480078401EB5
:1034500000E00320C5B2FA48057023E0F848007880
:10346000032807DAF6480078401C04E010E018E072
:103470000FE00FE00020C5B2F148057012E000BF78
:103480000520F04908700020EF4908700AE002E0CA
:1034900000BF00BF00BF0020E9490870EA4908707A
:1034A00000E000BF00BFE748007803283FF45EAFAC
:1034B00070BD10B5FEF7CBFE10BD10B513E00020B7
:1034C000E2490870E2490870DF49087006F056F8D2
:1034D00000214FF0804004F05DF90120DD490870C3
:1034E0000620D8490870D74800780528E7D010BDD5
:1034F00010B5002006F042F800214FF0804004F0A3
:1035000049F96420FCF7D5FE06F0CEF810BD2DE990
:10351000FC5F0120CF490870CF48B0F80280808856
:10352000C0B20090CC488088CC49097860F345113E
:10353000CA480170C848408AC0B20190002006F015
:1035400024F8B8F1000F2ED10020C5490870C248F8
:10355000C08800EB80004FF6FF7101EA4005BE48CD
:103560008089012801D1022601E0BB4886892C46CA
:103570000327F020BB49088040F6D860BA4908808C
:103580009DF8000038B9B94800884443B248808BA0
:10359000B4FBF0F4CCE0B54840884443AE48008C1E
:1035A000B4FBF0F4C4E0B8F1010F1DD14FF4B470D6
:1035B000AC49088040F6D860AB4908800120A84992
:1035C00008700026A448808A00EB80004FF6FF7147
:1035D00001EA40052C460527A448808844439E48BC
:1035E000808CB4FBF0F4A3E0B8F1030F4FD19A48FC
:1035F000808A00EB80004FF6FF7101EA4005964893
:103600008089012801D1022601E0934886892C4651
:1036100097480078A0B94FF4B4709249088040F6FA
:10362000D8609149088001208D490870052700263F
:103630008E48808844438848808CB4FBF0F477E05F
:10364000F0208849088040F6D8608749088000202B
:10365000834908708048C08800EB80004FF6FF71F6
:1036600001EA40052C4603279DF8000038B97F4841
:10367000008844437848808BB4FBF0F458E07B48E2
:10368000408844437448008CB4FBF0F450E0784820
:10369000007870BBF0207349088040F6D86072490A
:1036A00008806D488089012801D1022601E06A481E
:1036B00086896948C08800EB80004FF6FF7101EAF7
:1036C00040052C4603270020654908709DF800003E
:1036D00038B96648008844435F48808BB4FBF0F4F7
:1036E00026E06248408844435B48008CB4FBF0F419
:1036F0001EE0FFE74FF4B4705A49088040F6D860E6
:103700005949088000265448808A00EB80004FF613
:10371000FF7101EA40052C46052701205049087039
:103720005248808844434C48808CB4FBF0F400BF7E
:10373000DFF8249109F11C094FF00B0BDFF834A1DD
:103740004FF02C0B002705E019F8010B0AF8010BCC
:10375000781CC7B25F45F7DB00204749086047493E
:103760000880474908604749088047490870474929
:1037700008804749088047490870474908804749F9
:10378000088047490870002708E00020454921F8D3
:103790001700454921F81700781CC7B2082FF4DB41
:1037A0003E490C80002E45D001203A4908703B4824
:1037B0000488B4FBF6F436490C800488B4FBF6F0B8
:1037C00006FB104431490C8031480088012831DA69
:1037D0000A20304908703148048804EB8400440012
:1037E000B4FBF6F42A490C802C48048804EB8400CE
:1037F0004400B4FBF6F006FB104424490C80244836
:103800000088012816DA64202249087023480488B9
:1038100004EB84004400B4FBF6F41D490C801F48FF
:10382000048804EB84004400B4FBF6F006FB10446B
:1038300016490C80B8F1000F49D0B8F1010F35E0FE
:103840000500002003000020000000201B000020D5
:103850001C00002004000020F40000205400002080
:103860002E00002030000020320000203600002012
:103870002F000020D60100200C0000201E00002098
:10388000140000202000002022000020240000203E
:1038900026000020280000202A0000202C00002004
:1038A00001000020AC010020BC01002006D0B8F1CE
:1038B000020F54D0B8F1030F7CD126E005F0B0FF21
:1038C000022005F0E6FF0220FE49087077E09DF82F
:1038D000000048B105F0A4FF022005F0DAFF9DF8D2
:1038E000040005F052FE0FE005F0B6FFF648008A2E
:1038F00018B1012005F0CDFF02E0002005F0C9FF5E
:103900009DF8040005F041FE59E0F048007840B908
:1039100005F086FF022005F0BCFF0220E94908708F
:103920001CE09DF8000048B105F07AFF022005F088
:10393000B0FF9DF8040005F028FE0FE005F08CFFB5
:10394000E148008A18B1012005F0A3FF02E0002041
:1039500005F09FFF9DF8040005F017FE2FE0DB48FF
:103960000078F0B99DF8000048B105F059FF022039
:1039700005F08FFF9DF8040005F007FE19E005F043
:103980006BFFD148008A18B1012005F082FF02E0E8
:10399000002005F07EFF9DF8040005F0F6FD08E02C
:1039A00008E005F03DFF022005F073FF0220C54945
:1039B000087004E00720C6490870BDE8FC9F00BFFE
:1039C000002005F0DBFD0121880703F0E3FE05F090
:1039D000EBFE0020BF49087008460078FDF71DFA8D
:1039E00005F0C7FE05F016FE05F046FE0820BA49B0
:1039F00008700220487016200870022048700020CD
:103A00000870B648007800EB4000202101EBC000B0
:103A1000B149487000200870B048007800EB4000C1
:103A2000C00020304870B8F1000F09D0B8F1010F84
:103A300007D0B8F1020F05D0B8F1030F04D102E0AE
:103A400000BF02E001E000E000BF00BF0020A2498B
:103A50000870FDF76CF800BFAFE710B55A20A04919
:103A60000870592048705A209E49087059204870A3
:103A70009548008A9C49097860F304119A480170BE
:103A80009148408A9849097860F30301964801708B
:103A900000789349C870944800789249C870934858
:103AA0000078002867D19248008870B9854800786E
:103AB000032805D0042807D100208949887003E035
:103AC00001208749887000BF55E089480088012897
:103AD0000ED17C480078032805D0042807D10620A1
:103AE0007F49887003E007207D49887000BF42E06D
:103AF0007F48008803281DD172480078032808D029
:103B0000042816D1062076498870002075498870EF
:103B10000FE06E480078012803D1072070498870B3
:103B200006E06A480078022802D101206D498870B9
:103B300000BF20E06E48008802281CD16148007850
:103B4000032808D0042815D1002065498870062074
:103B5000644988700EE05D480078012802D1604910
:103B6000887006E059480078022802D107205D4994
:103B7000887000BF00BF5D48007828B35C480088AB
:103B8000022822D14F480078C01E06281CD2DFE848
:103B900000F00F0313070B1700205149887013E042
:103BA00002204F4988700FE003204D4988700BE0D8
:103BB00001204B49887007E004204949887003E0E0
:103BC00005204749887000BF1FE049480088032846
:103BD0001BD13C480078032812D0042804D00628C2
:103BE00006D0072810D107E006203D4988700BE079
:103BF00008203B49887007E009203949887003E0B4
:103C000007203749887000BF00BF00240DE034480A
:103C1000015D384804F0D8F900BF8021354804F030
:103C200041FA0028F9D0601CC4B20C2CEFDB10BDA7
:103C300038B531480068B0F5805F03D340F6FF70B7
:103C40002D4908602D480088B0F5805F03DB40F601
:103C5000FF702A49088026480088002878D001286B
:103C600004D0022872D0032871D1BCE124484089D5
:103C7000214A0090126893B2164A1278D21D204D44
:103C800005EB82025188134A1278D21D35F82200C2
:103C90001A4A1288FEF710FD04461A490C600846BD
:103CA0000068B0F5617F30D928464089124A0090FB
:103CB000126893B22A46518D108D104A1288FEF771
:103CC000FBFC21E004000020F40000202F00002075
:103CD0000300002006000020B20000201C0000208D
:103CE0003E0200205202002054000020000000206C
:103CF000CC010020003801400C0000201E000020F4
:103D0000D6010020140000200446FE480460FE484E
:103D1000006800EB80004400FC4800894443FB48F5
:103D20004089B4FBF0F40A20B4FBF0F100FB114031
:103D3000042800D90A340A20B4FBF0F4A0B20A2106
:103D400090FBF1F0F04908602EE201E07DE02AE20C
:103D5000EF48008800EB80004400EE488088C8BB34
:103D6000ED480078C01CE94931F820004443EA4896
:103D70000078C01C01EB80004088B4FBF0F40A20FE
:103D8000B4FBF0F100FB1140042800D90A340A20EA
:103D9000B4FBF0F4E149CC81DB48006800EB800023
:103DA0004400DA4800884443D8484088B4FBF0F423
:103DB0000A20B4FBF0F100FB1140042800D90A34BA
:103DC0000A20B4FBF0F4A0B20A2190FBF1F0CE4936
:103DD000086039E0FFE7D0480078401DCB4931F852
:103DE00020004443CC480078401D01EB800040880F
:103DF000B4FBF0F40A20B4FBF0F100FB11400428FE
:103E000000D90A340A20B4FBF0F4C449CC81BE487E
:103E1000006800EB80004400BC4880884443BB48F5
:103E2000C088B4FBF0F40A20B4FBF0F100FB1140B1
:103E3000042800D90A340A20B4FBF0F4A0B20A2105
:103E400090FBF1F0B0490860AEE1B5480078002879
:103E50007DD1AF48008800EB80004400AD488088E9
:103E6000C8BBAD480078C01CA84931F820004443C5
:103E7000A9480078C01C01EB80004088B4FBF0F436
:103E80000A20B4FBF0F100FB1140042800D90A34E9
:103E90000A20B4FBF0F4A149CC819B48006800EBF8
:103EA0008000440099480088444398484088B4FB07
:103EB000F0F40A20B4FBF0F100FB1140042800D913
:103EC0000A340A20B4FBF0F4A0B20A2190FBF1F00E
:103ED0008D49086086E0FFE78F480078401D8B49D8
:103EE00031F8200044438C480078401D01EB8000ED
:103EF0004088B4FBF0F40A20B4FBF0F100FB114061
:103F0000042800D90A340A20B4FBF0F48349CC8198
:103F10007D48006800EB800044007C488088444372
:103F20007A48C088B4FBF0F40A20B4FBF0F100FB3F
:103F30001140042800D90A340A20B4FBF0F4A0B2DE
:103F40000A2190FBF1F0704908604BE0FFE76F48F1
:103F500040896D4A0090126893B26F4A1278D21D60
:103F60006A4D05EB820251886B4A1278D21D35F8F2
:103F70002200674A1288FEF79FFB044661490C60E5
:103F800008460068B0F5617F0DD9284640895E4A31
:103F90000090126893B22A46518D108D5C4A1288A7
:103FA000FEF78AFB0446574804605748006800EB58
:103FB0008000440055480089444354484089B4FB7C
:103FC000F0F40A20B4FBF0F100FB1140042800D902
:103FD0000A340A20B4FBF0F4A0B20A2190FBF1F0FD
:103FE00049490860E0E04E480078E8BB474840890E
:103FF000454A0090126893B2474A1278D21D434D49
:1040000005EB82025188444A1278D21D35F822000D
:104010003F4A1288FEF750FB04463A490C600846B6
:104020000068B0F5617F0DD928464089364A009076
:10403000126893B22A46518D108D354A1288FEF7C8
:104040003BFB04462F4804602F48006800EB8000CB
:1040500044002E48008944432C484089B4FBF0F4C6
:104060000A20B4FBF0F100E00EE000FB1140042850
:1040700000D90A340A20B4FBF0F4A0B20A2190FB64
:10408000F1F0214908608DE02148008800EB8000B4
:1040900044002048808898BB1F480078C01C1B49FA
:1040A00031F8200044431C480078C01C01EB80001C
:1040B0004088B4FBF0F40A20B4FBF0F100FB11409F
:1040C000042800D90A340A20B4FBF0F41349CC8147
:1040D0000D48006800EB800044000C480088444311
:1040E0000A484088B4FBF0F40A20B4FBF0F100FB6E
:1040F0001140042800D90A340A20B4FBF0F411E07E
:1041000017E00000140000200C000020D601002061
:104110001E000020F400002006000020D80000202F
:104120002F000020A0B20A2190FBF1F0F7490860AF
:1041300038E0F7480078401DF64931F82000444344
:10414000F3480078401D01EB80004088B4FBF0F498
:104150000A20B4FBF0F100FB1140042800D90A3416
:104160000A20B4FBF0F4EC49CC81E848006800EB8D
:1041700080004400E74880884443E648C088B4FB98
:10418000F0F40A20B4FBF0F100FB1140042800D940
:104190000A340A20B4FBF0F4A0B20A2190FBF1F03B
:1041A000DA49086000E000BF00BF38BD0CB5DB484D
:1041B0000078082804DAD9480078401CD7490870EC
:1041C000072001900EE09DF80400401ED44931F80C
:1041D00010009DF8042021F812009DF80400401EF4
:1041E000C0B201909DF804000028ECDCC7480068CC
:1041F000CB49088000200090C8480078019007E073
:10420000C7489DF8041030F8110000990844009048
:104210009DF80400411EC9B201910028F0D1BF49A8
:1042200009780098B0FBF1F00090009880B2B7498F
:104230000860072001900EE09DF80400401EB94977
:1042400031F810009DF8042021F812009DF80400B8
:10425000401EC0B201909DF804000028ECDCB2487A
:104260000088B049088000200090AC480078019098
:1042700007E0AC489DF8041030F81100009908449C
:1042800000909DF80400411EC9B201910028F0D1B0
:10429000A24909780098B0FBF1F00090A24900987B
:1042A00008800CBD0EB500200190009002900EE039
:1042B00005F074F901990844019005F075F9009929
:1042C000084400909DF80800401CC0B202909DF880
:1042D00008001028ECDB0198C0F30F108B49086030
:1042E0000098C0F30F10904908800EBD2DE9F04FE3
:1042F0008BB04FF0000B00200490039002900190CF
:1043000082468A4840888A490880084600880528ED
:104310007ED2DFE800F01703673898008548007800
:1043200020F0C0004030834908708048C08A80492E
:10433000C8807E48008B08817C48408B48800220E2
:10434000099087E07B48007820F0C0007949087028
:10435000764800897649C880744840890881734846
:10436000C089488071488089012802D10220888054
:1043700003E06E4880896E4988806C488088009090
:104380000120099066E06B48007820F0C000C03042
:10439000684908706848007860B96448C08A644910
:1043A000C8806248008B08816048408B48800220AA
:1043B000099016E0012009905C4800895C49C8809A
:1043C0005A48408908815948C0894880574880899F
:1043D000012802D10220888003E054488089544992
:1043E000888037E05348007820F0C0008030514981
:1043F000087051480078C8B9012009904B480089DD
:104400004B49C8804948408908814848C08900E034
:104410001AE0488045488089012802D1022088801E
:1044200010E042488089424988800BE002200990D0
:104430003E48C08A3E49C8803C48008B08813B48C2
:10444000408B488006E005E007203C4908700BB02F
:10445000BDE8F08F00BFFFF75AF8002007900890E2
:104460000690374908602C490881364908809DF834
:104470002400274908700978334A12781144C8B2D9
:10448000FCF7CBFC01F0B4B900203049087030488B
:10449000007801287ED100202D4908704FF0010BD3
:1044A000BDF8200042F20F71884204DABDF8200006
:1044B000401C80B2089027480078012852D19DF80E
:1044C0001C00401CC0B207909DF81C0022490978CE
:1044D000884208DB002007901A4800881F49098895
:1044E0000844184908800C48008911498988884285
:1044F0000BDB002008490881194800881149088011
:10450000022014490870012004909AE00C00002059
:1045100006000020D6010020D80000202200002044
:10452000AC010020BC0100201E000020F40000208F
:10453000CC010020540000202F00002003000020A8
:10454000100000202A0000202E0000204A00002039
:104550000100002004000020280000202600002088
:104560002C000020FD480088FD490880FD48408857
:10457000002866DDFC480089FA494988884260DBEA
:10458000F848008880B1F7480088022804D1F7482D
:10459000007800E072E038B1F248008803282AD1A0
:1045A000F2480078012826D1F149C88805F0C7FDF6
:1045B0000646F04AF04B05F0DCFC04460D46EF4899
:1045C000006805F0BCFD804622462B4605F004FE3F
:1045D00008D2012003900720E94908700320E94927
:1045E00088702EE00720E84908700420E44908702C
:1045F0000120049025E0DE49888A05F0A0FD0646EA
:10460000DC4ADD4B05F0B5FC04460D46DB4800688E
:1046100005F095FD804622462B4605F0DDFD08D2CB
:10462000012003900720D64908700320D5498870DF
:1046300007E00720D44908700420D1490870012000
:104640000490C748008804F099FF9DF81800401CAA
:10465000C0B206909DF81800092190FBF1F201FB11
:104660001200C0B206909DF81800052802DA04F086
:104670004AFC01E004F043FCFCF7AAF8FFF712FE45
:10468000FFF794FDFFF7D4FAC0480088C0490988B5
:10469000884204DD01200290002001900DE0BB481B
:1046A0000088BC490988884204DA01200190002072
:1046B000029002E00020029001904FF0000AB648FC
:1046C00000789DF82410884209DA0198012806D163
:1046D000B1480078401CB04908704FF0010AAE485C
:1046E0000078002809DD0298012806D1AA48007840
:1046F000401EA94908704FF0010ABAF1010F1FD1FD
:104700000020A64908700A900AE00020A4499DF8FC
:10471000282021F812009DF82800401CC0B20A9001
:104720009DF828000828F0DB9B4909789D4A1278FB
:104730001144C8B2FCF771FB3220FBF7BAFDC4E0AC
:104740008848008830B1012824D002287CD0032872
:1047500079D138E090480078012806D18248C08994
:104760000A2190FBF1F08049C881BDF800000128C2
:1047700003D140F22620059002E04FF496600590A8
:104780007948C0890599884203D948F29F607649E3
:10479000C88199E07D48008840B18348006883491A
:1047A000884206D908468049086002E07F487E4971
:1047B0000860BAF1000F05D16B480089062801DBBB
:1047C0000120039080E069480078C0B96F480088F4
:1047D00040B1754800687549884206D90846724953
:1047E000086002E0714870490860BAF1000F28D1F2
:1047F0005D480089062824DB0120039021E06648FB
:104800000078012806D15848C0890A2190FBF1F0B0
:104810005549C8814FF496600590BDF80000012805
:1048200003D140F22620059002E04FF496600590F7
:104830004D48C0890599884203D948F29F604A498A
:10484000C88141E000E03EE04848007810BB524893
:104850000078012806D14448C0890A2190FBF1F074
:104860004149C8814FF496600590BDF800000128C9
:1048700003D140F22620059002E04FF496600590A7
:104880003948C089059988421CD948F29F60364949
:10489000C88117E03D48008840B14348006843495B
:1048A000884206D908464049086002E03F483E4930
:1048B0000860BAF1000F05D12B480089062801DBFA
:1048C0000120039000E000BF00BF2D4800780228BF
:1048D0006ED103980128FBD1BAF1000FF8D121481D
:1048E000008830B1012864D0022874D0032873D125
:1048F0009BE01D48C08905901A48C08805998842E8
:1049000020D21B48808850B90598B0F5966F03D91E
:104910000A201B49087002E0062019490870144853
:10492000808801280BD141F288310598884203D94B
:104930000A201349087002E006201149087002207D
:1049400010498870074800890599884205D90720D1
:104950000B49087003200B4988705DE12C00002092
:104960002A000020CC010020D80000202F000020C9
:10497000F40000209A9999999999E93F0C00002038
:10498000040000203E020020030000201E00002042
:10499000320000203000002006000020220000200D
:1049A000BC0100202E000020140000209F86010082
:1049B00033E1F84800680590F748007820B10128F5
:1049C0000BD0022815D10EE04FF47A710598B0FB98
:1049D000F1F005900EE0A3E01DE164210598B0FB25
:1049E000F1F0059006E00A210598B0FBF1F0059082
:1049F00000E000BF00BFE948C0880599884208D29E
:104A0000E648C08828B10620E54908700820E54935
:104A10008870E24800890599884205D90720E04955
:104A200008700920DF498870F6E0DF48007870BB25
:104A3000D84800680590D848007820B1012809D0EE
:104A4000022813D10CE04FF47A710598B0FBF1F015
:104A500005900CE064210598B0FBF1F0059006E0AC
:104A60000A210598B0FBF1F0059000E000BF00BFFF
:104A7000CA48C088059988420AD2C848C08838B157
:104A80000620C74908700820C649887003E012E074
:104A90000620C4498870C14800890599884206D912
:104AA0000720BF4908700920BE49887037E00620FA
:104AB000BC49887033E0BD48C0890590B748C088BC
:104AC0000599884220D2BA48808850B90598B0F537
:104AD000966F03D90A20B249087002E00620B04957
:104AE0000870B348808801280BD141F288310598BD
:104AF000884203D90A20AA49087002E00620A84982
:104B000008700220AB498870A44800890599884242
:104B100005D90720A24908700320A64988707BE0C8
:104B2000A1480078C0BBA148C08905909B48C088B7
:104B30000599884221D29E48808850B90598B0F5E1
:104B4000966F03D90A209649087002E0062094491E
:104B500008709748808801280BD141F28831059868
:104B6000884203D90A208E49087002E006208C4949
:104B7000087002208B49887002E000208949887003
:104B8000864800890599884207D90720844908701A
:104B90000320844988703DE003E00020814988704B
:104BA00038E07C48006805907B48007820B10128F7
:104BB00009D0022813D10CE04FF47A710598B0FBAC
:104BC000F1F005900CE064210598B0FBF1F0059040
:104BD00006E00A210598B0FBF1F0059000E000BF67
:104BE00000BF6E48C0880599884208D26B48C088CB
:104BF00028B106206A49087008206E498870674805
:104C000000890599884205D907206549087009205F
:104C10006849887000E000BF00BF6148007806283E
:104C20000FD05F48007807280BD05D480078052832
:104C300007D05B480078082803D0594800780A2834
:104C400009D101205C49087007205C4908704FF0C9
:104C5000010B01200490BBF1010F7DD14FF0000B3F
:104C6000002057490870012048704C48008830B136
:104C7000012872D0022871D0032870D1F8E04C4886
:104C8000C0885049096888420DD94948C0884D49B3
:104C90000968401A022813D84548C0884949086065
:104CA000012003900CE04248C08846490968081A70
:104CB000022805D83E48C088424908600120039078
:104CC0004049096888B2012303220221FBF78FFEC5
:104CD0003D4804F0E2FB14213C4805F064F8012053
:104CE0003B490870394838490968016039A105F025
:104CF00065F834480068000A2A490871314800689C
:104D0000487109202E4908702849C88900230422C7
:104D10000221FBF76CFE2548C089B0F57A7F0EDAD8
:104D20002948407828490870084680784870084625
:104D3000C078887008460079C87000200871224940
:104D4000224805F03BF81648007808285FD0144840
:104D500000780A285BD003E0F9E377E23BE3F7E36E
:104D6000194804F09AFB184805F0C1FD06460022D8
:104D7000194B05F0FEF8044605F05EFA1749086085
:104D80000A48C089B0F57A7F2CDA15A004F072FBCE
:104D90002BE000001400002006000020CC010020C1
:104DA000040000203E0200202F000020D800002038
:104DB000F400002052020020000000200300002028
:104DC000B20000200C000020B400002002020020ED
:104DD0004A0000206B563B00000059405000002064
:104DE000206D4100FAA004F045FBFA480078FA492A
:104DF0008871F8484078C871F64880780872F5489C
:104E0000C0784872F5A1F64804F0D8FF24E0F548D0
:104E100000780A280BD1F448F4A10A6802600979E5
:104E2000017104F03AFBF3A004F024FB0EE0ED481E
:104E3000007808280AD1EC48EF490A68026009792D
:104E4000017104F02AFBEBA004F014FB0020E249FE
:104E50008871C871087248720020E8490870E848F3
:104E600000890012DC498872E5480089C872B1E205
:104E7000E4480078002870D10120E3490870E34835
:104E8000808AE349096888420BD9E048808AE04972
:104E90000968401A02280FD8DC48808ADC4908607B
:104EA0000AE0DA48808ADA490968081A022803D831
:104EB000D648808AD6490860D549096888B2012356
:104EC00003220221FBF793FDC74804F0E6FA142100
:104ED000D04804F068FF0120C8490870CD48C24995
:104EE00009680160AFF2141104F068FFC848006857
:104EF000000AB9490871C648006848710920C649C6
:104F00000870C648006842F20F71884226D9C4482A
:104F10000078022810D1C14800680A21B0FBF1F0E6
:104F200084B2C04ABE480078401C115C01230522AF
:104F30002046FBF75CFD1CE0B84800680A21B0FB86
:104F4000F1F084B2B74AB6480078401C115C0123E6
:104F500004222046FBF74BFD0BE053E0B14AB04B77
:104F60001B78D15CAD4A126890B201230422FBF792
:104F70003EFDAA480068AC4988421CD09A4804F01B
:104F80008CFA9949A34804F019FF974805F0AFFC43
:104F9000044605F051F98F490860084600788E49AB
:104FA00088718C484078C8718A488078087289482E
:104FB000C078487216E09DA004F06FFA9DA1954854
:104FC00004F0FCFE9D488349086008460078824949
:104FD000887180484078C8717E48807808727D4822
:104FE000C078487296A18B4804F0E8FE8448008996
:104FF00000127949887282480089C87200207F496E
:105000000870E4E00220804908708048C088804928
:10501000096888420DD97D48C0887D490968401AD1
:10502000022813D87948C088794908600120039084
:105030000CE07648C08876490968081A022805D825
:105040007248C0887249086001200390704909685D
:1050500088B2012303220221FBF7C9FC624804F055
:105060001CFA14215E4804F09EFE0120634908707A
:105070005B485D4909680160AFF2A82104F09EFE1B
:1050800063480068000A6F49087161480068487108
:105090000920614908705A49C88901230422022164
:1050A000FBF7A5FC5648C089B0F57A7F0EDA4E486A
:1050B00040784D4908700846807848700846C078A6
:1050C000887008460079C870002008714649444835
:1050D00004F074FE43480078082835D04148007831
:1050E0000A2831D0404804F0D8F93F4805F0FFFBCA
:1050F00006460022544B04F03CFF044605F09CF8A1
:10510000344908603E48C089B0F57A7F04DAAFF2CE
:10511000303004F0AFF902E02DA004F0ABF92D48D7
:105120000078484988712B484078C87129488078B0
:1051300008722848C078487228A1294804F03EFE29
:1051400000202E49087032E0264800780A2812D143
:10515000254826A10A6802600979017104F09DF9C9
:1051600024A004F087F91DA11D4804F027FE0020AB
:105170002249087015E01B480078082811D11A4808
:105180001D490A6802600979017104F086F919A0C5
:1051900004F070F911A1124804F010FE0020174924
:1051A0000870002027498871C871087248720E483B
:1051B00005F09DFB044605F03FF8064908601048DD
:1051C000008900121F4988720D480089C872D3E215
:1051D0006D410000500000203E0200206D413B0068
:1051E0000202002004000020B40000204F464C20A2
:1051F0000000000020200000C42B01084A0000200D
:10520000D80000202F00002049000020F4000020DA
:105210000C0000202A020020B20000201400002010
:1052200006000020A9B201089F8601003E393939E5
:10523000390000003E3939390000000000401C46AA
:105240004D3B00005202002000005940FE48808A79
:10525000FE49096888420BD9FB48808AFB490968E6
:10526000401A02280FD8F848808AF84908600AE0F6
:10527000F548808AF5490968081A022803D8F248D7
:10528000808AF2490860F149096888B20123032243
:105290000221FBF7ACFBEE4804F0FFF81421ED48C7
:1052A00004F081FD0120EC490870EA48E8490968EA
:1052B0000160AFF2E04104F081FDE4480068000ABB
:1052C000E6490871E148006848710920E44908701E
:1052D000E448006842F20F71884225D9E24800781C
:1052E000022810D1DF4800680A21B0FBF1F084B237
:1052F000DE4ADD480078401C115C00230522204670
:10530000FBF775FB1BE0D74800680A21B0FBF1F002
:1053100084B2D64AD4480078401C115C0023042291
:105320002046FBF764FB0AE0D04ACF4B1B78D15CE8
:10533000CC4A126890B201230422FBF758FBC948FB
:105340000068CB4988421CD0C14804F0A6F8C04987
:10535000C04804F033FDBE4805F0C9FA044604F025
:105360006BFFC449086008460078BC498871C14891
:105370004078C871BF4880780872BE48C0784872CB
:1053800018E0AFF2581004F088F8AFF26011B1489D
:1053900004F014FDB848B749086008460078AF49E2
:1053A0008871B4484078C871B24880780872B148B2
:1053B000C0784872AFF27811A64804F0FFFC0020D4
:1053C000A5490870AD4800890012A4498872AB480D
:1053D0000089C872D0E1AA48007800287ED1012057
:1053E000A84908709848C0889849096888420DD92A
:1053F0009548C08895490968401A022813D89248F0
:10540000C08892490860012003900CE08E48C08853
:105410008E490968081A022805D88B48C0888B492C
:105420000860012003908949096888B2012303229A
:105430000221FBF7DCFA864804F02FF81421854896
:1054400004F0B1FC01208449087082488049096851
:105450000160AFF2806104F0B1FC7C480068000A92
:105460007E49087179480068487109207C490870B4
:105470008249C889012304220221FBF7B8FA7F4838
:10548000C089B0F57A7F0EDA7148407870490870AB
:105490000846807848700846C078887008460079C9
:1054A000C870002008716A496A4804F087FCAFF2AE
:1054B000D421684804F082FC0020674908707248D3
:1054C0000078082831D0704800780A282DD060482C
:1054D00003F0E3FF5E4805F00AFA00E058E00646F4
:1054E00000226A4B04F045FD044604F0A5FE614924
:1054F00008606248C089B0F57A7F04DAAFF22070A4
:1055000003F0B8FF03E0AFF2383003F0B3FF5948BF
:1055100000785249887157484078C871554880785A
:1055200008725448C078487229E0574800780A2821
:105530000FD14748AFF24C310A6802600979017116
:1055400003F0ABFFAFF2543003F094FF11E024E11D
:1055500011E14D48007808280BD13D484C490A68B4
:1055600002600979017103F098FFAFF2783003F01F
:1055700081FF002039498871C871087248723F481C
:1055800000890012354988723C480089C872F1E0F0
:1055900002203C4908702C48808A2C4909688842BE
:1055A0000BD92948808A29490968401A02280FD84E
:1055B0002548808A254908600AE02348808A2349D3
:1055C0000968081A022803D81F48808A1F49086002
:1055D0001E49096888B2012303220221FBF707FA5A
:1055E0001B4803F05AFF14212A4804F0DCFB012079
:1055F000194908702748164909680160AFF62C015F
:1056000004F0DCFB11480068000A234908710F48C8
:10561000006848710920124908701248006842F277
:105620000F71884250D91048007802283BD10D48AC
:1056300000680A21B0FBF1F084B20C4A0A480078F5
:10564000401C115C002329E0F40000200C00002025
:10565000B4000020020200204A0000203E02002088
:10566000B20000201400002006000020A9B20108AA
:105670009F8601005000002000401C46D8000020FA
:105680002F000020490000200400002000005940A5
:10569000C42B01082A0200205202002005222046C5
:1056A000FBF7A5F91BE0FB4800680A21B0FBF1F00D
:1056B00084B2F94AF9480078401C115C00230422A6
:1056C0002046FBF794F90AE0F34AF44B1B78D15CCF
:1056D000F04A126890B201230422FBF788F9ED48E2
:1056E0000068EF4988421CD0EE4803F0D6FEED4931
:1056F000ED4804F063FBEB4805F0F9F8044604F0CC
:105700009BFDEA49086008460078E9498871E74846
:105710004078C871E54880780872E448C0784872DB
:1057200018E0AFF2F84003F0B8FEAFF20051DE48E7
:1057300004F044FBDF48DD49086008460078DC4996
:105740008871DA484078C871D84880780872D7489C
:10575000C0784872AFF21851D34804F02FFBD648F6
:1057600000890012D2498872D3480089C87200208B
:10577000D249087000E000BF00BF0A20D04908707D
:1057800000204870CC490889002304220121FBF73E
:105790002EF9C44803F081FE00BF03F00FFD0A900C
:1057A0009DF82800662814D008DC62280DD06328F4
:1057B0000CD064280BD0652818D109E067280AD0DE
:1057C000E62807D0E72811D106E010E00FE00EE050
:1057D0000DE000BF00BF00BF0320BA4908700720DA
:1057E000B949087003F0E5FFFEF731BE00BF00BF06
:1057F000B548007806283EF447AEB4480078401C0F
:10580000B24908700846007801280DD1B0480078E8
:10581000012809D1AF480088022803D0AD4800888C
:10582000032801D1FEF719F903F0C3FF00BFDBE73E
:105830002DE9F0410027A8484088C5B2FDF758FE81
:10584000A0480078032827D0052D1FD2DFE805F0F7
:10585000040309081D0000BF08209B4908701AE0D6
:1058600000BF9A48007801280BD196480078042898
:1058700003D106209449087006E008209249087078
:1058800002E008209049087005E004E007208E49F6
:105890000870BDE8F0812CE0052D1CD2DFE805F092
:1058A000040306051A001AE019E018E0874800789A
:1058B00001280BD183480078042803D106208249AF
:1058C000087006E008208049087002E008207E4940
:1058D000087004E003E007207B490870D9E700BFA7
:1058E0007B480078012804D1FCF7A8FF0020784904
:1058F00008700020724908704870FBF718F904F02E
:105900006EF870480078032807D108206C490870A9
:105910000220487048F29F640CE070480078401CF8
:105920006E4908706E480078032803DB082066493A
:105930000870AEE759E08FB100270E20604908706B
:10594000042048700123042219462046FBF74FF833
:10595000544803F08FFD732003F07EFD0120FAF719
:10596000C7FC68B157480078032809D04C488442E6
:1059700006D001270A210120FAF7B7FC601E84B285
:10598000012C02DA062050490870052003F021FCA2
:105990000646672E0CD004DC642E07D0652E22D17B
:1059A00005E0682E18D0E72E1DD102E01CE01BE0B8
:1059B00000BF4448007803280AD03948844203D104
:1059C00003204149087006E003203E49087002E0C8
:1059D00003203D49087007E000203C49087006207C
:1059E0003949087000E000BF00BF37480078072839
:1059F000A1D000BF4DE770B5012503F055FE364834
:105A00004088022803D03448408803280DD130480C
:105A10000078012812D12D48007802280ED1FCF719
:105A20000DFF00202A49087008E029480078012865
:105A300004D1FCF703FF0020254908706FE0012D19
:105A400019D1002516201E490870022048702548EB
:105A5000007830B103F0AEFD03F08BFE03F0F3FDF0
:105A600009E003F0C3FF17480078042803D103F0CE
:105A7000D1FD03F063FE022003F0ABFB0446672C6C
:105A800044D031DC642C36D0652C35D0662C44D122
:105A90003AE0000014000020A9B20108060000202E
:105AA0009F860100B40000202A0200205000002040
:105AB0005202002000401C46D80000204A0000206E
:105AC000B200002004000020030000202F0000206E
:105AD00048000020CC010020F40000201C00002021
