:020000040800F2
:100000003007002045010008F90200084F050008EC
:1000100053050008570500085B05000800000000B4
:100020000000000000000000000000005F05000864
:100030006105000800000000630500086505000870
:100040005F0100085F0100085F0100085F01000810
:100050005F0100085F010008EF0500080F060008B7
:100060002F060008730600085F0100085F01000802
:100070005F0100085F0100085F0100085F010008E0
:100080005F0100085F0100085F0100085F010008D0
:100090005F0100085F0100085F010008ED0500082E
:1000A0005F0100085F0100085F0100085F010008B0
:1000B0005F010008670500085F0100085F01000894
:1000C0005F0100085F0100085F0100085F01000890
:1000D0005F010008FB0200085F0100085F010008E3
:1000E0005F0100085F0100085F0100085F01000870
:1000F0005F0100085F0100085F0100085F01000860
:100100005F0100085F0100085F0100085F0100084F
:100110005F0100085F0100085F0100085F0100083F
:100120005F0100085F0100085F0100085F0100082F
:10013000DFF80CD009F00CFC0048004789010008EA
:10014000300700200648804706480047FEE7FEE7E4
:10015000FEE7FEE7FEE7FEE7FEE7FEE7FEE7FEE777
:10016000537F00083101000870B504460D46E1B226
:10017000234807F09FF900BF8021214807F008FAC3
:100180000028F9D0204670BD02201E49087036E0D4
:100190001C4800780A282CD2DFE800F02B2805083C
:1001A0000D121A1D202302F0A3F927E008F0C6FB68
:1001B00002F0A4FD22E008F0C1FB02F04AFE1DE0BF
:1001C00008F0BCFB00201049087002F046FE15E064
:1001D00003F021FC12E004F0CEFD0FE004F0B2FECB
:1001E0000CE008F0ABFB05F0C8FB07E004F025FFCE
:1001F00004E008F0A3FB04F02EFF00BF00BFC7E738
:1002000000380140030000200200002010B505F076
:1002100035FE4FF4803005F051FE05F08EFE0128CA
:1002200020D1002005F0CFFE002005F0DEFE4FF4C7
:10023000806005F0D1FE4FF4E0114FF4803005F0FE
:10024000A5FE012005F0AEFE00BF392005F059FEE5
:100250000028FAD0022005F0A8FE00BF05F0AEFE8F
:100260000828FBD110BD00E0401E0028FCD17047DB
:10027000014601EBC1024FF0E0235A6100229A616E
:1002800001221A6100BF4FF0E022106900F0010264
:100290001AB100F48032002AF5D000224FF0E0239A
:1002A0001A619A617047014642F228324A434FF080
:1002B000E0235A6100229A6101221A6100BF4FF0C7
:1002C000E022106900F001021AB100F48032002A25
:1002D000F5D000224FF0E0231A619A617047054A79
:1002E0001154704701460348405C08B9012070472B
:1002F0000020FCE719000020704710B540F225519E
:10030000E84807F05BF9002873D02021E54807F0A2
:100310004CF9E54890F84800002846D1E348007EB3
:1003200000280FD10621E14880F83910DD4807F098
:10033000C5F8C4B2AA2C10D1DC48407E18B1002107
:10034000DA48417692E0D948417E407E401CC2B2F4
:10035000D64842761B30445488E0BB2C13D1D34896
:10036000417E407E401CC2B2D04842761B3044548D
:100370000120CE4908760846417E817600214176EB
:1003800080F8391072E0C948407E1E2803DB002146
:10039000C64841766AE0C548417E407E401CC2B2F4
:1003A000C24842761B30445460E0BF4890F8480091
:1003B00001285BD1BD48007E002857D10621BB48EB
:1003C00080F83910B74807F079F8C4B2B748407ED2
:1003D00080B9112C03D00021B448417646E0B348DF
:1003E000417E407E401CC2B2B04842761B3044542D
:1003F0003CE04FE0AD48407E012812D1AA4890F879
:100400004900A04203D00021A84841762EE0A74829
:10041000417E407E401CC2B2A44842761B30445408
:1004200024E0A248407E1E2803DB00219F4841763D
:100430001CE09E48417E407E401CC2B29B484276F2
:100440001B3044541B38407E02280FDD9748417E04
:10045000407FC01C814209D101209449087608469A
:10046000417E81760021417680F839109048007EE7
:1004700000285DD106218D4880F83910894807F0A1
:100480001DF8C4B2FF2C10D18948407E18B100215C
:10049000874841764CE08648417E407E401CC2B28F
:1004A000834842761B30445442E0EE2C11D1804800
:1004B000407E012803D000217D48417638E07C4809
:1004C000417E407E401CC2B2794842761B30445483
:1004D0002EE0DD2C1BD17648407E042803D000217D
:1004E0007348417624E07248417E407E401CC2B28F
:1004F0006F4842761B30445401206D490876084607
:10050000417E81760021417680F8391010E06848FC
:10051000407E1E2803DB00216548417608E06448E0
:10052000417E407E401CC2B2614842761B3044543A
:100530004FF458715B4807F041F838B10821594829
:1005400007F033F8574806F0B9FFC4B210BD00BF3A
:10055000FEE700BFFEE700BFFEE700BFFEE7704713
:1005600070477047704710B50121524806F062FE8F
:1005700008F0B7F85048007806281DD14F48007899
:10058000401C4E4908700846007809281ADD0020F2
:10059000087001204A4908704A480089401C4949AE
:1005A000088149480068401C47490860474800687E
:1005B000401C4649086005E04048007810B1002022
:1005C0003E490870002409E04148005D20B14048E0
:1005D000005D401E3E490855601CC4B2022CF3DB8E
:1005E0003C48007808B908F026FC10BD704710B5EB
:1005F0000121394805F087FB28B92B48408A10B102
:10060000052036490870012005F001FF10BD10B526
:100610000120FFF748FE02212F4805F074FB10B9B6
:1006200008202E490870022005F0F1FE10BD10B51B
:100630000520FFF738FE0421274805F064FBA0B928
:100640001D480078032807D01B480078072803D0EE
:1006500019480078082806D105201749087000209D
:100660001F49087001E014480078042005F0CFFE0F
:1006700010BD10B50120FFF716FE0821164805F041
:1006800042FB50B90C480078062803D107200A49DC
:10069000087002E0032008490870082005F0B7FE42
:1006A00010BD000000380140F00000207C02002056
:1006B000F002002000040040030000203C00002065
:1006C00001000020D4000020A40000201000002021
:1006D0001900002000000020001401400400002048
:1006E0002F00002010B50020FE490870487008F067
:1006F000A4F8FD484088E8B1012804D002287DD044
:1007000003286ED13AE0F94808F02AF90620F549A5
:10071000087001204870F6A008F035F90E20F14964
:10072000087001204870F3A008F02DF9F42008F0BB
:10073000C7F8A2E0F0480078012803D1EF4808F09C
:100740000FF903E0ED48C01D08F00AF90620E5495D
:10075000087001204870E448808818B1E4A008F0CF
:1007600012F902E0E6A008F00EF90E20DD4908704B
:1007700001204870E3A008F006F97EE0E248007826
:10078000B0B9DA4808F0ECF80620D6490870012024
:100790004870D7A008F0F7F80E20D2490870012061
:1007A0004870D4A008F0EFF8F42008F089F824E0AD
:1007B000D1480078012803D1D04808F0D1F803E0EF
:1007C000CE48C01D08F0CCF80620C64908700120AC
:1007D0004870C548808828B1C5A008F0D4F804E066
:1007E0000CE049E0C6A008F0CEF80E20BD49087024
:1007F00001204870C3A008F0C6F83EE0C248007867
:1008000018BBBD480078012803D1BC4808F0A8F8FF
:1008100003E0BA48C01D08F0A3F80620B1490870EB
:1008200001204870B048808818B1B1A008F0ABF83A
:1008300002E0B3A008F0A7F80E20AA490870012032
:100840004870B0A008F09FF815E0A84808F088F8B4
:100850000620A449087001204870A5A008F093F86C
:100860000E20A049087001204870A2A008F08BF863
:10087000F42008F025F800E000BF00BF07209949E8
:100880000870002048709BA008F07DF89649097810
:100890003131C8B208F056F80F2092490870002094
:1008A0004870732008F054F804208E490870012025
:1008B000487096A008F067F810BD8B484A2102E006
:1008C00000220270401C0A1EA1F1010399B2F7D167
:1008D0008F4B1A707047002010E0834A921C02EB85
:1008E00040010A888B4B33F820309A4204DD894A54
:1008F00002EB800252880A80421CD0B20D28ECDB49
:100900007047F0B504461D46052A00DD052202B9F0
:100910000122042900DD0421914200DD114600205E
:1009200004E020267C4F3E54461CF0B20828F8D341
:10093000104611E00A2694FBF6F706FB1746303600
:10094000F7B2461EDFF8D0C10CF806700A2694FBF9
:10095000F6F6B4B2461EF0B20028EBDC81B11346C5
:10096000084605E05E1E6C4FBE5DFE545E1EF3B28F
:10097000061EA0F10107F8B2F4D12E26664FFE54F0
:10098000A5B900200EE0644E365C302E07D1624FD0
:10099000461CBE5D2E2E02D020263E5400E004E010
:1009A000461CF0B2561E8642EDDC00BF09B1561C53
:1009B000F2B2104604E00026574F3E54461CF0B2F7
:1009C0000828F8D3F0BD10B5474890F8480018B98A
:1009D000524807F0C5FF07E0434890F84800012857
:1009E00002D14F4807F0BCFF10BD10B53E4890F84B
:1009F000480020B94948153007F0B2FF08E03A48EE
:100A000090F84800012803D14548153007F0A8FFA9
:100A100010BD10B543A007F0A3FF10BD10B5002016
:100A200030490870487007F008FFFFF7CCFF00203E
:100A30002C4908700120487007F0FFFEFFF7D5FF32
:100A400010BD10B52C490978C1EBC101384A88188E
:100A500007F099FF10BD10B523484088032802DD38
:100A600000202149488000201E490870487007F086
:100A7000E4FE1D49498801EB41012E4A02EB410089
:100A800007F081FF072017490870002048701649B9
:100A90000978481C01231A460021FFF732FF15A0F0
:100AA00007F071FF1C4807F05BFF0F4840880128E2
:100AB00003DD21A007F054FF02E020A007F050FF63
:100AC0000A200849087008484088032803D00648CF
:100AD0004088012837D10449488B00230422012192
:100AE0002EE00000AE000020F00000200F9F000864
:100AF000444300004D000000040000201D9F00083A
:100B0000414300006D4100002F0000206B560000A3
:100B100002000020C0A50008B0000020D2A60008F6
:100B200069A600085365702032322032303230001E
:100B30002AA60008919F00085F0000002000000026
:100B4000FFF7DFFE06E0F949C889002304220121EE
:100B5000FFF7D7FEF64807F016FFF6A007F000FFF4
:100B60000020F549087001204870F048808840B99D
:100B7000EE48C088B0F5167F03DD4FF41671EB48E0
:100B8000C180EA484088032803D0E848408801280B
:100B90000AD1E649888A002303220221FFF7B1FE29
:100BA0000121E248818006E0E049C8880023032251
:100BB0000221FFF7A6FEDE4807F0E5FEAFF2B40023
:100BC00007F0CEFE1421DD4808F063FBDB48D8496E
:100BD00009680160DAA108F067FBD448808840B951
:100BE000D2484088032804D0AFF2EC0007F0B8FEEA
:100BF00003E0AFF2041007F0B3FECC4840880328AE
:100C000003D0CA48408801281CD10A20CA4908706C
:100C1000C649C88A002304221946FFF772FEC44859
:100C200007F0B1FEAFF2341007F09AFEF42007F09F
:100C300047FEBF49C14808F037FBC2A1BF4808F0D2
:100C400033FB18E00920BC490870B8490889002323
:100C500004220221FFF755FEB54807F094FEAFF2DB
:100C60005C1007F07DFEB249B44808F01DFBB7A147
:100C7000B24808F019FB10BD70B50546B4480478B9
:100C800004F03F0475B1012D09D0022D04D0032DCD
:100C900009D144F0C00409E044F0800406E044F0C7
:100CA000400403E002E044F0C00400BF00BFA848D5
:100CB00004700020A7490860A5480078C0430006DA
:100CC000A349097840EA0120A34908600120A3490B
:100CD000C1F890016420FFF7E6FA70BD70B50446D4
:100CE0000020954908704870254604EBD5714910DD
:100CF000A4EB4101C1EBC10101EB4101984A881805
:100D000007F041FE00208C4908700120487095488A
:100D100007F039FE70BDF8B5044601278648007813
:100D20008DF80000844840788DF80100206808F0B4
:100D3000C7FAC6B2701CC6B2082E00DD082652E003
:100D400067B19DF800007C4908709DF8010048706B
:100D5000A288216806FB021007F015FE0A2007F0A2
:100D6000AEFC0546E12D15D009DCA5F1610008288F
:100D700037D2DFE800F00E201136362E3331A5F1E0
:100D8000E20007282DD2DFE800F017082C2C252AD6
:100D9000280000BF6120F8BD00BF0127A08861893D
:100DA000884203DDA088401EA08003E06089A08007
:100DB00008F092F816E000BF0127A088401CA08030
:100DC000A0882189884203DD2089A08008F084F86A
:100DD00008E000BF6620DEE700BF00BF00BF67205D
:100DE000D9E700BF00BFABE710B504460020524969
:100DF0000870487004EB840101EBC4015A4A88185A
:100E000007F0C1FD00204C49087001204870574888
:100E100007F0B9FD10BD10B504460A2094FBF0F1AF
:100E200000FB1140C4B234B1012C11D0022C19D0F6
:100E3000032C31D123E03E4807F0A5FD202007F028
:100E400081FD562007F07EFD202007F07BFD24E089
:100E5000374807F098FD202007F074FD732007F055
:100E600071FD1AE0324807F08EFD202007F06AFD80
:100E70004D2007F067FDF42007F064FD0DE02C48DD
:100E800007F081FD202007F05DFD4D2007F05AFDA1
:100E9000F42007F057FD00E000BF00BF10BD10B503
:100EA000044600202449087048700E2C13D2DFE855
:100EB00004F007131FA5A6A7A8A9AAABF0F1F2F3A7
:100EC0002BA007F060FD00201B490870012048702E
:100ED0002CA007F058FDFFE02EA007F054FD0020E5
:100EE00015490870012048702E4807F04CFDF3E0CA
:100EF0000E484088C8B1012804D0022858D00328E1
:100F000079D154E0A11E284A02EB011007F03BFD05
:100F100000200949087001204870611E01EB011191
:100F2000204A881807F02FFD66E03FE0F00000201F
:100F3000B000002073000000AE000020FE01002081
:100F40006B563B004DA6B83B000000006D413B00D6
:100F5000A100002090812242101401400080224212
:100F6000DEA3000832A40008B0A400089BA4000877
:100F70004D656D6F72793D2020202020202020209B
:100F80000000000052616E67653A312D3920202043
:100F9000202020005465737420203D202020202034
:100FA00020202000A99F00082B9F000800BF00BF41
:100FB0000020FD4908704870A11EFC4A02EB011098
:100FC00007F0E1FC0020F849087001204870F8485B
:100FD000808840B9A11E01EB0111F64A881807F07C
:100FE000D2FC07E007E0A11E01EB0111F24A8818CC
:100FF00007F0C9FC00E000BF00BF6DE000BF00BF0C
:1010000000BF00BF00BF00BFE9484088C8B1012849
:1010100004D0022817D0032834D113E0A11EE74AD8
:1010200002EB011007F0AFFC0020DF49087001203F
:101030004870611E01EB0111E14A881807F0A3FC1A
:1010400021E000BF00BFA11E01EB0111DD4A88189D
:1010500007F099FC0020D449087001204870D4485A
:10106000808838B9611E01EB0111D24A881807F057
:101070008AFC06E0611E01EB0111CF4A881807F0D7
:1010800082FC00E000BF00BF26E005E003E001E0D5
:10109000FFE700BF00BF00BFA11E01EB0111C94A5D
:1010A000881807F070FC0C2C01D00B2C07D10E20F7
:1010B000BD49087000204870F42007F049FC00206A
:1010C000B949087001204870611E01EB0111BE4A48
:1010D000881807F058FC00BF00BF10BD2DE9F84389
:1010E00005464FF00109B04800788DF80000AE4881
:1010F00040788DF801000027A87908B9032600E0A0
:101100000426FFE0B9F1000F10D09DF80000A649B9
:1011100008709DF801004870AB89DAB2A979A888F7
:101120000023FFF7EEFBA94807F02DFC0A2007F08B
:10113000C6FA8046B8F1E10F15D009DCA8F16100CC
:10114000082871D2DFE800F00E7612D7D7CFD4D2BC
:10115000A8F1E2000728F4D2DFE800F08829CDCD1D
:10116000C6CBC90000BF6120BDE8F8834FF001097C
:10117000002797488079C0F10300B04202DA701E60
:10118000C4B200E03446934830F81400698908443A
:10119000A988884206DCA8888E4931F81410401AC4
:1011A000A88003E06889A88007F096FEA9E04FF0C8
:1011B0000109781CC7B286488079C0F10300B042AB
:1011C00002DA701EC4B200E034461C2F0CDD002C85
:1011D00001DD601EC4B2002C01DD601EC4B2002C13
:1011E00013DD601EC4B210E0132F08DD002C01DDFA
:1011F000601EC4B2002C08DD601EC4B205E00A2FD8
:1012000003DD002C01DD601EC4B2724830F814000A
:1012100069890844A988884207DCA8886D4931F8A3
:101220001410401AA88004E065E06889A88007F0DF
:1012300053FE66E04FF00109002765488079C0F150
:101240000300B04202DA701EC4B200E03446A8883F
:10125000604931F814100844A880A8882989884278
:1012600003DD2889A88007F037FE4AE04FF0010926
:10127000781CC7B256488079C0F10300B04202DA48
:10128000701EC4B200E034461C2F0CDD002C01DDC2
:10129000601EC4B2002C01DD601EC4B2002C13DD40
:1012A000601EC4B210E0132F08DD002C01DD601EAB
:1012B000C4B2002C08DD601EC4B205E00A2F03DDB5
:1012C000002C01DD601EC4B2A888424931F8141018
:1012D0000844A880A8882989884203DD2889A88035
:1012E00007F0FAFD0DE000BF66203DE700BF08E013
:1012F00000BF672038E738488078012800D00027F1
:1013000000BF00BFFEE62DE9F041002500260027C2
:101310003248C08940F6D861884211DD012500BFFE
:10132000002405E000202E4941F82400601CC4B2CE
:101330000C2CF7DB00202B4908702B49088009E0B2
:101340002648C089B0F5B47F02DA0126002501E005
:1013500000250026002725480078002816DD012DED
:1013600014D122480078401E20490870012700242B
:1013700005E000201A4941F82400601CC4B20C2C7E
:10138000F7DB0020174908701749088017480078D4
:1013900004283ADA012E38D114480078401C134949
:1013A00008700127002429E0AE000020FE9F0008FD
:1013B000F00000207EA00008C0A200082B9F0008BB
:1013C000A99F000817A10008E3A10008B0000020B1
:1013D000C4000020EC9E0008A8000020D4000020DB
:1013E00078010020070000200800002006000020EF
:1013F0000020FE4941F82400601CC4B20C2CF7DB2D
:101400000020FB490870FB490880012F06D1FA48EB
:101410000078FFF731FC3220FEF745FFBDE8F08190
:1014200001B590B00021109808F08CF910D21098F6
:1014300008F028F90022F14BCDE9060108F00FF879
:10144000CDE9080108F062F910900120EC4908701C
:10145000109808F017F9EB4AEB4BCDE9080108F0BA
:1014600025F901D211B000BD109808F00BF9E74A38
:10147000E74BCDE9080108F031F958D2109808F08F
:1014800001F9E24AE24BCDE9060108F05AF8CDE94C
:10149000080108F03BF90E90DE480D9000200B90FB
:1014A00026200A903FE0DDE90D1007F09AFF4FF08B
:1014B0007E51099008F046F90ED20D9808F0E2F836
:1014C0000022D54BCDE9060108F03BF8CDE9080133
:1014D00008F01CF90D9000E028E00D9808F0D2F813
:1014E000CE4ACF4BCDE9020107F0B9FFCDE90601A5
:1014F000109808F0C7F8CDE90401DDE9062308F0EB
:1015000020F8CDE9080108F0A4F80C90BC490C982B
:1015100048600A9808720B98401C40B20B900A98D9
:10152000401E40B20A900B980428BCDB16E21098CB
:1015300008F0A8F8BB4ABC4BCDE9080108F0CEF88A
:1015400058D2109808F09EF8B64AB74BCDE906017C
:1015500007F0F7FFCDE9080108F0D8F80E90B3487E
:101560000D9000200B9023200A903FE0DDE90D1044
:1015700007F037FF4FF07E51099008F0E3F80ED2E4
:101580000D9808F07FF80022A34BCDE9060107F083
:10159000D8FFCDE9080108F0B9F80D9000E028E087
:1015A0000D9808F06FF8A24AA24BCDE9020107F0AE
:1015B00056FFCDE90601109808F064F8CDE9040162
:1015C000DDE9062307F0BDFFCDE9080108F041F889
:1015D0000C908B490C9848600A9808720B98401C34
:1015E00040B20B900A98401E40B20A900B9808280F
:1015F000BCDB9BE7109808F045F88F4A8F4BCDE98C
:10160000080108F06BF858D2109808F03BF88A4AA5
:101610008A4BCDE9060107F094FFCDE9080108F0F7
:1016200075F80E9081480D9000200B901C200A90B8
:101630003FE0DDE90D1007F0D4FE4FF07E51099038
:1016400008F080F80ED20D9808F01CF80022724BBA
:10165000CDE9060107F075FFCDE9080108F056F85D
:101660000D9000E028E00D9808F00CF8744A754BD6
:10167000CDE9020107F0F3FECDE90601109808F06C
:1016800001F8CDE90401DDE9062307F05AFFCDE9B1
:10169000080107F0DEFF0C9059490C9848600A9841
:1016A00008720B98401C40B20B900A98401E40B242
:1016B0000A900B980828BCDBEEE3109807F0E2FFD5
:1016C000614A624BCDE9080108F008F858D2109839
:1016D00007F0D8FF5C4A5D4BCDE9060107F031FF0A
:1016E000CDE9080108F012F80E9050480D90002046
:1016F0000B9015200A903FE0DDE90D1007F071FE18
:101700004FF07E51099008F01DF80ED20D9807F0A9
:10171000B9FF0022404BCDE9060107F012FFCDE9E9
:10172000080107F0F3FF0D9000E028E00D9807F0A6
:10173000A9FF0022464BCDE9020107F090FECDE95A
:101740000601109807F09EFFCDE90401DDE90623AC
:1017500007F0F7FECDE9080107F07BFF0C90284960
:101760000C9848600A9808720B98401C40B20B9085
:101770000A98401E40B20A900B980828BCDB8BE305
:10178000109807F07FFF0022324BCDE9080107F0E7
:10179000A5FF2AD2109807F075FF00222D4BCDE946
:1017A000060107F0CEFECDE9080107F0AFFF0E906D
:1017B0001E480D9000200B900D200A9077E0DDE987
:1017C0000D1007F00EFE4FF07E51099007F0BAFFA2
:1017D00046D20D9807F056FF00220F4BCDE90601C7
:1017E00007F0AFFECDE9080136E064E078010020A3
:1017F0000700002008000020060000200000F0BFC5
:10180000E4000020ECCFC55FFFFF0F38824DC772A8
:101810006142334700007A440000244021D7E6FAB1
:10182000E031F44581121F2FE727C0458096184B01
:1018300092D54D06CFF0804450EFE2D6E41A4B44E7
:1018400000003426F56B0C430000901EC4BCD64249
:1018500084D79741D012634107F058FF0D9000E004
:1018600028E00D9807F00EFF0022FD4BCDE90201A4
:1018700007F0F5FDCDE90601109807F003FFCDE96B
:101880000401DDE9062307F05CFECDE9080107F05D
:10189000E0FE0C90F3490C9848600A9808720B9887
:1018A000401C40B20B900A98401E40B20A900B9820
:1018B000082884DBF0E24FF07E51109807F04CFFCF
:1018C0004DD210980E90E8480D9000200B90072004
:1018D0000A9021E0DDE90D1007F083FD4FF07E5105
:1018E000099007F02FFF0ED20D9807F0CBFE0022D3
:1018F000DB4BCDE9060107F024FECDE9080107F036
:1019000005FF0D9000E00AE00B98401C40B20B90E0
:101910000A98401E40B20A900B980828DADB00BFF4
:101920000D9807F0AFFED14AD14BCDE9020107F087
:1019300096FDCDE90601109807F0A4FECDE904015B
:10194000DDE9062307F0FDFDCDE9080107F081FE82
:101950000C90C4490C9848600A9808729CE2109850
:1019600007F090FEC34AC44BCDE9080107F0B6FE6C
:1019700059D2109807F086FE0022C04BCDE906012F
:1019800007F06DFDCDE9080107F0C0FE0E90B648E6
:101990000D9000200B900A9041E0DDE90D1007F05A
:1019A00020FD4FF07E51099007F0CCFE0ED20D982D
:1019B00007F068FE0022AA4BCDE9060107F0C1FD41
:1019C000CDE9080107F0A2FE0D9000E02AE00D9895
:1019D00007F058FE02460B46CDE90201A848A94986
:1019E00007F0AFFDCDE90601109807F04BFECDE9F9
:1019F0000401DDE9062307F032FDCDE9080107F017
:101A000028FE0C9097490C9848600A9808720B9829
:101A1000401C40B20B900A98401E40B20A900B98AE
:101A20000828BADB38E2109807F02CFE964A974B4C
:101A3000CDE9080107F052FE5AD2109807F022FEB5
:101A4000934A944BCDE9060107F009FDCDE9080161
:101A500007F05CFE0E9084480D9000200B90C01F94
:101A60000A9041E0DDE90D1007F0BBFC4FF07E511C
:101A7000099007F067FE0ED20D9807F003FE0022D2
:101A8000774BCDE9060107F05CFDCDE9080107F0D1
:101A90003DFE0D9000E02AE00D9807F0F3FD0246B0
:101AA0000B46CDE902017C487C4907F04AFDCDE9AF
:101AB0000601109807F0E6FDCDE90401DDE90623F3
:101AC00007F0CDFCCDE9080107F0C3FD0C90654996
:101AD0000C9848600A9808720B98401C40B20B9012
:101AE0000A98401E40B20A900B980828BADBD3E14E
:101AF000109807F0C7FD6A4A6A4BCDE9080107F064
:101B0000EDFD5BD2109807F0BDFD674A674BCDE94C
:101B1000060107F0A4FCCDE9080107F0F7FD0E90DF
:101B200051480D9000200B906FF00D000A9041E09D
:101B3000DDE90D1007F055FC4FF07E51099007F0DC
:101B400001FE0ED20D9807F09DFD0022444BCDE919
:101B5000060107F0F6FCCDE9080107F0D7FD0D906E
:101B600000E02AE00D9807F08DFD02460B46CDE916
:101B700002014F484F4907F0E4FCCDE906011098F7
:101B800007F080FDCDE90401DDE9062307F067FCDD
:101B9000CDE9080107F05DFD0C9032490C984860D2
:101BA0000A9808720B98401C40B20B900A98401E8D
:101BB00040B20A900B980828BADB6DE1109807F044
:101BC00061FD3D4A3D4BCDE9080107F087FD46D256
:101BD000109807F057FD3A4A3A4BCDE9060107F055
:101BE0003EFCCDE9080107F091FD0E901E480D90D6
:101BF00000200B906FF014000A907BE0DDE90D10DF
:101C000007F0EFFB4FF07E51099007F09BFD0ED2DD
:101C10000D9807F037FD0022114BCDE9060107F0C2
:101C200090FCCDE9080107F071FD0D9000E064E043
:101C30000D9807F027FD02460B46CDE90201224828
:101C4000224907F07EFCCDE90601109807F01AFD45
:101C5000CDE90401DDE9062307F001FC38E04DE0A1
:101C600000002440E40000208096184B8DEDB5A0C4
:101C7000F7C6B03E48AFBC9AF2D77A3ED012634165
:101C8000000040E59C30A2429B2BA1869B84063D30
:101C90000000901EC4BCD642408CB5781DAF1544E0
:101CA0004F9B0E0AB4E3923B50EFE2D6E41A4B444A
:101CB0000284FEE471D98945196050BEF6B01F3A1E
:101CC00081121F2FE727C045037CD8EA9BD0FE4630
:101CD000CDE9080107F0BDFC0C90FE490C98486066
:101CE0000A9808720B98401C40B20B900A98401E4C
:101CF00040B20A900B98082880DBCDE0109807F0DE
:101D0000C1FCF54AF54BCDE9080107F0E7FC61D2CB
:101D1000109807F0B7FCF24AF24BCDE9060107F044
:101D20009EFBCDE9080107F0F1FC0E90EE480D9006
:101D300000200B906FF01B000A9047E0DDE90D10CA
:101D400007F04FFB4FF07E51099007F0FBFC0ED2DD
:101D50000D9807F097FC0022E44BCDE9060107F04F
:101D6000F0FBCDE9080107F0D1FC0D9000E030E078
:101D70000D9807F087FC02460B46CDE90001D848D4
:101D8000D84907F0DEFBCDE90401109807F07AFC92
:101D9000CDE90201DDE9042307F061FB0022D44B09
:101DA000CDE9060107F05BFBCDE9080107F051FC26
:101DB0000C90C8490C9848600A9808720B98401C0F
:101DC00040B20B900A98401E40B20A900B98082827
:101DD000B4DB61E0109807F055FCC64AC64BCDE96C
:101DE000060107F03CFBCDE9080107F08FFC0E90DF
:101DF000C2480D9000200B906FF022000A9047E03F
:101E0000DDE90D1007F0EDFA4FF07E51099007F073
:101E100099FC0ED20D9807F035FC0022B34BCDE9AA
:101E2000060107F08EFBCDE9080107F06FFC0D906D
:101E300000E030E00D9807F025FC02460B46CDE9A6
:101E40000001AC48AC4907F07CFBCDE904011098D7
:101E500007F018FCCDE90201DDE9042307F0FFFAE1
:101E60000022A34BCDE9060107F0F9FACDE90801FC
:101E700007F0EFFB0C9097490C9848600A9808729D
:101E80000B98401C40B20B900A98401E40B20A903A
:101E90000B980428B4DB00BF00BFFFF7E3BA70B5AE
:101EA000002597480078401C954908709548C089DE
:101EB00049F64041884204DC9248C089B0F5FA6F87
:101EC00006DA91480078042802D000208C49087076
:101ED0008E498A688E490888411C8D4B19808D492E
:101EE00041F82020184600880C2802DB0020194603
:101EF0000880002408E0874850F82410284607F09E
:101F0000E6F90546601CC4B20C2CF4DB7C48007872
:101F10000C2808DB8049284607F063FA7B49886073
:101F20000C207749087079498868FFF779FA694881
:101F300040684FF47A71B0FBF1F06649486070BDBB
:101F400070B57249C86807F06BFB05466F480168B9
:101F5000284607F014FA04466C484168204607F00A
:101F600040FA6A49886070BD10B56648C0890A2881
:101F700002DA0A206349C8816249C88907F050FB28
:101F80006249486065486049097850F821005F4916
:101F9000C860FFF7D5FF10BD2DE9F04100240127EF
:101FA00029E2012FFCD100270E2C15D2DFE804F026
:101FB000071524494A4B4C4DD84EFCFDFEFF584DA9
:101FC0002888401C574988800920088101204881C1
:101FD00000208871012088810BE1514DAD1C5248D1
:101FE00050490860288888800320088100204881A3
:101FF000887101208881FCE04948408838B1012877
:1020000004D0022805D0032819D101E017E000BF51
:1020100000BF43488088012802DD002140488180BC
:102020003F4D2D1D41483F49086028888880012088
:1020300008810020488188710120888100BF00BF8D
:10204000D7E000BF00BF00BF00BF00BF34484088DA
:1020500038B1012804D0022805D003287ED101E040
:102060007CE000BF00BF2E48801D00EB4400851FB0
:102070002B488088E0B92E482A4908602888888043
:10208000601E2C4931F8200026490881601E29492C
:1020900001EB8000408823494881E01E264911F861
:1020A000100020498871254830F81400888154E0D8
:1020B0001F481C49086028888880601E204931F824
:1020C000200018490881601E1D4901EB80004088EE
:1020D000144937E0E40000200F7AF8B7A595AA3834
:1020E000824DC772614233478096184B00002440EE
:1020F00080842E41B1A1162AD3CED24700007A4463
:1021000007000020D4000020060000206801002005
:10211000080000207801002000004041F49E0008E3
:10212000F0000020C4000020799F00086B9F000889
:10213000FE9F00088CA50008F4A500080AA6000868
:1021400058A500084881E01EDD4911F81000DD495E
:102150008871DD4830F81400888100BF00BF48E076
:10216000DA48008A012802DD0021D8480182D74DD3
:102170001035D748D349086028888880601ED54923
:1021800031F82000CF490881601ED24901EB800060
:102190004088CC494881002088710120888128E04E
:1021A00005E003E001E0FFE700BF00BF00BFC74854
:1021B000801D00EB4400851FC748C249086028887D
:1021C0008880601EC34931F82000BE490881601E26
:1021D000C04901EB80004088BA494881E01EB849F7
:1021E00011F81000B7498871B74830F81400888199
:1021F00000BF00BF2046FEF752FE0E2C76D2DFE86D
:1022000004F007111B252F39434D57616B76777802
:102210000A20B249087000204870AA48FEF75EFF05
:10222000804671E00820AD49087000204870A5483C
:10223000FEF771FD804667E00A20A849087000207B
:102240004870A048FEF767FD80465DE00A20A3497C
:102250000870002048709B48FEF740FF804653E01E
:1022600007209E490870002048709648FEF736FF08
:10227000804649E00720994908700020487091483D
:10228000FEF72CFF80463FE00720944908700020AD
:1022900048708C48FEF722FF804635E008208F49C1
:1022A0000870002048708748FEF718FF80462BE032
:1022B00007208A490870002048708248FEF72BFDED
:1022C000804621E0072085490870002048707D483D
:1022D000FEF704FF804617E00A20804908700020BE
:1022E00048707848FEF7FAFE80460DE00BE000BF2C
:1022F00000BF082079490870002048707148FEF737
:10230000EDFE804600E000BF00BF44B96D48808804
:10231000401E288006F083FBFEF7DDFA02E06948E4
:1023200080882880B8F1680F5CD009DCA8F16100D2
:1023300007285ED2DFE800F00E43455D5D47580098
:10234000A8F1E100082854D2DFE800F0053A3C5338
:1023500053534F4D00BF5D484088012802D1012CE6
:1023600000D1092459488088012806D1072C04D1BE
:10237000601CC4B2601CC4B201E0601CC4B2012C79
:102380001BDD5248408840B1012804D0022807D004
:10239000032807D103E00E2606E00A2604E000BF6A
:1023A0000E2601E00E2600BF00BFB44205DB00246C
:1023B00003204B49087006F021FB01271AE000BFFB
:1023C00018E000BF16E04148C088012802D1022170
:1023D0003E48C18003204249087006F00FFB06F01A
:1023E000DBFA07E000BF05E000BF03203C490870AE
:1023F00000E000BF00BF3A48007804283FF4D1ADA8
:10240000BDE8F081704702460B4688B2704710B5B0
:102410004FF48073334A3449344802F045FE334860
:1024200002F06CFE10BDF0B50446059D27460E4631
:1024300002B9012207FB06FCBCFBF5FC0CFB03FC0C
:10244000BCFBF2F0F0BD30B50246002006E0145CA3
:102450000A2594FBF5F4E3B2441CE0B28842F6DBB3
:1024600030BD70B502460C46002012E0135CDD174B
:1024700003EB15752911135CDD1703EB15752D1191
:10248000A3EB051501EB810605EB46051554431C2E
:10249000D8B2A042EADB70BD30B50B460146C41786
:1024A00000EB1474C4F30712C41700EB1474241166
:1024B000A0EB041402EB820504EB4504E0B230BD4E
:1024C000F4A50008C40000200AA60008F0000020BF
:1024D000739F00088CA5000817A10008AE0000201B
:1024E00003000020EC9D00080C1001401C0002407D
:1024F00070B506F05DFC06F0F0FB00214FF0804067
:1025000004F0BEFBFEF7D9F906F04DFA06F04BFADF
:1025100006F085FA06F057FA06F067FA06F090FA28
:10252000FEF7D9F9FE480078082802DD0020FC49B2
:10253000087006F0C3FC06F0CBFAFEF76FFA002035
:10254000F8490870002438E0601CC4B2142C02DD85
:102550000320F54908700A2006F0B1F80546682DF9
:1025600025D009DCA5F16100072824D2DFE800F0BE
:102570001517190E1B1D2000A5F1E10007281AD21E
:10258000DFE800F00C0E10051214170000BF092040
:10259000E549087006F099FC0EE000BF0CE000BFB2
:1025A0000AE000BF08E000BF06E000BF04E003E06F
:1025B00000BF142400E000BF00BFDB480078022801
:1025C000C2D006F071FB70BD2DE9F04190B0FF263E
:1025D0000027D648007EB8B1D448407FD04981F862
:1025E0004800D248807F81F849001E21CF481B3027
:1025F00006F04FFE0020CD4908760021CB484176F9
:1026000006F0D8F906F0E8F9C54890F84800002827
:102610007ED1C748007E00287BD01C2101A806F08F
:1026200038FE1C22C2491D3101A806F019FEC0481F
:10263000067F457F0020BE4908760021BC484176D0
:10264000DE2E67D006DCCC2E7ED0CE2E09D0DD2E3D
:102650007BD1C8E0EE2E79D0F22E78D0F32EF7D1D0
:10266000D2E0B4480078092837D2DFE800F0053618
:10267000360C132F1A212800AF48B0A10A68026057
:102680000979017130E0AC48AEA10A6802600979AD
:10269000017129E0A848ADA10A68026009790171B9
:1026A00022E0A548ABA10A680260097901711BE02C
:1026B000A148AAA10A6802600979017114E09E4844
:1026C000A8A10A680260097901710DE09A48A7A1E2
:1026D0000A6802600979017106E09748A5A10A68B5
:1026E00002600979017100BF00BF15219048C01C2C
:1026F00006F0CFFDAA208E49C87000200870102275
:102700009E498B48001D06F0ABFD8B49884802E0CE
:1027100013E211E27AE0C01C06F0C6FD00240EE0D0
:102720008348C01C015D964804F0C4FE00BF8021B0
:10273000934804F02DFF0028F9D0601CC4B2152C7A
:10274000EEDBBB218E4803E046E0F4E17FE05CE095
:1027500004F0B0FE00BF8021894804F019FF002872
:10276000F9D088480088022803D0864800880328CA
:1027700031D11521844806F08CFDAA208249C91E5A
:10278000C87000200870102280497F48401C06F065
:1027900067FD69497C4806F087FD00240DE07A4812
:1027A000015D774804F086FE00BF8021744804F084
:1027B000EFFE0028F9D0601CC4B2152CEFDBBB2162
:1027C0006F4804F077FE00BF80216D4804F0E0FE02
:1027D0000028F9D0B0E1AFE100206D490870052074
:1027E00051490870A8E150480078062808D1032014
:1027F0005049087007204C49087006F050FA02E072
:1028000003204949087097E196E195E135B1012D22
:1028100008D0102D0AD0112D10D10BE00020404916
:1028200048800CE001203E49488008E002203C49F5
:10283000488004E003203A49488000E000BF00BF20
:1028400006F0AAF806F0DAF8FEF705F974E19DF84B
:102850000500401E32490870AC2D04D0AD2D5DD06E
:10286000DC2D5CD1ADE000212D4881809DF8070072
:102870000121FFF711FE80469DF806000121FFF7B8
:102880000BFE00EBC00101EB001008EB80012448B7
:10289000C1809DF809000121FFF7FEFD80469DF8EB
:1028A00008000121FFF7F8FD00EBC00101EB00106B
:1028B00008EB80011A4801819DF80B000121FFF708
:1028C000EBFD80469DF80A000121FFF7E5FD00EBD6
:1028D000C00101EB001008EB8001114841819DF817
:1028E0000D000121FFF7D8FD80469DF80C00012165
:1028F000FFF7D2FD00EBC00101EB001008EB8001F7
:10290000074881819DF80F000121FFF7C5FD804632
:102910009DF80E000121FFF7BFFD3BE0B6E002E1AC
:10292000F00000200500002003000020F00200203D
:102930007C02002004000020400000204944454C57
:102940000000000053544F5000000000504153530A
:102950000000000048494748000000004C4F572045
:10296000000000004F464C20000000004152432070
:10297000000000005445535400000000FE010020F8
:1029800000380140C8010020B902002012020020D6
:102990002F00002000EBC00101EB001008EB8001CC
:1029A000FB48C1819DF8101041829DF8110050280C
:1029B00003D10021F648018202E00121F44801829E
:1029C000B1E00121F24881809DF80700FFF764FD26
:1029D00080469DF806000121FFF75EFD00EBC00177
:1029E00001EB001008EB8001E948C1809DF8090067
:1029F0000121FFF751FD80469DF808000121FFF7F6
:102A00004BFD00EBC00101EB001008EB8001E0483A
:102A100001819DF80B000121FFF73EFD80469DF8E6
:102A20000A000121FFF738FD00EBC00101EB0010A7
:102A300008EB8001D64841819DF80D000121FFF788
:102A40002BFD80469DF80C000121FFF725FD00EBD2
:102A5000C00101EB001008EB8001CD4881819DF899
:102A60000F000121FFF718FD80469DF80E0001219F
:102A7000FFF712FD00EBC00101EB001008EB800135
:102A8000C348C1819DF8101041824CE09DF80700B9
:102A90000121FFF701FD80469DF806000121FFF7A7
:102AA000FBFC00EBC00101EB001008EB8001B84813
:102AB00081829DF809000121FFF7EEFC80469DF818
:102AC00008000121FFF7E8FC00EBC00101EB00105A
:102AD00008EB8001AE48C1829DF80B000121FFF791
:102AE000DBFC80469DF80A000121FFF7D5FC00EBD6
:102AF000C00101EB001008EB8001A54801839DF89F
:102B00000D000121FFF7C8FC80469DF80C00012153
:102B1000FFF7C2FC00EBC00101EB001008EB8001E5
:102B20009B48418300BF00BF05F036FF05F066FFFC
:102B3000FDF791FF00E000BFDDE0954890F8480008
:102B40000128F9D19348007E78B11E2291491B31AA
:102B500008A806F085FB9DF822709DF823600020F0
:102B60008C49087600218B48417626B1012E44D04D
:102B7000022E41D151E0022F25D19DF82400542886
:102B800009D100208449087005208449087001207B
:102B90008349087030E09DF8240052282CD17F48EA
:102BA000007806280BD103207E49087007207B4956
:102BB000087006F074F80120794908701CE00320C1
:102BC0007649087018E0032F16D19DF82400742868
:102BD00012D10020704908709DF825006C490870DA
:102BE00005F0DAFE03206D49087005F018FFFDF7C7
:102BF00072FE0520694908707CE09DF82400644954
:102C0000087005F0C9FE03206449087005F007FF4D
:102C1000FDF761FEFDF71FFF6CE09DF8240062499F
:102C20000870084600788009594948805E48007855
:102C3000C0F34011564881805B480078C0F3001112
:102C4000534801825848007800F00F0150484182F3
:102C50009DF8251081829DF827009DF8261000EB35
:102C6000012081B24A48C1809DF829009DF82810B2
:102C700000EB012081B2464801819DF82B009DF8B0
:102C80002A1000EB012081B2414841819DF82D00BE
:102C90009DF82C1000EB012081B23D4881819DF808
:102CA0002F009DF82E1000EB012081B23848C18121
:102CB0009DF831009DF8301000EB012081B23448BE
:102CC000C1829DF833009DF8321000EB012081B2E3
:102CD0002F4801839DF835009DF8341000EB01204A
:102CE00081B22B48418305F057FE05F087FEFDF7C2
:102CF000B2FE00BF00BF10B0BDE8F08170B500208B
:102D000028490870FDF7A7FE05F0FAFE05F0A7FFB9
:102D100000202149087096E0FFF756FC0A2005F0D4
:102D2000CEFC0446662C71D008DCA4F161000528B5
:102D30006DD2DFE800F010143D576300E62C78D028
:102D400004DC672C76D0682C7BD167E0E72C72D04E
:102D5000E82C76D163E004201049087072E0134833
:102D60000078A0B90A480078401C09490870084654
:102D70000078082801DD0020087005F050FEFDF7FE
:102D8000AAFD05F009FE05F0D9FDFDF764FE59E046
:102D9000F00000207C0200202F0000200300002013
:102DA0004800002004000020500000200500002002
:102DB000FE480078A8B9FE48007828B1FC480078A1
:102DC000401EFB49087002E00820F949087005F030
:102DD00026FEFDF780FD05F0DFFD05F0AFFDFDF7F8
:102DE0003AFE2FE0F148007818B1F0480078401E14
:102DF00000E00320C5B2ED48057023E0EB48007801
:102E0000032806DAE9480078401C03E010E018E0E7
:102E10000FE00020C5B2E548057013E000BF0520B3
:102E2000E44908700020E44908700BE002E002E089
:102E300000BF00BF00BF0020DC490870DE490870F9
:102E400000E000BF00BFDB48007803283FF464AF18
:102E500070BD10B5FFF7A0F810BD10B513E000204D
:102E6000D6490870D6490870D349087005F0FCFDB2
:102E700000214FF0804003F003FF0120D14908708A
:102E80000620CC490870CB4800780528E7D010BD53
:102E900010B5002005F0E8FD00214FF0804003F060
:102EA000EFFE6420FDF7FFF905F074FE10BD2DE97B
:102EB000FC5F0120C3490870BD48B0F802808088DB
:102EC000C0B20090BA488088BF49097860F34511C4
:102ED000BD480170B648408AC0B20190002005F09C
:102EE000CAFDB8F1000F2ED10020B8490870B048D3
:102EF000C08800EB80004FF6FF7101EA4005AC4846
:102F00008089012801D1022601E0A94886892C4642
:102F10000327F020AE49088040F6D860AD4908800C
:102F20009DF8000038B9AC4800884443A048808B25
:102F3000B4FBF0F4CCE0A848408844439C48008CA3
:102F4000B4FBF0F4C4E0B8F1010F1DD14FF4B4703C
:102F50009F49088040F6D8609E49088001209B491F
:102F6000087000269248808A00EB80004FF6FF71BF
:102F700001EA40052C4605279748808844438C4841
:102F8000808CB4FBF0F4A3E0B8F1030F4FD1884874
:102F9000808A00EB80004FF6FF7101EA400584480B
:102FA0008089012801D1022601E0814886892C46CA
:102FB0008A480078A0B94FF4B4708549088040F67B
:102FC000D8608449088001208049087005270026C0
:102FD0008148808844437648808CB4FBF0F477E0E5
:102FE000F0207B49088040F6D8607A4908800020AC
:102FF000764908706E48C08800EB80004FF6FF717C
:1030000001EA40052C4603279DF8000038B97248B4
:10301000008844436648808BB4FBF0F458E06E4867
:10302000408844436248008CB4FBF0F450E06B48A5
:10303000007870BBF0206649088040F6D86065498A
:1030400008805B488089012801D1022601E05848A8
:1030500086895748C08800EB80004FF6FF7101EA6F
:1030600040052C4603270020584908709DF80000B1
:1030700038B95948008844434D48808BB4FBF0F47C
:1030800026E05548408844434948008CB4FBF0F49E
:103090001EE0FFE74FF4B4704D49088040F6D86059
:1030A0004C49088000264248808A00EB80004FF699
:1030B000FF7101EA40052C460527012043490870AD
:1030C0004548808844433A48808CB4FBF0F400BF04
:1030D000DFF8DC9009F11C094FF00B0BDFF800A1C1
:1030E0004FF02C0B002705E019F8010B0AF8010B33
:1030F000781CC7B25F45F7DB00203A4908603A49BF
:1031000008803A4908603A4908803A4908703A49C3
:1031100008803A4908803A4908703A4908803A4993
:1031200008803A490870002708E00020384921F853
:103130001700384921F81700781CC7B2082FF4DBB4
:1031400031490C80002E7DD001202D4908702E4879
:103150000488B4FBF6F429490C800488B4FBF6F02B
:1031600006FB104424490C8024480088012869DAB1
:103170000A20234908702448048804EB8400440092
:10318000B4FBF6F41D490C801F48048804EB84004E
:103190004400B4FBF6F006FB104417490C801748B6
:1031A000008801284EDA6420154936E00500002029
:1031B000F000002003000020000000201B00002081
:1031C0001C00002004000020500000202E000020E1
:1031D0003000002032000020340000202F000020AA
:1031E000D20100200C0000201E000020140000204E
:1031F00020000020220000202400002026000020C3
:10320000280000202A0000202C00002001000020BF
:10321000A8010020B801002014E00870FD480488CF
:1032200004EB84004400B4FBF6F4FB490C80F9483D
:10323000048804EB84004400B4FBF6F006FB104461
:10324000F6490C80B8F1000F12D0B8F1010F06D08A
:10325000B8F1020F54D0B8F1030F7CD126E005F08D
:1032600055FD022005F08BFD0220ED49087077E046
:103270009DF8000048B105F049FD022005F07FFDF2
:103280009DF8040005F0F7FB0FE005F05BFDE54855
:10329000008A18B1012005F072FD02E0002005F05F
:1032A0006EFD9DF8040005F0E6FB59E0DE4800786D
:1032B00040B905F02BFD022005F061FD0220D84940
:1032C00008701CE09DF8000048B105F01FFD0220C9
:1032D00005F055FD9DF8040005F0CDFB0FE005F06D
:1032E00031FDD048008A18B1012005F048FD02E008
:1032F000002005F044FD9DF8040005F0BCFB2FE024
:10330000C9480078F0B99DF8000048B105F0FEFC0E
:10331000022005F034FD9DF8040005F0ACFB19E037
:1033200005F010FDBF48008A18B1012005F027FD07
:1033300002E0002005F023FD9DF8040005F09BFB52
:1033400008E008E005F0E2FC022005F018FD02208C
:10335000B349087004E00720B4490870BDE8FC9F39
:1033600000BF002005F080FB0121880703F088FCE6
:1033700005F090FC0020AE49087008460078FDF783
:103380007BFC05F06CFC05F0BBFB05F0EBFB0820BB
:10339000A849087002204870162008700220487062
:1033A00000200870A448007800EB4000202101EBC9
:1033B000C000A0494870002008709F48007800EBCA
:1033C0004000C00020304870B8F1000F09D0B8F1BB
:1033D000010F07D0B8F1020F05D0B8F1030F04D1E7
:1033E00002E000BF02E001E000E000BF00BF0020FB
:1033F00090490870FDF725FB00BFAFE738B58F484F
:103400000068B0F5805F03D340F6FF708B49086019
:103410008B480088B0F5805F03DB40F6FF70884979
:1034200008808848008800283ED0012804D002285F
:103430007CD003287BD192E1834840897F4A009069
:10344000126893B27A4A1278D21D7F4D05EB820240
:103450005188774A1278D21D35F82200784A1288AE
:10346000FEF7E1FF0446A0B278490860734800689F
:1034700000EB8000440028460089444328464089E8
:10348000B4FBF0F40A20B4FBF0F100FB1140042877
:1034900000D90A340A20B4FBF0F4A0B20A2190FB50
:1034A000F1F06649086014E26548008800EB80008E
:1034B00044005C488088D8BB5D480078C01C6249E5
:1034C00031F8200044435A480078C01C01EB8000CA
:1034D0004088B4FBF0F40A20B4FBF0F100FB11408B
:1034E000042800D90A340A20B4FBF0F45849CC81EE
:1034F0005248006800EB8000440053480088444371
:1035000051484088B4FBF0F40A20B4FBF0F100FB12
:103510001140042800D90A340A20B4FBF0F4A0B208
:103520000A2190FBF1F0454908603BE03BE0CFE128
:10353000FFE73F480078401D434931F820004443ED
:103540003B480078401D01EB80004088B4FBF0F45C
:103550000A20B4FBF0F100FB1140042800D90A3422
:103560000A20B4FBF0F43A49CC813448006800EBFF
:10357000800044003448808844433348C088B4FB0A
:10358000F0F40A20B4FBF0F100FB1140042800D94C
:103590000A340A20B4FBF0F4A0B20A2190FBF1F047
:1035A0002649086095E12048007800287ED124480B
:1035B000008800EB800044001A48808848BB1C4803
:1035C0000078C01C204931F8200044431848007896
:1035D000C01C01EB80004088B4FBF0F40A20B4FB6F
:1035E000F0F100FB1140042800D90A340A20B4FB92
:1035F000F0F41749CC811148006800EB80004400CA
:1036000011480088444310484088B4FBF0F40A2075
:1036100020E030E02C0000202600002024000020C4
:1036200004000020F00000202F00002003000020F4
:1036300006000020AE0000201C0000200C0000202E
:103640001E000020C8010020D2010020140000202C
:10365000D4000020B4FBF0F100FB1140042800D995
:103660000A340A20B4FBF0F4A0B20A2190FBF1F076
:10367000FE49086072E0FE480078401DFD4931F8BF
:1036800020004443FA480078401D01EB8000408848
:10369000B4FBF0F40A20B4FBF0F100FB1140042865
:1036A00000D90A340A20B4FBF0F400E01FE0F2492C
:1036B000CC81EE48006800EB80004400ED48808833
:1036C0004443EC48C088B4FBF0F40A20B4FBF0F1AA
:1036D00000FB1140042800D90A340A20B4FBF0F49E
:1036E000A0B20A2190FBF1F0E049086036E0E14821
:1036F0004089DE4A0090126893B2DD4A1278D21DEA
:10370000DC4D05EB82025188D94A1278D21D35F87A
:103710002200DA4A1288FEF786FE0446A0B2D84993
:103720000860D248006800EB800044002846008909
:10373000444328464089B4FBF0F40A20B4FBF0F17E
:1037400000FB1140042800D90A340A20B4FBF0F42D
:10375000A0B20A2190FBF1F0C4490860B9E0C94861
:103760000078B8BBC3484089C04A0090126893B241
:10377000BF4A1278D21DBF4D05EB82025188BC4A68
:103780001278D21D35F82200BC4A1288FEF74BFE93
:103790000446A0B2BA490860B448006800EB800053
:1037A000440028460089444328464089B4FBF0F48D
:1037B0000A20B4FBF0F100FB1140042800D90A34C0
:1037C0000A20B4FBF0F4A0B20A2190FBF1F0A74963
:1037D00008607CE0FFE7A948008800EB8000440017
:1037E000A9488088C8BBA2480078C01CA14931F80C
:1037F000200044439E480078C01C01EB80004088B4
:10380000B4FBF0F40A20B4FBF0F100FB11400428F3
:1038100000D90A340A20B4FBF0F49749CC819348CC
:10382000006800EB800044009248008844439148BF
:103830004088B4FBF0F40A20B4FBF0F100FB114027
:10384000042800D90A340A20B4FBF0F4A0B20A21FB
:1038500090FBF1F08549086039E0FFE78448007883
:10386000401D844931F82000444381480078401DC0
:1038700001EB80004088B4FBF0F40A20B4FBF0F1C7
:1038800000FB1140042800D90A340A20B4FBF0F4EC
:103890007949CC817548006800EB80004400754888
:1038A000808844437348C088B4FBF0F40A20B4FB1A
:1038B000F0F100FB1140042800D90A340A20B4FBBF
:1038C000F0F4A0B20A2190FBF1F06849086000E032
:1038D00000BF00BF38BD0CB56C480078082804DA7A
:1038E0006A480078401C69490870072001900EE082
:1038F0009DF80400401E664931F810009DF8042030
:1039000021F812009DF80400401EC0B201909DF8FD
:1039100004000028ECDC554800685D490880002060
:1039200000905A480078019007E059489DF804102B
:1039300030F811000099084400909DF80400411EE1
:10394000C9B201910028F0D1504909780098B0FB24
:10395000F1F00090009880B244490860072001907F
:103960000EE09DF80400401E4A4931F810009DF811
:10397000042021F812009DF80400401EC0B20190FE
:103980009DF804000028ECDC3C4800884149088090
:10399000002000903D480078019007E03D489DF8E8
:1039A000041030F811000099084400909DF80400BC
:1039B000411EC9B201910028F0D13449097800981C
:1039C000B0FBF1F000902D49009808800CBD0EB5B9
:1039D00000200190009002900EE005F055F801994A
:1039E0000844019005F056F80099084400909DF8AD
:1039F0000800401CC0B202909DF808001028ECDBC3
:103A00000198C0F30F10194908600098C0F30F1017
:103A10001A4908800EBD2DE9F04F87B00025AB464E
:103A20000026A946AA460024174840881A4908805B
:103A30000846008805287DD2DFE800F03203845371
:103A4000B3001648007820F0C000403013490870D9
:103A50000D48C08A1049C8800B48008B08810A486D
:103A6000408B488002200590A2E000000C0000205E
:103A700006000020D2010020D40000201E000020FB
:103A8000140000202F000020F00000202200002061
:103A9000A8010020B8010020C8010020500000202B
:103AA000F748007820F0C000F5490870F548008913
:103AB000F549C880F34840890881F248C0894880A8
:103AC000F0488089012802D10220888003E0ED4877
:103AD0008089ED498880EB4880880090012005901E
:103AE00066E0E748007820F0C000C030E449087084
:103AF000E648007860B9E348C08AE349C880E148F5
:103B0000008B0881DF48408B48800220059018E038
:103B100001200590DB480089DB49C880D9484089ED
:103B20000881D848C0894880D6488089012804D1B6
:103B3000022000E036E0888003E0D2488089D24944
:103B4000888035E0CE48007820F0C0008030CC4935
:103B50000870CE480078B8B901200590C94800899E
:103B6000C949C880C74840890881C648C08948807B
:103B7000C4488089012802D10220888010E0C14811
:103B80008089C14988800BE002200590BD48C08A29
:103B9000BD49C880BB48008B0881BA48408B48802B
:103BA00006E005E00720BA49087007B0BDE8F08FCD
:103BB00000BFFFF77CF90020039004900290B54904
:103BC0000860B5490881B5490880B5490870097889
:103BD000B44A12781144C8B2FDF74EF800F0A1BF04
:103BE000B148007801286CD10020AF490870012548
:103BF000BDF8100042F20F71884204DABDF81000DF
:103C0000401C80B20490A9480078012826D19DF874
:103C10000C00401CC0B203909DF80C00A449097828
:103C2000884208DB002003909C480088A14909884D
:103C300008449A49088098480089934989888842AD
:103C400022DB0020944908819B4800889349088022
:103C50000220964908704FF0010B15E09648008845
:103C60008E4908808848408800280DDD8A480089F0
:103C700085494988884207DB072085490870042068
:103C80008A4908704FF0010B8448008804F0ECFE6C
:103C90009DF80800401CC0B202909DF80800092160
:103CA00090FBF1F201FB1200C0B202909DF80800F7
:103CB000052802DA04F09DFB01E004F096FBFCF716
:103CC00011FDFFF784FEFFF706FEFFF797FB7B4829
:103CD00000887B490988884204DD4FF001094FF0D4
:103CE000000A0DE07548008876490988884204DAA0
:103CF0004FF0010A4FF0000902E04FF00009CA46F8
:103D00000024674800789DF81410884208DABAF158
:103D1000010F05D162480078401C614908700124F8
:103D20005F480078002808DDB9F1010F05D15C4833
:103D30000078401E5A4908700124012C1FD1002030
:103D40006149087006900AE0002060499DF818203B
:103D500021F812009DF81800401CC0B206909DF892
:103D600018000828F0DB4E4909784E4A12781144B1
:103D7000C8B2FCF781FF3220FCF795FA09E142480E
:103D8000008830B101282BD0022876D0032875D1C5
:103D900040E043480078012806D13F48C0890A2105
:103DA00090FBF1F03C49C881BDF80000012803D127
:103DB00040F22620019002E04FF4966001903648D0
:103DC000C089BDF80410884203DD4FF6FF70324908
:103DD000C88124B9BDF81000022800DB0126D7E015
:103DE0003648008848B13A4800683A49884208D9BC
:103DF0004FF6FF703649086003E04FF6FF70344914
:103E0000086034B920488088BDF81010884200DC72
:103E10000126BDE01D480078C8B92848008848B18F
:103E20002B4800682B49884208D94FF6FF70284973
:103E3000086003E04FF6FF7025490860FCB912489E
:103E40008088BDF81010884259DC012657E01448DC
:103E50000078012806D11048C0890A2190FBF1F0B2
:103E60000D49C8814FF496600190BDF8000001280B
:103E700032D140F22620019031E041E087E03EE07F
:103E800050000020F0000020C80100202F0000207A
:103E90000300002010000020D40000202A00002091
:103EA000060000202E000020010000200400002059
:103EB00028000020260000202C0000201E000020EA
:103EC000320000203000002022000020B801002035
:103ED000140000209F8601004FF496600190FE4878
:103EE000C089BDF80410884203DD4FF6FF70FA491F
:103EF000C88124B9BDF81000022800DB012647E084
:103F0000F648007848BBF6480078012806D1F24808
:103F1000C0890A2190FBF1F0EF49C8814FF4966007
:103F20000190BDF80000012803D140F22620019045
:103F300002E04FF496600190E748C089BDF8041094
:103F4000884203DD4FF6FF70E349C881F4B9BDF83C
:103F5000100002281ADB012618E0E248008848B168
:103F6000E1480068E149884208D94FF6FF70DE4910
:103F7000086003E04FF6FF70DB49086034B9DC48A5
:103F80008088BDF81010884200DC012600E000BFE8
:103F900000BFD848007802287BD1012EFCD1002C2C
:103FA000FAD1D348008830B1012820D0022871D03E
:103FB000032870D15EE0C848C0890190CC48C08811
:103FC000BDF80410884205DA0620CA4908700220AC
:103FD000C9498870C6480089BDF80410884205DDCB
:103FE0000720C44908700320C34988700CE1BE480B
:103FF000006880B20190BA48007820B101280BD047
:10400000022819D110E0BDF804004FF47A7190FB3A
:10401000F1F080B2019010E0BDF80400642190FB43
:10402000F1F080B2019008E0BDF804000A2190FB95
:10403000F1F080B2019000E000BF00BFAC48C08842
:10404000BDF80410884208DAA948C08828B10620C3
:10405000A84908700820A8498870A5480089BDF8BB
:104060000410884205DD0720A24908700920A249F2
:104070008870C9E099480078F0BB9B48006880B21E
:1040800001909748007838B101280ED002281CD141
:1040900013E0BAE055E0B6E0BDF804004FF47A71E1
:1040A00090FBF1F080B2019010E0BDF804006421B3
:1040B00090FBF1F080B2019008E0BDF804000A2105
:1040C00090FBF1F080B2019000E000BF00BF884893
:1040D000C088BDF80410884208DA8548C08828B135
:1040E0000620844908700820834988708048008928
:1040F000BDF80410884200E007E021DD07207D497B
:10410000087009207C4988701AE07348C0890190C2
:104110007748C088BDF80410884205DA0620754942
:10412000087002207549887071480089BDF8041034
:10413000884205DD07206F49087003206F498870A9
:1041400062E066480078D8B96348C0890190684841
:10415000C088BDF80410884205DA06206549087059
:1041600002206549887062480089BDF804108842C1
:1041700048DD07205F49087003205F49887041E0EF
:104180005948006880B201905548007820B1012854
:104190000BD0022819D110E0BDF804004FF47A7159
:1041A00090FBF1F080B2019010E0BDF804006421B2
:1041B00090FBF1F080B2019008E0BDF804000A2104
:1041C00090FBF1F080B2019000E000BF00BF4848D2
:1041D000C088BDF80410884208DA4548C08828B174
:1041E00006204449087008204449887040480089E6
:1041F000BDF80410884205DD07203E4908700920FB
:104200003E49887000E000BF00BF3A4800780628A9
:104210000BD038480078072807D0364800780528A2
:1042200003D034480078082808D1012034490870A8
:1042300007203449087001254FF0010B012D6FD183
:104240000025002030490870012048702848008867
:1042500030B101287ED002287DD003287CD1B0E087
:104260002A48C0882A49096888420BD92748C0884B
:1042700027490968401A02280FD82448C0882449D1
:1042800008600AE02148C08821490968081A022804
:1042900003D81E48C0881E4908601D49096888B2B5
:1042A000012303220221FCF72CFB1A4804F06BFBCC
:1042B0001421194804F0EDFF1748164909680160F8
:1042C00016A104F0F1FF12480068000A0A490871BB
:1042D0000F480068487124E0D40000202F0000201F
:1042E000060000201E000020140000209F86010010
:1042F000C801002004000020260200203A0200200D
:104300000000002003000020AE000020F00000208C
:104310000C000020B0000020FE0100206B563B0086
:10432000D2E30920FE490870FE49C889002304220F
:104330000221FCF7E6FAFC480078082823D0FB4865
:1043400004F021FBF94805F03CFD074605F0DEF9D5
:10435000F74902E078E15EE2A4E30860F5A004F02A
:10436000FFFAF3480078F4498871F1484078C87141
:10437000EF4880780872EE48C0784872EFA1F048A4
:1043800004F092FF10E0E948EEA10A6802600979A2
:10439000017104F0F8FAEDA004F0E2FAFF20E6491A
:1043A0008871C87108724872E049E54804F07CFFE2
:1043B000DC4800890012E0498872DA480089C87236
:1043C00071E3E348007800287DD1E248808AE24921
:1043D000096888420BD9DF48808ADF490968401A9A
:1043E00002280FD8DB48808ADB4908600AE0D948F8
:1043F000808AD9490968081A022803D8D548808AD2
:10440000D5490860D449096888B2012303220221F2
:10441000FCF777FAC54804F0B6FA1421C84804F04E
:1044200038FFC748C14909680160AFF2101104F0B4
:104430003BFFC9480068000ABF490871C6480068C8
:1044400048710920B6490870C448006842F20F71EB
:10445000884225D9C2480078022810D1BF48006898
:104460000A21B0FBF1F087B2BE4ABD480078401C7B
:10447000115C012305223846FCF743FA1BE0B748DC
:1044800000680A21B0FBF1F087B2B64AB448007860
:10449000401C115C012304223846FCF732FA0AE082
:1044A000B04AAF4B1B78D15CAC4A126890B2012382
:1044B0000422FCF726FAA94800684FF6FF718842EB
:1044C0001ED09A4800E035E004F05DFA97499C4818
:1044D00004F0EAFE954805F074FC074605F016F96D
:1044E000934908600846007893498871904840785D
:1044F000C8718F48807808728D48C07848720CE087
:1045000099A004F040FA98A18D4804F0CDFEFF2058
:1045100089498871C8710872487295A1884804F069
:10452000C3FE804800890012834988727D48008953
:10453000C87288E08748C0888749096888420BD9D3
:104540008448C08884490968401A02280FD88148E5
:10455000C088814908600AE07E48C0887E490968B1
:10456000081A022803D87B48C0887B4908607A492A
:10457000096888B2012303220221FCF7C2F96B48C3
:1045800004F001FA14217C4804F083FE7A4867495C
:1045900009680160AFF27C2104F086FE6E48006875
:1045A000000A764908716C480068487109205C4926
:1045B00008705C49C889012304220221FCF7A1F993
:1045C0005948007808281CD0584804F0DCF95748AE
:1045D00005F0F7FB074605F099F8554908600846CD
:1045E00000786649887152484078C8715048807890
:1045F00008724F48C078487250A1514804F054FEE8
:104600000DE04A484FA10A6802600979017104F07F
:10461000BAF9FF2059498871C87108724872434934
:10462000474804F041FE414805F0CBFB074605F042
:104630006DF83F4908603B48008900124F49887275
:1046400038480089C8722EE24248808A4249096887
:1046500088420BD93F48808A3F490968401A02289E
:104660000FD83C48808A3C4908600AE03948808A73
:1046700039490968081A022803D83648808A364919
:1046800008603549096888B2012303220221FCF73A
:1046900038F9264804F077F91421294804F0F9FD87
:1046A0002748224909680160AFF2903104F0FCFD0F
:1046B00029480068000A20490871274800684871A5
:1046C0000920174908702548006842F20F71884296
:1046D00056D923480078022810D1204800680A21C2
:1046E000B0FBF1F087B21F4A1D480078401C115CF6
:1046F000002305223846FCF704F94CE0174800680F
:104700000A21B0FBF1F087B2164A15480078401C28
:10471000115C002304223846FCF7F3F83BE000006C
:10472000AE000020D400002004000020B0000020D3
:104730004C0000206D410000260200206D413B002E
:10474000FE0100204F464C412000000020200000C8
:104750002F000020F00000200C000020140000209A
:10476000060000206FA700082D2D2D2D2D00000024
:104770004DA6B83B00000000120200203A020020C3
:10478000FD4AFE4B1B78D15CFD4A126890B20123B2
:104790000422FCF7B6F8FA4800684FF6FF71884229
:1047A0001CD0F84804F0EFF8F649F74804F07CFD17
:1047B000F44805F006FB074604F0A8FFF34908603B
:1047C00008460078F2498871F0484078C871EF488F
:1047D00080780872ED48C07848720EE0AFF2780039
:1047E00004F0D1F8AFF28001E74804F05DFDFF204E
:1047F000E7498871C87108724872AFF28C01E248CB
:1048000004F052FDE34800890012E1498872E14852
:104810000089C87247E1E0480078E8BBDF48C088FB
:10482000DF49096888420BD9DC48C088DC4909683F
:10483000401A02280FD8D948C088D94908600AE030
:10484000D648C088D6490968081A022803D8D34830
:10485000C088D3490860D249096888B2012303227D
:104860000221FCF74EF8C74804F08DF81421C64821
:1048700004F00FFDC448C34909680160AFF26451F8
:1048800004F012FDC6480068000AC1490871C44816
:1048900000684871092000E04EE0C2490870BD4937
:1048A000C889012304220221FCF72BF8BE480078B6
:1048B000082821D0B34804F066F8B24805F081FA20
:1048C000074604F023FFB1490860AFF2981004F0E6
:1048D00047F8AE480078AE498871AC484078C87156
:1048E000AA4880780872A948C0784872AFF2B4111B
:1048F000A54804F0D9FC12E0A248AFF2B8110A684A
:1049000002600979017104F03EF8AFF2C01004F0C2
:1049100027F8FF209E498871C8710872487299492A
:10492000994804F0C1FC9B4800890012984988729C
:1049300098480089C872B4E09848808A9849096804
:1049400088420BD99548808A95490968401A0228FF
:104950000FD89248808A924908600AE08F48808A7E
:104960008F490968081A022803D88C48808A8C4924
:1049700008608B49096888B2012303220221FBF7F2
:10498000C0FF804803F0FFFF1421884804F081FC39
:1049900086487C4909680160AFF2806104F084FCBC
:1049A0007F480068000A824908717D4800684871A4
:1049B00009207C4908707248006842F20F718842F1
:1049C00025D96E480078022810D16D4800680A2168
:1049D000B0FBF1F087B2684A68480078401C115C6F
:1049E000002305223846FBF78CFF1BE06448006873
:1049F0000A21B0FBF1F087B25F4A60480078401CA2
:104A0000115C002304223846FBF77BFF0AE05A4A78
:104A10005A4B1B78D15C5A4A126890B20123042287
:104A2000FBF76FFF564800684FF6FF7188421CD0B5
:104A3000544803F0A8FF5349534804F035FC51484B
:104A400005F0BFF9074604F061FE504908600846CA
:104A50000078574988714D484078C8714B48807834
:104A600008724A48C07848720EE0AFF2043003F092
:104A70008AFFAFF20C314D4804F016FCFF204C4980
:104A80008871C87108724872AFF21C31474804F04F
:104A90000BFC404800890012454988723D48008956
:104AA000C87200E000BF00BF0A203E490870002025
:104AB000487038490889002304220121FBF721FFAF
:104AC000304803F060FF00BFFDF77EFD03F0ECFD12
:104AD00006909DF81800662814D008DC62280DD0D6
:104AE00063280CD064280BD0652818D109E067280A
:104AF0000AD0E62807D0E72811D106E010E00FE041
:104B00000EE00DE000BF00BF00BF03202649087083
:104B100007202849087004F0C2F8FFF746B800BF24
:104B200000BF2448007806283FF45AA81A480078A5
:104B3000401C1949087004F0B2F800BFEDE710B549
:104B40005A2013490870154890F8490048705A20B7
:104B500017490870114890F8490048700F48008ABA
:104B60001549097860F30411134801700B48408A15
:104B70001149097822E000006FA700080600002014
:104B800014000020B0000020FE0100204C00002096
:104B900026020020D40000202F000020F00000207A
:104BA0000C000020AE0000200400002012020020B3
:104BB0003A020020030000205000002060F30301AF
:104BC000FD4801700078FD49C870FB480078FC4939
:104BD000C870FC480078002856D1FB48008870B99E
:104BE000FA480078032805D0042807D10020F349AB
:104BF000887003E00120F149887000BF44E0F2486A
:104C0000008801280ED1F1480078032805D0042837
:104C100007D10620E949887003E00720E74988703A
:104C200000BF31E0E8480088032814D1E748007845
:104C3000032808D004280DD10620E0498870002000
:104C4000DF49887006E00720DC4988700120DC49D4
:104C5000887000BF18E0DC480088022814D1DB48C7
:104C60000078032808D004280DD10020D34988708B
:104C70000620D349887006E00120D04988700720BB
:104C8000CF49887000BF00BFCE480078002845D0CB
:104C9000CD48008810BBCD480078C01E06281CD225
:104CA000DFE800F00F0313070B170020C3498870DB
:104CB00013E00220C14988700FE00320BF498870CB
:104CC0000BE00120BD49887007E00420BB498870D3
:104CD00003E00520B949887000BF1FE0BA4800888A
:104CE00001281BD1B9480078032812D0042804D029
:104CF000062806D0072810D107E00620AF498870A3
:104D00000BE00820AD49887007E00920AB498870A6
:104D100003E00720A949887000BF00BF00240DE010
:104D2000A648015DAA4802F0C5FB00BF8021A84843
:104D300002F02EFC0028F9D0601CC4B20C2CEFDB72
:104D4000A1480088032803D09F480088022811D179
:104D500000240DE09A48015D9D4802F0ABFB00BFC6
:104D600080219B4802F014FC0028F9D0601CC4B2DA
:104D70000C2CEFDB10BD2DE9F04100279548408851
:104D8000C5B2FEF785F891480078032827D0052D95
:104D90001FD2DFE805F0040309081D0000BF08204A
:104DA0008D4908701AE000BF8C48007801280BD1AB
:104DB00086480078042803D106208749087006E059
:104DC00008208549087002E008208349087005E042
:104DD00004E0072080490870BDE8F0812CE0052D33
:104DE0001CD2DFE805F0040306051A001AE019E0FA
:104DF00018E07A48007801280BD17448007804281C
:104E000003D106207449087006E008207249087032
:104E100002E008207049087004E003E007206E49B2
:104E20000870D9E700BF6E480078012804D1FFF769
:104E300086FE00206A49087000206A4908704870A0
:104E4000FBF7FFFD04F041F860480078032807D124
:104E5000082064490870022048704FF6FF740CE087
:104E600061480078401C6049087060480078032859
:104E700003DB082058490870AEE75DE08FB10027DA
:104E80000E20584908700420487001230422194656
:104E90002046FBF736FD564803F062FD732003F011
:104EA00051FD0120FBF71EFA70B148480078032835
:104EB0000AD04FF6FF70844206D001270A21012054
:104EC000FBF70DFA601E84B2012C02DA062042497B
:104ED0000870FDF779FB052003F0F1FB0646672E0D
:104EE0000CD004DC642E07D0652E23D105E0682E9B
:104EF00019D0E72E1ED102E01DE01CE000BF3348B0
:104F0000007803280BD04FF6FF70844203D10320B2
:104F10003149087006E003202C49087002E00320A4
:104F20002D49087007E000202C49087006202A4906
:104F3000087000E000BF00BF2748007807289DD018
:104F400000BF49E770B5012503F024FE244800782E
:104F5000012804D1FFF7F3FD00202149087064E027
:104F6000012D19D1002516201E4908700220487015
:104F70001448007830B103F093FD03F070FE03F0A5
:104F8000D8FD09E003F0A8FF10480078042803D1F9
:104F900003F0B6FD03F048FEFDF716FB022003F018
:104FA0008EFB0446672C37D024DC642C29D0652C7A
:104FB00028D0662C37D12DE050000020260200209A
:104FC0003A02002000000020C80100200400002058
:104FD00000380140F0000020030000202F000020D6
:104FE00048000020AE0000201C0000201B00002014
:104FF000B0000020682C06D0E62C0CD0E72C12D193
:105000000BE011E010E0002023490870052023493F
:10501000087009E000BF07E000BF03201F490870C7
:1050200003F056FD00E000BF00BF1C4800780828D0
:1050300096D000201A49087070BD10B506E003F044
:10504000B7FE03F0FDFC03201449087013480078F4
:105050000128F4D010BD10B518E00A2011490870DD
:10506000022048700420087032204870002406E0B6
:1050700003F032FF0320FBF716F9601CC4B20A2CC0
:10508000F6DB01200549087003F0BAFE03480078FA
:105090000028E2D010BD00002F00002003000020F7
:1050A00000000020AE0000202DE9F04107460D462B
:1050B00016461C460121084601F041F8384602F028
:1050C000AFFD124804801248056046601020104968
:1050D00088600846C4600020086180204861002084
:1050E0008861C861202008624FF440504862002067
:1050F0008862384602F036FEBDE8F08110B50446FD
:105100000121204602F059FE10BD0000520000208F
:105110005002002070B504460020F949087048701C
:105120000A20B4FBF0F100FB114000EB0010F54940
:105130004518284603F027FC0920F1490870002093
:10514000487003F07AFB0020ED4908700120487098
:10515000ED4803F018FC70BD2DE9FF4704464FF001
:10516000000A03F0EBFBE94830F825000190E7481E
:1051700000EB8500408800900B25E54FDFF8948315
:10518000A8000390002505E017F8010B08F8010BB3
:10519000681CC5B29DF80C008542F5DB0020DE4995
:1051A0000860DE490880DE490860DE490870DE4993
:1051B000087003F054FD03F0A3FC03F0D3FC03F0EC
:1051C00084FE00260220D94908700A210120FBF73D
:1051D00086F80120CA49487002200870D44803F0BC
:1051E000D2FB0020C6494870087004EB0411D14A74
:1051F000881803F0C8FB002003F036FC0B2C6CD29F
:10520000DFE804F00616263637475758595A5B0030
:1052100003F098FD002003F0B2FD0121880701F0A2
:105220002FFD03F037FDC449088803F01DFC58E04A
:1052300003F06CFD022003F0A2FD0121880701F0BC
:105240001FFD03F027FDBC49488803F00DFC48E032
:1052500003F05CFD022003F092FD0121880701F0BC
:105260000FFD03F017FDB449888803F0FDFB38E01B
:1052700000BF03F067FD002003F081FD01218807D6
:1052800001F0FEFC03F006FDAB49888803F0ECFB5F
:1052900027E003F03BFD022003F071FD01218807A8
:1052A00001F0EEFC03F0F6FC4FF4B47003F0DCFB0D
:1052B00017E000BF00BF00BF00BF03F027FD0220C2
:1052C00003F05DFD0121880701F0DAFC03F0E2FC48
:1052D0009949888803F0C8FB03E0002003F0C4FB71
:1052E00000BF00BF8FE10120FAF7FCFF28B10120C9
:1052F0008D4908700A21FAF7F2FF8B4800780128DF
:1053000017D10020884908704FF0010A09F1010007
:1053100000F0FF09092099FBF0F100FB119000F06B
:10532000FF09B9F1050F02DA03F01CFC01E003F0FC
:1053300031FC03F0AFFB8149C88103F0A5FB7F4935
:1053400008601CB1012C01D0022C06D17B480068FA
:10535000704901EB840148803EE0032C0DD0062CFF
:105360000BD0042C01D1012000E00020052C01D13C
:10537000012100E00021084330B17048C08965492F
:1053800001EB8401488027E06C49096801EB810149
:10539000480004F045F96A4908606848C0890A284D
:1053A00002DA0A206549C8816449C88904F038F9DD
:1053B00063494860E01F634951F820006049C860B4
:1053C000FCF7BEFDFCF76BFD5D49486804F02DF964
:1053D000504901EB84014880BDF80800BDF8041075
:1053E000884205DCBDF8080000BFBDF8000000BF22
:1053F000BAF1010F12D14FF0000A0A20404908709B
:1054000000204870504A115D424A32F824000123BE
:105410000422FBF776FA4D4803F0B5FA03F044F99D
:1054200003909DF80C00672865D008DCA0F16200AD
:10543000052861D2DFE800F00C47AFB1B300E228E5
:105440001ED0E32859D0E62858D0E72854D1CBE025
:105450000026304830F82400401C2E4921F8240052
:10546000084630F82400294931F82410884206DD26
:10547000264800EB84004088264921F82400C1E03A
:10548000701CC6B20A2E07DD224830F824000A300C
:10549000204921F8240006E01E4830F82400401C72
:1054A0001C4921F824001B4830F82400174931F822
:1054B0002410884206DD154800EB84004088154919
:1054C00021F824009EE00026124830F82400401EF7
:1054D000104921F82400084630F824000B4931F81F
:1054E0002410884206DD094800EB84004088094901
:1054F00021F8240086E076E083E029E050E0000017
:10550000AE000020B4A70008D6A9000874A70008C0
:105510000C010020D20100200C0000201E00002001
:1055200014000020060000200100002004000020DC
:105530006FA800082CA9000834000020D400002027
:1055400068010020F49E0008E7A90008B0000020D0
:10555000701CC6B20A2E07DDF94830F824000A385C
:10556000F74921F8240006E0F54830F82400401EF1
:10557000F34921F82400F24830F82400F14931F8C9
:105580002410884206DDEF4800EB84004088EC4997
:1055900021F8240036E0002634E0002632E000BF87
:1055A00000214FF0804001F06BFB03F078FB0020FE
:1055B00003F05AFA03F0EEFAE34FDFF88483282071
:1055C0000390002505E018F8010B07F8010B681C93
:1055D000C5B29DF80C008542F5DB03F03AFA03F002
:1055E000D9FABDE8FF8700BF00214FF0804001F0ED
:1055F00047FB03F054FB002003F036FA03F0CAFA2D
:10560000EFE700BF00BFD148007809283FF46BAE38
:1056100000BFE6E72DE9FC5F044601200090322040
:10562000FAF741FE0020CA494870087004EB0411E3
:10563000C84A881803F0A7F90120C549487000201E
:105640000870C54803F09FF9002718E0BC4830F8FF
:105650002700BC4931F82410884208DCB84830F8EB
:105660002700B84901EB84014988884205DABB4824
:1056700030F81700B24921F82700781CC7B20A2F6A
:10568000E4D3DFF8C492DFF8B8A24FF0280800276F
:1056900005E019F8010B0AF8010B781CC7B2474561
:1056A000F7DBA84830F8245000EB840046880B2C28
:1056B00076D2DFE804F0063F76192C4F628699AC6B
:1056C000C1000020FBF7D8FA9F481C38808BA84205
:1056D00004DC9D481C38808BB04204DA4FF47A60B9
:1056E000974921F82400BDE00020FBF7C5FA964851
:1056F0001C38008DA84204DC93481C38008DB04251
:1057000004DA4FF47A708E4921F82400AAE00120CF
:10571000FBF7B2FA8C481C38008CA84204DC8A489B
:105720001C38008CB04204DA4FF47A70844921F8B6
:10573000240097E084481C38008CA84204DC82488E
:105740001C38008CB04204DA4FF47A607C4921F8AE
:10575000240087E00020FBF78FFA7B481C38008E7E
:10576000A84204DC78481C38008EB04204DA4FF4BA
:10577000FA70734921F8240074E00120FBF77CFAE9
:1057800071481C38808EA84204DC6F481C38808E1B
:10579000B04204DA4FF47A70694921F8240061E0DC
:1057A0005FE069481C38808CA84204DC66481C38DD
:1057B000808CB04204DA4FF47A70614921F82400F9
:1057C00050E00120FBF758FA5F481C38008FA842D0
:1057D00004DC5D481C38008FB04204DA4FF47A7064
:1057E000574921F824003DE00220FBF745FA5648CE
:1057F0001C38808FA84204DC53481C38808FB0428C
:1058000004DA4FF47A704E4921F824002AE003208C
:10581000FBF732FA4C481C38B0F84000A84205DCCF
:1058200049481C38B0F84000B04204DA4FF47A70AE
:10583000434921F8240015E00320FBF71DFA4248F4
:105840001C38B0F84400A84205DC3F481C38B0F8CA
:105850004400B04204DA4FF47A70394921F8240048
:1058600000E000BF00BF012782E00098012828D196
:10587000002000903A4810F804B00420019030490C
:1058800031F8240000235946019AFBF73AF800202A
:105890002F4948700A200870324803F074F800203D
:1058A0002B494870087004EB04112A4A881803F049
:1058B0006AF801202649487000200870264803F045
:1058C00062F80A2002F0FBFE8046B8F1680F2DD086
:1058D00009DCA8F16100072848D2DFE800F00E18C3
:1058E0001E4747244500A8F1E10007283ED2DFE823
:1058F00000F00511173D3D1B3C0000BF2046FFF79F
:105900002BFC03F01BF80120009000272FE0012062
:1059100000902CE00120009029E00120009026E07A
:105920000120009023E000BFBDE8FC9F2046FFF768
:1059300013FC03F003F801200090002717E000009B
:10594000D201002074A700080C01002003000020F1
:10595000AE000020B4A700085EA80008A0A70008B9
:10596000E7A90008B000002000BFDDE700BF00BFCE
:10597000002F7FF47AAF00BFD6E72DE9FC4100206D
:105980000090012765E0012F04D100279DF8000059
:10599000FFF7C0FB0A2002F092FE01909DF8040080
:1059A00066283AD006DC61280BD0622811D0632823
:1059B0004DD120E0672848D0E6282FD0E72846D1EF
:1059C00044E002F0BBFF9DF80000FFF723FE012733
:1059D0003EE09DF80000092805D29DF80000401C1B
:1059E000C0B2009001E0002000909DF8000038490E
:1059F000087001272CE09DF80000002805DD9DF8C7
:105A00000000401EC0B2009001E0092000909DF807
:105A100000002F49087001271AE000BF0B242D4D0C
:105A20002D4EA0000190002405E016F8010B05F8AA
:105A3000010B601CC4B29DF804008442F5DB03F046
:105A400008F803202549087002E000BF00E000BF0D
:105A500000BF22480078092895D0BDE8FC8110B528
:105A600002F06CFF05201E490870002048701DA040
:105A700002F076FF01201A49087048701CA002F05D
:105A80006FFF1FE00A2002F01AFE0446662C0CD0BD
:105A900004DC642C07D0652C12D105E0672C0DD0F6
:105AA000E72C0DD10BE000BF10BD08200C49087099
:105AB0001420487016A002F053FFF5E700BFF3E78B
:105AC00000BF00BF054800780928DBD000BFEBE726
:105AD000540000200C010020D2010020030000200F
